{
  "_format": "hh-sol-artifact-1",
  "contractName": "EIP1271Wallet",
  "sourceName": "contracts/test/EIP1271Wallet.sol",
  "abi": [
    {
      "inputs": [
        {
          "internalType": "address",
          "name": "_owner",
          "type": "address"
        }
      ],
      "stateMutability": "nonpayable",
      "type": "constructor"
    },
    {
      "inputs": [
        {
          "internalType": "contract ERC20ApprovalInterface",
          "name": "token",
          "type": "address"
        },
        {
          "internalType": "address",
          "name": "operator",
          "type": "address"
        },
        {
          "internalType": "uint256",
          "name": "amount",
          "type": "uint256"
        }
      ],
      "name": "approveERC20",
      "outputs": [],
      "stateMutability": "nonpayable",
      "type": "function"
    },
    {
      "inputs": [
        {
          "internalType": "contract NFTApprovalInterface",
          "name": "token",
          "type": "address"
        },
        {
          "internalType": "address",
          "name": "operator",
          "type": "address"
        }
      ],
      "name": "approveNFT",
      "outputs": [],
      "stateMutability": "nonpayable",
      "type": "function"
    },
    {
      "inputs": [
        {
          "internalType": "bytes32",
          "name": "",
          "type": "bytes32"
        }
      ],
      "name": "digestApproved",
      "outputs": [
        {
          "internalType": "bool",
          "name": "",
          "type": "bool"
        }
      ],
      "stateMutability": "view",
      "type": "function"
    },
    {
      "inputs": [],
      "name": "isValid",
      "outputs": [
        {
          "internalType": "bool",
          "name": "",
          "type": "bool"
        }
      ],
      "stateMutability": "view",
      "type": "function"
    },
    {
      "inputs": [
        {
          "internalType": "bytes32",
          "name": "digest",
          "type": "bytes32"
        },
        {
          "internalType": "bytes",
          "name": "signature",
          "type": "bytes"
        }
      ],
      "name": "isValidSignature",
      "outputs": [
        {
          "internalType": "bytes4",
          "name": "",
          "type": "bytes4"
        }
      ],
      "stateMutability": "view",
      "type": "function"
    },
    {
      "inputs": [],
      "name": "owner",
      "outputs": [
        {
          "internalType": "address",
          "name": "",
          "type": "address"
        }
      ],
      "stateMutability": "view",
      "type": "function"
    },
    {
      "inputs": [
        {
          "internalType": "bytes32",
          "name": "digest",
          "type": "bytes32"
        },
        {
          "internalType": "bool",
          "name": "approved",
          "type": "bool"
        }
      ],
      "name": "registerDigest",
      "outputs": [],
      "stateMutability": "nonpayable",
      "type": "function"
    },
    {
      "inputs": [
        {
          "internalType": "bool",
          "name": "showMessage",
          "type": "bool"
        }
      ],
      "name": "revertWithMessage",
      "outputs": [],
      "stateMutability": "nonpayable",
      "type": "function"
    },
    {
      "inputs": [
        {
          "internalType": "bool",
          "name": "valid",
          "type": "bool"
        }
      ],
      "name": "setValid",
      "outputs": [],
      "stateMutability": "nonpayable",
      "type": "function"
    },
    {
      "inputs": [],
      "name": "showRevertMessage",
      "outputs": [
        {
          "internalType": "bool",
          "name": "",
          "type": "bool"
        }
      ],
      "stateMutability": "view",
      "type": "function"
    }
  ],
  "bytecode": "0x60a03461009c57601f610a1b38819003918201601f19168301916001600160401b038311848410176100a15780849260209460405283398101031261009c57516001600160a01b038116810361009c5761006f90608052600160ff19818160005416176000556002541617600255565b60405161096390816100b882396080518181816103d701528181610524015281816105b001526107cf0152f35b600080fd5b634e487b7160e01b600052604160045260246000fdfe60806040526004361015610013575b600080fd5b6000803560e01c9081631626ba7e146100de5750806329e282e8146100d557806346a35674146100cc5780636c64edee146100c357806384e6d7e7146100ba5780638da5cb5b146100b157806397fe8014146100a8578063a8e5e4aa1461009f578063bb5d40eb146100965763de77d5e01461008e57600080fd5b61000e6106a5565b5061000e610681565b5061000e61056c565b5061000e610548565b5061000e6104f6565b5061000e610393565b5061000e610321565b5061000e6102cd565b5061000e61026a565b346101cb5760406003193601126101cb5760243567ffffffffffffffff8082116101c757366023830112156101c75781600401359081116101ba575b6040519161015060207fffffffffffffffffffffffffffffffffffffffffffffffffffffffffffffffe0601f850116018461021f565b81835236602483830101116101b6579260208261017f949360246101b2970183860137830101526004356106fc565b6040517fffffffff0000000000000000000000000000000000000000000000000000000090911681529081906020820190565b0390f35b8380fd5b6101c26101ce565b61011a565b8280fd5b80fd5b507f4e487b7100000000000000000000000000000000000000000000000000000000600052604160045260246000fd5b67ffffffffffffffff811161021257604052565b61021a6101ce565b604052565b90601f7fffffffffffffffffffffffffffffffffffffffffffffffffffffffffffffffe0910116810190811067ffffffffffffffff82111761021257604052565b8015150361000e57565b503461000e57604060031936011261000e5760243561028881610260565b600435600052600160205260406000209060ff7fffffffffffffffffffffffffffffffffffffffffffffffffffffffffffffff00835416911515161790556000604051f35b503461000e57602060031936011261000e576004356102eb81610260565b60ff7fffffffffffffffffffffffffffffffffffffffffffffffffffffffffffffff006000541691151516176000556000604051f35b503461000e57602060031936011261000e5760043561033f81610260565b60ff7fffffffffffffffffffffffffffffffffffffffffffffffffffffffffffffff006002541691151516176002556000604051f35b73ffffffffffffffffffffffffffffffffffffffff81160361000e57565b503461000e57604060031936011261000e576004356103b181610375565b602435906103be82610375565b73ffffffffffffffffffffffffffffffffffffffff90817f000000000000000000000000000000000000000000000000000000000000000016330361048c5716803b1561000e576040517fa22cb46500000000000000000000000000000000000000000000000000000000815273ffffffffffffffffffffffffffffffffffffffff8316600482015260016024820152906000908290604490829084905af1801561047f575b61046a57005b8061047761047d926101fe565b806104eb565b005b6104876106ef565b610464565b6040517f08c379a000000000000000000000000000000000000000000000000000000000815260206004820152600a60248201527f4f6e6c79206f776e6572000000000000000000000000000000000000000000006044820152606490fd5b600091031261000e57565b503461000e57600060031936011261000e57602060405173ffffffffffffffffffffffffffffffffffffffff7f0000000000000000000000000000000000000000000000000000000000000000168152f35b503461000e57600060031936011261000e57602060ff600054166040519015158152f35b503461000e57606060031936011261000e5760043561058a81610375565b6024359061059782610375565b73ffffffffffffffffffffffffffffffffffffffff91827f000000000000000000000000000000000000000000000000000000000000000016330361048c5760209161063b9160006040519586809581947f095ea7b300000000000000000000000000000000000000000000000000000000835260443590600484016020909392919373ffffffffffffffffffffffffffffffffffffffff60408201951681520152565b0393165af18015610674575b61064d57005b61047d9060203d811161066d575b610665818361021f565b8101906106d7565b503d61065b565b61067c6106ef565b610647565b503461000e57600060031936011261000e57602060ff600254166040519015158152f35b503461000e57602060031936011261000e576004356000526001602052602060ff604060002054166040519015158152f35b9081602091031261000e57516106ec81610260565b90565b506040513d6000823e3d90fd5b61071a610713826000526001602052604060002090565b5460ff1690565b610907578151604081146108cf5760410361000e576020820151906060604084015193015192600093841a927f7fffffffffffffffffffffffffffffff5d576e7357a4501ddfe92f46681b20a082116108c057601b841415806108c4575b6108c0576040805193845260ff94909416602080850191909152938301526060820152828052829060809060015afa156108b3575b73ffffffffffffffffffffffffffffffffffffffff808251169081156101c7577f00000000000000000000000000000000000000000000000000000000000000001603610848575060025460ff1615610824577f1626ba7e0000000000000000000000000000000000000000000000000000000090565b7fffffffff0000000000000000000000000000000000000000000000000000000090565b805460ff166108545780fd5b6040517f08c379a000000000000000000000000000000000000000000000000000000000815260206004820152600a60248201527f424144205349474e4552000000000000000000000000000000000000000000006044820152606490fd5b6108bb6106ef565b6107ad565b8480fd5b50601c841415610778565b5050506108de60025460ff1690565b15610824577f1626ba7e0000000000000000000000000000000000000000000000000000000090565b50507f1626ba7e000000000000000000000000000000000000000000000000000000009056fea2646970667358221220258550fa89f90ff2d7d3c928a91f77444140dda2eeaa919b96546cb4c9cf79f264736f6c634300080e0033",
  "linkReferences": {},
  "deployedLinkReferences": {}
}