{
  "abi": [
    {
      "inputs": [],
      "name": "UnexpectedBatchData",
      "type": "error"
    },
    {
      "inputs": [
        {
          "internalType": "address",
          "name": "",
          "type": "address"
        },
        {
          "internalType": "address",
          "name": "",
          "type": "address"
        },
        {
          "internalType": "uint256[]",
          "name": "",
          "type": "uint256[]"
        },
        {
          "internalType": "uint256[]",
          "name": "",
          "type": "uint256[]"
        },
        {
          "internalType": "bytes",
          "name": "data",
          "type": "bytes"
        }
      ],
      "name": "onERC1155BatchReceived",
      "outputs": [
        {
          "internalType": "bytes4",
          "name": "",
          "type": "bytes4"
        }
      ],
      "stateMutability": "pure",
      "type": "function"
    }
  ],
  "bytecode": {
    "object": "0x608060405234801561001057600080fd5b50610301806100206000396000f3fe608060405234801561001057600080fd5b506004361061002b5760003560e01c8063bc197c8114610030575b600080fd5b61004361003e366004610186565b610078565b6040517fffffffff00000000000000000000000000000000000000000000000000000000909116815260200160405180910390f35b600081516000146100b5576040517fef402e3800000000000000000000000000000000000000000000000000000000815260040160405180910390fd5b507fbc197c8100000000000000000000000000000000000000000000000000000000979650505050505050565b803573ffffffffffffffffffffffffffffffffffffffff8116811461010657600080fd5b919050565b60008083601f84011261011d57600080fd5b50813567ffffffffffffffff81111561013557600080fd5b6020830191508360208260051b850101111561015057600080fd5b9250929050565b7f4e487b7100000000000000000000000000000000000000000000000000000000600052604160045260246000fd5b600080600080600080600060a0888a0312156101a157600080fd5b6101aa886100e2565b96506101b8602089016100e2565b9550604088013567ffffffffffffffff808211156101d557600080fd5b6101e18b838c0161010b565b909750955060608a01359150808211156101fa57600080fd5b6102068b838c0161010b565b909550935060808a013591508082111561021f57600080fd5b818a0191508a601f83011261023357600080fd5b81358181111561024557610245610157565b604051601f82017fffffffffffffffffffffffffffffffffffffffffffffffffffffffffffffffe0908116603f0116810190838211818310171561028b5761028b610157565b816040528281528d60208487010111156102a457600080fd5b8260208601602083013760006020848301015280955050505050509295989194975092955056fea2646970667358221220dedf0c01c6aae45cfb1a7641dc9206c0c4cda6da2b8105950e07b459e990ea5164736f6c634300080e0033",
    "linkReferences": {}
  },
  "methodIdentifiers": {
    "onERC1155BatchReceived(address,address,uint256[],uint256[],bytes)": "bc197c81"
  },
  "id": 49
}