{
  "abi": [
    {
      "inputs": [],
      "stateMutability": "nonpayable",
      "type": "constructor"
    },
    {
      "inputs": [],
      "name": "CallerIsNotOperator",
      "type": "error"
    },
    {
      "inputs": [],
      "name": "CallerIsNotOwner",
      "type": "error"
    },
    {
      "inputs": [],
      "name": "CallerIsNotPotentialOwner",
      "type": "error"
    },
    {
      "inputs": [],
      "name": "InvalidController",
      "type": "error"
    },
    {
      "inputs": [],
      "name": "InvalidOperator",
      "type": "error"
    },
    {
      "inputs": [],
      "name": "InvalidPauser",
      "type": "error"
    },
    {
      "inputs": [],
      "name": "OwnerCanNotBeSetAsZero",
      "type": "error"
    },
    {
      "inputs": [],
      "name": "PauserCanNotBeSetAsZero",
      "type": "error"
    },
    {
      "inputs": [
        {
          "internalType": "address",
          "name": "zone",
          "type": "address"
        }
      ],
      "name": "ZoneAlreadyExists",
      "type": "error"
    },
    {
      "anonymous": false,
      "inputs": [
        {
          "indexed": false,
          "internalType": "address",
          "name": "newOperator",
          "type": "address"
        }
      ],
      "name": "OperatorUpdated",
      "type": "event"
    },
    {
      "anonymous": false,
      "inputs": [
        {
          "indexed": false,
          "internalType": "address",
          "name": "previousOwner",
          "type": "address"
        },
        {
          "indexed": false,
          "internalType": "address",
          "name": "newOwner",
          "type": "address"
        }
      ],
      "name": "OwnershipTransferred",
      "type": "event"
    },
    {
      "anonymous": false,
      "inputs": [],
      "name": "Paused",
      "type": "event"
    },
    {
      "anonymous": false,
      "inputs": [
        {
          "indexed": false,
          "internalType": "address",
          "name": "newPauser",
          "type": "address"
        }
      ],
      "name": "PauserUpdated",
      "type": "event"
    },
    {
      "anonymous": false,
      "inputs": [
        {
          "indexed": false,
          "internalType": "address",
          "name": "newPotentialOwner",
          "type": "address"
        }
      ],
      "name": "PotentialOwnerUpdated",
      "type": "event"
    },
    {
      "anonymous": false,
      "inputs": [],
      "name": "Unpaused",
      "type": "event"
    },
    {
      "anonymous": false,
      "inputs": [
        {
          "indexed": false,
          "internalType": "address",
          "name": "zone",
          "type": "address"
        },
        {
          "indexed": false,
          "internalType": "bytes32",
          "name": "salt",
          "type": "bytes32"
        }
      ],
      "name": "ZoneCreated",
      "type": "event"
    },
    {
      "inputs": [
        {
          "internalType": "address",
          "name": "operatorToAssign",
          "type": "address"
        }
      ],
      "name": "assignOperator",
      "outputs": [],
      "stateMutability": "nonpayable",
      "type": "function"
    },
    {
      "inputs": [
        {
          "internalType": "contract SeaportInterface",
          "name": "seaport",
          "type": "address"
        },
        {
          "components": [
            {
              "internalType": "address",
              "name": "offerer",
              "type": "address"
            },
            {
              "internalType": "address",
              "name": "zone",
              "type": "address"
            },
            {
              "components": [
                {
                  "internalType": "enum ItemType",
                  "name": "itemType",
                  "type": "uint8"
                },
                {
                  "internalType": "address",
                  "name": "token",
                  "type": "address"
                },
                {
                  "internalType": "uint256",
                  "name": "identifierOrCriteria",
                  "type": "uint256"
                },
                {
                  "internalType": "uint256",
                  "name": "startAmount",
                  "type": "uint256"
                },
                {
                  "internalType": "uint256",
                  "name": "endAmount",
                  "type": "uint256"
                }
              ],
              "internalType": "struct OfferItem[]",
              "name": "offer",
              "type": "tuple[]"
            },
            {
              "components": [
                {
                  "internalType": "enum ItemType",
                  "name": "itemType",
                  "type": "uint8"
                },
                {
                  "internalType": "address",
                  "name": "token",
                  "type": "address"
                },
                {
                  "internalType": "uint256",
                  "name": "identifierOrCriteria",
                  "type": "uint256"
                },
                {
                  "internalType": "uint256",
                  "name": "startAmount",
                  "type": "uint256"
                },
                {
                  "internalType": "uint256",
                  "name": "endAmount",
                  "type": "uint256"
                },
                {
                  "internalType": "address payable",
                  "name": "recipient",
                  "type": "address"
                }
              ],
              "internalType": "struct ConsiderationItem[]",
              "name": "consideration",
              "type": "tuple[]"
            },
            {
              "internalType": "enum OrderType",
              "name": "orderType",
              "type": "uint8"
            },
            {
              "internalType": "uint256",
              "name": "startTime",
              "type": "uint256"
            },
            {
              "internalType": "uint256",
              "name": "endTime",
              "type": "uint256"
            },
            {
              "internalType": "bytes32",
              "name": "zoneHash",
              "type": "bytes32"
            },
            {
              "internalType": "uint256",
              "name": "salt",
              "type": "uint256"
            },
            {
              "internalType": "bytes32",
              "name": "conduitKey",
              "type": "bytes32"
            },
            {
              "internalType": "uint256",
              "name": "counter",
              "type": "uint256"
            }
          ],
          "internalType": "struct OrderComponents[]",
          "name": "orders",
          "type": "tuple[]"
        }
      ],
      "name": "cancelOrders",
      "outputs": [
        {
          "internalType": "bool",
          "name": "cancelled",
          "type": "bool"
        }
      ],
      "stateMutability": "nonpayable",
      "type": "function"
    },
    {
      "inputs": [
        {
          "internalType": "contract SeaportInterface",
          "name": "seaport",
          "type": "address"
        },
        {
          "components": [
            {
              "components": [
                {
                  "internalType": "address",
                  "name": "offerer",
                  "type": "address"
                },
                {
                  "internalType": "address",
                  "name": "zone",
                  "type": "address"
                },
                {
                  "components": [
                    {
                      "internalType": "enum ItemType",
                      "name": "itemType",
                      "type": "uint8"
                    },
                    {
                      "internalType": "address",
                      "name": "token",
                      "type": "address"
                    },
                    {
                      "internalType": "uint256",
                      "name": "identifierOrCriteria",
                      "type": "uint256"
                    },
                    {
                      "internalType": "uint256",
                      "name": "startAmount",
                      "type": "uint256"
                    },
                    {
                      "internalType": "uint256",
                      "name": "endAmount",
                      "type": "uint256"
                    }
                  ],
                  "internalType": "struct OfferItem[]",
                  "name": "offer",
                  "type": "tuple[]"
                },
                {
                  "components": [
                    {
                      "internalType": "enum ItemType",
                      "name": "itemType",
                      "type": "uint8"
                    },
                    {
                      "internalType": "address",
                      "name": "token",
                      "type": "address"
                    },
                    {
                      "internalType": "uint256",
                      "name": "identifierOrCriteria",
                      "type": "uint256"
                    },
                    {
                      "internalType": "uint256",
                      "name": "startAmount",
                      "type": "uint256"
                    },
                    {
                      "internalType": "uint256",
                      "name": "endAmount",
                      "type": "uint256"
                    },
                    {
                      "internalType": "address payable",
                      "name": "recipient",
                      "type": "address"
                    }
                  ],
                  "internalType": "struct ConsiderationItem[]",
                  "name": "consideration",
                  "type": "tuple[]"
                },
                {
                  "internalType": "enum OrderType",
                  "name": "orderType",
                  "type": "uint8"
                },
                {
                  "internalType": "uint256",
                  "name": "startTime",
                  "type": "uint256"
                },
                {
                  "internalType": "uint256",
                  "name": "endTime",
                  "type": "uint256"
                },
                {
                  "internalType": "bytes32",
                  "name": "zoneHash",
                  "type": "bytes32"
                },
                {
                  "internalType": "uint256",
                  "name": "salt",
                  "type": "uint256"
                },
                {
                  "internalType": "bytes32",
                  "name": "conduitKey",
                  "type": "bytes32"
                },
                {
                  "internalType": "uint256",
                  "name": "totalOriginalConsiderationItems",
                  "type": "uint256"
                }
              ],
              "internalType": "struct OrderParameters",
              "name": "parameters",
              "type": "tuple"
            },
            {
              "internalType": "uint120",
              "name": "numerator",
              "type": "uint120"
            },
            {
              "internalType": "uint120",
              "name": "denominator",
              "type": "uint120"
            },
            {
              "internalType": "bytes",
              "name": "signature",
              "type": "bytes"
            },
            {
              "internalType": "bytes",
              "name": "extraData",
              "type": "bytes"
            }
          ],
          "internalType": "struct AdvancedOrder[]",
          "name": "orders",
          "type": "tuple[]"
        },
        {
          "components": [
            {
              "internalType": "uint256",
              "name": "orderIndex",
              "type": "uint256"
            },
            {
              "internalType": "enum Side",
              "name": "side",
              "type": "uint8"
            },
            {
              "internalType": "uint256",
              "name": "index",
              "type": "uint256"
            },
            {
              "internalType": "uint256",
              "name": "identifier",
              "type": "uint256"
            },
            {
              "internalType": "bytes32[]",
              "name": "criteriaProof",
              "type": "bytes32[]"
            }
          ],
          "internalType": "struct CriteriaResolver[]",
          "name": "criteriaResolvers",
          "type": "tuple[]"
        },
        {
          "components": [
            {
              "components": [
                {
                  "internalType": "uint256",
                  "name": "orderIndex",
                  "type": "uint256"
                },
                {
                  "internalType": "uint256",
                  "name": "itemIndex",
                  "type": "uint256"
                }
              ],
              "internalType": "struct FulfillmentComponent[]",
              "name": "offerComponents",
              "type": "tuple[]"
            },
            {
              "components": [
                {
                  "internalType": "uint256",
                  "name": "orderIndex",
                  "type": "uint256"
                },
                {
                  "internalType": "uint256",
                  "name": "itemIndex",
                  "type": "uint256"
                }
              ],
              "internalType": "struct FulfillmentComponent[]",
              "name": "considerationComponents",
              "type": "tuple[]"
            }
          ],
          "internalType": "struct Fulfillment[]",
          "name": "fulfillments",
          "type": "tuple[]"
        }
      ],
      "name": "executeMatchAdvancedOrders",
      "outputs": [
        {
          "components": [
            {
              "components": [
                {
                  "internalType": "enum ItemType",
                  "name": "itemType",
                  "type": "uint8"
                },
                {
                  "internalType": "address",
                  "name": "token",
                  "type": "address"
                },
                {
                  "internalType": "uint256",
                  "name": "identifier",
                  "type": "uint256"
                },
                {
                  "internalType": "uint256",
                  "name": "amount",
                  "type": "uint256"
                },
                {
                  "internalType": "address payable",
                  "name": "recipient",
                  "type": "address"
                }
              ],
              "internalType": "struct ReceivedItem",
              "name": "item",
              "type": "tuple"
            },
            {
              "internalType": "address",
              "name": "offerer",
              "type": "address"
            },
            {
              "internalType": "bytes32",
              "name": "conduitKey",
              "type": "bytes32"
            }
          ],
          "internalType": "struct Execution[]",
          "name": "executions",
          "type": "tuple[]"
        }
      ],
      "stateMutability": "payable",
      "type": "function"
    },
    {
      "inputs": [
        {
          "internalType": "contract SeaportInterface",
          "name": "seaport",
          "type": "address"
        },
        {
          "components": [
            {
              "components": [
                {
                  "internalType": "address",
                  "name": "offerer",
                  "type": "address"
                },
                {
                  "internalType": "address",
                  "name": "zone",
                  "type": "address"
                },
                {
                  "components": [
                    {
                      "internalType": "enum ItemType",
                      "name": "itemType",
                      "type": "uint8"
                    },
                    {
                      "internalType": "address",
                      "name": "token",
                      "type": "address"
                    },
                    {
                      "internalType": "uint256",
                      "name": "identifierOrCriteria",
                      "type": "uint256"
                    },
                    {
                      "internalType": "uint256",
                      "name": "startAmount",
                      "type": "uint256"
                    },
                    {
                      "internalType": "uint256",
                      "name": "endAmount",
                      "type": "uint256"
                    }
                  ],
                  "internalType": "struct OfferItem[]",
                  "name": "offer",
                  "type": "tuple[]"
                },
                {
                  "components": [
                    {
                      "internalType": "enum ItemType",
                      "name": "itemType",
                      "type": "uint8"
                    },
                    {
                      "internalType": "address",
                      "name": "token",
                      "type": "address"
                    },
                    {
                      "internalType": "uint256",
                      "name": "identifierOrCriteria",
                      "type": "uint256"
                    },
                    {
                      "internalType": "uint256",
                      "name": "startAmount",
                      "type": "uint256"
                    },
                    {
                      "internalType": "uint256",
                      "name": "endAmount",
                      "type": "uint256"
                    },
                    {
                      "internalType": "address payable",
                      "name": "recipient",
                      "type": "address"
                    }
                  ],
                  "internalType": "struct ConsiderationItem[]",
                  "name": "consideration",
                  "type": "tuple[]"
                },
                {
                  "internalType": "enum OrderType",
                  "name": "orderType",
                  "type": "uint8"
                },
                {
                  "internalType": "uint256",
                  "name": "startTime",
                  "type": "uint256"
                },
                {
                  "internalType": "uint256",
                  "name": "endTime",
                  "type": "uint256"
                },
                {
                  "internalType": "bytes32",
                  "name": "zoneHash",
                  "type": "bytes32"
                },
                {
                  "internalType": "uint256",
                  "name": "salt",
                  "type": "uint256"
                },
                {
                  "internalType": "bytes32",
                  "name": "conduitKey",
                  "type": "bytes32"
                },
                {
                  "internalType": "uint256",
                  "name": "totalOriginalConsiderationItems",
                  "type": "uint256"
                }
              ],
              "internalType": "struct OrderParameters",
              "name": "parameters",
              "type": "tuple"
            },
            {
              "internalType": "bytes",
              "name": "signature",
              "type": "bytes"
            }
          ],
          "internalType": "struct Order[]",
          "name": "orders",
          "type": "tuple[]"
        },
        {
          "components": [
            {
              "components": [
                {
                  "internalType": "uint256",
                  "name": "orderIndex",
                  "type": "uint256"
                },
                {
                  "internalType": "uint256",
                  "name": "itemIndex",
                  "type": "uint256"
                }
              ],
              "internalType": "struct FulfillmentComponent[]",
              "name": "offerComponents",
              "type": "tuple[]"
            },
            {
              "components": [
                {
                  "internalType": "uint256",
                  "name": "orderIndex",
                  "type": "uint256"
                },
                {
                  "internalType": "uint256",
                  "name": "itemIndex",
                  "type": "uint256"
                }
              ],
              "internalType": "struct FulfillmentComponent[]",
              "name": "considerationComponents",
              "type": "tuple[]"
            }
          ],
          "internalType": "struct Fulfillment[]",
          "name": "fulfillments",
          "type": "tuple[]"
        }
      ],
      "name": "executeMatchOrders",
      "outputs": [
        {
          "components": [
            {
              "components": [
                {
                  "internalType": "enum ItemType",
                  "name": "itemType",
                  "type": "uint8"
                },
                {
                  "internalType": "address",
                  "name": "token",
                  "type": "address"
                },
                {
                  "internalType": "uint256",
                  "name": "identifier",
                  "type": "uint256"
                },
                {
                  "internalType": "uint256",
                  "name": "amount",
                  "type": "uint256"
                },
                {
                  "internalType": "address payable",
                  "name": "recipient",
                  "type": "address"
                }
              ],
              "internalType": "struct ReceivedItem",
              "name": "item",
              "type": "tuple"
            },
            {
              "internalType": "address",
              "name": "offerer",
              "type": "address"
            },
            {
              "internalType": "bytes32",
              "name": "conduitKey",
              "type": "bytes32"
            }
          ],
          "internalType": "struct Execution[]",
          "name": "executions",
          "type": "tuple[]"
        }
      ],
      "stateMutability": "payable",
      "type": "function"
    },
    {
      "inputs": [
        {
          "internalType": "bytes32",
          "name": "orderHash",
          "type": "bytes32"
        },
        {
          "internalType": "address",
          "name": "caller",
          "type": "address"
        },
        {
          "internalType": "address",
          "name": "offerer",
          "type": "address"
        },
        {
          "internalType": "bytes32",
          "name": "zoneHash",
          "type": "bytes32"
        }
      ],
      "name": "isValidOrder",
      "outputs": [
        {
          "internalType": "bytes4",
          "name": "validOrderMagicValue",
          "type": "bytes4"
        }
      ],
      "stateMutability": "pure",
      "type": "function"
    },
    {
      "inputs": [
        {
          "internalType": "bytes32",
          "name": "orderHash",
          "type": "bytes32"
        },
        {
          "internalType": "address",
          "name": "caller",
          "type": "address"
        },
        {
          "components": [
            {
              "components": [
                {
                  "internalType": "address",
                  "name": "offerer",
                  "type": "address"
                },
                {
                  "internalType": "address",
                  "name": "zone",
                  "type": "address"
                },
                {
                  "components": [
                    {
                      "internalType": "enum ItemType",
                      "name": "itemType",
                      "type": "uint8"
                    },
                    {
                      "internalType": "address",
                      "name": "token",
                      "type": "address"
                    },
                    {
                      "internalType": "uint256",
                      "name": "identifierOrCriteria",
                      "type": "uint256"
                    },
                    {
                      "internalType": "uint256",
                      "name": "startAmount",
                      "type": "uint256"
                    },
                    {
                      "internalType": "uint256",
                      "name": "endAmount",
                      "type": "uint256"
                    }
                  ],
                  "internalType": "struct OfferItem[]",
                  "name": "offer",
                  "type": "tuple[]"
                },
                {
                  "components": [
                    {
                      "internalType": "enum ItemType",
                      "name": "itemType",
                      "type": "uint8"
                    },
                    {
                      "internalType": "address",
                      "name": "token",
                      "type": "address"
                    },
                    {
                      "internalType": "uint256",
                      "name": "identifierOrCriteria",
                      "type": "uint256"
                    },
                    {
                      "internalType": "uint256",
                      "name": "startAmount",
                      "type": "uint256"
                    },
                    {
                      "internalType": "uint256",
                      "name": "endAmount",
                      "type": "uint256"
                    },
                    {
                      "internalType": "address payable",
                      "name": "recipient",
                      "type": "address"
                    }
                  ],
                  "internalType": "struct ConsiderationItem[]",
                  "name": "consideration",
                  "type": "tuple[]"
                },
                {
                  "internalType": "enum OrderType",
                  "name": "orderType",
                  "type": "uint8"
                },
                {
                  "internalType": "uint256",
                  "name": "startTime",
                  "type": "uint256"
                },
                {
                  "internalType": "uint256",
                  "name": "endTime",
                  "type": "uint256"
                },
                {
                  "internalType": "bytes32",
                  "name": "zoneHash",
                  "type": "bytes32"
                },
                {
                  "internalType": "uint256",
                  "name": "salt",
                  "type": "uint256"
                },
                {
                  "internalType": "bytes32",
                  "name": "conduitKey",
                  "type": "bytes32"
                },
                {
                  "internalType": "uint256",
                  "name": "totalOriginalConsiderationItems",
                  "type": "uint256"
                }
              ],
              "internalType": "struct OrderParameters",
              "name": "parameters",
              "type": "tuple"
            },
            {
              "internalType": "uint120",
              "name": "numerator",
              "type": "uint120"
            },
            {
              "internalType": "uint120",
              "name": "denominator",
              "type": "uint120"
            },
            {
              "internalType": "bytes",
              "name": "signature",
              "type": "bytes"
            },
            {
              "internalType": "bytes",
              "name": "extraData",
              "type": "bytes"
            }
          ],
          "internalType": "struct AdvancedOrder",
          "name": "order",
          "type": "tuple"
        },
        {
          "internalType": "bytes32[]",
          "name": "priorOrderHashes",
          "type": "bytes32[]"
        },
        {
          "components": [
            {
              "internalType": "uint256",
              "name": "orderIndex",
              "type": "uint256"
            },
            {
              "internalType": "enum Side",
              "name": "side",
              "type": "uint8"
            },
            {
              "internalType": "uint256",
              "name": "index",
              "type": "uint256"
            },
            {
              "internalType": "uint256",
              "name": "identifier",
              "type": "uint256"
            },
            {
              "internalType": "bytes32[]",
              "name": "criteriaProof",
              "type": "bytes32[]"
            }
          ],
          "internalType": "struct CriteriaResolver[]",
          "name": "criteriaResolvers",
          "type": "tuple[]"
        }
      ],
      "name": "isValidOrderIncludingExtraData",
      "outputs": [
        {
          "internalType": "bytes4",
          "name": "validOrderMagicValue",
          "type": "bytes4"
        }
      ],
      "stateMutability": "pure",
      "type": "function"
    },
    {
      "inputs": [],
      "name": "operator",
      "outputs": [
        {
          "internalType": "address",
          "name": "",
          "type": "address"
        }
      ],
      "stateMutability": "view",
      "type": "function"
    },
    {
      "inputs": [
        {
          "internalType": "address",
          "name": "payee",
          "type": "address"
        }
      ],
      "name": "pause",
      "outputs": [],
      "stateMutability": "nonpayable",
      "type": "function"
    }
  ],
  "bytecode": {
    "object": "0x60a060405234801561001057600080fd5b50336080526040517fa45f47fdea8a1efdd9029a5691c7f759c32b7c698632b563573e155625d1693390600090a160805161181961007560003960008181610276015281816103d701528181610518015281816105c9015261072201526118196000f3fe60806040526004361061007b5760003560e01c806365c4eb721161004e57806365c4eb72146101b357806376a67a51146101c657806384385c6f146101e8578063e5c27af11461020857600080fd5b80630e1d31dc146100805780632718034d146100fa578063331315701461011a578063570ca73514610161575b600080fd5b34801561008c57600080fd5b506100c461009b366004610850565b507f0e1d31dc000000000000000000000000000000000000000000000000000000009392505050565b6040517fffffffff0000000000000000000000000000000000000000000000000000000090911681526020015b60405180910390f35b61010d6101083660046108e4565b610238565b6040516100f191906109aa565b34801561012657600080fd5b506100c4610135366004610a50565b507f0e1d31dc000000000000000000000000000000000000000000000000000000009695505050505050565b34801561016d57600080fd5b5060005461018e9073ffffffffffffffffffffffffffffffffffffffff1681565b60405173ffffffffffffffffffffffffffffffffffffffff90911681526020016100f1565b61010d6101c1366004610b09565b610399565b3480156101d257600080fd5b506101e66101e1366004610b96565b610500565b005b3480156101f457600080fd5b506101e6610203366004610b96565b6105b1565b34801561021457600080fd5b50610228610223366004610bba565b6106e6565b60405190151581526020016100f1565b60005460609073ffffffffffffffffffffffffffffffffffffffff16331480159061029957503373ffffffffffffffffffffffffffffffffffffffff7f00000000000000000000000000000000000000000000000000000000000000001614155b156102d0576040517fccea9e6f00000000000000000000000000000000000000000000000000000000815260040160405180910390fd5b6040517fa817440400000000000000000000000000000000000000000000000000000000815273ffffffffffffffffffffffffffffffffffffffff87169063a817440490349061032a90899089908990899060040161117d565b60006040518083038185885af1158015610348573d6000803e3d6000fd5b50505050506040513d6000823e601f3d9081017fffffffffffffffffffffffffffffffffffffffffffffffffffffffffffffffe016820160405261038f9190810190611313565b9695505050505050565b60005460609073ffffffffffffffffffffffffffffffffffffffff1633148015906103fa57503373ffffffffffffffffffffffffffffffffffffffff7f00000000000000000000000000000000000000000000000000000000000000001614155b15610431576040517fccea9e6f00000000000000000000000000000000000000000000000000000000815260040160405180910390fd5b6040517f55944a4200000000000000000000000000000000000000000000000000000000815273ffffffffffffffffffffffffffffffffffffffff8916906355944a4290349061048f908b908b908b908b908b908b9060040161160c565b60006040518083038185885af11580156104ad573d6000803e3d6000fd5b50505050506040513d6000823e601f3d9081017fffffffffffffffffffffffffffffffffffffffffffffffffffffffffffffffe01682016040526104f49190810190611313565b98975050505050505050565b3373ffffffffffffffffffffffffffffffffffffffff7f0000000000000000000000000000000000000000000000000000000000000000161461056f576040517f6d5769be00000000000000000000000000000000000000000000000000000000815260040160405180910390fd5b6040517f9e87fac88ff661f02d44f95383c817fece4bce600a3dab7a54406878b965e75290600090a18073ffffffffffffffffffffffffffffffffffffffff16ff5b3373ffffffffffffffffffffffffffffffffffffffff7f00000000000000000000000000000000000000000000000000000000000000001614610620576040517f6d5769be00000000000000000000000000000000000000000000000000000000815260040160405180910390fd5b73ffffffffffffffffffffffffffffffffffffffff811661066d576040517fd0769d8e00000000000000000000000000000000000000000000000000000000815260040160405180910390fd5b600080547fffffffffffffffffffffffff00000000000000000000000000000000000000001673ffffffffffffffffffffffffffffffffffffffff83169081179091556040519081527fb3b3f5f64ab192e4b5fefde1f51ce9733bbdcf831951543b325aebd49cc27ec49060200160405180910390a150565b6000805473ffffffffffffffffffffffffffffffffffffffff16331480159061074557503373ffffffffffffffffffffffffffffffffffffffff7f00000000000000000000000000000000000000000000000000000000000000001614155b1561077c576040517fccea9e6f00000000000000000000000000000000000000000000000000000000815260040160405180910390fd5b6040517ffd9f1e1000000000000000000000000000000000000000000000000000000000815273ffffffffffffffffffffffffffffffffffffffff85169063fd9f1e10906107d0908690869060040161174e565b6020604051808303816000875af11580156107ef573d6000803e3d6000fd5b505050506040513d601f19601f8201168201806040525081019061081391906117c1565b949350505050565b73ffffffffffffffffffffffffffffffffffffffff8116811461083d57600080fd5b50565b803561084b8161081b565b919050565b6000806000806080858703121561086657600080fd5b8435935060208501356108788161081b565b925060408501356108888161081b565b9396929550929360600135925050565b60008083601f8401126108aa57600080fd5b50813567ffffffffffffffff8111156108c257600080fd5b6020830191508360208260051b85010111156108dd57600080fd5b9250929050565b6000806000806000606086880312156108fc57600080fd5b85356109078161081b565b9450602086013567ffffffffffffffff8082111561092457600080fd5b61093089838a01610898565b9096509450604088013591508082111561094957600080fd5b5061095688828901610898565b969995985093965092949392505050565b7f4e487b7100000000000000000000000000000000000000000000000000000000600052602160045260246000fd5b600681106109a6576109a6610967565b9052565b602080825282518282018190526000919060409081850190868401855b82811015610a4357815180516109de868251610996565b8088015173ffffffffffffffffffffffffffffffffffffffff908116878a0152878201518888015260608083015190880152608091820151811691870191909152818801511660a086015285015160c085015260e090930192908501906001016109c7565b5091979650505050505050565b600080600080600080600060a0888a031215610a6b57600080fd5b873596506020880135610a7d8161081b565b9550604088013567ffffffffffffffff80821115610a9a57600080fd5b9089019060a0828c031215610aae57600080fd5b90955060608901359080821115610ac457600080fd5b610ad08b838c01610898565b909650945060808a0135915080821115610ae957600080fd5b50610af68a828b01610898565b989b979a50959850939692959293505050565b60008060008060008060006080888a031215610b2457600080fd5b8735610b2f8161081b565b9650602088013567ffffffffffffffff80821115610b4c57600080fd5b610b588b838c01610898565b909850965060408a0135915080821115610b7157600080fd5b610b7d8b838c01610898565b909650945060608a0135915080821115610ae957600080fd5b600060208284031215610ba857600080fd5b8135610bb38161081b565b9392505050565b600080600060408486031215610bcf57600080fd5b8335610bda8161081b565b9250602084013567ffffffffffffffff811115610bf657600080fd5b610c0286828701610898565b9497909650939450505050565b600082357ffffffffffffffffffffffffffffffffffffffffffffffffffffffffffffffea1833603018112610c4357600080fd5b90910192915050565b60008083357fffffffffffffffffffffffffffffffffffffffffffffffffffffffffffffffe1843603018112610c8157600080fd5b830160208101925035905067ffffffffffffffff811115610ca157600080fd5b60a0810236038213156108dd57600080fd5b6006811061083d57600080fd5b8183526000602080850194508260005b85811015610d45578135610ce381610cb3565b610ced8882610996565b5082820135610cfb8161081b565b73ffffffffffffffffffffffffffffffffffffffff168784015260408281013590880152606080830135908801526080808301359088015260a09687019690910190600101610cd0565b509495945050505050565b60008083357fffffffffffffffffffffffffffffffffffffffffffffffffffffffffffffffe1843603018112610d8557600080fd5b830160208101925035905067ffffffffffffffff811115610da557600080fd5b60c0810236038213156108dd57600080fd5b8183526000602080850194508260005b85811015610d45578135610dda81610cb3565b610de48882610996565b5082820135610df28161081b565b73ffffffffffffffffffffffffffffffffffffffff9081168885015260408381013590890152606080840135908901526080808401359089015260a09081840135610e3c8161081b565b169088015260c0968701969190910190600101610dc7565b80356004811061084b57600080fd5b600481106109a6576109a6610967565b6000610160610e9f84610e8585610840565b73ffffffffffffffffffffffffffffffffffffffff169052565b610eab60208401610840565b73ffffffffffffffffffffffffffffffffffffffff166020850152610ed36040840184610c4c565b826040870152610ee68387018284610cc0565b92505050610ef76060840184610d50565b8583036060870152610f0a838284610db7565b92505050610f1a60808401610e54565b610f276080860182610e63565b5060a0838101359085015260c0808401359085015260e08084013590850152610100808401359085015261012080840135908501526101409283013592909301919091525090565b60008083357fffffffffffffffffffffffffffffffffffffffffffffffffffffffffffffffe1843603018112610fa457600080fd5b830160208101925035905067ffffffffffffffff811115610fc457600080fd5b8036038213156108dd57600080fd5b8183528181602085013750600060208284010152600060207fffffffffffffffffffffffffffffffffffffffffffffffffffffffffffffffe0601f840116840101905092915050565b600082357fffffffffffffffffffffffffffffffffffffffffffffffffffffffffffffffc1833603018112610c4357600080fd5b60008083357fffffffffffffffffffffffffffffffffffffffffffffffffffffffffffffffe184360301811261108557600080fd5b830160208101925035905067ffffffffffffffff8111156110a557600080fd5b8060061b36038213156108dd57600080fd5b8183526000602080850194508260005b85811015610d4557813587528282013583880152604096870196909101906001016110c7565b818352600060208085019450848460051b86018460005b8781101561117057838303895261111b828861101c565b60406111278283611050565b82875261113783880182846110b7565b9250505061114787830183611050565b92508582038887015261115b8284836110b7565b9b88019b955050509185019150600101611104565b5090979650505050505050565b60408082528181018590526000906060600587901b8401810190840188845b89811015611228577fffffffffffffffffffffffffffffffffffffffffffffffffffffffffffffffa08785030183526111d5828c61101c565b6111df8182610c0f565b8686526111ee87870182610e73565b905060206111fe81840184610f6f565b935087830382890152611212838583610fd3565b975050948501949390930192505060010161119c565b50505083810360208501526104f48186886110ed565b7f4e487b7100000000000000000000000000000000000000000000000000000000600052604160045260246000fd5b6040516060810167ffffffffffffffff811182821017156112905761129061123e565b60405290565b60405160a0810167ffffffffffffffff811182821017156112905761129061123e565b604051601f82017fffffffffffffffffffffffffffffffffffffffffffffffffffffffffffffffe016810167ffffffffffffffff811182821017156113005761130061123e565b604052919050565b805161084b8161081b565b6000602080838503121561132657600080fd5b825167ffffffffffffffff8082111561133e57600080fd5b818501915085601f83011261135257600080fd5b8151818111156113645761136461123e565b611372848260051b016112b9565b818152848101925060e091820284018501918883111561139157600080fd5b938501935b8285101561144257848903818112156113af5760008081fd5b6113b761126d565b60a0808312156113c75760008081fd5b6113cf611296565b925087516113dc81610cb3565b8352878901516113eb8161081b565b838a0152604088810151818501526060808a0151908501526080808a01516114128161081b565b90850152838352611424898301611308565b838b015260c089015190830152508552509384019392850192611396565b50979650505050505050565b80356effffffffffffffffffffffffffffff8116811461084b57600080fd5b600082357fffffffffffffffffffffffffffffffffffffffffffffffffffffffffffffff61833603018112610c4357600080fd5b81835260007f07ffffffffffffffffffffffffffffffffffffffffffffffffffffffffffffff8311156114d357600080fd5b8260051b8083602087013760009401602001938452509192915050565b818352602080840193600091600585811b8301820185855b888110156115fe577fffffffffffffffffffffffffffffffffffffffffffffffffffffffffffffffe0868403018a52611541828961146d565b60a081358552868201356002811061155857600080fd5b858801526040828101359086015260608083013590860152608080830135368490037fffffffffffffffffffffffffffffffffffffffffffffffffffffffffffffffe10181126115a757600080fd5b90920187810192903567ffffffffffffffff8111156115c557600080fd5b80881b36038413156115d657600080fd5b82828801526115e883880182866114a1565b9d89019d96505050928601925050600101611508565b509098975050505050505050565b6060808252818101879052600090608080840160058a901b850182018b855b8c811015611714577fffffffffffffffffffffffffffffffffffffffffffffffffffffffffffffff80888403018452611664828f61146d565b60a06116708283610c0f565b81865261167f82870182610e73565b915050602061168f81840161144e565b6effffffffffffffffffffffffffffff90811687830152604090806116b586840161144e565b168289015250506116c889840184610f6f565b8784038b8901526116da848284610fd3565b935050506116ea88840184610f6f565b9350868303898801526116fe838583610fd3565b978201979650509390930192505060010161162b565b50508581036020870152611729818a8c6114f0565b935050505082810360408401526117418185876110ed565b9998505050505050505050565b60208082528181018390526000906040600585901b8401810190840186845b87811015610a43577fffffffffffffffffffffffffffffffffffffffffffffffffffffffffffffffc08785030183526117af846117aa848c610c0f565b610e73565b9350918401919084019060010161176d565b6000602082840312156117d357600080fd5b81518015158114610bb357600080fdfea2646970667358221220c5f187cc817a02f98f5bbe1c970fe690696f52fb9b430e4b7cdc1128a337e69964736f6c634300080e0033",
    "linkReferences": {}
  },
  "methodIdentifiers": {
    "assignOperator(address)": "84385c6f",
    "cancelOrders(address,(address,address,(uint8,address,uint256,uint256,uint256)[],(uint8,address,uint256,uint256,uint256,address)[],uint8,uint256,uint256,bytes32,uint256,bytes32,uint256)[])": "e5c27af1",
    "executeMatchAdvancedOrders(address,((address,address,(uint8,address,uint256,uint256,uint256)[],(uint8,address,uint256,uint256,uint256,address)[],uint8,uint256,uint256,bytes32,uint256,bytes32,uint256),uint120,uint120,bytes,bytes)[],(uint256,uint8,uint256,uint256,bytes32[])[],((uint256,uint256)[],(uint256,uint256)[])[])": "65c4eb72",
    "executeMatchOrders(address,((address,address,(uint8,address,uint256,uint256,uint256)[],(uint8,address,uint256,uint256,uint256,address)[],uint8,uint256,uint256,bytes32,uint256,bytes32,uint256),bytes)[],((uint256,uint256)[],(uint256,uint256)[])[])": "2718034d",
    "isValidOrder(bytes32,address,address,bytes32)": "0e1d31dc",
    "isValidOrderIncludingExtraData(bytes32,address,((address,address,(uint8,address,uint256,uint256,uint256)[],(uint8,address,uint256,uint256,uint256,address)[],uint8,uint256,uint256,bytes32,uint256,bytes32,uint256),uint120,uint120,bytes,bytes),bytes32[],(uint256,uint8,uint256,uint256,bytes32[])[])": "33131570",
    "operator()": "570ca735",
    "pause(address)": "76a67a51"
  },
  "id": 46
}