{
  "abi": [
    {
      "inputs": [
        {
          "internalType": "address",
          "name": "",
          "type": "address"
        },
        {
          "internalType": "address",
          "name": "",
          "type": "address"
        },
        {
          "internalType": "uint256[]",
          "name": "",
          "type": "uint256[]"
        },
        {
          "internalType": "uint256[]",
          "name": "",
          "type": "uint256[]"
        },
        {
          "internalType": "bytes",
          "name": "",
          "type": "bytes"
        }
      ],
      "name": "onERC1155BatchReceived",
      "outputs": [
        {
          "internalType": "bytes4",
          "name": "",
          "type": "bytes4"
        }
      ],
      "stateMutability": "nonpayable",
      "type": "function"
    },
    {
      "inputs": [
        {
          "internalType": "address",
          "name": "",
          "type": "address"
        },
        {
          "internalType": "address",
          "name": "",
          "type": "address"
        },
        {
          "internalType": "uint256",
          "name": "",
          "type": "uint256"
        },
        {
          "internalType": "uint256",
          "name": "",
          "type": "uint256"
        },
        {
          "internalType": "bytes",
          "name": "",
          "type": "bytes"
        }
      ],
      "name": "onERC1155Received",
      "outputs": [
        {
          "internalType": "bytes4",
          "name": "",
          "type": "bytes4"
        }
      ],
      "stateMutability": "nonpayable",
      "type": "function"
    }
  ],
  "bytecode": {
    "object": "0x608060405234801561001057600080fd5b50610304806100206000396000f3fe608060405234801561001057600080fd5b50600436106100365760003560e01c8063bc197c811461003b578063f23a6e61146100ab575b600080fd5b61007661004936600461019b565b7fbc197c810000000000000000000000000000000000000000000000000000000098975050505050505050565b6040517fffffffff00000000000000000000000000000000000000000000000000000000909116815260200160405180910390f35b6100766100b9366004610256565b7ff23a6e61000000000000000000000000000000000000000000000000000000009695505050505050565b803573ffffffffffffffffffffffffffffffffffffffff8116811461010857600080fd5b919050565b60008083601f84011261011f57600080fd5b50813567ffffffffffffffff81111561013757600080fd5b6020830191508360208260051b850101111561015257600080fd5b9250929050565b60008083601f84011261016b57600080fd5b50813567ffffffffffffffff81111561018357600080fd5b60208301915083602082850101111561015257600080fd5b60008060008060008060008060a0898b0312156101b757600080fd5b6101c0896100e4565b97506101ce60208a016100e4565b9650604089013567ffffffffffffffff808211156101eb57600080fd5b6101f78c838d0161010d565b909850965060608b013591508082111561021057600080fd5b61021c8c838d0161010d565b909650945060808b013591508082111561023557600080fd5b506102428b828c01610159565b999c989b5096995094979396929594505050565b60008060008060008060a0878903121561026f57600080fd5b610278876100e4565b9550610286602088016100e4565b94506040870135935060608701359250608087013567ffffffffffffffff8111156102b057600080fd5b6102bc89828a01610159565b979a969950949750929593949250505056fea2646970667358221220c7d623136da52b047be82de8651f5fbff3a99e4cdcc9a542410fa8083b082e4764736f6c634300080e0033",
    "linkReferences": {}
  },
  "methodIdentifiers": {
    "onERC1155BatchReceived(address,address,uint256[],uint256[],bytes)": "bc197c81",
    "onERC1155Received(address,address,uint256,uint256,bytes)": "f23a6e61"
  },
  "id": 118
}