{
  "contracts/StoreFront.sol": {
    "StoreFront": {
      "abi": [
        {
          "inputs": [
            {
              "internalType": "address",
              "name": "_minter",
              "type": "address"
            },
            {
              "internalType": "string",
              "name": "_baseURI",
              "type": "string"
            }
          ],
          "stateMutability": "nonpayable",
          "type": "constructor"
        },
        {
          "anonymous": false,
          "inputs": [
            {
              "indexed": true,
              "internalType": "address",
              "name": "owner",
              "type": "address"
            },
            {
              "indexed": true,
              "internalType": "address",
              "name": "operator",
              "type": "address"
            },
            {
              "indexed": false,
              "internalType": "bool",
              "name": "approved",
              "type": "bool"
            }
          ],
          "name": "ApprovalForAll",
          "type": "event"
        },
        {
          "anonymous": false,
          "inputs": [
            {
              "indexed": true,
              "internalType": "address",
              "name": "previousOwner",
              "type": "address"
            },
            {
              "indexed": true,
              "internalType": "address",
              "name": "newOwner",
              "type": "address"
            }
          ],
          "name": "OwnershipTransferred",
          "type": "event"
        },
        {
          "anonymous": false,
          "inputs": [
            {
              "indexed": true,
              "internalType": "address",
              "name": "operator",
              "type": "address"
            },
            {
              "indexed": true,
              "internalType": "address",
              "name": "from",
              "type": "address"
            },
            {
              "indexed": true,
              "internalType": "address",
              "name": "to",
              "type": "address"
            },
            {
              "indexed": false,
              "internalType": "uint256[]",
              "name": "ids",
              "type": "uint256[]"
            },
            {
              "indexed": false,
              "internalType": "uint256[]",
              "name": "amounts",
              "type": "uint256[]"
            }
          ],
          "name": "TransferBatch",
          "type": "event"
        },
        {
          "anonymous": false,
          "inputs": [
            {
              "indexed": true,
              "internalType": "address",
              "name": "operator",
              "type": "address"
            },
            {
              "indexed": true,
              "internalType": "address",
              "name": "from",
              "type": "address"
            },
            {
              "indexed": true,
              "internalType": "address",
              "name": "to",
              "type": "address"
            },
            {
              "indexed": false,
              "internalType": "uint256",
              "name": "id",
              "type": "uint256"
            },
            {
              "indexed": false,
              "internalType": "uint256",
              "name": "amount",
              "type": "uint256"
            }
          ],
          "name": "TransferSingle",
          "type": "event"
        },
        {
          "anonymous": false,
          "inputs": [
            {
              "indexed": false,
              "internalType": "string",
              "name": "value",
              "type": "string"
            },
            {
              "indexed": true,
              "internalType": "uint256",
              "name": "id",
              "type": "uint256"
            }
          ],
          "name": "URI",
          "type": "event"
        },
        {
          "inputs": [
            {
              "internalType": "address",
              "name": "",
              "type": "address"
            },
            {
              "internalType": "uint256",
              "name": "",
              "type": "uint256"
            }
          ],
          "name": "balanceOf",
          "outputs": [
            {
              "internalType": "uint256",
              "name": "",
              "type": "uint256"
            }
          ],
          "stateMutability": "view",
          "type": "function"
        },
        {
          "inputs": [
            {
              "internalType": "address[]",
              "name": "owners",
              "type": "address[]"
            },
            {
              "internalType": "uint256[]",
              "name": "ids",
              "type": "uint256[]"
            }
          ],
          "name": "balanceOfBatch",
          "outputs": [
            {
              "internalType": "uint256[]",
              "name": "balances",
              "type": "uint256[]"
            }
          ],
          "stateMutability": "view",
          "type": "function"
        },
        {
          "inputs": [
            {
              "internalType": "address",
              "name": "",
              "type": "address"
            },
            {
              "internalType": "address",
              "name": "",
              "type": "address"
            }
          ],
          "name": "isApprovedForAll",
          "outputs": [
            {
              "internalType": "bool",
              "name": "",
              "type": "bool"
            }
          ],
          "stateMutability": "view",
          "type": "function"
        },
        {
          "inputs": [
            {
              "internalType": "address",
              "name": "_to",
              "type": "address"
            },
            {
              "internalType": "uint256",
              "name": "_amount",
              "type": "uint256"
            }
          ],
          "name": "mint",
          "outputs": [],
          "stateMutability": "nonpayable",
          "type": "function"
        },
        {
          "inputs": [],
          "name": "owner",
          "outputs": [
            {
              "internalType": "address",
              "name": "",
              "type": "address"
            }
          ],
          "stateMutability": "view",
          "type": "function"
        },
        {
          "inputs": [],
          "name": "renounceOwnership",
          "outputs": [],
          "stateMutability": "nonpayable",
          "type": "function"
        },
        {
          "inputs": [
            {
              "internalType": "address",
              "name": "from",
              "type": "address"
            },
            {
              "internalType": "address",
              "name": "to",
              "type": "address"
            },
            {
              "internalType": "uint256[]",
              "name": "ids",
              "type": "uint256[]"
            },
            {
              "internalType": "uint256[]",
              "name": "amounts",
              "type": "uint256[]"
            },
            {
              "internalType": "bytes",
              "name": "data",
              "type": "bytes"
            }
          ],
          "name": "safeBatchTransferFrom",
          "outputs": [],
          "stateMutability": "nonpayable",
          "type": "function"
        },
        {
          "inputs": [
            {
              "internalType": "address",
              "name": "from",
              "type": "address"
            },
            {
              "internalType": "address",
              "name": "to",
              "type": "address"
            },
            {
              "internalType": "uint256",
              "name": "id",
              "type": "uint256"
            },
            {
              "internalType": "uint256",
              "name": "amount",
              "type": "uint256"
            },
            {
              "internalType": "bytes",
              "name": "data",
              "type": "bytes"
            }
          ],
          "name": "safeTransferFrom",
          "outputs": [],
          "stateMutability": "nonpayable",
          "type": "function"
        },
        {
          "inputs": [
            {
              "internalType": "address",
              "name": "operator",
              "type": "address"
            },
            {
              "internalType": "bool",
              "name": "approved",
              "type": "bool"
            }
          ],
          "name": "setApprovalForAll",
          "outputs": [],
          "stateMutability": "nonpayable",
          "type": "function"
        },
        {
          "inputs": [
            {
              "internalType": "bytes4",
              "name": "interfaceId",
              "type": "bytes4"
            }
          ],
          "name": "supportsInterface",
          "outputs": [
            {
              "internalType": "bool",
              "name": "",
              "type": "bool"
            }
          ],
          "stateMutability": "pure",
          "type": "function"
        },
        {
          "inputs": [
            {
              "internalType": "uint256",
              "name": "",
              "type": "uint256"
            }
          ],
          "name": "totalSupply",
          "outputs": [
            {
              "internalType": "uint256",
              "name": "",
              "type": "uint256"
            }
          ],
          "stateMutability": "view",
          "type": "function"
        },
        {
          "inputs": [
            {
              "internalType": "address",
              "name": "newOwner",
              "type": "address"
            }
          ],
          "name": "transferOwnership",
          "outputs": [],
          "stateMutability": "nonpayable",
          "type": "function"
        },
        {
          "inputs": [
            {
              "internalType": "string",
              "name": "base",
              "type": "string"
            }
          ],
          "name": "updateBaseUri",
          "outputs": [],
          "stateMutability": "nonpayable",
          "type": "function"
        },
        {
          "inputs": [
            {
              "internalType": "uint256",
              "name": "id",
              "type": "uint256"
            }
          ],
          "name": "uri",
          "outputs": [
            {
              "internalType": "string",
              "name": "",
              "type": "string"
            }
          ],
          "stateMutability": "view",
          "type": "function"
        }
      ],
      "evm": {
        "bytecode": {
          "linkReferences": {},
          "object": "608060405234620000ed5762001e18803803806200001d8162000119565b9283398101604082820312620000ed5781516001600160a01b0381168103620000ed5760208381015190936001600160401b039190828211620000ed570183601f82011215620000ed578051918211620000f2575b62000086601f8301601f1916860162000119565b93828552858383010111620000ed57936000945b828610620000d7575081620000b89511620000c8575b5050620001e4565b604051611adc90816200033c8239f35b600091840101523880620000b0565b858101820151858701830152948101946200009a565b600080fd5b620000fc62000102565b62000072565b50634e487b7160e01b600052604160045260246000fd5b6040519190601f01601f191682016001600160401b038111838210176200013f57604052565b6200014962000102565b604052565b90600182811c9216801562000180575b60208310146200016a57565b634e487b7160e01b600052602260045260246000fd5b91607f16916200015e565b601f811162000198575050565b6000906004825260208220906020601f850160051c83019410620001d9575b601f0160051c01915b828110620001cd57505050565b818155600101620001c0565b9092508290620001b7565b91909160025460018060a01b031991338383161760025560018060a01b0391823391167f8be0079c531659141344cd1fd0a4f28419497f9722a3daafe3b4186f6b6457e06000604051a360058054909316911617905581516001600160401b0381116200032b575b62000264816200025e6004546200014e565b6200018b565b602080601f8311600114620002a3575081929360009262000297575b50508160011b916000199060031b1c191617600455565b01519050388062000280565b6004600052601f198316949091907f8a35acfbc15ff81a39ae7d344fd709f28e8600b4aa8c65c6b64bfe7fe36bd19b926000905b87821062000312575050836001959610620002f8575b505050811b01600455565b015160001960f88460031b161c19169055388080620002ed565b80600185968294968601518155019501930190620002d7565b6200033562000102565b6200024c56fe60806040526004361015610013575b600080fd5b60003560e01c8062fdd58e1461012a57806301ffc9a7146101215780630e89341c146101185780632eb2c2d61461010f57806339f7e37f1461010657806340c10f19146100fd5780634e1273f4146100f4578063715018a6146100eb5780638da5cb5b146100e2578063a22cb465146100d9578063bd85b039146100d0578063e985e9c5146100c7578063f242432a146100be5763f2fde38b146100b657600080fd5b61000e6111e1565b5061000e610ff5565b5061000e610f78565b5061000e610f4b565b5061000e610e7b565b5061000e610e46565b5061000e610dba565b5061000e610cff565b5061000e610b15565b5061000e61096f565b5061000e610694565b5061000e610379565b5061000e61021a565b5061000e61019a565b6004359073ffffffffffffffffffffffffffffffffffffffff8216820361000e57565b6024359073ffffffffffffffffffffffffffffffffffffffff8216820361000e57565b359073ffffffffffffffffffffffffffffffffffffffff8216820361000e57565b503461000e57604060031936011261000e5773ffffffffffffffffffffffffffffffffffffffff6101c9610133565b16600052600060205260406000206024356000526020526020604060002054604051908152f35b7fffffffff0000000000000000000000000000000000000000000000000000000081160361000e57565b503461000e57602060031936011261000e5760207fffffffff0000000000000000000000000000000000000000000000000000000060043561025b816101f0565b167f01ffc9a70000000000000000000000000000000000000000000000000000000081149081156102c3575b8115610299575b506040519015158152f35b7f0e89341c000000000000000000000000000000000000000000000000000000009150143861028e565b7fd9b67a260000000000000000000000000000000000000000000000000000000081149150610287565b918091926000905b82821061030d575011610306575050565b6000910152565b915080602091830151818601520182916102f5565b907fffffffffffffffffffffffffffffffffffffffffffffffffffffffffffffffe0601f60209361035e815180928187528780880191016102ed565b0116010190565b906020610376928181520190610322565b90565b503461000e5760208060031936011261000e57600454610398816117d1565b600090156104095750506103c76103f9610405926103cd6103ba60043561196e565b6040519485938401611895565b9061193c565b037fffffffffffffffffffffffffffffffffffffffffffffffffffffffffffffffe0810183528261053e565b60405191829182610365565b0390f35b909160405191809361041a816117d1565b808552916001918083169081156104a5575060011461044c575b505050506104478161040593038261053e565b6103f9565b929450600483527f8a35acfbc15ff81a39ae7d344fd709f28e8600b4aa8c65c6b64bfe7fe36bd19b5b828410610492575050508161040593610447928201019338610434565b8054858501870152928501928101610475565b9250505061040594507fffffffffffffffffffffffffffffffffffffffffffffffffffffffffffffff009150169082015261044781604081019338610434565b507f4e487b7100000000000000000000000000000000000000000000000000000000600052604160045260246000fd5b6020810190811067ffffffffffffffff82111761053157604052565b6105396104e5565b604052565b90601f7fffffffffffffffffffffffffffffffffffffffffffffffffffffffffffffffe0910116810190811067ffffffffffffffff82111761053157604052565b60209067ffffffffffffffff8111610599575b60051b0190565b6105a16104e5565b610592565b81601f8201121561000e578035916105bd8361057f565b926105cb604051948561053e565b808452602092838086019260051b82010192831161000e578301905b8282106105f5575050505090565b813581529083019083016105e7565b7fffffffffffffffffffffffffffffffffffffffffffffffffffffffffffffffe0601f60209267ffffffffffffffff8111610640575b01160190565b6106486104e5565b61063a565b81601f8201121561000e5780359061066482610604565b92610672604051948561053e565b8284526020838301011161000e57816000926020809301838601378301015290565b503461000e5760a060031936011261000e576106ae610133565b6106b6610156565b9067ffffffffffffffff9060443582811161000e576106d99036906004016105a6565b60643583811161000e576106f19036906004016105a6565b9260843590811161000e5761070a90369060040161064d565b8151936107198151861461159f565b73ffffffffffffffffffffffffffffffffffffffff808516958633148015610907575b61074590611387565b60005b818110610860575050956107a496811680966040517f4a39dc06d4c0dbc64b70af90fd698a233a518aa5d07e595d983b8c0526c8f7fb33918061078c888b83611656565b0390a4600093903b6107a6575050505050151561153a565b005b917fffffffff0000000000000000000000000000000000000000000000000000000094956020928561080b95604051968795869485937fbc197c81000000000000000000000000000000000000000000000000000000009d8e8652336004870161167b565b03925af1918215610853575b91610825575b50161461153a565b610846915060203d811161084c575b61083e818361053e565b810190611496565b3861081d565b503d610834565b61085b61152d565b610817565b80876108ff6108f7836108b58e6108c48b6108b58f61088460019c61088d92611634565b51968793611634565b519873ffffffffffffffffffffffffffffffffffffffff166000526000602052604060002090565b90600052602052604060002090565b6108cf878254611456565b905573ffffffffffffffffffffffffffffffffffffffff166000526000602052604060002090565b91825461148a565b905501610748565b506107456109686109613361093c8a73ffffffffffffffffffffffffffffffffffffffff166000526001602052604060002090565b9073ffffffffffffffffffffffffffffffffffffffff16600052602052604060002090565b5460ff1690565b905061073c565b503461000e5760208060031936011261000e5767ffffffffffffffff60043581811161000e573660238201121561000e57806004013591821161000e576024903682848301011161000e576109dd73ffffffffffffffffffffffffffffffffffffffff6002541633146112b3565b6109f1836109ec6004546117d1565b611824565b600093601f8411600114610a4d5750928293600093610a40575b5050507fffffffffffffffffffffffffffffffffffffffffffffffffffffffffffffffff8260011b9260031b1c191617600455005b0101359050388080610a0b565b917fffffffffffffffffffffffffffffffffffffffffffffffffffffffffffffffe0841694610a9e60046000527f8a35acfbc15ff81a39ae7d344fd709f28e8600b4aa8c65c6b64bfe7fe36bd19b90565b9381905b878210610afb5750508460019610610ac1575b50505050811b01600455005b7fffffffffffffffffffffffffffffffffffffffffffffffffffffffffffffffff60f88660031b161c199201013516905538808080610ab5565b806001849786839596890101358155019601920190610aa2565b503461000e57604060031936011261000e57610b2f610133565b60243573ffffffffffffffffffffffffffffffffffffffff918260055416330361000e57610c009060065460405194610b6786610515565b6000958691828252610b9d846108b58773ffffffffffffffffffffffffffffffffffffffff166000526000602052604060002090565b610ba888825461148a565b905584169384836040517fc3d58168c5ae7397731d063d5bbf3d657854427343f4c083240f7aacaa2d0f62339180610bee8d8b8360209093929193604081019481520152565b0390a43b610c3157505050151561153a565b610c2a6108f7600654610c1a610c15826117a3565b600655565b6000526003602052604060002090565b9055604051f35b610c937fffffffff0000000000000000000000000000000000000000000000000000000093946020926040519485809481938c7ff23a6e61000000000000000000000000000000000000000000000000000000009b8c855233600486016114ab565b03925af1908115610cad575b86916108255750161461153a565b610cb561152d565b610c9f565b90815180825260208080930193019160005b828110610cda575050505090565b835185529381019392810192600101610ccc565b906020610376928181520190610cba565b503461000e57604060031936011261000e5760043567ffffffffffffffff80821161000e573660238301121561000e578160040135610d3d8161057f565b92610d4b604051948561053e565b81845260209160248386019160051b8301019136831161000e57602401905b828210610da3578560243586811161000e5761040591610d91610d979236906004016105a6565b906116d7565b60405191829182610cee565b838091610daf84610179565b815201910190610d6a565b503461000e57600080600319360112610e43576002547fffffffffffffffffffffffff000000000000000000000000000000000000000073ffffffffffffffffffffffffffffffffffffffff821691610e143384146112b3565b1660025581604051917f8be0079c531659141344cd1fd0a4f28419497f9722a3daafe3b4186f6b6457e08284a3f35b80fd5b503461000e57600060031936011261000e57602073ffffffffffffffffffffffffffffffffffffffff60025416604051908152f35b503461000e57604060031936011261000e57610e95610133565b6024359081151580920361000e5773ffffffffffffffffffffffffffffffffffffffff90336000526001602052610ef08160406000209073ffffffffffffffffffffffffffffffffffffffff16600052602052604060002090565b7fffffffffffffffffffffffffffffffffffffffffffffffffffffffffffffff0081541660ff851617905560405192835216907f17307eab39ab6107e8899845ad3d59bd9653f200f220920489ca2b5937696c3160203392a3005b503461000e57602060031936011261000e5760043560005260036020526020604060002054604051908152f35b503461000e57604060031936011261000e57602060ff610fe9610f99610133565b73ffffffffffffffffffffffffffffffffffffffff610fb6610156565b91166000526001845260406000209073ffffffffffffffffffffffffffffffffffffffff16600052602052604060002090565b54166040519015158152f35b503461000e5760a060031936011261000e5761100f610133565b611017610156565b6084359160443560643567ffffffffffffffff851161000e576110416107a495369060040161064d565b9073ffffffffffffffffffffffffffffffffffffffff948585169586331480156111a5575b61106f90611387565b61109d856108b58873ffffffffffffffffffffffffffffffffffffffff166000526000602052604060002090565b6110a8848254611456565b90556110d8856108b58473ffffffffffffffffffffffffffffffffffffffff166000526000602052604060002090565b6110e384825461148a565b9055811680966040517fc3d58168c5ae7397731d063d5bbf3d657854427343f4c083240f7aacaa2d0f62339180611128888b8360209093929193604081019481520152565b0390a4600093903b611140575050505050151561153a565b917fffffffff0000000000000000000000000000000000000000000000000000000094956020928561080b95604051968795869485937ff23a6e61000000000000000000000000000000000000000000000000000000009d8e865233600487016114eb565b5061106f6111da6109613361093c8a73ffffffffffffffffffffffffffffffffffffffff166000526001602052604060002090565b9050611066565b503461000e57602060031936011261000e576111fb610133565b73ffffffffffffffffffffffffffffffffffffffff61121f816002541633146112b3565b81161561122f576107a490611318565b60846040517f08c379a000000000000000000000000000000000000000000000000000000000815260206004820152602660248201527f4f776e61626c653a206e6577206f776e657220697320746865207a65726f206160448201527f64647265737300000000000000000000000000000000000000000000000000006064820152fd5b156112ba57565b60646040517f08c379a000000000000000000000000000000000000000000000000000000000815260206004820152602060248201527f4f776e61626c653a2063616c6c6572206973206e6f7420746865206f776e65726044820152fd5b6002549073ffffffffffffffffffffffffffffffffffffffff80911691827fffffffffffffffffffffffff0000000000000000000000000000000000000000821617600255167f8be0079c531659141344cd1fd0a4f28419497f9722a3daafe3b4186f6b6457e06000604051a3565b1561138e57565b60646040517f08c379a000000000000000000000000000000000000000000000000000000000815260206004820152600e60248201527f4e4f545f415554484f52495a45440000000000000000000000000000000000006044820152fd5b507f4e487b7100000000000000000000000000000000000000000000000000000000600052601160045260246000fd5b7fffffffffffffffffffffffffffffffffffffffffffffffffffffffffffffffff906001811061144a570190565b6114526113ec565b0190565b818110611461570390565b6114696113ec565b0390565b801960301161147d575b60300190565b6114856113ec565b611477565b8119811161144a570190565b9081602091031261000e5751610376816101f0565b909260a09273ffffffffffffffffffffffffffffffffffffffff610376969516835260006020840152604083015260608201528160808201520190610322565b919261037695949160a09473ffffffffffffffffffffffffffffffffffffffff8092168552166020840152604083015260608201528160808201520190610322565b506040513d6000823e3d90fd5b1561154157565b60646040517f08c379a000000000000000000000000000000000000000000000000000000000815260206004820152601060248201527f554e534146455f524543495049454e54000000000000000000000000000000006044820152fd5b156115a657565b60646040517f08c379a000000000000000000000000000000000000000000000000000000000815260206004820152600f60248201527f4c454e4754485f4d49534d4154434800000000000000000000000000000000006044820152fd5b507f4e487b7100000000000000000000000000000000000000000000000000000000600052603260045260246000fd5b6020918151811015611649575b60051b010190565b611651611604565b611641565b909161166d61037693604084526040840190610cba565b916020818403910152610cba565b939061037695936116bb916116c99473ffffffffffffffffffffffffffffffffffffffff809216885216602087015260a0604087015260a0860190610cba565b908482036060860152610cba565b916080818403910152610322565b9182516116e68351821461159f565b83516116f18161057f565b907fffffffffffffffffffffffffffffffffffffffffffffffffffffffffffffffe061172d6040926117258451958661053e565b80855261057f565b01946020953687850137829560005b85811061174e57505050505050909150565b8073ffffffffffffffffffffffffffffffffffffffff6117706001938c611634565b511660005260008352846000206117878286611634565b516000528352846000205461179c8288611634565b520161173c565b6001907fffffffffffffffffffffffffffffffffffffffffffffffffffffffffffffffff811461144a570190565b90600182811c9216801561181a575b60208310146117eb57565b7f4e487b7100000000000000000000000000000000000000000000000000000000600052602260045260246000fd5b91607f16916117e0565b601f8111611830575050565b600090600482527f8a35acfbc15ff81a39ae7d344fd709f28e8600b4aa8c65c6b64bfe7fe36bd19b906020601f850160051c8301941061188b575b601f0160051c01915b82811061188057505050565b818155600101611874565b909250829061186b565b600454600092916118a5826117d1565b9160019081811690811561191157506001146118c057505050565b909192935060046000527f8a35acfbc15ff81a39ae7d344fd709f28e8600b4aa8c65c6b64bfe7fe36bd19b906000915b8483106118fe575050500190565b81816020925485870152019201916118f0565b7fffffffffffffffffffffffffffffffffffffffffffffffffffffffffffffff001683525050019150565b90611452602092828151948592016102ed565b90602091805182101561196157010190565b611969611604565b010190565b8015611a4d57806000908282935b611a39575061198a83610604565b92611998604051948561053e565b808452817fffffffffffffffffffffffffffffffffffffffffffffffffffffffffffffffe06119c683610604565b013660208701375b6119d85750505090565b6119e19061141c565b90600a90611a246119fc6119f684840661146d565b60ff1690565b60f81b7fff000000000000000000000000000000000000000000000000000000000000001690565b841a611a30848761194f565b530490816119ce565b92611a45600a916117a3565b93048061197c565b506040516040810181811067ffffffffffffffff821117611a99575b604052600181527f3000000000000000000000000000000000000000000000000000000000000000602082015290565b611aa16104e5565b611a6956fea2646970667358221220cd42236d005c798fd1b4efdabf596b6fa61829ea8ada32ff7fd158fcd18df36964736f6c634300080e0033",
          "opcodes": "PUSH1 0x80 PUSH1 0x40 MSTORE CALLVALUE PUSH3 0xED JUMPI PUSH3 0x1E18 DUP1 CODESIZE SUB DUP1 PUSH3 0x1D DUP2 PUSH3 0x119 JUMP JUMPDEST SWAP3 DUP4 CODECOPY DUP2 ADD PUSH1 0x40 DUP3 DUP3 SUB SLT PUSH3 0xED JUMPI DUP2 MLOAD PUSH1 0x1 PUSH1 0x1 PUSH1 0xA0 SHL SUB DUP2 AND DUP2 SUB PUSH3 0xED JUMPI PUSH1 0x20 DUP4 DUP2 ADD MLOAD SWAP1 SWAP4 PUSH1 0x1 PUSH1 0x1 PUSH1 0x40 SHL SUB SWAP2 SWAP1 DUP3 DUP3 GT PUSH3 0xED JUMPI ADD DUP4 PUSH1 0x1F DUP3 ADD SLT ISZERO PUSH3 0xED JUMPI DUP1 MLOAD SWAP2 DUP3 GT PUSH3 0xF2 JUMPI JUMPDEST PUSH3 0x86 PUSH1 0x1F DUP4 ADD PUSH1 0x1F NOT AND DUP7 ADD PUSH3 0x119 JUMP JUMPDEST SWAP4 DUP3 DUP6 MSTORE DUP6 DUP4 DUP4 ADD ADD GT PUSH3 0xED JUMPI SWAP4 PUSH1 0x0 SWAP5 JUMPDEST DUP3 DUP7 LT PUSH3 0xD7 JUMPI POP DUP2 PUSH3 0xB8 SWAP6 GT PUSH3 0xC8 JUMPI JUMPDEST POP POP PUSH3 0x1E4 JUMP JUMPDEST PUSH1 0x40 MLOAD PUSH2 0x1ADC SWAP1 DUP2 PUSH3 0x33C DUP3 CODECOPY RETURN JUMPDEST PUSH1 0x0 SWAP2 DUP5 ADD ADD MSTORE CODESIZE DUP1 PUSH3 0xB0 JUMP JUMPDEST DUP6 DUP2 ADD DUP3 ADD MLOAD DUP6 DUP8 ADD DUP4 ADD MSTORE SWAP5 DUP2 ADD SWAP5 PUSH3 0x9A JUMP JUMPDEST PUSH1 0x0 DUP1 REVERT JUMPDEST PUSH3 0xFC PUSH3 0x102 JUMP JUMPDEST PUSH3 0x72 JUMP JUMPDEST POP PUSH4 0x4E487B71 PUSH1 0xE0 SHL PUSH1 0x0 MSTORE PUSH1 0x41 PUSH1 0x4 MSTORE PUSH1 0x24 PUSH1 0x0 REVERT JUMPDEST PUSH1 0x40 MLOAD SWAP2 SWAP1 PUSH1 0x1F ADD PUSH1 0x1F NOT AND DUP3 ADD PUSH1 0x1 PUSH1 0x1 PUSH1 0x40 SHL SUB DUP2 GT DUP4 DUP3 LT OR PUSH3 0x13F JUMPI PUSH1 0x40 MSTORE JUMP JUMPDEST PUSH3 0x149 PUSH3 0x102 JUMP JUMPDEST PUSH1 0x40 MSTORE JUMP JUMPDEST SWAP1 PUSH1 0x1 DUP3 DUP2 SHR SWAP3 AND DUP1 ISZERO PUSH3 0x180 JUMPI JUMPDEST PUSH1 0x20 DUP4 LT EQ PUSH3 0x16A JUMPI JUMP JUMPDEST PUSH4 0x4E487B71 PUSH1 0xE0 SHL PUSH1 0x0 MSTORE PUSH1 0x22 PUSH1 0x4 MSTORE PUSH1 0x24 PUSH1 0x0 REVERT JUMPDEST SWAP2 PUSH1 0x7F AND SWAP2 PUSH3 0x15E JUMP JUMPDEST PUSH1 0x1F DUP2 GT PUSH3 0x198 JUMPI POP POP JUMP JUMPDEST PUSH1 0x0 SWAP1 PUSH1 0x4 DUP3 MSTORE PUSH1 0x20 DUP3 KECCAK256 SWAP1 PUSH1 0x20 PUSH1 0x1F DUP6 ADD PUSH1 0x5 SHR DUP4 ADD SWAP5 LT PUSH3 0x1D9 JUMPI JUMPDEST PUSH1 0x1F ADD PUSH1 0x5 SHR ADD SWAP2 JUMPDEST DUP3 DUP2 LT PUSH3 0x1CD JUMPI POP POP POP JUMP JUMPDEST DUP2 DUP2 SSTORE PUSH1 0x1 ADD PUSH3 0x1C0 JUMP JUMPDEST SWAP1 SWAP3 POP DUP3 SWAP1 PUSH3 0x1B7 JUMP JUMPDEST SWAP2 SWAP1 SWAP2 PUSH1 0x2 SLOAD PUSH1 0x1 DUP1 PUSH1 0xA0 SHL SUB NOT SWAP2 CALLER DUP4 DUP4 AND OR PUSH1 0x2 SSTORE PUSH1 0x1 DUP1 PUSH1 0xA0 SHL SUB SWAP2 DUP3 CALLER SWAP2 AND PUSH32 0x8BE0079C531659141344CD1FD0A4F28419497F9722A3DAAFE3B4186F6B6457E0 PUSH1 0x0 PUSH1 0x40 MLOAD LOG3 PUSH1 0x5 DUP1 SLOAD SWAP1 SWAP4 AND SWAP2 AND OR SWAP1 SSTORE DUP2 MLOAD PUSH1 0x1 PUSH1 0x1 PUSH1 0x40 SHL SUB DUP2 GT PUSH3 0x32B JUMPI JUMPDEST PUSH3 0x264 DUP2 PUSH3 0x25E PUSH1 0x4 SLOAD PUSH3 0x14E JUMP JUMPDEST PUSH3 0x18B JUMP JUMPDEST PUSH1 0x20 DUP1 PUSH1 0x1F DUP4 GT PUSH1 0x1 EQ PUSH3 0x2A3 JUMPI POP DUP2 SWAP3 SWAP4 PUSH1 0x0 SWAP3 PUSH3 0x297 JUMPI JUMPDEST POP POP DUP2 PUSH1 0x1 SHL SWAP2 PUSH1 0x0 NOT SWAP1 PUSH1 0x3 SHL SHR NOT AND OR PUSH1 0x4 SSTORE JUMP JUMPDEST ADD MLOAD SWAP1 POP CODESIZE DUP1 PUSH3 0x280 JUMP JUMPDEST PUSH1 0x4 PUSH1 0x0 MSTORE PUSH1 0x1F NOT DUP4 AND SWAP5 SWAP1 SWAP2 SWAP1 PUSH32 0x8A35ACFBC15FF81A39AE7D344FD709F28E8600B4AA8C65C6B64BFE7FE36BD19B SWAP3 PUSH1 0x0 SWAP1 JUMPDEST DUP8 DUP3 LT PUSH3 0x312 JUMPI POP POP DUP4 PUSH1 0x1 SWAP6 SWAP7 LT PUSH3 0x2F8 JUMPI JUMPDEST POP POP POP DUP2 SHL ADD PUSH1 0x4 SSTORE JUMP JUMPDEST ADD MLOAD PUSH1 0x0 NOT PUSH1 0xF8 DUP5 PUSH1 0x3 SHL AND SHR NOT AND SWAP1 SSTORE CODESIZE DUP1 DUP1 PUSH3 0x2ED JUMP JUMPDEST DUP1 PUSH1 0x1 DUP6 SWAP7 DUP3 SWAP5 SWAP7 DUP7 ADD MLOAD DUP2 SSTORE ADD SWAP6 ADD SWAP4 ADD SWAP1 PUSH3 0x2D7 JUMP JUMPDEST PUSH3 0x335 PUSH3 0x102 JUMP JUMPDEST PUSH3 0x24C JUMP INVALID PUSH1 0x80 PUSH1 0x40 MSTORE PUSH1 0x4 CALLDATASIZE LT ISZERO PUSH2 0x13 JUMPI JUMPDEST PUSH1 0x0 DUP1 REVERT JUMPDEST PUSH1 0x0 CALLDATALOAD PUSH1 0xE0 SHR DUP1 PUSH3 0xFDD58E EQ PUSH2 0x12A JUMPI DUP1 PUSH4 0x1FFC9A7 EQ PUSH2 0x121 JUMPI DUP1 PUSH4 0xE89341C EQ PUSH2 0x118 JUMPI DUP1 PUSH4 0x2EB2C2D6 EQ PUSH2 0x10F JUMPI DUP1 PUSH4 0x39F7E37F EQ PUSH2 0x106 JUMPI DUP1 PUSH4 0x40C10F19 EQ PUSH2 0xFD JUMPI DUP1 PUSH4 0x4E1273F4 EQ PUSH2 0xF4 JUMPI DUP1 PUSH4 0x715018A6 EQ PUSH2 0xEB JUMPI DUP1 PUSH4 0x8DA5CB5B EQ PUSH2 0xE2 JUMPI DUP1 PUSH4 0xA22CB465 EQ PUSH2 0xD9 JUMPI DUP1 PUSH4 0xBD85B039 EQ PUSH2 0xD0 JUMPI DUP1 PUSH4 0xE985E9C5 EQ PUSH2 0xC7 JUMPI DUP1 PUSH4 0xF242432A EQ PUSH2 0xBE JUMPI PUSH4 0xF2FDE38B EQ PUSH2 0xB6 JUMPI PUSH1 0x0 DUP1 REVERT JUMPDEST PUSH2 0xE PUSH2 0x11E1 JUMP JUMPDEST POP PUSH2 0xE PUSH2 0xFF5 JUMP JUMPDEST POP PUSH2 0xE PUSH2 0xF78 JUMP JUMPDEST POP PUSH2 0xE PUSH2 0xF4B JUMP JUMPDEST POP PUSH2 0xE PUSH2 0xE7B JUMP JUMPDEST POP PUSH2 0xE PUSH2 0xE46 JUMP JUMPDEST POP PUSH2 0xE PUSH2 0xDBA JUMP JUMPDEST POP PUSH2 0xE PUSH2 0xCFF JUMP JUMPDEST POP PUSH2 0xE PUSH2 0xB15 JUMP JUMPDEST POP PUSH2 0xE PUSH2 0x96F JUMP JUMPDEST POP PUSH2 0xE PUSH2 0x694 JUMP JUMPDEST POP PUSH2 0xE PUSH2 0x379 JUMP JUMPDEST POP PUSH2 0xE PUSH2 0x21A JUMP JUMPDEST POP PUSH2 0xE PUSH2 0x19A JUMP JUMPDEST PUSH1 0x4 CALLDATALOAD SWAP1 PUSH20 0xFFFFFFFFFFFFFFFFFFFFFFFFFFFFFFFFFFFFFFFF DUP3 AND DUP3 SUB PUSH2 0xE JUMPI JUMP JUMPDEST PUSH1 0x24 CALLDATALOAD SWAP1 PUSH20 0xFFFFFFFFFFFFFFFFFFFFFFFFFFFFFFFFFFFFFFFF DUP3 AND DUP3 SUB PUSH2 0xE JUMPI JUMP JUMPDEST CALLDATALOAD SWAP1 PUSH20 0xFFFFFFFFFFFFFFFFFFFFFFFFFFFFFFFFFFFFFFFF DUP3 AND DUP3 SUB PUSH2 0xE JUMPI JUMP JUMPDEST POP CALLVALUE PUSH2 0xE JUMPI PUSH1 0x40 PUSH1 0x3 NOT CALLDATASIZE ADD SLT PUSH2 0xE JUMPI PUSH20 0xFFFFFFFFFFFFFFFFFFFFFFFFFFFFFFFFFFFFFFFF PUSH2 0x1C9 PUSH2 0x133 JUMP JUMPDEST AND PUSH1 0x0 MSTORE PUSH1 0x0 PUSH1 0x20 MSTORE PUSH1 0x40 PUSH1 0x0 KECCAK256 PUSH1 0x24 CALLDATALOAD PUSH1 0x0 MSTORE PUSH1 0x20 MSTORE PUSH1 0x20 PUSH1 0x40 PUSH1 0x0 KECCAK256 SLOAD PUSH1 0x40 MLOAD SWAP1 DUP2 MSTORE RETURN JUMPDEST PUSH32 0xFFFFFFFF00000000000000000000000000000000000000000000000000000000 DUP2 AND SUB PUSH2 0xE JUMPI JUMP JUMPDEST POP CALLVALUE PUSH2 0xE JUMPI PUSH1 0x20 PUSH1 0x3 NOT CALLDATASIZE ADD SLT PUSH2 0xE JUMPI PUSH1 0x20 PUSH32 0xFFFFFFFF00000000000000000000000000000000000000000000000000000000 PUSH1 0x4 CALLDATALOAD PUSH2 0x25B DUP2 PUSH2 0x1F0 JUMP JUMPDEST AND PUSH32 0x1FFC9A700000000000000000000000000000000000000000000000000000000 DUP2 EQ SWAP1 DUP2 ISZERO PUSH2 0x2C3 JUMPI JUMPDEST DUP2 ISZERO PUSH2 0x299 JUMPI JUMPDEST POP PUSH1 0x40 MLOAD SWAP1 ISZERO ISZERO DUP2 MSTORE RETURN JUMPDEST PUSH32 0xE89341C00000000000000000000000000000000000000000000000000000000 SWAP2 POP EQ CODESIZE PUSH2 0x28E JUMP JUMPDEST PUSH32 0xD9B67A2600000000000000000000000000000000000000000000000000000000 DUP2 EQ SWAP2 POP PUSH2 0x287 JUMP JUMPDEST SWAP2 DUP1 SWAP2 SWAP3 PUSH1 0x0 SWAP1 JUMPDEST DUP3 DUP3 LT PUSH2 0x30D JUMPI POP GT PUSH2 0x306 JUMPI POP POP JUMP JUMPDEST PUSH1 0x0 SWAP2 ADD MSTORE JUMP JUMPDEST SWAP2 POP DUP1 PUSH1 0x20 SWAP2 DUP4 ADD MLOAD DUP2 DUP7 ADD MSTORE ADD DUP3 SWAP2 PUSH2 0x2F5 JUMP JUMPDEST SWAP1 PUSH32 0xFFFFFFFFFFFFFFFFFFFFFFFFFFFFFFFFFFFFFFFFFFFFFFFFFFFFFFFFFFFFFFE0 PUSH1 0x1F PUSH1 0x20 SWAP4 PUSH2 0x35E DUP2 MLOAD DUP1 SWAP3 DUP2 DUP8 MSTORE DUP8 DUP1 DUP9 ADD SWAP2 ADD PUSH2 0x2ED JUMP JUMPDEST ADD AND ADD ADD SWAP1 JUMP JUMPDEST SWAP1 PUSH1 0x20 PUSH2 0x376 SWAP3 DUP2 DUP2 MSTORE ADD SWAP1 PUSH2 0x322 JUMP JUMPDEST SWAP1 JUMP JUMPDEST POP CALLVALUE PUSH2 0xE JUMPI PUSH1 0x20 DUP1 PUSH1 0x3 NOT CALLDATASIZE ADD SLT PUSH2 0xE JUMPI PUSH1 0x4 SLOAD PUSH2 0x398 DUP2 PUSH2 0x17D1 JUMP JUMPDEST PUSH1 0x0 SWAP1 ISZERO PUSH2 0x409 JUMPI POP POP PUSH2 0x3C7 PUSH2 0x3F9 PUSH2 0x405 SWAP3 PUSH2 0x3CD PUSH2 0x3BA PUSH1 0x4 CALLDATALOAD PUSH2 0x196E JUMP JUMPDEST PUSH1 0x40 MLOAD SWAP5 DUP6 SWAP4 DUP5 ADD PUSH2 0x1895 JUMP JUMPDEST SWAP1 PUSH2 0x193C JUMP JUMPDEST SUB PUSH32 0xFFFFFFFFFFFFFFFFFFFFFFFFFFFFFFFFFFFFFFFFFFFFFFFFFFFFFFFFFFFFFFE0 DUP2 ADD DUP4 MSTORE DUP3 PUSH2 0x53E JUMP JUMPDEST PUSH1 0x40 MLOAD SWAP2 DUP3 SWAP2 DUP3 PUSH2 0x365 JUMP JUMPDEST SUB SWAP1 RETURN JUMPDEST SWAP1 SWAP2 PUSH1 0x40 MLOAD SWAP2 DUP1 SWAP4 PUSH2 0x41A DUP2 PUSH2 0x17D1 JUMP JUMPDEST DUP1 DUP6 MSTORE SWAP2 PUSH1 0x1 SWAP2 DUP1 DUP4 AND SWAP1 DUP2 ISZERO PUSH2 0x4A5 JUMPI POP PUSH1 0x1 EQ PUSH2 0x44C JUMPI JUMPDEST POP POP POP POP PUSH2 0x447 DUP2 PUSH2 0x405 SWAP4 SUB DUP3 PUSH2 0x53E JUMP JUMPDEST PUSH2 0x3F9 JUMP JUMPDEST SWAP3 SWAP5 POP PUSH1 0x4 DUP4 MSTORE PUSH32 0x8A35ACFBC15FF81A39AE7D344FD709F28E8600B4AA8C65C6B64BFE7FE36BD19B JUMPDEST DUP3 DUP5 LT PUSH2 0x492 JUMPI POP POP POP DUP2 PUSH2 0x405 SWAP4 PUSH2 0x447 SWAP3 DUP3 ADD ADD SWAP4 CODESIZE PUSH2 0x434 JUMP JUMPDEST DUP1 SLOAD DUP6 DUP6 ADD DUP8 ADD MSTORE SWAP3 DUP6 ADD SWAP3 DUP2 ADD PUSH2 0x475 JUMP JUMPDEST SWAP3 POP POP POP PUSH2 0x405 SWAP5 POP PUSH32 0xFFFFFFFFFFFFFFFFFFFFFFFFFFFFFFFFFFFFFFFFFFFFFFFFFFFFFFFFFFFFFF00 SWAP2 POP AND SWAP1 DUP3 ADD MSTORE PUSH2 0x447 DUP2 PUSH1 0x40 DUP2 ADD SWAP4 CODESIZE PUSH2 0x434 JUMP JUMPDEST POP PUSH32 0x4E487B7100000000000000000000000000000000000000000000000000000000 PUSH1 0x0 MSTORE PUSH1 0x41 PUSH1 0x4 MSTORE PUSH1 0x24 PUSH1 0x0 REVERT JUMPDEST PUSH1 0x20 DUP2 ADD SWAP1 DUP2 LT PUSH8 0xFFFFFFFFFFFFFFFF DUP3 GT OR PUSH2 0x531 JUMPI PUSH1 0x40 MSTORE JUMP JUMPDEST PUSH2 0x539 PUSH2 0x4E5 JUMP JUMPDEST PUSH1 0x40 MSTORE JUMP JUMPDEST SWAP1 PUSH1 0x1F PUSH32 0xFFFFFFFFFFFFFFFFFFFFFFFFFFFFFFFFFFFFFFFFFFFFFFFFFFFFFFFFFFFFFFE0 SWAP2 ADD AND DUP2 ADD SWAP1 DUP2 LT PUSH8 0xFFFFFFFFFFFFFFFF DUP3 GT OR PUSH2 0x531 JUMPI PUSH1 0x40 MSTORE JUMP JUMPDEST PUSH1 0x20 SWAP1 PUSH8 0xFFFFFFFFFFFFFFFF DUP2 GT PUSH2 0x599 JUMPI JUMPDEST PUSH1 0x5 SHL ADD SWAP1 JUMP JUMPDEST PUSH2 0x5A1 PUSH2 0x4E5 JUMP JUMPDEST PUSH2 0x592 JUMP JUMPDEST DUP2 PUSH1 0x1F DUP3 ADD SLT ISZERO PUSH2 0xE JUMPI DUP1 CALLDATALOAD SWAP2 PUSH2 0x5BD DUP4 PUSH2 0x57F JUMP JUMPDEST SWAP3 PUSH2 0x5CB PUSH1 0x40 MLOAD SWAP5 DUP6 PUSH2 0x53E JUMP JUMPDEST DUP1 DUP5 MSTORE PUSH1 0x20 SWAP3 DUP4 DUP1 DUP7 ADD SWAP3 PUSH1 0x5 SHL DUP3 ADD ADD SWAP3 DUP4 GT PUSH2 0xE JUMPI DUP4 ADD SWAP1 JUMPDEST DUP3 DUP3 LT PUSH2 0x5F5 JUMPI POP POP POP POP SWAP1 JUMP JUMPDEST DUP2 CALLDATALOAD DUP2 MSTORE SWAP1 DUP4 ADD SWAP1 DUP4 ADD PUSH2 0x5E7 JUMP JUMPDEST PUSH32 0xFFFFFFFFFFFFFFFFFFFFFFFFFFFFFFFFFFFFFFFFFFFFFFFFFFFFFFFFFFFFFFE0 PUSH1 0x1F PUSH1 0x20 SWAP3 PUSH8 0xFFFFFFFFFFFFFFFF DUP2 GT PUSH2 0x640 JUMPI JUMPDEST ADD AND ADD SWAP1 JUMP JUMPDEST PUSH2 0x648 PUSH2 0x4E5 JUMP JUMPDEST PUSH2 0x63A JUMP JUMPDEST DUP2 PUSH1 0x1F DUP3 ADD SLT ISZERO PUSH2 0xE JUMPI DUP1 CALLDATALOAD SWAP1 PUSH2 0x664 DUP3 PUSH2 0x604 JUMP JUMPDEST SWAP3 PUSH2 0x672 PUSH1 0x40 MLOAD SWAP5 DUP6 PUSH2 0x53E JUMP JUMPDEST DUP3 DUP5 MSTORE PUSH1 0x20 DUP4 DUP4 ADD ADD GT PUSH2 0xE JUMPI DUP2 PUSH1 0x0 SWAP3 PUSH1 0x20 DUP1 SWAP4 ADD DUP4 DUP7 ADD CALLDATACOPY DUP4 ADD ADD MSTORE SWAP1 JUMP JUMPDEST POP CALLVALUE PUSH2 0xE JUMPI PUSH1 0xA0 PUSH1 0x3 NOT CALLDATASIZE ADD SLT PUSH2 0xE JUMPI PUSH2 0x6AE PUSH2 0x133 JUMP JUMPDEST PUSH2 0x6B6 PUSH2 0x156 JUMP JUMPDEST SWAP1 PUSH8 0xFFFFFFFFFFFFFFFF SWAP1 PUSH1 0x44 CALLDATALOAD DUP3 DUP2 GT PUSH2 0xE JUMPI PUSH2 0x6D9 SWAP1 CALLDATASIZE SWAP1 PUSH1 0x4 ADD PUSH2 0x5A6 JUMP JUMPDEST PUSH1 0x64 CALLDATALOAD DUP4 DUP2 GT PUSH2 0xE JUMPI PUSH2 0x6F1 SWAP1 CALLDATASIZE SWAP1 PUSH1 0x4 ADD PUSH2 0x5A6 JUMP JUMPDEST SWAP3 PUSH1 0x84 CALLDATALOAD SWAP1 DUP2 GT PUSH2 0xE JUMPI PUSH2 0x70A SWAP1 CALLDATASIZE SWAP1 PUSH1 0x4 ADD PUSH2 0x64D JUMP JUMPDEST DUP2 MLOAD SWAP4 PUSH2 0x719 DUP2 MLOAD DUP7 EQ PUSH2 0x159F JUMP JUMPDEST PUSH20 0xFFFFFFFFFFFFFFFFFFFFFFFFFFFFFFFFFFFFFFFF DUP1 DUP6 AND SWAP6 DUP7 CALLER EQ DUP1 ISZERO PUSH2 0x907 JUMPI JUMPDEST PUSH2 0x745 SWAP1 PUSH2 0x1387 JUMP JUMPDEST PUSH1 0x0 JUMPDEST DUP2 DUP2 LT PUSH2 0x860 JUMPI POP POP SWAP6 PUSH2 0x7A4 SWAP7 DUP2 AND DUP1 SWAP7 PUSH1 0x40 MLOAD PUSH32 0x4A39DC06D4C0DBC64B70AF90FD698A233A518AA5D07E595D983B8C0526C8F7FB CALLER SWAP2 DUP1 PUSH2 0x78C DUP9 DUP12 DUP4 PUSH2 0x1656 JUMP JUMPDEST SUB SWAP1 LOG4 PUSH1 0x0 SWAP4 SWAP1 EXTCODESIZE PUSH2 0x7A6 JUMPI POP POP POP POP POP ISZERO ISZERO PUSH2 0x153A JUMP JUMPDEST STOP JUMPDEST SWAP2 PUSH32 0xFFFFFFFF00000000000000000000000000000000000000000000000000000000 SWAP5 SWAP6 PUSH1 0x20 SWAP3 DUP6 PUSH2 0x80B SWAP6 PUSH1 0x40 MLOAD SWAP7 DUP8 SWAP6 DUP7 SWAP5 DUP6 SWAP4 PUSH32 0xBC197C8100000000000000000000000000000000000000000000000000000000 SWAP14 DUP15 DUP7 MSTORE CALLER PUSH1 0x4 DUP8 ADD PUSH2 0x167B JUMP JUMPDEST SUB SWAP3 GAS CALL SWAP2 DUP3 ISZERO PUSH2 0x853 JUMPI JUMPDEST SWAP2 PUSH2 0x825 JUMPI JUMPDEST POP AND EQ PUSH2 0x153A JUMP JUMPDEST PUSH2 0x846 SWAP2 POP PUSH1 0x20 RETURNDATASIZE DUP2 GT PUSH2 0x84C JUMPI JUMPDEST PUSH2 0x83E DUP2 DUP4 PUSH2 0x53E JUMP JUMPDEST DUP2 ADD SWAP1 PUSH2 0x1496 JUMP JUMPDEST CODESIZE PUSH2 0x81D JUMP JUMPDEST POP RETURNDATASIZE PUSH2 0x834 JUMP JUMPDEST PUSH2 0x85B PUSH2 0x152D JUMP JUMPDEST PUSH2 0x817 JUMP JUMPDEST DUP1 DUP8 PUSH2 0x8FF PUSH2 0x8F7 DUP4 PUSH2 0x8B5 DUP15 PUSH2 0x8C4 DUP12 PUSH2 0x8B5 DUP16 PUSH2 0x884 PUSH1 0x1 SWAP13 PUSH2 0x88D SWAP3 PUSH2 0x1634 JUMP JUMPDEST MLOAD SWAP7 DUP8 SWAP4 PUSH2 0x1634 JUMP JUMPDEST MLOAD SWAP9 PUSH20 0xFFFFFFFFFFFFFFFFFFFFFFFFFFFFFFFFFFFFFFFF AND PUSH1 0x0 MSTORE PUSH1 0x0 PUSH1 0x20 MSTORE PUSH1 0x40 PUSH1 0x0 KECCAK256 SWAP1 JUMP JUMPDEST SWAP1 PUSH1 0x0 MSTORE PUSH1 0x20 MSTORE PUSH1 0x40 PUSH1 0x0 KECCAK256 SWAP1 JUMP JUMPDEST PUSH2 0x8CF DUP8 DUP3 SLOAD PUSH2 0x1456 JUMP JUMPDEST SWAP1 SSTORE PUSH20 0xFFFFFFFFFFFFFFFFFFFFFFFFFFFFFFFFFFFFFFFF AND PUSH1 0x0 MSTORE PUSH1 0x0 PUSH1 0x20 MSTORE PUSH1 0x40 PUSH1 0x0 KECCAK256 SWAP1 JUMP JUMPDEST SWAP2 DUP3 SLOAD PUSH2 0x148A JUMP JUMPDEST SWAP1 SSTORE ADD PUSH2 0x748 JUMP JUMPDEST POP PUSH2 0x745 PUSH2 0x968 PUSH2 0x961 CALLER PUSH2 0x93C DUP11 PUSH20 0xFFFFFFFFFFFFFFFFFFFFFFFFFFFFFFFFFFFFFFFF AND PUSH1 0x0 MSTORE PUSH1 0x1 PUSH1 0x20 MSTORE PUSH1 0x40 PUSH1 0x0 KECCAK256 SWAP1 JUMP JUMPDEST SWAP1 PUSH20 0xFFFFFFFFFFFFFFFFFFFFFFFFFFFFFFFFFFFFFFFF AND PUSH1 0x0 MSTORE PUSH1 0x20 MSTORE PUSH1 0x40 PUSH1 0x0 KECCAK256 SWAP1 JUMP JUMPDEST SLOAD PUSH1 0xFF AND SWAP1 JUMP JUMPDEST SWAP1 POP PUSH2 0x73C JUMP JUMPDEST POP CALLVALUE PUSH2 0xE JUMPI PUSH1 0x20 DUP1 PUSH1 0x3 NOT CALLDATASIZE ADD SLT PUSH2 0xE JUMPI PUSH8 0xFFFFFFFFFFFFFFFF PUSH1 0x4 CALLDATALOAD DUP2 DUP2 GT PUSH2 0xE JUMPI CALLDATASIZE PUSH1 0x23 DUP3 ADD SLT ISZERO PUSH2 0xE JUMPI DUP1 PUSH1 0x4 ADD CALLDATALOAD SWAP2 DUP3 GT PUSH2 0xE JUMPI PUSH1 0x24 SWAP1 CALLDATASIZE DUP3 DUP5 DUP4 ADD ADD GT PUSH2 0xE JUMPI PUSH2 0x9DD PUSH20 0xFFFFFFFFFFFFFFFFFFFFFFFFFFFFFFFFFFFFFFFF PUSH1 0x2 SLOAD AND CALLER EQ PUSH2 0x12B3 JUMP JUMPDEST PUSH2 0x9F1 DUP4 PUSH2 0x9EC PUSH1 0x4 SLOAD PUSH2 0x17D1 JUMP JUMPDEST PUSH2 0x1824 JUMP JUMPDEST PUSH1 0x0 SWAP4 PUSH1 0x1F DUP5 GT PUSH1 0x1 EQ PUSH2 0xA4D JUMPI POP SWAP3 DUP3 SWAP4 PUSH1 0x0 SWAP4 PUSH2 0xA40 JUMPI JUMPDEST POP POP POP PUSH32 0xFFFFFFFFFFFFFFFFFFFFFFFFFFFFFFFFFFFFFFFFFFFFFFFFFFFFFFFFFFFFFFFF DUP3 PUSH1 0x1 SHL SWAP3 PUSH1 0x3 SHL SHR NOT AND OR PUSH1 0x4 SSTORE STOP JUMPDEST ADD ADD CALLDATALOAD SWAP1 POP CODESIZE DUP1 DUP1 PUSH2 0xA0B JUMP JUMPDEST SWAP2 PUSH32 0xFFFFFFFFFFFFFFFFFFFFFFFFFFFFFFFFFFFFFFFFFFFFFFFFFFFFFFFFFFFFFFE0 DUP5 AND SWAP5 PUSH2 0xA9E PUSH1 0x4 PUSH1 0x0 MSTORE PUSH32 0x8A35ACFBC15FF81A39AE7D344FD709F28E8600B4AA8C65C6B64BFE7FE36BD19B SWAP1 JUMP JUMPDEST SWAP4 DUP2 SWAP1 JUMPDEST DUP8 DUP3 LT PUSH2 0xAFB JUMPI POP POP DUP5 PUSH1 0x1 SWAP7 LT PUSH2 0xAC1 JUMPI JUMPDEST POP POP POP POP DUP2 SHL ADD PUSH1 0x4 SSTORE STOP JUMPDEST PUSH32 0xFFFFFFFFFFFFFFFFFFFFFFFFFFFFFFFFFFFFFFFFFFFFFFFFFFFFFFFFFFFFFFFF PUSH1 0xF8 DUP7 PUSH1 0x3 SHL AND SHR NOT SWAP3 ADD ADD CALLDATALOAD AND SWAP1 SSTORE CODESIZE DUP1 DUP1 DUP1 PUSH2 0xAB5 JUMP JUMPDEST DUP1 PUSH1 0x1 DUP5 SWAP8 DUP7 DUP4 SWAP6 SWAP7 DUP10 ADD ADD CALLDATALOAD DUP2 SSTORE ADD SWAP7 ADD SWAP3 ADD SWAP1 PUSH2 0xAA2 JUMP JUMPDEST POP CALLVALUE PUSH2 0xE JUMPI PUSH1 0x40 PUSH1 0x3 NOT CALLDATASIZE ADD SLT PUSH2 0xE JUMPI PUSH2 0xB2F PUSH2 0x133 JUMP JUMPDEST PUSH1 0x24 CALLDATALOAD PUSH20 0xFFFFFFFFFFFFFFFFFFFFFFFFFFFFFFFFFFFFFFFF SWAP2 DUP3 PUSH1 0x5 SLOAD AND CALLER SUB PUSH2 0xE JUMPI PUSH2 0xC00 SWAP1 PUSH1 0x6 SLOAD PUSH1 0x40 MLOAD SWAP5 PUSH2 0xB67 DUP7 PUSH2 0x515 JUMP JUMPDEST PUSH1 0x0 SWAP6 DUP7 SWAP2 DUP3 DUP3 MSTORE PUSH2 0xB9D DUP5 PUSH2 0x8B5 DUP8 PUSH20 0xFFFFFFFFFFFFFFFFFFFFFFFFFFFFFFFFFFFFFFFF AND PUSH1 0x0 MSTORE PUSH1 0x0 PUSH1 0x20 MSTORE PUSH1 0x40 PUSH1 0x0 KECCAK256 SWAP1 JUMP JUMPDEST PUSH2 0xBA8 DUP9 DUP3 SLOAD PUSH2 0x148A JUMP JUMPDEST SWAP1 SSTORE DUP5 AND SWAP4 DUP5 DUP4 PUSH1 0x40 MLOAD PUSH32 0xC3D58168C5AE7397731D063D5BBF3D657854427343F4C083240F7AACAA2D0F62 CALLER SWAP2 DUP1 PUSH2 0xBEE DUP14 DUP12 DUP4 PUSH1 0x20 SWAP1 SWAP4 SWAP3 SWAP2 SWAP4 PUSH1 0x40 DUP2 ADD SWAP5 DUP2 MSTORE ADD MSTORE JUMP JUMPDEST SUB SWAP1 LOG4 EXTCODESIZE PUSH2 0xC31 JUMPI POP POP POP ISZERO ISZERO PUSH2 0x153A JUMP JUMPDEST PUSH2 0xC2A PUSH2 0x8F7 PUSH1 0x6 SLOAD PUSH2 0xC1A PUSH2 0xC15 DUP3 PUSH2 0x17A3 JUMP JUMPDEST PUSH1 0x6 SSTORE JUMP JUMPDEST PUSH1 0x0 MSTORE PUSH1 0x3 PUSH1 0x20 MSTORE PUSH1 0x40 PUSH1 0x0 KECCAK256 SWAP1 JUMP JUMPDEST SWAP1 SSTORE PUSH1 0x40 MLOAD RETURN JUMPDEST PUSH2 0xC93 PUSH32 0xFFFFFFFF00000000000000000000000000000000000000000000000000000000 SWAP4 SWAP5 PUSH1 0x20 SWAP3 PUSH1 0x40 MLOAD SWAP5 DUP6 DUP1 SWAP5 DUP2 SWAP4 DUP13 PUSH32 0xF23A6E6100000000000000000000000000000000000000000000000000000000 SWAP12 DUP13 DUP6 MSTORE CALLER PUSH1 0x4 DUP7 ADD PUSH2 0x14AB JUMP JUMPDEST SUB SWAP3 GAS CALL SWAP1 DUP2 ISZERO PUSH2 0xCAD JUMPI JUMPDEST DUP7 SWAP2 PUSH2 0x825 JUMPI POP AND EQ PUSH2 0x153A JUMP JUMPDEST PUSH2 0xCB5 PUSH2 0x152D JUMP JUMPDEST PUSH2 0xC9F JUMP JUMPDEST SWAP1 DUP2 MLOAD DUP1 DUP3 MSTORE PUSH1 0x20 DUP1 DUP1 SWAP4 ADD SWAP4 ADD SWAP2 PUSH1 0x0 JUMPDEST DUP3 DUP2 LT PUSH2 0xCDA JUMPI POP POP POP POP SWAP1 JUMP JUMPDEST DUP4 MLOAD DUP6 MSTORE SWAP4 DUP2 ADD SWAP4 SWAP3 DUP2 ADD SWAP3 PUSH1 0x1 ADD PUSH2 0xCCC JUMP JUMPDEST SWAP1 PUSH1 0x20 PUSH2 0x376 SWAP3 DUP2 DUP2 MSTORE ADD SWAP1 PUSH2 0xCBA JUMP JUMPDEST POP CALLVALUE PUSH2 0xE JUMPI PUSH1 0x40 PUSH1 0x3 NOT CALLDATASIZE ADD SLT PUSH2 0xE JUMPI PUSH1 0x4 CALLDATALOAD PUSH8 0xFFFFFFFFFFFFFFFF DUP1 DUP3 GT PUSH2 0xE JUMPI CALLDATASIZE PUSH1 0x23 DUP4 ADD SLT ISZERO PUSH2 0xE JUMPI DUP2 PUSH1 0x4 ADD CALLDATALOAD PUSH2 0xD3D DUP2 PUSH2 0x57F JUMP JUMPDEST SWAP3 PUSH2 0xD4B PUSH1 0x40 MLOAD SWAP5 DUP6 PUSH2 0x53E JUMP JUMPDEST DUP2 DUP5 MSTORE PUSH1 0x20 SWAP2 PUSH1 0x24 DUP4 DUP7 ADD SWAP2 PUSH1 0x5 SHL DUP4 ADD ADD SWAP2 CALLDATASIZE DUP4 GT PUSH2 0xE JUMPI PUSH1 0x24 ADD SWAP1 JUMPDEST DUP3 DUP3 LT PUSH2 0xDA3 JUMPI DUP6 PUSH1 0x24 CALLDATALOAD DUP7 DUP2 GT PUSH2 0xE JUMPI PUSH2 0x405 SWAP2 PUSH2 0xD91 PUSH2 0xD97 SWAP3 CALLDATASIZE SWAP1 PUSH1 0x4 ADD PUSH2 0x5A6 JUMP JUMPDEST SWAP1 PUSH2 0x16D7 JUMP JUMPDEST PUSH1 0x40 MLOAD SWAP2 DUP3 SWAP2 DUP3 PUSH2 0xCEE JUMP JUMPDEST DUP4 DUP1 SWAP2 PUSH2 0xDAF DUP5 PUSH2 0x179 JUMP JUMPDEST DUP2 MSTORE ADD SWAP2 ADD SWAP1 PUSH2 0xD6A JUMP JUMPDEST POP CALLVALUE PUSH2 0xE JUMPI PUSH1 0x0 DUP1 PUSH1 0x3 NOT CALLDATASIZE ADD SLT PUSH2 0xE43 JUMPI PUSH1 0x2 SLOAD PUSH32 0xFFFFFFFFFFFFFFFFFFFFFFFF0000000000000000000000000000000000000000 PUSH20 0xFFFFFFFFFFFFFFFFFFFFFFFFFFFFFFFFFFFFFFFF DUP3 AND SWAP2 PUSH2 0xE14 CALLER DUP5 EQ PUSH2 0x12B3 JUMP JUMPDEST AND PUSH1 0x2 SSTORE DUP2 PUSH1 0x40 MLOAD SWAP2 PUSH32 0x8BE0079C531659141344CD1FD0A4F28419497F9722A3DAAFE3B4186F6B6457E0 DUP3 DUP5 LOG3 RETURN JUMPDEST DUP1 REVERT JUMPDEST POP CALLVALUE PUSH2 0xE JUMPI PUSH1 0x0 PUSH1 0x3 NOT CALLDATASIZE ADD SLT PUSH2 0xE JUMPI PUSH1 0x20 PUSH20 0xFFFFFFFFFFFFFFFFFFFFFFFFFFFFFFFFFFFFFFFF PUSH1 0x2 SLOAD AND PUSH1 0x40 MLOAD SWAP1 DUP2 MSTORE RETURN JUMPDEST POP CALLVALUE PUSH2 0xE JUMPI PUSH1 0x40 PUSH1 0x3 NOT CALLDATASIZE ADD SLT PUSH2 0xE JUMPI PUSH2 0xE95 PUSH2 0x133 JUMP JUMPDEST PUSH1 0x24 CALLDATALOAD SWAP1 DUP2 ISZERO ISZERO DUP1 SWAP3 SUB PUSH2 0xE JUMPI PUSH20 0xFFFFFFFFFFFFFFFFFFFFFFFFFFFFFFFFFFFFFFFF SWAP1 CALLER PUSH1 0x0 MSTORE PUSH1 0x1 PUSH1 0x20 MSTORE PUSH2 0xEF0 DUP2 PUSH1 0x40 PUSH1 0x0 KECCAK256 SWAP1 PUSH20 0xFFFFFFFFFFFFFFFFFFFFFFFFFFFFFFFFFFFFFFFF AND PUSH1 0x0 MSTORE PUSH1 0x20 MSTORE PUSH1 0x40 PUSH1 0x0 KECCAK256 SWAP1 JUMP JUMPDEST PUSH32 0xFFFFFFFFFFFFFFFFFFFFFFFFFFFFFFFFFFFFFFFFFFFFFFFFFFFFFFFFFFFFFF00 DUP2 SLOAD AND PUSH1 0xFF DUP6 AND OR SWAP1 SSTORE PUSH1 0x40 MLOAD SWAP3 DUP4 MSTORE AND SWAP1 PUSH32 0x17307EAB39AB6107E8899845AD3D59BD9653F200F220920489CA2B5937696C31 PUSH1 0x20 CALLER SWAP3 LOG3 STOP JUMPDEST POP CALLVALUE PUSH2 0xE JUMPI PUSH1 0x20 PUSH1 0x3 NOT CALLDATASIZE ADD SLT PUSH2 0xE JUMPI PUSH1 0x4 CALLDATALOAD PUSH1 0x0 MSTORE PUSH1 0x3 PUSH1 0x20 MSTORE PUSH1 0x20 PUSH1 0x40 PUSH1 0x0 KECCAK256 SLOAD PUSH1 0x40 MLOAD SWAP1 DUP2 MSTORE RETURN JUMPDEST POP CALLVALUE PUSH2 0xE JUMPI PUSH1 0x40 PUSH1 0x3 NOT CALLDATASIZE ADD SLT PUSH2 0xE JUMPI PUSH1 0x20 PUSH1 0xFF PUSH2 0xFE9 PUSH2 0xF99 PUSH2 0x133 JUMP JUMPDEST PUSH20 0xFFFFFFFFFFFFFFFFFFFFFFFFFFFFFFFFFFFFFFFF PUSH2 0xFB6 PUSH2 0x156 JUMP JUMPDEST SWAP2 AND PUSH1 0x0 MSTORE PUSH1 0x1 DUP5 MSTORE PUSH1 0x40 PUSH1 0x0 KECCAK256 SWAP1 PUSH20 0xFFFFFFFFFFFFFFFFFFFFFFFFFFFFFFFFFFFFFFFF AND PUSH1 0x0 MSTORE PUSH1 0x20 MSTORE PUSH1 0x40 PUSH1 0x0 KECCAK256 SWAP1 JUMP JUMPDEST SLOAD AND PUSH1 0x40 MLOAD SWAP1 ISZERO ISZERO DUP2 MSTORE RETURN JUMPDEST POP CALLVALUE PUSH2 0xE JUMPI PUSH1 0xA0 PUSH1 0x3 NOT CALLDATASIZE ADD SLT PUSH2 0xE JUMPI PUSH2 0x100F PUSH2 0x133 JUMP JUMPDEST PUSH2 0x1017 PUSH2 0x156 JUMP JUMPDEST PUSH1 0x84 CALLDATALOAD SWAP2 PUSH1 0x44 CALLDATALOAD PUSH1 0x64 CALLDATALOAD PUSH8 0xFFFFFFFFFFFFFFFF DUP6 GT PUSH2 0xE JUMPI PUSH2 0x1041 PUSH2 0x7A4 SWAP6 CALLDATASIZE SWAP1 PUSH1 0x4 ADD PUSH2 0x64D JUMP JUMPDEST SWAP1 PUSH20 0xFFFFFFFFFFFFFFFFFFFFFFFFFFFFFFFFFFFFFFFF SWAP5 DUP6 DUP6 AND SWAP6 DUP7 CALLER EQ DUP1 ISZERO PUSH2 0x11A5 JUMPI JUMPDEST PUSH2 0x106F SWAP1 PUSH2 0x1387 JUMP JUMPDEST PUSH2 0x109D DUP6 PUSH2 0x8B5 DUP9 PUSH20 0xFFFFFFFFFFFFFFFFFFFFFFFFFFFFFFFFFFFFFFFF AND PUSH1 0x0 MSTORE PUSH1 0x0 PUSH1 0x20 MSTORE PUSH1 0x40 PUSH1 0x0 KECCAK256 SWAP1 JUMP JUMPDEST PUSH2 0x10A8 DUP5 DUP3 SLOAD PUSH2 0x1456 JUMP JUMPDEST SWAP1 SSTORE PUSH2 0x10D8 DUP6 PUSH2 0x8B5 DUP5 PUSH20 0xFFFFFFFFFFFFFFFFFFFFFFFFFFFFFFFFFFFFFFFF AND PUSH1 0x0 MSTORE PUSH1 0x0 PUSH1 0x20 MSTORE PUSH1 0x40 PUSH1 0x0 KECCAK256 SWAP1 JUMP JUMPDEST PUSH2 0x10E3 DUP5 DUP3 SLOAD PUSH2 0x148A JUMP JUMPDEST SWAP1 SSTORE DUP2 AND DUP1 SWAP7 PUSH1 0x40 MLOAD PUSH32 0xC3D58168C5AE7397731D063D5BBF3D657854427343F4C083240F7AACAA2D0F62 CALLER SWAP2 DUP1 PUSH2 0x1128 DUP9 DUP12 DUP4 PUSH1 0x20 SWAP1 SWAP4 SWAP3 SWAP2 SWAP4 PUSH1 0x40 DUP2 ADD SWAP5 DUP2 MSTORE ADD MSTORE JUMP JUMPDEST SUB SWAP1 LOG4 PUSH1 0x0 SWAP4 SWAP1 EXTCODESIZE PUSH2 0x1140 JUMPI POP POP POP POP POP ISZERO ISZERO PUSH2 0x153A JUMP JUMPDEST SWAP2 PUSH32 0xFFFFFFFF00000000000000000000000000000000000000000000000000000000 SWAP5 SWAP6 PUSH1 0x20 SWAP3 DUP6 PUSH2 0x80B SWAP6 PUSH1 0x40 MLOAD SWAP7 DUP8 SWAP6 DUP7 SWAP5 DUP6 SWAP4 PUSH32 0xF23A6E6100000000000000000000000000000000000000000000000000000000 SWAP14 DUP15 DUP7 MSTORE CALLER PUSH1 0x4 DUP8 ADD PUSH2 0x14EB JUMP JUMPDEST POP PUSH2 0x106F PUSH2 0x11DA PUSH2 0x961 CALLER PUSH2 0x93C DUP11 PUSH20 0xFFFFFFFFFFFFFFFFFFFFFFFFFFFFFFFFFFFFFFFF AND PUSH1 0x0 MSTORE PUSH1 0x1 PUSH1 0x20 MSTORE PUSH1 0x40 PUSH1 0x0 KECCAK256 SWAP1 JUMP JUMPDEST SWAP1 POP PUSH2 0x1066 JUMP JUMPDEST POP CALLVALUE PUSH2 0xE JUMPI PUSH1 0x20 PUSH1 0x3 NOT CALLDATASIZE ADD SLT PUSH2 0xE JUMPI PUSH2 0x11FB PUSH2 0x133 JUMP JUMPDEST PUSH20 0xFFFFFFFFFFFFFFFFFFFFFFFFFFFFFFFFFFFFFFFF PUSH2 0x121F DUP2 PUSH1 0x2 SLOAD AND CALLER EQ PUSH2 0x12B3 JUMP JUMPDEST DUP2 AND ISZERO PUSH2 0x122F JUMPI PUSH2 0x7A4 SWAP1 PUSH2 0x1318 JUMP JUMPDEST PUSH1 0x84 PUSH1 0x40 MLOAD PUSH32 0x8C379A000000000000000000000000000000000000000000000000000000000 DUP2 MSTORE PUSH1 0x20 PUSH1 0x4 DUP3 ADD MSTORE PUSH1 0x26 PUSH1 0x24 DUP3 ADD MSTORE PUSH32 0x4F776E61626C653A206E6577206F776E657220697320746865207A65726F2061 PUSH1 0x44 DUP3 ADD MSTORE PUSH32 0x6464726573730000000000000000000000000000000000000000000000000000 PUSH1 0x64 DUP3 ADD MSTORE REVERT JUMPDEST ISZERO PUSH2 0x12BA JUMPI JUMP JUMPDEST PUSH1 0x64 PUSH1 0x40 MLOAD PUSH32 0x8C379A000000000000000000000000000000000000000000000000000000000 DUP2 MSTORE PUSH1 0x20 PUSH1 0x4 DUP3 ADD MSTORE PUSH1 0x20 PUSH1 0x24 DUP3 ADD MSTORE PUSH32 0x4F776E61626C653A2063616C6C6572206973206E6F7420746865206F776E6572 PUSH1 0x44 DUP3 ADD MSTORE REVERT JUMPDEST PUSH1 0x2 SLOAD SWAP1 PUSH20 0xFFFFFFFFFFFFFFFFFFFFFFFFFFFFFFFFFFFFFFFF DUP1 SWAP2 AND SWAP2 DUP3 PUSH32 0xFFFFFFFFFFFFFFFFFFFFFFFF0000000000000000000000000000000000000000 DUP3 AND OR PUSH1 0x2 SSTORE AND PUSH32 0x8BE0079C531659141344CD1FD0A4F28419497F9722A3DAAFE3B4186F6B6457E0 PUSH1 0x0 PUSH1 0x40 MLOAD LOG3 JUMP JUMPDEST ISZERO PUSH2 0x138E JUMPI JUMP JUMPDEST PUSH1 0x64 PUSH1 0x40 MLOAD PUSH32 0x8C379A000000000000000000000000000000000000000000000000000000000 DUP2 MSTORE PUSH1 0x20 PUSH1 0x4 DUP3 ADD MSTORE PUSH1 0xE PUSH1 0x24 DUP3 ADD MSTORE PUSH32 0x4E4F545F415554484F52495A4544000000000000000000000000000000000000 PUSH1 0x44 DUP3 ADD MSTORE REVERT JUMPDEST POP PUSH32 0x4E487B7100000000000000000000000000000000000000000000000000000000 PUSH1 0x0 MSTORE PUSH1 0x11 PUSH1 0x4 MSTORE PUSH1 0x24 PUSH1 0x0 REVERT JUMPDEST PUSH32 0xFFFFFFFFFFFFFFFFFFFFFFFFFFFFFFFFFFFFFFFFFFFFFFFFFFFFFFFFFFFFFFFF SWAP1 PUSH1 0x1 DUP2 LT PUSH2 0x144A JUMPI ADD SWAP1 JUMP JUMPDEST PUSH2 0x1452 PUSH2 0x13EC JUMP JUMPDEST ADD SWAP1 JUMP JUMPDEST DUP2 DUP2 LT PUSH2 0x1461 JUMPI SUB SWAP1 JUMP JUMPDEST PUSH2 0x1469 PUSH2 0x13EC JUMP JUMPDEST SUB SWAP1 JUMP JUMPDEST DUP1 NOT PUSH1 0x30 GT PUSH2 0x147D JUMPI JUMPDEST PUSH1 0x30 ADD SWAP1 JUMP JUMPDEST PUSH2 0x1485 PUSH2 0x13EC JUMP JUMPDEST PUSH2 0x1477 JUMP JUMPDEST DUP2 NOT DUP2 GT PUSH2 0x144A JUMPI ADD SWAP1 JUMP JUMPDEST SWAP1 DUP2 PUSH1 0x20 SWAP2 SUB SLT PUSH2 0xE JUMPI MLOAD PUSH2 0x376 DUP2 PUSH2 0x1F0 JUMP JUMPDEST SWAP1 SWAP3 PUSH1 0xA0 SWAP3 PUSH20 0xFFFFFFFFFFFFFFFFFFFFFFFFFFFFFFFFFFFFFFFF PUSH2 0x376 SWAP7 SWAP6 AND DUP4 MSTORE PUSH1 0x0 PUSH1 0x20 DUP5 ADD MSTORE PUSH1 0x40 DUP4 ADD MSTORE PUSH1 0x60 DUP3 ADD MSTORE DUP2 PUSH1 0x80 DUP3 ADD MSTORE ADD SWAP1 PUSH2 0x322 JUMP JUMPDEST SWAP2 SWAP3 PUSH2 0x376 SWAP6 SWAP5 SWAP2 PUSH1 0xA0 SWAP5 PUSH20 0xFFFFFFFFFFFFFFFFFFFFFFFFFFFFFFFFFFFFFFFF DUP1 SWAP3 AND DUP6 MSTORE AND PUSH1 0x20 DUP5 ADD MSTORE PUSH1 0x40 DUP4 ADD MSTORE PUSH1 0x60 DUP3 ADD MSTORE DUP2 PUSH1 0x80 DUP3 ADD MSTORE ADD SWAP1 PUSH2 0x322 JUMP JUMPDEST POP PUSH1 0x40 MLOAD RETURNDATASIZE PUSH1 0x0 DUP3 RETURNDATACOPY RETURNDATASIZE SWAP1 REVERT JUMPDEST ISZERO PUSH2 0x1541 JUMPI JUMP JUMPDEST PUSH1 0x64 PUSH1 0x40 MLOAD PUSH32 0x8C379A000000000000000000000000000000000000000000000000000000000 DUP2 MSTORE PUSH1 0x20 PUSH1 0x4 DUP3 ADD MSTORE PUSH1 0x10 PUSH1 0x24 DUP3 ADD MSTORE PUSH32 0x554E534146455F524543495049454E5400000000000000000000000000000000 PUSH1 0x44 DUP3 ADD MSTORE REVERT JUMPDEST ISZERO PUSH2 0x15A6 JUMPI JUMP JUMPDEST PUSH1 0x64 PUSH1 0x40 MLOAD PUSH32 0x8C379A000000000000000000000000000000000000000000000000000000000 DUP2 MSTORE PUSH1 0x20 PUSH1 0x4 DUP3 ADD MSTORE PUSH1 0xF PUSH1 0x24 DUP3 ADD MSTORE PUSH32 0x4C454E4754485F4D49534D415443480000000000000000000000000000000000 PUSH1 0x44 DUP3 ADD MSTORE REVERT JUMPDEST POP PUSH32 0x4E487B7100000000000000000000000000000000000000000000000000000000 PUSH1 0x0 MSTORE PUSH1 0x32 PUSH1 0x4 MSTORE PUSH1 0x24 PUSH1 0x0 REVERT JUMPDEST PUSH1 0x20 SWAP2 DUP2 MLOAD DUP2 LT ISZERO PUSH2 0x1649 JUMPI JUMPDEST PUSH1 0x5 SHL ADD ADD SWAP1 JUMP JUMPDEST PUSH2 0x1651 PUSH2 0x1604 JUMP JUMPDEST PUSH2 0x1641 JUMP JUMPDEST SWAP1 SWAP2 PUSH2 0x166D PUSH2 0x376 SWAP4 PUSH1 0x40 DUP5 MSTORE PUSH1 0x40 DUP5 ADD SWAP1 PUSH2 0xCBA JUMP JUMPDEST SWAP2 PUSH1 0x20 DUP2 DUP5 SUB SWAP2 ADD MSTORE PUSH2 0xCBA JUMP JUMPDEST SWAP4 SWAP1 PUSH2 0x376 SWAP6 SWAP4 PUSH2 0x16BB SWAP2 PUSH2 0x16C9 SWAP5 PUSH20 0xFFFFFFFFFFFFFFFFFFFFFFFFFFFFFFFFFFFFFFFF DUP1 SWAP3 AND DUP9 MSTORE AND PUSH1 0x20 DUP8 ADD MSTORE PUSH1 0xA0 PUSH1 0x40 DUP8 ADD MSTORE PUSH1 0xA0 DUP7 ADD SWAP1 PUSH2 0xCBA JUMP JUMPDEST SWAP1 DUP5 DUP3 SUB PUSH1 0x60 DUP7 ADD MSTORE PUSH2 0xCBA JUMP JUMPDEST SWAP2 PUSH1 0x80 DUP2 DUP5 SUB SWAP2 ADD MSTORE PUSH2 0x322 JUMP JUMPDEST SWAP2 DUP3 MLOAD PUSH2 0x16E6 DUP4 MLOAD DUP3 EQ PUSH2 0x159F JUMP JUMPDEST DUP4 MLOAD PUSH2 0x16F1 DUP2 PUSH2 0x57F JUMP JUMPDEST SWAP1 PUSH32 0xFFFFFFFFFFFFFFFFFFFFFFFFFFFFFFFFFFFFFFFFFFFFFFFFFFFFFFFFFFFFFFE0 PUSH2 0x172D PUSH1 0x40 SWAP3 PUSH2 0x1725 DUP5 MLOAD SWAP6 DUP7 PUSH2 0x53E JUMP JUMPDEST DUP1 DUP6 MSTORE PUSH2 0x57F JUMP JUMPDEST ADD SWAP5 PUSH1 0x20 SWAP6 CALLDATASIZE DUP8 DUP6 ADD CALLDATACOPY DUP3 SWAP6 PUSH1 0x0 JUMPDEST DUP6 DUP2 LT PUSH2 0x174E JUMPI POP POP POP POP POP POP SWAP1 SWAP2 POP JUMP JUMPDEST DUP1 PUSH20 0xFFFFFFFFFFFFFFFFFFFFFFFFFFFFFFFFFFFFFFFF PUSH2 0x1770 PUSH1 0x1 SWAP4 DUP13 PUSH2 0x1634 JUMP JUMPDEST MLOAD AND PUSH1 0x0 MSTORE PUSH1 0x0 DUP4 MSTORE DUP5 PUSH1 0x0 KECCAK256 PUSH2 0x1787 DUP3 DUP7 PUSH2 0x1634 JUMP JUMPDEST MLOAD PUSH1 0x0 MSTORE DUP4 MSTORE DUP5 PUSH1 0x0 KECCAK256 SLOAD PUSH2 0x179C DUP3 DUP9 PUSH2 0x1634 JUMP JUMPDEST MSTORE ADD PUSH2 0x173C JUMP JUMPDEST PUSH1 0x1 SWAP1 PUSH32 0xFFFFFFFFFFFFFFFFFFFFFFFFFFFFFFFFFFFFFFFFFFFFFFFFFFFFFFFFFFFFFFFF DUP2 EQ PUSH2 0x144A JUMPI ADD SWAP1 JUMP JUMPDEST SWAP1 PUSH1 0x1 DUP3 DUP2 SHR SWAP3 AND DUP1 ISZERO PUSH2 0x181A JUMPI JUMPDEST PUSH1 0x20 DUP4 LT EQ PUSH2 0x17EB JUMPI JUMP JUMPDEST PUSH32 0x4E487B7100000000000000000000000000000000000000000000000000000000 PUSH1 0x0 MSTORE PUSH1 0x22 PUSH1 0x4 MSTORE PUSH1 0x24 PUSH1 0x0 REVERT JUMPDEST SWAP2 PUSH1 0x7F AND SWAP2 PUSH2 0x17E0 JUMP JUMPDEST PUSH1 0x1F DUP2 GT PUSH2 0x1830 JUMPI POP POP JUMP JUMPDEST PUSH1 0x0 SWAP1 PUSH1 0x4 DUP3 MSTORE PUSH32 0x8A35ACFBC15FF81A39AE7D344FD709F28E8600B4AA8C65C6B64BFE7FE36BD19B SWAP1 PUSH1 0x20 PUSH1 0x1F DUP6 ADD PUSH1 0x5 SHR DUP4 ADD SWAP5 LT PUSH2 0x188B JUMPI JUMPDEST PUSH1 0x1F ADD PUSH1 0x5 SHR ADD SWAP2 JUMPDEST DUP3 DUP2 LT PUSH2 0x1880 JUMPI POP POP POP JUMP JUMPDEST DUP2 DUP2 SSTORE PUSH1 0x1 ADD PUSH2 0x1874 JUMP JUMPDEST SWAP1 SWAP3 POP DUP3 SWAP1 PUSH2 0x186B JUMP JUMPDEST PUSH1 0x4 SLOAD PUSH1 0x0 SWAP3 SWAP2 PUSH2 0x18A5 DUP3 PUSH2 0x17D1 JUMP JUMPDEST SWAP2 PUSH1 0x1 SWAP1 DUP2 DUP2 AND SWAP1 DUP2 ISZERO PUSH2 0x1911 JUMPI POP PUSH1 0x1 EQ PUSH2 0x18C0 JUMPI POP POP POP JUMP JUMPDEST SWAP1 SWAP2 SWAP3 SWAP4 POP PUSH1 0x4 PUSH1 0x0 MSTORE PUSH32 0x8A35ACFBC15FF81A39AE7D344FD709F28E8600B4AA8C65C6B64BFE7FE36BD19B SWAP1 PUSH1 0x0 SWAP2 JUMPDEST DUP5 DUP4 LT PUSH2 0x18FE JUMPI POP POP POP ADD SWAP1 JUMP JUMPDEST DUP2 DUP2 PUSH1 0x20 SWAP3 SLOAD DUP6 DUP8 ADD MSTORE ADD SWAP3 ADD SWAP2 PUSH2 0x18F0 JUMP JUMPDEST PUSH32 0xFFFFFFFFFFFFFFFFFFFFFFFFFFFFFFFFFFFFFFFFFFFFFFFFFFFFFFFFFFFFFF00 AND DUP4 MSTORE POP POP ADD SWAP2 POP JUMP JUMPDEST SWAP1 PUSH2 0x1452 PUSH1 0x20 SWAP3 DUP3 DUP2 MLOAD SWAP5 DUP6 SWAP3 ADD PUSH2 0x2ED JUMP JUMPDEST SWAP1 PUSH1 0x20 SWAP2 DUP1 MLOAD DUP3 LT ISZERO PUSH2 0x1961 JUMPI ADD ADD SWAP1 JUMP JUMPDEST PUSH2 0x1969 PUSH2 0x1604 JUMP JUMPDEST ADD ADD SWAP1 JUMP JUMPDEST DUP1 ISZERO PUSH2 0x1A4D JUMPI DUP1 PUSH1 0x0 SWAP1 DUP3 DUP3 SWAP4 JUMPDEST PUSH2 0x1A39 JUMPI POP PUSH2 0x198A DUP4 PUSH2 0x604 JUMP JUMPDEST SWAP3 PUSH2 0x1998 PUSH1 0x40 MLOAD SWAP5 DUP6 PUSH2 0x53E JUMP JUMPDEST DUP1 DUP5 MSTORE DUP2 PUSH32 0xFFFFFFFFFFFFFFFFFFFFFFFFFFFFFFFFFFFFFFFFFFFFFFFFFFFFFFFFFFFFFFE0 PUSH2 0x19C6 DUP4 PUSH2 0x604 JUMP JUMPDEST ADD CALLDATASIZE PUSH1 0x20 DUP8 ADD CALLDATACOPY JUMPDEST PUSH2 0x19D8 JUMPI POP POP POP SWAP1 JUMP JUMPDEST PUSH2 0x19E1 SWAP1 PUSH2 0x141C JUMP JUMPDEST SWAP1 PUSH1 0xA SWAP1 PUSH2 0x1A24 PUSH2 0x19FC PUSH2 0x19F6 DUP5 DUP5 MOD PUSH2 0x146D JUMP JUMPDEST PUSH1 0xFF AND SWAP1 JUMP JUMPDEST PUSH1 0xF8 SHL PUSH32 0xFF00000000000000000000000000000000000000000000000000000000000000 AND SWAP1 JUMP JUMPDEST DUP5 BYTE PUSH2 0x1A30 DUP5 DUP8 PUSH2 0x194F JUMP JUMPDEST MSTORE8 DIV SWAP1 DUP2 PUSH2 0x19CE JUMP JUMPDEST SWAP3 PUSH2 0x1A45 PUSH1 0xA SWAP2 PUSH2 0x17A3 JUMP JUMPDEST SWAP4 DIV DUP1 PUSH2 0x197C JUMP JUMPDEST POP PUSH1 0x40 MLOAD PUSH1 0x40 DUP2 ADD DUP2 DUP2 LT PUSH8 0xFFFFFFFFFFFFFFFF DUP3 GT OR PUSH2 0x1A99 JUMPI JUMPDEST PUSH1 0x40 MSTORE PUSH1 0x1 DUP2 MSTORE PUSH32 0x3000000000000000000000000000000000000000000000000000000000000000 PUSH1 0x20 DUP3 ADD MSTORE SWAP1 JUMP JUMPDEST PUSH2 0x1AA1 PUSH2 0x4E5 JUMP JUMPDEST PUSH2 0x1A69 JUMP INVALID LOG2 PUSH5 0x6970667358 0x22 SLT KECCAK256 0xCD TIMESTAMP 0x23 PUSH14 0x5C798FD1B4EFDABF596B6FA618 0x29 0xEA DUP11 0xDA ORIGIN SELFDESTRUCT PUSH32 0xD158FCD18DF36964736F6C634300080E00330000000000000000000000000000 "
        },
        "methodIdentifiers": {
          "balanceOf(address,uint256)": "00fdd58e",
          "balanceOfBatch(address[],uint256[])": "4e1273f4",
          "isApprovedForAll(address,address)": "e985e9c5",
          "mint(address,uint256)": "40c10f19",
          "owner()": "8da5cb5b",
          "renounceOwnership()": "715018a6",
          "safeBatchTransferFrom(address,address,uint256[],uint256[],bytes)": "2eb2c2d6",
          "safeTransferFrom(address,address,uint256,uint256,bytes)": "f242432a",
          "setApprovalForAll(address,bool)": "a22cb465",
          "supportsInterface(bytes4)": "01ffc9a7",
          "totalSupply(uint256)": "bd85b039",
          "transferOwnership(address)": "f2fde38b",
          "updateBaseUri(string)": "39f7e37f",
          "uri(uint256)": "0e89341c"
        }
      }
    }
  }
}