{
  "contracts/StoreFront.sol": {
    "StoreFront": {
      "abi": [
        {
          "inputs": [
            {
              "internalType": "address",
              "name": "_minter",
              "type": "address"
            },
            {
              "internalType": "string",
              "name": "_baseURI",
              "type": "string"
            }
          ],
          "stateMutability": "nonpayable",
          "type": "constructor"
        },
        {
          "anonymous": false,
          "inputs": [
            {
              "indexed": true,
              "internalType": "address",
              "name": "owner",
              "type": "address"
            },
            {
              "indexed": true,
              "internalType": "address",
              "name": "operator",
              "type": "address"
            },
            {
              "indexed": false,
              "internalType": "bool",
              "name": "approved",
              "type": "bool"
            }
          ],
          "name": "ApprovalForAll",
          "type": "event"
        },
        {
          "anonymous": false,
          "inputs": [
            {
              "indexed": true,
              "internalType": "address",
              "name": "previousOwner",
              "type": "address"
            },
            {
              "indexed": true,
              "internalType": "address",
              "name": "newOwner",
              "type": "address"
            }
          ],
          "name": "OwnershipTransferred",
          "type": "event"
        },
        {
          "anonymous": false,
          "inputs": [
            {
              "indexed": true,
              "internalType": "address",
              "name": "operator",
              "type": "address"
            },
            {
              "indexed": true,
              "internalType": "address",
              "name": "from",
              "type": "address"
            },
            {
              "indexed": true,
              "internalType": "address",
              "name": "to",
              "type": "address"
            },
            {
              "indexed": false,
              "internalType": "uint256[]",
              "name": "ids",
              "type": "uint256[]"
            },
            {
              "indexed": false,
              "internalType": "uint256[]",
              "name": "amounts",
              "type": "uint256[]"
            }
          ],
          "name": "TransferBatch",
          "type": "event"
        },
        {
          "anonymous": false,
          "inputs": [
            {
              "indexed": true,
              "internalType": "address",
              "name": "operator",
              "type": "address"
            },
            {
              "indexed": true,
              "internalType": "address",
              "name": "from",
              "type": "address"
            },
            {
              "indexed": true,
              "internalType": "address",
              "name": "to",
              "type": "address"
            },
            {
              "indexed": false,
              "internalType": "uint256",
              "name": "id",
              "type": "uint256"
            },
            {
              "indexed": false,
              "internalType": "uint256",
              "name": "amount",
              "type": "uint256"
            }
          ],
          "name": "TransferSingle",
          "type": "event"
        },
        {
          "anonymous": false,
          "inputs": [
            {
              "indexed": false,
              "internalType": "string",
              "name": "value",
              "type": "string"
            },
            {
              "indexed": true,
              "internalType": "uint256",
              "name": "id",
              "type": "uint256"
            }
          ],
          "name": "URI",
          "type": "event"
        },
        {
          "inputs": [],
          "name": "NAME",
          "outputs": [
            {
              "internalType": "string",
              "name": "",
              "type": "string"
            }
          ],
          "stateMutability": "view",
          "type": "function"
        },
        {
          "inputs": [],
          "name": "VERSION",
          "outputs": [
            {
              "internalType": "string",
              "name": "",
              "type": "string"
            }
          ],
          "stateMutability": "view",
          "type": "function"
        },
        {
          "inputs": [
            {
              "internalType": "address",
              "name": "",
              "type": "address"
            },
            {
              "internalType": "uint256",
              "name": "",
              "type": "uint256"
            }
          ],
          "name": "balanceOf",
          "outputs": [
            {
              "internalType": "uint256",
              "name": "",
              "type": "uint256"
            }
          ],
          "stateMutability": "view",
          "type": "function"
        },
        {
          "inputs": [
            {
              "internalType": "address[]",
              "name": "owners",
              "type": "address[]"
            },
            {
              "internalType": "uint256[]",
              "name": "ids",
              "type": "uint256[]"
            }
          ],
          "name": "balanceOfBatch",
          "outputs": [
            {
              "internalType": "uint256[]",
              "name": "balances",
              "type": "uint256[]"
            }
          ],
          "stateMutability": "view",
          "type": "function"
        },
        {
          "inputs": [
            {
              "internalType": "address",
              "name": "",
              "type": "address"
            },
            {
              "internalType": "address",
              "name": "",
              "type": "address"
            }
          ],
          "name": "isApprovedForAll",
          "outputs": [
            {
              "internalType": "bool",
              "name": "",
              "type": "bool"
            }
          ],
          "stateMutability": "view",
          "type": "function"
        },
        {
          "inputs": [
            {
              "internalType": "address",
              "name": "_to",
              "type": "address"
            },
            {
              "internalType": "uint256",
              "name": "_amount",
              "type": "uint256"
            }
          ],
          "name": "mint",
          "outputs": [],
          "stateMutability": "nonpayable",
          "type": "function"
        },
        {
          "inputs": [
            {
              "internalType": "address",
              "name": "",
              "type": "address"
            }
          ],
          "name": "nonces",
          "outputs": [
            {
              "internalType": "uint256",
              "name": "",
              "type": "uint256"
            }
          ],
          "stateMutability": "view",
          "type": "function"
        },
        {
          "inputs": [],
          "name": "owner",
          "outputs": [
            {
              "internalType": "address",
              "name": "",
              "type": "address"
            }
          ],
          "stateMutability": "view",
          "type": "function"
        },
        {
          "inputs": [
            {
              "internalType": "address",
              "name": "_owner",
              "type": "address"
            },
            {
              "internalType": "address",
              "name": "_operator",
              "type": "address"
            },
            {
              "internalType": "bool",
              "name": "_approved",
              "type": "bool"
            },
            {
              "internalType": "uint256",
              "name": "_deadline",
              "type": "uint256"
            },
            {
              "internalType": "uint8",
              "name": "_v",
              "type": "uint8"
            },
            {
              "internalType": "bytes32",
              "name": "_r",
              "type": "bytes32"
            },
            {
              "internalType": "bytes32",
              "name": "_s",
              "type": "bytes32"
            }
          ],
          "name": "permitAll",
          "outputs": [],
          "stateMutability": "nonpayable",
          "type": "function"
        },
        {
          "inputs": [],
          "name": "renounceOwnership",
          "outputs": [],
          "stateMutability": "nonpayable",
          "type": "function"
        },
        {
          "inputs": [
            {
              "internalType": "address",
              "name": "from",
              "type": "address"
            },
            {
              "internalType": "address",
              "name": "to",
              "type": "address"
            },
            {
              "internalType": "uint256[]",
              "name": "ids",
              "type": "uint256[]"
            },
            {
              "internalType": "uint256[]",
              "name": "amounts",
              "type": "uint256[]"
            },
            {
              "internalType": "bytes",
              "name": "data",
              "type": "bytes"
            }
          ],
          "name": "safeBatchTransferFrom",
          "outputs": [],
          "stateMutability": "nonpayable",
          "type": "function"
        },
        {
          "inputs": [
            {
              "internalType": "address",
              "name": "from",
              "type": "address"
            },
            {
              "internalType": "address",
              "name": "to",
              "type": "address"
            },
            {
              "internalType": "uint256",
              "name": "id",
              "type": "uint256"
            },
            {
              "internalType": "uint256",
              "name": "amount",
              "type": "uint256"
            },
            {
              "internalType": "bytes",
              "name": "data",
              "type": "bytes"
            }
          ],
          "name": "safeTransferFrom",
          "outputs": [],
          "stateMutability": "nonpayable",
          "type": "function"
        },
        {
          "inputs": [
            {
              "internalType": "address",
              "name": "operator",
              "type": "address"
            },
            {
              "internalType": "bool",
              "name": "approved",
              "type": "bool"
            }
          ],
          "name": "setApprovalForAll",
          "outputs": [],
          "stateMutability": "nonpayable",
          "type": "function"
        },
        {
          "inputs": [
            {
              "internalType": "bytes4",
              "name": "interfaceId",
              "type": "bytes4"
            }
          ],
          "name": "supportsInterface",
          "outputs": [
            {
              "internalType": "bool",
              "name": "",
              "type": "bool"
            }
          ],
          "stateMutability": "pure",
          "type": "function"
        },
        {
          "inputs": [
            {
              "internalType": "uint256",
              "name": "",
              "type": "uint256"
            }
          ],
          "name": "totalSupply",
          "outputs": [
            {
              "internalType": "uint256",
              "name": "",
              "type": "uint256"
            }
          ],
          "stateMutability": "view",
          "type": "function"
        },
        {
          "inputs": [
            {
              "internalType": "address",
              "name": "newOwner",
              "type": "address"
            }
          ],
          "name": "transferOwnership",
          "outputs": [],
          "stateMutability": "nonpayable",
          "type": "function"
        },
        {
          "inputs": [
            {
              "internalType": "string",
              "name": "base",
              "type": "string"
            }
          ],
          "name": "updateBaseUri",
          "outputs": [],
          "stateMutability": "nonpayable",
          "type": "function"
        },
        {
          "inputs": [
            {
              "internalType": "uint256",
              "name": "id",
              "type": "uint256"
            }
          ],
          "name": "uri",
          "outputs": [
            {
              "internalType": "string",
              "name": "",
              "type": "string"
            }
          ],
          "stateMutability": "view",
          "type": "function"
        }
      ],
      "evm": {
        "bytecode": {
          "linkReferences": {},
          "object": "608060405234620000ed5762002319803803806200001d8162000119565b9283398101604082820312620000ed5781516001600160a01b0381168103620000ed5760208381015190936001600160401b039190828211620000ed570183601f82011215620000ed578051918211620000f2575b62000086601f8301601f1916860162000119565b93828552858383010111620000ed57936000945b828610620000d7575081620000b89511620000c8575b5050620001e4565b604051611fdd90816200033c8239f35b600091840101523880620000b0565b858101820151858701830152948101946200009a565b600080fd5b620000fc62000102565b62000072565b50634e487b7160e01b600052604160045260246000fd5b6040519190601f01601f191682016001600160401b038111838210176200013f57604052565b6200014962000102565b604052565b90600182811c9216801562000180575b60208310146200016a57565b634e487b7160e01b600052602260045260246000fd5b91607f16916200015e565b601f811162000198575050565b6000906005825260208220906020601f850160051c83019410620001d9575b601f0160051c01915b828110620001cd57505050565b818155600101620001c0565b9092508290620001b7565b91909160025460018060a01b031991338383161760025560018060a01b0391823391167f8be0079c531659141344cd1fd0a4f28419497f9722a3daafe3b4186f6b6457e06000604051a360068054909316911617905581516001600160401b0381116200032b575b62000264816200025e6005546200014e565b6200018b565b602080601f8311600114620002a3575081929360009262000297575b50508160011b916000199060031b1c191617600555565b01519050388062000280565b6005600052601f198316949091907f036b6384b5eca791c62761152d0c79bb0604c104a5fb6f4eb0703f3154bb3db0926000905b87821062000312575050836001959610620002f8575b505050811b01600555565b015160001960f88460031b161c19169055388080620002ed565b80600185968294968601518155019501930190620002d7565b6200033562000102565b6200024c56fe60806040526004361015610013575b600080fd5b60003560e01c8062fdd58e1461017a57806301ffc9a7146101715780630e89341c146101685780632eb2c2d61461015f57806339f7e37f1461015657806340c10f191461014d5780634e1273f414610144578063715018a61461013b5780637ecebe00146101325780638da5cb5b14610129578063a22cb46514610120578063a3f4df7e14610117578063bd85b0391461010e578063cfa8fb4214610105578063e985e9c5146100fc578063f242432a146100f3578063f2fde38b146100ea5763ffa1ad74146100e257600080fd5b61000e611620565b5061000e611515565b5061000e611329565b5061000e6112ac565b5061000e6110ad565b5061000e611080565b5061000e61104f565b5061000e610f3e565b5061000e610efa565b5061000e610eb2565b5061000e610e26565b5061000e610d6b565b5061000e610b81565b5061000e6109db565b5061000e610700565b5061000e6103c9565b5061000e61026a565b5061000e6101ea565b6004359073ffffffffffffffffffffffffffffffffffffffff8216820361000e57565b6024359073ffffffffffffffffffffffffffffffffffffffff8216820361000e57565b359073ffffffffffffffffffffffffffffffffffffffff8216820361000e57565b503461000e57604060031936011261000e5773ffffffffffffffffffffffffffffffffffffffff610219610183565b16600052600060205260406000206024356000526020526020604060002054604051908152f35b7fffffffff0000000000000000000000000000000000000000000000000000000081160361000e57565b503461000e57602060031936011261000e5760207fffffffff000000000000000000000000000000000000000000000000000000006004356102ab81610240565b167f01ffc9a7000000000000000000000000000000000000000000000000000000008114908115610313575b81156102e9575b506040519015158152f35b7f0e89341c00000000000000000000000000000000000000000000000000000000915014386102de565b7fd9b67a2600000000000000000000000000000000000000000000000000000000811491506102d7565b918091926000905b82821061035d575011610356575050565b6000910152565b91508060209183015181860152018291610345565b907fffffffffffffffffffffffffffffffffffffffffffffffffffffffffffffffe0601f6020936103ae8151809281875287808801910161033d565b0116010190565b9060206103c6928181520190610372565b90565b503461000e5760208060031936011261000e576005546103e881611b2d565b600090156104595750506104176104496104559261041d61040a600435611cca565b6040519485938401611bf1565b90611c98565b037fffffffffffffffffffffffffffffffffffffffffffffffffffffffffffffffe081018352826105aa565b604051918291826103b5565b0390f35b909160405191809361046a81611b2d565b808552916001918083169081156104f5575060011461049c575b50505050610497816104559303826105aa565b610449565b929450600583527f036b6384b5eca791c62761152d0c79bb0604c104a5fb6f4eb0703f3154bb3db05b8284106104e2575050508161045593610497928201019338610484565b80548585018701529285019281016104c5565b9250505061045594507fffffffffffffffffffffffffffffffffffffffffffffffffffffffffffffff009150169082015261049781604081019338610484565b507f4e487b7100000000000000000000000000000000000000000000000000000000600052604160045260246000fd5b6020810190811067ffffffffffffffff82111761058157604052565b610589610535565b604052565b6040810190811067ffffffffffffffff82111761058157604052565b90601f7fffffffffffffffffffffffffffffffffffffffffffffffffffffffffffffffe0910116810190811067ffffffffffffffff82111761058157604052565b60209067ffffffffffffffff8111610605575b60051b0190565b61060d610535565b6105fe565b81601f8201121561000e57803591610629836105eb565b9261063760405194856105aa565b808452602092838086019260051b82010192831161000e578301905b828210610661575050505090565b81358152908301908301610653565b7fffffffffffffffffffffffffffffffffffffffffffffffffffffffffffffffe0601f60209267ffffffffffffffff81116106ac575b01160190565b6106b4610535565b6106a6565b81601f8201121561000e578035906106d082610670565b926106de60405194856105aa565b8284526020838301011161000e57816000926020809301838601378301015290565b503461000e5760a060031936011261000e5761071a610183565b6107226101a6565b9067ffffffffffffffff9060443582811161000e57610745903690600401610612565b60643583811161000e5761075d903690600401610612565b9260843590811161000e576107769036906004016106b9565b815193610785815186146118fb565b73ffffffffffffffffffffffffffffffffffffffff808516958633148015610973575b6107b190611711565b60005b8181106108cc5750509561081096811680966040517f4a39dc06d4c0dbc64b70af90fd698a233a518aa5d07e595d983b8c0526c8f7fb3391806107f8888b836119b2565b0390a4600093903b6108125750505050501515611896565b005b917fffffffff0000000000000000000000000000000000000000000000000000000094956020928561087795604051968795869485937fbc197c81000000000000000000000000000000000000000000000000000000009d8e865233600487016119d7565b03925af19182156108bf575b91610891575b501614611896565b6108b2915060203d81116108b8575b6108aa81836105aa565b8101906117f2565b38610889565b503d6108a0565b6108c7611889565b610883565b808761096b610963836109218e6109308b6109218f6108f060019c6108f992611990565b51968793611990565b519873ffffffffffffffffffffffffffffffffffffffff166000526000602052604060002090565b90600052602052604060002090565b61093b8782546117a6565b905573ffffffffffffffffffffffffffffffffffffffff166000526000602052604060002090565b9182546117da565b9055016107b4565b506107b16109d46109cd336109a88a73ffffffffffffffffffffffffffffffffffffffff166000526001602052604060002090565b9073ffffffffffffffffffffffffffffffffffffffff16600052602052604060002090565b5460ff1690565b90506107a8565b503461000e5760208060031936011261000e5767ffffffffffffffff60043581811161000e573660238201121561000e57806004013591821161000e576024903682848301011161000e57610a4973ffffffffffffffffffffffffffffffffffffffff60025416331461163d565b610a5d83610a58600554611b2d565b611b80565b600093601f8411600114610ab95750928293600093610aac575b5050507fffffffffffffffffffffffffffffffffffffffffffffffffffffffffffffffff8260011b9260031b1c191617600555005b0101359050388080610a77565b917fffffffffffffffffffffffffffffffffffffffffffffffffffffffffffffffe0841694610b0a60056000527f036b6384b5eca791c62761152d0c79bb0604c104a5fb6f4eb0703f3154bb3db090565b9381905b878210610b675750508460019610610b2d575b50505050811b01600555005b7fffffffffffffffffffffffffffffffffffffffffffffffffffffffffffffffff60f88660031b161c199201013516905538808080610b21565b806001849786839596890101358155019601920190610b0e565b503461000e57604060031936011261000e57610b9b610183565b60243573ffffffffffffffffffffffffffffffffffffffff918260065416330361000e57610c6c9060075460405194610bd386610565565b6000958691828252610c09846109218773ffffffffffffffffffffffffffffffffffffffff166000526000602052604060002090565b610c148882546117da565b905584169384836040517fc3d58168c5ae7397731d063d5bbf3d657854427343f4c083240f7aacaa2d0f62339180610c5a8d8b8360209093929193604081019481520152565b0390a43b610c9d575050501515611896565b610c96610963600754610c86610c8182611aff565b600755565b6000526004602052604060002090565b9055604051f35b610cff7fffffffff0000000000000000000000000000000000000000000000000000000093946020926040519485809481938c7ff23a6e61000000000000000000000000000000000000000000000000000000009b8c85523360048601611807565b03925af1908115610d19575b869161089157501614611896565b610d21611889565b610d0b565b90815180825260208080930193019160005b828110610d46575050505090565b835185529381019392810192600101610d38565b9060206103c6928181520190610d26565b503461000e57604060031936011261000e5760043567ffffffffffffffff80821161000e573660238301121561000e578160040135610da9816105eb565b92610db760405194856105aa565b81845260209160248386019160051b8301019136831161000e57602401905b828210610e0f578560243586811161000e5761045591610dfd610e03923690600401610612565b90611a33565b60405191829182610d5a565b838091610e1b846101c9565b815201910190610dd6565b503461000e57600080600319360112610eaf576002547fffffffffffffffffffffffff000000000000000000000000000000000000000073ffffffffffffffffffffffffffffffffffffffff821691610e8033841461163d565b1660025581604051917f8be0079c531659141344cd1fd0a4f28419497f9722a3daafe3b4186f6b6457e08284a3f35b80fd5b503461000e57602060031936011261000e5773ffffffffffffffffffffffffffffffffffffffff610ee1610183565b1660005260036020526020604060002054604051908152f35b503461000e57600060031936011261000e57602073ffffffffffffffffffffffffffffffffffffffff60025416604051908152f35b60443590811515820361000e57565b503461000e57604060031936011261000e57610f58610183565b6024358015159182820361000e57610fe673ffffffffffffffffffffffffffffffffffffffff92336000526001602052610fb68360406000209073ffffffffffffffffffffffffffffffffffffffff16600052602052604060002090565b9060ff7fffffffffffffffffffffffffffffffffffffffffffffffffffffffffffffff0083541691151516179055565b60405192835216907f17307eab39ab6107e8899845ad3d59bd9653f200f220920489ca2b5937696c3160203392a3005b604051906110238261058e565b600a82527f53544f524546524f4e54000000000000000000000000000000000000000000006020830152565b503461000e57600060031936011261000e5761045561106c611016565b604051918291602083526020830190610372565b503461000e57602060031936011261000e5760043560005260046020526020604060002054604051908152f35b503461000e5760e060031936011261000e576110c7610183565b6110cf6101a6565b6110d7610f2f565b9060843560643560ff8216820361000e5780421161124d5760209161111061110360009387878a611f01565b61110b611e14565b611ea6565b6040805191825260ff92909216602082015260a4359181019190915260c435606082015281805260809060015afa15611240575b73ffffffffffffffffffffffffffffffffffffffff80600051168015908115611233575b506111d457816111c184610fb67f17307eab39ab6107e8899845ad3d59bd9653f200f220920489ca2b5937696c31956109a88973ffffffffffffffffffffffffffffffffffffffff166000526001602052604060002090565b60405193151584528116931691602090a3005b6040517f08c379a000000000000000000000000000000000000000000000000000000000815260206004820152600a60248201527f494e56414c4944534947000000000000000000000000000000000000000000006044820152606490fd5b9050818516141538611168565b611248611889565b611144565b6040517f08c379a000000000000000000000000000000000000000000000000000000000815260206004820152600b60248201527f53494720455850495245440000000000000000000000000000000000000000006044820152606490fd5b503461000e57604060031936011261000e57602060ff61131d6112cd610183565b73ffffffffffffffffffffffffffffffffffffffff6112ea6101a6565b91166000526001845260406000209073ffffffffffffffffffffffffffffffffffffffff16600052602052604060002090565b54166040519015158152f35b503461000e5760a060031936011261000e57611343610183565b61134b6101a6565b6084359160443560643567ffffffffffffffff851161000e576113756108109536906004016106b9565b9073ffffffffffffffffffffffffffffffffffffffff948585169586331480156114d9575b6113a390611711565b6113d1856109218873ffffffffffffffffffffffffffffffffffffffff166000526000602052604060002090565b6113dc8482546117a6565b905561140c856109218473ffffffffffffffffffffffffffffffffffffffff166000526000602052604060002090565b6114178482546117da565b9055811680966040517fc3d58168c5ae7397731d063d5bbf3d657854427343f4c083240f7aacaa2d0f6233918061145c888b8360209093929193604081019481520152565b0390a4600093903b6114745750505050501515611896565b917fffffffff0000000000000000000000000000000000000000000000000000000094956020928561087795604051968795869485937ff23a6e61000000000000000000000000000000000000000000000000000000009d8e86523360048701611847565b506113a361150e6109cd336109a88a73ffffffffffffffffffffffffffffffffffffffff166000526001602052604060002090565b905061139a565b503461000e57602060031936011261000e5761152f610183565b73ffffffffffffffffffffffffffffffffffffffff6115538160025416331461163d565b81161561156357610810906116a2565b60846040517f08c379a000000000000000000000000000000000000000000000000000000000815260206004820152602660248201527f4f776e61626c653a206e6577206f776e657220697320746865207a65726f206160448201527f64647265737300000000000000000000000000000000000000000000000000006064820152fd5b604051906115f48261058e565b600182527f31000000000000000000000000000000000000000000000000000000000000006020830152565b503461000e57600060031936011261000e5761045561106c6115e7565b1561164457565b60646040517f08c379a000000000000000000000000000000000000000000000000000000000815260206004820152602060248201527f4f776e61626c653a2063616c6c6572206973206e6f7420746865206f776e65726044820152fd5b6002549073ffffffffffffffffffffffffffffffffffffffff80911691827fffffffffffffffffffffffff0000000000000000000000000000000000000000821617600255167f8be0079c531659141344cd1fd0a4f28419497f9722a3daafe3b4186f6b6457e06000604051a3565b1561171857565b60646040517f08c379a000000000000000000000000000000000000000000000000000000000815260206004820152600e60248201527f4e4f545f415554484f52495a45440000000000000000000000000000000000006044820152fd5b507f4e487b7100000000000000000000000000000000000000000000000000000000600052601160045260246000fd5b8181106117b1570390565b6117b9611776565b0390565b80196030116117cd575b60300190565b6117d5611776565b6117c7565b811981116117e6570190565b6117ee611776565b0190565b9081602091031261000e57516103c681610240565b909260a09273ffffffffffffffffffffffffffffffffffffffff6103c6969516835260006020840152604083015260608201528160808201520190610372565b91926103c695949160a09473ffffffffffffffffffffffffffffffffffffffff8092168552166020840152604083015260608201528160808201520190610372565b506040513d6000823e3d90fd5b1561189d57565b60646040517f08c379a000000000000000000000000000000000000000000000000000000000815260206004820152601060248201527f554e534146455f524543495049454e54000000000000000000000000000000006044820152fd5b1561190257565b60646040517f08c379a000000000000000000000000000000000000000000000000000000000815260206004820152600f60248201527f4c454e4754485f4d49534d4154434800000000000000000000000000000000006044820152fd5b507f4e487b7100000000000000000000000000000000000000000000000000000000600052603260045260246000fd5b60209181518110156119a5575b60051b010190565b6119ad611960565b61199d565b90916119c96103c693604084526040840190610d26565b916020818403910152610d26565b93906103c69593611a1791611a259473ffffffffffffffffffffffffffffffffffffffff809216885216602087015260a0604087015260a0860190610d26565b908482036060860152610d26565b916080818403910152610372565b918251611a42835182146118fb565b8351611a4d816105eb565b907fffffffffffffffffffffffffffffffffffffffffffffffffffffffffffffffe0611a89604092611a81845195866105aa565b8085526105eb565b01946020953687850137829560005b858110611aaa57505050505050909150565b8073ffffffffffffffffffffffffffffffffffffffff611acc6001938c611990565b51166000526000835284600020611ae38286611990565b5160005283528460002054611af88288611990565b5201611a98565b6001907fffffffffffffffffffffffffffffffffffffffffffffffffffffffffffffffff81146117e6570190565b90600182811c92168015611b76575b6020831014611b4757565b7f4e487b7100000000000000000000000000000000000000000000000000000000600052602260045260246000fd5b91607f1691611b3c565b601f8111611b8c575050565b600090600582527f036b6384b5eca791c62761152d0c79bb0604c104a5fb6f4eb0703f3154bb3db0906020601f850160051c83019410611be7575b601f0160051c01915b828110611bdc57505050565b818155600101611bd0565b9092508290611bc7565b60055460009291611c0182611b2d565b91600190818116908115611c6d5750600114611c1c57505050565b909192935060056000527f036b6384b5eca791c62761152d0c79bb0604c104a5fb6f4eb0703f3154bb3db0906000915b848310611c5a575050500190565b8181602092548587015201920191611c4c565b7fffffffffffffffffffffffffffffffffffffffffffffffffffffffffffffff001683525050019150565b906117ee6020928281519485920161033d565b906020918051821015611cbd57010190565b611cc5611960565b010190565b8015611dda57806000908282935b611dc65750611ce683610670565b92611cf460405194856105aa565b808452817fffffffffffffffffffffffffffffffffffffffffffffffffffffffffffffffe0611d2283610670565b013660208701375b611d345750505090565b8060017fffffffffffffffffffffffffffffffffffffffffffffffffffffffffffffffff9210611db9575b018091600a91611db0611da7611d7f611d798686066117bd565b60ff1690565b60f81b7fff000000000000000000000000000000000000000000000000000000000000001690565b861a9187611cab565b53049081611d2a565b611dc1611776565b611d5f565b92611dd2600a91611aff565b930480611cd8565b50604051611de78161058e565b600181527f3000000000000000000000000000000000000000000000000000000000000000602082015290565b611e1c611016565b60208151910120611e2b6115e7565b602081519101206040519060208201927f8b73c3c69bb8fe3d512ecc4cf759cc79239f7b179b0ffacaa9a75d522b39400f8452604083015260608201524660808201523060a082015260a0815260c0810181811067ffffffffffffffff821117611e99575b60405251902090565b611ea1610535565b611e90565b906040519060208201927f1901000000000000000000000000000000000000000000000000000000000000845260228301526042820152604281526080810181811067ffffffffffffffff821117611e995760405251902090565b9290919273ffffffffffffffffffffffffffffffffffffffff80911693846000526003602052604060002091825492611f3984611aff565b90556040519460208601967f200d2483757e19728fc8a3511298158c1b74dd131c7be00c4904e11665b42cd1885260408701521660608501521515608084015260a083015260c082015260c0815260e0810181811067ffffffffffffffff821117611e99576040525190209056fea2646970667358221220816f6fcbd8773af062bbf61161f04cc5d3dc5cfbe4e57a400b6a21336c62d8ed64736f6c634300080e0033",
          "opcodes": "PUSH1 0x80 PUSH1 0x40 MSTORE CALLVALUE PUSH3 0xED JUMPI PUSH3 0x2319 DUP1 CODESIZE SUB DUP1 PUSH3 0x1D DUP2 PUSH3 0x119 JUMP JUMPDEST SWAP3 DUP4 CODECOPY DUP2 ADD PUSH1 0x40 DUP3 DUP3 SUB SLT PUSH3 0xED JUMPI DUP2 MLOAD PUSH1 0x1 PUSH1 0x1 PUSH1 0xA0 SHL SUB DUP2 AND DUP2 SUB PUSH3 0xED JUMPI PUSH1 0x20 DUP4 DUP2 ADD MLOAD SWAP1 SWAP4 PUSH1 0x1 PUSH1 0x1 PUSH1 0x40 SHL SUB SWAP2 SWAP1 DUP3 DUP3 GT PUSH3 0xED JUMPI ADD DUP4 PUSH1 0x1F DUP3 ADD SLT ISZERO PUSH3 0xED JUMPI DUP1 MLOAD SWAP2 DUP3 GT PUSH3 0xF2 JUMPI JUMPDEST PUSH3 0x86 PUSH1 0x1F DUP4 ADD PUSH1 0x1F NOT AND DUP7 ADD PUSH3 0x119 JUMP JUMPDEST SWAP4 DUP3 DUP6 MSTORE DUP6 DUP4 DUP4 ADD ADD GT PUSH3 0xED JUMPI SWAP4 PUSH1 0x0 SWAP5 JUMPDEST DUP3 DUP7 LT PUSH3 0xD7 JUMPI POP DUP2 PUSH3 0xB8 SWAP6 GT PUSH3 0xC8 JUMPI JUMPDEST POP POP PUSH3 0x1E4 JUMP JUMPDEST PUSH1 0x40 MLOAD PUSH2 0x1FDD SWAP1 DUP2 PUSH3 0x33C DUP3 CODECOPY RETURN JUMPDEST PUSH1 0x0 SWAP2 DUP5 ADD ADD MSTORE CODESIZE DUP1 PUSH3 0xB0 JUMP JUMPDEST DUP6 DUP2 ADD DUP3 ADD MLOAD DUP6 DUP8 ADD DUP4 ADD MSTORE SWAP5 DUP2 ADD SWAP5 PUSH3 0x9A JUMP JUMPDEST PUSH1 0x0 DUP1 REVERT JUMPDEST PUSH3 0xFC PUSH3 0x102 JUMP JUMPDEST PUSH3 0x72 JUMP JUMPDEST POP PUSH4 0x4E487B71 PUSH1 0xE0 SHL PUSH1 0x0 MSTORE PUSH1 0x41 PUSH1 0x4 MSTORE PUSH1 0x24 PUSH1 0x0 REVERT JUMPDEST PUSH1 0x40 MLOAD SWAP2 SWAP1 PUSH1 0x1F ADD PUSH1 0x1F NOT AND DUP3 ADD PUSH1 0x1 PUSH1 0x1 PUSH1 0x40 SHL SUB DUP2 GT DUP4 DUP3 LT OR PUSH3 0x13F JUMPI PUSH1 0x40 MSTORE JUMP JUMPDEST PUSH3 0x149 PUSH3 0x102 JUMP JUMPDEST PUSH1 0x40 MSTORE JUMP JUMPDEST SWAP1 PUSH1 0x1 DUP3 DUP2 SHR SWAP3 AND DUP1 ISZERO PUSH3 0x180 JUMPI JUMPDEST PUSH1 0x20 DUP4 LT EQ PUSH3 0x16A JUMPI JUMP JUMPDEST PUSH4 0x4E487B71 PUSH1 0xE0 SHL PUSH1 0x0 MSTORE PUSH1 0x22 PUSH1 0x4 MSTORE PUSH1 0x24 PUSH1 0x0 REVERT JUMPDEST SWAP2 PUSH1 0x7F AND SWAP2 PUSH3 0x15E JUMP JUMPDEST PUSH1 0x1F DUP2 GT PUSH3 0x198 JUMPI POP POP JUMP JUMPDEST PUSH1 0x0 SWAP1 PUSH1 0x5 DUP3 MSTORE PUSH1 0x20 DUP3 KECCAK256 SWAP1 PUSH1 0x20 PUSH1 0x1F DUP6 ADD PUSH1 0x5 SHR DUP4 ADD SWAP5 LT PUSH3 0x1D9 JUMPI JUMPDEST PUSH1 0x1F ADD PUSH1 0x5 SHR ADD SWAP2 JUMPDEST DUP3 DUP2 LT PUSH3 0x1CD JUMPI POP POP POP JUMP JUMPDEST DUP2 DUP2 SSTORE PUSH1 0x1 ADD PUSH3 0x1C0 JUMP JUMPDEST SWAP1 SWAP3 POP DUP3 SWAP1 PUSH3 0x1B7 JUMP JUMPDEST SWAP2 SWAP1 SWAP2 PUSH1 0x2 SLOAD PUSH1 0x1 DUP1 PUSH1 0xA0 SHL SUB NOT SWAP2 CALLER DUP4 DUP4 AND OR PUSH1 0x2 SSTORE PUSH1 0x1 DUP1 PUSH1 0xA0 SHL SUB SWAP2 DUP3 CALLER SWAP2 AND PUSH32 0x8BE0079C531659141344CD1FD0A4F28419497F9722A3DAAFE3B4186F6B6457E0 PUSH1 0x0 PUSH1 0x40 MLOAD LOG3 PUSH1 0x6 DUP1 SLOAD SWAP1 SWAP4 AND SWAP2 AND OR SWAP1 SSTORE DUP2 MLOAD PUSH1 0x1 PUSH1 0x1 PUSH1 0x40 SHL SUB DUP2 GT PUSH3 0x32B JUMPI JUMPDEST PUSH3 0x264 DUP2 PUSH3 0x25E PUSH1 0x5 SLOAD PUSH3 0x14E JUMP JUMPDEST PUSH3 0x18B JUMP JUMPDEST PUSH1 0x20 DUP1 PUSH1 0x1F DUP4 GT PUSH1 0x1 EQ PUSH3 0x2A3 JUMPI POP DUP2 SWAP3 SWAP4 PUSH1 0x0 SWAP3 PUSH3 0x297 JUMPI JUMPDEST POP POP DUP2 PUSH1 0x1 SHL SWAP2 PUSH1 0x0 NOT SWAP1 PUSH1 0x3 SHL SHR NOT AND OR PUSH1 0x5 SSTORE JUMP JUMPDEST ADD MLOAD SWAP1 POP CODESIZE DUP1 PUSH3 0x280 JUMP JUMPDEST PUSH1 0x5 PUSH1 0x0 MSTORE PUSH1 0x1F NOT DUP4 AND SWAP5 SWAP1 SWAP2 SWAP1 PUSH32 0x36B6384B5ECA791C62761152D0C79BB0604C104A5FB6F4EB0703F3154BB3DB0 SWAP3 PUSH1 0x0 SWAP1 JUMPDEST DUP8 DUP3 LT PUSH3 0x312 JUMPI POP POP DUP4 PUSH1 0x1 SWAP6 SWAP7 LT PUSH3 0x2F8 JUMPI JUMPDEST POP POP POP DUP2 SHL ADD PUSH1 0x5 SSTORE JUMP JUMPDEST ADD MLOAD PUSH1 0x0 NOT PUSH1 0xF8 DUP5 PUSH1 0x3 SHL AND SHR NOT AND SWAP1 SSTORE CODESIZE DUP1 DUP1 PUSH3 0x2ED JUMP JUMPDEST DUP1 PUSH1 0x1 DUP6 SWAP7 DUP3 SWAP5 SWAP7 DUP7 ADD MLOAD DUP2 SSTORE ADD SWAP6 ADD SWAP4 ADD SWAP1 PUSH3 0x2D7 JUMP JUMPDEST PUSH3 0x335 PUSH3 0x102 JUMP JUMPDEST PUSH3 0x24C JUMP INVALID PUSH1 0x80 PUSH1 0x40 MSTORE PUSH1 0x4 CALLDATASIZE LT ISZERO PUSH2 0x13 JUMPI JUMPDEST PUSH1 0x0 DUP1 REVERT JUMPDEST PUSH1 0x0 CALLDATALOAD PUSH1 0xE0 SHR DUP1 PUSH3 0xFDD58E EQ PUSH2 0x17A JUMPI DUP1 PUSH4 0x1FFC9A7 EQ PUSH2 0x171 JUMPI DUP1 PUSH4 0xE89341C EQ PUSH2 0x168 JUMPI DUP1 PUSH4 0x2EB2C2D6 EQ PUSH2 0x15F JUMPI DUP1 PUSH4 0x39F7E37F EQ PUSH2 0x156 JUMPI DUP1 PUSH4 0x40C10F19 EQ PUSH2 0x14D JUMPI DUP1 PUSH4 0x4E1273F4 EQ PUSH2 0x144 JUMPI DUP1 PUSH4 0x715018A6 EQ PUSH2 0x13B JUMPI DUP1 PUSH4 0x7ECEBE00 EQ PUSH2 0x132 JUMPI DUP1 PUSH4 0x8DA5CB5B EQ PUSH2 0x129 JUMPI DUP1 PUSH4 0xA22CB465 EQ PUSH2 0x120 JUMPI DUP1 PUSH4 0xA3F4DF7E EQ PUSH2 0x117 JUMPI DUP1 PUSH4 0xBD85B039 EQ PUSH2 0x10E JUMPI DUP1 PUSH4 0xCFA8FB42 EQ PUSH2 0x105 JUMPI DUP1 PUSH4 0xE985E9C5 EQ PUSH2 0xFC JUMPI DUP1 PUSH4 0xF242432A EQ PUSH2 0xF3 JUMPI DUP1 PUSH4 0xF2FDE38B EQ PUSH2 0xEA JUMPI PUSH4 0xFFA1AD74 EQ PUSH2 0xE2 JUMPI PUSH1 0x0 DUP1 REVERT JUMPDEST PUSH2 0xE PUSH2 0x1620 JUMP JUMPDEST POP PUSH2 0xE PUSH2 0x1515 JUMP JUMPDEST POP PUSH2 0xE PUSH2 0x1329 JUMP JUMPDEST POP PUSH2 0xE PUSH2 0x12AC JUMP JUMPDEST POP PUSH2 0xE PUSH2 0x10AD JUMP JUMPDEST POP PUSH2 0xE PUSH2 0x1080 JUMP JUMPDEST POP PUSH2 0xE PUSH2 0x104F JUMP JUMPDEST POP PUSH2 0xE PUSH2 0xF3E JUMP JUMPDEST POP PUSH2 0xE PUSH2 0xEFA JUMP JUMPDEST POP PUSH2 0xE PUSH2 0xEB2 JUMP JUMPDEST POP PUSH2 0xE PUSH2 0xE26 JUMP JUMPDEST POP PUSH2 0xE PUSH2 0xD6B JUMP JUMPDEST POP PUSH2 0xE PUSH2 0xB81 JUMP JUMPDEST POP PUSH2 0xE PUSH2 0x9DB JUMP JUMPDEST POP PUSH2 0xE PUSH2 0x700 JUMP JUMPDEST POP PUSH2 0xE PUSH2 0x3C9 JUMP JUMPDEST POP PUSH2 0xE PUSH2 0x26A JUMP JUMPDEST POP PUSH2 0xE PUSH2 0x1EA JUMP JUMPDEST PUSH1 0x4 CALLDATALOAD SWAP1 PUSH20 0xFFFFFFFFFFFFFFFFFFFFFFFFFFFFFFFFFFFFFFFF DUP3 AND DUP3 SUB PUSH2 0xE JUMPI JUMP JUMPDEST PUSH1 0x24 CALLDATALOAD SWAP1 PUSH20 0xFFFFFFFFFFFFFFFFFFFFFFFFFFFFFFFFFFFFFFFF DUP3 AND DUP3 SUB PUSH2 0xE JUMPI JUMP JUMPDEST CALLDATALOAD SWAP1 PUSH20 0xFFFFFFFFFFFFFFFFFFFFFFFFFFFFFFFFFFFFFFFF DUP3 AND DUP3 SUB PUSH2 0xE JUMPI JUMP JUMPDEST POP CALLVALUE PUSH2 0xE JUMPI PUSH1 0x40 PUSH1 0x3 NOT CALLDATASIZE ADD SLT PUSH2 0xE JUMPI PUSH20 0xFFFFFFFFFFFFFFFFFFFFFFFFFFFFFFFFFFFFFFFF PUSH2 0x219 PUSH2 0x183 JUMP JUMPDEST AND PUSH1 0x0 MSTORE PUSH1 0x0 PUSH1 0x20 MSTORE PUSH1 0x40 PUSH1 0x0 KECCAK256 PUSH1 0x24 CALLDATALOAD PUSH1 0x0 MSTORE PUSH1 0x20 MSTORE PUSH1 0x20 PUSH1 0x40 PUSH1 0x0 KECCAK256 SLOAD PUSH1 0x40 MLOAD SWAP1 DUP2 MSTORE RETURN JUMPDEST PUSH32 0xFFFFFFFF00000000000000000000000000000000000000000000000000000000 DUP2 AND SUB PUSH2 0xE JUMPI JUMP JUMPDEST POP CALLVALUE PUSH2 0xE JUMPI PUSH1 0x20 PUSH1 0x3 NOT CALLDATASIZE ADD SLT PUSH2 0xE JUMPI PUSH1 0x20 PUSH32 0xFFFFFFFF00000000000000000000000000000000000000000000000000000000 PUSH1 0x4 CALLDATALOAD PUSH2 0x2AB DUP2 PUSH2 0x240 JUMP JUMPDEST AND PUSH32 0x1FFC9A700000000000000000000000000000000000000000000000000000000 DUP2 EQ SWAP1 DUP2 ISZERO PUSH2 0x313 JUMPI JUMPDEST DUP2 ISZERO PUSH2 0x2E9 JUMPI JUMPDEST POP PUSH1 0x40 MLOAD SWAP1 ISZERO ISZERO DUP2 MSTORE RETURN JUMPDEST PUSH32 0xE89341C00000000000000000000000000000000000000000000000000000000 SWAP2 POP EQ CODESIZE PUSH2 0x2DE JUMP JUMPDEST PUSH32 0xD9B67A2600000000000000000000000000000000000000000000000000000000 DUP2 EQ SWAP2 POP PUSH2 0x2D7 JUMP JUMPDEST SWAP2 DUP1 SWAP2 SWAP3 PUSH1 0x0 SWAP1 JUMPDEST DUP3 DUP3 LT PUSH2 0x35D JUMPI POP GT PUSH2 0x356 JUMPI POP POP JUMP JUMPDEST PUSH1 0x0 SWAP2 ADD MSTORE JUMP JUMPDEST SWAP2 POP DUP1 PUSH1 0x20 SWAP2 DUP4 ADD MLOAD DUP2 DUP7 ADD MSTORE ADD DUP3 SWAP2 PUSH2 0x345 JUMP JUMPDEST SWAP1 PUSH32 0xFFFFFFFFFFFFFFFFFFFFFFFFFFFFFFFFFFFFFFFFFFFFFFFFFFFFFFFFFFFFFFE0 PUSH1 0x1F PUSH1 0x20 SWAP4 PUSH2 0x3AE DUP2 MLOAD DUP1 SWAP3 DUP2 DUP8 MSTORE DUP8 DUP1 DUP9 ADD SWAP2 ADD PUSH2 0x33D JUMP JUMPDEST ADD AND ADD ADD SWAP1 JUMP JUMPDEST SWAP1 PUSH1 0x20 PUSH2 0x3C6 SWAP3 DUP2 DUP2 MSTORE ADD SWAP1 PUSH2 0x372 JUMP JUMPDEST SWAP1 JUMP JUMPDEST POP CALLVALUE PUSH2 0xE JUMPI PUSH1 0x20 DUP1 PUSH1 0x3 NOT CALLDATASIZE ADD SLT PUSH2 0xE JUMPI PUSH1 0x5 SLOAD PUSH2 0x3E8 DUP2 PUSH2 0x1B2D JUMP JUMPDEST PUSH1 0x0 SWAP1 ISZERO PUSH2 0x459 JUMPI POP POP PUSH2 0x417 PUSH2 0x449 PUSH2 0x455 SWAP3 PUSH2 0x41D PUSH2 0x40A PUSH1 0x4 CALLDATALOAD PUSH2 0x1CCA JUMP JUMPDEST PUSH1 0x40 MLOAD SWAP5 DUP6 SWAP4 DUP5 ADD PUSH2 0x1BF1 JUMP JUMPDEST SWAP1 PUSH2 0x1C98 JUMP JUMPDEST SUB PUSH32 0xFFFFFFFFFFFFFFFFFFFFFFFFFFFFFFFFFFFFFFFFFFFFFFFFFFFFFFFFFFFFFFE0 DUP2 ADD DUP4 MSTORE DUP3 PUSH2 0x5AA JUMP JUMPDEST PUSH1 0x40 MLOAD SWAP2 DUP3 SWAP2 DUP3 PUSH2 0x3B5 JUMP JUMPDEST SUB SWAP1 RETURN JUMPDEST SWAP1 SWAP2 PUSH1 0x40 MLOAD SWAP2 DUP1 SWAP4 PUSH2 0x46A DUP2 PUSH2 0x1B2D JUMP JUMPDEST DUP1 DUP6 MSTORE SWAP2 PUSH1 0x1 SWAP2 DUP1 DUP4 AND SWAP1 DUP2 ISZERO PUSH2 0x4F5 JUMPI POP PUSH1 0x1 EQ PUSH2 0x49C JUMPI JUMPDEST POP POP POP POP PUSH2 0x497 DUP2 PUSH2 0x455 SWAP4 SUB DUP3 PUSH2 0x5AA JUMP JUMPDEST PUSH2 0x449 JUMP JUMPDEST SWAP3 SWAP5 POP PUSH1 0x5 DUP4 MSTORE PUSH32 0x36B6384B5ECA791C62761152D0C79BB0604C104A5FB6F4EB0703F3154BB3DB0 JUMPDEST DUP3 DUP5 LT PUSH2 0x4E2 JUMPI POP POP POP DUP2 PUSH2 0x455 SWAP4 PUSH2 0x497 SWAP3 DUP3 ADD ADD SWAP4 CODESIZE PUSH2 0x484 JUMP JUMPDEST DUP1 SLOAD DUP6 DUP6 ADD DUP8 ADD MSTORE SWAP3 DUP6 ADD SWAP3 DUP2 ADD PUSH2 0x4C5 JUMP JUMPDEST SWAP3 POP POP POP PUSH2 0x455 SWAP5 POP PUSH32 0xFFFFFFFFFFFFFFFFFFFFFFFFFFFFFFFFFFFFFFFFFFFFFFFFFFFFFFFFFFFFFF00 SWAP2 POP AND SWAP1 DUP3 ADD MSTORE PUSH2 0x497 DUP2 PUSH1 0x40 DUP2 ADD SWAP4 CODESIZE PUSH2 0x484 JUMP JUMPDEST POP PUSH32 0x4E487B7100000000000000000000000000000000000000000000000000000000 PUSH1 0x0 MSTORE PUSH1 0x41 PUSH1 0x4 MSTORE PUSH1 0x24 PUSH1 0x0 REVERT JUMPDEST PUSH1 0x20 DUP2 ADD SWAP1 DUP2 LT PUSH8 0xFFFFFFFFFFFFFFFF DUP3 GT OR PUSH2 0x581 JUMPI PUSH1 0x40 MSTORE JUMP JUMPDEST PUSH2 0x589 PUSH2 0x535 JUMP JUMPDEST PUSH1 0x40 MSTORE JUMP JUMPDEST PUSH1 0x40 DUP2 ADD SWAP1 DUP2 LT PUSH8 0xFFFFFFFFFFFFFFFF DUP3 GT OR PUSH2 0x581 JUMPI PUSH1 0x40 MSTORE JUMP JUMPDEST SWAP1 PUSH1 0x1F PUSH32 0xFFFFFFFFFFFFFFFFFFFFFFFFFFFFFFFFFFFFFFFFFFFFFFFFFFFFFFFFFFFFFFE0 SWAP2 ADD AND DUP2 ADD SWAP1 DUP2 LT PUSH8 0xFFFFFFFFFFFFFFFF DUP3 GT OR PUSH2 0x581 JUMPI PUSH1 0x40 MSTORE JUMP JUMPDEST PUSH1 0x20 SWAP1 PUSH8 0xFFFFFFFFFFFFFFFF DUP2 GT PUSH2 0x605 JUMPI JUMPDEST PUSH1 0x5 SHL ADD SWAP1 JUMP JUMPDEST PUSH2 0x60D PUSH2 0x535 JUMP JUMPDEST PUSH2 0x5FE JUMP JUMPDEST DUP2 PUSH1 0x1F DUP3 ADD SLT ISZERO PUSH2 0xE JUMPI DUP1 CALLDATALOAD SWAP2 PUSH2 0x629 DUP4 PUSH2 0x5EB JUMP JUMPDEST SWAP3 PUSH2 0x637 PUSH1 0x40 MLOAD SWAP5 DUP6 PUSH2 0x5AA JUMP JUMPDEST DUP1 DUP5 MSTORE PUSH1 0x20 SWAP3 DUP4 DUP1 DUP7 ADD SWAP3 PUSH1 0x5 SHL DUP3 ADD ADD SWAP3 DUP4 GT PUSH2 0xE JUMPI DUP4 ADD SWAP1 JUMPDEST DUP3 DUP3 LT PUSH2 0x661 JUMPI POP POP POP POP SWAP1 JUMP JUMPDEST DUP2 CALLDATALOAD DUP2 MSTORE SWAP1 DUP4 ADD SWAP1 DUP4 ADD PUSH2 0x653 JUMP JUMPDEST PUSH32 0xFFFFFFFFFFFFFFFFFFFFFFFFFFFFFFFFFFFFFFFFFFFFFFFFFFFFFFFFFFFFFFE0 PUSH1 0x1F PUSH1 0x20 SWAP3 PUSH8 0xFFFFFFFFFFFFFFFF DUP2 GT PUSH2 0x6AC JUMPI JUMPDEST ADD AND ADD SWAP1 JUMP JUMPDEST PUSH2 0x6B4 PUSH2 0x535 JUMP JUMPDEST PUSH2 0x6A6 JUMP JUMPDEST DUP2 PUSH1 0x1F DUP3 ADD SLT ISZERO PUSH2 0xE JUMPI DUP1 CALLDATALOAD SWAP1 PUSH2 0x6D0 DUP3 PUSH2 0x670 JUMP JUMPDEST SWAP3 PUSH2 0x6DE PUSH1 0x40 MLOAD SWAP5 DUP6 PUSH2 0x5AA JUMP JUMPDEST DUP3 DUP5 MSTORE PUSH1 0x20 DUP4 DUP4 ADD ADD GT PUSH2 0xE JUMPI DUP2 PUSH1 0x0 SWAP3 PUSH1 0x20 DUP1 SWAP4 ADD DUP4 DUP7 ADD CALLDATACOPY DUP4 ADD ADD MSTORE SWAP1 JUMP JUMPDEST POP CALLVALUE PUSH2 0xE JUMPI PUSH1 0xA0 PUSH1 0x3 NOT CALLDATASIZE ADD SLT PUSH2 0xE JUMPI PUSH2 0x71A PUSH2 0x183 JUMP JUMPDEST PUSH2 0x722 PUSH2 0x1A6 JUMP JUMPDEST SWAP1 PUSH8 0xFFFFFFFFFFFFFFFF SWAP1 PUSH1 0x44 CALLDATALOAD DUP3 DUP2 GT PUSH2 0xE JUMPI PUSH2 0x745 SWAP1 CALLDATASIZE SWAP1 PUSH1 0x4 ADD PUSH2 0x612 JUMP JUMPDEST PUSH1 0x64 CALLDATALOAD DUP4 DUP2 GT PUSH2 0xE JUMPI PUSH2 0x75D SWAP1 CALLDATASIZE SWAP1 PUSH1 0x4 ADD PUSH2 0x612 JUMP JUMPDEST SWAP3 PUSH1 0x84 CALLDATALOAD SWAP1 DUP2 GT PUSH2 0xE JUMPI PUSH2 0x776 SWAP1 CALLDATASIZE SWAP1 PUSH1 0x4 ADD PUSH2 0x6B9 JUMP JUMPDEST DUP2 MLOAD SWAP4 PUSH2 0x785 DUP2 MLOAD DUP7 EQ PUSH2 0x18FB JUMP JUMPDEST PUSH20 0xFFFFFFFFFFFFFFFFFFFFFFFFFFFFFFFFFFFFFFFF DUP1 DUP6 AND SWAP6 DUP7 CALLER EQ DUP1 ISZERO PUSH2 0x973 JUMPI JUMPDEST PUSH2 0x7B1 SWAP1 PUSH2 0x1711 JUMP JUMPDEST PUSH1 0x0 JUMPDEST DUP2 DUP2 LT PUSH2 0x8CC JUMPI POP POP SWAP6 PUSH2 0x810 SWAP7 DUP2 AND DUP1 SWAP7 PUSH1 0x40 MLOAD PUSH32 0x4A39DC06D4C0DBC64B70AF90FD698A233A518AA5D07E595D983B8C0526C8F7FB CALLER SWAP2 DUP1 PUSH2 0x7F8 DUP9 DUP12 DUP4 PUSH2 0x19B2 JUMP JUMPDEST SUB SWAP1 LOG4 PUSH1 0x0 SWAP4 SWAP1 EXTCODESIZE PUSH2 0x812 JUMPI POP POP POP POP POP ISZERO ISZERO PUSH2 0x1896 JUMP JUMPDEST STOP JUMPDEST SWAP2 PUSH32 0xFFFFFFFF00000000000000000000000000000000000000000000000000000000 SWAP5 SWAP6 PUSH1 0x20 SWAP3 DUP6 PUSH2 0x877 SWAP6 PUSH1 0x40 MLOAD SWAP7 DUP8 SWAP6 DUP7 SWAP5 DUP6 SWAP4 PUSH32 0xBC197C8100000000000000000000000000000000000000000000000000000000 SWAP14 DUP15 DUP7 MSTORE CALLER PUSH1 0x4 DUP8 ADD PUSH2 0x19D7 JUMP JUMPDEST SUB SWAP3 GAS CALL SWAP2 DUP3 ISZERO PUSH2 0x8BF JUMPI JUMPDEST SWAP2 PUSH2 0x891 JUMPI JUMPDEST POP AND EQ PUSH2 0x1896 JUMP JUMPDEST PUSH2 0x8B2 SWAP2 POP PUSH1 0x20 RETURNDATASIZE DUP2 GT PUSH2 0x8B8 JUMPI JUMPDEST PUSH2 0x8AA DUP2 DUP4 PUSH2 0x5AA JUMP JUMPDEST DUP2 ADD SWAP1 PUSH2 0x17F2 JUMP JUMPDEST CODESIZE PUSH2 0x889 JUMP JUMPDEST POP RETURNDATASIZE PUSH2 0x8A0 JUMP JUMPDEST PUSH2 0x8C7 PUSH2 0x1889 JUMP JUMPDEST PUSH2 0x883 JUMP JUMPDEST DUP1 DUP8 PUSH2 0x96B PUSH2 0x963 DUP4 PUSH2 0x921 DUP15 PUSH2 0x930 DUP12 PUSH2 0x921 DUP16 PUSH2 0x8F0 PUSH1 0x1 SWAP13 PUSH2 0x8F9 SWAP3 PUSH2 0x1990 JUMP JUMPDEST MLOAD SWAP7 DUP8 SWAP4 PUSH2 0x1990 JUMP JUMPDEST MLOAD SWAP9 PUSH20 0xFFFFFFFFFFFFFFFFFFFFFFFFFFFFFFFFFFFFFFFF AND PUSH1 0x0 MSTORE PUSH1 0x0 PUSH1 0x20 MSTORE PUSH1 0x40 PUSH1 0x0 KECCAK256 SWAP1 JUMP JUMPDEST SWAP1 PUSH1 0x0 MSTORE PUSH1 0x20 MSTORE PUSH1 0x40 PUSH1 0x0 KECCAK256 SWAP1 JUMP JUMPDEST PUSH2 0x93B DUP8 DUP3 SLOAD PUSH2 0x17A6 JUMP JUMPDEST SWAP1 SSTORE PUSH20 0xFFFFFFFFFFFFFFFFFFFFFFFFFFFFFFFFFFFFFFFF AND PUSH1 0x0 MSTORE PUSH1 0x0 PUSH1 0x20 MSTORE PUSH1 0x40 PUSH1 0x0 KECCAK256 SWAP1 JUMP JUMPDEST SWAP2 DUP3 SLOAD PUSH2 0x17DA JUMP JUMPDEST SWAP1 SSTORE ADD PUSH2 0x7B4 JUMP JUMPDEST POP PUSH2 0x7B1 PUSH2 0x9D4 PUSH2 0x9CD CALLER PUSH2 0x9A8 DUP11 PUSH20 0xFFFFFFFFFFFFFFFFFFFFFFFFFFFFFFFFFFFFFFFF AND PUSH1 0x0 MSTORE PUSH1 0x1 PUSH1 0x20 MSTORE PUSH1 0x40 PUSH1 0x0 KECCAK256 SWAP1 JUMP JUMPDEST SWAP1 PUSH20 0xFFFFFFFFFFFFFFFFFFFFFFFFFFFFFFFFFFFFFFFF AND PUSH1 0x0 MSTORE PUSH1 0x20 MSTORE PUSH1 0x40 PUSH1 0x0 KECCAK256 SWAP1 JUMP JUMPDEST SLOAD PUSH1 0xFF AND SWAP1 JUMP JUMPDEST SWAP1 POP PUSH2 0x7A8 JUMP JUMPDEST POP CALLVALUE PUSH2 0xE JUMPI PUSH1 0x20 DUP1 PUSH1 0x3 NOT CALLDATASIZE ADD SLT PUSH2 0xE JUMPI PUSH8 0xFFFFFFFFFFFFFFFF PUSH1 0x4 CALLDATALOAD DUP2 DUP2 GT PUSH2 0xE JUMPI CALLDATASIZE PUSH1 0x23 DUP3 ADD SLT ISZERO PUSH2 0xE JUMPI DUP1 PUSH1 0x4 ADD CALLDATALOAD SWAP2 DUP3 GT PUSH2 0xE JUMPI PUSH1 0x24 SWAP1 CALLDATASIZE DUP3 DUP5 DUP4 ADD ADD GT PUSH2 0xE JUMPI PUSH2 0xA49 PUSH20 0xFFFFFFFFFFFFFFFFFFFFFFFFFFFFFFFFFFFFFFFF PUSH1 0x2 SLOAD AND CALLER EQ PUSH2 0x163D JUMP JUMPDEST PUSH2 0xA5D DUP4 PUSH2 0xA58 PUSH1 0x5 SLOAD PUSH2 0x1B2D JUMP JUMPDEST PUSH2 0x1B80 JUMP JUMPDEST PUSH1 0x0 SWAP4 PUSH1 0x1F DUP5 GT PUSH1 0x1 EQ PUSH2 0xAB9 JUMPI POP SWAP3 DUP3 SWAP4 PUSH1 0x0 SWAP4 PUSH2 0xAAC JUMPI JUMPDEST POP POP POP PUSH32 0xFFFFFFFFFFFFFFFFFFFFFFFFFFFFFFFFFFFFFFFFFFFFFFFFFFFFFFFFFFFFFFFF DUP3 PUSH1 0x1 SHL SWAP3 PUSH1 0x3 SHL SHR NOT AND OR PUSH1 0x5 SSTORE STOP JUMPDEST ADD ADD CALLDATALOAD SWAP1 POP CODESIZE DUP1 DUP1 PUSH2 0xA77 JUMP JUMPDEST SWAP2 PUSH32 0xFFFFFFFFFFFFFFFFFFFFFFFFFFFFFFFFFFFFFFFFFFFFFFFFFFFFFFFFFFFFFFE0 DUP5 AND SWAP5 PUSH2 0xB0A PUSH1 0x5 PUSH1 0x0 MSTORE PUSH32 0x36B6384B5ECA791C62761152D0C79BB0604C104A5FB6F4EB0703F3154BB3DB0 SWAP1 JUMP JUMPDEST SWAP4 DUP2 SWAP1 JUMPDEST DUP8 DUP3 LT PUSH2 0xB67 JUMPI POP POP DUP5 PUSH1 0x1 SWAP7 LT PUSH2 0xB2D JUMPI JUMPDEST POP POP POP POP DUP2 SHL ADD PUSH1 0x5 SSTORE STOP JUMPDEST PUSH32 0xFFFFFFFFFFFFFFFFFFFFFFFFFFFFFFFFFFFFFFFFFFFFFFFFFFFFFFFFFFFFFFFF PUSH1 0xF8 DUP7 PUSH1 0x3 SHL AND SHR NOT SWAP3 ADD ADD CALLDATALOAD AND SWAP1 SSTORE CODESIZE DUP1 DUP1 DUP1 PUSH2 0xB21 JUMP JUMPDEST DUP1 PUSH1 0x1 DUP5 SWAP8 DUP7 DUP4 SWAP6 SWAP7 DUP10 ADD ADD CALLDATALOAD DUP2 SSTORE ADD SWAP7 ADD SWAP3 ADD SWAP1 PUSH2 0xB0E JUMP JUMPDEST POP CALLVALUE PUSH2 0xE JUMPI PUSH1 0x40 PUSH1 0x3 NOT CALLDATASIZE ADD SLT PUSH2 0xE JUMPI PUSH2 0xB9B PUSH2 0x183 JUMP JUMPDEST PUSH1 0x24 CALLDATALOAD PUSH20 0xFFFFFFFFFFFFFFFFFFFFFFFFFFFFFFFFFFFFFFFF SWAP2 DUP3 PUSH1 0x6 SLOAD AND CALLER SUB PUSH2 0xE JUMPI PUSH2 0xC6C SWAP1 PUSH1 0x7 SLOAD PUSH1 0x40 MLOAD SWAP5 PUSH2 0xBD3 DUP7 PUSH2 0x565 JUMP JUMPDEST PUSH1 0x0 SWAP6 DUP7 SWAP2 DUP3 DUP3 MSTORE PUSH2 0xC09 DUP5 PUSH2 0x921 DUP8 PUSH20 0xFFFFFFFFFFFFFFFFFFFFFFFFFFFFFFFFFFFFFFFF AND PUSH1 0x0 MSTORE PUSH1 0x0 PUSH1 0x20 MSTORE PUSH1 0x40 PUSH1 0x0 KECCAK256 SWAP1 JUMP JUMPDEST PUSH2 0xC14 DUP9 DUP3 SLOAD PUSH2 0x17DA JUMP JUMPDEST SWAP1 SSTORE DUP5 AND SWAP4 DUP5 DUP4 PUSH1 0x40 MLOAD PUSH32 0xC3D58168C5AE7397731D063D5BBF3D657854427343F4C083240F7AACAA2D0F62 CALLER SWAP2 DUP1 PUSH2 0xC5A DUP14 DUP12 DUP4 PUSH1 0x20 SWAP1 SWAP4 SWAP3 SWAP2 SWAP4 PUSH1 0x40 DUP2 ADD SWAP5 DUP2 MSTORE ADD MSTORE JUMP JUMPDEST SUB SWAP1 LOG4 EXTCODESIZE PUSH2 0xC9D JUMPI POP POP POP ISZERO ISZERO PUSH2 0x1896 JUMP JUMPDEST PUSH2 0xC96 PUSH2 0x963 PUSH1 0x7 SLOAD PUSH2 0xC86 PUSH2 0xC81 DUP3 PUSH2 0x1AFF JUMP JUMPDEST PUSH1 0x7 SSTORE JUMP JUMPDEST PUSH1 0x0 MSTORE PUSH1 0x4 PUSH1 0x20 MSTORE PUSH1 0x40 PUSH1 0x0 KECCAK256 SWAP1 JUMP JUMPDEST SWAP1 SSTORE PUSH1 0x40 MLOAD RETURN JUMPDEST PUSH2 0xCFF PUSH32 0xFFFFFFFF00000000000000000000000000000000000000000000000000000000 SWAP4 SWAP5 PUSH1 0x20 SWAP3 PUSH1 0x40 MLOAD SWAP5 DUP6 DUP1 SWAP5 DUP2 SWAP4 DUP13 PUSH32 0xF23A6E6100000000000000000000000000000000000000000000000000000000 SWAP12 DUP13 DUP6 MSTORE CALLER PUSH1 0x4 DUP7 ADD PUSH2 0x1807 JUMP JUMPDEST SUB SWAP3 GAS CALL SWAP1 DUP2 ISZERO PUSH2 0xD19 JUMPI JUMPDEST DUP7 SWAP2 PUSH2 0x891 JUMPI POP AND EQ PUSH2 0x1896 JUMP JUMPDEST PUSH2 0xD21 PUSH2 0x1889 JUMP JUMPDEST PUSH2 0xD0B JUMP JUMPDEST SWAP1 DUP2 MLOAD DUP1 DUP3 MSTORE PUSH1 0x20 DUP1 DUP1 SWAP4 ADD SWAP4 ADD SWAP2 PUSH1 0x0 JUMPDEST DUP3 DUP2 LT PUSH2 0xD46 JUMPI POP POP POP POP SWAP1 JUMP JUMPDEST DUP4 MLOAD DUP6 MSTORE SWAP4 DUP2 ADD SWAP4 SWAP3 DUP2 ADD SWAP3 PUSH1 0x1 ADD PUSH2 0xD38 JUMP JUMPDEST SWAP1 PUSH1 0x20 PUSH2 0x3C6 SWAP3 DUP2 DUP2 MSTORE ADD SWAP1 PUSH2 0xD26 JUMP JUMPDEST POP CALLVALUE PUSH2 0xE JUMPI PUSH1 0x40 PUSH1 0x3 NOT CALLDATASIZE ADD SLT PUSH2 0xE JUMPI PUSH1 0x4 CALLDATALOAD PUSH8 0xFFFFFFFFFFFFFFFF DUP1 DUP3 GT PUSH2 0xE JUMPI CALLDATASIZE PUSH1 0x23 DUP4 ADD SLT ISZERO PUSH2 0xE JUMPI DUP2 PUSH1 0x4 ADD CALLDATALOAD PUSH2 0xDA9 DUP2 PUSH2 0x5EB JUMP JUMPDEST SWAP3 PUSH2 0xDB7 PUSH1 0x40 MLOAD SWAP5 DUP6 PUSH2 0x5AA JUMP JUMPDEST DUP2 DUP5 MSTORE PUSH1 0x20 SWAP2 PUSH1 0x24 DUP4 DUP7 ADD SWAP2 PUSH1 0x5 SHL DUP4 ADD ADD SWAP2 CALLDATASIZE DUP4 GT PUSH2 0xE JUMPI PUSH1 0x24 ADD SWAP1 JUMPDEST DUP3 DUP3 LT PUSH2 0xE0F JUMPI DUP6 PUSH1 0x24 CALLDATALOAD DUP7 DUP2 GT PUSH2 0xE JUMPI PUSH2 0x455 SWAP2 PUSH2 0xDFD PUSH2 0xE03 SWAP3 CALLDATASIZE SWAP1 PUSH1 0x4 ADD PUSH2 0x612 JUMP JUMPDEST SWAP1 PUSH2 0x1A33 JUMP JUMPDEST PUSH1 0x40 MLOAD SWAP2 DUP3 SWAP2 DUP3 PUSH2 0xD5A JUMP JUMPDEST DUP4 DUP1 SWAP2 PUSH2 0xE1B DUP5 PUSH2 0x1C9 JUMP JUMPDEST DUP2 MSTORE ADD SWAP2 ADD SWAP1 PUSH2 0xDD6 JUMP JUMPDEST POP CALLVALUE PUSH2 0xE JUMPI PUSH1 0x0 DUP1 PUSH1 0x3 NOT CALLDATASIZE ADD SLT PUSH2 0xEAF JUMPI PUSH1 0x2 SLOAD PUSH32 0xFFFFFFFFFFFFFFFFFFFFFFFF0000000000000000000000000000000000000000 PUSH20 0xFFFFFFFFFFFFFFFFFFFFFFFFFFFFFFFFFFFFFFFF DUP3 AND SWAP2 PUSH2 0xE80 CALLER DUP5 EQ PUSH2 0x163D JUMP JUMPDEST AND PUSH1 0x2 SSTORE DUP2 PUSH1 0x40 MLOAD SWAP2 PUSH32 0x8BE0079C531659141344CD1FD0A4F28419497F9722A3DAAFE3B4186F6B6457E0 DUP3 DUP5 LOG3 RETURN JUMPDEST DUP1 REVERT JUMPDEST POP CALLVALUE PUSH2 0xE JUMPI PUSH1 0x20 PUSH1 0x3 NOT CALLDATASIZE ADD SLT PUSH2 0xE JUMPI PUSH20 0xFFFFFFFFFFFFFFFFFFFFFFFFFFFFFFFFFFFFFFFF PUSH2 0xEE1 PUSH2 0x183 JUMP JUMPDEST AND PUSH1 0x0 MSTORE PUSH1 0x3 PUSH1 0x20 MSTORE PUSH1 0x20 PUSH1 0x40 PUSH1 0x0 KECCAK256 SLOAD PUSH1 0x40 MLOAD SWAP1 DUP2 MSTORE RETURN JUMPDEST POP CALLVALUE PUSH2 0xE JUMPI PUSH1 0x0 PUSH1 0x3 NOT CALLDATASIZE ADD SLT PUSH2 0xE JUMPI PUSH1 0x20 PUSH20 0xFFFFFFFFFFFFFFFFFFFFFFFFFFFFFFFFFFFFFFFF PUSH1 0x2 SLOAD AND PUSH1 0x40 MLOAD SWAP1 DUP2 MSTORE RETURN JUMPDEST PUSH1 0x44 CALLDATALOAD SWAP1 DUP2 ISZERO ISZERO DUP3 SUB PUSH2 0xE JUMPI JUMP JUMPDEST POP CALLVALUE PUSH2 0xE JUMPI PUSH1 0x40 PUSH1 0x3 NOT CALLDATASIZE ADD SLT PUSH2 0xE JUMPI PUSH2 0xF58 PUSH2 0x183 JUMP JUMPDEST PUSH1 0x24 CALLDATALOAD DUP1 ISZERO ISZERO SWAP2 DUP3 DUP3 SUB PUSH2 0xE JUMPI PUSH2 0xFE6 PUSH20 0xFFFFFFFFFFFFFFFFFFFFFFFFFFFFFFFFFFFFFFFF SWAP3 CALLER PUSH1 0x0 MSTORE PUSH1 0x1 PUSH1 0x20 MSTORE PUSH2 0xFB6 DUP4 PUSH1 0x40 PUSH1 0x0 KECCAK256 SWAP1 PUSH20 0xFFFFFFFFFFFFFFFFFFFFFFFFFFFFFFFFFFFFFFFF AND PUSH1 0x0 MSTORE PUSH1 0x20 MSTORE PUSH1 0x40 PUSH1 0x0 KECCAK256 SWAP1 JUMP JUMPDEST SWAP1 PUSH1 0xFF PUSH32 0xFFFFFFFFFFFFFFFFFFFFFFFFFFFFFFFFFFFFFFFFFFFFFFFFFFFFFFFFFFFFFF00 DUP4 SLOAD AND SWAP2 ISZERO ISZERO AND OR SWAP1 SSTORE JUMP JUMPDEST PUSH1 0x40 MLOAD SWAP3 DUP4 MSTORE AND SWAP1 PUSH32 0x17307EAB39AB6107E8899845AD3D59BD9653F200F220920489CA2B5937696C31 PUSH1 0x20 CALLER SWAP3 LOG3 STOP JUMPDEST PUSH1 0x40 MLOAD SWAP1 PUSH2 0x1023 DUP3 PUSH2 0x58E JUMP JUMPDEST PUSH1 0xA DUP3 MSTORE PUSH32 0x53544F524546524F4E5400000000000000000000000000000000000000000000 PUSH1 0x20 DUP4 ADD MSTORE JUMP JUMPDEST POP CALLVALUE PUSH2 0xE JUMPI PUSH1 0x0 PUSH1 0x3 NOT CALLDATASIZE ADD SLT PUSH2 0xE JUMPI PUSH2 0x455 PUSH2 0x106C PUSH2 0x1016 JUMP JUMPDEST PUSH1 0x40 MLOAD SWAP2 DUP3 SWAP2 PUSH1 0x20 DUP4 MSTORE PUSH1 0x20 DUP4 ADD SWAP1 PUSH2 0x372 JUMP JUMPDEST POP CALLVALUE PUSH2 0xE JUMPI PUSH1 0x20 PUSH1 0x3 NOT CALLDATASIZE ADD SLT PUSH2 0xE JUMPI PUSH1 0x4 CALLDATALOAD PUSH1 0x0 MSTORE PUSH1 0x4 PUSH1 0x20 MSTORE PUSH1 0x20 PUSH1 0x40 PUSH1 0x0 KECCAK256 SLOAD PUSH1 0x40 MLOAD SWAP1 DUP2 MSTORE RETURN JUMPDEST POP CALLVALUE PUSH2 0xE JUMPI PUSH1 0xE0 PUSH1 0x3 NOT CALLDATASIZE ADD SLT PUSH2 0xE JUMPI PUSH2 0x10C7 PUSH2 0x183 JUMP JUMPDEST PUSH2 0x10CF PUSH2 0x1A6 JUMP JUMPDEST PUSH2 0x10D7 PUSH2 0xF2F JUMP JUMPDEST SWAP1 PUSH1 0x84 CALLDATALOAD PUSH1 0x64 CALLDATALOAD PUSH1 0xFF DUP3 AND DUP3 SUB PUSH2 0xE JUMPI DUP1 TIMESTAMP GT PUSH2 0x124D JUMPI PUSH1 0x20 SWAP2 PUSH2 0x1110 PUSH2 0x1103 PUSH1 0x0 SWAP4 DUP8 DUP8 DUP11 PUSH2 0x1F01 JUMP JUMPDEST PUSH2 0x110B PUSH2 0x1E14 JUMP JUMPDEST PUSH2 0x1EA6 JUMP JUMPDEST PUSH1 0x40 DUP1 MLOAD SWAP2 DUP3 MSTORE PUSH1 0xFF SWAP3 SWAP1 SWAP3 AND PUSH1 0x20 DUP3 ADD MSTORE PUSH1 0xA4 CALLDATALOAD SWAP2 DUP2 ADD SWAP2 SWAP1 SWAP2 MSTORE PUSH1 0xC4 CALLDATALOAD PUSH1 0x60 DUP3 ADD MSTORE DUP2 DUP1 MSTORE PUSH1 0x80 SWAP1 PUSH1 0x1 GAS STATICCALL ISZERO PUSH2 0x1240 JUMPI JUMPDEST PUSH20 0xFFFFFFFFFFFFFFFFFFFFFFFFFFFFFFFFFFFFFFFF DUP1 PUSH1 0x0 MLOAD AND DUP1 ISZERO SWAP1 DUP2 ISZERO PUSH2 0x1233 JUMPI JUMPDEST POP PUSH2 0x11D4 JUMPI DUP2 PUSH2 0x11C1 DUP5 PUSH2 0xFB6 PUSH32 0x17307EAB39AB6107E8899845AD3D59BD9653F200F220920489CA2B5937696C31 SWAP6 PUSH2 0x9A8 DUP10 PUSH20 0xFFFFFFFFFFFFFFFFFFFFFFFFFFFFFFFFFFFFFFFF AND PUSH1 0x0 MSTORE PUSH1 0x1 PUSH1 0x20 MSTORE PUSH1 0x40 PUSH1 0x0 KECCAK256 SWAP1 JUMP JUMPDEST PUSH1 0x40 MLOAD SWAP4 ISZERO ISZERO DUP5 MSTORE DUP2 AND SWAP4 AND SWAP2 PUSH1 0x20 SWAP1 LOG3 STOP JUMPDEST PUSH1 0x40 MLOAD PUSH32 0x8C379A000000000000000000000000000000000000000000000000000000000 DUP2 MSTORE PUSH1 0x20 PUSH1 0x4 DUP3 ADD MSTORE PUSH1 0xA PUSH1 0x24 DUP3 ADD MSTORE PUSH32 0x494E56414C494453494700000000000000000000000000000000000000000000 PUSH1 0x44 DUP3 ADD MSTORE PUSH1 0x64 SWAP1 REVERT JUMPDEST SWAP1 POP DUP2 DUP6 AND EQ ISZERO CODESIZE PUSH2 0x1168 JUMP JUMPDEST PUSH2 0x1248 PUSH2 0x1889 JUMP JUMPDEST PUSH2 0x1144 JUMP JUMPDEST PUSH1 0x40 MLOAD PUSH32 0x8C379A000000000000000000000000000000000000000000000000000000000 DUP2 MSTORE PUSH1 0x20 PUSH1 0x4 DUP3 ADD MSTORE PUSH1 0xB PUSH1 0x24 DUP3 ADD MSTORE PUSH32 0x5349472045585049524544000000000000000000000000000000000000000000 PUSH1 0x44 DUP3 ADD MSTORE PUSH1 0x64 SWAP1 REVERT JUMPDEST POP CALLVALUE PUSH2 0xE JUMPI PUSH1 0x40 PUSH1 0x3 NOT CALLDATASIZE ADD SLT PUSH2 0xE JUMPI PUSH1 0x20 PUSH1 0xFF PUSH2 0x131D PUSH2 0x12CD PUSH2 0x183 JUMP JUMPDEST PUSH20 0xFFFFFFFFFFFFFFFFFFFFFFFFFFFFFFFFFFFFFFFF PUSH2 0x12EA PUSH2 0x1A6 JUMP JUMPDEST SWAP2 AND PUSH1 0x0 MSTORE PUSH1 0x1 DUP5 MSTORE PUSH1 0x40 PUSH1 0x0 KECCAK256 SWAP1 PUSH20 0xFFFFFFFFFFFFFFFFFFFFFFFFFFFFFFFFFFFFFFFF AND PUSH1 0x0 MSTORE PUSH1 0x20 MSTORE PUSH1 0x40 PUSH1 0x0 KECCAK256 SWAP1 JUMP JUMPDEST SLOAD AND PUSH1 0x40 MLOAD SWAP1 ISZERO ISZERO DUP2 MSTORE RETURN JUMPDEST POP CALLVALUE PUSH2 0xE JUMPI PUSH1 0xA0 PUSH1 0x3 NOT CALLDATASIZE ADD SLT PUSH2 0xE JUMPI PUSH2 0x1343 PUSH2 0x183 JUMP JUMPDEST PUSH2 0x134B PUSH2 0x1A6 JUMP JUMPDEST PUSH1 0x84 CALLDATALOAD SWAP2 PUSH1 0x44 CALLDATALOAD PUSH1 0x64 CALLDATALOAD PUSH8 0xFFFFFFFFFFFFFFFF DUP6 GT PUSH2 0xE JUMPI PUSH2 0x1375 PUSH2 0x810 SWAP6 CALLDATASIZE SWAP1 PUSH1 0x4 ADD PUSH2 0x6B9 JUMP JUMPDEST SWAP1 PUSH20 0xFFFFFFFFFFFFFFFFFFFFFFFFFFFFFFFFFFFFFFFF SWAP5 DUP6 DUP6 AND SWAP6 DUP7 CALLER EQ DUP1 ISZERO PUSH2 0x14D9 JUMPI JUMPDEST PUSH2 0x13A3 SWAP1 PUSH2 0x1711 JUMP JUMPDEST PUSH2 0x13D1 DUP6 PUSH2 0x921 DUP9 PUSH20 0xFFFFFFFFFFFFFFFFFFFFFFFFFFFFFFFFFFFFFFFF AND PUSH1 0x0 MSTORE PUSH1 0x0 PUSH1 0x20 MSTORE PUSH1 0x40 PUSH1 0x0 KECCAK256 SWAP1 JUMP JUMPDEST PUSH2 0x13DC DUP5 DUP3 SLOAD PUSH2 0x17A6 JUMP JUMPDEST SWAP1 SSTORE PUSH2 0x140C DUP6 PUSH2 0x921 DUP5 PUSH20 0xFFFFFFFFFFFFFFFFFFFFFFFFFFFFFFFFFFFFFFFF AND PUSH1 0x0 MSTORE PUSH1 0x0 PUSH1 0x20 MSTORE PUSH1 0x40 PUSH1 0x0 KECCAK256 SWAP1 JUMP JUMPDEST PUSH2 0x1417 DUP5 DUP3 SLOAD PUSH2 0x17DA JUMP JUMPDEST SWAP1 SSTORE DUP2 AND DUP1 SWAP7 PUSH1 0x40 MLOAD PUSH32 0xC3D58168C5AE7397731D063D5BBF3D657854427343F4C083240F7AACAA2D0F62 CALLER SWAP2 DUP1 PUSH2 0x145C DUP9 DUP12 DUP4 PUSH1 0x20 SWAP1 SWAP4 SWAP3 SWAP2 SWAP4 PUSH1 0x40 DUP2 ADD SWAP5 DUP2 MSTORE ADD MSTORE JUMP JUMPDEST SUB SWAP1 LOG4 PUSH1 0x0 SWAP4 SWAP1 EXTCODESIZE PUSH2 0x1474 JUMPI POP POP POP POP POP ISZERO ISZERO PUSH2 0x1896 JUMP JUMPDEST SWAP2 PUSH32 0xFFFFFFFF00000000000000000000000000000000000000000000000000000000 SWAP5 SWAP6 PUSH1 0x20 SWAP3 DUP6 PUSH2 0x877 SWAP6 PUSH1 0x40 MLOAD SWAP7 DUP8 SWAP6 DUP7 SWAP5 DUP6 SWAP4 PUSH32 0xF23A6E6100000000000000000000000000000000000000000000000000000000 SWAP14 DUP15 DUP7 MSTORE CALLER PUSH1 0x4 DUP8 ADD PUSH2 0x1847 JUMP JUMPDEST POP PUSH2 0x13A3 PUSH2 0x150E PUSH2 0x9CD CALLER PUSH2 0x9A8 DUP11 PUSH20 0xFFFFFFFFFFFFFFFFFFFFFFFFFFFFFFFFFFFFFFFF AND PUSH1 0x0 MSTORE PUSH1 0x1 PUSH1 0x20 MSTORE PUSH1 0x40 PUSH1 0x0 KECCAK256 SWAP1 JUMP JUMPDEST SWAP1 POP PUSH2 0x139A JUMP JUMPDEST POP CALLVALUE PUSH2 0xE JUMPI PUSH1 0x20 PUSH1 0x3 NOT CALLDATASIZE ADD SLT PUSH2 0xE JUMPI PUSH2 0x152F PUSH2 0x183 JUMP JUMPDEST PUSH20 0xFFFFFFFFFFFFFFFFFFFFFFFFFFFFFFFFFFFFFFFF PUSH2 0x1553 DUP2 PUSH1 0x2 SLOAD AND CALLER EQ PUSH2 0x163D JUMP JUMPDEST DUP2 AND ISZERO PUSH2 0x1563 JUMPI PUSH2 0x810 SWAP1 PUSH2 0x16A2 JUMP JUMPDEST PUSH1 0x84 PUSH1 0x40 MLOAD PUSH32 0x8C379A000000000000000000000000000000000000000000000000000000000 DUP2 MSTORE PUSH1 0x20 PUSH1 0x4 DUP3 ADD MSTORE PUSH1 0x26 PUSH1 0x24 DUP3 ADD MSTORE PUSH32 0x4F776E61626C653A206E6577206F776E657220697320746865207A65726F2061 PUSH1 0x44 DUP3 ADD MSTORE PUSH32 0x6464726573730000000000000000000000000000000000000000000000000000 PUSH1 0x64 DUP3 ADD MSTORE REVERT JUMPDEST PUSH1 0x40 MLOAD SWAP1 PUSH2 0x15F4 DUP3 PUSH2 0x58E JUMP JUMPDEST PUSH1 0x1 DUP3 MSTORE PUSH32 0x3100000000000000000000000000000000000000000000000000000000000000 PUSH1 0x20 DUP4 ADD MSTORE JUMP JUMPDEST POP CALLVALUE PUSH2 0xE JUMPI PUSH1 0x0 PUSH1 0x3 NOT CALLDATASIZE ADD SLT PUSH2 0xE JUMPI PUSH2 0x455 PUSH2 0x106C PUSH2 0x15E7 JUMP JUMPDEST ISZERO PUSH2 0x1644 JUMPI JUMP JUMPDEST PUSH1 0x64 PUSH1 0x40 MLOAD PUSH32 0x8C379A000000000000000000000000000000000000000000000000000000000 DUP2 MSTORE PUSH1 0x20 PUSH1 0x4 DUP3 ADD MSTORE PUSH1 0x20 PUSH1 0x24 DUP3 ADD MSTORE PUSH32 0x4F776E61626C653A2063616C6C6572206973206E6F7420746865206F776E6572 PUSH1 0x44 DUP3 ADD MSTORE REVERT JUMPDEST PUSH1 0x2 SLOAD SWAP1 PUSH20 0xFFFFFFFFFFFFFFFFFFFFFFFFFFFFFFFFFFFFFFFF DUP1 SWAP2 AND SWAP2 DUP3 PUSH32 0xFFFFFFFFFFFFFFFFFFFFFFFF0000000000000000000000000000000000000000 DUP3 AND OR PUSH1 0x2 SSTORE AND PUSH32 0x8BE0079C531659141344CD1FD0A4F28419497F9722A3DAAFE3B4186F6B6457E0 PUSH1 0x0 PUSH1 0x40 MLOAD LOG3 JUMP JUMPDEST ISZERO PUSH2 0x1718 JUMPI JUMP JUMPDEST PUSH1 0x64 PUSH1 0x40 MLOAD PUSH32 0x8C379A000000000000000000000000000000000000000000000000000000000 DUP2 MSTORE PUSH1 0x20 PUSH1 0x4 DUP3 ADD MSTORE PUSH1 0xE PUSH1 0x24 DUP3 ADD MSTORE PUSH32 0x4E4F545F415554484F52495A4544000000000000000000000000000000000000 PUSH1 0x44 DUP3 ADD MSTORE REVERT JUMPDEST POP PUSH32 0x4E487B7100000000000000000000000000000000000000000000000000000000 PUSH1 0x0 MSTORE PUSH1 0x11 PUSH1 0x4 MSTORE PUSH1 0x24 PUSH1 0x0 REVERT JUMPDEST DUP2 DUP2 LT PUSH2 0x17B1 JUMPI SUB SWAP1 JUMP JUMPDEST PUSH2 0x17B9 PUSH2 0x1776 JUMP JUMPDEST SUB SWAP1 JUMP JUMPDEST DUP1 NOT PUSH1 0x30 GT PUSH2 0x17CD JUMPI JUMPDEST PUSH1 0x30 ADD SWAP1 JUMP JUMPDEST PUSH2 0x17D5 PUSH2 0x1776 JUMP JUMPDEST PUSH2 0x17C7 JUMP JUMPDEST DUP2 NOT DUP2 GT PUSH2 0x17E6 JUMPI ADD SWAP1 JUMP JUMPDEST PUSH2 0x17EE PUSH2 0x1776 JUMP JUMPDEST ADD SWAP1 JUMP JUMPDEST SWAP1 DUP2 PUSH1 0x20 SWAP2 SUB SLT PUSH2 0xE JUMPI MLOAD PUSH2 0x3C6 DUP2 PUSH2 0x240 JUMP JUMPDEST SWAP1 SWAP3 PUSH1 0xA0 SWAP3 PUSH20 0xFFFFFFFFFFFFFFFFFFFFFFFFFFFFFFFFFFFFFFFF PUSH2 0x3C6 SWAP7 SWAP6 AND DUP4 MSTORE PUSH1 0x0 PUSH1 0x20 DUP5 ADD MSTORE PUSH1 0x40 DUP4 ADD MSTORE PUSH1 0x60 DUP3 ADD MSTORE DUP2 PUSH1 0x80 DUP3 ADD MSTORE ADD SWAP1 PUSH2 0x372 JUMP JUMPDEST SWAP2 SWAP3 PUSH2 0x3C6 SWAP6 SWAP5 SWAP2 PUSH1 0xA0 SWAP5 PUSH20 0xFFFFFFFFFFFFFFFFFFFFFFFFFFFFFFFFFFFFFFFF DUP1 SWAP3 AND DUP6 MSTORE AND PUSH1 0x20 DUP5 ADD MSTORE PUSH1 0x40 DUP4 ADD MSTORE PUSH1 0x60 DUP3 ADD MSTORE DUP2 PUSH1 0x80 DUP3 ADD MSTORE ADD SWAP1 PUSH2 0x372 JUMP JUMPDEST POP PUSH1 0x40 MLOAD RETURNDATASIZE PUSH1 0x0 DUP3 RETURNDATACOPY RETURNDATASIZE SWAP1 REVERT JUMPDEST ISZERO PUSH2 0x189D JUMPI JUMP JUMPDEST PUSH1 0x64 PUSH1 0x40 MLOAD PUSH32 0x8C379A000000000000000000000000000000000000000000000000000000000 DUP2 MSTORE PUSH1 0x20 PUSH1 0x4 DUP3 ADD MSTORE PUSH1 0x10 PUSH1 0x24 DUP3 ADD MSTORE PUSH32 0x554E534146455F524543495049454E5400000000000000000000000000000000 PUSH1 0x44 DUP3 ADD MSTORE REVERT JUMPDEST ISZERO PUSH2 0x1902 JUMPI JUMP JUMPDEST PUSH1 0x64 PUSH1 0x40 MLOAD PUSH32 0x8C379A000000000000000000000000000000000000000000000000000000000 DUP2 MSTORE PUSH1 0x20 PUSH1 0x4 DUP3 ADD MSTORE PUSH1 0xF PUSH1 0x24 DUP3 ADD MSTORE PUSH32 0x4C454E4754485F4D49534D415443480000000000000000000000000000000000 PUSH1 0x44 DUP3 ADD MSTORE REVERT JUMPDEST POP PUSH32 0x4E487B7100000000000000000000000000000000000000000000000000000000 PUSH1 0x0 MSTORE PUSH1 0x32 PUSH1 0x4 MSTORE PUSH1 0x24 PUSH1 0x0 REVERT JUMPDEST PUSH1 0x20 SWAP2 DUP2 MLOAD DUP2 LT ISZERO PUSH2 0x19A5 JUMPI JUMPDEST PUSH1 0x5 SHL ADD ADD SWAP1 JUMP JUMPDEST PUSH2 0x19AD PUSH2 0x1960 JUMP JUMPDEST PUSH2 0x199D JUMP JUMPDEST SWAP1 SWAP2 PUSH2 0x19C9 PUSH2 0x3C6 SWAP4 PUSH1 0x40 DUP5 MSTORE PUSH1 0x40 DUP5 ADD SWAP1 PUSH2 0xD26 JUMP JUMPDEST SWAP2 PUSH1 0x20 DUP2 DUP5 SUB SWAP2 ADD MSTORE PUSH2 0xD26 JUMP JUMPDEST SWAP4 SWAP1 PUSH2 0x3C6 SWAP6 SWAP4 PUSH2 0x1A17 SWAP2 PUSH2 0x1A25 SWAP5 PUSH20 0xFFFFFFFFFFFFFFFFFFFFFFFFFFFFFFFFFFFFFFFF DUP1 SWAP3 AND DUP9 MSTORE AND PUSH1 0x20 DUP8 ADD MSTORE PUSH1 0xA0 PUSH1 0x40 DUP8 ADD MSTORE PUSH1 0xA0 DUP7 ADD SWAP1 PUSH2 0xD26 JUMP JUMPDEST SWAP1 DUP5 DUP3 SUB PUSH1 0x60 DUP7 ADD MSTORE PUSH2 0xD26 JUMP JUMPDEST SWAP2 PUSH1 0x80 DUP2 DUP5 SUB SWAP2 ADD MSTORE PUSH2 0x372 JUMP JUMPDEST SWAP2 DUP3 MLOAD PUSH2 0x1A42 DUP4 MLOAD DUP3 EQ PUSH2 0x18FB JUMP JUMPDEST DUP4 MLOAD PUSH2 0x1A4D DUP2 PUSH2 0x5EB JUMP JUMPDEST SWAP1 PUSH32 0xFFFFFFFFFFFFFFFFFFFFFFFFFFFFFFFFFFFFFFFFFFFFFFFFFFFFFFFFFFFFFFE0 PUSH2 0x1A89 PUSH1 0x40 SWAP3 PUSH2 0x1A81 DUP5 MLOAD SWAP6 DUP7 PUSH2 0x5AA JUMP JUMPDEST DUP1 DUP6 MSTORE PUSH2 0x5EB JUMP JUMPDEST ADD SWAP5 PUSH1 0x20 SWAP6 CALLDATASIZE DUP8 DUP6 ADD CALLDATACOPY DUP3 SWAP6 PUSH1 0x0 JUMPDEST DUP6 DUP2 LT PUSH2 0x1AAA JUMPI POP POP POP POP POP POP SWAP1 SWAP2 POP JUMP JUMPDEST DUP1 PUSH20 0xFFFFFFFFFFFFFFFFFFFFFFFFFFFFFFFFFFFFFFFF PUSH2 0x1ACC PUSH1 0x1 SWAP4 DUP13 PUSH2 0x1990 JUMP JUMPDEST MLOAD AND PUSH1 0x0 MSTORE PUSH1 0x0 DUP4 MSTORE DUP5 PUSH1 0x0 KECCAK256 PUSH2 0x1AE3 DUP3 DUP7 PUSH2 0x1990 JUMP JUMPDEST MLOAD PUSH1 0x0 MSTORE DUP4 MSTORE DUP5 PUSH1 0x0 KECCAK256 SLOAD PUSH2 0x1AF8 DUP3 DUP9 PUSH2 0x1990 JUMP JUMPDEST MSTORE ADD PUSH2 0x1A98 JUMP JUMPDEST PUSH1 0x1 SWAP1 PUSH32 0xFFFFFFFFFFFFFFFFFFFFFFFFFFFFFFFFFFFFFFFFFFFFFFFFFFFFFFFFFFFFFFFF DUP2 EQ PUSH2 0x17E6 JUMPI ADD SWAP1 JUMP JUMPDEST SWAP1 PUSH1 0x1 DUP3 DUP2 SHR SWAP3 AND DUP1 ISZERO PUSH2 0x1B76 JUMPI JUMPDEST PUSH1 0x20 DUP4 LT EQ PUSH2 0x1B47 JUMPI JUMP JUMPDEST PUSH32 0x4E487B7100000000000000000000000000000000000000000000000000000000 PUSH1 0x0 MSTORE PUSH1 0x22 PUSH1 0x4 MSTORE PUSH1 0x24 PUSH1 0x0 REVERT JUMPDEST SWAP2 PUSH1 0x7F AND SWAP2 PUSH2 0x1B3C JUMP JUMPDEST PUSH1 0x1F DUP2 GT PUSH2 0x1B8C JUMPI POP POP JUMP JUMPDEST PUSH1 0x0 SWAP1 PUSH1 0x5 DUP3 MSTORE PUSH32 0x36B6384B5ECA791C62761152D0C79BB0604C104A5FB6F4EB0703F3154BB3DB0 SWAP1 PUSH1 0x20 PUSH1 0x1F DUP6 ADD PUSH1 0x5 SHR DUP4 ADD SWAP5 LT PUSH2 0x1BE7 JUMPI JUMPDEST PUSH1 0x1F ADD PUSH1 0x5 SHR ADD SWAP2 JUMPDEST DUP3 DUP2 LT PUSH2 0x1BDC JUMPI POP POP POP JUMP JUMPDEST DUP2 DUP2 SSTORE PUSH1 0x1 ADD PUSH2 0x1BD0 JUMP JUMPDEST SWAP1 SWAP3 POP DUP3 SWAP1 PUSH2 0x1BC7 JUMP JUMPDEST PUSH1 0x5 SLOAD PUSH1 0x0 SWAP3 SWAP2 PUSH2 0x1C01 DUP3 PUSH2 0x1B2D JUMP JUMPDEST SWAP2 PUSH1 0x1 SWAP1 DUP2 DUP2 AND SWAP1 DUP2 ISZERO PUSH2 0x1C6D JUMPI POP PUSH1 0x1 EQ PUSH2 0x1C1C JUMPI POP POP POP JUMP JUMPDEST SWAP1 SWAP2 SWAP3 SWAP4 POP PUSH1 0x5 PUSH1 0x0 MSTORE PUSH32 0x36B6384B5ECA791C62761152D0C79BB0604C104A5FB6F4EB0703F3154BB3DB0 SWAP1 PUSH1 0x0 SWAP2 JUMPDEST DUP5 DUP4 LT PUSH2 0x1C5A JUMPI POP POP POP ADD SWAP1 JUMP JUMPDEST DUP2 DUP2 PUSH1 0x20 SWAP3 SLOAD DUP6 DUP8 ADD MSTORE ADD SWAP3 ADD SWAP2 PUSH2 0x1C4C JUMP JUMPDEST PUSH32 0xFFFFFFFFFFFFFFFFFFFFFFFFFFFFFFFFFFFFFFFFFFFFFFFFFFFFFFFFFFFFFF00 AND DUP4 MSTORE POP POP ADD SWAP2 POP JUMP JUMPDEST SWAP1 PUSH2 0x17EE PUSH1 0x20 SWAP3 DUP3 DUP2 MLOAD SWAP5 DUP6 SWAP3 ADD PUSH2 0x33D JUMP JUMPDEST SWAP1 PUSH1 0x20 SWAP2 DUP1 MLOAD DUP3 LT ISZERO PUSH2 0x1CBD JUMPI ADD ADD SWAP1 JUMP JUMPDEST PUSH2 0x1CC5 PUSH2 0x1960 JUMP JUMPDEST ADD ADD SWAP1 JUMP JUMPDEST DUP1 ISZERO PUSH2 0x1DDA JUMPI DUP1 PUSH1 0x0 SWAP1 DUP3 DUP3 SWAP4 JUMPDEST PUSH2 0x1DC6 JUMPI POP PUSH2 0x1CE6 DUP4 PUSH2 0x670 JUMP JUMPDEST SWAP3 PUSH2 0x1CF4 PUSH1 0x40 MLOAD SWAP5 DUP6 PUSH2 0x5AA JUMP JUMPDEST DUP1 DUP5 MSTORE DUP2 PUSH32 0xFFFFFFFFFFFFFFFFFFFFFFFFFFFFFFFFFFFFFFFFFFFFFFFFFFFFFFFFFFFFFFE0 PUSH2 0x1D22 DUP4 PUSH2 0x670 JUMP JUMPDEST ADD CALLDATASIZE PUSH1 0x20 DUP8 ADD CALLDATACOPY JUMPDEST PUSH2 0x1D34 JUMPI POP POP POP SWAP1 JUMP JUMPDEST DUP1 PUSH1 0x1 PUSH32 0xFFFFFFFFFFFFFFFFFFFFFFFFFFFFFFFFFFFFFFFFFFFFFFFFFFFFFFFFFFFFFFFF SWAP3 LT PUSH2 0x1DB9 JUMPI JUMPDEST ADD DUP1 SWAP2 PUSH1 0xA SWAP2 PUSH2 0x1DB0 PUSH2 0x1DA7 PUSH2 0x1D7F PUSH2 0x1D79 DUP7 DUP7 MOD PUSH2 0x17BD JUMP JUMPDEST PUSH1 0xFF AND SWAP1 JUMP JUMPDEST PUSH1 0xF8 SHL PUSH32 0xFF00000000000000000000000000000000000000000000000000000000000000 AND SWAP1 JUMP JUMPDEST DUP7 BYTE SWAP2 DUP8 PUSH2 0x1CAB JUMP JUMPDEST MSTORE8 DIV SWAP1 DUP2 PUSH2 0x1D2A JUMP JUMPDEST PUSH2 0x1DC1 PUSH2 0x1776 JUMP JUMPDEST PUSH2 0x1D5F JUMP JUMPDEST SWAP3 PUSH2 0x1DD2 PUSH1 0xA SWAP2 PUSH2 0x1AFF JUMP JUMPDEST SWAP4 DIV DUP1 PUSH2 0x1CD8 JUMP JUMPDEST POP PUSH1 0x40 MLOAD PUSH2 0x1DE7 DUP2 PUSH2 0x58E JUMP JUMPDEST PUSH1 0x1 DUP2 MSTORE PUSH32 0x3000000000000000000000000000000000000000000000000000000000000000 PUSH1 0x20 DUP3 ADD MSTORE SWAP1 JUMP JUMPDEST PUSH2 0x1E1C PUSH2 0x1016 JUMP JUMPDEST PUSH1 0x20 DUP2 MLOAD SWAP2 ADD KECCAK256 PUSH2 0x1E2B PUSH2 0x15E7 JUMP JUMPDEST PUSH1 0x20 DUP2 MLOAD SWAP2 ADD KECCAK256 PUSH1 0x40 MLOAD SWAP1 PUSH1 0x20 DUP3 ADD SWAP3 PUSH32 0x8B73C3C69BB8FE3D512ECC4CF759CC79239F7B179B0FFACAA9A75D522B39400F DUP5 MSTORE PUSH1 0x40 DUP4 ADD MSTORE PUSH1 0x60 DUP3 ADD MSTORE CHAINID PUSH1 0x80 DUP3 ADD MSTORE ADDRESS PUSH1 0xA0 DUP3 ADD MSTORE PUSH1 0xA0 DUP2 MSTORE PUSH1 0xC0 DUP2 ADD DUP2 DUP2 LT PUSH8 0xFFFFFFFFFFFFFFFF DUP3 GT OR PUSH2 0x1E99 JUMPI JUMPDEST PUSH1 0x40 MSTORE MLOAD SWAP1 KECCAK256 SWAP1 JUMP JUMPDEST PUSH2 0x1EA1 PUSH2 0x535 JUMP JUMPDEST PUSH2 0x1E90 JUMP JUMPDEST SWAP1 PUSH1 0x40 MLOAD SWAP1 PUSH1 0x20 DUP3 ADD SWAP3 PUSH32 0x1901000000000000000000000000000000000000000000000000000000000000 DUP5 MSTORE PUSH1 0x22 DUP4 ADD MSTORE PUSH1 0x42 DUP3 ADD MSTORE PUSH1 0x42 DUP2 MSTORE PUSH1 0x80 DUP2 ADD DUP2 DUP2 LT PUSH8 0xFFFFFFFFFFFFFFFF DUP3 GT OR PUSH2 0x1E99 JUMPI PUSH1 0x40 MSTORE MLOAD SWAP1 KECCAK256 SWAP1 JUMP JUMPDEST SWAP3 SWAP1 SWAP2 SWAP3 PUSH20 0xFFFFFFFFFFFFFFFFFFFFFFFFFFFFFFFFFFFFFFFF DUP1 SWAP2 AND SWAP4 DUP5 PUSH1 0x0 MSTORE PUSH1 0x3 PUSH1 0x20 MSTORE PUSH1 0x40 PUSH1 0x0 KECCAK256 SWAP2 DUP3 SLOAD SWAP3 PUSH2 0x1F39 DUP5 PUSH2 0x1AFF JUMP JUMPDEST SWAP1 SSTORE PUSH1 0x40 MLOAD SWAP5 PUSH1 0x20 DUP7 ADD SWAP7 PUSH32 0x200D2483757E19728FC8A3511298158C1B74DD131C7BE00C4904E11665B42CD1 DUP9 MSTORE PUSH1 0x40 DUP8 ADD MSTORE AND PUSH1 0x60 DUP6 ADD MSTORE ISZERO ISZERO PUSH1 0x80 DUP5 ADD MSTORE PUSH1 0xA0 DUP4 ADD MSTORE PUSH1 0xC0 DUP3 ADD MSTORE PUSH1 0xC0 DUP2 MSTORE PUSH1 0xE0 DUP2 ADD DUP2 DUP2 LT PUSH8 0xFFFFFFFFFFFFFFFF DUP3 GT OR PUSH2 0x1E99 JUMPI PUSH1 0x40 MSTORE MLOAD SWAP1 KECCAK256 SWAP1 JUMP INVALID LOG2 PUSH5 0x6970667358 0x22 SLT KECCAK256 DUP2 PUSH16 0x6FCBD8773AF062BBF61161F04CC5D3DC 0x5C 0xFB 0xE4 0xE5 PUSH27 0x400B6A21336C62D8ED64736F6C634300080E003300000000000000 "
        },
        "methodIdentifiers": {
          "NAME()": "a3f4df7e",
          "VERSION()": "ffa1ad74",
          "balanceOf(address,uint256)": "00fdd58e",
          "balanceOfBatch(address[],uint256[])": "4e1273f4",
          "isApprovedForAll(address,address)": "e985e9c5",
          "mint(address,uint256)": "40c10f19",
          "nonces(address)": "7ecebe00",
          "owner()": "8da5cb5b",
          "permitAll(address,address,bool,uint256,uint8,bytes32,bytes32)": "cfa8fb42",
          "renounceOwnership()": "715018a6",
          "safeBatchTransferFrom(address,address,uint256[],uint256[],bytes)": "2eb2c2d6",
          "safeTransferFrom(address,address,uint256,uint256,bytes)": "f242432a",
          "setApprovalForAll(address,bool)": "a22cb465",
          "supportsInterface(bytes4)": "01ffc9a7",
          "totalSupply(uint256)": "bd85b039",
          "transferOwnership(address)": "f2fde38b",
          "updateBaseUri(string)": "39f7e37f",
          "uri(uint256)": "0e89341c"
        }
      }
    }
  }
}