{
  "contracts/zones/order-check/OrderCheckZone.sol": {
    "OrderCheckZone": {
      "abi": [
        {
          "anonymous": false,
          "inputs": [],
          "name": "Paused",
          "type": "event"
        },
        {
          "anonymous": false,
          "inputs": [],
          "name": "Unpaused",
          "type": "event"
        },
        {
          "inputs": [
            {
              "internalType": "bytes32",
              "name": "orderHash",
              "type": "bytes32"
            },
            {
              "internalType": "address",
              "name": "caller",
              "type": "address"
            },
            {
              "internalType": "address",
              "name": "offerer",
              "type": "address"
            },
            {
              "internalType": "bytes32",
              "name": "zoneHash",
              "type": "bytes32"
            }
          ],
          "name": "isValidOrder",
          "outputs": [
            {
              "internalType": "bytes4",
              "name": "validOrderMagicValue",
              "type": "bytes4"
            }
          ],
          "stateMutability": "pure",
          "type": "function"
        },
        {
          "inputs": [
            {
              "internalType": "bytes32",
              "name": "orderHash",
              "type": "bytes32"
            },
            {
              "internalType": "address",
              "name": "caller",
              "type": "address"
            },
            {
              "components": [
                {
                  "components": [
                    {
                      "internalType": "address",
                      "name": "offerer",
                      "type": "address"
                    },
                    {
                      "internalType": "address",
                      "name": "zone",
                      "type": "address"
                    },
                    {
                      "components": [
                        {
                          "internalType": "enum ItemType",
                          "name": "itemType",
                          "type": "uint8"
                        },
                        {
                          "internalType": "address",
                          "name": "token",
                          "type": "address"
                        },
                        {
                          "internalType": "uint256",
                          "name": "identifierOrCriteria",
                          "type": "uint256"
                        },
                        {
                          "internalType": "uint256",
                          "name": "startAmount",
                          "type": "uint256"
                        },
                        {
                          "internalType": "uint256",
                          "name": "endAmount",
                          "type": "uint256"
                        }
                      ],
                      "internalType": "struct OfferItem[]",
                      "name": "offer",
                      "type": "tuple[]"
                    },
                    {
                      "components": [
                        {
                          "internalType": "enum ItemType",
                          "name": "itemType",
                          "type": "uint8"
                        },
                        {
                          "internalType": "address",
                          "name": "token",
                          "type": "address"
                        },
                        {
                          "internalType": "uint256",
                          "name": "identifierOrCriteria",
                          "type": "uint256"
                        },
                        {
                          "internalType": "uint256",
                          "name": "startAmount",
                          "type": "uint256"
                        },
                        {
                          "internalType": "uint256",
                          "name": "endAmount",
                          "type": "uint256"
                        },
                        {
                          "internalType": "address payable",
                          "name": "recipient",
                          "type": "address"
                        }
                      ],
                      "internalType": "struct ConsiderationItem[]",
                      "name": "consideration",
                      "type": "tuple[]"
                    },
                    {
                      "internalType": "enum OrderType",
                      "name": "orderType",
                      "type": "uint8"
                    },
                    {
                      "internalType": "uint256",
                      "name": "startTime",
                      "type": "uint256"
                    },
                    {
                      "internalType": "uint256",
                      "name": "endTime",
                      "type": "uint256"
                    },
                    {
                      "internalType": "bytes32",
                      "name": "zoneHash",
                      "type": "bytes32"
                    },
                    {
                      "internalType": "uint256",
                      "name": "salt",
                      "type": "uint256"
                    },
                    {
                      "internalType": "bytes32",
                      "name": "conduitKey",
                      "type": "bytes32"
                    },
                    {
                      "internalType": "uint256",
                      "name": "totalOriginalConsiderationItems",
                      "type": "uint256"
                    }
                  ],
                  "internalType": "struct OrderParameters",
                  "name": "parameters",
                  "type": "tuple"
                },
                {
                  "internalType": "uint120",
                  "name": "numerator",
                  "type": "uint120"
                },
                {
                  "internalType": "uint120",
                  "name": "denominator",
                  "type": "uint120"
                },
                {
                  "internalType": "bytes",
                  "name": "signature",
                  "type": "bytes"
                },
                {
                  "internalType": "bytes",
                  "name": "extraData",
                  "type": "bytes"
                }
              ],
              "internalType": "struct AdvancedOrder",
              "name": "order",
              "type": "tuple"
            },
            {
              "internalType": "bytes32[]",
              "name": "priorOrderHashes",
              "type": "bytes32[]"
            },
            {
              "components": [
                {
                  "internalType": "uint256",
                  "name": "orderIndex",
                  "type": "uint256"
                },
                {
                  "internalType": "enum Side",
                  "name": "side",
                  "type": "uint8"
                },
                {
                  "internalType": "uint256",
                  "name": "index",
                  "type": "uint256"
                },
                {
                  "internalType": "uint256",
                  "name": "identifier",
                  "type": "uint256"
                },
                {
                  "internalType": "bytes32[]",
                  "name": "criteriaProof",
                  "type": "bytes32[]"
                }
              ],
              "internalType": "struct CriteriaResolver[]",
              "name": "criteriaResolvers",
              "type": "tuple[]"
            }
          ],
          "name": "isValidOrderIncludingExtraData",
          "outputs": [
            {
              "internalType": "bytes4",
              "name": "validOrderMagicValue",
              "type": "bytes4"
            }
          ],
          "stateMutability": "pure",
          "type": "function"
        }
      ],
      "evm": {
        "bytecode": {
          "linkReferences": {},
          "object": "6080806040523461001657610ad2908161001c8239f35b600080fdfe6080604052600436101561001257600080fd5b6000803560e01c80630e1d31dc146101145763331315701461003357600080fd5b3461010d577ffffffffffffffffffffffffffffffffffffffffffffffffffffffffffffffffc9060a08236011261010d576024359161007183610184565b6044359167ffffffffffffffff918284116101105760a090843603011261010d57606435828111610110576100aa9036906004016101a7565b505060843591821161010d576101096100d685856100cb36600488016101a7565b505060040190610490565b6040517fffffffff0000000000000000000000000000000000000000000000000000000090911681529081906020820190565b0390f35b80fd5b5080fd5b503461010d5760807ffffffffffffffffffffffffffffffffffffffffffffffffffffffffffffffffc36011261010d5761014f602435610184565b61015a604435610184565b7f0e1d31dc0000000000000000000000000000000000000000000000000000000060805260206080f35b73ffffffffffffffffffffffffffffffffffffffff8116036101a257565b600080fd5b9181601f840112156101a25782359167ffffffffffffffff83116101a2576020808501948460051b0101116101a257565b507f4e487b7100000000000000000000000000000000000000000000000000000000600052604160045260246000fd5b90601f7fffffffffffffffffffffffffffffffffffffffffffffffffffffffffffffffe0910116810190811067ffffffffffffffff82111761024957604052565b6102516101d8565b604052565b9080601f830112156101a25781359067ffffffffffffffff82116102be575b8160051b6040519360209361028c85840187610208565b855283808601928201019283116101a2578301905b8282106102af575050505090565b813581529083019083016102a1565b6102c66101d8565b610275565b6080818303126101a25780359267ffffffffffffffff926020808401358581116101a257840182601f820112156101a257803591868311610379575b6040519261033c827fffffffffffffffffffffffffffffffffffffffffffffffffffffffffffffffe0601f8401160185610208565b808452848282850101116101a25780826000940183860137830101529360408401359081116101a257606091610373918501610256565b92013590565b6103816101d8565b610307565b9035907ffffffffffffffffffffffffffffffffffffffffffffffffffffffffffffffea1813603018212156101a2570190565b356103c381610184565b90565b156103cd57565b60646040517f08c379a000000000000000000000000000000000000000000000000000000000815260206004820152601f60248201527f657874726144617461206e6f74207369676e6564206279206f666665726572006044820152fd5b1561043257565b60646040517f08c379a000000000000000000000000000000000000000000000000000000000815260206004820152600d60248201527f496e76616c69642070726f6f66000000000000000000000000000000000000006044820152fd5b9060808101357fffffffffffffffffffffffffffffffffffffffffffffffffffffffffffffffe1823603018112156101a25781019182359067ffffffffffffffff82116101a257602084019082360382136101a2576105586105cb9473ffffffffffffffffffffffffffffffffffffffff61055061053761052061053297602061052b9a6105d09d0101906102cb565b99929a91909a6105f4565b9480610386565b6103b9565b73ffffffffffffffffffffffffffffffffffffffff1690565b9116146103c6565b6040516105c2816105966020820194857fffffffffffffffffffffffffffffffffffffffff00000000000000000000000060149260601b1681520190565b037fffffffffffffffffffffffffffffffffffffffffffffffffffffffffffffffe08101835282610208565b51902091610a16565b61042b565b7f0e1d31dc0000000000000000000000000000000000000000000000000000000090565b6103c39161060191610861565b919091610642565b6005111561061357565b7f4e487b7100000000000000000000000000000000000000000000000000000000600052602160045260246000fd5b61064b81610609565b806106535750565b61065c81610609565b600181036106c3576040517f08c379a000000000000000000000000000000000000000000000000000000000815260206004820152601860248201527f45434453413a20696e76616c6964207369676e617475726500000000000000006044820152606490fd5b6106cc81610609565b60028103610733576040517f08c379a000000000000000000000000000000000000000000000000000000000815260206004820152601f60248201527f45434453413a20696e76616c6964207369676e6174757265206c656e677468006044820152606490fd5b61073c81610609565b600381036107c9576040517f08c379a000000000000000000000000000000000000000000000000000000000815260206004820152602260248201527f45434453413a20696e76616c6964207369676e6174757265202773272076616c60448201527f75650000000000000000000000000000000000000000000000000000000000006064820152608490fd5b806107d5600492610609565b146107dc57565b6040517f08c379a000000000000000000000000000000000000000000000000000000000815260206004820152602260248201527f45434453413a20696e76616c6964207369676e6174757265202776272076616c60448201527f75650000000000000000000000000000000000000000000000000000000000006064820152608490fd5b81516041810361088e57509061088a916020820151906060604084015193015160001a90610953565b9091565b60400361090c57816040602061088a9401519101519160ff601b7f7fffffffffffffffffffffffffffffffffffffffffffffffffffffffffffffff85831c957fffffffffffffffffffffffffffffffffffffffffffffffffffffffffffffffe487116108ff575b1694011690610953565b610907610916565b6108f5565b5050600090600290565b507f4e487b7100000000000000000000000000000000000000000000000000000000600052601160045260246000fd5b506040513d6000823e3d90fd5b9291907f7fffffffffffffffffffffffffffffff5d576e7357a4501ddfe92f46681b20a08311610a0a5760ff16601b811415806109ff575b6109f3579160809493916020936040519384528484015260408301526060820152600093849182805260015afa156109e6575b815173ffffffffffffffffffffffffffffffffffffffff8116156109e0579190565b50600190565b6109ee610946565b6109be565b50505050600090600490565b50601c81141561098b565b50505050600090600390565b9091906000915b8151831015610a95576020600584901b830181015191828111610a83576000525260016040600020925b7fffffffffffffffffffffffffffffffffffffffffffffffffffffffffffffffff8114610a76575b0191610a1d565b610a7e610916565b610a6f565b91600052526001604060002092610a47565b915050149056fea2646970667358221220d00a38bfad2b5ada729d7cc76b30349ff1b9e03774eefa834d40aa1dfd2b27ad64736f6c634300080e0033",
          "opcodes": "PUSH1 0x80 DUP1 PUSH1 0x40 MSTORE CALLVALUE PUSH2 0x16 JUMPI PUSH2 0xAD2 SWAP1 DUP2 PUSH2 0x1C DUP3 CODECOPY RETURN JUMPDEST PUSH1 0x0 DUP1 REVERT INVALID PUSH1 0x80 PUSH1 0x40 MSTORE PUSH1 0x4 CALLDATASIZE LT ISZERO PUSH2 0x12 JUMPI PUSH1 0x0 DUP1 REVERT JUMPDEST PUSH1 0x0 DUP1 CALLDATALOAD PUSH1 0xE0 SHR DUP1 PUSH4 0xE1D31DC EQ PUSH2 0x114 JUMPI PUSH4 0x33131570 EQ PUSH2 0x33 JUMPI PUSH1 0x0 DUP1 REVERT JUMPDEST CALLVALUE PUSH2 0x10D JUMPI PUSH32 0xFFFFFFFFFFFFFFFFFFFFFFFFFFFFFFFFFFFFFFFFFFFFFFFFFFFFFFFFFFFFFFFC SWAP1 PUSH1 0xA0 DUP3 CALLDATASIZE ADD SLT PUSH2 0x10D JUMPI PUSH1 0x24 CALLDATALOAD SWAP2 PUSH2 0x71 DUP4 PUSH2 0x184 JUMP JUMPDEST PUSH1 0x44 CALLDATALOAD SWAP2 PUSH8 0xFFFFFFFFFFFFFFFF SWAP2 DUP3 DUP5 GT PUSH2 0x110 JUMPI PUSH1 0xA0 SWAP1 DUP5 CALLDATASIZE SUB ADD SLT PUSH2 0x10D JUMPI PUSH1 0x64 CALLDATALOAD DUP3 DUP2 GT PUSH2 0x110 JUMPI PUSH2 0xAA SWAP1 CALLDATASIZE SWAP1 PUSH1 0x4 ADD PUSH2 0x1A7 JUMP JUMPDEST POP POP PUSH1 0x84 CALLDATALOAD SWAP2 DUP3 GT PUSH2 0x10D JUMPI PUSH2 0x109 PUSH2 0xD6 DUP6 DUP6 PUSH2 0xCB CALLDATASIZE PUSH1 0x4 DUP9 ADD PUSH2 0x1A7 JUMP JUMPDEST POP POP PUSH1 0x4 ADD SWAP1 PUSH2 0x490 JUMP JUMPDEST PUSH1 0x40 MLOAD PUSH32 0xFFFFFFFF00000000000000000000000000000000000000000000000000000000 SWAP1 SWAP2 AND DUP2 MSTORE SWAP1 DUP2 SWAP1 PUSH1 0x20 DUP3 ADD SWAP1 JUMP JUMPDEST SUB SWAP1 RETURN JUMPDEST DUP1 REVERT JUMPDEST POP DUP1 REVERT JUMPDEST POP CALLVALUE PUSH2 0x10D JUMPI PUSH1 0x80 PUSH32 0xFFFFFFFFFFFFFFFFFFFFFFFFFFFFFFFFFFFFFFFFFFFFFFFFFFFFFFFFFFFFFFFC CALLDATASIZE ADD SLT PUSH2 0x10D JUMPI PUSH2 0x14F PUSH1 0x24 CALLDATALOAD PUSH2 0x184 JUMP JUMPDEST PUSH2 0x15A PUSH1 0x44 CALLDATALOAD PUSH2 0x184 JUMP JUMPDEST PUSH32 0xE1D31DC00000000000000000000000000000000000000000000000000000000 PUSH1 0x80 MSTORE PUSH1 0x20 PUSH1 0x80 RETURN JUMPDEST PUSH20 0xFFFFFFFFFFFFFFFFFFFFFFFFFFFFFFFFFFFFFFFF DUP2 AND SUB PUSH2 0x1A2 JUMPI JUMP JUMPDEST PUSH1 0x0 DUP1 REVERT JUMPDEST SWAP2 DUP2 PUSH1 0x1F DUP5 ADD SLT ISZERO PUSH2 0x1A2 JUMPI DUP3 CALLDATALOAD SWAP2 PUSH8 0xFFFFFFFFFFFFFFFF DUP4 GT PUSH2 0x1A2 JUMPI PUSH1 0x20 DUP1 DUP6 ADD SWAP5 DUP5 PUSH1 0x5 SHL ADD ADD GT PUSH2 0x1A2 JUMPI JUMP JUMPDEST POP PUSH32 0x4E487B7100000000000000000000000000000000000000000000000000000000 PUSH1 0x0 MSTORE PUSH1 0x41 PUSH1 0x4 MSTORE PUSH1 0x24 PUSH1 0x0 REVERT JUMPDEST SWAP1 PUSH1 0x1F PUSH32 0xFFFFFFFFFFFFFFFFFFFFFFFFFFFFFFFFFFFFFFFFFFFFFFFFFFFFFFFFFFFFFFE0 SWAP2 ADD AND DUP2 ADD SWAP1 DUP2 LT PUSH8 0xFFFFFFFFFFFFFFFF DUP3 GT OR PUSH2 0x249 JUMPI PUSH1 0x40 MSTORE JUMP JUMPDEST PUSH2 0x251 PUSH2 0x1D8 JUMP JUMPDEST PUSH1 0x40 MSTORE JUMP JUMPDEST SWAP1 DUP1 PUSH1 0x1F DUP4 ADD SLT ISZERO PUSH2 0x1A2 JUMPI DUP2 CALLDATALOAD SWAP1 PUSH8 0xFFFFFFFFFFFFFFFF DUP3 GT PUSH2 0x2BE JUMPI JUMPDEST DUP2 PUSH1 0x5 SHL PUSH1 0x40 MLOAD SWAP4 PUSH1 0x20 SWAP4 PUSH2 0x28C DUP6 DUP5 ADD DUP8 PUSH2 0x208 JUMP JUMPDEST DUP6 MSTORE DUP4 DUP1 DUP7 ADD SWAP3 DUP3 ADD ADD SWAP3 DUP4 GT PUSH2 0x1A2 JUMPI DUP4 ADD SWAP1 JUMPDEST DUP3 DUP3 LT PUSH2 0x2AF JUMPI POP POP POP POP SWAP1 JUMP JUMPDEST DUP2 CALLDATALOAD DUP2 MSTORE SWAP1 DUP4 ADD SWAP1 DUP4 ADD PUSH2 0x2A1 JUMP JUMPDEST PUSH2 0x2C6 PUSH2 0x1D8 JUMP JUMPDEST PUSH2 0x275 JUMP JUMPDEST PUSH1 0x80 DUP2 DUP4 SUB SLT PUSH2 0x1A2 JUMPI DUP1 CALLDATALOAD SWAP3 PUSH8 0xFFFFFFFFFFFFFFFF SWAP3 PUSH1 0x20 DUP1 DUP5 ADD CALLDATALOAD DUP6 DUP2 GT PUSH2 0x1A2 JUMPI DUP5 ADD DUP3 PUSH1 0x1F DUP3 ADD SLT ISZERO PUSH2 0x1A2 JUMPI DUP1 CALLDATALOAD SWAP2 DUP7 DUP4 GT PUSH2 0x379 JUMPI JUMPDEST PUSH1 0x40 MLOAD SWAP3 PUSH2 0x33C DUP3 PUSH32 0xFFFFFFFFFFFFFFFFFFFFFFFFFFFFFFFFFFFFFFFFFFFFFFFFFFFFFFFFFFFFFFE0 PUSH1 0x1F DUP5 ADD AND ADD DUP6 PUSH2 0x208 JUMP JUMPDEST DUP1 DUP5 MSTORE DUP5 DUP3 DUP3 DUP6 ADD ADD GT PUSH2 0x1A2 JUMPI DUP1 DUP3 PUSH1 0x0 SWAP5 ADD DUP4 DUP7 ADD CALLDATACOPY DUP4 ADD ADD MSTORE SWAP4 PUSH1 0x40 DUP5 ADD CALLDATALOAD SWAP1 DUP2 GT PUSH2 0x1A2 JUMPI PUSH1 0x60 SWAP2 PUSH2 0x373 SWAP2 DUP6 ADD PUSH2 0x256 JUMP JUMPDEST SWAP3 ADD CALLDATALOAD SWAP1 JUMP JUMPDEST PUSH2 0x381 PUSH2 0x1D8 JUMP JUMPDEST PUSH2 0x307 JUMP JUMPDEST SWAP1 CALLDATALOAD SWAP1 PUSH32 0xFFFFFFFFFFFFFFFFFFFFFFFFFFFFFFFFFFFFFFFFFFFFFFFFFFFFFFFFFFFFFEA1 DUP2 CALLDATASIZE SUB ADD DUP3 SLT ISZERO PUSH2 0x1A2 JUMPI ADD SWAP1 JUMP JUMPDEST CALLDATALOAD PUSH2 0x3C3 DUP2 PUSH2 0x184 JUMP JUMPDEST SWAP1 JUMP JUMPDEST ISZERO PUSH2 0x3CD JUMPI JUMP JUMPDEST PUSH1 0x64 PUSH1 0x40 MLOAD PUSH32 0x8C379A000000000000000000000000000000000000000000000000000000000 DUP2 MSTORE PUSH1 0x20 PUSH1 0x4 DUP3 ADD MSTORE PUSH1 0x1F PUSH1 0x24 DUP3 ADD MSTORE PUSH32 0x657874726144617461206E6F74207369676E6564206279206F66666572657200 PUSH1 0x44 DUP3 ADD MSTORE REVERT JUMPDEST ISZERO PUSH2 0x432 JUMPI JUMP JUMPDEST PUSH1 0x64 PUSH1 0x40 MLOAD PUSH32 0x8C379A000000000000000000000000000000000000000000000000000000000 DUP2 MSTORE PUSH1 0x20 PUSH1 0x4 DUP3 ADD MSTORE PUSH1 0xD PUSH1 0x24 DUP3 ADD MSTORE PUSH32 0x496E76616C69642070726F6F6600000000000000000000000000000000000000 PUSH1 0x44 DUP3 ADD MSTORE REVERT JUMPDEST SWAP1 PUSH1 0x80 DUP2 ADD CALLDATALOAD PUSH32 0xFFFFFFFFFFFFFFFFFFFFFFFFFFFFFFFFFFFFFFFFFFFFFFFFFFFFFFFFFFFFFFE1 DUP3 CALLDATASIZE SUB ADD DUP2 SLT ISZERO PUSH2 0x1A2 JUMPI DUP2 ADD SWAP2 DUP3 CALLDATALOAD SWAP1 PUSH8 0xFFFFFFFFFFFFFFFF DUP3 GT PUSH2 0x1A2 JUMPI PUSH1 0x20 DUP5 ADD SWAP1 DUP3 CALLDATASIZE SUB DUP3 SGT PUSH2 0x1A2 JUMPI PUSH2 0x558 PUSH2 0x5CB SWAP5 PUSH20 0xFFFFFFFFFFFFFFFFFFFFFFFFFFFFFFFFFFFFFFFF PUSH2 0x550 PUSH2 0x537 PUSH2 0x520 PUSH2 0x532 SWAP8 PUSH1 0x20 PUSH2 0x52B SWAP11 PUSH2 0x5D0 SWAP14 ADD ADD SWAP1 PUSH2 0x2CB JUMP JUMPDEST SWAP10 SWAP3 SWAP11 SWAP2 SWAP1 SWAP11 PUSH2 0x5F4 JUMP JUMPDEST SWAP5 DUP1 PUSH2 0x386 JUMP JUMPDEST PUSH2 0x3B9 JUMP JUMPDEST PUSH20 0xFFFFFFFFFFFFFFFFFFFFFFFFFFFFFFFFFFFFFFFF AND SWAP1 JUMP JUMPDEST SWAP2 AND EQ PUSH2 0x3C6 JUMP JUMPDEST PUSH1 0x40 MLOAD PUSH2 0x5C2 DUP2 PUSH2 0x596 PUSH1 0x20 DUP3 ADD SWAP5 DUP6 PUSH32 0xFFFFFFFFFFFFFFFFFFFFFFFFFFFFFFFFFFFFFFFF000000000000000000000000 PUSH1 0x14 SWAP3 PUSH1 0x60 SHL AND DUP2 MSTORE ADD SWAP1 JUMP JUMPDEST SUB PUSH32 0xFFFFFFFFFFFFFFFFFFFFFFFFFFFFFFFFFFFFFFFFFFFFFFFFFFFFFFFFFFFFFFE0 DUP2 ADD DUP4 MSTORE DUP3 PUSH2 0x208 JUMP JUMPDEST MLOAD SWAP1 KECCAK256 SWAP2 PUSH2 0xA16 JUMP JUMPDEST PUSH2 0x42B JUMP JUMPDEST PUSH32 0xE1D31DC00000000000000000000000000000000000000000000000000000000 SWAP1 JUMP JUMPDEST PUSH2 0x3C3 SWAP2 PUSH2 0x601 SWAP2 PUSH2 0x861 JUMP JUMPDEST SWAP2 SWAP1 SWAP2 PUSH2 0x642 JUMP JUMPDEST PUSH1 0x5 GT ISZERO PUSH2 0x613 JUMPI JUMP JUMPDEST PUSH32 0x4E487B7100000000000000000000000000000000000000000000000000000000 PUSH1 0x0 MSTORE PUSH1 0x21 PUSH1 0x4 MSTORE PUSH1 0x24 PUSH1 0x0 REVERT JUMPDEST PUSH2 0x64B DUP2 PUSH2 0x609 JUMP JUMPDEST DUP1 PUSH2 0x653 JUMPI POP JUMP JUMPDEST PUSH2 0x65C DUP2 PUSH2 0x609 JUMP JUMPDEST PUSH1 0x1 DUP2 SUB PUSH2 0x6C3 JUMPI PUSH1 0x40 MLOAD PUSH32 0x8C379A000000000000000000000000000000000000000000000000000000000 DUP2 MSTORE PUSH1 0x20 PUSH1 0x4 DUP3 ADD MSTORE PUSH1 0x18 PUSH1 0x24 DUP3 ADD MSTORE PUSH32 0x45434453413A20696E76616C6964207369676E61747572650000000000000000 PUSH1 0x44 DUP3 ADD MSTORE PUSH1 0x64 SWAP1 REVERT JUMPDEST PUSH2 0x6CC DUP2 PUSH2 0x609 JUMP JUMPDEST PUSH1 0x2 DUP2 SUB PUSH2 0x733 JUMPI PUSH1 0x40 MLOAD PUSH32 0x8C379A000000000000000000000000000000000000000000000000000000000 DUP2 MSTORE PUSH1 0x20 PUSH1 0x4 DUP3 ADD MSTORE PUSH1 0x1F PUSH1 0x24 DUP3 ADD MSTORE PUSH32 0x45434453413A20696E76616C6964207369676E6174757265206C656E67746800 PUSH1 0x44 DUP3 ADD MSTORE PUSH1 0x64 SWAP1 REVERT JUMPDEST PUSH2 0x73C DUP2 PUSH2 0x609 JUMP JUMPDEST PUSH1 0x3 DUP2 SUB PUSH2 0x7C9 JUMPI PUSH1 0x40 MLOAD PUSH32 0x8C379A000000000000000000000000000000000000000000000000000000000 DUP2 MSTORE PUSH1 0x20 PUSH1 0x4 DUP3 ADD MSTORE PUSH1 0x22 PUSH1 0x24 DUP3 ADD MSTORE PUSH32 0x45434453413A20696E76616C6964207369676E6174757265202773272076616C PUSH1 0x44 DUP3 ADD MSTORE PUSH32 0x7565000000000000000000000000000000000000000000000000000000000000 PUSH1 0x64 DUP3 ADD MSTORE PUSH1 0x84 SWAP1 REVERT JUMPDEST DUP1 PUSH2 0x7D5 PUSH1 0x4 SWAP3 PUSH2 0x609 JUMP JUMPDEST EQ PUSH2 0x7DC JUMPI JUMP JUMPDEST PUSH1 0x40 MLOAD PUSH32 0x8C379A000000000000000000000000000000000000000000000000000000000 DUP2 MSTORE PUSH1 0x20 PUSH1 0x4 DUP3 ADD MSTORE PUSH1 0x22 PUSH1 0x24 DUP3 ADD MSTORE PUSH32 0x45434453413A20696E76616C6964207369676E6174757265202776272076616C PUSH1 0x44 DUP3 ADD MSTORE PUSH32 0x7565000000000000000000000000000000000000000000000000000000000000 PUSH1 0x64 DUP3 ADD MSTORE PUSH1 0x84 SWAP1 REVERT JUMPDEST DUP2 MLOAD PUSH1 0x41 DUP2 SUB PUSH2 0x88E JUMPI POP SWAP1 PUSH2 0x88A SWAP2 PUSH1 0x20 DUP3 ADD MLOAD SWAP1 PUSH1 0x60 PUSH1 0x40 DUP5 ADD MLOAD SWAP4 ADD MLOAD PUSH1 0x0 BYTE SWAP1 PUSH2 0x953 JUMP JUMPDEST SWAP1 SWAP2 JUMP JUMPDEST PUSH1 0x40 SUB PUSH2 0x90C JUMPI DUP2 PUSH1 0x40 PUSH1 0x20 PUSH2 0x88A SWAP5 ADD MLOAD SWAP2 ADD MLOAD SWAP2 PUSH1 0xFF PUSH1 0x1B PUSH32 0x7FFFFFFFFFFFFFFFFFFFFFFFFFFFFFFFFFFFFFFFFFFFFFFFFFFFFFFFFFFFFFFF DUP6 DUP4 SHR SWAP6 PUSH32 0xFFFFFFFFFFFFFFFFFFFFFFFFFFFFFFFFFFFFFFFFFFFFFFFFFFFFFFFFFFFFFFE4 DUP8 GT PUSH2 0x8FF JUMPI JUMPDEST AND SWAP5 ADD AND SWAP1 PUSH2 0x953 JUMP JUMPDEST PUSH2 0x907 PUSH2 0x916 JUMP JUMPDEST PUSH2 0x8F5 JUMP JUMPDEST POP POP PUSH1 0x0 SWAP1 PUSH1 0x2 SWAP1 JUMP JUMPDEST POP PUSH32 0x4E487B7100000000000000000000000000000000000000000000000000000000 PUSH1 0x0 MSTORE PUSH1 0x11 PUSH1 0x4 MSTORE PUSH1 0x24 PUSH1 0x0 REVERT JUMPDEST POP PUSH1 0x40 MLOAD RETURNDATASIZE PUSH1 0x0 DUP3 RETURNDATACOPY RETURNDATASIZE SWAP1 REVERT JUMPDEST SWAP3 SWAP2 SWAP1 PUSH32 0x7FFFFFFFFFFFFFFFFFFFFFFFFFFFFFFF5D576E7357A4501DDFE92F46681B20A0 DUP4 GT PUSH2 0xA0A JUMPI PUSH1 0xFF AND PUSH1 0x1B DUP2 EQ ISZERO DUP1 PUSH2 0x9FF JUMPI JUMPDEST PUSH2 0x9F3 JUMPI SWAP2 PUSH1 0x80 SWAP5 SWAP4 SWAP2 PUSH1 0x20 SWAP4 PUSH1 0x40 MLOAD SWAP4 DUP5 MSTORE DUP5 DUP5 ADD MSTORE PUSH1 0x40 DUP4 ADD MSTORE PUSH1 0x60 DUP3 ADD MSTORE PUSH1 0x0 SWAP4 DUP5 SWAP2 DUP3 DUP1 MSTORE PUSH1 0x1 GAS STATICCALL ISZERO PUSH2 0x9E6 JUMPI JUMPDEST DUP2 MLOAD PUSH20 0xFFFFFFFFFFFFFFFFFFFFFFFFFFFFFFFFFFFFFFFF DUP2 AND ISZERO PUSH2 0x9E0 JUMPI SWAP2 SWAP1 JUMP JUMPDEST POP PUSH1 0x1 SWAP1 JUMP JUMPDEST PUSH2 0x9EE PUSH2 0x946 JUMP JUMPDEST PUSH2 0x9BE JUMP JUMPDEST POP POP POP POP PUSH1 0x0 SWAP1 PUSH1 0x4 SWAP1 JUMP JUMPDEST POP PUSH1 0x1C DUP2 EQ ISZERO PUSH2 0x98B JUMP JUMPDEST POP POP POP POP PUSH1 0x0 SWAP1 PUSH1 0x3 SWAP1 JUMP JUMPDEST SWAP1 SWAP2 SWAP1 PUSH1 0x0 SWAP2 JUMPDEST DUP2 MLOAD DUP4 LT ISZERO PUSH2 0xA95 JUMPI PUSH1 0x20 PUSH1 0x5 DUP5 SWAP1 SHL DUP4 ADD DUP2 ADD MLOAD SWAP2 DUP3 DUP2 GT PUSH2 0xA83 JUMPI PUSH1 0x0 MSTORE MSTORE PUSH1 0x1 PUSH1 0x40 PUSH1 0x0 KECCAK256 SWAP3 JUMPDEST PUSH32 0xFFFFFFFFFFFFFFFFFFFFFFFFFFFFFFFFFFFFFFFFFFFFFFFFFFFFFFFFFFFFFFFF DUP2 EQ PUSH2 0xA76 JUMPI JUMPDEST ADD SWAP2 PUSH2 0xA1D JUMP JUMPDEST PUSH2 0xA7E PUSH2 0x916 JUMP JUMPDEST PUSH2 0xA6F JUMP JUMPDEST SWAP2 PUSH1 0x0 MSTORE MSTORE PUSH1 0x1 PUSH1 0x40 PUSH1 0x0 KECCAK256 SWAP3 PUSH2 0xA47 JUMP JUMPDEST SWAP2 POP POP EQ SWAP1 JUMP INVALID LOG2 PUSH5 0x6970667358 0x22 SLT KECCAK256 0xD0 EXP CODESIZE 0xBF 0xAD 0x2B GAS 0xDA PUSH19 0x9D7CC76B30349FF1B9E03774EEFA834D40AA1D REVERT 0x2B 0x27 0xAD PUSH5 0x736F6C6343 STOP ADDMOD 0xE STOP CALLER "
        },
        "methodIdentifiers": {
          "isValidOrder(bytes32,address,address,bytes32)": "0e1d31dc",
          "isValidOrderIncludingExtraData(bytes32,address,((address,address,(uint8,address,uint256,uint256,uint256)[],(uint8,address,uint256,uint256,uint256,address)[],uint8,uint256,uint256,bytes32,uint256,bytes32,uint256),uint120,uint120,bytes,bytes),bytes32[],(uint256,uint8,uint256,uint256,bytes32[])[])": "33131570"
        }
      }
    }
  }
}