{
  "contracts/test/ExcessReturnDataRecipient.sol": {
    "ExcessReturnDataRecipient": {
      "abi": [
        {
          "inputs": [
            {
              "internalType": "address",
              "name": "",
              "type": "address"
            },
            {
              "internalType": "address",
              "name": "",
              "type": "address"
            },
            {
              "internalType": "uint256",
              "name": "",
              "type": "uint256"
            },
            {
              "internalType": "uint256",
              "name": "",
              "type": "uint256"
            },
            {
              "internalType": "bytes",
              "name": "",
              "type": "bytes"
            }
          ],
          "name": "onERC1155Received",
          "outputs": [
            {
              "internalType": "bytes4",
              "name": "magic",
              "type": "bytes4"
            }
          ],
          "stateMutability": "view",
          "type": "function"
        },
        {
          "inputs": [
            {
              "internalType": "uint256",
              "name": "size",
              "type": "uint256"
            }
          ],
          "name": "setRevertDataSize",
          "outputs": [],
          "stateMutability": "nonpayable",
          "type": "function"
        },
        {
          "stateMutability": "payable",
          "type": "receive"
        }
      ],
      "evm": {
        "bytecode": {
          "linkReferences": {},
          "object": "6080806040523461001657610850908161001c8239f35b600080fdfe60806040526004361015610023575b361561001957600080fd5b6100216105c2565b005b6000803560e01c8063e998da54146101045763f23a6e6114610045575061000e565b346100fd5760a07ffffffffffffffffffffffffffffffffffffffffffffffffffffffffffffffffc3601126100fd5761007c61013d565b50610085610165565b5060843567ffffffffffffffff808211610100573660238301121561010057816004013590811161010057369101602401116100fd576100f96100c6610260565b6040517fffffffff0000000000000000000000000000000000000000000000000000000090911681529081906020820190565b0390f35b80fd5b8280fd5b50346100fd5760207ffffffffffffffffffffffffffffffffffffffffffffffffffffffffffffffffc3601126100fd5760043581556080f35b6004359073ffffffffffffffffffffffffffffffffffffffff8216820361016057565b600080fd5b6024359073ffffffffffffffffffffffffffffffffffffffff8216820361016057565b507f4e487b7100000000000000000000000000000000000000000000000000000000600052601160045260246000fd5b7e1fffffffffffffffffffffffffffffffffffffffffffffffffffffffffffff81116001166101e8575b600b1b90565b6101f0610188565b6101e2565b628fe800907fffffffffffffffffffffffffffffffffffffffffffffffffffffffffff7017ff8111610225570190565b61022d610188565b0190565b7ffffffffffffffffffffffffffffffffffffffffffffffffffffffffffffff40090610c008110610225570190565b7ff23a6e61000000000000000000000000000000000000000000000000000000009060005461028b57565b7fffffffffffffffffffffffffffffffffffffffffffffffffffffffffffffffe061054661054161053c6105377ffffffffffffffffffffffffffffffffffffffffffffffffffffffffffffffb506104cd5a662386f26fc100006633413c26506520917f80000000000000000000000000000000000000000000000000000000000000007fffffffffffffffffffffffffffffffffffffffffffffffffffffffffffffffff82018060011c178060021c178060041c178060081c178060101c178060201c178060401c177e818283848586878898a8b8c8d8e8f929395969799a9b9d9e9faaeb6bedeeff6001604051927ff8f9cbfae6cc78fbefe7cdc3a1793dfcf4f0e8bbd8cec470b6a28a7a5a3e1efd84527ff5ecf1b3e9debc68e1d9cfabc5997135bfb7a7a3938b7b606b5b4b3f2f1f0ffe60208501527ff6e4ed9ff2d6b458eadcdf97bd91692de2d4da8fd2d0ac50c6ae9a827252361660408501527fc8c0b887b0a8a4489c948c7f847c6125746c645c544c444038302820181008ff60608501527ff7cae577eec2a03cf3bad76fb589591debb2dd67e0aa9834bea6925f6a4a2e0e60808501527fe39ed557db96902cd38ed14fad815115c786af479b7e8324736353433727170760a08501527fc976c13bb96e881cb166a933a55e490d9d56952b8d4e801485467d236242260660c08501527f753a6d1b65325d0c552a4d1345224105391a310b29122104190a11030902010060e085015261010084016040528060801c17010260f81c60ff03015160f81c911160081b01020490565b7f04bda12f684bda12f684bda12f684bda12f684bda12f684bda12f684bda12f68811160011661056d575b6036027ffffffffffffffffffffffffffffffffffffffffffffffffffffffffffffffb4f8111610560575b5a6104b082018110610553575b03016101b8565b6101f5565b61057a565b610231565b60031b1680600080376000fd5b61055b610188565b610530565b610568610188565b610523565b610575610188565b6104f8565b9060009160038111908160011461059957501561059357565b60019150565b925050816001808201811c915b8483106105b257505050565b9193508382048401811c916105a6565b6000546105cb57565b7fffffffffffffffffffffffffffffffffffffffffffffffffffffffffffffffe061080d61054161053c6105377ffffffffffffffffffffffffffffffffffffffffffffffffffffffffffffffb506104cd5a662386f26fc100006633413c26506520917f80000000000000000000000000000000000000000000000000000000000000007fffffffffffffffffffffffffffffffffffffffffffffffffffffffffffffffff82018060011c178060021c178060041c178060081c178060101c178060201c178060401c177e818283848586878898a8b8c8d8e8f929395969799a9b9d9e9faaeb6bedeeff6001604051927ff8f9cbfae6cc78fbefe7cdc3a1793dfcf4f0e8bbd8cec470b6a28a7a5a3e1efd84527ff5ecf1b3e9debc68e1d9cfabc5997135bfb7a7a3938b7b606b5b4b3f2f1f0ffe60208501527ff6e4ed9ff2d6b458eadcdf97bd91692de2d4da8fd2d0ac50c6ae9a827252361660408501527fc8c0b887b0a8a4489c948c7f847c6125746c645c544c444038302820181008ff60608501527ff7cae577eec2a03cf3bad76fb589591debb2dd67e0aa9834bea6925f6a4a2e0e60808501527fe39ed557db96902cd38ed14fad815115c786af479b7e8324736353433727170760a08501527fc976c13bb96e881cb166a933a55e490d9d56952b8d4e801485467d236242260660c08501527f753a6d1b65325d0c552a4d1345224105391a310b29122104190a11030902010060e085015261010084016040528060801c17010260f81c60ff03015160f81c911160081b01020490565b60041b1680600080376000fdfea26469706673582212206d9cfbf3a2a3c7914276728dc5350462f870fa7f6037cf7641dbc1ec9f785df864736f6c634300080e0033",
          "opcodes": "PUSH1 0x80 DUP1 PUSH1 0x40 MSTORE CALLVALUE PUSH2 0x16 JUMPI PUSH2 0x850 SWAP1 DUP2 PUSH2 0x1C DUP3 CODECOPY RETURN JUMPDEST PUSH1 0x0 DUP1 REVERT INVALID PUSH1 0x80 PUSH1 0x40 MSTORE PUSH1 0x4 CALLDATASIZE LT ISZERO PUSH2 0x23 JUMPI JUMPDEST CALLDATASIZE ISZERO PUSH2 0x19 JUMPI PUSH1 0x0 DUP1 REVERT JUMPDEST PUSH2 0x21 PUSH2 0x5C2 JUMP JUMPDEST STOP JUMPDEST PUSH1 0x0 DUP1 CALLDATALOAD PUSH1 0xE0 SHR DUP1 PUSH4 0xE998DA54 EQ PUSH2 0x104 JUMPI PUSH4 0xF23A6E61 EQ PUSH2 0x45 JUMPI POP PUSH2 0xE JUMP JUMPDEST CALLVALUE PUSH2 0xFD JUMPI PUSH1 0xA0 PUSH32 0xFFFFFFFFFFFFFFFFFFFFFFFFFFFFFFFFFFFFFFFFFFFFFFFFFFFFFFFFFFFFFFFC CALLDATASIZE ADD SLT PUSH2 0xFD JUMPI PUSH2 0x7C PUSH2 0x13D JUMP JUMPDEST POP PUSH2 0x85 PUSH2 0x165 JUMP JUMPDEST POP PUSH1 0x84 CALLDATALOAD PUSH8 0xFFFFFFFFFFFFFFFF DUP1 DUP3 GT PUSH2 0x100 JUMPI CALLDATASIZE PUSH1 0x23 DUP4 ADD SLT ISZERO PUSH2 0x100 JUMPI DUP2 PUSH1 0x4 ADD CALLDATALOAD SWAP1 DUP2 GT PUSH2 0x100 JUMPI CALLDATASIZE SWAP2 ADD PUSH1 0x24 ADD GT PUSH2 0xFD JUMPI PUSH2 0xF9 PUSH2 0xC6 PUSH2 0x260 JUMP JUMPDEST PUSH1 0x40 MLOAD PUSH32 0xFFFFFFFF00000000000000000000000000000000000000000000000000000000 SWAP1 SWAP2 AND DUP2 MSTORE SWAP1 DUP2 SWAP1 PUSH1 0x20 DUP3 ADD SWAP1 JUMP JUMPDEST SUB SWAP1 RETURN JUMPDEST DUP1 REVERT JUMPDEST DUP3 DUP1 REVERT JUMPDEST POP CALLVALUE PUSH2 0xFD JUMPI PUSH1 0x20 PUSH32 0xFFFFFFFFFFFFFFFFFFFFFFFFFFFFFFFFFFFFFFFFFFFFFFFFFFFFFFFFFFFFFFFC CALLDATASIZE ADD SLT PUSH2 0xFD JUMPI PUSH1 0x4 CALLDATALOAD DUP2 SSTORE PUSH1 0x80 RETURN JUMPDEST PUSH1 0x4 CALLDATALOAD SWAP1 PUSH20 0xFFFFFFFFFFFFFFFFFFFFFFFFFFFFFFFFFFFFFFFF DUP3 AND DUP3 SUB PUSH2 0x160 JUMPI JUMP JUMPDEST PUSH1 0x0 DUP1 REVERT JUMPDEST PUSH1 0x24 CALLDATALOAD SWAP1 PUSH20 0xFFFFFFFFFFFFFFFFFFFFFFFFFFFFFFFFFFFFFFFF DUP3 AND DUP3 SUB PUSH2 0x160 JUMPI JUMP JUMPDEST POP PUSH32 0x4E487B7100000000000000000000000000000000000000000000000000000000 PUSH1 0x0 MSTORE PUSH1 0x11 PUSH1 0x4 MSTORE PUSH1 0x24 PUSH1 0x0 REVERT JUMPDEST PUSH31 0x1FFFFFFFFFFFFFFFFFFFFFFFFFFFFFFFFFFFFFFFFFFFFFFFFFFFFFFFFFFFFF DUP2 GT PUSH1 0x1 AND PUSH2 0x1E8 JUMPI JUMPDEST PUSH1 0xB SHL SWAP1 JUMP JUMPDEST PUSH2 0x1F0 PUSH2 0x188 JUMP JUMPDEST PUSH2 0x1E2 JUMP JUMPDEST PUSH3 0x8FE800 SWAP1 PUSH32 0xFFFFFFFFFFFFFFFFFFFFFFFFFFFFFFFFFFFFFFFFFFFFFFFFFFFFFFFFFF7017FF DUP2 GT PUSH2 0x225 JUMPI ADD SWAP1 JUMP JUMPDEST PUSH2 0x22D PUSH2 0x188 JUMP JUMPDEST ADD SWAP1 JUMP JUMPDEST PUSH32 0xFFFFFFFFFFFFFFFFFFFFFFFFFFFFFFFFFFFFFFFFFFFFFFFFFFFFFFFFFFFFF400 SWAP1 PUSH2 0xC00 DUP2 LT PUSH2 0x225 JUMPI ADD SWAP1 JUMP JUMPDEST PUSH32 0xF23A6E6100000000000000000000000000000000000000000000000000000000 SWAP1 PUSH1 0x0 SLOAD PUSH2 0x28B JUMPI JUMP JUMPDEST PUSH32 0xFFFFFFFFFFFFFFFFFFFFFFFFFFFFFFFFFFFFFFFFFFFFFFFFFFFFFFFFFFFFFFE0 PUSH2 0x546 PUSH2 0x541 PUSH2 0x53C PUSH2 0x537 PUSH32 0xFFFFFFFFFFFFFFFFFFFFFFFFFFFFFFFFFFFFFFFFFFFFFFFFFFFFFFFFFFFFFB50 PUSH2 0x4CD GAS PUSH7 0x2386F26FC10000 PUSH7 0x33413C26506520 SWAP2 PUSH32 0x8000000000000000000000000000000000000000000000000000000000000000 PUSH32 0xFFFFFFFFFFFFFFFFFFFFFFFFFFFFFFFFFFFFFFFFFFFFFFFFFFFFFFFFFFFFFFFF DUP3 ADD DUP1 PUSH1 0x1 SHR OR DUP1 PUSH1 0x2 SHR OR DUP1 PUSH1 0x4 SHR OR DUP1 PUSH1 0x8 SHR OR DUP1 PUSH1 0x10 SHR OR DUP1 PUSH1 0x20 SHR OR DUP1 PUSH1 0x40 SHR OR PUSH31 0x818283848586878898A8B8C8D8E8F929395969799A9B9D9E9FAAEB6BEDEEFF PUSH1 0x1 PUSH1 0x40 MLOAD SWAP3 PUSH32 0xF8F9CBFAE6CC78FBEFE7CDC3A1793DFCF4F0E8BBD8CEC470B6A28A7A5A3E1EFD DUP5 MSTORE PUSH32 0xF5ECF1B3E9DEBC68E1D9CFABC5997135BFB7A7A3938B7B606B5B4B3F2F1F0FFE PUSH1 0x20 DUP6 ADD MSTORE PUSH32 0xF6E4ED9FF2D6B458EADCDF97BD91692DE2D4DA8FD2D0AC50C6AE9A8272523616 PUSH1 0x40 DUP6 ADD MSTORE PUSH32 0xC8C0B887B0A8A4489C948C7F847C6125746C645C544C444038302820181008FF PUSH1 0x60 DUP6 ADD MSTORE PUSH32 0xF7CAE577EEC2A03CF3BAD76FB589591DEBB2DD67E0AA9834BEA6925F6A4A2E0E PUSH1 0x80 DUP6 ADD MSTORE PUSH32 0xE39ED557DB96902CD38ED14FAD815115C786AF479B7E83247363534337271707 PUSH1 0xA0 DUP6 ADD MSTORE PUSH32 0xC976C13BB96E881CB166A933A55E490D9D56952B8D4E801485467D2362422606 PUSH1 0xC0 DUP6 ADD MSTORE PUSH32 0x753A6D1B65325D0C552A4D1345224105391A310B29122104190A110309020100 PUSH1 0xE0 DUP6 ADD MSTORE PUSH2 0x100 DUP5 ADD PUSH1 0x40 MSTORE DUP1 PUSH1 0x80 SHR OR ADD MUL PUSH1 0xF8 SHR PUSH1 0xFF SUB ADD MLOAD PUSH1 0xF8 SHR SWAP2 GT PUSH1 0x8 SHL ADD MUL DIV SWAP1 JUMP JUMPDEST PUSH32 0x4BDA12F684BDA12F684BDA12F684BDA12F684BDA12F684BDA12F684BDA12F68 DUP2 GT PUSH1 0x1 AND PUSH2 0x56D JUMPI JUMPDEST PUSH1 0x36 MUL PUSH32 0xFFFFFFFFFFFFFFFFFFFFFFFFFFFFFFFFFFFFFFFFFFFFFFFFFFFFFFFFFFFFFB4F DUP2 GT PUSH2 0x560 JUMPI JUMPDEST GAS PUSH2 0x4B0 DUP3 ADD DUP2 LT PUSH2 0x553 JUMPI JUMPDEST SUB ADD PUSH2 0x1B8 JUMP JUMPDEST PUSH2 0x1F5 JUMP JUMPDEST PUSH2 0x57A JUMP JUMPDEST PUSH2 0x231 JUMP JUMPDEST PUSH1 0x3 SHL AND DUP1 PUSH1 0x0 DUP1 CALLDATACOPY PUSH1 0x0 REVERT JUMPDEST PUSH2 0x55B PUSH2 0x188 JUMP JUMPDEST PUSH2 0x530 JUMP JUMPDEST PUSH2 0x568 PUSH2 0x188 JUMP JUMPDEST PUSH2 0x523 JUMP JUMPDEST PUSH2 0x575 PUSH2 0x188 JUMP JUMPDEST PUSH2 0x4F8 JUMP JUMPDEST SWAP1 PUSH1 0x0 SWAP2 PUSH1 0x3 DUP2 GT SWAP1 DUP2 PUSH1 0x1 EQ PUSH2 0x599 JUMPI POP ISZERO PUSH2 0x593 JUMPI JUMP JUMPDEST PUSH1 0x1 SWAP2 POP JUMP JUMPDEST SWAP3 POP POP DUP2 PUSH1 0x1 DUP1 DUP3 ADD DUP2 SHR SWAP2 JUMPDEST DUP5 DUP4 LT PUSH2 0x5B2 JUMPI POP POP POP JUMP JUMPDEST SWAP2 SWAP4 POP DUP4 DUP3 DIV DUP5 ADD DUP2 SHR SWAP2 PUSH2 0x5A6 JUMP JUMPDEST PUSH1 0x0 SLOAD PUSH2 0x5CB JUMPI JUMP JUMPDEST PUSH32 0xFFFFFFFFFFFFFFFFFFFFFFFFFFFFFFFFFFFFFFFFFFFFFFFFFFFFFFFFFFFFFFE0 PUSH2 0x80D PUSH2 0x541 PUSH2 0x53C PUSH2 0x537 PUSH32 0xFFFFFFFFFFFFFFFFFFFFFFFFFFFFFFFFFFFFFFFFFFFFFFFFFFFFFFFFFFFFFB50 PUSH2 0x4CD GAS PUSH7 0x2386F26FC10000 PUSH7 0x33413C26506520 SWAP2 PUSH32 0x8000000000000000000000000000000000000000000000000000000000000000 PUSH32 0xFFFFFFFFFFFFFFFFFFFFFFFFFFFFFFFFFFFFFFFFFFFFFFFFFFFFFFFFFFFFFFFF DUP3 ADD DUP1 PUSH1 0x1 SHR OR DUP1 PUSH1 0x2 SHR OR DUP1 PUSH1 0x4 SHR OR DUP1 PUSH1 0x8 SHR OR DUP1 PUSH1 0x10 SHR OR DUP1 PUSH1 0x20 SHR OR DUP1 PUSH1 0x40 SHR OR PUSH31 0x818283848586878898A8B8C8D8E8F929395969799A9B9D9E9FAAEB6BEDEEFF PUSH1 0x1 PUSH1 0x40 MLOAD SWAP3 PUSH32 0xF8F9CBFAE6CC78FBEFE7CDC3A1793DFCF4F0E8BBD8CEC470B6A28A7A5A3E1EFD DUP5 MSTORE PUSH32 0xF5ECF1B3E9DEBC68E1D9CFABC5997135BFB7A7A3938B7B606B5B4B3F2F1F0FFE PUSH1 0x20 DUP6 ADD MSTORE PUSH32 0xF6E4ED9FF2D6B458EADCDF97BD91692DE2D4DA8FD2D0AC50C6AE9A8272523616 PUSH1 0x40 DUP6 ADD MSTORE PUSH32 0xC8C0B887B0A8A4489C948C7F847C6125746C645C544C444038302820181008FF PUSH1 0x60 DUP6 ADD MSTORE PUSH32 0xF7CAE577EEC2A03CF3BAD76FB589591DEBB2DD67E0AA9834BEA6925F6A4A2E0E PUSH1 0x80 DUP6 ADD MSTORE PUSH32 0xE39ED557DB96902CD38ED14FAD815115C786AF479B7E83247363534337271707 PUSH1 0xA0 DUP6 ADD MSTORE PUSH32 0xC976C13BB96E881CB166A933A55E490D9D56952B8D4E801485467D2362422606 PUSH1 0xC0 DUP6 ADD MSTORE PUSH32 0x753A6D1B65325D0C552A4D1345224105391A310B29122104190A110309020100 PUSH1 0xE0 DUP6 ADD MSTORE PUSH2 0x100 DUP5 ADD PUSH1 0x40 MSTORE DUP1 PUSH1 0x80 SHR OR ADD MUL PUSH1 0xF8 SHR PUSH1 0xFF SUB ADD MLOAD PUSH1 0xF8 SHR SWAP2 GT PUSH1 0x8 SHL ADD MUL DIV SWAP1 JUMP JUMPDEST PUSH1 0x4 SHL AND DUP1 PUSH1 0x0 DUP1 CALLDATACOPY PUSH1 0x0 REVERT INVALID LOG2 PUSH5 0x6970667358 0x22 SLT KECCAK256 PUSH14 0x9CFBF3A2A3C7914276728DC53504 PUSH3 0xF870FA PUSH32 0x6037CF7641DBC1EC9F785DF864736F6C634300080E0033000000000000000000 "
        },
        "methodIdentifiers": {
          "onERC1155Received(address,address,uint256,uint256,bytes)": "f23a6e61",
          "setRevertDataSize(uint256)": "e998da54"
        }
      }
    }
  }
}