{
  "contracts/test/TestERC1155.sol": {
    "TestERC1155": {
      "abi": [
        {
          "anonymous": false,
          "inputs": [
            {
              "indexed": true,
              "internalType": "address",
              "name": "owner",
              "type": "address"
            },
            {
              "indexed": true,
              "internalType": "address",
              "name": "operator",
              "type": "address"
            },
            {
              "indexed": false,
              "internalType": "bool",
              "name": "approved",
              "type": "bool"
            }
          ],
          "name": "ApprovalForAll",
          "type": "event"
        },
        {
          "anonymous": false,
          "inputs": [
            {
              "indexed": true,
              "internalType": "address",
              "name": "operator",
              "type": "address"
            },
            {
              "indexed": true,
              "internalType": "address",
              "name": "from",
              "type": "address"
            },
            {
              "indexed": true,
              "internalType": "address",
              "name": "to",
              "type": "address"
            },
            {
              "indexed": false,
              "internalType": "uint256[]",
              "name": "ids",
              "type": "uint256[]"
            },
            {
              "indexed": false,
              "internalType": "uint256[]",
              "name": "amounts",
              "type": "uint256[]"
            }
          ],
          "name": "TransferBatch",
          "type": "event"
        },
        {
          "anonymous": false,
          "inputs": [
            {
              "indexed": true,
              "internalType": "address",
              "name": "operator",
              "type": "address"
            },
            {
              "indexed": true,
              "internalType": "address",
              "name": "from",
              "type": "address"
            },
            {
              "indexed": true,
              "internalType": "address",
              "name": "to",
              "type": "address"
            },
            {
              "indexed": false,
              "internalType": "uint256",
              "name": "id",
              "type": "uint256"
            },
            {
              "indexed": false,
              "internalType": "uint256",
              "name": "amount",
              "type": "uint256"
            }
          ],
          "name": "TransferSingle",
          "type": "event"
        },
        {
          "anonymous": false,
          "inputs": [
            {
              "indexed": false,
              "internalType": "string",
              "name": "value",
              "type": "string"
            },
            {
              "indexed": true,
              "internalType": "uint256",
              "name": "id",
              "type": "uint256"
            }
          ],
          "name": "URI",
          "type": "event"
        },
        {
          "inputs": [
            {
              "internalType": "address",
              "name": "",
              "type": "address"
            },
            {
              "internalType": "uint256",
              "name": "",
              "type": "uint256"
            }
          ],
          "name": "balanceOf",
          "outputs": [
            {
              "internalType": "uint256",
              "name": "",
              "type": "uint256"
            }
          ],
          "stateMutability": "view",
          "type": "function"
        },
        {
          "inputs": [
            {
              "internalType": "address[]",
              "name": "owners",
              "type": "address[]"
            },
            {
              "internalType": "uint256[]",
              "name": "ids",
              "type": "uint256[]"
            }
          ],
          "name": "balanceOfBatch",
          "outputs": [
            {
              "internalType": "uint256[]",
              "name": "balances",
              "type": "uint256[]"
            }
          ],
          "stateMutability": "view",
          "type": "function"
        },
        {
          "inputs": [
            {
              "internalType": "address",
              "name": "",
              "type": "address"
            },
            {
              "internalType": "address",
              "name": "",
              "type": "address"
            }
          ],
          "name": "isApprovedForAll",
          "outputs": [
            {
              "internalType": "bool",
              "name": "",
              "type": "bool"
            }
          ],
          "stateMutability": "view",
          "type": "function"
        },
        {
          "inputs": [
            {
              "internalType": "address",
              "name": "to",
              "type": "address"
            },
            {
              "internalType": "uint256",
              "name": "tokenId",
              "type": "uint256"
            },
            {
              "internalType": "uint256",
              "name": "amount",
              "type": "uint256"
            }
          ],
          "name": "mint",
          "outputs": [
            {
              "internalType": "bool",
              "name": "",
              "type": "bool"
            }
          ],
          "stateMutability": "nonpayable",
          "type": "function"
        },
        {
          "inputs": [
            {
              "internalType": "address",
              "name": "from",
              "type": "address"
            },
            {
              "internalType": "address",
              "name": "to",
              "type": "address"
            },
            {
              "internalType": "uint256[]",
              "name": "ids",
              "type": "uint256[]"
            },
            {
              "internalType": "uint256[]",
              "name": "amounts",
              "type": "uint256[]"
            },
            {
              "internalType": "bytes",
              "name": "data",
              "type": "bytes"
            }
          ],
          "name": "safeBatchTransferFrom",
          "outputs": [],
          "stateMutability": "nonpayable",
          "type": "function"
        },
        {
          "inputs": [
            {
              "internalType": "address",
              "name": "from",
              "type": "address"
            },
            {
              "internalType": "address",
              "name": "to",
              "type": "address"
            },
            {
              "internalType": "uint256",
              "name": "id",
              "type": "uint256"
            },
            {
              "internalType": "uint256",
              "name": "amount",
              "type": "uint256"
            },
            {
              "internalType": "bytes",
              "name": "data",
              "type": "bytes"
            }
          ],
          "name": "safeTransferFrom",
          "outputs": [],
          "stateMutability": "nonpayable",
          "type": "function"
        },
        {
          "inputs": [
            {
              "internalType": "address",
              "name": "operator",
              "type": "address"
            },
            {
              "internalType": "bool",
              "name": "approved",
              "type": "bool"
            }
          ],
          "name": "setApprovalForAll",
          "outputs": [],
          "stateMutability": "nonpayable",
          "type": "function"
        },
        {
          "inputs": [
            {
              "internalType": "bytes4",
              "name": "interfaceId",
              "type": "bytes4"
            }
          ],
          "name": "supportsInterface",
          "outputs": [
            {
              "internalType": "bool",
              "name": "",
              "type": "bool"
            }
          ],
          "stateMutability": "pure",
          "type": "function"
        },
        {
          "inputs": [
            {
              "internalType": "uint256",
              "name": "",
              "type": "uint256"
            }
          ],
          "name": "uri",
          "outputs": [
            {
              "internalType": "string",
              "name": "",
              "type": "string"
            }
          ],
          "stateMutability": "pure",
          "type": "function"
        }
      ],
      "evm": {
        "bytecode": {
          "linkReferences": {},
          "object": "608080604052346100165761127a908161001c8239f35b600080fdfe608080604052600436101561001357600080fd5b6000803560e01c918262fdd58e146100cb575050806301ffc9a7146100c25780630e89341c146100b9578063156e29f6146100b05780632eb2c2d6146100a75780634e1273f41461009e578063a22cb46514610095578063e985e9c51461008c5763f242432a14610084575b600080fd5b61007f610c78565b5061007f610bdd565b5061007f610aef565b5061007f610a16565b5061007f610739565b5061007f6103c7565b5061007f610327565b5061007f6101c7565b346101325760407ffffffffffffffffffffffffffffffffffffffffffffffffffffffffffffffffc36011261013257604060209273ffffffffffffffffffffffffffffffffffffffff61011c610136565b1681528084528181206024358252845220548152f35b5080fd5b6004359073ffffffffffffffffffffffffffffffffffffffff8216820361007f57565b6024359073ffffffffffffffffffffffffffffffffffffffff8216820361007f57565b359073ffffffffffffffffffffffffffffffffffffffff8216820361007f57565b7fffffffff0000000000000000000000000000000000000000000000000000000081160361007f57565b503461007f5760207ffffffffffffffffffffffffffffffffffffffffffffffffffffffffffffffffc36011261007f5760207fffffffff000000000000000000000000000000000000000000000000000000006004356102268161019d565b167f01ffc9a700000000000000000000000000000000000000000000000000000000811490811561028e575b8115610264575b506040519015158152f35b7f0e89341c0000000000000000000000000000000000000000000000000000000091501438610259565b7fd9b67a260000000000000000000000000000000000000000000000000000000081149150610252565b91908251928382526000905b84821061030f5750601f84602094957fffffffffffffffffffffffffffffffffffffffffffffffffffffffffffffffe09311610302575b0116010190565b60008582860101526102fb565b906020908180828501015190828601015201906102c4565b503461007f5760207ffffffffffffffffffffffffffffffffffffffffffffffffffffffffffffffffc36011261007f576103b66040516040810181811067ffffffffffffffff8211176103ba575b604052600381527f757269000000000000000000000000000000000000000000000000000000000060208201526040519182916020835260208301906102b8565b0390f35b6103c2610597565b610375565b503461007f5760607ffffffffffffffffffffffffffffffffffffffffffffffffffffffffffffffffc36011261007f576104d3610402610136565b602435604435604051610414816105c7565b60008152610455836104468673ffffffffffffffffffffffffffffffffffffffff166000526000602052604060002090565b90600052602052604060002090565b610460838254610f2e565b905573ffffffffffffffffffffffffffffffffffffffff8416938460006040517fc3d58168c5ae7397731d063d5bbf3d657854427343f4c083240f7aacaa2d0f623391806104bc898b8360209093929193604081019481520152565b0390a4600092903b6104df57505050501515610fea565b60405160018152602090f35b610542917fffffffff000000000000000000000000000000000000000000000000000000009495602092856040518096819582947ff23a6e61000000000000000000000000000000000000000000000000000000009c8d85523360048601610f5b565b03925af191821561058a575b9161055c575b501614610fea565b61057d915060203d8111610583575b61057581836105f0565b810190610f46565b38610554565b503d61056b565b610592610fdd565b61054e565b507f4e487b7100000000000000000000000000000000000000000000000000000000600052604160045260246000fd5b6020810190811067ffffffffffffffff8211176105e357604052565b6105eb610597565b604052565b90601f7fffffffffffffffffffffffffffffffffffffffffffffffffffffffffffffffe0910116810190811067ffffffffffffffff8211176105e357604052565b60209067ffffffffffffffff811161064b575b60051b0190565b610653610597565b610644565b81601f8201121561007f5780359161066f83610631565b9261067d60405194856105f0565b808452602092838086019260051b82010192831161007f578301905b8282106106a7575050505090565b81358152908301908301610699565b81601f8201121561007f5780359067ffffffffffffffff821161072c575b6040519261070a60207fffffffffffffffffffffffffffffffffffffffffffffffffffffffffffffffe0601f86011601856105f0565b8284526020838301011161007f57816000926020809301838601378301015290565b610734610597565b6106d4565b503461007f5760a07ffffffffffffffffffffffffffffffffffffffffffffffffffffffffffffffffc36011261007f57610771610136565b610779610159565b9067ffffffffffffffff9060443582811161007f5761079c903690600401610658565b60643583811161007f576107b4903690600401610658565b9260843590811161007f576107cd9036906004016106b6565b8151936107dc8151861461104f565b73ffffffffffffffffffffffffffffffffffffffff808516958633148015610966575b61080890610e82565b60005b8181106108ce5750509561086796811680966040517f4a39dc06d4c0dbc64b70af90fd698a233a518aa5d07e595d983b8c0526c8f7fb33918061084f888b836110f7565b0390a4600093903b6108695750505050501515610fea565b005b917fffffffff0000000000000000000000000000000000000000000000000000000094956020928561054295604051968795869485937fbc197c81000000000000000000000000000000000000000000000000000000009d8e8652336004870161111c565b808761095e610956836104468e6109238b6104468f6108f260019c6108fb926110b4565b519687936110b4565b519873ffffffffffffffffffffffffffffffffffffffff166000526000602052604060002090565b61092e878254610f17565b905573ffffffffffffffffffffffffffffffffffffffff166000526000602052604060002090565b918254610f2e565b90550161080b565b506108086109c76109c03361099b8a73ffffffffffffffffffffffffffffffffffffffff166000526001602052604060002090565b9073ffffffffffffffffffffffffffffffffffffffff16600052602052604060002090565b5460ff1690565b90506107ff565b90815180825260208080930193019160005b8281106109ee575050505090565b8351855293810193928101926001016109e0565b906020610a139281815201906109ce565b90565b503461007f5760407ffffffffffffffffffffffffffffffffffffffffffffffffffffffffffffffffc36011261007f5760043567ffffffffffffffff80821161007f573660238301121561007f578160040135610a7281610631565b92610a8060405194856105f0565b81845260209160248386019160051b8301019136831161007f57602401905b828210610ad8578560243586811161007f576103b691610ac6610acc923690600401610658565b90611178565b60405191829182610a02565b838091610ae48461017c565b815201910190610a9f565b503461007f5760407ffffffffffffffffffffffffffffffffffffffffffffffffffffffffffffffffc36011261007f57610b27610136565b6024359081151580920361007f5773ffffffffffffffffffffffffffffffffffffffff90336000526001602052610b828160406000209073ffffffffffffffffffffffffffffffffffffffff16600052602052604060002090565b7fffffffffffffffffffffffffffffffffffffffffffffffffffffffffffffff0081541660ff851617905560405192835216907f17307eab39ab6107e8899845ad3d59bd9653f200f220920489ca2b5937696c3160203392a3005b503461007f5760407ffffffffffffffffffffffffffffffffffffffffffffffffffffffffffffffffc36011261007f57602060ff610c6c610c1c610136565b73ffffffffffffffffffffffffffffffffffffffff610c39610159565b91166000526001845260406000209073ffffffffffffffffffffffffffffffffffffffff16600052602052604060002090565b54166040519015158152f35b503461007f5760a07ffffffffffffffffffffffffffffffffffffffffffffffffffffffffffffffffc36011261007f57610cb0610136565b610cb8610159565b6084359160443560643567ffffffffffffffff851161007f57610ce26108679536906004016106b6565b9073ffffffffffffffffffffffffffffffffffffffff94858516958633148015610e46575b610d1090610e82565b610d3e856104468873ffffffffffffffffffffffffffffffffffffffff166000526000602052604060002090565b610d49848254610f17565b9055610d79856104468473ffffffffffffffffffffffffffffffffffffffff166000526000602052604060002090565b610d84848254610f2e565b9055811680966040517fc3d58168c5ae7397731d063d5bbf3d657854427343f4c083240f7aacaa2d0f62339180610dc9888b8360209093929193604081019481520152565b0390a4600093903b610de15750505050501515610fea565b917fffffffff0000000000000000000000000000000000000000000000000000000094956020928561054295604051968795869485937ff23a6e61000000000000000000000000000000000000000000000000000000009d8e86523360048701610f9b565b50610d10610e7b6109c03361099b8a73ffffffffffffffffffffffffffffffffffffffff166000526001602052604060002090565b9050610d07565b15610e8957565b60646040517f08c379a000000000000000000000000000000000000000000000000000000000815260206004820152600e60248201527f4e4f545f415554484f52495a45440000000000000000000000000000000000006044820152fd5b507f4e487b7100000000000000000000000000000000000000000000000000000000600052601160045260246000fd5b818110610f22570390565b610f2a610ee7565b0390565b81198111610f3a570190565b610f42610ee7565b0190565b9081602091031261007f5751610a138161019d565b909260a09273ffffffffffffffffffffffffffffffffffffffff610a139695168352600060208401526040830152606082015281608082015201906102b8565b9192610a1395949160a09473ffffffffffffffffffffffffffffffffffffffff80921685521660208401526040830152606082015281608082015201906102b8565b506040513d6000823e3d90fd5b15610ff157565b60646040517f08c379a000000000000000000000000000000000000000000000000000000000815260206004820152601060248201527f554e534146455f524543495049454e54000000000000000000000000000000006044820152fd5b1561105657565b60646040517f08c379a000000000000000000000000000000000000000000000000000000000815260206004820152600f60248201527f4c454e4754485f4d49534d4154434800000000000000000000000000000000006044820152fd5b80518210156110c85760209160051b010190565b7f4e487b7100000000000000000000000000000000000000000000000000000000600052603260045260246000fd5b909161110e610a13936040845260408401906109ce565b9160208184039101526109ce565b9390610a13959361115c9161116a9473ffffffffffffffffffffffffffffffffffffffff809216885216602087015260a0604087015260a08601906109ce565b9084820360608601526109ce565b9160808184039101526102b8565b9182516111878351821461104f565b835161119281610631565b907fffffffffffffffffffffffffffffffffffffffffffffffffffffffffffffffe06111ce6040926111c6845195866105f0565b808552610631565b01946020953687850137829560005b8581106111ef57505050505050909150565b8073ffffffffffffffffffffffffffffffffffffffff6112116001938c6110b4565b5116600052600083528460002061122882866110b4565b516000528352846000205461123d82886110b4565b52016111dd56fea2646970667358221220c847a5a99217e3399b362725ed29bfbb61e94623df71650536918fa887d0f98864736f6c634300080e0033",
          "opcodes": "PUSH1 0x80 DUP1 PUSH1 0x40 MSTORE CALLVALUE PUSH2 0x16 JUMPI PUSH2 0x127A SWAP1 DUP2 PUSH2 0x1C DUP3 CODECOPY RETURN JUMPDEST PUSH1 0x0 DUP1 REVERT INVALID PUSH1 0x80 DUP1 PUSH1 0x40 MSTORE PUSH1 0x4 CALLDATASIZE LT ISZERO PUSH2 0x13 JUMPI PUSH1 0x0 DUP1 REVERT JUMPDEST PUSH1 0x0 DUP1 CALLDATALOAD PUSH1 0xE0 SHR SWAP2 DUP3 PUSH3 0xFDD58E EQ PUSH2 0xCB JUMPI POP POP DUP1 PUSH4 0x1FFC9A7 EQ PUSH2 0xC2 JUMPI DUP1 PUSH4 0xE89341C EQ PUSH2 0xB9 JUMPI DUP1 PUSH4 0x156E29F6 EQ PUSH2 0xB0 JUMPI DUP1 PUSH4 0x2EB2C2D6 EQ PUSH2 0xA7 JUMPI DUP1 PUSH4 0x4E1273F4 EQ PUSH2 0x9E JUMPI DUP1 PUSH4 0xA22CB465 EQ PUSH2 0x95 JUMPI DUP1 PUSH4 0xE985E9C5 EQ PUSH2 0x8C JUMPI PUSH4 0xF242432A EQ PUSH2 0x84 JUMPI JUMPDEST PUSH1 0x0 DUP1 REVERT JUMPDEST PUSH2 0x7F PUSH2 0xC78 JUMP JUMPDEST POP PUSH2 0x7F PUSH2 0xBDD JUMP JUMPDEST POP PUSH2 0x7F PUSH2 0xAEF JUMP JUMPDEST POP PUSH2 0x7F PUSH2 0xA16 JUMP JUMPDEST POP PUSH2 0x7F PUSH2 0x739 JUMP JUMPDEST POP PUSH2 0x7F PUSH2 0x3C7 JUMP JUMPDEST POP PUSH2 0x7F PUSH2 0x327 JUMP JUMPDEST POP PUSH2 0x7F PUSH2 0x1C7 JUMP JUMPDEST CALLVALUE PUSH2 0x132 JUMPI PUSH1 0x40 PUSH32 0xFFFFFFFFFFFFFFFFFFFFFFFFFFFFFFFFFFFFFFFFFFFFFFFFFFFFFFFFFFFFFFFC CALLDATASIZE ADD SLT PUSH2 0x132 JUMPI PUSH1 0x40 PUSH1 0x20 SWAP3 PUSH20 0xFFFFFFFFFFFFFFFFFFFFFFFFFFFFFFFFFFFFFFFF PUSH2 0x11C PUSH2 0x136 JUMP JUMPDEST AND DUP2 MSTORE DUP1 DUP5 MSTORE DUP2 DUP2 KECCAK256 PUSH1 0x24 CALLDATALOAD DUP3 MSTORE DUP5 MSTORE KECCAK256 SLOAD DUP2 MSTORE RETURN JUMPDEST POP DUP1 REVERT JUMPDEST PUSH1 0x4 CALLDATALOAD SWAP1 PUSH20 0xFFFFFFFFFFFFFFFFFFFFFFFFFFFFFFFFFFFFFFFF DUP3 AND DUP3 SUB PUSH2 0x7F JUMPI JUMP JUMPDEST PUSH1 0x24 CALLDATALOAD SWAP1 PUSH20 0xFFFFFFFFFFFFFFFFFFFFFFFFFFFFFFFFFFFFFFFF DUP3 AND DUP3 SUB PUSH2 0x7F JUMPI JUMP JUMPDEST CALLDATALOAD SWAP1 PUSH20 0xFFFFFFFFFFFFFFFFFFFFFFFFFFFFFFFFFFFFFFFF DUP3 AND DUP3 SUB PUSH2 0x7F JUMPI JUMP JUMPDEST PUSH32 0xFFFFFFFF00000000000000000000000000000000000000000000000000000000 DUP2 AND SUB PUSH2 0x7F JUMPI JUMP JUMPDEST POP CALLVALUE PUSH2 0x7F JUMPI PUSH1 0x20 PUSH32 0xFFFFFFFFFFFFFFFFFFFFFFFFFFFFFFFFFFFFFFFFFFFFFFFFFFFFFFFFFFFFFFFC CALLDATASIZE ADD SLT PUSH2 0x7F JUMPI PUSH1 0x20 PUSH32 0xFFFFFFFF00000000000000000000000000000000000000000000000000000000 PUSH1 0x4 CALLDATALOAD PUSH2 0x226 DUP2 PUSH2 0x19D JUMP JUMPDEST AND PUSH32 0x1FFC9A700000000000000000000000000000000000000000000000000000000 DUP2 EQ SWAP1 DUP2 ISZERO PUSH2 0x28E JUMPI JUMPDEST DUP2 ISZERO PUSH2 0x264 JUMPI JUMPDEST POP PUSH1 0x40 MLOAD SWAP1 ISZERO ISZERO DUP2 MSTORE RETURN JUMPDEST PUSH32 0xE89341C00000000000000000000000000000000000000000000000000000000 SWAP2 POP EQ CODESIZE PUSH2 0x259 JUMP JUMPDEST PUSH32 0xD9B67A2600000000000000000000000000000000000000000000000000000000 DUP2 EQ SWAP2 POP PUSH2 0x252 JUMP JUMPDEST SWAP2 SWAP1 DUP3 MLOAD SWAP3 DUP4 DUP3 MSTORE PUSH1 0x0 SWAP1 JUMPDEST DUP5 DUP3 LT PUSH2 0x30F JUMPI POP PUSH1 0x1F DUP5 PUSH1 0x20 SWAP5 SWAP6 PUSH32 0xFFFFFFFFFFFFFFFFFFFFFFFFFFFFFFFFFFFFFFFFFFFFFFFFFFFFFFFFFFFFFFE0 SWAP4 GT PUSH2 0x302 JUMPI JUMPDEST ADD AND ADD ADD SWAP1 JUMP JUMPDEST PUSH1 0x0 DUP6 DUP3 DUP7 ADD ADD MSTORE PUSH2 0x2FB JUMP JUMPDEST SWAP1 PUSH1 0x20 SWAP1 DUP2 DUP1 DUP3 DUP6 ADD ADD MLOAD SWAP1 DUP3 DUP7 ADD ADD MSTORE ADD SWAP1 PUSH2 0x2C4 JUMP JUMPDEST POP CALLVALUE PUSH2 0x7F JUMPI PUSH1 0x20 PUSH32 0xFFFFFFFFFFFFFFFFFFFFFFFFFFFFFFFFFFFFFFFFFFFFFFFFFFFFFFFFFFFFFFFC CALLDATASIZE ADD SLT PUSH2 0x7F JUMPI PUSH2 0x3B6 PUSH1 0x40 MLOAD PUSH1 0x40 DUP2 ADD DUP2 DUP2 LT PUSH8 0xFFFFFFFFFFFFFFFF DUP3 GT OR PUSH2 0x3BA JUMPI JUMPDEST PUSH1 0x40 MSTORE PUSH1 0x3 DUP2 MSTORE PUSH32 0x7572690000000000000000000000000000000000000000000000000000000000 PUSH1 0x20 DUP3 ADD MSTORE PUSH1 0x40 MLOAD SWAP2 DUP3 SWAP2 PUSH1 0x20 DUP4 MSTORE PUSH1 0x20 DUP4 ADD SWAP1 PUSH2 0x2B8 JUMP JUMPDEST SUB SWAP1 RETURN JUMPDEST PUSH2 0x3C2 PUSH2 0x597 JUMP JUMPDEST PUSH2 0x375 JUMP JUMPDEST POP CALLVALUE PUSH2 0x7F JUMPI PUSH1 0x60 PUSH32 0xFFFFFFFFFFFFFFFFFFFFFFFFFFFFFFFFFFFFFFFFFFFFFFFFFFFFFFFFFFFFFFFC CALLDATASIZE ADD SLT PUSH2 0x7F JUMPI PUSH2 0x4D3 PUSH2 0x402 PUSH2 0x136 JUMP JUMPDEST PUSH1 0x24 CALLDATALOAD PUSH1 0x44 CALLDATALOAD PUSH1 0x40 MLOAD PUSH2 0x414 DUP2 PUSH2 0x5C7 JUMP JUMPDEST PUSH1 0x0 DUP2 MSTORE PUSH2 0x455 DUP4 PUSH2 0x446 DUP7 PUSH20 0xFFFFFFFFFFFFFFFFFFFFFFFFFFFFFFFFFFFFFFFF AND PUSH1 0x0 MSTORE PUSH1 0x0 PUSH1 0x20 MSTORE PUSH1 0x40 PUSH1 0x0 KECCAK256 SWAP1 JUMP JUMPDEST SWAP1 PUSH1 0x0 MSTORE PUSH1 0x20 MSTORE PUSH1 0x40 PUSH1 0x0 KECCAK256 SWAP1 JUMP JUMPDEST PUSH2 0x460 DUP4 DUP3 SLOAD PUSH2 0xF2E JUMP JUMPDEST SWAP1 SSTORE PUSH20 0xFFFFFFFFFFFFFFFFFFFFFFFFFFFFFFFFFFFFFFFF DUP5 AND SWAP4 DUP5 PUSH1 0x0 PUSH1 0x40 MLOAD PUSH32 0xC3D58168C5AE7397731D063D5BBF3D657854427343F4C083240F7AACAA2D0F62 CALLER SWAP2 DUP1 PUSH2 0x4BC DUP10 DUP12 DUP4 PUSH1 0x20 SWAP1 SWAP4 SWAP3 SWAP2 SWAP4 PUSH1 0x40 DUP2 ADD SWAP5 DUP2 MSTORE ADD MSTORE JUMP JUMPDEST SUB SWAP1 LOG4 PUSH1 0x0 SWAP3 SWAP1 EXTCODESIZE PUSH2 0x4DF JUMPI POP POP POP POP ISZERO ISZERO PUSH2 0xFEA JUMP JUMPDEST PUSH1 0x40 MLOAD PUSH1 0x1 DUP2 MSTORE PUSH1 0x20 SWAP1 RETURN JUMPDEST PUSH2 0x542 SWAP2 PUSH32 0xFFFFFFFF00000000000000000000000000000000000000000000000000000000 SWAP5 SWAP6 PUSH1 0x20 SWAP3 DUP6 PUSH1 0x40 MLOAD DUP1 SWAP7 DUP2 SWAP6 DUP3 SWAP5 PUSH32 0xF23A6E6100000000000000000000000000000000000000000000000000000000 SWAP13 DUP14 DUP6 MSTORE CALLER PUSH1 0x4 DUP7 ADD PUSH2 0xF5B JUMP JUMPDEST SUB SWAP3 GAS CALL SWAP2 DUP3 ISZERO PUSH2 0x58A JUMPI JUMPDEST SWAP2 PUSH2 0x55C JUMPI JUMPDEST POP AND EQ PUSH2 0xFEA JUMP JUMPDEST PUSH2 0x57D SWAP2 POP PUSH1 0x20 RETURNDATASIZE DUP2 GT PUSH2 0x583 JUMPI JUMPDEST PUSH2 0x575 DUP2 DUP4 PUSH2 0x5F0 JUMP JUMPDEST DUP2 ADD SWAP1 PUSH2 0xF46 JUMP JUMPDEST CODESIZE PUSH2 0x554 JUMP JUMPDEST POP RETURNDATASIZE PUSH2 0x56B JUMP JUMPDEST PUSH2 0x592 PUSH2 0xFDD JUMP JUMPDEST PUSH2 0x54E JUMP JUMPDEST POP PUSH32 0x4E487B7100000000000000000000000000000000000000000000000000000000 PUSH1 0x0 MSTORE PUSH1 0x41 PUSH1 0x4 MSTORE PUSH1 0x24 PUSH1 0x0 REVERT JUMPDEST PUSH1 0x20 DUP2 ADD SWAP1 DUP2 LT PUSH8 0xFFFFFFFFFFFFFFFF DUP3 GT OR PUSH2 0x5E3 JUMPI PUSH1 0x40 MSTORE JUMP JUMPDEST PUSH2 0x5EB PUSH2 0x597 JUMP JUMPDEST PUSH1 0x40 MSTORE JUMP JUMPDEST SWAP1 PUSH1 0x1F PUSH32 0xFFFFFFFFFFFFFFFFFFFFFFFFFFFFFFFFFFFFFFFFFFFFFFFFFFFFFFFFFFFFFFE0 SWAP2 ADD AND DUP2 ADD SWAP1 DUP2 LT PUSH8 0xFFFFFFFFFFFFFFFF DUP3 GT OR PUSH2 0x5E3 JUMPI PUSH1 0x40 MSTORE JUMP JUMPDEST PUSH1 0x20 SWAP1 PUSH8 0xFFFFFFFFFFFFFFFF DUP2 GT PUSH2 0x64B JUMPI JUMPDEST PUSH1 0x5 SHL ADD SWAP1 JUMP JUMPDEST PUSH2 0x653 PUSH2 0x597 JUMP JUMPDEST PUSH2 0x644 JUMP JUMPDEST DUP2 PUSH1 0x1F DUP3 ADD SLT ISZERO PUSH2 0x7F JUMPI DUP1 CALLDATALOAD SWAP2 PUSH2 0x66F DUP4 PUSH2 0x631 JUMP JUMPDEST SWAP3 PUSH2 0x67D PUSH1 0x40 MLOAD SWAP5 DUP6 PUSH2 0x5F0 JUMP JUMPDEST DUP1 DUP5 MSTORE PUSH1 0x20 SWAP3 DUP4 DUP1 DUP7 ADD SWAP3 PUSH1 0x5 SHL DUP3 ADD ADD SWAP3 DUP4 GT PUSH2 0x7F JUMPI DUP4 ADD SWAP1 JUMPDEST DUP3 DUP3 LT PUSH2 0x6A7 JUMPI POP POP POP POP SWAP1 JUMP JUMPDEST DUP2 CALLDATALOAD DUP2 MSTORE SWAP1 DUP4 ADD SWAP1 DUP4 ADD PUSH2 0x699 JUMP JUMPDEST DUP2 PUSH1 0x1F DUP3 ADD SLT ISZERO PUSH2 0x7F JUMPI DUP1 CALLDATALOAD SWAP1 PUSH8 0xFFFFFFFFFFFFFFFF DUP3 GT PUSH2 0x72C JUMPI JUMPDEST PUSH1 0x40 MLOAD SWAP3 PUSH2 0x70A PUSH1 0x20 PUSH32 0xFFFFFFFFFFFFFFFFFFFFFFFFFFFFFFFFFFFFFFFFFFFFFFFFFFFFFFFFFFFFFFE0 PUSH1 0x1F DUP7 ADD AND ADD DUP6 PUSH2 0x5F0 JUMP JUMPDEST DUP3 DUP5 MSTORE PUSH1 0x20 DUP4 DUP4 ADD ADD GT PUSH2 0x7F JUMPI DUP2 PUSH1 0x0 SWAP3 PUSH1 0x20 DUP1 SWAP4 ADD DUP4 DUP7 ADD CALLDATACOPY DUP4 ADD ADD MSTORE SWAP1 JUMP JUMPDEST PUSH2 0x734 PUSH2 0x597 JUMP JUMPDEST PUSH2 0x6D4 JUMP JUMPDEST POP CALLVALUE PUSH2 0x7F JUMPI PUSH1 0xA0 PUSH32 0xFFFFFFFFFFFFFFFFFFFFFFFFFFFFFFFFFFFFFFFFFFFFFFFFFFFFFFFFFFFFFFFC CALLDATASIZE ADD SLT PUSH2 0x7F JUMPI PUSH2 0x771 PUSH2 0x136 JUMP JUMPDEST PUSH2 0x779 PUSH2 0x159 JUMP JUMPDEST SWAP1 PUSH8 0xFFFFFFFFFFFFFFFF SWAP1 PUSH1 0x44 CALLDATALOAD DUP3 DUP2 GT PUSH2 0x7F JUMPI PUSH2 0x79C SWAP1 CALLDATASIZE SWAP1 PUSH1 0x4 ADD PUSH2 0x658 JUMP JUMPDEST PUSH1 0x64 CALLDATALOAD DUP4 DUP2 GT PUSH2 0x7F JUMPI PUSH2 0x7B4 SWAP1 CALLDATASIZE SWAP1 PUSH1 0x4 ADD PUSH2 0x658 JUMP JUMPDEST SWAP3 PUSH1 0x84 CALLDATALOAD SWAP1 DUP2 GT PUSH2 0x7F JUMPI PUSH2 0x7CD SWAP1 CALLDATASIZE SWAP1 PUSH1 0x4 ADD PUSH2 0x6B6 JUMP JUMPDEST DUP2 MLOAD SWAP4 PUSH2 0x7DC DUP2 MLOAD DUP7 EQ PUSH2 0x104F JUMP JUMPDEST PUSH20 0xFFFFFFFFFFFFFFFFFFFFFFFFFFFFFFFFFFFFFFFF DUP1 DUP6 AND SWAP6 DUP7 CALLER EQ DUP1 ISZERO PUSH2 0x966 JUMPI JUMPDEST PUSH2 0x808 SWAP1 PUSH2 0xE82 JUMP JUMPDEST PUSH1 0x0 JUMPDEST DUP2 DUP2 LT PUSH2 0x8CE JUMPI POP POP SWAP6 PUSH2 0x867 SWAP7 DUP2 AND DUP1 SWAP7 PUSH1 0x40 MLOAD PUSH32 0x4A39DC06D4C0DBC64B70AF90FD698A233A518AA5D07E595D983B8C0526C8F7FB CALLER SWAP2 DUP1 PUSH2 0x84F DUP9 DUP12 DUP4 PUSH2 0x10F7 JUMP JUMPDEST SUB SWAP1 LOG4 PUSH1 0x0 SWAP4 SWAP1 EXTCODESIZE PUSH2 0x869 JUMPI POP POP POP POP POP ISZERO ISZERO PUSH2 0xFEA JUMP JUMPDEST STOP JUMPDEST SWAP2 PUSH32 0xFFFFFFFF00000000000000000000000000000000000000000000000000000000 SWAP5 SWAP6 PUSH1 0x20 SWAP3 DUP6 PUSH2 0x542 SWAP6 PUSH1 0x40 MLOAD SWAP7 DUP8 SWAP6 DUP7 SWAP5 DUP6 SWAP4 PUSH32 0xBC197C8100000000000000000000000000000000000000000000000000000000 SWAP14 DUP15 DUP7 MSTORE CALLER PUSH1 0x4 DUP8 ADD PUSH2 0x111C JUMP JUMPDEST DUP1 DUP8 PUSH2 0x95E PUSH2 0x956 DUP4 PUSH2 0x446 DUP15 PUSH2 0x923 DUP12 PUSH2 0x446 DUP16 PUSH2 0x8F2 PUSH1 0x1 SWAP13 PUSH2 0x8FB SWAP3 PUSH2 0x10B4 JUMP JUMPDEST MLOAD SWAP7 DUP8 SWAP4 PUSH2 0x10B4 JUMP JUMPDEST MLOAD SWAP9 PUSH20 0xFFFFFFFFFFFFFFFFFFFFFFFFFFFFFFFFFFFFFFFF AND PUSH1 0x0 MSTORE PUSH1 0x0 PUSH1 0x20 MSTORE PUSH1 0x40 PUSH1 0x0 KECCAK256 SWAP1 JUMP JUMPDEST PUSH2 0x92E DUP8 DUP3 SLOAD PUSH2 0xF17 JUMP JUMPDEST SWAP1 SSTORE PUSH20 0xFFFFFFFFFFFFFFFFFFFFFFFFFFFFFFFFFFFFFFFF AND PUSH1 0x0 MSTORE PUSH1 0x0 PUSH1 0x20 MSTORE PUSH1 0x40 PUSH1 0x0 KECCAK256 SWAP1 JUMP JUMPDEST SWAP2 DUP3 SLOAD PUSH2 0xF2E JUMP JUMPDEST SWAP1 SSTORE ADD PUSH2 0x80B JUMP JUMPDEST POP PUSH2 0x808 PUSH2 0x9C7 PUSH2 0x9C0 CALLER PUSH2 0x99B DUP11 PUSH20 0xFFFFFFFFFFFFFFFFFFFFFFFFFFFFFFFFFFFFFFFF AND PUSH1 0x0 MSTORE PUSH1 0x1 PUSH1 0x20 MSTORE PUSH1 0x40 PUSH1 0x0 KECCAK256 SWAP1 JUMP JUMPDEST SWAP1 PUSH20 0xFFFFFFFFFFFFFFFFFFFFFFFFFFFFFFFFFFFFFFFF AND PUSH1 0x0 MSTORE PUSH1 0x20 MSTORE PUSH1 0x40 PUSH1 0x0 KECCAK256 SWAP1 JUMP JUMPDEST SLOAD PUSH1 0xFF AND SWAP1 JUMP JUMPDEST SWAP1 POP PUSH2 0x7FF JUMP JUMPDEST SWAP1 DUP2 MLOAD DUP1 DUP3 MSTORE PUSH1 0x20 DUP1 DUP1 SWAP4 ADD SWAP4 ADD SWAP2 PUSH1 0x0 JUMPDEST DUP3 DUP2 LT PUSH2 0x9EE JUMPI POP POP POP POP SWAP1 JUMP JUMPDEST DUP4 MLOAD DUP6 MSTORE SWAP4 DUP2 ADD SWAP4 SWAP3 DUP2 ADD SWAP3 PUSH1 0x1 ADD PUSH2 0x9E0 JUMP JUMPDEST SWAP1 PUSH1 0x20 PUSH2 0xA13 SWAP3 DUP2 DUP2 MSTORE ADD SWAP1 PUSH2 0x9CE JUMP JUMPDEST SWAP1 JUMP JUMPDEST POP CALLVALUE PUSH2 0x7F JUMPI PUSH1 0x40 PUSH32 0xFFFFFFFFFFFFFFFFFFFFFFFFFFFFFFFFFFFFFFFFFFFFFFFFFFFFFFFFFFFFFFFC CALLDATASIZE ADD SLT PUSH2 0x7F JUMPI PUSH1 0x4 CALLDATALOAD PUSH8 0xFFFFFFFFFFFFFFFF DUP1 DUP3 GT PUSH2 0x7F JUMPI CALLDATASIZE PUSH1 0x23 DUP4 ADD SLT ISZERO PUSH2 0x7F JUMPI DUP2 PUSH1 0x4 ADD CALLDATALOAD PUSH2 0xA72 DUP2 PUSH2 0x631 JUMP JUMPDEST SWAP3 PUSH2 0xA80 PUSH1 0x40 MLOAD SWAP5 DUP6 PUSH2 0x5F0 JUMP JUMPDEST DUP2 DUP5 MSTORE PUSH1 0x20 SWAP2 PUSH1 0x24 DUP4 DUP7 ADD SWAP2 PUSH1 0x5 SHL DUP4 ADD ADD SWAP2 CALLDATASIZE DUP4 GT PUSH2 0x7F JUMPI PUSH1 0x24 ADD SWAP1 JUMPDEST DUP3 DUP3 LT PUSH2 0xAD8 JUMPI DUP6 PUSH1 0x24 CALLDATALOAD DUP7 DUP2 GT PUSH2 0x7F JUMPI PUSH2 0x3B6 SWAP2 PUSH2 0xAC6 PUSH2 0xACC SWAP3 CALLDATASIZE SWAP1 PUSH1 0x4 ADD PUSH2 0x658 JUMP JUMPDEST SWAP1 PUSH2 0x1178 JUMP JUMPDEST PUSH1 0x40 MLOAD SWAP2 DUP3 SWAP2 DUP3 PUSH2 0xA02 JUMP JUMPDEST DUP4 DUP1 SWAP2 PUSH2 0xAE4 DUP5 PUSH2 0x17C JUMP JUMPDEST DUP2 MSTORE ADD SWAP2 ADD SWAP1 PUSH2 0xA9F JUMP JUMPDEST POP CALLVALUE PUSH2 0x7F JUMPI PUSH1 0x40 PUSH32 0xFFFFFFFFFFFFFFFFFFFFFFFFFFFFFFFFFFFFFFFFFFFFFFFFFFFFFFFFFFFFFFFC CALLDATASIZE ADD SLT PUSH2 0x7F JUMPI PUSH2 0xB27 PUSH2 0x136 JUMP JUMPDEST PUSH1 0x24 CALLDATALOAD SWAP1 DUP2 ISZERO ISZERO DUP1 SWAP3 SUB PUSH2 0x7F JUMPI PUSH20 0xFFFFFFFFFFFFFFFFFFFFFFFFFFFFFFFFFFFFFFFF SWAP1 CALLER PUSH1 0x0 MSTORE PUSH1 0x1 PUSH1 0x20 MSTORE PUSH2 0xB82 DUP2 PUSH1 0x40 PUSH1 0x0 KECCAK256 SWAP1 PUSH20 0xFFFFFFFFFFFFFFFFFFFFFFFFFFFFFFFFFFFFFFFF AND PUSH1 0x0 MSTORE PUSH1 0x20 MSTORE PUSH1 0x40 PUSH1 0x0 KECCAK256 SWAP1 JUMP JUMPDEST PUSH32 0xFFFFFFFFFFFFFFFFFFFFFFFFFFFFFFFFFFFFFFFFFFFFFFFFFFFFFFFFFFFFFF00 DUP2 SLOAD AND PUSH1 0xFF DUP6 AND OR SWAP1 SSTORE PUSH1 0x40 MLOAD SWAP3 DUP4 MSTORE AND SWAP1 PUSH32 0x17307EAB39AB6107E8899845AD3D59BD9653F200F220920489CA2B5937696C31 PUSH1 0x20 CALLER SWAP3 LOG3 STOP JUMPDEST POP CALLVALUE PUSH2 0x7F JUMPI PUSH1 0x40 PUSH32 0xFFFFFFFFFFFFFFFFFFFFFFFFFFFFFFFFFFFFFFFFFFFFFFFFFFFFFFFFFFFFFFFC CALLDATASIZE ADD SLT PUSH2 0x7F JUMPI PUSH1 0x20 PUSH1 0xFF PUSH2 0xC6C PUSH2 0xC1C PUSH2 0x136 JUMP JUMPDEST PUSH20 0xFFFFFFFFFFFFFFFFFFFFFFFFFFFFFFFFFFFFFFFF PUSH2 0xC39 PUSH2 0x159 JUMP JUMPDEST SWAP2 AND PUSH1 0x0 MSTORE PUSH1 0x1 DUP5 MSTORE PUSH1 0x40 PUSH1 0x0 KECCAK256 SWAP1 PUSH20 0xFFFFFFFFFFFFFFFFFFFFFFFFFFFFFFFFFFFFFFFF AND PUSH1 0x0 MSTORE PUSH1 0x20 MSTORE PUSH1 0x40 PUSH1 0x0 KECCAK256 SWAP1 JUMP JUMPDEST SLOAD AND PUSH1 0x40 MLOAD SWAP1 ISZERO ISZERO DUP2 MSTORE RETURN JUMPDEST POP CALLVALUE PUSH2 0x7F JUMPI PUSH1 0xA0 PUSH32 0xFFFFFFFFFFFFFFFFFFFFFFFFFFFFFFFFFFFFFFFFFFFFFFFFFFFFFFFFFFFFFFFC CALLDATASIZE ADD SLT PUSH2 0x7F JUMPI PUSH2 0xCB0 PUSH2 0x136 JUMP JUMPDEST PUSH2 0xCB8 PUSH2 0x159 JUMP JUMPDEST PUSH1 0x84 CALLDATALOAD SWAP2 PUSH1 0x44 CALLDATALOAD PUSH1 0x64 CALLDATALOAD PUSH8 0xFFFFFFFFFFFFFFFF DUP6 GT PUSH2 0x7F JUMPI PUSH2 0xCE2 PUSH2 0x867 SWAP6 CALLDATASIZE SWAP1 PUSH1 0x4 ADD PUSH2 0x6B6 JUMP JUMPDEST SWAP1 PUSH20 0xFFFFFFFFFFFFFFFFFFFFFFFFFFFFFFFFFFFFFFFF SWAP5 DUP6 DUP6 AND SWAP6 DUP7 CALLER EQ DUP1 ISZERO PUSH2 0xE46 JUMPI JUMPDEST PUSH2 0xD10 SWAP1 PUSH2 0xE82 JUMP JUMPDEST PUSH2 0xD3E DUP6 PUSH2 0x446 DUP9 PUSH20 0xFFFFFFFFFFFFFFFFFFFFFFFFFFFFFFFFFFFFFFFF AND PUSH1 0x0 MSTORE PUSH1 0x0 PUSH1 0x20 MSTORE PUSH1 0x40 PUSH1 0x0 KECCAK256 SWAP1 JUMP JUMPDEST PUSH2 0xD49 DUP5 DUP3 SLOAD PUSH2 0xF17 JUMP JUMPDEST SWAP1 SSTORE PUSH2 0xD79 DUP6 PUSH2 0x446 DUP5 PUSH20 0xFFFFFFFFFFFFFFFFFFFFFFFFFFFFFFFFFFFFFFFF AND PUSH1 0x0 MSTORE PUSH1 0x0 PUSH1 0x20 MSTORE PUSH1 0x40 PUSH1 0x0 KECCAK256 SWAP1 JUMP JUMPDEST PUSH2 0xD84 DUP5 DUP3 SLOAD PUSH2 0xF2E JUMP JUMPDEST SWAP1 SSTORE DUP2 AND DUP1 SWAP7 PUSH1 0x40 MLOAD PUSH32 0xC3D58168C5AE7397731D063D5BBF3D657854427343F4C083240F7AACAA2D0F62 CALLER SWAP2 DUP1 PUSH2 0xDC9 DUP9 DUP12 DUP4 PUSH1 0x20 SWAP1 SWAP4 SWAP3 SWAP2 SWAP4 PUSH1 0x40 DUP2 ADD SWAP5 DUP2 MSTORE ADD MSTORE JUMP JUMPDEST SUB SWAP1 LOG4 PUSH1 0x0 SWAP4 SWAP1 EXTCODESIZE PUSH2 0xDE1 JUMPI POP POP POP POP POP ISZERO ISZERO PUSH2 0xFEA JUMP JUMPDEST SWAP2 PUSH32 0xFFFFFFFF00000000000000000000000000000000000000000000000000000000 SWAP5 SWAP6 PUSH1 0x20 SWAP3 DUP6 PUSH2 0x542 SWAP6 PUSH1 0x40 MLOAD SWAP7 DUP8 SWAP6 DUP7 SWAP5 DUP6 SWAP4 PUSH32 0xF23A6E6100000000000000000000000000000000000000000000000000000000 SWAP14 DUP15 DUP7 MSTORE CALLER PUSH1 0x4 DUP8 ADD PUSH2 0xF9B JUMP JUMPDEST POP PUSH2 0xD10 PUSH2 0xE7B PUSH2 0x9C0 CALLER PUSH2 0x99B DUP11 PUSH20 0xFFFFFFFFFFFFFFFFFFFFFFFFFFFFFFFFFFFFFFFF AND PUSH1 0x0 MSTORE PUSH1 0x1 PUSH1 0x20 MSTORE PUSH1 0x40 PUSH1 0x0 KECCAK256 SWAP1 JUMP JUMPDEST SWAP1 POP PUSH2 0xD07 JUMP JUMPDEST ISZERO PUSH2 0xE89 JUMPI JUMP JUMPDEST PUSH1 0x64 PUSH1 0x40 MLOAD PUSH32 0x8C379A000000000000000000000000000000000000000000000000000000000 DUP2 MSTORE PUSH1 0x20 PUSH1 0x4 DUP3 ADD MSTORE PUSH1 0xE PUSH1 0x24 DUP3 ADD MSTORE PUSH32 0x4E4F545F415554484F52495A4544000000000000000000000000000000000000 PUSH1 0x44 DUP3 ADD MSTORE REVERT JUMPDEST POP PUSH32 0x4E487B7100000000000000000000000000000000000000000000000000000000 PUSH1 0x0 MSTORE PUSH1 0x11 PUSH1 0x4 MSTORE PUSH1 0x24 PUSH1 0x0 REVERT JUMPDEST DUP2 DUP2 LT PUSH2 0xF22 JUMPI SUB SWAP1 JUMP JUMPDEST PUSH2 0xF2A PUSH2 0xEE7 JUMP JUMPDEST SUB SWAP1 JUMP JUMPDEST DUP2 NOT DUP2 GT PUSH2 0xF3A JUMPI ADD SWAP1 JUMP JUMPDEST PUSH2 0xF42 PUSH2 0xEE7 JUMP JUMPDEST ADD SWAP1 JUMP JUMPDEST SWAP1 DUP2 PUSH1 0x20 SWAP2 SUB SLT PUSH2 0x7F JUMPI MLOAD PUSH2 0xA13 DUP2 PUSH2 0x19D JUMP JUMPDEST SWAP1 SWAP3 PUSH1 0xA0 SWAP3 PUSH20 0xFFFFFFFFFFFFFFFFFFFFFFFFFFFFFFFFFFFFFFFF PUSH2 0xA13 SWAP7 SWAP6 AND DUP4 MSTORE PUSH1 0x0 PUSH1 0x20 DUP5 ADD MSTORE PUSH1 0x40 DUP4 ADD MSTORE PUSH1 0x60 DUP3 ADD MSTORE DUP2 PUSH1 0x80 DUP3 ADD MSTORE ADD SWAP1 PUSH2 0x2B8 JUMP JUMPDEST SWAP2 SWAP3 PUSH2 0xA13 SWAP6 SWAP5 SWAP2 PUSH1 0xA0 SWAP5 PUSH20 0xFFFFFFFFFFFFFFFFFFFFFFFFFFFFFFFFFFFFFFFF DUP1 SWAP3 AND DUP6 MSTORE AND PUSH1 0x20 DUP5 ADD MSTORE PUSH1 0x40 DUP4 ADD MSTORE PUSH1 0x60 DUP3 ADD MSTORE DUP2 PUSH1 0x80 DUP3 ADD MSTORE ADD SWAP1 PUSH2 0x2B8 JUMP JUMPDEST POP PUSH1 0x40 MLOAD RETURNDATASIZE PUSH1 0x0 DUP3 RETURNDATACOPY RETURNDATASIZE SWAP1 REVERT JUMPDEST ISZERO PUSH2 0xFF1 JUMPI JUMP JUMPDEST PUSH1 0x64 PUSH1 0x40 MLOAD PUSH32 0x8C379A000000000000000000000000000000000000000000000000000000000 DUP2 MSTORE PUSH1 0x20 PUSH1 0x4 DUP3 ADD MSTORE PUSH1 0x10 PUSH1 0x24 DUP3 ADD MSTORE PUSH32 0x554E534146455F524543495049454E5400000000000000000000000000000000 PUSH1 0x44 DUP3 ADD MSTORE REVERT JUMPDEST ISZERO PUSH2 0x1056 JUMPI JUMP JUMPDEST PUSH1 0x64 PUSH1 0x40 MLOAD PUSH32 0x8C379A000000000000000000000000000000000000000000000000000000000 DUP2 MSTORE PUSH1 0x20 PUSH1 0x4 DUP3 ADD MSTORE PUSH1 0xF PUSH1 0x24 DUP3 ADD MSTORE PUSH32 0x4C454E4754485F4D49534D415443480000000000000000000000000000000000 PUSH1 0x44 DUP3 ADD MSTORE REVERT JUMPDEST DUP1 MLOAD DUP3 LT ISZERO PUSH2 0x10C8 JUMPI PUSH1 0x20 SWAP2 PUSH1 0x5 SHL ADD ADD SWAP1 JUMP JUMPDEST PUSH32 0x4E487B7100000000000000000000000000000000000000000000000000000000 PUSH1 0x0 MSTORE PUSH1 0x32 PUSH1 0x4 MSTORE PUSH1 0x24 PUSH1 0x0 REVERT JUMPDEST SWAP1 SWAP2 PUSH2 0x110E PUSH2 0xA13 SWAP4 PUSH1 0x40 DUP5 MSTORE PUSH1 0x40 DUP5 ADD SWAP1 PUSH2 0x9CE JUMP JUMPDEST SWAP2 PUSH1 0x20 DUP2 DUP5 SUB SWAP2 ADD MSTORE PUSH2 0x9CE JUMP JUMPDEST SWAP4 SWAP1 PUSH2 0xA13 SWAP6 SWAP4 PUSH2 0x115C SWAP2 PUSH2 0x116A SWAP5 PUSH20 0xFFFFFFFFFFFFFFFFFFFFFFFFFFFFFFFFFFFFFFFF DUP1 SWAP3 AND DUP9 MSTORE AND PUSH1 0x20 DUP8 ADD MSTORE PUSH1 0xA0 PUSH1 0x40 DUP8 ADD MSTORE PUSH1 0xA0 DUP7 ADD SWAP1 PUSH2 0x9CE JUMP JUMPDEST SWAP1 DUP5 DUP3 SUB PUSH1 0x60 DUP7 ADD MSTORE PUSH2 0x9CE JUMP JUMPDEST SWAP2 PUSH1 0x80 DUP2 DUP5 SUB SWAP2 ADD MSTORE PUSH2 0x2B8 JUMP JUMPDEST SWAP2 DUP3 MLOAD PUSH2 0x1187 DUP4 MLOAD DUP3 EQ PUSH2 0x104F JUMP JUMPDEST DUP4 MLOAD PUSH2 0x1192 DUP2 PUSH2 0x631 JUMP JUMPDEST SWAP1 PUSH32 0xFFFFFFFFFFFFFFFFFFFFFFFFFFFFFFFFFFFFFFFFFFFFFFFFFFFFFFFFFFFFFFE0 PUSH2 0x11CE PUSH1 0x40 SWAP3 PUSH2 0x11C6 DUP5 MLOAD SWAP6 DUP7 PUSH2 0x5F0 JUMP JUMPDEST DUP1 DUP6 MSTORE PUSH2 0x631 JUMP JUMPDEST ADD SWAP5 PUSH1 0x20 SWAP6 CALLDATASIZE DUP8 DUP6 ADD CALLDATACOPY DUP3 SWAP6 PUSH1 0x0 JUMPDEST DUP6 DUP2 LT PUSH2 0x11EF JUMPI POP POP POP POP POP POP SWAP1 SWAP2 POP JUMP JUMPDEST DUP1 PUSH20 0xFFFFFFFFFFFFFFFFFFFFFFFFFFFFFFFFFFFFFFFF PUSH2 0x1211 PUSH1 0x1 SWAP4 DUP13 PUSH2 0x10B4 JUMP JUMPDEST MLOAD AND PUSH1 0x0 MSTORE PUSH1 0x0 DUP4 MSTORE DUP5 PUSH1 0x0 KECCAK256 PUSH2 0x1228 DUP3 DUP7 PUSH2 0x10B4 JUMP JUMPDEST MLOAD PUSH1 0x0 MSTORE DUP4 MSTORE DUP5 PUSH1 0x0 KECCAK256 SLOAD PUSH2 0x123D DUP3 DUP9 PUSH2 0x10B4 JUMP JUMPDEST MSTORE ADD PUSH2 0x11DD JUMP INVALID LOG2 PUSH5 0x6970667358 0x22 SLT KECCAK256 0xC8 SELFBALANCE 0xA5 0xA9 SWAP3 OR 0xE3 CODECOPY SWAP12 CALLDATASIZE 0x27 0x25 0xED 0x29 0xBF 0xBB PUSH2 0xE946 0x23 0xDF PUSH18 0x650536918FA887D0F98864736F6C63430008 0xE STOP CALLER "
        },
        "methodIdentifiers": {
          "balanceOf(address,uint256)": "00fdd58e",
          "balanceOfBatch(address[],uint256[])": "4e1273f4",
          "isApprovedForAll(address,address)": "e985e9c5",
          "mint(address,uint256,uint256)": "156e29f6",
          "safeBatchTransferFrom(address,address,uint256[],uint256[],bytes)": "2eb2c2d6",
          "safeTransferFrom(address,address,uint256,uint256,bytes)": "f242432a",
          "setApprovalForAll(address,bool)": "a22cb465",
          "supportsInterface(bytes4)": "01ffc9a7",
          "uri(uint256)": "0e89341c"
        }
      }
    }
  }
}