{
  "contracts/StoreFront.sol": {
    "StoreFront": {
      "abi": [
        {
          "inputs": [
            {
              "internalType": "address",
              "name": "_minter",
              "type": "address"
            }
          ],
          "stateMutability": "nonpayable",
          "type": "constructor"
        },
        {
          "anonymous": false,
          "inputs": [
            {
              "indexed": true,
              "internalType": "address",
              "name": "owner",
              "type": "address"
            },
            {
              "indexed": true,
              "internalType": "address",
              "name": "operator",
              "type": "address"
            },
            {
              "indexed": false,
              "internalType": "bool",
              "name": "approved",
              "type": "bool"
            }
          ],
          "name": "ApprovalForAll",
          "type": "event"
        },
        {
          "anonymous": false,
          "inputs": [
            {
              "indexed": true,
              "internalType": "address",
              "name": "previousOwner",
              "type": "address"
            },
            {
              "indexed": true,
              "internalType": "address",
              "name": "newOwner",
              "type": "address"
            }
          ],
          "name": "OwnershipTransferred",
          "type": "event"
        },
        {
          "anonymous": false,
          "inputs": [
            {
              "indexed": true,
              "internalType": "address",
              "name": "operator",
              "type": "address"
            },
            {
              "indexed": true,
              "internalType": "address",
              "name": "from",
              "type": "address"
            },
            {
              "indexed": true,
              "internalType": "address",
              "name": "to",
              "type": "address"
            },
            {
              "indexed": false,
              "internalType": "uint256[]",
              "name": "ids",
              "type": "uint256[]"
            },
            {
              "indexed": false,
              "internalType": "uint256[]",
              "name": "amounts",
              "type": "uint256[]"
            }
          ],
          "name": "TransferBatch",
          "type": "event"
        },
        {
          "anonymous": false,
          "inputs": [
            {
              "indexed": true,
              "internalType": "address",
              "name": "operator",
              "type": "address"
            },
            {
              "indexed": true,
              "internalType": "address",
              "name": "from",
              "type": "address"
            },
            {
              "indexed": true,
              "internalType": "address",
              "name": "to",
              "type": "address"
            },
            {
              "indexed": false,
              "internalType": "uint256",
              "name": "id",
              "type": "uint256"
            },
            {
              "indexed": false,
              "internalType": "uint256",
              "name": "amount",
              "type": "uint256"
            }
          ],
          "name": "TransferSingle",
          "type": "event"
        },
        {
          "anonymous": false,
          "inputs": [
            {
              "indexed": false,
              "internalType": "string",
              "name": "value",
              "type": "string"
            },
            {
              "indexed": true,
              "internalType": "uint256",
              "name": "id",
              "type": "uint256"
            }
          ],
          "name": "URI",
          "type": "event"
        },
        {
          "inputs": [],
          "name": "NAME",
          "outputs": [
            {
              "internalType": "string",
              "name": "",
              "type": "string"
            }
          ],
          "stateMutability": "view",
          "type": "function"
        },
        {
          "inputs": [],
          "name": "VERSION",
          "outputs": [
            {
              "internalType": "string",
              "name": "",
              "type": "string"
            }
          ],
          "stateMutability": "view",
          "type": "function"
        },
        {
          "inputs": [
            {
              "internalType": "address",
              "name": "",
              "type": "address"
            },
            {
              "internalType": "uint256",
              "name": "",
              "type": "uint256"
            }
          ],
          "name": "balanceOf",
          "outputs": [
            {
              "internalType": "uint256",
              "name": "",
              "type": "uint256"
            }
          ],
          "stateMutability": "view",
          "type": "function"
        },
        {
          "inputs": [
            {
              "internalType": "address[]",
              "name": "owners",
              "type": "address[]"
            },
            {
              "internalType": "uint256[]",
              "name": "ids",
              "type": "uint256[]"
            }
          ],
          "name": "balanceOfBatch",
          "outputs": [
            {
              "internalType": "uint256[]",
              "name": "balances",
              "type": "uint256[]"
            }
          ],
          "stateMutability": "view",
          "type": "function"
        },
        {
          "inputs": [
            {
              "internalType": "address",
              "name": "",
              "type": "address"
            },
            {
              "internalType": "address",
              "name": "",
              "type": "address"
            }
          ],
          "name": "isApprovedForAll",
          "outputs": [
            {
              "internalType": "bool",
              "name": "",
              "type": "bool"
            }
          ],
          "stateMutability": "view",
          "type": "function"
        },
        {
          "inputs": [
            {
              "internalType": "address",
              "name": "_to",
              "type": "address"
            },
            {
              "internalType": "uint256",
              "name": "_amount",
              "type": "uint256"
            }
          ],
          "name": "mint",
          "outputs": [],
          "stateMutability": "nonpayable",
          "type": "function"
        },
        {
          "inputs": [
            {
              "internalType": "address",
              "name": "",
              "type": "address"
            }
          ],
          "name": "nonces",
          "outputs": [
            {
              "internalType": "uint256",
              "name": "",
              "type": "uint256"
            }
          ],
          "stateMutability": "view",
          "type": "function"
        },
        {
          "inputs": [],
          "name": "owner",
          "outputs": [
            {
              "internalType": "address",
              "name": "",
              "type": "address"
            }
          ],
          "stateMutability": "view",
          "type": "function"
        },
        {
          "inputs": [
            {
              "internalType": "address",
              "name": "_owner",
              "type": "address"
            },
            {
              "internalType": "address",
              "name": "_operator",
              "type": "address"
            },
            {
              "internalType": "bool",
              "name": "_approved",
              "type": "bool"
            },
            {
              "internalType": "uint256",
              "name": "_deadline",
              "type": "uint256"
            },
            {
              "internalType": "uint8",
              "name": "_v",
              "type": "uint8"
            },
            {
              "internalType": "bytes32",
              "name": "_r",
              "type": "bytes32"
            },
            {
              "internalType": "bytes32",
              "name": "_s",
              "type": "bytes32"
            }
          ],
          "name": "permitAll",
          "outputs": [],
          "stateMutability": "nonpayable",
          "type": "function"
        },
        {
          "inputs": [],
          "name": "renounceOwnership",
          "outputs": [],
          "stateMutability": "nonpayable",
          "type": "function"
        },
        {
          "inputs": [
            {
              "internalType": "address",
              "name": "from",
              "type": "address"
            },
            {
              "internalType": "address",
              "name": "to",
              "type": "address"
            },
            {
              "internalType": "uint256[]",
              "name": "ids",
              "type": "uint256[]"
            },
            {
              "internalType": "uint256[]",
              "name": "amounts",
              "type": "uint256[]"
            },
            {
              "internalType": "bytes",
              "name": "data",
              "type": "bytes"
            }
          ],
          "name": "safeBatchTransferFrom",
          "outputs": [],
          "stateMutability": "nonpayable",
          "type": "function"
        },
        {
          "inputs": [
            {
              "internalType": "address",
              "name": "from",
              "type": "address"
            },
            {
              "internalType": "address",
              "name": "to",
              "type": "address"
            },
            {
              "internalType": "uint256",
              "name": "id",
              "type": "uint256"
            },
            {
              "internalType": "uint256",
              "name": "amount",
              "type": "uint256"
            },
            {
              "internalType": "bytes",
              "name": "data",
              "type": "bytes"
            }
          ],
          "name": "safeTransferFrom",
          "outputs": [],
          "stateMutability": "nonpayable",
          "type": "function"
        },
        {
          "inputs": [
            {
              "internalType": "address",
              "name": "operator",
              "type": "address"
            },
            {
              "internalType": "bool",
              "name": "approved",
              "type": "bool"
            }
          ],
          "name": "setApprovalForAll",
          "outputs": [],
          "stateMutability": "nonpayable",
          "type": "function"
        },
        {
          "inputs": [
            {
              "internalType": "bytes4",
              "name": "interfaceId",
              "type": "bytes4"
            }
          ],
          "name": "supportsInterface",
          "outputs": [
            {
              "internalType": "bool",
              "name": "",
              "type": "bool"
            }
          ],
          "stateMutability": "pure",
          "type": "function"
        },
        {
          "inputs": [
            {
              "internalType": "uint256",
              "name": "",
              "type": "uint256"
            }
          ],
          "name": "totalSupply",
          "outputs": [
            {
              "internalType": "uint256",
              "name": "",
              "type": "uint256"
            }
          ],
          "stateMutability": "view",
          "type": "function"
        },
        {
          "inputs": [
            {
              "internalType": "address",
              "name": "_newMinter",
              "type": "address"
            }
          ],
          "name": "transferMinter",
          "outputs": [],
          "stateMutability": "nonpayable",
          "type": "function"
        },
        {
          "inputs": [
            {
              "internalType": "address",
              "name": "newOwner",
              "type": "address"
            }
          ],
          "name": "transferOwnership",
          "outputs": [],
          "stateMutability": "nonpayable",
          "type": "function"
        },
        {
          "inputs": [
            {
              "internalType": "string",
              "name": "base",
              "type": "string"
            }
          ],
          "name": "updateBaseUri",
          "outputs": [],
          "stateMutability": "nonpayable",
          "type": "function"
        },
        {
          "inputs": [
            {
              "internalType": "uint256",
              "name": "id",
              "type": "uint256"
            }
          ],
          "name": "uri",
          "outputs": [
            {
              "internalType": "string",
              "name": "",
              "type": "string"
            }
          ],
          "stateMutability": "view",
          "type": "function"
        }
      ],
      "evm": {
        "bytecode": {
          "linkReferences": {},
          "object": "6080346200006f57601f620021d138819003918201601f19168301916001600160401b0383118484101762000074578084926020946040528339810103126200006f57516001600160a01b03811681036200006f576200005f906200008a565b60405161206d9081620001648239f35b600080fd5b634e487b7160e01b600052604160045260246000fd5b60028054336001600160a01b031980831682179093556040516000946001600160a01b0393909291908416907f8be0079c531659141344cd1fd0a4f28419497f9722a3daafe3b4186f6b6457e0908790a3169060065416176006556005546001918282811c9216801562000158575b60208310146200014457601f821162000117575b5050506000600555565b60058152601f60208220920160051c8201915b8281106200013957506200010d565b81815583016200012a565b634e487b7160e01b81526022600452602490fd5b91607f1691620000f956fe60806040526004361015610013575b600080fd5b60003560e01c8062fdd58e1461018e57806301ffc9a7146101855780630e89341c1461017c5780632eb2c2d61461017357806339f7e37f1461016a57806340c10f19146101615780634e1273f414610158578063715018a61461014f5780637ecebe00146101465780638da5cb5b1461013d578063a22cb46514610134578063a3f4df7e1461012b578063bd85b03914610122578063cfa8fb4214610119578063e985e9c514610110578063f242432a14610107578063f2fde38b146100fe578063fe99ad5a146100f55763ffa1ad74146100ed57600080fd5b61000e6116b1565b5061000e6115fb565b5061000e611529565b5061000e61133d565b5061000e6112c0565b5061000e6110c1565b5061000e611094565b5061000e611063565b5061000e610f52565b5061000e610f0e565b5061000e610ec6565b5061000e610e3a565b5061000e610d7f565b5061000e610b95565b5061000e6109ef565b5061000e610714565b5061000e6103dd565b5061000e61027e565b5061000e6101fe565b6004359073ffffffffffffffffffffffffffffffffffffffff8216820361000e57565b6024359073ffffffffffffffffffffffffffffffffffffffff8216820361000e57565b359073ffffffffffffffffffffffffffffffffffffffff8216820361000e57565b503461000e57604060031936011261000e5773ffffffffffffffffffffffffffffffffffffffff61022d610197565b16600052600060205260406000206024356000526020526020604060002054604051908152f35b7fffffffff0000000000000000000000000000000000000000000000000000000081160361000e57565b503461000e57602060031936011261000e5760207fffffffff000000000000000000000000000000000000000000000000000000006004356102bf81610254565b167f01ffc9a7000000000000000000000000000000000000000000000000000000008114908115610327575b81156102fd575b506040519015158152f35b7f0e89341c00000000000000000000000000000000000000000000000000000000915014386102f2565b7fd9b67a2600000000000000000000000000000000000000000000000000000000811491506102eb565b918091926000905b82821061037157501161036a575050565b6000910152565b91508060209183015181860152018291610359565b907fffffffffffffffffffffffffffffffffffffffffffffffffffffffffffffffe0601f6020936103c281518092818752878088019101610351565b0116010190565b9060206103da928181520190610386565b90565b503461000e5760208060031936011261000e576005546103fc81611bbe565b6000901561046d57505061042b61045d6104699261043161041e600435611d5b565b6040519485938401611c82565b90611d29565b037fffffffffffffffffffffffffffffffffffffffffffffffffffffffffffffffe081018352826105be565b604051918291826103c9565b0390f35b909160405191809361047e81611bbe565b8085529160019180831690811561050957506001146104b0575b505050506104ab816104699303826105be565b61045d565b929450600583527f036b6384b5eca791c62761152d0c79bb0604c104a5fb6f4eb0703f3154bb3db05b8284106104f65750505081610469936104ab928201019338610498565b80548585018701529285019281016104d9565b9250505061046994507fffffffffffffffffffffffffffffffffffffffffffffffffffffffffffffff00915016908201526104ab81604081019338610498565b507f4e487b7100000000000000000000000000000000000000000000000000000000600052604160045260246000fd5b6020810190811067ffffffffffffffff82111761059557604052565b61059d610549565b604052565b6040810190811067ffffffffffffffff82111761059557604052565b90601f7fffffffffffffffffffffffffffffffffffffffffffffffffffffffffffffffe0910116810190811067ffffffffffffffff82111761059557604052565b60209067ffffffffffffffff8111610619575b60051b0190565b610621610549565b610612565b81601f8201121561000e5780359161063d836105ff565b9261064b60405194856105be565b808452602092838086019260051b82010192831161000e578301905b828210610675575050505090565b81358152908301908301610667565b7fffffffffffffffffffffffffffffffffffffffffffffffffffffffffffffffe0601f60209267ffffffffffffffff81116106c0575b01160190565b6106c8610549565b6106ba565b81601f8201121561000e578035906106e482610684565b926106f260405194856105be565b8284526020838301011161000e57816000926020809301838601378301015290565b503461000e5760a060031936011261000e5761072e610197565b6107366101ba565b9067ffffffffffffffff9060443582811161000e57610759903690600401610626565b60643583811161000e57610771903690600401610626565b9260843590811161000e5761078a9036906004016106cd565b8151936107998151861461198c565b73ffffffffffffffffffffffffffffffffffffffff808516958633148015610987575b6107c5906117a2565b60005b8181106108e05750509561082496811680966040517f4a39dc06d4c0dbc64b70af90fd698a233a518aa5d07e595d983b8c0526c8f7fb33918061080c888b83611a43565b0390a4600093903b6108265750505050501515611927565b005b917fffffffff0000000000000000000000000000000000000000000000000000000094956020928561088b95604051968795869485937fbc197c81000000000000000000000000000000000000000000000000000000009d8e86523360048701611a68565b03925af19182156108d3575b916108a5575b501614611927565b6108c6915060203d81116108cc575b6108be81836105be565b810190611883565b3861089d565b503d6108b4565b6108db61191a565b610897565b808761097f610977836109358e6109448b6109358f61090460019c61090d92611a21565b51968793611a21565b519873ffffffffffffffffffffffffffffffffffffffff166000526000602052604060002090565b90600052602052604060002090565b61094f878254611837565b905573ffffffffffffffffffffffffffffffffffffffff166000526000602052604060002090565b91825461186b565b9055016107c8565b506107c56109e86109e1336109bc8a73ffffffffffffffffffffffffffffffffffffffff166000526001602052604060002090565b9073ffffffffffffffffffffffffffffffffffffffff16600052602052604060002090565b5460ff1690565b90506107bc565b503461000e5760208060031936011261000e5767ffffffffffffffff60043581811161000e573660238201121561000e57806004013591821161000e576024903682848301011161000e57610a5d73ffffffffffffffffffffffffffffffffffffffff6002541633146116ce565b610a7183610a6c600554611bbe565b611c11565b600093601f8411600114610acd5750928293600093610ac0575b5050507fffffffffffffffffffffffffffffffffffffffffffffffffffffffffffffffff8260011b9260031b1c191617600555005b0101359050388080610a8b565b917fffffffffffffffffffffffffffffffffffffffffffffffffffffffffffffffe0841694610b1e60056000527f036b6384b5eca791c62761152d0c79bb0604c104a5fb6f4eb0703f3154bb3db090565b9381905b878210610b7b5750508460019610610b41575b50505050811b01600555005b7fffffffffffffffffffffffffffffffffffffffffffffffffffffffffffffffff60f88660031b161c199201013516905538808080610b35565b806001849786839596890101358155019601920190610b22565b503461000e57604060031936011261000e57610baf610197565b60243573ffffffffffffffffffffffffffffffffffffffff918260065416330361000e57610c809060075460405194610be786610579565b6000958691828252610c1d846109358773ffffffffffffffffffffffffffffffffffffffff166000526000602052604060002090565b610c2888825461186b565b905584169384836040517fc3d58168c5ae7397731d063d5bbf3d657854427343f4c083240f7aacaa2d0f62339180610c6e8d8b8360209093929193604081019481520152565b0390a43b610cb1575050501515611927565b610caa610977600754610c9a610c9582611b90565b600755565b6000526004602052604060002090565b9055604051f35b610d137fffffffff0000000000000000000000000000000000000000000000000000000093946020926040519485809481938c7ff23a6e61000000000000000000000000000000000000000000000000000000009b8c85523360048601611898565b03925af1908115610d2d575b86916108a557501614611927565b610d3561191a565b610d1f565b90815180825260208080930193019160005b828110610d5a575050505090565b835185529381019392810192600101610d4c565b9060206103da928181520190610d3a565b503461000e57604060031936011261000e5760043567ffffffffffffffff80821161000e573660238301121561000e578160040135610dbd816105ff565b92610dcb60405194856105be565b81845260209160248386019160051b8301019136831161000e57602401905b828210610e23578560243586811161000e5761046991610e11610e17923690600401610626565b90611ac4565b60405191829182610d6e565b838091610e2f846101dd565b815201910190610dea565b503461000e57600080600319360112610ec3576002547fffffffffffffffffffffffff000000000000000000000000000000000000000073ffffffffffffffffffffffffffffffffffffffff821691610e943384146116ce565b1660025581604051917f8be0079c531659141344cd1fd0a4f28419497f9722a3daafe3b4186f6b6457e08284a3f35b80fd5b503461000e57602060031936011261000e5773ffffffffffffffffffffffffffffffffffffffff610ef5610197565b1660005260036020526020604060002054604051908152f35b503461000e57600060031936011261000e57602073ffffffffffffffffffffffffffffffffffffffff60025416604051908152f35b60443590811515820361000e57565b503461000e57604060031936011261000e57610f6c610197565b6024358015159182820361000e57610ffa73ffffffffffffffffffffffffffffffffffffffff92336000526001602052610fca8360406000209073ffffffffffffffffffffffffffffffffffffffff16600052602052604060002090565b9060ff7fffffffffffffffffffffffffffffffffffffffffffffffffffffffffffffff0083541691151516179055565b60405192835216907f17307eab39ab6107e8899845ad3d59bd9653f200f220920489ca2b5937696c3160203392a3005b60405190611037826105a2565b600a82527f53544f524546524f4e54000000000000000000000000000000000000000000006020830152565b503461000e57600060031936011261000e5761046961108061102a565b604051918291602083526020830190610386565b503461000e57602060031936011261000e5760043560005260046020526020604060002054604051908152f35b503461000e5760e060031936011261000e576110db610197565b6110e36101ba565b6110eb610f43565b9060843560643560ff8216820361000e578042116112615760209161112461111760009387878a611f91565b61111f611ea4565b611f36565b6040805191825260ff92909216602082015260a4359181019190915260c435606082015281805260809060015afa15611254575b73ffffffffffffffffffffffffffffffffffffffff80600051168015908115611247575b506111e857816111d584610fca7f17307eab39ab6107e8899845ad3d59bd9653f200f220920489ca2b5937696c31956109bc8973ffffffffffffffffffffffffffffffffffffffff166000526001602052604060002090565b60405193151584528116931691602090a3005b6040517f08c379a000000000000000000000000000000000000000000000000000000000815260206004820152600a60248201527f494e56414c4944534947000000000000000000000000000000000000000000006044820152606490fd5b905081851614153861117c565b61125c61191a565b611158565b6040517f08c379a000000000000000000000000000000000000000000000000000000000815260206004820152600b60248201527f53494720455850495245440000000000000000000000000000000000000000006044820152606490fd5b503461000e57604060031936011261000e57602060ff6113316112e1610197565b73ffffffffffffffffffffffffffffffffffffffff6112fe6101ba565b91166000526001845260406000209073ffffffffffffffffffffffffffffffffffffffff16600052602052604060002090565b54166040519015158152f35b503461000e5760a060031936011261000e57611357610197565b61135f6101ba565b6084359160443560643567ffffffffffffffff851161000e576113896108249536906004016106cd565b9073ffffffffffffffffffffffffffffffffffffffff948585169586331480156114ed575b6113b7906117a2565b6113e5856109358873ffffffffffffffffffffffffffffffffffffffff166000526000602052604060002090565b6113f0848254611837565b9055611420856109358473ffffffffffffffffffffffffffffffffffffffff166000526000602052604060002090565b61142b84825461186b565b9055811680966040517fc3d58168c5ae7397731d063d5bbf3d657854427343f4c083240f7aacaa2d0f62339180611470888b8360209093929193604081019481520152565b0390a4600093903b6114885750505050501515611927565b917fffffffff0000000000000000000000000000000000000000000000000000000094956020928561088b95604051968795869485937ff23a6e61000000000000000000000000000000000000000000000000000000009d8e865233600487016118d8565b506113b76115226109e1336109bc8a73ffffffffffffffffffffffffffffffffffffffff166000526001602052604060002090565b90506113ae565b503461000e57602060031936011261000e57611543610197565b73ffffffffffffffffffffffffffffffffffffffff611567816002541633146116ce565b8116156115775761082490611733565b60846040517f08c379a000000000000000000000000000000000000000000000000000000000815260206004820152602660248201527f4f776e61626c653a206e6577206f776e657220697320746865207a65726f206160448201527f64647265737300000000000000000000000000000000000000000000000000006064820152fd5b503461000e57602060031936011261000e57611615610197565b6006549073ffffffffffffffffffffffffffffffffffffffff8083163314801561166b575b1561000e57167fffffffffffffffffffffffff00000000000000000000000000000000000000009190911617600655005b508060025416331461163a565b60405190611685826105a2565b600182527f31000000000000000000000000000000000000000000000000000000000000006020830152565b503461000e57600060031936011261000e57610469611080611678565b156116d557565b60646040517f08c379a000000000000000000000000000000000000000000000000000000000815260206004820152602060248201527f4f776e61626c653a2063616c6c6572206973206e6f7420746865206f776e65726044820152fd5b6002549073ffffffffffffffffffffffffffffffffffffffff80911691827fffffffffffffffffffffffff0000000000000000000000000000000000000000821617600255167f8be0079c531659141344cd1fd0a4f28419497f9722a3daafe3b4186f6b6457e06000604051a3565b156117a957565b60646040517f08c379a000000000000000000000000000000000000000000000000000000000815260206004820152600e60248201527f4e4f545f415554484f52495a45440000000000000000000000000000000000006044820152fd5b507f4e487b7100000000000000000000000000000000000000000000000000000000600052601160045260246000fd5b818110611842570390565b61184a611807565b0390565b801960301161185e575b60300190565b611866611807565b611858565b81198111611877570190565b61187f611807565b0190565b9081602091031261000e57516103da81610254565b909260a09273ffffffffffffffffffffffffffffffffffffffff6103da969516835260006020840152604083015260608201528160808201520190610386565b91926103da95949160a09473ffffffffffffffffffffffffffffffffffffffff8092168552166020840152604083015260608201528160808201520190610386565b506040513d6000823e3d90fd5b1561192e57565b60646040517f08c379a000000000000000000000000000000000000000000000000000000000815260206004820152601060248201527f554e534146455f524543495049454e54000000000000000000000000000000006044820152fd5b1561199357565b60646040517f08c379a000000000000000000000000000000000000000000000000000000000815260206004820152600f60248201527f4c454e4754485f4d49534d4154434800000000000000000000000000000000006044820152fd5b507f4e487b7100000000000000000000000000000000000000000000000000000000600052603260045260246000fd5b6020918151811015611a36575b60051b010190565b611a3e6119f1565b611a2e565b9091611a5a6103da93604084526040840190610d3a565b916020818403910152610d3a565b93906103da9593611aa891611ab69473ffffffffffffffffffffffffffffffffffffffff809216885216602087015260a0604087015260a0860190610d3a565b908482036060860152610d3a565b916080818403910152610386565b918251611ad38351821461198c565b8351611ade816105ff565b907fffffffffffffffffffffffffffffffffffffffffffffffffffffffffffffffe0611b1a604092611b12845195866105be565b8085526105ff565b01946020953687850137829560005b858110611b3b57505050505050909150565b8073ffffffffffffffffffffffffffffffffffffffff611b5d6001938c611a21565b51166000526000835284600020611b748286611a21565b5160005283528460002054611b898288611a21565b5201611b29565b6001907fffffffffffffffffffffffffffffffffffffffffffffffffffffffffffffffff8114611877570190565b90600182811c92168015611c07575b6020831014611bd857565b7f4e487b7100000000000000000000000000000000000000000000000000000000600052602260045260246000fd5b91607f1691611bcd565b601f8111611c1d575050565b600090600582527f036b6384b5eca791c62761152d0c79bb0604c104a5fb6f4eb0703f3154bb3db0906020601f850160051c83019410611c78575b601f0160051c01915b828110611c6d57505050565b818155600101611c61565b9092508290611c58565b60055460009291611c9282611bbe565b91600190818116908115611cfe5750600114611cad57505050565b909192935060056000527f036b6384b5eca791c62761152d0c79bb0604c104a5fb6f4eb0703f3154bb3db0906000915b848310611ceb575050500190565b8181602092548587015201920191611cdd565b7fffffffffffffffffffffffffffffffffffffffffffffffffffffffffffffff001683525050019150565b9061187f60209282815194859201610351565b906020918051821015611d4e57010190565b611d566119f1565b010190565b8015611e6a57806000908282935b611e565750611d7783610684565b92611d8560405194856105be565b808452817fffffffffffffffffffffffffffffffffffffffffffffffffffffffffffffffe0611db383610684565b013660208701375b611dc55750505090565b8060017fffffffffffffffffffffffffffffffffffffffffffffffffffffffffffffffff9210611e49575b0190600a90611e34611e0c611e0684840661184e565b60ff1690565b60f81b7fff000000000000000000000000000000000000000000000000000000000000001690565b841a611e408487611d3c565b53049081611dbb565b611e51611807565b611df0565b92611e62600a91611b90565b930480611d69565b50604051611e77816105a2565b600181527f3000000000000000000000000000000000000000000000000000000000000000602082015290565b611eac61102a565b60208151910120611ebb611678565b602081519101206040519060208201927f8b73c3c69bb8fe3d512ecc4cf759cc79239f7b179b0ffacaa9a75d522b39400f8452604083015260608201524660808201523060a082015260a0815260c0810181811067ffffffffffffffff821117611f29575b60405251902090565b611f31610549565b611f20565b906040519060208201927f1901000000000000000000000000000000000000000000000000000000000000845260228301526042820152604281526080810181811067ffffffffffffffff821117611f295760405251902090565b9290919273ffffffffffffffffffffffffffffffffffffffff80911693846000526003602052604060002091825492611fc984611b90565b90556040519460208601967f200d2483757e19728fc8a3511298158c1b74dd131c7be00c4904e11665b42cd1885260408701521660608501521515608084015260a083015260c082015260c0815260e0810181811067ffffffffffffffff821117611f29576040525190209056fea264697066735822122020538dd4cae196201659cf3a0303d5a6ce7b725249fe6552ba4f52a40e49b65e64736f6c634300080e0033",
          "opcodes": "PUSH1 0x80 CALLVALUE PUSH3 0x6F JUMPI PUSH1 0x1F PUSH3 0x21D1 CODESIZE DUP2 SWAP1 SUB SWAP2 DUP3 ADD PUSH1 0x1F NOT AND DUP4 ADD SWAP2 PUSH1 0x1 PUSH1 0x1 PUSH1 0x40 SHL SUB DUP4 GT DUP5 DUP5 LT OR PUSH3 0x74 JUMPI DUP1 DUP5 SWAP3 PUSH1 0x20 SWAP5 PUSH1 0x40 MSTORE DUP4 CODECOPY DUP2 ADD SUB SLT PUSH3 0x6F JUMPI MLOAD PUSH1 0x1 PUSH1 0x1 PUSH1 0xA0 SHL SUB DUP2 AND DUP2 SUB PUSH3 0x6F JUMPI PUSH3 0x5F SWAP1 PUSH3 0x8A JUMP JUMPDEST PUSH1 0x40 MLOAD PUSH2 0x206D SWAP1 DUP2 PUSH3 0x164 DUP3 CODECOPY RETURN JUMPDEST PUSH1 0x0 DUP1 REVERT JUMPDEST PUSH4 0x4E487B71 PUSH1 0xE0 SHL PUSH1 0x0 MSTORE PUSH1 0x41 PUSH1 0x4 MSTORE PUSH1 0x24 PUSH1 0x0 REVERT JUMPDEST PUSH1 0x2 DUP1 SLOAD CALLER PUSH1 0x1 PUSH1 0x1 PUSH1 0xA0 SHL SUB NOT DUP1 DUP4 AND DUP3 OR SWAP1 SWAP4 SSTORE PUSH1 0x40 MLOAD PUSH1 0x0 SWAP5 PUSH1 0x1 PUSH1 0x1 PUSH1 0xA0 SHL SUB SWAP4 SWAP1 SWAP3 SWAP2 SWAP1 DUP5 AND SWAP1 PUSH32 0x8BE0079C531659141344CD1FD0A4F28419497F9722A3DAAFE3B4186F6B6457E0 SWAP1 DUP8 SWAP1 LOG3 AND SWAP1 PUSH1 0x6 SLOAD AND OR PUSH1 0x6 SSTORE PUSH1 0x5 SLOAD PUSH1 0x1 SWAP2 DUP3 DUP3 DUP2 SHR SWAP3 AND DUP1 ISZERO PUSH3 0x158 JUMPI JUMPDEST PUSH1 0x20 DUP4 LT EQ PUSH3 0x144 JUMPI PUSH1 0x1F DUP3 GT PUSH3 0x117 JUMPI JUMPDEST POP POP POP PUSH1 0x0 PUSH1 0x5 SSTORE JUMP JUMPDEST PUSH1 0x5 DUP2 MSTORE PUSH1 0x1F PUSH1 0x20 DUP3 KECCAK256 SWAP3 ADD PUSH1 0x5 SHR DUP3 ADD SWAP2 JUMPDEST DUP3 DUP2 LT PUSH3 0x139 JUMPI POP PUSH3 0x10D JUMP JUMPDEST DUP2 DUP2 SSTORE DUP4 ADD PUSH3 0x12A JUMP JUMPDEST PUSH4 0x4E487B71 PUSH1 0xE0 SHL DUP2 MSTORE PUSH1 0x22 PUSH1 0x4 MSTORE PUSH1 0x24 SWAP1 REVERT JUMPDEST SWAP2 PUSH1 0x7F AND SWAP2 PUSH3 0xF9 JUMP INVALID PUSH1 0x80 PUSH1 0x40 MSTORE PUSH1 0x4 CALLDATASIZE LT ISZERO PUSH2 0x13 JUMPI JUMPDEST PUSH1 0x0 DUP1 REVERT JUMPDEST PUSH1 0x0 CALLDATALOAD PUSH1 0xE0 SHR DUP1 PUSH3 0xFDD58E EQ PUSH2 0x18E JUMPI DUP1 PUSH4 0x1FFC9A7 EQ PUSH2 0x185 JUMPI DUP1 PUSH4 0xE89341C EQ PUSH2 0x17C JUMPI DUP1 PUSH4 0x2EB2C2D6 EQ PUSH2 0x173 JUMPI DUP1 PUSH4 0x39F7E37F EQ PUSH2 0x16A JUMPI DUP1 PUSH4 0x40C10F19 EQ PUSH2 0x161 JUMPI DUP1 PUSH4 0x4E1273F4 EQ PUSH2 0x158 JUMPI DUP1 PUSH4 0x715018A6 EQ PUSH2 0x14F JUMPI DUP1 PUSH4 0x7ECEBE00 EQ PUSH2 0x146 JUMPI DUP1 PUSH4 0x8DA5CB5B EQ PUSH2 0x13D JUMPI DUP1 PUSH4 0xA22CB465 EQ PUSH2 0x134 JUMPI DUP1 PUSH4 0xA3F4DF7E EQ PUSH2 0x12B JUMPI DUP1 PUSH4 0xBD85B039 EQ PUSH2 0x122 JUMPI DUP1 PUSH4 0xCFA8FB42 EQ PUSH2 0x119 JUMPI DUP1 PUSH4 0xE985E9C5 EQ PUSH2 0x110 JUMPI DUP1 PUSH4 0xF242432A EQ PUSH2 0x107 JUMPI DUP1 PUSH4 0xF2FDE38B EQ PUSH2 0xFE JUMPI DUP1 PUSH4 0xFE99AD5A EQ PUSH2 0xF5 JUMPI PUSH4 0xFFA1AD74 EQ PUSH2 0xED JUMPI PUSH1 0x0 DUP1 REVERT JUMPDEST PUSH2 0xE PUSH2 0x16B1 JUMP JUMPDEST POP PUSH2 0xE PUSH2 0x15FB JUMP JUMPDEST POP PUSH2 0xE PUSH2 0x1529 JUMP JUMPDEST POP PUSH2 0xE PUSH2 0x133D JUMP JUMPDEST POP PUSH2 0xE PUSH2 0x12C0 JUMP JUMPDEST POP PUSH2 0xE PUSH2 0x10C1 JUMP JUMPDEST POP PUSH2 0xE PUSH2 0x1094 JUMP JUMPDEST POP PUSH2 0xE PUSH2 0x1063 JUMP JUMPDEST POP PUSH2 0xE PUSH2 0xF52 JUMP JUMPDEST POP PUSH2 0xE PUSH2 0xF0E JUMP JUMPDEST POP PUSH2 0xE PUSH2 0xEC6 JUMP JUMPDEST POP PUSH2 0xE PUSH2 0xE3A JUMP JUMPDEST POP PUSH2 0xE PUSH2 0xD7F JUMP JUMPDEST POP PUSH2 0xE PUSH2 0xB95 JUMP JUMPDEST POP PUSH2 0xE PUSH2 0x9EF JUMP JUMPDEST POP PUSH2 0xE PUSH2 0x714 JUMP JUMPDEST POP PUSH2 0xE PUSH2 0x3DD JUMP JUMPDEST POP PUSH2 0xE PUSH2 0x27E JUMP JUMPDEST POP PUSH2 0xE PUSH2 0x1FE JUMP JUMPDEST PUSH1 0x4 CALLDATALOAD SWAP1 PUSH20 0xFFFFFFFFFFFFFFFFFFFFFFFFFFFFFFFFFFFFFFFF DUP3 AND DUP3 SUB PUSH2 0xE JUMPI JUMP JUMPDEST PUSH1 0x24 CALLDATALOAD SWAP1 PUSH20 0xFFFFFFFFFFFFFFFFFFFFFFFFFFFFFFFFFFFFFFFF DUP3 AND DUP3 SUB PUSH2 0xE JUMPI JUMP JUMPDEST CALLDATALOAD SWAP1 PUSH20 0xFFFFFFFFFFFFFFFFFFFFFFFFFFFFFFFFFFFFFFFF DUP3 AND DUP3 SUB PUSH2 0xE JUMPI JUMP JUMPDEST POP CALLVALUE PUSH2 0xE JUMPI PUSH1 0x40 PUSH1 0x3 NOT CALLDATASIZE ADD SLT PUSH2 0xE JUMPI PUSH20 0xFFFFFFFFFFFFFFFFFFFFFFFFFFFFFFFFFFFFFFFF PUSH2 0x22D PUSH2 0x197 JUMP JUMPDEST AND PUSH1 0x0 MSTORE PUSH1 0x0 PUSH1 0x20 MSTORE PUSH1 0x40 PUSH1 0x0 KECCAK256 PUSH1 0x24 CALLDATALOAD PUSH1 0x0 MSTORE PUSH1 0x20 MSTORE PUSH1 0x20 PUSH1 0x40 PUSH1 0x0 KECCAK256 SLOAD PUSH1 0x40 MLOAD SWAP1 DUP2 MSTORE RETURN JUMPDEST PUSH32 0xFFFFFFFF00000000000000000000000000000000000000000000000000000000 DUP2 AND SUB PUSH2 0xE JUMPI JUMP JUMPDEST POP CALLVALUE PUSH2 0xE JUMPI PUSH1 0x20 PUSH1 0x3 NOT CALLDATASIZE ADD SLT PUSH2 0xE JUMPI PUSH1 0x20 PUSH32 0xFFFFFFFF00000000000000000000000000000000000000000000000000000000 PUSH1 0x4 CALLDATALOAD PUSH2 0x2BF DUP2 PUSH2 0x254 JUMP JUMPDEST AND PUSH32 0x1FFC9A700000000000000000000000000000000000000000000000000000000 DUP2 EQ SWAP1 DUP2 ISZERO PUSH2 0x327 JUMPI JUMPDEST DUP2 ISZERO PUSH2 0x2FD JUMPI JUMPDEST POP PUSH1 0x40 MLOAD SWAP1 ISZERO ISZERO DUP2 MSTORE RETURN JUMPDEST PUSH32 0xE89341C00000000000000000000000000000000000000000000000000000000 SWAP2 POP EQ CODESIZE PUSH2 0x2F2 JUMP JUMPDEST PUSH32 0xD9B67A2600000000000000000000000000000000000000000000000000000000 DUP2 EQ SWAP2 POP PUSH2 0x2EB JUMP JUMPDEST SWAP2 DUP1 SWAP2 SWAP3 PUSH1 0x0 SWAP1 JUMPDEST DUP3 DUP3 LT PUSH2 0x371 JUMPI POP GT PUSH2 0x36A JUMPI POP POP JUMP JUMPDEST PUSH1 0x0 SWAP2 ADD MSTORE JUMP JUMPDEST SWAP2 POP DUP1 PUSH1 0x20 SWAP2 DUP4 ADD MLOAD DUP2 DUP7 ADD MSTORE ADD DUP3 SWAP2 PUSH2 0x359 JUMP JUMPDEST SWAP1 PUSH32 0xFFFFFFFFFFFFFFFFFFFFFFFFFFFFFFFFFFFFFFFFFFFFFFFFFFFFFFFFFFFFFFE0 PUSH1 0x1F PUSH1 0x20 SWAP4 PUSH2 0x3C2 DUP2 MLOAD DUP1 SWAP3 DUP2 DUP8 MSTORE DUP8 DUP1 DUP9 ADD SWAP2 ADD PUSH2 0x351 JUMP JUMPDEST ADD AND ADD ADD SWAP1 JUMP JUMPDEST SWAP1 PUSH1 0x20 PUSH2 0x3DA SWAP3 DUP2 DUP2 MSTORE ADD SWAP1 PUSH2 0x386 JUMP JUMPDEST SWAP1 JUMP JUMPDEST POP CALLVALUE PUSH2 0xE JUMPI PUSH1 0x20 DUP1 PUSH1 0x3 NOT CALLDATASIZE ADD SLT PUSH2 0xE JUMPI PUSH1 0x5 SLOAD PUSH2 0x3FC DUP2 PUSH2 0x1BBE JUMP JUMPDEST PUSH1 0x0 SWAP1 ISZERO PUSH2 0x46D JUMPI POP POP PUSH2 0x42B PUSH2 0x45D PUSH2 0x469 SWAP3 PUSH2 0x431 PUSH2 0x41E PUSH1 0x4 CALLDATALOAD PUSH2 0x1D5B JUMP JUMPDEST PUSH1 0x40 MLOAD SWAP5 DUP6 SWAP4 DUP5 ADD PUSH2 0x1C82 JUMP JUMPDEST SWAP1 PUSH2 0x1D29 JUMP JUMPDEST SUB PUSH32 0xFFFFFFFFFFFFFFFFFFFFFFFFFFFFFFFFFFFFFFFFFFFFFFFFFFFFFFFFFFFFFFE0 DUP2 ADD DUP4 MSTORE DUP3 PUSH2 0x5BE JUMP JUMPDEST PUSH1 0x40 MLOAD SWAP2 DUP3 SWAP2 DUP3 PUSH2 0x3C9 JUMP JUMPDEST SUB SWAP1 RETURN JUMPDEST SWAP1 SWAP2 PUSH1 0x40 MLOAD SWAP2 DUP1 SWAP4 PUSH2 0x47E DUP2 PUSH2 0x1BBE JUMP JUMPDEST DUP1 DUP6 MSTORE SWAP2 PUSH1 0x1 SWAP2 DUP1 DUP4 AND SWAP1 DUP2 ISZERO PUSH2 0x509 JUMPI POP PUSH1 0x1 EQ PUSH2 0x4B0 JUMPI JUMPDEST POP POP POP POP PUSH2 0x4AB DUP2 PUSH2 0x469 SWAP4 SUB DUP3 PUSH2 0x5BE JUMP JUMPDEST PUSH2 0x45D JUMP JUMPDEST SWAP3 SWAP5 POP PUSH1 0x5 DUP4 MSTORE PUSH32 0x36B6384B5ECA791C62761152D0C79BB0604C104A5FB6F4EB0703F3154BB3DB0 JUMPDEST DUP3 DUP5 LT PUSH2 0x4F6 JUMPI POP POP POP DUP2 PUSH2 0x469 SWAP4 PUSH2 0x4AB SWAP3 DUP3 ADD ADD SWAP4 CODESIZE PUSH2 0x498 JUMP JUMPDEST DUP1 SLOAD DUP6 DUP6 ADD DUP8 ADD MSTORE SWAP3 DUP6 ADD SWAP3 DUP2 ADD PUSH2 0x4D9 JUMP JUMPDEST SWAP3 POP POP POP PUSH2 0x469 SWAP5 POP PUSH32 0xFFFFFFFFFFFFFFFFFFFFFFFFFFFFFFFFFFFFFFFFFFFFFFFFFFFFFFFFFFFFFF00 SWAP2 POP AND SWAP1 DUP3 ADD MSTORE PUSH2 0x4AB DUP2 PUSH1 0x40 DUP2 ADD SWAP4 CODESIZE PUSH2 0x498 JUMP JUMPDEST POP PUSH32 0x4E487B7100000000000000000000000000000000000000000000000000000000 PUSH1 0x0 MSTORE PUSH1 0x41 PUSH1 0x4 MSTORE PUSH1 0x24 PUSH1 0x0 REVERT JUMPDEST PUSH1 0x20 DUP2 ADD SWAP1 DUP2 LT PUSH8 0xFFFFFFFFFFFFFFFF DUP3 GT OR PUSH2 0x595 JUMPI PUSH1 0x40 MSTORE JUMP JUMPDEST PUSH2 0x59D PUSH2 0x549 JUMP JUMPDEST PUSH1 0x40 MSTORE JUMP JUMPDEST PUSH1 0x40 DUP2 ADD SWAP1 DUP2 LT PUSH8 0xFFFFFFFFFFFFFFFF DUP3 GT OR PUSH2 0x595 JUMPI PUSH1 0x40 MSTORE JUMP JUMPDEST SWAP1 PUSH1 0x1F PUSH32 0xFFFFFFFFFFFFFFFFFFFFFFFFFFFFFFFFFFFFFFFFFFFFFFFFFFFFFFFFFFFFFFE0 SWAP2 ADD AND DUP2 ADD SWAP1 DUP2 LT PUSH8 0xFFFFFFFFFFFFFFFF DUP3 GT OR PUSH2 0x595 JUMPI PUSH1 0x40 MSTORE JUMP JUMPDEST PUSH1 0x20 SWAP1 PUSH8 0xFFFFFFFFFFFFFFFF DUP2 GT PUSH2 0x619 JUMPI JUMPDEST PUSH1 0x5 SHL ADD SWAP1 JUMP JUMPDEST PUSH2 0x621 PUSH2 0x549 JUMP JUMPDEST PUSH2 0x612 JUMP JUMPDEST DUP2 PUSH1 0x1F DUP3 ADD SLT ISZERO PUSH2 0xE JUMPI DUP1 CALLDATALOAD SWAP2 PUSH2 0x63D DUP4 PUSH2 0x5FF JUMP JUMPDEST SWAP3 PUSH2 0x64B PUSH1 0x40 MLOAD SWAP5 DUP6 PUSH2 0x5BE JUMP JUMPDEST DUP1 DUP5 MSTORE PUSH1 0x20 SWAP3 DUP4 DUP1 DUP7 ADD SWAP3 PUSH1 0x5 SHL DUP3 ADD ADD SWAP3 DUP4 GT PUSH2 0xE JUMPI DUP4 ADD SWAP1 JUMPDEST DUP3 DUP3 LT PUSH2 0x675 JUMPI POP POP POP POP SWAP1 JUMP JUMPDEST DUP2 CALLDATALOAD DUP2 MSTORE SWAP1 DUP4 ADD SWAP1 DUP4 ADD PUSH2 0x667 JUMP JUMPDEST PUSH32 0xFFFFFFFFFFFFFFFFFFFFFFFFFFFFFFFFFFFFFFFFFFFFFFFFFFFFFFFFFFFFFFE0 PUSH1 0x1F PUSH1 0x20 SWAP3 PUSH8 0xFFFFFFFFFFFFFFFF DUP2 GT PUSH2 0x6C0 JUMPI JUMPDEST ADD AND ADD SWAP1 JUMP JUMPDEST PUSH2 0x6C8 PUSH2 0x549 JUMP JUMPDEST PUSH2 0x6BA JUMP JUMPDEST DUP2 PUSH1 0x1F DUP3 ADD SLT ISZERO PUSH2 0xE JUMPI DUP1 CALLDATALOAD SWAP1 PUSH2 0x6E4 DUP3 PUSH2 0x684 JUMP JUMPDEST SWAP3 PUSH2 0x6F2 PUSH1 0x40 MLOAD SWAP5 DUP6 PUSH2 0x5BE JUMP JUMPDEST DUP3 DUP5 MSTORE PUSH1 0x20 DUP4 DUP4 ADD ADD GT PUSH2 0xE JUMPI DUP2 PUSH1 0x0 SWAP3 PUSH1 0x20 DUP1 SWAP4 ADD DUP4 DUP7 ADD CALLDATACOPY DUP4 ADD ADD MSTORE SWAP1 JUMP JUMPDEST POP CALLVALUE PUSH2 0xE JUMPI PUSH1 0xA0 PUSH1 0x3 NOT CALLDATASIZE ADD SLT PUSH2 0xE JUMPI PUSH2 0x72E PUSH2 0x197 JUMP JUMPDEST PUSH2 0x736 PUSH2 0x1BA JUMP JUMPDEST SWAP1 PUSH8 0xFFFFFFFFFFFFFFFF SWAP1 PUSH1 0x44 CALLDATALOAD DUP3 DUP2 GT PUSH2 0xE JUMPI PUSH2 0x759 SWAP1 CALLDATASIZE SWAP1 PUSH1 0x4 ADD PUSH2 0x626 JUMP JUMPDEST PUSH1 0x64 CALLDATALOAD DUP4 DUP2 GT PUSH2 0xE JUMPI PUSH2 0x771 SWAP1 CALLDATASIZE SWAP1 PUSH1 0x4 ADD PUSH2 0x626 JUMP JUMPDEST SWAP3 PUSH1 0x84 CALLDATALOAD SWAP1 DUP2 GT PUSH2 0xE JUMPI PUSH2 0x78A SWAP1 CALLDATASIZE SWAP1 PUSH1 0x4 ADD PUSH2 0x6CD JUMP JUMPDEST DUP2 MLOAD SWAP4 PUSH2 0x799 DUP2 MLOAD DUP7 EQ PUSH2 0x198C JUMP JUMPDEST PUSH20 0xFFFFFFFFFFFFFFFFFFFFFFFFFFFFFFFFFFFFFFFF DUP1 DUP6 AND SWAP6 DUP7 CALLER EQ DUP1 ISZERO PUSH2 0x987 JUMPI JUMPDEST PUSH2 0x7C5 SWAP1 PUSH2 0x17A2 JUMP JUMPDEST PUSH1 0x0 JUMPDEST DUP2 DUP2 LT PUSH2 0x8E0 JUMPI POP POP SWAP6 PUSH2 0x824 SWAP7 DUP2 AND DUP1 SWAP7 PUSH1 0x40 MLOAD PUSH32 0x4A39DC06D4C0DBC64B70AF90FD698A233A518AA5D07E595D983B8C0526C8F7FB CALLER SWAP2 DUP1 PUSH2 0x80C DUP9 DUP12 DUP4 PUSH2 0x1A43 JUMP JUMPDEST SUB SWAP1 LOG4 PUSH1 0x0 SWAP4 SWAP1 EXTCODESIZE PUSH2 0x826 JUMPI POP POP POP POP POP ISZERO ISZERO PUSH2 0x1927 JUMP JUMPDEST STOP JUMPDEST SWAP2 PUSH32 0xFFFFFFFF00000000000000000000000000000000000000000000000000000000 SWAP5 SWAP6 PUSH1 0x20 SWAP3 DUP6 PUSH2 0x88B SWAP6 PUSH1 0x40 MLOAD SWAP7 DUP8 SWAP6 DUP7 SWAP5 DUP6 SWAP4 PUSH32 0xBC197C8100000000000000000000000000000000000000000000000000000000 SWAP14 DUP15 DUP7 MSTORE CALLER PUSH1 0x4 DUP8 ADD PUSH2 0x1A68 JUMP JUMPDEST SUB SWAP3 GAS CALL SWAP2 DUP3 ISZERO PUSH2 0x8D3 JUMPI JUMPDEST SWAP2 PUSH2 0x8A5 JUMPI JUMPDEST POP AND EQ PUSH2 0x1927 JUMP JUMPDEST PUSH2 0x8C6 SWAP2 POP PUSH1 0x20 RETURNDATASIZE DUP2 GT PUSH2 0x8CC JUMPI JUMPDEST PUSH2 0x8BE DUP2 DUP4 PUSH2 0x5BE JUMP JUMPDEST DUP2 ADD SWAP1 PUSH2 0x1883 JUMP JUMPDEST CODESIZE PUSH2 0x89D JUMP JUMPDEST POP RETURNDATASIZE PUSH2 0x8B4 JUMP JUMPDEST PUSH2 0x8DB PUSH2 0x191A JUMP JUMPDEST PUSH2 0x897 JUMP JUMPDEST DUP1 DUP8 PUSH2 0x97F PUSH2 0x977 DUP4 PUSH2 0x935 DUP15 PUSH2 0x944 DUP12 PUSH2 0x935 DUP16 PUSH2 0x904 PUSH1 0x1 SWAP13 PUSH2 0x90D SWAP3 PUSH2 0x1A21 JUMP JUMPDEST MLOAD SWAP7 DUP8 SWAP4 PUSH2 0x1A21 JUMP JUMPDEST MLOAD SWAP9 PUSH20 0xFFFFFFFFFFFFFFFFFFFFFFFFFFFFFFFFFFFFFFFF AND PUSH1 0x0 MSTORE PUSH1 0x0 PUSH1 0x20 MSTORE PUSH1 0x40 PUSH1 0x0 KECCAK256 SWAP1 JUMP JUMPDEST SWAP1 PUSH1 0x0 MSTORE PUSH1 0x20 MSTORE PUSH1 0x40 PUSH1 0x0 KECCAK256 SWAP1 JUMP JUMPDEST PUSH2 0x94F DUP8 DUP3 SLOAD PUSH2 0x1837 JUMP JUMPDEST SWAP1 SSTORE PUSH20 0xFFFFFFFFFFFFFFFFFFFFFFFFFFFFFFFFFFFFFFFF AND PUSH1 0x0 MSTORE PUSH1 0x0 PUSH1 0x20 MSTORE PUSH1 0x40 PUSH1 0x0 KECCAK256 SWAP1 JUMP JUMPDEST SWAP2 DUP3 SLOAD PUSH2 0x186B JUMP JUMPDEST SWAP1 SSTORE ADD PUSH2 0x7C8 JUMP JUMPDEST POP PUSH2 0x7C5 PUSH2 0x9E8 PUSH2 0x9E1 CALLER PUSH2 0x9BC DUP11 PUSH20 0xFFFFFFFFFFFFFFFFFFFFFFFFFFFFFFFFFFFFFFFF AND PUSH1 0x0 MSTORE PUSH1 0x1 PUSH1 0x20 MSTORE PUSH1 0x40 PUSH1 0x0 KECCAK256 SWAP1 JUMP JUMPDEST SWAP1 PUSH20 0xFFFFFFFFFFFFFFFFFFFFFFFFFFFFFFFFFFFFFFFF AND PUSH1 0x0 MSTORE PUSH1 0x20 MSTORE PUSH1 0x40 PUSH1 0x0 KECCAK256 SWAP1 JUMP JUMPDEST SLOAD PUSH1 0xFF AND SWAP1 JUMP JUMPDEST SWAP1 POP PUSH2 0x7BC JUMP JUMPDEST POP CALLVALUE PUSH2 0xE JUMPI PUSH1 0x20 DUP1 PUSH1 0x3 NOT CALLDATASIZE ADD SLT PUSH2 0xE JUMPI PUSH8 0xFFFFFFFFFFFFFFFF PUSH1 0x4 CALLDATALOAD DUP2 DUP2 GT PUSH2 0xE JUMPI CALLDATASIZE PUSH1 0x23 DUP3 ADD SLT ISZERO PUSH2 0xE JUMPI DUP1 PUSH1 0x4 ADD CALLDATALOAD SWAP2 DUP3 GT PUSH2 0xE JUMPI PUSH1 0x24 SWAP1 CALLDATASIZE DUP3 DUP5 DUP4 ADD ADD GT PUSH2 0xE JUMPI PUSH2 0xA5D PUSH20 0xFFFFFFFFFFFFFFFFFFFFFFFFFFFFFFFFFFFFFFFF PUSH1 0x2 SLOAD AND CALLER EQ PUSH2 0x16CE JUMP JUMPDEST PUSH2 0xA71 DUP4 PUSH2 0xA6C PUSH1 0x5 SLOAD PUSH2 0x1BBE JUMP JUMPDEST PUSH2 0x1C11 JUMP JUMPDEST PUSH1 0x0 SWAP4 PUSH1 0x1F DUP5 GT PUSH1 0x1 EQ PUSH2 0xACD JUMPI POP SWAP3 DUP3 SWAP4 PUSH1 0x0 SWAP4 PUSH2 0xAC0 JUMPI JUMPDEST POP POP POP PUSH32 0xFFFFFFFFFFFFFFFFFFFFFFFFFFFFFFFFFFFFFFFFFFFFFFFFFFFFFFFFFFFFFFFF DUP3 PUSH1 0x1 SHL SWAP3 PUSH1 0x3 SHL SHR NOT AND OR PUSH1 0x5 SSTORE STOP JUMPDEST ADD ADD CALLDATALOAD SWAP1 POP CODESIZE DUP1 DUP1 PUSH2 0xA8B JUMP JUMPDEST SWAP2 PUSH32 0xFFFFFFFFFFFFFFFFFFFFFFFFFFFFFFFFFFFFFFFFFFFFFFFFFFFFFFFFFFFFFFE0 DUP5 AND SWAP5 PUSH2 0xB1E PUSH1 0x5 PUSH1 0x0 MSTORE PUSH32 0x36B6384B5ECA791C62761152D0C79BB0604C104A5FB6F4EB0703F3154BB3DB0 SWAP1 JUMP JUMPDEST SWAP4 DUP2 SWAP1 JUMPDEST DUP8 DUP3 LT PUSH2 0xB7B JUMPI POP POP DUP5 PUSH1 0x1 SWAP7 LT PUSH2 0xB41 JUMPI JUMPDEST POP POP POP POP DUP2 SHL ADD PUSH1 0x5 SSTORE STOP JUMPDEST PUSH32 0xFFFFFFFFFFFFFFFFFFFFFFFFFFFFFFFFFFFFFFFFFFFFFFFFFFFFFFFFFFFFFFFF PUSH1 0xF8 DUP7 PUSH1 0x3 SHL AND SHR NOT SWAP3 ADD ADD CALLDATALOAD AND SWAP1 SSTORE CODESIZE DUP1 DUP1 DUP1 PUSH2 0xB35 JUMP JUMPDEST DUP1 PUSH1 0x1 DUP5 SWAP8 DUP7 DUP4 SWAP6 SWAP7 DUP10 ADD ADD CALLDATALOAD DUP2 SSTORE ADD SWAP7 ADD SWAP3 ADD SWAP1 PUSH2 0xB22 JUMP JUMPDEST POP CALLVALUE PUSH2 0xE JUMPI PUSH1 0x40 PUSH1 0x3 NOT CALLDATASIZE ADD SLT PUSH2 0xE JUMPI PUSH2 0xBAF PUSH2 0x197 JUMP JUMPDEST PUSH1 0x24 CALLDATALOAD PUSH20 0xFFFFFFFFFFFFFFFFFFFFFFFFFFFFFFFFFFFFFFFF SWAP2 DUP3 PUSH1 0x6 SLOAD AND CALLER SUB PUSH2 0xE JUMPI PUSH2 0xC80 SWAP1 PUSH1 0x7 SLOAD PUSH1 0x40 MLOAD SWAP5 PUSH2 0xBE7 DUP7 PUSH2 0x579 JUMP JUMPDEST PUSH1 0x0 SWAP6 DUP7 SWAP2 DUP3 DUP3 MSTORE PUSH2 0xC1D DUP5 PUSH2 0x935 DUP8 PUSH20 0xFFFFFFFFFFFFFFFFFFFFFFFFFFFFFFFFFFFFFFFF AND PUSH1 0x0 MSTORE PUSH1 0x0 PUSH1 0x20 MSTORE PUSH1 0x40 PUSH1 0x0 KECCAK256 SWAP1 JUMP JUMPDEST PUSH2 0xC28 DUP9 DUP3 SLOAD PUSH2 0x186B JUMP JUMPDEST SWAP1 SSTORE DUP5 AND SWAP4 DUP5 DUP4 PUSH1 0x40 MLOAD PUSH32 0xC3D58168C5AE7397731D063D5BBF3D657854427343F4C083240F7AACAA2D0F62 CALLER SWAP2 DUP1 PUSH2 0xC6E DUP14 DUP12 DUP4 PUSH1 0x20 SWAP1 SWAP4 SWAP3 SWAP2 SWAP4 PUSH1 0x40 DUP2 ADD SWAP5 DUP2 MSTORE ADD MSTORE JUMP JUMPDEST SUB SWAP1 LOG4 EXTCODESIZE PUSH2 0xCB1 JUMPI POP POP POP ISZERO ISZERO PUSH2 0x1927 JUMP JUMPDEST PUSH2 0xCAA PUSH2 0x977 PUSH1 0x7 SLOAD PUSH2 0xC9A PUSH2 0xC95 DUP3 PUSH2 0x1B90 JUMP JUMPDEST PUSH1 0x7 SSTORE JUMP JUMPDEST PUSH1 0x0 MSTORE PUSH1 0x4 PUSH1 0x20 MSTORE PUSH1 0x40 PUSH1 0x0 KECCAK256 SWAP1 JUMP JUMPDEST SWAP1 SSTORE PUSH1 0x40 MLOAD RETURN JUMPDEST PUSH2 0xD13 PUSH32 0xFFFFFFFF00000000000000000000000000000000000000000000000000000000 SWAP4 SWAP5 PUSH1 0x20 SWAP3 PUSH1 0x40 MLOAD SWAP5 DUP6 DUP1 SWAP5 DUP2 SWAP4 DUP13 PUSH32 0xF23A6E6100000000000000000000000000000000000000000000000000000000 SWAP12 DUP13 DUP6 MSTORE CALLER PUSH1 0x4 DUP7 ADD PUSH2 0x1898 JUMP JUMPDEST SUB SWAP3 GAS CALL SWAP1 DUP2 ISZERO PUSH2 0xD2D JUMPI JUMPDEST DUP7 SWAP2 PUSH2 0x8A5 JUMPI POP AND EQ PUSH2 0x1927 JUMP JUMPDEST PUSH2 0xD35 PUSH2 0x191A JUMP JUMPDEST PUSH2 0xD1F JUMP JUMPDEST SWAP1 DUP2 MLOAD DUP1 DUP3 MSTORE PUSH1 0x20 DUP1 DUP1 SWAP4 ADD SWAP4 ADD SWAP2 PUSH1 0x0 JUMPDEST DUP3 DUP2 LT PUSH2 0xD5A JUMPI POP POP POP POP SWAP1 JUMP JUMPDEST DUP4 MLOAD DUP6 MSTORE SWAP4 DUP2 ADD SWAP4 SWAP3 DUP2 ADD SWAP3 PUSH1 0x1 ADD PUSH2 0xD4C JUMP JUMPDEST SWAP1 PUSH1 0x20 PUSH2 0x3DA SWAP3 DUP2 DUP2 MSTORE ADD SWAP1 PUSH2 0xD3A JUMP JUMPDEST POP CALLVALUE PUSH2 0xE JUMPI PUSH1 0x40 PUSH1 0x3 NOT CALLDATASIZE ADD SLT PUSH2 0xE JUMPI PUSH1 0x4 CALLDATALOAD PUSH8 0xFFFFFFFFFFFFFFFF DUP1 DUP3 GT PUSH2 0xE JUMPI CALLDATASIZE PUSH1 0x23 DUP4 ADD SLT ISZERO PUSH2 0xE JUMPI DUP2 PUSH1 0x4 ADD CALLDATALOAD PUSH2 0xDBD DUP2 PUSH2 0x5FF JUMP JUMPDEST SWAP3 PUSH2 0xDCB PUSH1 0x40 MLOAD SWAP5 DUP6 PUSH2 0x5BE JUMP JUMPDEST DUP2 DUP5 MSTORE PUSH1 0x20 SWAP2 PUSH1 0x24 DUP4 DUP7 ADD SWAP2 PUSH1 0x5 SHL DUP4 ADD ADD SWAP2 CALLDATASIZE DUP4 GT PUSH2 0xE JUMPI PUSH1 0x24 ADD SWAP1 JUMPDEST DUP3 DUP3 LT PUSH2 0xE23 JUMPI DUP6 PUSH1 0x24 CALLDATALOAD DUP7 DUP2 GT PUSH2 0xE JUMPI PUSH2 0x469 SWAP2 PUSH2 0xE11 PUSH2 0xE17 SWAP3 CALLDATASIZE SWAP1 PUSH1 0x4 ADD PUSH2 0x626 JUMP JUMPDEST SWAP1 PUSH2 0x1AC4 JUMP JUMPDEST PUSH1 0x40 MLOAD SWAP2 DUP3 SWAP2 DUP3 PUSH2 0xD6E JUMP JUMPDEST DUP4 DUP1 SWAP2 PUSH2 0xE2F DUP5 PUSH2 0x1DD JUMP JUMPDEST DUP2 MSTORE ADD SWAP2 ADD SWAP1 PUSH2 0xDEA JUMP JUMPDEST POP CALLVALUE PUSH2 0xE JUMPI PUSH1 0x0 DUP1 PUSH1 0x3 NOT CALLDATASIZE ADD SLT PUSH2 0xEC3 JUMPI PUSH1 0x2 SLOAD PUSH32 0xFFFFFFFFFFFFFFFFFFFFFFFF0000000000000000000000000000000000000000 PUSH20 0xFFFFFFFFFFFFFFFFFFFFFFFFFFFFFFFFFFFFFFFF DUP3 AND SWAP2 PUSH2 0xE94 CALLER DUP5 EQ PUSH2 0x16CE JUMP JUMPDEST AND PUSH1 0x2 SSTORE DUP2 PUSH1 0x40 MLOAD SWAP2 PUSH32 0x8BE0079C531659141344CD1FD0A4F28419497F9722A3DAAFE3B4186F6B6457E0 DUP3 DUP5 LOG3 RETURN JUMPDEST DUP1 REVERT JUMPDEST POP CALLVALUE PUSH2 0xE JUMPI PUSH1 0x20 PUSH1 0x3 NOT CALLDATASIZE ADD SLT PUSH2 0xE JUMPI PUSH20 0xFFFFFFFFFFFFFFFFFFFFFFFFFFFFFFFFFFFFFFFF PUSH2 0xEF5 PUSH2 0x197 JUMP JUMPDEST AND PUSH1 0x0 MSTORE PUSH1 0x3 PUSH1 0x20 MSTORE PUSH1 0x20 PUSH1 0x40 PUSH1 0x0 KECCAK256 SLOAD PUSH1 0x40 MLOAD SWAP1 DUP2 MSTORE RETURN JUMPDEST POP CALLVALUE PUSH2 0xE JUMPI PUSH1 0x0 PUSH1 0x3 NOT CALLDATASIZE ADD SLT PUSH2 0xE JUMPI PUSH1 0x20 PUSH20 0xFFFFFFFFFFFFFFFFFFFFFFFFFFFFFFFFFFFFFFFF PUSH1 0x2 SLOAD AND PUSH1 0x40 MLOAD SWAP1 DUP2 MSTORE RETURN JUMPDEST PUSH1 0x44 CALLDATALOAD SWAP1 DUP2 ISZERO ISZERO DUP3 SUB PUSH2 0xE JUMPI JUMP JUMPDEST POP CALLVALUE PUSH2 0xE JUMPI PUSH1 0x40 PUSH1 0x3 NOT CALLDATASIZE ADD SLT PUSH2 0xE JUMPI PUSH2 0xF6C PUSH2 0x197 JUMP JUMPDEST PUSH1 0x24 CALLDATALOAD DUP1 ISZERO ISZERO SWAP2 DUP3 DUP3 SUB PUSH2 0xE JUMPI PUSH2 0xFFA PUSH20 0xFFFFFFFFFFFFFFFFFFFFFFFFFFFFFFFFFFFFFFFF SWAP3 CALLER PUSH1 0x0 MSTORE PUSH1 0x1 PUSH1 0x20 MSTORE PUSH2 0xFCA DUP4 PUSH1 0x40 PUSH1 0x0 KECCAK256 SWAP1 PUSH20 0xFFFFFFFFFFFFFFFFFFFFFFFFFFFFFFFFFFFFFFFF AND PUSH1 0x0 MSTORE PUSH1 0x20 MSTORE PUSH1 0x40 PUSH1 0x0 KECCAK256 SWAP1 JUMP JUMPDEST SWAP1 PUSH1 0xFF PUSH32 0xFFFFFFFFFFFFFFFFFFFFFFFFFFFFFFFFFFFFFFFFFFFFFFFFFFFFFFFFFFFFFF00 DUP4 SLOAD AND SWAP2 ISZERO ISZERO AND OR SWAP1 SSTORE JUMP JUMPDEST PUSH1 0x40 MLOAD SWAP3 DUP4 MSTORE AND SWAP1 PUSH32 0x17307EAB39AB6107E8899845AD3D59BD9653F200F220920489CA2B5937696C31 PUSH1 0x20 CALLER SWAP3 LOG3 STOP JUMPDEST PUSH1 0x40 MLOAD SWAP1 PUSH2 0x1037 DUP3 PUSH2 0x5A2 JUMP JUMPDEST PUSH1 0xA DUP3 MSTORE PUSH32 0x53544F524546524F4E5400000000000000000000000000000000000000000000 PUSH1 0x20 DUP4 ADD MSTORE JUMP JUMPDEST POP CALLVALUE PUSH2 0xE JUMPI PUSH1 0x0 PUSH1 0x3 NOT CALLDATASIZE ADD SLT PUSH2 0xE JUMPI PUSH2 0x469 PUSH2 0x1080 PUSH2 0x102A JUMP JUMPDEST PUSH1 0x40 MLOAD SWAP2 DUP3 SWAP2 PUSH1 0x20 DUP4 MSTORE PUSH1 0x20 DUP4 ADD SWAP1 PUSH2 0x386 JUMP JUMPDEST POP CALLVALUE PUSH2 0xE JUMPI PUSH1 0x20 PUSH1 0x3 NOT CALLDATASIZE ADD SLT PUSH2 0xE JUMPI PUSH1 0x4 CALLDATALOAD PUSH1 0x0 MSTORE PUSH1 0x4 PUSH1 0x20 MSTORE PUSH1 0x20 PUSH1 0x40 PUSH1 0x0 KECCAK256 SLOAD PUSH1 0x40 MLOAD SWAP1 DUP2 MSTORE RETURN JUMPDEST POP CALLVALUE PUSH2 0xE JUMPI PUSH1 0xE0 PUSH1 0x3 NOT CALLDATASIZE ADD SLT PUSH2 0xE JUMPI PUSH2 0x10DB PUSH2 0x197 JUMP JUMPDEST PUSH2 0x10E3 PUSH2 0x1BA JUMP JUMPDEST PUSH2 0x10EB PUSH2 0xF43 JUMP JUMPDEST SWAP1 PUSH1 0x84 CALLDATALOAD PUSH1 0x64 CALLDATALOAD PUSH1 0xFF DUP3 AND DUP3 SUB PUSH2 0xE JUMPI DUP1 TIMESTAMP GT PUSH2 0x1261 JUMPI PUSH1 0x20 SWAP2 PUSH2 0x1124 PUSH2 0x1117 PUSH1 0x0 SWAP4 DUP8 DUP8 DUP11 PUSH2 0x1F91 JUMP JUMPDEST PUSH2 0x111F PUSH2 0x1EA4 JUMP JUMPDEST PUSH2 0x1F36 JUMP JUMPDEST PUSH1 0x40 DUP1 MLOAD SWAP2 DUP3 MSTORE PUSH1 0xFF SWAP3 SWAP1 SWAP3 AND PUSH1 0x20 DUP3 ADD MSTORE PUSH1 0xA4 CALLDATALOAD SWAP2 DUP2 ADD SWAP2 SWAP1 SWAP2 MSTORE PUSH1 0xC4 CALLDATALOAD PUSH1 0x60 DUP3 ADD MSTORE DUP2 DUP1 MSTORE PUSH1 0x80 SWAP1 PUSH1 0x1 GAS STATICCALL ISZERO PUSH2 0x1254 JUMPI JUMPDEST PUSH20 0xFFFFFFFFFFFFFFFFFFFFFFFFFFFFFFFFFFFFFFFF DUP1 PUSH1 0x0 MLOAD AND DUP1 ISZERO SWAP1 DUP2 ISZERO PUSH2 0x1247 JUMPI JUMPDEST POP PUSH2 0x11E8 JUMPI DUP2 PUSH2 0x11D5 DUP5 PUSH2 0xFCA PUSH32 0x17307EAB39AB6107E8899845AD3D59BD9653F200F220920489CA2B5937696C31 SWAP6 PUSH2 0x9BC DUP10 PUSH20 0xFFFFFFFFFFFFFFFFFFFFFFFFFFFFFFFFFFFFFFFF AND PUSH1 0x0 MSTORE PUSH1 0x1 PUSH1 0x20 MSTORE PUSH1 0x40 PUSH1 0x0 KECCAK256 SWAP1 JUMP JUMPDEST PUSH1 0x40 MLOAD SWAP4 ISZERO ISZERO DUP5 MSTORE DUP2 AND SWAP4 AND SWAP2 PUSH1 0x20 SWAP1 LOG3 STOP JUMPDEST PUSH1 0x40 MLOAD PUSH32 0x8C379A000000000000000000000000000000000000000000000000000000000 DUP2 MSTORE PUSH1 0x20 PUSH1 0x4 DUP3 ADD MSTORE PUSH1 0xA PUSH1 0x24 DUP3 ADD MSTORE PUSH32 0x494E56414C494453494700000000000000000000000000000000000000000000 PUSH1 0x44 DUP3 ADD MSTORE PUSH1 0x64 SWAP1 REVERT JUMPDEST SWAP1 POP DUP2 DUP6 AND EQ ISZERO CODESIZE PUSH2 0x117C JUMP JUMPDEST PUSH2 0x125C PUSH2 0x191A JUMP JUMPDEST PUSH2 0x1158 JUMP JUMPDEST PUSH1 0x40 MLOAD PUSH32 0x8C379A000000000000000000000000000000000000000000000000000000000 DUP2 MSTORE PUSH1 0x20 PUSH1 0x4 DUP3 ADD MSTORE PUSH1 0xB PUSH1 0x24 DUP3 ADD MSTORE PUSH32 0x5349472045585049524544000000000000000000000000000000000000000000 PUSH1 0x44 DUP3 ADD MSTORE PUSH1 0x64 SWAP1 REVERT JUMPDEST POP CALLVALUE PUSH2 0xE JUMPI PUSH1 0x40 PUSH1 0x3 NOT CALLDATASIZE ADD SLT PUSH2 0xE JUMPI PUSH1 0x20 PUSH1 0xFF PUSH2 0x1331 PUSH2 0x12E1 PUSH2 0x197 JUMP JUMPDEST PUSH20 0xFFFFFFFFFFFFFFFFFFFFFFFFFFFFFFFFFFFFFFFF PUSH2 0x12FE PUSH2 0x1BA JUMP JUMPDEST SWAP2 AND PUSH1 0x0 MSTORE PUSH1 0x1 DUP5 MSTORE PUSH1 0x40 PUSH1 0x0 KECCAK256 SWAP1 PUSH20 0xFFFFFFFFFFFFFFFFFFFFFFFFFFFFFFFFFFFFFFFF AND PUSH1 0x0 MSTORE PUSH1 0x20 MSTORE PUSH1 0x40 PUSH1 0x0 KECCAK256 SWAP1 JUMP JUMPDEST SLOAD AND PUSH1 0x40 MLOAD SWAP1 ISZERO ISZERO DUP2 MSTORE RETURN JUMPDEST POP CALLVALUE PUSH2 0xE JUMPI PUSH1 0xA0 PUSH1 0x3 NOT CALLDATASIZE ADD SLT PUSH2 0xE JUMPI PUSH2 0x1357 PUSH2 0x197 JUMP JUMPDEST PUSH2 0x135F PUSH2 0x1BA JUMP JUMPDEST PUSH1 0x84 CALLDATALOAD SWAP2 PUSH1 0x44 CALLDATALOAD PUSH1 0x64 CALLDATALOAD PUSH8 0xFFFFFFFFFFFFFFFF DUP6 GT PUSH2 0xE JUMPI PUSH2 0x1389 PUSH2 0x824 SWAP6 CALLDATASIZE SWAP1 PUSH1 0x4 ADD PUSH2 0x6CD JUMP JUMPDEST SWAP1 PUSH20 0xFFFFFFFFFFFFFFFFFFFFFFFFFFFFFFFFFFFFFFFF SWAP5 DUP6 DUP6 AND SWAP6 DUP7 CALLER EQ DUP1 ISZERO PUSH2 0x14ED JUMPI JUMPDEST PUSH2 0x13B7 SWAP1 PUSH2 0x17A2 JUMP JUMPDEST PUSH2 0x13E5 DUP6 PUSH2 0x935 DUP9 PUSH20 0xFFFFFFFFFFFFFFFFFFFFFFFFFFFFFFFFFFFFFFFF AND PUSH1 0x0 MSTORE PUSH1 0x0 PUSH1 0x20 MSTORE PUSH1 0x40 PUSH1 0x0 KECCAK256 SWAP1 JUMP JUMPDEST PUSH2 0x13F0 DUP5 DUP3 SLOAD PUSH2 0x1837 JUMP JUMPDEST SWAP1 SSTORE PUSH2 0x1420 DUP6 PUSH2 0x935 DUP5 PUSH20 0xFFFFFFFFFFFFFFFFFFFFFFFFFFFFFFFFFFFFFFFF AND PUSH1 0x0 MSTORE PUSH1 0x0 PUSH1 0x20 MSTORE PUSH1 0x40 PUSH1 0x0 KECCAK256 SWAP1 JUMP JUMPDEST PUSH2 0x142B DUP5 DUP3 SLOAD PUSH2 0x186B JUMP JUMPDEST SWAP1 SSTORE DUP2 AND DUP1 SWAP7 PUSH1 0x40 MLOAD PUSH32 0xC3D58168C5AE7397731D063D5BBF3D657854427343F4C083240F7AACAA2D0F62 CALLER SWAP2 DUP1 PUSH2 0x1470 DUP9 DUP12 DUP4 PUSH1 0x20 SWAP1 SWAP4 SWAP3 SWAP2 SWAP4 PUSH1 0x40 DUP2 ADD SWAP5 DUP2 MSTORE ADD MSTORE JUMP JUMPDEST SUB SWAP1 LOG4 PUSH1 0x0 SWAP4 SWAP1 EXTCODESIZE PUSH2 0x1488 JUMPI POP POP POP POP POP ISZERO ISZERO PUSH2 0x1927 JUMP JUMPDEST SWAP2 PUSH32 0xFFFFFFFF00000000000000000000000000000000000000000000000000000000 SWAP5 SWAP6 PUSH1 0x20 SWAP3 DUP6 PUSH2 0x88B SWAP6 PUSH1 0x40 MLOAD SWAP7 DUP8 SWAP6 DUP7 SWAP5 DUP6 SWAP4 PUSH32 0xF23A6E6100000000000000000000000000000000000000000000000000000000 SWAP14 DUP15 DUP7 MSTORE CALLER PUSH1 0x4 DUP8 ADD PUSH2 0x18D8 JUMP JUMPDEST POP PUSH2 0x13B7 PUSH2 0x1522 PUSH2 0x9E1 CALLER PUSH2 0x9BC DUP11 PUSH20 0xFFFFFFFFFFFFFFFFFFFFFFFFFFFFFFFFFFFFFFFF AND PUSH1 0x0 MSTORE PUSH1 0x1 PUSH1 0x20 MSTORE PUSH1 0x40 PUSH1 0x0 KECCAK256 SWAP1 JUMP JUMPDEST SWAP1 POP PUSH2 0x13AE JUMP JUMPDEST POP CALLVALUE PUSH2 0xE JUMPI PUSH1 0x20 PUSH1 0x3 NOT CALLDATASIZE ADD SLT PUSH2 0xE JUMPI PUSH2 0x1543 PUSH2 0x197 JUMP JUMPDEST PUSH20 0xFFFFFFFFFFFFFFFFFFFFFFFFFFFFFFFFFFFFFFFF PUSH2 0x1567 DUP2 PUSH1 0x2 SLOAD AND CALLER EQ PUSH2 0x16CE JUMP JUMPDEST DUP2 AND ISZERO PUSH2 0x1577 JUMPI PUSH2 0x824 SWAP1 PUSH2 0x1733 JUMP JUMPDEST PUSH1 0x84 PUSH1 0x40 MLOAD PUSH32 0x8C379A000000000000000000000000000000000000000000000000000000000 DUP2 MSTORE PUSH1 0x20 PUSH1 0x4 DUP3 ADD MSTORE PUSH1 0x26 PUSH1 0x24 DUP3 ADD MSTORE PUSH32 0x4F776E61626C653A206E6577206F776E657220697320746865207A65726F2061 PUSH1 0x44 DUP3 ADD MSTORE PUSH32 0x6464726573730000000000000000000000000000000000000000000000000000 PUSH1 0x64 DUP3 ADD MSTORE REVERT JUMPDEST POP CALLVALUE PUSH2 0xE JUMPI PUSH1 0x20 PUSH1 0x3 NOT CALLDATASIZE ADD SLT PUSH2 0xE JUMPI PUSH2 0x1615 PUSH2 0x197 JUMP JUMPDEST PUSH1 0x6 SLOAD SWAP1 PUSH20 0xFFFFFFFFFFFFFFFFFFFFFFFFFFFFFFFFFFFFFFFF DUP1 DUP4 AND CALLER EQ DUP1 ISZERO PUSH2 0x166B JUMPI JUMPDEST ISZERO PUSH2 0xE JUMPI AND PUSH32 0xFFFFFFFFFFFFFFFFFFFFFFFF0000000000000000000000000000000000000000 SWAP2 SWAP1 SWAP2 AND OR PUSH1 0x6 SSTORE STOP JUMPDEST POP DUP1 PUSH1 0x2 SLOAD AND CALLER EQ PUSH2 0x163A JUMP JUMPDEST PUSH1 0x40 MLOAD SWAP1 PUSH2 0x1685 DUP3 PUSH2 0x5A2 JUMP JUMPDEST PUSH1 0x1 DUP3 MSTORE PUSH32 0x3100000000000000000000000000000000000000000000000000000000000000 PUSH1 0x20 DUP4 ADD MSTORE JUMP JUMPDEST POP CALLVALUE PUSH2 0xE JUMPI PUSH1 0x0 PUSH1 0x3 NOT CALLDATASIZE ADD SLT PUSH2 0xE JUMPI PUSH2 0x469 PUSH2 0x1080 PUSH2 0x1678 JUMP JUMPDEST ISZERO PUSH2 0x16D5 JUMPI JUMP JUMPDEST PUSH1 0x64 PUSH1 0x40 MLOAD PUSH32 0x8C379A000000000000000000000000000000000000000000000000000000000 DUP2 MSTORE PUSH1 0x20 PUSH1 0x4 DUP3 ADD MSTORE PUSH1 0x20 PUSH1 0x24 DUP3 ADD MSTORE PUSH32 0x4F776E61626C653A2063616C6C6572206973206E6F7420746865206F776E6572 PUSH1 0x44 DUP3 ADD MSTORE REVERT JUMPDEST PUSH1 0x2 SLOAD SWAP1 PUSH20 0xFFFFFFFFFFFFFFFFFFFFFFFFFFFFFFFFFFFFFFFF DUP1 SWAP2 AND SWAP2 DUP3 PUSH32 0xFFFFFFFFFFFFFFFFFFFFFFFF0000000000000000000000000000000000000000 DUP3 AND OR PUSH1 0x2 SSTORE AND PUSH32 0x8BE0079C531659141344CD1FD0A4F28419497F9722A3DAAFE3B4186F6B6457E0 PUSH1 0x0 PUSH1 0x40 MLOAD LOG3 JUMP JUMPDEST ISZERO PUSH2 0x17A9 JUMPI JUMP JUMPDEST PUSH1 0x64 PUSH1 0x40 MLOAD PUSH32 0x8C379A000000000000000000000000000000000000000000000000000000000 DUP2 MSTORE PUSH1 0x20 PUSH1 0x4 DUP3 ADD MSTORE PUSH1 0xE PUSH1 0x24 DUP3 ADD MSTORE PUSH32 0x4E4F545F415554484F52495A4544000000000000000000000000000000000000 PUSH1 0x44 DUP3 ADD MSTORE REVERT JUMPDEST POP PUSH32 0x4E487B7100000000000000000000000000000000000000000000000000000000 PUSH1 0x0 MSTORE PUSH1 0x11 PUSH1 0x4 MSTORE PUSH1 0x24 PUSH1 0x0 REVERT JUMPDEST DUP2 DUP2 LT PUSH2 0x1842 JUMPI SUB SWAP1 JUMP JUMPDEST PUSH2 0x184A PUSH2 0x1807 JUMP JUMPDEST SUB SWAP1 JUMP JUMPDEST DUP1 NOT PUSH1 0x30 GT PUSH2 0x185E JUMPI JUMPDEST PUSH1 0x30 ADD SWAP1 JUMP JUMPDEST PUSH2 0x1866 PUSH2 0x1807 JUMP JUMPDEST PUSH2 0x1858 JUMP JUMPDEST DUP2 NOT DUP2 GT PUSH2 0x1877 JUMPI ADD SWAP1 JUMP JUMPDEST PUSH2 0x187F PUSH2 0x1807 JUMP JUMPDEST ADD SWAP1 JUMP JUMPDEST SWAP1 DUP2 PUSH1 0x20 SWAP2 SUB SLT PUSH2 0xE JUMPI MLOAD PUSH2 0x3DA DUP2 PUSH2 0x254 JUMP JUMPDEST SWAP1 SWAP3 PUSH1 0xA0 SWAP3 PUSH20 0xFFFFFFFFFFFFFFFFFFFFFFFFFFFFFFFFFFFFFFFF PUSH2 0x3DA SWAP7 SWAP6 AND DUP4 MSTORE PUSH1 0x0 PUSH1 0x20 DUP5 ADD MSTORE PUSH1 0x40 DUP4 ADD MSTORE PUSH1 0x60 DUP3 ADD MSTORE DUP2 PUSH1 0x80 DUP3 ADD MSTORE ADD SWAP1 PUSH2 0x386 JUMP JUMPDEST SWAP2 SWAP3 PUSH2 0x3DA SWAP6 SWAP5 SWAP2 PUSH1 0xA0 SWAP5 PUSH20 0xFFFFFFFFFFFFFFFFFFFFFFFFFFFFFFFFFFFFFFFF DUP1 SWAP3 AND DUP6 MSTORE AND PUSH1 0x20 DUP5 ADD MSTORE PUSH1 0x40 DUP4 ADD MSTORE PUSH1 0x60 DUP3 ADD MSTORE DUP2 PUSH1 0x80 DUP3 ADD MSTORE ADD SWAP1 PUSH2 0x386 JUMP JUMPDEST POP PUSH1 0x40 MLOAD RETURNDATASIZE PUSH1 0x0 DUP3 RETURNDATACOPY RETURNDATASIZE SWAP1 REVERT JUMPDEST ISZERO PUSH2 0x192E JUMPI JUMP JUMPDEST PUSH1 0x64 PUSH1 0x40 MLOAD PUSH32 0x8C379A000000000000000000000000000000000000000000000000000000000 DUP2 MSTORE PUSH1 0x20 PUSH1 0x4 DUP3 ADD MSTORE PUSH1 0x10 PUSH1 0x24 DUP3 ADD MSTORE PUSH32 0x554E534146455F524543495049454E5400000000000000000000000000000000 PUSH1 0x44 DUP3 ADD MSTORE REVERT JUMPDEST ISZERO PUSH2 0x1993 JUMPI JUMP JUMPDEST PUSH1 0x64 PUSH1 0x40 MLOAD PUSH32 0x8C379A000000000000000000000000000000000000000000000000000000000 DUP2 MSTORE PUSH1 0x20 PUSH1 0x4 DUP3 ADD MSTORE PUSH1 0xF PUSH1 0x24 DUP3 ADD MSTORE PUSH32 0x4C454E4754485F4D49534D415443480000000000000000000000000000000000 PUSH1 0x44 DUP3 ADD MSTORE REVERT JUMPDEST POP PUSH32 0x4E487B7100000000000000000000000000000000000000000000000000000000 PUSH1 0x0 MSTORE PUSH1 0x32 PUSH1 0x4 MSTORE PUSH1 0x24 PUSH1 0x0 REVERT JUMPDEST PUSH1 0x20 SWAP2 DUP2 MLOAD DUP2 LT ISZERO PUSH2 0x1A36 JUMPI JUMPDEST PUSH1 0x5 SHL ADD ADD SWAP1 JUMP JUMPDEST PUSH2 0x1A3E PUSH2 0x19F1 JUMP JUMPDEST PUSH2 0x1A2E JUMP JUMPDEST SWAP1 SWAP2 PUSH2 0x1A5A PUSH2 0x3DA SWAP4 PUSH1 0x40 DUP5 MSTORE PUSH1 0x40 DUP5 ADD SWAP1 PUSH2 0xD3A JUMP JUMPDEST SWAP2 PUSH1 0x20 DUP2 DUP5 SUB SWAP2 ADD MSTORE PUSH2 0xD3A JUMP JUMPDEST SWAP4 SWAP1 PUSH2 0x3DA SWAP6 SWAP4 PUSH2 0x1AA8 SWAP2 PUSH2 0x1AB6 SWAP5 PUSH20 0xFFFFFFFFFFFFFFFFFFFFFFFFFFFFFFFFFFFFFFFF DUP1 SWAP3 AND DUP9 MSTORE AND PUSH1 0x20 DUP8 ADD MSTORE PUSH1 0xA0 PUSH1 0x40 DUP8 ADD MSTORE PUSH1 0xA0 DUP7 ADD SWAP1 PUSH2 0xD3A JUMP JUMPDEST SWAP1 DUP5 DUP3 SUB PUSH1 0x60 DUP7 ADD MSTORE PUSH2 0xD3A JUMP JUMPDEST SWAP2 PUSH1 0x80 DUP2 DUP5 SUB SWAP2 ADD MSTORE PUSH2 0x386 JUMP JUMPDEST SWAP2 DUP3 MLOAD PUSH2 0x1AD3 DUP4 MLOAD DUP3 EQ PUSH2 0x198C JUMP JUMPDEST DUP4 MLOAD PUSH2 0x1ADE DUP2 PUSH2 0x5FF JUMP JUMPDEST SWAP1 PUSH32 0xFFFFFFFFFFFFFFFFFFFFFFFFFFFFFFFFFFFFFFFFFFFFFFFFFFFFFFFFFFFFFFE0 PUSH2 0x1B1A PUSH1 0x40 SWAP3 PUSH2 0x1B12 DUP5 MLOAD SWAP6 DUP7 PUSH2 0x5BE JUMP JUMPDEST DUP1 DUP6 MSTORE PUSH2 0x5FF JUMP JUMPDEST ADD SWAP5 PUSH1 0x20 SWAP6 CALLDATASIZE DUP8 DUP6 ADD CALLDATACOPY DUP3 SWAP6 PUSH1 0x0 JUMPDEST DUP6 DUP2 LT PUSH2 0x1B3B JUMPI POP POP POP POP POP POP SWAP1 SWAP2 POP JUMP JUMPDEST DUP1 PUSH20 0xFFFFFFFFFFFFFFFFFFFFFFFFFFFFFFFFFFFFFFFF PUSH2 0x1B5D PUSH1 0x1 SWAP4 DUP13 PUSH2 0x1A21 JUMP JUMPDEST MLOAD AND PUSH1 0x0 MSTORE PUSH1 0x0 DUP4 MSTORE DUP5 PUSH1 0x0 KECCAK256 PUSH2 0x1B74 DUP3 DUP7 PUSH2 0x1A21 JUMP JUMPDEST MLOAD PUSH1 0x0 MSTORE DUP4 MSTORE DUP5 PUSH1 0x0 KECCAK256 SLOAD PUSH2 0x1B89 DUP3 DUP9 PUSH2 0x1A21 JUMP JUMPDEST MSTORE ADD PUSH2 0x1B29 JUMP JUMPDEST PUSH1 0x1 SWAP1 PUSH32 0xFFFFFFFFFFFFFFFFFFFFFFFFFFFFFFFFFFFFFFFFFFFFFFFFFFFFFFFFFFFFFFFF DUP2 EQ PUSH2 0x1877 JUMPI ADD SWAP1 JUMP JUMPDEST SWAP1 PUSH1 0x1 DUP3 DUP2 SHR SWAP3 AND DUP1 ISZERO PUSH2 0x1C07 JUMPI JUMPDEST PUSH1 0x20 DUP4 LT EQ PUSH2 0x1BD8 JUMPI JUMP JUMPDEST PUSH32 0x4E487B7100000000000000000000000000000000000000000000000000000000 PUSH1 0x0 MSTORE PUSH1 0x22 PUSH1 0x4 MSTORE PUSH1 0x24 PUSH1 0x0 REVERT JUMPDEST SWAP2 PUSH1 0x7F AND SWAP2 PUSH2 0x1BCD JUMP JUMPDEST PUSH1 0x1F DUP2 GT PUSH2 0x1C1D JUMPI POP POP JUMP JUMPDEST PUSH1 0x0 SWAP1 PUSH1 0x5 DUP3 MSTORE PUSH32 0x36B6384B5ECA791C62761152D0C79BB0604C104A5FB6F4EB0703F3154BB3DB0 SWAP1 PUSH1 0x20 PUSH1 0x1F DUP6 ADD PUSH1 0x5 SHR DUP4 ADD SWAP5 LT PUSH2 0x1C78 JUMPI JUMPDEST PUSH1 0x1F ADD PUSH1 0x5 SHR ADD SWAP2 JUMPDEST DUP3 DUP2 LT PUSH2 0x1C6D JUMPI POP POP POP JUMP JUMPDEST DUP2 DUP2 SSTORE PUSH1 0x1 ADD PUSH2 0x1C61 JUMP JUMPDEST SWAP1 SWAP3 POP DUP3 SWAP1 PUSH2 0x1C58 JUMP JUMPDEST PUSH1 0x5 SLOAD PUSH1 0x0 SWAP3 SWAP2 PUSH2 0x1C92 DUP3 PUSH2 0x1BBE JUMP JUMPDEST SWAP2 PUSH1 0x1 SWAP1 DUP2 DUP2 AND SWAP1 DUP2 ISZERO PUSH2 0x1CFE JUMPI POP PUSH1 0x1 EQ PUSH2 0x1CAD JUMPI POP POP POP JUMP JUMPDEST SWAP1 SWAP2 SWAP3 SWAP4 POP PUSH1 0x5 PUSH1 0x0 MSTORE PUSH32 0x36B6384B5ECA791C62761152D0C79BB0604C104A5FB6F4EB0703F3154BB3DB0 SWAP1 PUSH1 0x0 SWAP2 JUMPDEST DUP5 DUP4 LT PUSH2 0x1CEB JUMPI POP POP POP ADD SWAP1 JUMP JUMPDEST DUP2 DUP2 PUSH1 0x20 SWAP3 SLOAD DUP6 DUP8 ADD MSTORE ADD SWAP3 ADD SWAP2 PUSH2 0x1CDD JUMP JUMPDEST PUSH32 0xFFFFFFFFFFFFFFFFFFFFFFFFFFFFFFFFFFFFFFFFFFFFFFFFFFFFFFFFFFFFFF00 AND DUP4 MSTORE POP POP ADD SWAP2 POP JUMP JUMPDEST SWAP1 PUSH2 0x187F PUSH1 0x20 SWAP3 DUP3 DUP2 MLOAD SWAP5 DUP6 SWAP3 ADD PUSH2 0x351 JUMP JUMPDEST SWAP1 PUSH1 0x20 SWAP2 DUP1 MLOAD DUP3 LT ISZERO PUSH2 0x1D4E JUMPI ADD ADD SWAP1 JUMP JUMPDEST PUSH2 0x1D56 PUSH2 0x19F1 JUMP JUMPDEST ADD ADD SWAP1 JUMP JUMPDEST DUP1 ISZERO PUSH2 0x1E6A JUMPI DUP1 PUSH1 0x0 SWAP1 DUP3 DUP3 SWAP4 JUMPDEST PUSH2 0x1E56 JUMPI POP PUSH2 0x1D77 DUP4 PUSH2 0x684 JUMP JUMPDEST SWAP3 PUSH2 0x1D85 PUSH1 0x40 MLOAD SWAP5 DUP6 PUSH2 0x5BE JUMP JUMPDEST DUP1 DUP5 MSTORE DUP2 PUSH32 0xFFFFFFFFFFFFFFFFFFFFFFFFFFFFFFFFFFFFFFFFFFFFFFFFFFFFFFFFFFFFFFE0 PUSH2 0x1DB3 DUP4 PUSH2 0x684 JUMP JUMPDEST ADD CALLDATASIZE PUSH1 0x20 DUP8 ADD CALLDATACOPY JUMPDEST PUSH2 0x1DC5 JUMPI POP POP POP SWAP1 JUMP JUMPDEST DUP1 PUSH1 0x1 PUSH32 0xFFFFFFFFFFFFFFFFFFFFFFFFFFFFFFFFFFFFFFFFFFFFFFFFFFFFFFFFFFFFFFFF SWAP3 LT PUSH2 0x1E49 JUMPI JUMPDEST ADD SWAP1 PUSH1 0xA SWAP1 PUSH2 0x1E34 PUSH2 0x1E0C PUSH2 0x1E06 DUP5 DUP5 MOD PUSH2 0x184E JUMP JUMPDEST PUSH1 0xFF AND SWAP1 JUMP JUMPDEST PUSH1 0xF8 SHL PUSH32 0xFF00000000000000000000000000000000000000000000000000000000000000 AND SWAP1 JUMP JUMPDEST DUP5 BYTE PUSH2 0x1E40 DUP5 DUP8 PUSH2 0x1D3C JUMP JUMPDEST MSTORE8 DIV SWAP1 DUP2 PUSH2 0x1DBB JUMP JUMPDEST PUSH2 0x1E51 PUSH2 0x1807 JUMP JUMPDEST PUSH2 0x1DF0 JUMP JUMPDEST SWAP3 PUSH2 0x1E62 PUSH1 0xA SWAP2 PUSH2 0x1B90 JUMP JUMPDEST SWAP4 DIV DUP1 PUSH2 0x1D69 JUMP JUMPDEST POP PUSH1 0x40 MLOAD PUSH2 0x1E77 DUP2 PUSH2 0x5A2 JUMP JUMPDEST PUSH1 0x1 DUP2 MSTORE PUSH32 0x3000000000000000000000000000000000000000000000000000000000000000 PUSH1 0x20 DUP3 ADD MSTORE SWAP1 JUMP JUMPDEST PUSH2 0x1EAC PUSH2 0x102A JUMP JUMPDEST PUSH1 0x20 DUP2 MLOAD SWAP2 ADD KECCAK256 PUSH2 0x1EBB PUSH2 0x1678 JUMP JUMPDEST PUSH1 0x20 DUP2 MLOAD SWAP2 ADD KECCAK256 PUSH1 0x40 MLOAD SWAP1 PUSH1 0x20 DUP3 ADD SWAP3 PUSH32 0x8B73C3C69BB8FE3D512ECC4CF759CC79239F7B179B0FFACAA9A75D522B39400F DUP5 MSTORE PUSH1 0x40 DUP4 ADD MSTORE PUSH1 0x60 DUP3 ADD MSTORE CHAINID PUSH1 0x80 DUP3 ADD MSTORE ADDRESS PUSH1 0xA0 DUP3 ADD MSTORE PUSH1 0xA0 DUP2 MSTORE PUSH1 0xC0 DUP2 ADD DUP2 DUP2 LT PUSH8 0xFFFFFFFFFFFFFFFF DUP3 GT OR PUSH2 0x1F29 JUMPI JUMPDEST PUSH1 0x40 MSTORE MLOAD SWAP1 KECCAK256 SWAP1 JUMP JUMPDEST PUSH2 0x1F31 PUSH2 0x549 JUMP JUMPDEST PUSH2 0x1F20 JUMP JUMPDEST SWAP1 PUSH1 0x40 MLOAD SWAP1 PUSH1 0x20 DUP3 ADD SWAP3 PUSH32 0x1901000000000000000000000000000000000000000000000000000000000000 DUP5 MSTORE PUSH1 0x22 DUP4 ADD MSTORE PUSH1 0x42 DUP3 ADD MSTORE PUSH1 0x42 DUP2 MSTORE PUSH1 0x80 DUP2 ADD DUP2 DUP2 LT PUSH8 0xFFFFFFFFFFFFFFFF DUP3 GT OR PUSH2 0x1F29 JUMPI PUSH1 0x40 MSTORE MLOAD SWAP1 KECCAK256 SWAP1 JUMP JUMPDEST SWAP3 SWAP1 SWAP2 SWAP3 PUSH20 0xFFFFFFFFFFFFFFFFFFFFFFFFFFFFFFFFFFFFFFFF DUP1 SWAP2 AND SWAP4 DUP5 PUSH1 0x0 MSTORE PUSH1 0x3 PUSH1 0x20 MSTORE PUSH1 0x40 PUSH1 0x0 KECCAK256 SWAP2 DUP3 SLOAD SWAP3 PUSH2 0x1FC9 DUP5 PUSH2 0x1B90 JUMP JUMPDEST SWAP1 SSTORE PUSH1 0x40 MLOAD SWAP5 PUSH1 0x20 DUP7 ADD SWAP7 PUSH32 0x200D2483757E19728FC8A3511298158C1B74DD131C7BE00C4904E11665B42CD1 DUP9 MSTORE PUSH1 0x40 DUP8 ADD MSTORE AND PUSH1 0x60 DUP6 ADD MSTORE ISZERO ISZERO PUSH1 0x80 DUP5 ADD MSTORE PUSH1 0xA0 DUP4 ADD MSTORE PUSH1 0xC0 DUP3 ADD MSTORE PUSH1 0xC0 DUP2 MSTORE PUSH1 0xE0 DUP2 ADD DUP2 DUP2 LT PUSH8 0xFFFFFFFFFFFFFFFF DUP3 GT OR PUSH2 0x1F29 JUMPI PUSH1 0x40 MSTORE MLOAD SWAP1 KECCAK256 SWAP1 JUMP INVALID LOG2 PUSH5 0x6970667358 0x22 SLT KECCAK256 KECCAK256 MSTORE8 DUP14 0xD4 0xCA 0xE1 SWAP7 KECCAK256 AND MSIZE 0xCF GASPRICE SUB SUB 0xD5 0xA6 0xCE PUSH28 0x725249FE6552BA4F52A40E49B65E64736F6C634300080E0033000000 "
        },
        "methodIdentifiers": {
          "NAME()": "a3f4df7e",
          "VERSION()": "ffa1ad74",
          "balanceOf(address,uint256)": "00fdd58e",
          "balanceOfBatch(address[],uint256[])": "4e1273f4",
          "isApprovedForAll(address,address)": "e985e9c5",
          "mint(address,uint256)": "40c10f19",
          "nonces(address)": "7ecebe00",
          "owner()": "8da5cb5b",
          "permitAll(address,address,bool,uint256,uint8,bytes32,bytes32)": "cfa8fb42",
          "renounceOwnership()": "715018a6",
          "safeBatchTransferFrom(address,address,uint256[],uint256[],bytes)": "2eb2c2d6",
          "safeTransferFrom(address,address,uint256,uint256,bytes)": "f242432a",
          "setApprovalForAll(address,bool)": "a22cb465",
          "supportsInterface(bytes4)": "01ffc9a7",
          "totalSupply(uint256)": "bd85b039",
          "transferMinter(address)": "fe99ad5a",
          "transferOwnership(address)": "f2fde38b",
          "updateBaseUri(string)": "39f7e37f",
          "uri(uint256)": "0e89341c"
        }
      }
    }
  }
}