{
  "contracts/test/ERC1155BatchRecipient.sol": {
    "ERC1155BatchRecipient": {
      "abi": [
        {
          "inputs": [],
          "name": "UnexpectedBatchData",
          "type": "error"
        },
        {
          "inputs": [
            {
              "internalType": "address",
              "name": "",
              "type": "address"
            },
            {
              "internalType": "address",
              "name": "",
              "type": "address"
            },
            {
              "internalType": "uint256[]",
              "name": "",
              "type": "uint256[]"
            },
            {
              "internalType": "uint256[]",
              "name": "",
              "type": "uint256[]"
            },
            {
              "internalType": "bytes",
              "name": "data",
              "type": "bytes"
            }
          ],
          "name": "onERC1155BatchReceived",
          "outputs": [
            {
              "internalType": "bytes4",
              "name": "",
              "type": "bytes4"
            }
          ],
          "stateMutability": "pure",
          "type": "function"
        }
      ],
      "evm": {
        "bytecode": {
          "linkReferences": {},
          "object": "60808060405234610016576102c7908161001c8239f35b600080fdfe6080604052600436101561001257600080fd5b6000803560e01c63bc197c811461002857600080fd5b3461018f5760a07ffffffffffffffffffffffffffffffffffffffffffffffffffffffffffffffffc36011261018f5761005f610192565b506100686101ba565b5067ffffffffffffffff60443581811161018b5761008a9036906004016101dd565b505060643581811161018b576100a49036906004016101dd565b505060843581811161018b573660238201121561018b5780600401359082821161017e575b604051927fffffffffffffffffffffffffffffffffffffffffffffffffffffffffffffffe0603f81601f860116011684019084821090821117610171575b604052818352366024838301011161016d5792602082610136949360246101699701838601378301015261023e565b6040517fffffffff0000000000000000000000000000000000000000000000000000000090911681529081906020820190565b0390f35b8380fd5b61017961020e565b610107565b61018661020e565b6100c9565b8280fd5b80fd5b6004359073ffffffffffffffffffffffffffffffffffffffff821682036101b557565b600080fd5b6024359073ffffffffffffffffffffffffffffffffffffffff821682036101b557565b9181601f840112156101b55782359167ffffffffffffffff83116101b5576020808501948460051b0101116101b557565b507f4e487b7100000000000000000000000000000000000000000000000000000000600052604160045260246000fd5b51610267577fbc197c810000000000000000000000000000000000000000000000000000000090565b60046040517fef402e38000000000000000000000000000000000000000000000000000000008152fdfea26469706673582212207f882f6448e74703f71b40ee3765637c42744e1c9bef1cef387341bfa93ea35064736f6c634300080e0033",
          "opcodes": "PUSH1 0x80 DUP1 PUSH1 0x40 MSTORE CALLVALUE PUSH2 0x16 JUMPI PUSH2 0x2C7 SWAP1 DUP2 PUSH2 0x1C DUP3 CODECOPY RETURN JUMPDEST PUSH1 0x0 DUP1 REVERT INVALID PUSH1 0x80 PUSH1 0x40 MSTORE PUSH1 0x4 CALLDATASIZE LT ISZERO PUSH2 0x12 JUMPI PUSH1 0x0 DUP1 REVERT JUMPDEST PUSH1 0x0 DUP1 CALLDATALOAD PUSH1 0xE0 SHR PUSH4 0xBC197C81 EQ PUSH2 0x28 JUMPI PUSH1 0x0 DUP1 REVERT JUMPDEST CALLVALUE PUSH2 0x18F JUMPI PUSH1 0xA0 PUSH32 0xFFFFFFFFFFFFFFFFFFFFFFFFFFFFFFFFFFFFFFFFFFFFFFFFFFFFFFFFFFFFFFFC CALLDATASIZE ADD SLT PUSH2 0x18F JUMPI PUSH2 0x5F PUSH2 0x192 JUMP JUMPDEST POP PUSH2 0x68 PUSH2 0x1BA JUMP JUMPDEST POP PUSH8 0xFFFFFFFFFFFFFFFF PUSH1 0x44 CALLDATALOAD DUP2 DUP2 GT PUSH2 0x18B JUMPI PUSH2 0x8A SWAP1 CALLDATASIZE SWAP1 PUSH1 0x4 ADD PUSH2 0x1DD JUMP JUMPDEST POP POP PUSH1 0x64 CALLDATALOAD DUP2 DUP2 GT PUSH2 0x18B JUMPI PUSH2 0xA4 SWAP1 CALLDATASIZE SWAP1 PUSH1 0x4 ADD PUSH2 0x1DD JUMP JUMPDEST POP POP PUSH1 0x84 CALLDATALOAD DUP2 DUP2 GT PUSH2 0x18B JUMPI CALLDATASIZE PUSH1 0x23 DUP3 ADD SLT ISZERO PUSH2 0x18B JUMPI DUP1 PUSH1 0x4 ADD CALLDATALOAD SWAP1 DUP3 DUP3 GT PUSH2 0x17E JUMPI JUMPDEST PUSH1 0x40 MLOAD SWAP3 PUSH32 0xFFFFFFFFFFFFFFFFFFFFFFFFFFFFFFFFFFFFFFFFFFFFFFFFFFFFFFFFFFFFFFE0 PUSH1 0x3F DUP2 PUSH1 0x1F DUP7 ADD AND ADD AND DUP5 ADD SWAP1 DUP5 DUP3 LT SWAP1 DUP3 GT OR PUSH2 0x171 JUMPI JUMPDEST PUSH1 0x40 MSTORE DUP2 DUP4 MSTORE CALLDATASIZE PUSH1 0x24 DUP4 DUP4 ADD ADD GT PUSH2 0x16D JUMPI SWAP3 PUSH1 0x20 DUP3 PUSH2 0x136 SWAP5 SWAP4 PUSH1 0x24 PUSH2 0x169 SWAP8 ADD DUP4 DUP7 ADD CALLDATACOPY DUP4 ADD ADD MSTORE PUSH2 0x23E JUMP JUMPDEST PUSH1 0x40 MLOAD PUSH32 0xFFFFFFFF00000000000000000000000000000000000000000000000000000000 SWAP1 SWAP2 AND DUP2 MSTORE SWAP1 DUP2 SWAP1 PUSH1 0x20 DUP3 ADD SWAP1 JUMP JUMPDEST SUB SWAP1 RETURN JUMPDEST DUP4 DUP1 REVERT JUMPDEST PUSH2 0x179 PUSH2 0x20E JUMP JUMPDEST PUSH2 0x107 JUMP JUMPDEST PUSH2 0x186 PUSH2 0x20E JUMP JUMPDEST PUSH2 0xC9 JUMP JUMPDEST DUP3 DUP1 REVERT JUMPDEST DUP1 REVERT JUMPDEST PUSH1 0x4 CALLDATALOAD SWAP1 PUSH20 0xFFFFFFFFFFFFFFFFFFFFFFFFFFFFFFFFFFFFFFFF DUP3 AND DUP3 SUB PUSH2 0x1B5 JUMPI JUMP JUMPDEST PUSH1 0x0 DUP1 REVERT JUMPDEST PUSH1 0x24 CALLDATALOAD SWAP1 PUSH20 0xFFFFFFFFFFFFFFFFFFFFFFFFFFFFFFFFFFFFFFFF DUP3 AND DUP3 SUB PUSH2 0x1B5 JUMPI JUMP JUMPDEST SWAP2 DUP2 PUSH1 0x1F DUP5 ADD SLT ISZERO PUSH2 0x1B5 JUMPI DUP3 CALLDATALOAD SWAP2 PUSH8 0xFFFFFFFFFFFFFFFF DUP4 GT PUSH2 0x1B5 JUMPI PUSH1 0x20 DUP1 DUP6 ADD SWAP5 DUP5 PUSH1 0x5 SHL ADD ADD GT PUSH2 0x1B5 JUMPI JUMP JUMPDEST POP PUSH32 0x4E487B7100000000000000000000000000000000000000000000000000000000 PUSH1 0x0 MSTORE PUSH1 0x41 PUSH1 0x4 MSTORE PUSH1 0x24 PUSH1 0x0 REVERT JUMPDEST MLOAD PUSH2 0x267 JUMPI PUSH32 0xBC197C8100000000000000000000000000000000000000000000000000000000 SWAP1 JUMP JUMPDEST PUSH1 0x4 PUSH1 0x40 MLOAD PUSH32 0xEF402E3800000000000000000000000000000000000000000000000000000000 DUP2 MSTORE REVERT INVALID LOG2 PUSH5 0x6970667358 0x22 SLT KECCAK256 PUSH32 0x882F6448E74703F71B40EE3765637C42744E1C9BEF1CEF387341BFA93EA35064 PUSH20 0x6F6C634300080E00330000000000000000000000 "
        },
        "methodIdentifiers": {
          "onERC1155BatchReceived(address,address,uint256[],uint256[],bytes)": "bc197c81"
        }
      }
    }
  }
}