{
  "contracts/test/TestERC20.sol": {
    "TestERC20": {
      "abi": [
        {
          "inputs": [],
          "stateMutability": "nonpayable",
          "type": "constructor"
        },
        {
          "anonymous": false,
          "inputs": [
            {
              "indexed": true,
              "internalType": "address",
              "name": "owner",
              "type": "address"
            },
            {
              "indexed": true,
              "internalType": "address",
              "name": "spender",
              "type": "address"
            },
            {
              "indexed": false,
              "internalType": "uint256",
              "name": "amount",
              "type": "uint256"
            }
          ],
          "name": "Approval",
          "type": "event"
        },
        {
          "anonymous": false,
          "inputs": [
            {
              "indexed": true,
              "internalType": "address",
              "name": "from",
              "type": "address"
            },
            {
              "indexed": true,
              "internalType": "address",
              "name": "to",
              "type": "address"
            },
            {
              "indexed": false,
              "internalType": "uint256",
              "name": "amount",
              "type": "uint256"
            }
          ],
          "name": "Transfer",
          "type": "event"
        },
        {
          "inputs": [],
          "name": "DOMAIN_SEPARATOR",
          "outputs": [
            {
              "internalType": "bytes32",
              "name": "",
              "type": "bytes32"
            }
          ],
          "stateMutability": "view",
          "type": "function"
        },
        {
          "inputs": [],
          "name": "PERMIT_TYPEHASH",
          "outputs": [
            {
              "internalType": "bytes32",
              "name": "",
              "type": "bytes32"
            }
          ],
          "stateMutability": "view",
          "type": "function"
        },
        {
          "inputs": [
            {
              "internalType": "address",
              "name": "",
              "type": "address"
            },
            {
              "internalType": "address",
              "name": "",
              "type": "address"
            }
          ],
          "name": "allowance",
          "outputs": [
            {
              "internalType": "uint256",
              "name": "",
              "type": "uint256"
            }
          ],
          "stateMutability": "view",
          "type": "function"
        },
        {
          "inputs": [
            {
              "internalType": "address",
              "name": "spender",
              "type": "address"
            },
            {
              "internalType": "uint256",
              "name": "amount",
              "type": "uint256"
            }
          ],
          "name": "approve",
          "outputs": [
            {
              "internalType": "bool",
              "name": "",
              "type": "bool"
            }
          ],
          "stateMutability": "nonpayable",
          "type": "function"
        },
        {
          "inputs": [
            {
              "internalType": "address",
              "name": "",
              "type": "address"
            }
          ],
          "name": "balanceOf",
          "outputs": [
            {
              "internalType": "uint256",
              "name": "",
              "type": "uint256"
            }
          ],
          "stateMutability": "view",
          "type": "function"
        },
        {
          "inputs": [
            {
              "internalType": "bool",
              "name": "blocking",
              "type": "bool"
            }
          ],
          "name": "blockTransfer",
          "outputs": [],
          "stateMutability": "nonpayable",
          "type": "function"
        },
        {
          "inputs": [],
          "name": "blocked",
          "outputs": [
            {
              "internalType": "bool",
              "name": "",
              "type": "bool"
            }
          ],
          "stateMutability": "view",
          "type": "function"
        },
        {
          "inputs": [],
          "name": "decimals",
          "outputs": [
            {
              "internalType": "uint8",
              "name": "",
              "type": "uint8"
            }
          ],
          "stateMutability": "view",
          "type": "function"
        },
        {
          "inputs": [
            {
              "internalType": "address",
              "name": "to",
              "type": "address"
            },
            {
              "internalType": "uint256",
              "name": "amount",
              "type": "uint256"
            }
          ],
          "name": "mint",
          "outputs": [
            {
              "internalType": "bool",
              "name": "",
              "type": "bool"
            }
          ],
          "stateMutability": "nonpayable",
          "type": "function"
        },
        {
          "inputs": [],
          "name": "name",
          "outputs": [
            {
              "internalType": "string",
              "name": "",
              "type": "string"
            }
          ],
          "stateMutability": "view",
          "type": "function"
        },
        {
          "inputs": [],
          "name": "noReturnData",
          "outputs": [
            {
              "internalType": "bool",
              "name": "",
              "type": "bool"
            }
          ],
          "stateMutability": "view",
          "type": "function"
        },
        {
          "inputs": [
            {
              "internalType": "address",
              "name": "",
              "type": "address"
            }
          ],
          "name": "nonces",
          "outputs": [
            {
              "internalType": "uint256",
              "name": "",
              "type": "uint256"
            }
          ],
          "stateMutability": "view",
          "type": "function"
        },
        {
          "inputs": [
            {
              "internalType": "address",
              "name": "owner",
              "type": "address"
            },
            {
              "internalType": "address",
              "name": "spender",
              "type": "address"
            },
            {
              "internalType": "uint256",
              "name": "value",
              "type": "uint256"
            },
            {
              "internalType": "uint256",
              "name": "deadline",
              "type": "uint256"
            },
            {
              "internalType": "uint8",
              "name": "v",
              "type": "uint8"
            },
            {
              "internalType": "bytes32",
              "name": "r",
              "type": "bytes32"
            },
            {
              "internalType": "bytes32",
              "name": "s",
              "type": "bytes32"
            }
          ],
          "name": "permit",
          "outputs": [],
          "stateMutability": "nonpayable",
          "type": "function"
        },
        {
          "inputs": [
            {
              "internalType": "bool",
              "name": "noReturn",
              "type": "bool"
            }
          ],
          "name": "setNoReturnData",
          "outputs": [],
          "stateMutability": "nonpayable",
          "type": "function"
        },
        {
          "inputs": [],
          "name": "symbol",
          "outputs": [
            {
              "internalType": "string",
              "name": "",
              "type": "string"
            }
          ],
          "stateMutability": "view",
          "type": "function"
        },
        {
          "inputs": [],
          "name": "totalSupply",
          "outputs": [
            {
              "internalType": "uint256",
              "name": "",
              "type": "uint256"
            }
          ],
          "stateMutability": "view",
          "type": "function"
        },
        {
          "inputs": [
            {
              "internalType": "address",
              "name": "to",
              "type": "address"
            },
            {
              "internalType": "uint256",
              "name": "amount",
              "type": "uint256"
            }
          ],
          "name": "transfer",
          "outputs": [
            {
              "internalType": "bool",
              "name": "",
              "type": "bool"
            }
          ],
          "stateMutability": "nonpayable",
          "type": "function"
        },
        {
          "inputs": [
            {
              "internalType": "address",
              "name": "from",
              "type": "address"
            },
            {
              "internalType": "address",
              "name": "to",
              "type": "address"
            },
            {
              "internalType": "uint256",
              "name": "amount",
              "type": "uint256"
            }
          ],
          "name": "transferFrom",
          "outputs": [
            {
              "internalType": "bool",
              "name": "ok",
              "type": "bool"
            }
          ],
          "stateMutability": "nonpayable",
          "type": "function"
        }
      ],
      "evm": {
        "bytecode": {
          "linkReferences": {},
          "object": "60e060405234620001ad576200001462000218565b60206505465737432360d41b818301526200002e6200022d565b64054535432360dc1b8282015282519091906001600160401b0381116200019d575b6000916200006a8262000064855462000242565b6200027f565b80601f83116001146200010f57508190620000a195849262000103575b50508160011b916000199060031b1c191617905562000333565b60126080524660a052620000b462000435565b60c052620000c760ff1960065416600655565b620000d861ff001960065416600655565b6040516110aa90816200056982396080518161059c015260a05181610d2a015260c05181610d510152f35b01519050388062000087565b600080529194601f1986167f290decd9548b62a8d60345a988386fc84ba6bc95484008f6362f93160ef3e5639385905b82821062000184575050916001939187620000a19894106200016a575b505050811b01905562000333565b015160001960f88460031b161c191690553880806200015c565b806001869782949787015181550196019401906200013f565b620001a7620001b2565b62000050565b600080fd5b50634e487b7160e01b600052604160045260246000fd5b604081019081106001600160401b03821117620001e557604052565b620001ef620001b2565b604052565b601f909101601f19168101906001600160401b03821190821017620001e557604052565b604051906200022782620001c9565b60068252565b604051906200023c82620001c9565b60058252565b90600182811c9216801562000274575b60208310146200025e57565b634e487b7160e01b600052602260045260246000fd5b91607f169162000252565b601f81116200028c575050565b60009081805260208220906020601f850160051c83019410620002cc575b601f0160051c01915b828110620002c057505050565b818155600101620002b3565b9092508290620002aa565b90601f8211620002e5575050565b60019160009083825260208220906020601f850160051c8301941062000328575b601f0160051c01915b8281106200031d5750505050565b81815583016200030f565b909250829062000306565b80519091906001600160401b03811162000425575b60019062000362816200035c845462000242565b620002d7565b602080601f8311600114620003a057508192939460009262000394575b5050600019600383901b1c191690821b179055565b0151905038806200037f565b6001600052601f198316959091907fb10e2d527612073b26eecdfd717e6a320cf44b4afac2b0732d9fcbe2b7fa0cf6926000905b8882106200040d5750508385969710620003f3575b505050811b019055565b015160001960f88460031b161c19169055388080620003e9565b808785968294968601518155019501930190620003d4565b6200042f620001b2565b62000348565b604051600090815490620004498262000242565b928382526020938483019360019081811690816000146200054e57506001146200050e575b50509181620004886200050893620004f9950382620001f4565b519020604080517f8b73c3c69bb8fe3d512ecc4cf759cc79239f7b179b0ffacaa9a75d522b39400f95810195865260208601929092527fc89efdaa54c0f20c7adf612882df0950f5a951637e0307cdcb4c672f298b8bc69085015246606085015230608085015291829060a0850190565b03601f198101835282620001f4565b51902090565b908592506000805282600020916000925b828410620005385750505082010181620004886200046e565b805486850186015287949093019281016200051f565b60ff1916865250505060408201905081620004886200046e56fe60806040526004361015610013575b600080fd5b60003560e01c806306fdde031461017b578063095ea7b31461017257806318160ddd146101695780631b2438451461016057806323b872dd14610157578063303bdd2c1461014e57806330adf81f14610145578063313ce5671461013c5780633644e5151461013357806340c10f191461012a57806370a08231146101215780637ecebe001461011857806395d89b411461010f578063a9059cbb14610106578063cd1b5b71146100fd578063d505accf146100f4578063dd62ed3e146100eb5763e074d6a9146100e357600080fd5b61000e610bc2565b5061000e610b4a565b5061000e6108c3565b5061000e610879565b5061000e6107b5565b5061000e61070f565b5061000e6106c7565b5061000e61067f565b5061000e6105e4565b5061000e6105c0565b5061000e610581565b5061000e610545565b5061000e610521565b5061000e6104e7565b5061000e6104c0565b5061000e6104a1565b5061000e6103fc565b5061000e6102bd565b90600182811c921680156101cd575b602083101461019e57565b7f4e487b7100000000000000000000000000000000000000000000000000000000600052602260045260246000fd5b91607f1691610193565b90601f7fffffffffffffffffffffffffffffffffffffffffffffffffffffffffffffffe0910116810190811067ffffffffffffffff82111761021857604052565b7f4e487b7100000000000000000000000000000000000000000000000000000000600052604160045260246000fd5b919091602080825283519081818401526000945b8286106102a7575050601f817fffffffffffffffffffffffffffffffffffffffffffffffffffffffffffffffe092604095961161029a575b0116010190565b6000858286010152610293565b858101820151848701604001529481019461025b565b503461000e576000806003193601126103b357604051908080546102e081610184565b80855291600191808316908115610374575060011461031a575b6103168561030a818703826101d7565b60405191829182610247565b0390f35b80809450527f290decd9548b62a8d60345a988386fc84ba6bc95484008f6362f93160ef3e5635b82841061035c57505050810160200161030a826103166102fa565b80546020858701810191909152909301928101610341565b7fffffffffffffffffffffffffffffffffffffffffffffffffffffffffffffff00166020870152505060408401925061030a91508390506103166102fa565b80fd5b6004359073ffffffffffffffffffffffffffffffffffffffff8216820361000e57565b6024359073ffffffffffffffffffffffffffffffffffffffff8216820361000e57565b503461000e57604060031936011261000e576104166103b6565b73ffffffffffffffffffffffffffffffffffffffff60243591336000526004602052826104678260406000209073ffffffffffffffffffffffffffffffffffffffff16600052602052604060002090565b5560405192835216907f8c5be1e5ebec7d5bd14f71427d1e84f3dd0314c0f7b2291e5b200ac8c7c3b92560203392a3602060405160018152f35b503461000e57600060031936011261000e576020600254604051908152f35b503461000e57600060031936011261000e57602060ff60065460081c166040519015158152f35b503461000e57606060031936011261000e5760206105176105066103b6565b61050e6103d9565b60443591610ef1565b6040519015158152f35b503461000e57600060031936011261000e57602060ff600654166040519015158152f35b503461000e57600060031936011261000e5760206040517f6e71edae12b1b97f4d1f60370fef10105fa2faae0126114a169c64845d6126c98152f35b503461000e57600060031936011261000e57602060405160ff7f0000000000000000000000000000000000000000000000000000000000000000168152f35b503461000e57600060031936011261000e5760206105dc610d25565b604051908152f35b503461000e57604060031936011261000e576105fe6103b6565b60007fddf252ad1be2c89b69c2b068fc378daa952ba7f163c4a11628f55a4df523b3ef602073ffffffffffffffffffffffffffffffffffffffff602435948560025481198111610672575b0160025516938484526003825260408420818154019055604051908152a3602060405160018152f35b61067a610c07565b610649565b503461000e57602060031936011261000e5773ffffffffffffffffffffffffffffffffffffffff6106ae6103b6565b1660005260036020526020604060002054604051908152f35b503461000e57602060031936011261000e5773ffffffffffffffffffffffffffffffffffffffff6106f66103b6565b1660005260056020526020604060002054604051908152f35b503461000e576000806003193601126103b3576040519080600180549161073583610184565b80865292828116908115610374575060011461075b576103168561030a818703826101d7565b92508083527fb10e2d527612073b26eecdfd717e6a320cf44b4afac2b0732d9fcbe2b7fa0cf65b82841061079d57505050810160200161030a826103166102fa565b80546020858701810191909152909301928101610782565b503461000e57604060031936011261000e576107cf6103b6565b73ffffffffffffffffffffffffffffffffffffffff602435913360005260036020526040600020838154818110610851575b039055169081600052600360205260406000208181540190556040519081527fddf252ad1be2c89b69c2b068fc378daa952ba7f163c4a11628f55a4df523b3ef60203392a3602060405160018152f35b610859610c07565b610801565b600319602091011261000e57600435801515810361000e5790565b503461000e576108883661085e565b15157fffffffffffffffffffffffffffffffffffffffffffffffffffffffffffff00ff61ff006006549260081b169116176006556000604051f35b503461000e5760e060031936011261000e576108dd6103b6565b6108e56103d9565b604435906064359060843560ff8116810361000e5760006020917f8c5be1e5ebec7d5bd14f71427d1e84f3dd0314c0f7b2291e5b200ac8c7c3b9259461092d42821015610c4e565b610a59610a6561093b610d25565b928a8a6109e361096b8373ffffffffffffffffffffffffffffffffffffffff166000526005602052604060002090565b938454946001860190556040519485938d8d8601968791959493909260a09360c08401977f6e71edae12b1b97f4d1f60370fef10105fa2faae0126114a169c64845d6126c9855273ffffffffffffffffffffffffffffffffffffffff8092166020860152166040840152606083015260808201520152565b0391610a157fffffffffffffffffffffffffffffffffffffffffffffffffffffffffffffffe0938481018352826101d7565b519020604051938491898301968790916042927f19010000000000000000000000000000000000000000000000000000000000008352600283015260228201520190565b039081018352826101d7565b5190206040805191825260ff92909216602082015260a4359181019190915260c435606082015281805260809060015afa15610b3d575b6000519083610b1f82610afa73ffffffffffffffffffffffffffffffffffffffff95610ad48782168015159081610b31575b50610cc0565b73ffffffffffffffffffffffffffffffffffffffff166000526004602052604060002090565b9073ffffffffffffffffffffffffffffffffffffffff16600052602052604060002090565b556040519384528116931691602090a3005b9050888c161438610ace565b610b45610cb3565b610a9c565b503461000e57604060031936011261000e576020610bb9610b696103b6565b73ffffffffffffffffffffffffffffffffffffffff610b866103d9565b91166000526004835260406000209073ffffffffffffffffffffffffffffffffffffffff16600052602052604060002090565b54604051908152f35b503461000e57610bd13661085e565b151560ff7fffffffffffffffffffffffffffffffffffffffffffffffffffffffffffffff00600654169116176006556000604051f35b507f4e487b7100000000000000000000000000000000000000000000000000000000600052601160045260246000fd5b818110610c42570390565b610c4a610c07565b0390565b15610c5557565b60646040517f08c379a000000000000000000000000000000000000000000000000000000000815260206004820152601760248201527f5045524d49545f444541444c494e455f455850495245440000000000000000006044820152fd5b506040513d6000823e3d90fd5b15610cc757565b60646040517f08c379a000000000000000000000000000000000000000000000000000000000815260206004820152600e60248201527f494e56414c49445f5349474e45520000000000000000000000000000000000006044820152fd5b6000467f000000000000000000000000000000000000000000000000000000000000000003610d7357507f000000000000000000000000000000000000000000000000000000000000000090565b6040518154919081610d8484610184565b80835260209485840194600191828116908115610eb65750600114610e5e575b5050509181610dbb610e5893610e2c9503826101d7565b519020604080517f8b73c3c69bb8fe3d512ecc4cf759cc79239f7b179b0ffacaa9a75d522b39400f95810195865260208601929092527fc89efdaa54c0f20c7adf612882df0950f5a951637e0307cdcb4c672f298b8bc69085015246606085015230608085015291829060a0850190565b037fffffffffffffffffffffffffffffffffffffffffffffffffffffffffffffffe081018352826101d7565b51902090565b91908693508280527f290decd9548b62a8d60345a988386fc84ba6bc95484008f6362f93160ef3e5635b828410610ea15750505082010181610dbb610e58610da4565b80548685018601528794909301928101610e88565b7fffffffffffffffffffffffffffffffffffffffffffffffffffffffffffffff00168752505050604083019150829050610dbb610e58610da4565b9060ff6006541661106c577fddf252ad1be2c89b69c2b068fc378daa952ba7f163c4a11628f55a4df523b3ef9073ffffffffffffffffffffffffffffffffffffffff90610fc38285169485600052600460205286610f7260406000203373ffffffffffffffffffffffffffffffffffffffff16600052602052604060002090565b547fffffffffffffffffffffffffffffffffffffffffffffffffffffffffffffffff8103611020575b505073ffffffffffffffffffffffffffffffffffffffff166000526003602052604060002090565b610fce868254610c37565b9055610ffa8173ffffffffffffffffffffffffffffffffffffffff166000526003602052604060002090565b8054860190556040519485521692602090a360065460081c60ff1661101e57600190565b005b81811061105f575b0361105733610afa8473ffffffffffffffffffffffffffffffffffffffff166000526004602052604060002090565b558638610f9b565b611067610c07565b611028565b50505060009056fea2646970667358221220d47b524cd65bedc03c05c9f2fe32073491f051aa2e8b8d7a4085dbd81d95a83d64736f6c634300080e0033",
          "opcodes": "PUSH1 0xE0 PUSH1 0x40 MSTORE CALLVALUE PUSH3 0x1AD JUMPI PUSH3 0x14 PUSH3 0x218 JUMP JUMPDEST PUSH1 0x20 PUSH6 0x54657374323 PUSH1 0xD4 SHL DUP2 DUP4 ADD MSTORE PUSH3 0x2E PUSH3 0x22D JUMP JUMPDEST PUSH5 0x545354323 PUSH1 0xDC SHL DUP3 DUP3 ADD MSTORE DUP3 MLOAD SWAP1 SWAP2 SWAP1 PUSH1 0x1 PUSH1 0x1 PUSH1 0x40 SHL SUB DUP2 GT PUSH3 0x19D JUMPI JUMPDEST PUSH1 0x0 SWAP2 PUSH3 0x6A DUP3 PUSH3 0x64 DUP6 SLOAD PUSH3 0x242 JUMP JUMPDEST PUSH3 0x27F JUMP JUMPDEST DUP1 PUSH1 0x1F DUP4 GT PUSH1 0x1 EQ PUSH3 0x10F JUMPI POP DUP2 SWAP1 PUSH3 0xA1 SWAP6 DUP5 SWAP3 PUSH3 0x103 JUMPI JUMPDEST POP POP DUP2 PUSH1 0x1 SHL SWAP2 PUSH1 0x0 NOT SWAP1 PUSH1 0x3 SHL SHR NOT AND OR SWAP1 SSTORE PUSH3 0x333 JUMP JUMPDEST PUSH1 0x12 PUSH1 0x80 MSTORE CHAINID PUSH1 0xA0 MSTORE PUSH3 0xB4 PUSH3 0x435 JUMP JUMPDEST PUSH1 0xC0 MSTORE PUSH3 0xC7 PUSH1 0xFF NOT PUSH1 0x6 SLOAD AND PUSH1 0x6 SSTORE JUMP JUMPDEST PUSH3 0xD8 PUSH2 0xFF00 NOT PUSH1 0x6 SLOAD AND PUSH1 0x6 SSTORE JUMP JUMPDEST PUSH1 0x40 MLOAD PUSH2 0x10AA SWAP1 DUP2 PUSH3 0x569 DUP3 CODECOPY PUSH1 0x80 MLOAD DUP2 PUSH2 0x59C ADD MSTORE PUSH1 0xA0 MLOAD DUP2 PUSH2 0xD2A ADD MSTORE PUSH1 0xC0 MLOAD DUP2 PUSH2 0xD51 ADD MSTORE RETURN JUMPDEST ADD MLOAD SWAP1 POP CODESIZE DUP1 PUSH3 0x87 JUMP JUMPDEST PUSH1 0x0 DUP1 MSTORE SWAP2 SWAP5 PUSH1 0x1F NOT DUP7 AND PUSH32 0x290DECD9548B62A8D60345A988386FC84BA6BC95484008F6362F93160EF3E563 SWAP4 DUP6 SWAP1 JUMPDEST DUP3 DUP3 LT PUSH3 0x184 JUMPI POP POP SWAP2 PUSH1 0x1 SWAP4 SWAP2 DUP8 PUSH3 0xA1 SWAP9 SWAP5 LT PUSH3 0x16A JUMPI JUMPDEST POP POP POP DUP2 SHL ADD SWAP1 SSTORE PUSH3 0x333 JUMP JUMPDEST ADD MLOAD PUSH1 0x0 NOT PUSH1 0xF8 DUP5 PUSH1 0x3 SHL AND SHR NOT AND SWAP1 SSTORE CODESIZE DUP1 DUP1 PUSH3 0x15C JUMP JUMPDEST DUP1 PUSH1 0x1 DUP7 SWAP8 DUP3 SWAP5 SWAP8 DUP8 ADD MLOAD DUP2 SSTORE ADD SWAP7 ADD SWAP5 ADD SWAP1 PUSH3 0x13F JUMP JUMPDEST PUSH3 0x1A7 PUSH3 0x1B2 JUMP JUMPDEST PUSH3 0x50 JUMP JUMPDEST PUSH1 0x0 DUP1 REVERT JUMPDEST POP PUSH4 0x4E487B71 PUSH1 0xE0 SHL PUSH1 0x0 MSTORE PUSH1 0x41 PUSH1 0x4 MSTORE PUSH1 0x24 PUSH1 0x0 REVERT JUMPDEST PUSH1 0x40 DUP2 ADD SWAP1 DUP2 LT PUSH1 0x1 PUSH1 0x1 PUSH1 0x40 SHL SUB DUP3 GT OR PUSH3 0x1E5 JUMPI PUSH1 0x40 MSTORE JUMP JUMPDEST PUSH3 0x1EF PUSH3 0x1B2 JUMP JUMPDEST PUSH1 0x40 MSTORE JUMP JUMPDEST PUSH1 0x1F SWAP1 SWAP2 ADD PUSH1 0x1F NOT AND DUP2 ADD SWAP1 PUSH1 0x1 PUSH1 0x1 PUSH1 0x40 SHL SUB DUP3 GT SWAP1 DUP3 LT OR PUSH3 0x1E5 JUMPI PUSH1 0x40 MSTORE JUMP JUMPDEST PUSH1 0x40 MLOAD SWAP1 PUSH3 0x227 DUP3 PUSH3 0x1C9 JUMP JUMPDEST PUSH1 0x6 DUP3 MSTORE JUMP JUMPDEST PUSH1 0x40 MLOAD SWAP1 PUSH3 0x23C DUP3 PUSH3 0x1C9 JUMP JUMPDEST PUSH1 0x5 DUP3 MSTORE JUMP JUMPDEST SWAP1 PUSH1 0x1 DUP3 DUP2 SHR SWAP3 AND DUP1 ISZERO PUSH3 0x274 JUMPI JUMPDEST PUSH1 0x20 DUP4 LT EQ PUSH3 0x25E JUMPI JUMP JUMPDEST PUSH4 0x4E487B71 PUSH1 0xE0 SHL PUSH1 0x0 MSTORE PUSH1 0x22 PUSH1 0x4 MSTORE PUSH1 0x24 PUSH1 0x0 REVERT JUMPDEST SWAP2 PUSH1 0x7F AND SWAP2 PUSH3 0x252 JUMP JUMPDEST PUSH1 0x1F DUP2 GT PUSH3 0x28C JUMPI POP POP JUMP JUMPDEST PUSH1 0x0 SWAP1 DUP2 DUP1 MSTORE PUSH1 0x20 DUP3 KECCAK256 SWAP1 PUSH1 0x20 PUSH1 0x1F DUP6 ADD PUSH1 0x5 SHR DUP4 ADD SWAP5 LT PUSH3 0x2CC JUMPI JUMPDEST PUSH1 0x1F ADD PUSH1 0x5 SHR ADD SWAP2 JUMPDEST DUP3 DUP2 LT PUSH3 0x2C0 JUMPI POP POP POP JUMP JUMPDEST DUP2 DUP2 SSTORE PUSH1 0x1 ADD PUSH3 0x2B3 JUMP JUMPDEST SWAP1 SWAP3 POP DUP3 SWAP1 PUSH3 0x2AA JUMP JUMPDEST SWAP1 PUSH1 0x1F DUP3 GT PUSH3 0x2E5 JUMPI POP POP JUMP JUMPDEST PUSH1 0x1 SWAP2 PUSH1 0x0 SWAP1 DUP4 DUP3 MSTORE PUSH1 0x20 DUP3 KECCAK256 SWAP1 PUSH1 0x20 PUSH1 0x1F DUP6 ADD PUSH1 0x5 SHR DUP4 ADD SWAP5 LT PUSH3 0x328 JUMPI JUMPDEST PUSH1 0x1F ADD PUSH1 0x5 SHR ADD SWAP2 JUMPDEST DUP3 DUP2 LT PUSH3 0x31D JUMPI POP POP POP POP JUMP JUMPDEST DUP2 DUP2 SSTORE DUP4 ADD PUSH3 0x30F JUMP JUMPDEST SWAP1 SWAP3 POP DUP3 SWAP1 PUSH3 0x306 JUMP JUMPDEST DUP1 MLOAD SWAP1 SWAP2 SWAP1 PUSH1 0x1 PUSH1 0x1 PUSH1 0x40 SHL SUB DUP2 GT PUSH3 0x425 JUMPI JUMPDEST PUSH1 0x1 SWAP1 PUSH3 0x362 DUP2 PUSH3 0x35C DUP5 SLOAD PUSH3 0x242 JUMP JUMPDEST PUSH3 0x2D7 JUMP JUMPDEST PUSH1 0x20 DUP1 PUSH1 0x1F DUP4 GT PUSH1 0x1 EQ PUSH3 0x3A0 JUMPI POP DUP2 SWAP3 SWAP4 SWAP5 PUSH1 0x0 SWAP3 PUSH3 0x394 JUMPI JUMPDEST POP POP PUSH1 0x0 NOT PUSH1 0x3 DUP4 SWAP1 SHL SHR NOT AND SWAP1 DUP3 SHL OR SWAP1 SSTORE JUMP JUMPDEST ADD MLOAD SWAP1 POP CODESIZE DUP1 PUSH3 0x37F JUMP JUMPDEST PUSH1 0x1 PUSH1 0x0 MSTORE PUSH1 0x1F NOT DUP4 AND SWAP6 SWAP1 SWAP2 SWAP1 PUSH32 0xB10E2D527612073B26EECDFD717E6A320CF44B4AFAC2B0732D9FCBE2B7FA0CF6 SWAP3 PUSH1 0x0 SWAP1 JUMPDEST DUP9 DUP3 LT PUSH3 0x40D JUMPI POP POP DUP4 DUP6 SWAP7 SWAP8 LT PUSH3 0x3F3 JUMPI JUMPDEST POP POP POP DUP2 SHL ADD SWAP1 SSTORE JUMP JUMPDEST ADD MLOAD PUSH1 0x0 NOT PUSH1 0xF8 DUP5 PUSH1 0x3 SHL AND SHR NOT AND SWAP1 SSTORE CODESIZE DUP1 DUP1 PUSH3 0x3E9 JUMP JUMPDEST DUP1 DUP8 DUP6 SWAP7 DUP3 SWAP5 SWAP7 DUP7 ADD MLOAD DUP2 SSTORE ADD SWAP6 ADD SWAP4 ADD SWAP1 PUSH3 0x3D4 JUMP JUMPDEST PUSH3 0x42F PUSH3 0x1B2 JUMP JUMPDEST PUSH3 0x348 JUMP JUMPDEST PUSH1 0x40 MLOAD PUSH1 0x0 SWAP1 DUP2 SLOAD SWAP1 PUSH3 0x449 DUP3 PUSH3 0x242 JUMP JUMPDEST SWAP3 DUP4 DUP3 MSTORE PUSH1 0x20 SWAP4 DUP5 DUP4 ADD SWAP4 PUSH1 0x1 SWAP1 DUP2 DUP2 AND SWAP1 DUP2 PUSH1 0x0 EQ PUSH3 0x54E JUMPI POP PUSH1 0x1 EQ PUSH3 0x50E JUMPI JUMPDEST POP POP SWAP2 DUP2 PUSH3 0x488 PUSH3 0x508 SWAP4 PUSH3 0x4F9 SWAP6 SUB DUP3 PUSH3 0x1F4 JUMP JUMPDEST MLOAD SWAP1 KECCAK256 PUSH1 0x40 DUP1 MLOAD PUSH32 0x8B73C3C69BB8FE3D512ECC4CF759CC79239F7B179B0FFACAA9A75D522B39400F SWAP6 DUP2 ADD SWAP6 DUP7 MSTORE PUSH1 0x20 DUP7 ADD SWAP3 SWAP1 SWAP3 MSTORE PUSH32 0xC89EFDAA54C0F20C7ADF612882DF0950F5A951637E0307CDCB4C672F298B8BC6 SWAP1 DUP6 ADD MSTORE CHAINID PUSH1 0x60 DUP6 ADD MSTORE ADDRESS PUSH1 0x80 DUP6 ADD MSTORE SWAP2 DUP3 SWAP1 PUSH1 0xA0 DUP6 ADD SWAP1 JUMP JUMPDEST SUB PUSH1 0x1F NOT DUP2 ADD DUP4 MSTORE DUP3 PUSH3 0x1F4 JUMP JUMPDEST MLOAD SWAP1 KECCAK256 SWAP1 JUMP JUMPDEST SWAP1 DUP6 SWAP3 POP PUSH1 0x0 DUP1 MSTORE DUP3 PUSH1 0x0 KECCAK256 SWAP2 PUSH1 0x0 SWAP3 JUMPDEST DUP3 DUP5 LT PUSH3 0x538 JUMPI POP POP POP DUP3 ADD ADD DUP2 PUSH3 0x488 PUSH3 0x46E JUMP JUMPDEST DUP1 SLOAD DUP7 DUP6 ADD DUP7 ADD MSTORE DUP8 SWAP5 SWAP1 SWAP4 ADD SWAP3 DUP2 ADD PUSH3 0x51F JUMP JUMPDEST PUSH1 0xFF NOT AND DUP7 MSTORE POP POP POP PUSH1 0x40 DUP3 ADD SWAP1 POP DUP2 PUSH3 0x488 PUSH3 0x46E JUMP INVALID PUSH1 0x80 PUSH1 0x40 MSTORE PUSH1 0x4 CALLDATASIZE LT ISZERO PUSH2 0x13 JUMPI JUMPDEST PUSH1 0x0 DUP1 REVERT JUMPDEST PUSH1 0x0 CALLDATALOAD PUSH1 0xE0 SHR DUP1 PUSH4 0x6FDDE03 EQ PUSH2 0x17B JUMPI DUP1 PUSH4 0x95EA7B3 EQ PUSH2 0x172 JUMPI DUP1 PUSH4 0x18160DDD EQ PUSH2 0x169 JUMPI DUP1 PUSH4 0x1B243845 EQ PUSH2 0x160 JUMPI DUP1 PUSH4 0x23B872DD EQ PUSH2 0x157 JUMPI DUP1 PUSH4 0x303BDD2C EQ PUSH2 0x14E JUMPI DUP1 PUSH4 0x30ADF81F EQ PUSH2 0x145 JUMPI DUP1 PUSH4 0x313CE567 EQ PUSH2 0x13C JUMPI DUP1 PUSH4 0x3644E515 EQ PUSH2 0x133 JUMPI DUP1 PUSH4 0x40C10F19 EQ PUSH2 0x12A JUMPI DUP1 PUSH4 0x70A08231 EQ PUSH2 0x121 JUMPI DUP1 PUSH4 0x7ECEBE00 EQ PUSH2 0x118 JUMPI DUP1 PUSH4 0x95D89B41 EQ PUSH2 0x10F JUMPI DUP1 PUSH4 0xA9059CBB EQ PUSH2 0x106 JUMPI DUP1 PUSH4 0xCD1B5B71 EQ PUSH2 0xFD JUMPI DUP1 PUSH4 0xD505ACCF EQ PUSH2 0xF4 JUMPI DUP1 PUSH4 0xDD62ED3E EQ PUSH2 0xEB JUMPI PUSH4 0xE074D6A9 EQ PUSH2 0xE3 JUMPI PUSH1 0x0 DUP1 REVERT JUMPDEST PUSH2 0xE PUSH2 0xBC2 JUMP JUMPDEST POP PUSH2 0xE PUSH2 0xB4A JUMP JUMPDEST POP PUSH2 0xE PUSH2 0x8C3 JUMP JUMPDEST POP PUSH2 0xE PUSH2 0x879 JUMP JUMPDEST POP PUSH2 0xE PUSH2 0x7B5 JUMP JUMPDEST POP PUSH2 0xE PUSH2 0x70F JUMP JUMPDEST POP PUSH2 0xE PUSH2 0x6C7 JUMP JUMPDEST POP PUSH2 0xE PUSH2 0x67F JUMP JUMPDEST POP PUSH2 0xE PUSH2 0x5E4 JUMP JUMPDEST POP PUSH2 0xE PUSH2 0x5C0 JUMP JUMPDEST POP PUSH2 0xE PUSH2 0x581 JUMP JUMPDEST POP PUSH2 0xE PUSH2 0x545 JUMP JUMPDEST POP PUSH2 0xE PUSH2 0x521 JUMP JUMPDEST POP PUSH2 0xE PUSH2 0x4E7 JUMP JUMPDEST POP PUSH2 0xE PUSH2 0x4C0 JUMP JUMPDEST POP PUSH2 0xE PUSH2 0x4A1 JUMP JUMPDEST POP PUSH2 0xE PUSH2 0x3FC JUMP JUMPDEST POP PUSH2 0xE PUSH2 0x2BD JUMP JUMPDEST SWAP1 PUSH1 0x1 DUP3 DUP2 SHR SWAP3 AND DUP1 ISZERO PUSH2 0x1CD JUMPI JUMPDEST PUSH1 0x20 DUP4 LT EQ PUSH2 0x19E JUMPI JUMP JUMPDEST PUSH32 0x4E487B7100000000000000000000000000000000000000000000000000000000 PUSH1 0x0 MSTORE PUSH1 0x22 PUSH1 0x4 MSTORE PUSH1 0x24 PUSH1 0x0 REVERT JUMPDEST SWAP2 PUSH1 0x7F AND SWAP2 PUSH2 0x193 JUMP JUMPDEST SWAP1 PUSH1 0x1F PUSH32 0xFFFFFFFFFFFFFFFFFFFFFFFFFFFFFFFFFFFFFFFFFFFFFFFFFFFFFFFFFFFFFFE0 SWAP2 ADD AND DUP2 ADD SWAP1 DUP2 LT PUSH8 0xFFFFFFFFFFFFFFFF DUP3 GT OR PUSH2 0x218 JUMPI PUSH1 0x40 MSTORE JUMP JUMPDEST PUSH32 0x4E487B7100000000000000000000000000000000000000000000000000000000 PUSH1 0x0 MSTORE PUSH1 0x41 PUSH1 0x4 MSTORE PUSH1 0x24 PUSH1 0x0 REVERT JUMPDEST SWAP2 SWAP1 SWAP2 PUSH1 0x20 DUP1 DUP3 MSTORE DUP4 MLOAD SWAP1 DUP2 DUP2 DUP5 ADD MSTORE PUSH1 0x0 SWAP5 JUMPDEST DUP3 DUP7 LT PUSH2 0x2A7 JUMPI POP POP PUSH1 0x1F DUP2 PUSH32 0xFFFFFFFFFFFFFFFFFFFFFFFFFFFFFFFFFFFFFFFFFFFFFFFFFFFFFFFFFFFFFFE0 SWAP3 PUSH1 0x40 SWAP6 SWAP7 GT PUSH2 0x29A JUMPI JUMPDEST ADD AND ADD ADD SWAP1 JUMP JUMPDEST PUSH1 0x0 DUP6 DUP3 DUP7 ADD ADD MSTORE PUSH2 0x293 JUMP JUMPDEST DUP6 DUP2 ADD DUP3 ADD MLOAD DUP5 DUP8 ADD PUSH1 0x40 ADD MSTORE SWAP5 DUP2 ADD SWAP5 PUSH2 0x25B JUMP JUMPDEST POP CALLVALUE PUSH2 0xE JUMPI PUSH1 0x0 DUP1 PUSH1 0x3 NOT CALLDATASIZE ADD SLT PUSH2 0x3B3 JUMPI PUSH1 0x40 MLOAD SWAP1 DUP1 DUP1 SLOAD PUSH2 0x2E0 DUP2 PUSH2 0x184 JUMP JUMPDEST DUP1 DUP6 MSTORE SWAP2 PUSH1 0x1 SWAP2 DUP1 DUP4 AND SWAP1 DUP2 ISZERO PUSH2 0x374 JUMPI POP PUSH1 0x1 EQ PUSH2 0x31A JUMPI JUMPDEST PUSH2 0x316 DUP6 PUSH2 0x30A DUP2 DUP8 SUB DUP3 PUSH2 0x1D7 JUMP JUMPDEST PUSH1 0x40 MLOAD SWAP2 DUP3 SWAP2 DUP3 PUSH2 0x247 JUMP JUMPDEST SUB SWAP1 RETURN JUMPDEST DUP1 DUP1 SWAP5 POP MSTORE PUSH32 0x290DECD9548B62A8D60345A988386FC84BA6BC95484008F6362F93160EF3E563 JUMPDEST DUP3 DUP5 LT PUSH2 0x35C JUMPI POP POP POP DUP2 ADD PUSH1 0x20 ADD PUSH2 0x30A DUP3 PUSH2 0x316 PUSH2 0x2FA JUMP JUMPDEST DUP1 SLOAD PUSH1 0x20 DUP6 DUP8 ADD DUP2 ADD SWAP2 SWAP1 SWAP2 MSTORE SWAP1 SWAP4 ADD SWAP3 DUP2 ADD PUSH2 0x341 JUMP JUMPDEST PUSH32 0xFFFFFFFFFFFFFFFFFFFFFFFFFFFFFFFFFFFFFFFFFFFFFFFFFFFFFFFFFFFFFF00 AND PUSH1 0x20 DUP8 ADD MSTORE POP POP PUSH1 0x40 DUP5 ADD SWAP3 POP PUSH2 0x30A SWAP2 POP DUP4 SWAP1 POP PUSH2 0x316 PUSH2 0x2FA JUMP JUMPDEST DUP1 REVERT JUMPDEST PUSH1 0x4 CALLDATALOAD SWAP1 PUSH20 0xFFFFFFFFFFFFFFFFFFFFFFFFFFFFFFFFFFFFFFFF DUP3 AND DUP3 SUB PUSH2 0xE JUMPI JUMP JUMPDEST PUSH1 0x24 CALLDATALOAD SWAP1 PUSH20 0xFFFFFFFFFFFFFFFFFFFFFFFFFFFFFFFFFFFFFFFF DUP3 AND DUP3 SUB PUSH2 0xE JUMPI JUMP JUMPDEST POP CALLVALUE PUSH2 0xE JUMPI PUSH1 0x40 PUSH1 0x3 NOT CALLDATASIZE ADD SLT PUSH2 0xE JUMPI PUSH2 0x416 PUSH2 0x3B6 JUMP JUMPDEST PUSH20 0xFFFFFFFFFFFFFFFFFFFFFFFFFFFFFFFFFFFFFFFF PUSH1 0x24 CALLDATALOAD SWAP2 CALLER PUSH1 0x0 MSTORE PUSH1 0x4 PUSH1 0x20 MSTORE DUP3 PUSH2 0x467 DUP3 PUSH1 0x40 PUSH1 0x0 KECCAK256 SWAP1 PUSH20 0xFFFFFFFFFFFFFFFFFFFFFFFFFFFFFFFFFFFFFFFF AND PUSH1 0x0 MSTORE PUSH1 0x20 MSTORE PUSH1 0x40 PUSH1 0x0 KECCAK256 SWAP1 JUMP JUMPDEST SSTORE PUSH1 0x40 MLOAD SWAP3 DUP4 MSTORE AND SWAP1 PUSH32 0x8C5BE1E5EBEC7D5BD14F71427D1E84F3DD0314C0F7B2291E5B200AC8C7C3B925 PUSH1 0x20 CALLER SWAP3 LOG3 PUSH1 0x20 PUSH1 0x40 MLOAD PUSH1 0x1 DUP2 MSTORE RETURN JUMPDEST POP CALLVALUE PUSH2 0xE JUMPI PUSH1 0x0 PUSH1 0x3 NOT CALLDATASIZE ADD SLT PUSH2 0xE JUMPI PUSH1 0x20 PUSH1 0x2 SLOAD PUSH1 0x40 MLOAD SWAP1 DUP2 MSTORE RETURN JUMPDEST POP CALLVALUE PUSH2 0xE JUMPI PUSH1 0x0 PUSH1 0x3 NOT CALLDATASIZE ADD SLT PUSH2 0xE JUMPI PUSH1 0x20 PUSH1 0xFF PUSH1 0x6 SLOAD PUSH1 0x8 SHR AND PUSH1 0x40 MLOAD SWAP1 ISZERO ISZERO DUP2 MSTORE RETURN JUMPDEST POP CALLVALUE PUSH2 0xE JUMPI PUSH1 0x60 PUSH1 0x3 NOT CALLDATASIZE ADD SLT PUSH2 0xE JUMPI PUSH1 0x20 PUSH2 0x517 PUSH2 0x506 PUSH2 0x3B6 JUMP JUMPDEST PUSH2 0x50E PUSH2 0x3D9 JUMP JUMPDEST PUSH1 0x44 CALLDATALOAD SWAP2 PUSH2 0xEF1 JUMP JUMPDEST PUSH1 0x40 MLOAD SWAP1 ISZERO ISZERO DUP2 MSTORE RETURN JUMPDEST POP CALLVALUE PUSH2 0xE JUMPI PUSH1 0x0 PUSH1 0x3 NOT CALLDATASIZE ADD SLT PUSH2 0xE JUMPI PUSH1 0x20 PUSH1 0xFF PUSH1 0x6 SLOAD AND PUSH1 0x40 MLOAD SWAP1 ISZERO ISZERO DUP2 MSTORE RETURN JUMPDEST POP CALLVALUE PUSH2 0xE JUMPI PUSH1 0x0 PUSH1 0x3 NOT CALLDATASIZE ADD SLT PUSH2 0xE JUMPI PUSH1 0x20 PUSH1 0x40 MLOAD PUSH32 0x6E71EDAE12B1B97F4D1F60370FEF10105FA2FAAE0126114A169C64845D6126C9 DUP2 MSTORE RETURN JUMPDEST POP CALLVALUE PUSH2 0xE JUMPI PUSH1 0x0 PUSH1 0x3 NOT CALLDATASIZE ADD SLT PUSH2 0xE JUMPI PUSH1 0x20 PUSH1 0x40 MLOAD PUSH1 0xFF PUSH32 0x0 AND DUP2 MSTORE RETURN JUMPDEST POP CALLVALUE PUSH2 0xE JUMPI PUSH1 0x0 PUSH1 0x3 NOT CALLDATASIZE ADD SLT PUSH2 0xE JUMPI PUSH1 0x20 PUSH2 0x5DC PUSH2 0xD25 JUMP JUMPDEST PUSH1 0x40 MLOAD SWAP1 DUP2 MSTORE RETURN JUMPDEST POP CALLVALUE PUSH2 0xE JUMPI PUSH1 0x40 PUSH1 0x3 NOT CALLDATASIZE ADD SLT PUSH2 0xE JUMPI PUSH2 0x5FE PUSH2 0x3B6 JUMP JUMPDEST PUSH1 0x0 PUSH32 0xDDF252AD1BE2C89B69C2B068FC378DAA952BA7F163C4A11628F55A4DF523B3EF PUSH1 0x20 PUSH20 0xFFFFFFFFFFFFFFFFFFFFFFFFFFFFFFFFFFFFFFFF PUSH1 0x24 CALLDATALOAD SWAP5 DUP6 PUSH1 0x2 SLOAD DUP2 NOT DUP2 GT PUSH2 0x672 JUMPI JUMPDEST ADD PUSH1 0x2 SSTORE AND SWAP4 DUP5 DUP5 MSTORE PUSH1 0x3 DUP3 MSTORE PUSH1 0x40 DUP5 KECCAK256 DUP2 DUP2 SLOAD ADD SWAP1 SSTORE PUSH1 0x40 MLOAD SWAP1 DUP2 MSTORE LOG3 PUSH1 0x20 PUSH1 0x40 MLOAD PUSH1 0x1 DUP2 MSTORE RETURN JUMPDEST PUSH2 0x67A PUSH2 0xC07 JUMP JUMPDEST PUSH2 0x649 JUMP JUMPDEST POP CALLVALUE PUSH2 0xE JUMPI PUSH1 0x20 PUSH1 0x3 NOT CALLDATASIZE ADD SLT PUSH2 0xE JUMPI PUSH20 0xFFFFFFFFFFFFFFFFFFFFFFFFFFFFFFFFFFFFFFFF PUSH2 0x6AE PUSH2 0x3B6 JUMP JUMPDEST AND PUSH1 0x0 MSTORE PUSH1 0x3 PUSH1 0x20 MSTORE PUSH1 0x20 PUSH1 0x40 PUSH1 0x0 KECCAK256 SLOAD PUSH1 0x40 MLOAD SWAP1 DUP2 MSTORE RETURN JUMPDEST POP CALLVALUE PUSH2 0xE JUMPI PUSH1 0x20 PUSH1 0x3 NOT CALLDATASIZE ADD SLT PUSH2 0xE JUMPI PUSH20 0xFFFFFFFFFFFFFFFFFFFFFFFFFFFFFFFFFFFFFFFF PUSH2 0x6F6 PUSH2 0x3B6 JUMP JUMPDEST AND PUSH1 0x0 MSTORE PUSH1 0x5 PUSH1 0x20 MSTORE PUSH1 0x20 PUSH1 0x40 PUSH1 0x0 KECCAK256 SLOAD PUSH1 0x40 MLOAD SWAP1 DUP2 MSTORE RETURN JUMPDEST POP CALLVALUE PUSH2 0xE JUMPI PUSH1 0x0 DUP1 PUSH1 0x3 NOT CALLDATASIZE ADD SLT PUSH2 0x3B3 JUMPI PUSH1 0x40 MLOAD SWAP1 DUP1 PUSH1 0x1 DUP1 SLOAD SWAP2 PUSH2 0x735 DUP4 PUSH2 0x184 JUMP JUMPDEST DUP1 DUP7 MSTORE SWAP3 DUP3 DUP2 AND SWAP1 DUP2 ISZERO PUSH2 0x374 JUMPI POP PUSH1 0x1 EQ PUSH2 0x75B JUMPI PUSH2 0x316 DUP6 PUSH2 0x30A DUP2 DUP8 SUB DUP3 PUSH2 0x1D7 JUMP JUMPDEST SWAP3 POP DUP1 DUP4 MSTORE PUSH32 0xB10E2D527612073B26EECDFD717E6A320CF44B4AFAC2B0732D9FCBE2B7FA0CF6 JUMPDEST DUP3 DUP5 LT PUSH2 0x79D JUMPI POP POP POP DUP2 ADD PUSH1 0x20 ADD PUSH2 0x30A DUP3 PUSH2 0x316 PUSH2 0x2FA JUMP JUMPDEST DUP1 SLOAD PUSH1 0x20 DUP6 DUP8 ADD DUP2 ADD SWAP2 SWAP1 SWAP2 MSTORE SWAP1 SWAP4 ADD SWAP3 DUP2 ADD PUSH2 0x782 JUMP JUMPDEST POP CALLVALUE PUSH2 0xE JUMPI PUSH1 0x40 PUSH1 0x3 NOT CALLDATASIZE ADD SLT PUSH2 0xE JUMPI PUSH2 0x7CF PUSH2 0x3B6 JUMP JUMPDEST PUSH20 0xFFFFFFFFFFFFFFFFFFFFFFFFFFFFFFFFFFFFFFFF PUSH1 0x24 CALLDATALOAD SWAP2 CALLER PUSH1 0x0 MSTORE PUSH1 0x3 PUSH1 0x20 MSTORE PUSH1 0x40 PUSH1 0x0 KECCAK256 DUP4 DUP2 SLOAD DUP2 DUP2 LT PUSH2 0x851 JUMPI JUMPDEST SUB SWAP1 SSTORE AND SWAP1 DUP2 PUSH1 0x0 MSTORE PUSH1 0x3 PUSH1 0x20 MSTORE PUSH1 0x40 PUSH1 0x0 KECCAK256 DUP2 DUP2 SLOAD ADD SWAP1 SSTORE PUSH1 0x40 MLOAD SWAP1 DUP2 MSTORE PUSH32 0xDDF252AD1BE2C89B69C2B068FC378DAA952BA7F163C4A11628F55A4DF523B3EF PUSH1 0x20 CALLER SWAP3 LOG3 PUSH1 0x20 PUSH1 0x40 MLOAD PUSH1 0x1 DUP2 MSTORE RETURN JUMPDEST PUSH2 0x859 PUSH2 0xC07 JUMP JUMPDEST PUSH2 0x801 JUMP JUMPDEST PUSH1 0x3 NOT PUSH1 0x20 SWAP2 ADD SLT PUSH2 0xE JUMPI PUSH1 0x4 CALLDATALOAD DUP1 ISZERO ISZERO DUP2 SUB PUSH2 0xE JUMPI SWAP1 JUMP JUMPDEST POP CALLVALUE PUSH2 0xE JUMPI PUSH2 0x888 CALLDATASIZE PUSH2 0x85E JUMP JUMPDEST ISZERO ISZERO PUSH32 0xFFFFFFFFFFFFFFFFFFFFFFFFFFFFFFFFFFFFFFFFFFFFFFFFFFFFFFFFFFFF00FF PUSH2 0xFF00 PUSH1 0x6 SLOAD SWAP3 PUSH1 0x8 SHL AND SWAP2 AND OR PUSH1 0x6 SSTORE PUSH1 0x0 PUSH1 0x40 MLOAD RETURN JUMPDEST POP CALLVALUE PUSH2 0xE JUMPI PUSH1 0xE0 PUSH1 0x3 NOT CALLDATASIZE ADD SLT PUSH2 0xE JUMPI PUSH2 0x8DD PUSH2 0x3B6 JUMP JUMPDEST PUSH2 0x8E5 PUSH2 0x3D9 JUMP JUMPDEST PUSH1 0x44 CALLDATALOAD SWAP1 PUSH1 0x64 CALLDATALOAD SWAP1 PUSH1 0x84 CALLDATALOAD PUSH1 0xFF DUP2 AND DUP2 SUB PUSH2 0xE JUMPI PUSH1 0x0 PUSH1 0x20 SWAP2 PUSH32 0x8C5BE1E5EBEC7D5BD14F71427D1E84F3DD0314C0F7B2291E5B200AC8C7C3B925 SWAP5 PUSH2 0x92D TIMESTAMP DUP3 LT ISZERO PUSH2 0xC4E JUMP JUMPDEST PUSH2 0xA59 PUSH2 0xA65 PUSH2 0x93B PUSH2 0xD25 JUMP JUMPDEST SWAP3 DUP11 DUP11 PUSH2 0x9E3 PUSH2 0x96B DUP4 PUSH20 0xFFFFFFFFFFFFFFFFFFFFFFFFFFFFFFFFFFFFFFFF AND PUSH1 0x0 MSTORE PUSH1 0x5 PUSH1 0x20 MSTORE PUSH1 0x40 PUSH1 0x0 KECCAK256 SWAP1 JUMP JUMPDEST SWAP4 DUP5 SLOAD SWAP5 PUSH1 0x1 DUP7 ADD SWAP1 SSTORE PUSH1 0x40 MLOAD SWAP5 DUP6 SWAP4 DUP14 DUP14 DUP7 ADD SWAP7 DUP8 SWAP2 SWAP6 SWAP5 SWAP4 SWAP1 SWAP3 PUSH1 0xA0 SWAP4 PUSH1 0xC0 DUP5 ADD SWAP8 PUSH32 0x6E71EDAE12B1B97F4D1F60370FEF10105FA2FAAE0126114A169C64845D6126C9 DUP6 MSTORE PUSH20 0xFFFFFFFFFFFFFFFFFFFFFFFFFFFFFFFFFFFFFFFF DUP1 SWAP3 AND PUSH1 0x20 DUP7 ADD MSTORE AND PUSH1 0x40 DUP5 ADD MSTORE PUSH1 0x60 DUP4 ADD MSTORE PUSH1 0x80 DUP3 ADD MSTORE ADD MSTORE JUMP JUMPDEST SUB SWAP2 PUSH2 0xA15 PUSH32 0xFFFFFFFFFFFFFFFFFFFFFFFFFFFFFFFFFFFFFFFFFFFFFFFFFFFFFFFFFFFFFFE0 SWAP4 DUP5 DUP2 ADD DUP4 MSTORE DUP3 PUSH2 0x1D7 JUMP JUMPDEST MLOAD SWAP1 KECCAK256 PUSH1 0x40 MLOAD SWAP4 DUP5 SWAP2 DUP10 DUP4 ADD SWAP7 DUP8 SWAP1 SWAP2 PUSH1 0x42 SWAP3 PUSH32 0x1901000000000000000000000000000000000000000000000000000000000000 DUP4 MSTORE PUSH1 0x2 DUP4 ADD MSTORE PUSH1 0x22 DUP3 ADD MSTORE ADD SWAP1 JUMP JUMPDEST SUB SWAP1 DUP2 ADD DUP4 MSTORE DUP3 PUSH2 0x1D7 JUMP JUMPDEST MLOAD SWAP1 KECCAK256 PUSH1 0x40 DUP1 MLOAD SWAP2 DUP3 MSTORE PUSH1 0xFF SWAP3 SWAP1 SWAP3 AND PUSH1 0x20 DUP3 ADD MSTORE PUSH1 0xA4 CALLDATALOAD SWAP2 DUP2 ADD SWAP2 SWAP1 SWAP2 MSTORE PUSH1 0xC4 CALLDATALOAD PUSH1 0x60 DUP3 ADD MSTORE DUP2 DUP1 MSTORE PUSH1 0x80 SWAP1 PUSH1 0x1 GAS STATICCALL ISZERO PUSH2 0xB3D JUMPI JUMPDEST PUSH1 0x0 MLOAD SWAP1 DUP4 PUSH2 0xB1F DUP3 PUSH2 0xAFA PUSH20 0xFFFFFFFFFFFFFFFFFFFFFFFFFFFFFFFFFFFFFFFF SWAP6 PUSH2 0xAD4 DUP8 DUP3 AND DUP1 ISZERO ISZERO SWAP1 DUP2 PUSH2 0xB31 JUMPI JUMPDEST POP PUSH2 0xCC0 JUMP JUMPDEST PUSH20 0xFFFFFFFFFFFFFFFFFFFFFFFFFFFFFFFFFFFFFFFF AND PUSH1 0x0 MSTORE PUSH1 0x4 PUSH1 0x20 MSTORE PUSH1 0x40 PUSH1 0x0 KECCAK256 SWAP1 JUMP JUMPDEST SWAP1 PUSH20 0xFFFFFFFFFFFFFFFFFFFFFFFFFFFFFFFFFFFFFFFF AND PUSH1 0x0 MSTORE PUSH1 0x20 MSTORE PUSH1 0x40 PUSH1 0x0 KECCAK256 SWAP1 JUMP JUMPDEST SSTORE PUSH1 0x40 MLOAD SWAP4 DUP5 MSTORE DUP2 AND SWAP4 AND SWAP2 PUSH1 0x20 SWAP1 LOG3 STOP JUMPDEST SWAP1 POP DUP9 DUP13 AND EQ CODESIZE PUSH2 0xACE JUMP JUMPDEST PUSH2 0xB45 PUSH2 0xCB3 JUMP JUMPDEST PUSH2 0xA9C JUMP JUMPDEST POP CALLVALUE PUSH2 0xE JUMPI PUSH1 0x40 PUSH1 0x3 NOT CALLDATASIZE ADD SLT PUSH2 0xE JUMPI PUSH1 0x20 PUSH2 0xBB9 PUSH2 0xB69 PUSH2 0x3B6 JUMP JUMPDEST PUSH20 0xFFFFFFFFFFFFFFFFFFFFFFFFFFFFFFFFFFFFFFFF PUSH2 0xB86 PUSH2 0x3D9 JUMP JUMPDEST SWAP2 AND PUSH1 0x0 MSTORE PUSH1 0x4 DUP4 MSTORE PUSH1 0x40 PUSH1 0x0 KECCAK256 SWAP1 PUSH20 0xFFFFFFFFFFFFFFFFFFFFFFFFFFFFFFFFFFFFFFFF AND PUSH1 0x0 MSTORE PUSH1 0x20 MSTORE PUSH1 0x40 PUSH1 0x0 KECCAK256 SWAP1 JUMP JUMPDEST SLOAD PUSH1 0x40 MLOAD SWAP1 DUP2 MSTORE RETURN JUMPDEST POP CALLVALUE PUSH2 0xE JUMPI PUSH2 0xBD1 CALLDATASIZE PUSH2 0x85E JUMP JUMPDEST ISZERO ISZERO PUSH1 0xFF PUSH32 0xFFFFFFFFFFFFFFFFFFFFFFFFFFFFFFFFFFFFFFFFFFFFFFFFFFFFFFFFFFFFFF00 PUSH1 0x6 SLOAD AND SWAP2 AND OR PUSH1 0x6 SSTORE PUSH1 0x0 PUSH1 0x40 MLOAD RETURN JUMPDEST POP PUSH32 0x4E487B7100000000000000000000000000000000000000000000000000000000 PUSH1 0x0 MSTORE PUSH1 0x11 PUSH1 0x4 MSTORE PUSH1 0x24 PUSH1 0x0 REVERT JUMPDEST DUP2 DUP2 LT PUSH2 0xC42 JUMPI SUB SWAP1 JUMP JUMPDEST PUSH2 0xC4A PUSH2 0xC07 JUMP JUMPDEST SUB SWAP1 JUMP JUMPDEST ISZERO PUSH2 0xC55 JUMPI JUMP JUMPDEST PUSH1 0x64 PUSH1 0x40 MLOAD PUSH32 0x8C379A000000000000000000000000000000000000000000000000000000000 DUP2 MSTORE PUSH1 0x20 PUSH1 0x4 DUP3 ADD MSTORE PUSH1 0x17 PUSH1 0x24 DUP3 ADD MSTORE PUSH32 0x5045524D49545F444541444C494E455F45585049524544000000000000000000 PUSH1 0x44 DUP3 ADD MSTORE REVERT JUMPDEST POP PUSH1 0x40 MLOAD RETURNDATASIZE PUSH1 0x0 DUP3 RETURNDATACOPY RETURNDATASIZE SWAP1 REVERT JUMPDEST ISZERO PUSH2 0xCC7 JUMPI JUMP JUMPDEST PUSH1 0x64 PUSH1 0x40 MLOAD PUSH32 0x8C379A000000000000000000000000000000000000000000000000000000000 DUP2 MSTORE PUSH1 0x20 PUSH1 0x4 DUP3 ADD MSTORE PUSH1 0xE PUSH1 0x24 DUP3 ADD MSTORE PUSH32 0x494E56414C49445F5349474E4552000000000000000000000000000000000000 PUSH1 0x44 DUP3 ADD MSTORE REVERT JUMPDEST PUSH1 0x0 CHAINID PUSH32 0x0 SUB PUSH2 0xD73 JUMPI POP PUSH32 0x0 SWAP1 JUMP JUMPDEST PUSH1 0x40 MLOAD DUP2 SLOAD SWAP2 SWAP1 DUP2 PUSH2 0xD84 DUP5 PUSH2 0x184 JUMP JUMPDEST DUP1 DUP4 MSTORE PUSH1 0x20 SWAP5 DUP6 DUP5 ADD SWAP5 PUSH1 0x1 SWAP2 DUP3 DUP2 AND SWAP1 DUP2 ISZERO PUSH2 0xEB6 JUMPI POP PUSH1 0x1 EQ PUSH2 0xE5E JUMPI JUMPDEST POP POP POP SWAP2 DUP2 PUSH2 0xDBB PUSH2 0xE58 SWAP4 PUSH2 0xE2C SWAP6 SUB DUP3 PUSH2 0x1D7 JUMP JUMPDEST MLOAD SWAP1 KECCAK256 PUSH1 0x40 DUP1 MLOAD PUSH32 0x8B73C3C69BB8FE3D512ECC4CF759CC79239F7B179B0FFACAA9A75D522B39400F SWAP6 DUP2 ADD SWAP6 DUP7 MSTORE PUSH1 0x20 DUP7 ADD SWAP3 SWAP1 SWAP3 MSTORE PUSH32 0xC89EFDAA54C0F20C7ADF612882DF0950F5A951637E0307CDCB4C672F298B8BC6 SWAP1 DUP6 ADD MSTORE CHAINID PUSH1 0x60 DUP6 ADD MSTORE ADDRESS PUSH1 0x80 DUP6 ADD MSTORE SWAP2 DUP3 SWAP1 PUSH1 0xA0 DUP6 ADD SWAP1 JUMP JUMPDEST SUB PUSH32 0xFFFFFFFFFFFFFFFFFFFFFFFFFFFFFFFFFFFFFFFFFFFFFFFFFFFFFFFFFFFFFFE0 DUP2 ADD DUP4 MSTORE DUP3 PUSH2 0x1D7 JUMP JUMPDEST MLOAD SWAP1 KECCAK256 SWAP1 JUMP JUMPDEST SWAP2 SWAP1 DUP7 SWAP4 POP DUP3 DUP1 MSTORE PUSH32 0x290DECD9548B62A8D60345A988386FC84BA6BC95484008F6362F93160EF3E563 JUMPDEST DUP3 DUP5 LT PUSH2 0xEA1 JUMPI POP POP POP DUP3 ADD ADD DUP2 PUSH2 0xDBB PUSH2 0xE58 PUSH2 0xDA4 JUMP JUMPDEST DUP1 SLOAD DUP7 DUP6 ADD DUP7 ADD MSTORE DUP8 SWAP5 SWAP1 SWAP4 ADD SWAP3 DUP2 ADD PUSH2 0xE88 JUMP JUMPDEST PUSH32 0xFFFFFFFFFFFFFFFFFFFFFFFFFFFFFFFFFFFFFFFFFFFFFFFFFFFFFFFFFFFFFF00 AND DUP8 MSTORE POP POP POP PUSH1 0x40 DUP4 ADD SWAP2 POP DUP3 SWAP1 POP PUSH2 0xDBB PUSH2 0xE58 PUSH2 0xDA4 JUMP JUMPDEST SWAP1 PUSH1 0xFF PUSH1 0x6 SLOAD AND PUSH2 0x106C JUMPI PUSH32 0xDDF252AD1BE2C89B69C2B068FC378DAA952BA7F163C4A11628F55A4DF523B3EF SWAP1 PUSH20 0xFFFFFFFFFFFFFFFFFFFFFFFFFFFFFFFFFFFFFFFF SWAP1 PUSH2 0xFC3 DUP3 DUP6 AND SWAP5 DUP6 PUSH1 0x0 MSTORE PUSH1 0x4 PUSH1 0x20 MSTORE DUP7 PUSH2 0xF72 PUSH1 0x40 PUSH1 0x0 KECCAK256 CALLER PUSH20 0xFFFFFFFFFFFFFFFFFFFFFFFFFFFFFFFFFFFFFFFF AND PUSH1 0x0 MSTORE PUSH1 0x20 MSTORE PUSH1 0x40 PUSH1 0x0 KECCAK256 SWAP1 JUMP JUMPDEST SLOAD PUSH32 0xFFFFFFFFFFFFFFFFFFFFFFFFFFFFFFFFFFFFFFFFFFFFFFFFFFFFFFFFFFFFFFFF DUP2 SUB PUSH2 0x1020 JUMPI JUMPDEST POP POP PUSH20 0xFFFFFFFFFFFFFFFFFFFFFFFFFFFFFFFFFFFFFFFF AND PUSH1 0x0 MSTORE PUSH1 0x3 PUSH1 0x20 MSTORE PUSH1 0x40 PUSH1 0x0 KECCAK256 SWAP1 JUMP JUMPDEST PUSH2 0xFCE DUP7 DUP3 SLOAD PUSH2 0xC37 JUMP JUMPDEST SWAP1 SSTORE PUSH2 0xFFA DUP2 PUSH20 0xFFFFFFFFFFFFFFFFFFFFFFFFFFFFFFFFFFFFFFFF AND PUSH1 0x0 MSTORE PUSH1 0x3 PUSH1 0x20 MSTORE PUSH1 0x40 PUSH1 0x0 KECCAK256 SWAP1 JUMP JUMPDEST DUP1 SLOAD DUP7 ADD SWAP1 SSTORE PUSH1 0x40 MLOAD SWAP5 DUP6 MSTORE AND SWAP3 PUSH1 0x20 SWAP1 LOG3 PUSH1 0x6 SLOAD PUSH1 0x8 SHR PUSH1 0xFF AND PUSH2 0x101E JUMPI PUSH1 0x1 SWAP1 JUMP JUMPDEST STOP JUMPDEST DUP2 DUP2 LT PUSH2 0x105F JUMPI JUMPDEST SUB PUSH2 0x1057 CALLER PUSH2 0xAFA DUP5 PUSH20 0xFFFFFFFFFFFFFFFFFFFFFFFFFFFFFFFFFFFFFFFF AND PUSH1 0x0 MSTORE PUSH1 0x4 PUSH1 0x20 MSTORE PUSH1 0x40 PUSH1 0x0 KECCAK256 SWAP1 JUMP JUMPDEST SSTORE DUP7 CODESIZE PUSH2 0xF9B JUMP JUMPDEST PUSH2 0x1067 PUSH2 0xC07 JUMP JUMPDEST PUSH2 0x1028 JUMP JUMPDEST POP POP POP PUSH1 0x0 SWAP1 JUMP INVALID LOG2 PUSH5 0x6970667358 0x22 SLT KECCAK256 0xD4 PUSH28 0x524CD65BEDC03C05C9F2FE32073491F051AA2E8B8D7A4085DBD81D95 0xA8 RETURNDATASIZE PUSH5 0x736F6C6343 STOP ADDMOD 0xE STOP CALLER "
        },
        "methodIdentifiers": {
          "DOMAIN_SEPARATOR()": "3644e515",
          "PERMIT_TYPEHASH()": "30adf81f",
          "allowance(address,address)": "dd62ed3e",
          "approve(address,uint256)": "095ea7b3",
          "balanceOf(address)": "70a08231",
          "blockTransfer(bool)": "e074d6a9",
          "blocked()": "303bdd2c",
          "decimals()": "313ce567",
          "mint(address,uint256)": "40c10f19",
          "name()": "06fdde03",
          "noReturnData()": "1b243845",
          "nonces(address)": "7ecebe00",
          "permit(address,address,uint256,uint256,uint8,bytes32,bytes32)": "d505accf",
          "setNoReturnData(bool)": "cd1b5b71",
          "symbol()": "95d89b41",
          "totalSupply()": "18160ddd",
          "transfer(address,uint256)": "a9059cbb",
          "transferFrom(address,address,uint256)": "23b872dd"
        }
      }
    }
  }
}