{
  "abi": [
    {
      "inputs": [
        {
          "internalType": "bytes32",
          "name": "orderHash",
          "type": "bytes32"
        },
        {
          "internalType": "address",
          "name": "caller",
          "type": "address"
        },
        {
          "internalType": "address",
          "name": "offerer",
          "type": "address"
        },
        {
          "internalType": "bytes32",
          "name": "zoneHash",
          "type": "bytes32"
        }
      ],
      "name": "isValidOrder",
      "outputs": [
        {
          "internalType": "bytes4",
          "name": "validOrderMagicValue",
          "type": "bytes4"
        }
      ],
      "stateMutability": "pure",
      "type": "function"
    },
    {
      "inputs": [
        {
          "internalType": "bytes32",
          "name": "orderHash",
          "type": "bytes32"
        },
        {
          "internalType": "address",
          "name": "caller",
          "type": "address"
        },
        {
          "components": [
            {
              "components": [
                {
                  "internalType": "address",
                  "name": "offerer",
                  "type": "address"
                },
                {
                  "internalType": "address",
                  "name": "zone",
                  "type": "address"
                },
                {
                  "components": [
                    {
                      "internalType": "enum ItemType",
                      "name": "itemType",
                      "type": "uint8"
                    },
                    {
                      "internalType": "address",
                      "name": "token",
                      "type": "address"
                    },
                    {
                      "internalType": "uint256",
                      "name": "identifierOrCriteria",
                      "type": "uint256"
                    },
                    {
                      "internalType": "uint256",
                      "name": "startAmount",
                      "type": "uint256"
                    },
                    {
                      "internalType": "uint256",
                      "name": "endAmount",
                      "type": "uint256"
                    }
                  ],
                  "internalType": "struct OfferItem[]",
                  "name": "offer",
                  "type": "tuple[]"
                },
                {
                  "components": [
                    {
                      "internalType": "enum ItemType",
                      "name": "itemType",
                      "type": "uint8"
                    },
                    {
                      "internalType": "address",
                      "name": "token",
                      "type": "address"
                    },
                    {
                      "internalType": "uint256",
                      "name": "identifierOrCriteria",
                      "type": "uint256"
                    },
                    {
                      "internalType": "uint256",
                      "name": "startAmount",
                      "type": "uint256"
                    },
                    {
                      "internalType": "uint256",
                      "name": "endAmount",
                      "type": "uint256"
                    },
                    {
                      "internalType": "address payable",
                      "name": "recipient",
                      "type": "address"
                    }
                  ],
                  "internalType": "struct ConsiderationItem[]",
                  "name": "consideration",
                  "type": "tuple[]"
                },
                {
                  "internalType": "enum OrderType",
                  "name": "orderType",
                  "type": "uint8"
                },
                {
                  "internalType": "uint256",
                  "name": "startTime",
                  "type": "uint256"
                },
                {
                  "internalType": "uint256",
                  "name": "endTime",
                  "type": "uint256"
                },
                {
                  "internalType": "bytes32",
                  "name": "zoneHash",
                  "type": "bytes32"
                },
                {
                  "internalType": "uint256",
                  "name": "salt",
                  "type": "uint256"
                },
                {
                  "internalType": "bytes32",
                  "name": "conduitKey",
                  "type": "bytes32"
                },
                {
                  "internalType": "uint256",
                  "name": "totalOriginalConsiderationItems",
                  "type": "uint256"
                }
              ],
              "internalType": "struct OrderParameters",
              "name": "parameters",
              "type": "tuple"
            },
            {
              "internalType": "uint120",
              "name": "numerator",
              "type": "uint120"
            },
            {
              "internalType": "uint120",
              "name": "denominator",
              "type": "uint120"
            },
            {
              "internalType": "bytes",
              "name": "signature",
              "type": "bytes"
            },
            {
              "internalType": "bytes",
              "name": "extraData",
              "type": "bytes"
            }
          ],
          "internalType": "struct AdvancedOrder",
          "name": "order",
          "type": "tuple"
        },
        {
          "internalType": "bytes32[]",
          "name": "priorOrderHashes",
          "type": "bytes32[]"
        },
        {
          "components": [
            {
              "internalType": "uint256",
              "name": "orderIndex",
              "type": "uint256"
            },
            {
              "internalType": "enum Side",
              "name": "side",
              "type": "uint8"
            },
            {
              "internalType": "uint256",
              "name": "index",
              "type": "uint256"
            },
            {
              "internalType": "uint256",
              "name": "identifier",
              "type": "uint256"
            },
            {
              "internalType": "bytes32[]",
              "name": "criteriaProof",
              "type": "bytes32[]"
            }
          ],
          "internalType": "struct CriteriaResolver[]",
          "name": "criteriaResolvers",
          "type": "tuple[]"
        }
      ],
      "name": "isValidOrderIncludingExtraData",
      "outputs": [
        {
          "internalType": "bytes4",
          "name": "validOrderMagicValue",
          "type": "bytes4"
        }
      ],
      "stateMutability": "pure",
      "type": "function"
    }
  ],
  "bytecode": {
    "object": "0x608060405234801561001057600080fd5b50610511806100206000396000f3fe608060405234801561001057600080fd5b50600436106100365760003560e01c80630e1d31dc1461003b5780633313157014610083575b600080fd5b61004e6100493660046102f1565b610096565b6040517fffffffff00000000000000000000000000000000000000000000000000000000909116815260200160405180910390f35b61004e610091366004610381565b6101ca565b60007fffffffffffffffffffffffffffffffffffffffffffffffffffffffffffffffff8201610126576040517f08c379a000000000000000000000000000000000000000000000000000000000815260206004820152601560248201527f526576657274206f6e207a6f6e6520686173682031000000000000000000000060448201526064015b60405180910390fd5b7ffffffffffffffffffffffffffffffffffffffffffffffffffffffffffffffffe820161015257600080fd5b7ffffffffffffffffffffffffffffffffffffffffffffffffffffffffffffffffd820161019f577fffffffff000000000000000000000000000000000000000000000000000000006101c1565b7f0e1d31dc000000000000000000000000000000000000000000000000000000005b95945050505050565b60006101d96080870187610438565b9050600403610244576040517f08c379a000000000000000000000000000000000000000000000000000000000815260206004820152601c60248201527f526576657274206f6e20657874726144617461206c656e677468203400000000604482015260640161011d565b6102516080870187610438565b905060050361025f57600080fd5b600361026b878061049d565b60e001350361029a577fffffffff000000000000000000000000000000000000000000000000000000006102bc565b7f0e1d31dc000000000000000000000000000000000000000000000000000000005b98975050505050505050565b803573ffffffffffffffffffffffffffffffffffffffff811681146102ec57600080fd5b919050565b6000806000806080858703121561030757600080fd5b84359350610317602086016102c8565b9250610325604086016102c8565b9396929550929360600135925050565b60008083601f84011261034757600080fd5b50813567ffffffffffffffff81111561035f57600080fd5b6020830191508360208260051b850101111561037a57600080fd5b9250929050565b600080600080600080600060a0888a03121561039c57600080fd5b873596506103ac602089016102c8565b9550604088013567ffffffffffffffff808211156103c957600080fd5b9089019060a0828c0312156103dd57600080fd5b909550606089013590808211156103f357600080fd5b6103ff8b838c01610335565b909650945060808a013591508082111561041857600080fd5b506104258a828b01610335565b989b979a50959850939692959293505050565b60008083357fffffffffffffffffffffffffffffffffffffffffffffffffffffffffffffffe184360301811261046d57600080fd5b83018035915067ffffffffffffffff82111561048857600080fd5b60200191503681900382131561037a57600080fd5b600082357ffffffffffffffffffffffffffffffffffffffffffffffffffffffffffffffea18336030181126104d157600080fd5b919091019291505056fea2646970667358221220f421ceb98eca49418466d705380ca01e3a7fc0c9e93bd9ecbcf456c3f2a5888c64736f6c634300080e0033",
    "linkReferences": {}
  },
  "methodIdentifiers": {
    "isValidOrder(bytes32,address,address,bytes32)": "0e1d31dc",
    "isValidOrderIncludingExtraData(bytes32,address,((address,address,(uint8,address,uint256,uint256,uint256)[],(uint8,address,uint256,uint256,uint256,address)[],uint8,uint256,uint256,bytes32,uint256,bytes32,uint256),uint120,uint120,bytes,bytes),bytes32[],(uint256,uint8,uint256,uint256,bytes32[])[])": "33131570"
  },
  "id": 58
}