{
  "abi": [
    {
      "inputs": [
        {
          "internalType": "address",
          "name": "ownerAddress",
          "type": "address"
        }
      ],
      "stateMutability": "nonpayable",
      "type": "constructor"
    },
    {
      "inputs": [],
      "name": "CallerIsNotOperator",
      "type": "error"
    },
    {
      "inputs": [],
      "name": "CallerIsNotOwner",
      "type": "error"
    },
    {
      "inputs": [],
      "name": "CallerIsNotPotentialOwner",
      "type": "error"
    },
    {
      "inputs": [],
      "name": "InvalidController",
      "type": "error"
    },
    {
      "inputs": [],
      "name": "InvalidOperator",
      "type": "error"
    },
    {
      "inputs": [],
      "name": "InvalidPauser",
      "type": "error"
    },
    {
      "inputs": [],
      "name": "OwnerCanNotBeSetAsZero",
      "type": "error"
    },
    {
      "inputs": [],
      "name": "PauserCanNotBeSetAsZero",
      "type": "error"
    },
    {
      "inputs": [
        {
          "internalType": "address",
          "name": "zone",
          "type": "address"
        }
      ],
      "name": "ZoneAlreadyExists",
      "type": "error"
    },
    {
      "anonymous": false,
      "inputs": [
        {
          "indexed": false,
          "internalType": "address",
          "name": "newOperator",
          "type": "address"
        }
      ],
      "name": "OperatorUpdated",
      "type": "event"
    },
    {
      "anonymous": false,
      "inputs": [
        {
          "indexed": false,
          "internalType": "address",
          "name": "previousOwner",
          "type": "address"
        },
        {
          "indexed": false,
          "internalType": "address",
          "name": "newOwner",
          "type": "address"
        }
      ],
      "name": "OwnershipTransferred",
      "type": "event"
    },
    {
      "anonymous": false,
      "inputs": [],
      "name": "Paused",
      "type": "event"
    },
    {
      "anonymous": false,
      "inputs": [
        {
          "indexed": false,
          "internalType": "address",
          "name": "newPauser",
          "type": "address"
        }
      ],
      "name": "PauserUpdated",
      "type": "event"
    },
    {
      "anonymous": false,
      "inputs": [
        {
          "indexed": false,
          "internalType": "address",
          "name": "newPotentialOwner",
          "type": "address"
        }
      ],
      "name": "PotentialOwnerUpdated",
      "type": "event"
    },
    {
      "anonymous": false,
      "inputs": [],
      "name": "Unpaused",
      "type": "event"
    },
    {
      "anonymous": false,
      "inputs": [
        {
          "indexed": false,
          "internalType": "address",
          "name": "zone",
          "type": "address"
        },
        {
          "indexed": false,
          "internalType": "bytes32",
          "name": "salt",
          "type": "bytes32"
        }
      ],
      "name": "ZoneCreated",
      "type": "event"
    },
    {
      "inputs": [],
      "name": "acceptOwnership",
      "outputs": [],
      "stateMutability": "nonpayable",
      "type": "function"
    },
    {
      "inputs": [
        {
          "internalType": "address",
          "name": "pausableZoneAddress",
          "type": "address"
        },
        {
          "internalType": "address",
          "name": "operatorToAssign",
          "type": "address"
        }
      ],
      "name": "assignOperator",
      "outputs": [],
      "stateMutability": "nonpayable",
      "type": "function"
    },
    {
      "inputs": [
        {
          "internalType": "address",
          "name": "pauserToAssign",
          "type": "address"
        }
      ],
      "name": "assignPauser",
      "outputs": [],
      "stateMutability": "nonpayable",
      "type": "function"
    },
    {
      "inputs": [
        {
          "internalType": "address",
          "name": "pausableZoneAddress",
          "type": "address"
        },
        {
          "internalType": "contract SeaportInterface",
          "name": "seaportAddress",
          "type": "address"
        },
        {
          "components": [
            {
              "internalType": "address",
              "name": "offerer",
              "type": "address"
            },
            {
              "internalType": "address",
              "name": "zone",
              "type": "address"
            },
            {
              "components": [
                {
                  "internalType": "enum ItemType",
                  "name": "itemType",
                  "type": "uint8"
                },
                {
                  "internalType": "address",
                  "name": "token",
                  "type": "address"
                },
                {
                  "internalType": "uint256",
                  "name": "identifierOrCriteria",
                  "type": "uint256"
                },
                {
                  "internalType": "uint256",
                  "name": "startAmount",
                  "type": "uint256"
                },
                {
                  "internalType": "uint256",
                  "name": "endAmount",
                  "type": "uint256"
                }
              ],
              "internalType": "struct OfferItem[]",
              "name": "offer",
              "type": "tuple[]"
            },
            {
              "components": [
                {
                  "internalType": "enum ItemType",
                  "name": "itemType",
                  "type": "uint8"
                },
                {
                  "internalType": "address",
                  "name": "token",
                  "type": "address"
                },
                {
                  "internalType": "uint256",
                  "name": "identifierOrCriteria",
                  "type": "uint256"
                },
                {
                  "internalType": "uint256",
                  "name": "startAmount",
                  "type": "uint256"
                },
                {
                  "internalType": "uint256",
                  "name": "endAmount",
                  "type": "uint256"
                },
                {
                  "internalType": "address payable",
                  "name": "recipient",
                  "type": "address"
                }
              ],
              "internalType": "struct ConsiderationItem[]",
              "name": "consideration",
              "type": "tuple[]"
            },
            {
              "internalType": "enum OrderType",
              "name": "orderType",
              "type": "uint8"
            },
            {
              "internalType": "uint256",
              "name": "startTime",
              "type": "uint256"
            },
            {
              "internalType": "uint256",
              "name": "endTime",
              "type": "uint256"
            },
            {
              "internalType": "bytes32",
              "name": "zoneHash",
              "type": "bytes32"
            },
            {
              "internalType": "uint256",
              "name": "salt",
              "type": "uint256"
            },
            {
              "internalType": "bytes32",
              "name": "conduitKey",
              "type": "bytes32"
            },
            {
              "internalType": "uint256",
              "name": "counter",
              "type": "uint256"
            }
          ],
          "internalType": "struct OrderComponents[]",
          "name": "orders",
          "type": "tuple[]"
        }
      ],
      "name": "cancelOrders",
      "outputs": [],
      "stateMutability": "nonpayable",
      "type": "function"
    },
    {
      "inputs": [],
      "name": "cancelOwnershipTransfer",
      "outputs": [],
      "stateMutability": "nonpayable",
      "type": "function"
    },
    {
      "inputs": [
        {
          "internalType": "bytes32",
          "name": "salt",
          "type": "bytes32"
        }
      ],
      "name": "createZone",
      "outputs": [
        {
          "internalType": "address",
          "name": "derivedAddress",
          "type": "address"
        }
      ],
      "stateMutability": "nonpayable",
      "type": "function"
    },
    {
      "inputs": [
        {
          "internalType": "address",
          "name": "pausableZoneAddress",
          "type": "address"
        },
        {
          "internalType": "contract SeaportInterface",
          "name": "seaportAddress",
          "type": "address"
        },
        {
          "components": [
            {
              "components": [
                {
                  "internalType": "address",
                  "name": "offerer",
                  "type": "address"
                },
                {
                  "internalType": "address",
                  "name": "zone",
                  "type": "address"
                },
                {
                  "components": [
                    {
                      "internalType": "enum ItemType",
                      "name": "itemType",
                      "type": "uint8"
                    },
                    {
                      "internalType": "address",
                      "name": "token",
                      "type": "address"
                    },
                    {
                      "internalType": "uint256",
                      "name": "identifierOrCriteria",
                      "type": "uint256"
                    },
                    {
                      "internalType": "uint256",
                      "name": "startAmount",
                      "type": "uint256"
                    },
                    {
                      "internalType": "uint256",
                      "name": "endAmount",
                      "type": "uint256"
                    }
                  ],
                  "internalType": "struct OfferItem[]",
                  "name": "offer",
                  "type": "tuple[]"
                },
                {
                  "components": [
                    {
                      "internalType": "enum ItemType",
                      "name": "itemType",
                      "type": "uint8"
                    },
                    {
                      "internalType": "address",
                      "name": "token",
                      "type": "address"
                    },
                    {
                      "internalType": "uint256",
                      "name": "identifierOrCriteria",
                      "type": "uint256"
                    },
                    {
                      "internalType": "uint256",
                      "name": "startAmount",
                      "type": "uint256"
                    },
                    {
                      "internalType": "uint256",
                      "name": "endAmount",
                      "type": "uint256"
                    },
                    {
                      "internalType": "address payable",
                      "name": "recipient",
                      "type": "address"
                    }
                  ],
                  "internalType": "struct ConsiderationItem[]",
                  "name": "consideration",
                  "type": "tuple[]"
                },
                {
                  "internalType": "enum OrderType",
                  "name": "orderType",
                  "type": "uint8"
                },
                {
                  "internalType": "uint256",
                  "name": "startTime",
                  "type": "uint256"
                },
                {
                  "internalType": "uint256",
                  "name": "endTime",
                  "type": "uint256"
                },
                {
                  "internalType": "bytes32",
                  "name": "zoneHash",
                  "type": "bytes32"
                },
                {
                  "internalType": "uint256",
                  "name": "salt",
                  "type": "uint256"
                },
                {
                  "internalType": "bytes32",
                  "name": "conduitKey",
                  "type": "bytes32"
                },
                {
                  "internalType": "uint256",
                  "name": "totalOriginalConsiderationItems",
                  "type": "uint256"
                }
              ],
              "internalType": "struct OrderParameters",
              "name": "parameters",
              "type": "tuple"
            },
            {
              "internalType": "uint120",
              "name": "numerator",
              "type": "uint120"
            },
            {
              "internalType": "uint120",
              "name": "denominator",
              "type": "uint120"
            },
            {
              "internalType": "bytes",
              "name": "signature",
              "type": "bytes"
            },
            {
              "internalType": "bytes",
              "name": "extraData",
              "type": "bytes"
            }
          ],
          "internalType": "struct AdvancedOrder[]",
          "name": "orders",
          "type": "tuple[]"
        },
        {
          "components": [
            {
              "internalType": "uint256",
              "name": "orderIndex",
              "type": "uint256"
            },
            {
              "internalType": "enum Side",
              "name": "side",
              "type": "uint8"
            },
            {
              "internalType": "uint256",
              "name": "index",
              "type": "uint256"
            },
            {
              "internalType": "uint256",
              "name": "identifier",
              "type": "uint256"
            },
            {
              "internalType": "bytes32[]",
              "name": "criteriaProof",
              "type": "bytes32[]"
            }
          ],
          "internalType": "struct CriteriaResolver[]",
          "name": "criteriaResolvers",
          "type": "tuple[]"
        },
        {
          "components": [
            {
              "components": [
                {
                  "internalType": "uint256",
                  "name": "orderIndex",
                  "type": "uint256"
                },
                {
                  "internalType": "uint256",
                  "name": "itemIndex",
                  "type": "uint256"
                }
              ],
              "internalType": "struct FulfillmentComponent[]",
              "name": "offerComponents",
              "type": "tuple[]"
            },
            {
              "components": [
                {
                  "internalType": "uint256",
                  "name": "orderIndex",
                  "type": "uint256"
                },
                {
                  "internalType": "uint256",
                  "name": "itemIndex",
                  "type": "uint256"
                }
              ],
              "internalType": "struct FulfillmentComponent[]",
              "name": "considerationComponents",
              "type": "tuple[]"
            }
          ],
          "internalType": "struct Fulfillment[]",
          "name": "fulfillments",
          "type": "tuple[]"
        }
      ],
      "name": "executeMatchAdvancedOrders",
      "outputs": [
        {
          "components": [
            {
              "components": [
                {
                  "internalType": "enum ItemType",
                  "name": "itemType",
                  "type": "uint8"
                },
                {
                  "internalType": "address",
                  "name": "token",
                  "type": "address"
                },
                {
                  "internalType": "uint256",
                  "name": "identifier",
                  "type": "uint256"
                },
                {
                  "internalType": "uint256",
                  "name": "amount",
                  "type": "uint256"
                },
                {
                  "internalType": "address payable",
                  "name": "recipient",
                  "type": "address"
                }
              ],
              "internalType": "struct ReceivedItem",
              "name": "item",
              "type": "tuple"
            },
            {
              "internalType": "address",
              "name": "offerer",
              "type": "address"
            },
            {
              "internalType": "bytes32",
              "name": "conduitKey",
              "type": "bytes32"
            }
          ],
          "internalType": "struct Execution[]",
          "name": "executions",
          "type": "tuple[]"
        }
      ],
      "stateMutability": "payable",
      "type": "function"
    },
    {
      "inputs": [
        {
          "internalType": "address",
          "name": "pausableZoneAddress",
          "type": "address"
        },
        {
          "internalType": "contract SeaportInterface",
          "name": "seaportAddress",
          "type": "address"
        },
        {
          "components": [
            {
              "components": [
                {
                  "internalType": "address",
                  "name": "offerer",
                  "type": "address"
                },
                {
                  "internalType": "address",
                  "name": "zone",
                  "type": "address"
                },
                {
                  "components": [
                    {
                      "internalType": "enum ItemType",
                      "name": "itemType",
                      "type": "uint8"
                    },
                    {
                      "internalType": "address",
                      "name": "token",
                      "type": "address"
                    },
                    {
                      "internalType": "uint256",
                      "name": "identifierOrCriteria",
                      "type": "uint256"
                    },
                    {
                      "internalType": "uint256",
                      "name": "startAmount",
                      "type": "uint256"
                    },
                    {
                      "internalType": "uint256",
                      "name": "endAmount",
                      "type": "uint256"
                    }
                  ],
                  "internalType": "struct OfferItem[]",
                  "name": "offer",
                  "type": "tuple[]"
                },
                {
                  "components": [
                    {
                      "internalType": "enum ItemType",
                      "name": "itemType",
                      "type": "uint8"
                    },
                    {
                      "internalType": "address",
                      "name": "token",
                      "type": "address"
                    },
                    {
                      "internalType": "uint256",
                      "name": "identifierOrCriteria",
                      "type": "uint256"
                    },
                    {
                      "internalType": "uint256",
                      "name": "startAmount",
                      "type": "uint256"
                    },
                    {
                      "internalType": "uint256",
                      "name": "endAmount",
                      "type": "uint256"
                    },
                    {
                      "internalType": "address payable",
                      "name": "recipient",
                      "type": "address"
                    }
                  ],
                  "internalType": "struct ConsiderationItem[]",
                  "name": "consideration",
                  "type": "tuple[]"
                },
                {
                  "internalType": "enum OrderType",
                  "name": "orderType",
                  "type": "uint8"
                },
                {
                  "internalType": "uint256",
                  "name": "startTime",
                  "type": "uint256"
                },
                {
                  "internalType": "uint256",
                  "name": "endTime",
                  "type": "uint256"
                },
                {
                  "internalType": "bytes32",
                  "name": "zoneHash",
                  "type": "bytes32"
                },
                {
                  "internalType": "uint256",
                  "name": "salt",
                  "type": "uint256"
                },
                {
                  "internalType": "bytes32",
                  "name": "conduitKey",
                  "type": "bytes32"
                },
                {
                  "internalType": "uint256",
                  "name": "totalOriginalConsiderationItems",
                  "type": "uint256"
                }
              ],
              "internalType": "struct OrderParameters",
              "name": "parameters",
              "type": "tuple"
            },
            {
              "internalType": "bytes",
              "name": "signature",
              "type": "bytes"
            }
          ],
          "internalType": "struct Order[]",
          "name": "orders",
          "type": "tuple[]"
        },
        {
          "components": [
            {
              "components": [
                {
                  "internalType": "uint256",
                  "name": "orderIndex",
                  "type": "uint256"
                },
                {
                  "internalType": "uint256",
                  "name": "itemIndex",
                  "type": "uint256"
                }
              ],
              "internalType": "struct FulfillmentComponent[]",
              "name": "offerComponents",
              "type": "tuple[]"
            },
            {
              "components": [
                {
                  "internalType": "uint256",
                  "name": "orderIndex",
                  "type": "uint256"
                },
                {
                  "internalType": "uint256",
                  "name": "itemIndex",
                  "type": "uint256"
                }
              ],
              "internalType": "struct FulfillmentComponent[]",
              "name": "considerationComponents",
              "type": "tuple[]"
            }
          ],
          "internalType": "struct Fulfillment[]",
          "name": "fulfillments",
          "type": "tuple[]"
        }
      ],
      "name": "executeMatchOrders",
      "outputs": [
        {
          "components": [
            {
              "components": [
                {
                  "internalType": "enum ItemType",
                  "name": "itemType",
                  "type": "uint8"
                },
                {
                  "internalType": "address",
                  "name": "token",
                  "type": "address"
                },
                {
                  "internalType": "uint256",
                  "name": "identifier",
                  "type": "uint256"
                },
                {
                  "internalType": "uint256",
                  "name": "amount",
                  "type": "uint256"
                },
                {
                  "internalType": "address payable",
                  "name": "recipient",
                  "type": "address"
                }
              ],
              "internalType": "struct ReceivedItem",
              "name": "item",
              "type": "tuple"
            },
            {
              "internalType": "address",
              "name": "offerer",
              "type": "address"
            },
            {
              "internalType": "bytes32",
              "name": "conduitKey",
              "type": "bytes32"
            }
          ],
          "internalType": "struct Execution[]",
          "name": "executions",
          "type": "tuple[]"
        }
      ],
      "stateMutability": "payable",
      "type": "function"
    },
    {
      "inputs": [],
      "name": "owner",
      "outputs": [
        {
          "internalType": "address",
          "name": "",
          "type": "address"
        }
      ],
      "stateMutability": "view",
      "type": "function"
    },
    {
      "inputs": [
        {
          "internalType": "address",
          "name": "zone",
          "type": "address"
        }
      ],
      "name": "pause",
      "outputs": [
        {
          "internalType": "bool",
          "name": "success",
          "type": "bool"
        }
      ],
      "stateMutability": "nonpayable",
      "type": "function"
    },
    {
      "inputs": [],
      "name": "pauser",
      "outputs": [
        {
          "internalType": "address",
          "name": "",
          "type": "address"
        }
      ],
      "stateMutability": "view",
      "type": "function"
    },
    {
      "inputs": [],
      "name": "potentialOwner",
      "outputs": [
        {
          "internalType": "address",
          "name": "",
          "type": "address"
        }
      ],
      "stateMutability": "view",
      "type": "function"
    },
    {
      "inputs": [
        {
          "internalType": "address",
          "name": "newPotentialOwner",
          "type": "address"
        }
      ],
      "name": "transferOwnership",
      "outputs": [],
      "stateMutability": "nonpayable",
      "type": "function"
    },
    {
      "inputs": [],
      "name": "zoneCreationCode",
      "outputs": [
        {
          "internalType": "bytes32",
          "name": "",
          "type": "bytes32"
        }
      ],
      "stateMutability": "view",
      "type": "function"
    }
  ],
  "bytecode": {
    "object": "0x60a06040523480156200001157600080fd5b506040516200502738038062005027833981016040819052620000349162000094565b600080546001600160a01b0319166001600160a01b038316179055604051620000606020820162000086565b601f1982820381018352601f9091011660405280516020919091012060805250620000c6565b61188e806200379983390190565b600060208284031215620000a757600080fd5b81516001600160a01b0381168114620000bf57600080fd5b9392505050565b6080516136b0620000e960003960008181610179015261058301526136b06000f3fe6080604052600436106100dd5760003560e01c80638da5cb5b1161007f578063d6f3b11011610059578063d6f3b11014610282578063dcd5b13e146102a2578063f2fde38b146102c2578063f7e4aac6146102e257600080fd5b80638da5cb5b146102195780639fd0506d14610244578063b44f66081461026f57600080fd5b80637242512f116100bb5780637242512f1461016757806376a67a51146101a95780637762df25146101d957806379ba50971461020457600080fd5b806323452b9c146100e257806340ddc788146100f957806346b3ce9f14610122575b600080fd5b3480156100ee57600080fd5b506100f7610302565b005b61010c610107366004610ec5565b6103b1565b6040516101199190610f9d565b60405180910390f35b34801561012e57600080fd5b5061014261013d366004611043565b6104d4565b60405173ffffffffffffffffffffffffffffffffffffffff9091168152602001610119565b34801561017357600080fd5b5061019b7f000000000000000000000000000000000000000000000000000000000000000081565b604051908152602001610119565b3480156101b557600080fd5b506101c96101c436600461105c565b6106cf565b6040519015158152602001610119565b3480156101e557600080fd5b5060015473ffffffffffffffffffffffffffffffffffffffff16610142565b34801561021057600080fd5b506100f76107d0565b34801561022557600080fd5b5060005473ffffffffffffffffffffffffffffffffffffffff16610142565b34801561025057600080fd5b5060025473ffffffffffffffffffffffffffffffffffffffff16610142565b61010c61027d366004611080565b6108fb565b34801561028e57600080fd5b506100f761029d36600461113f565b610a24565b3480156102ae57600080fd5b506100f76102bd36600461105c565b610b18565b3480156102ce57600080fd5b506100f76102dd36600461105c565b610c2f565b3480156102ee57600080fd5b506100f76102fd3660046111a4565b610d5d565b60005473ffffffffffffffffffffffffffffffffffffffff163314610353576040517f6db2465f00000000000000000000000000000000000000000000000000000000815260040160405180910390fd5b604051600081527f11a3cf439fb225bfe74225716b6774765670ec1060e3796802e62139d69974da9060200160405180910390a1600180547fffffffffffffffffffffffff0000000000000000000000000000000000000000169055565b60005460609073ffffffffffffffffffffffffffffffffffffffff163314610405576040517f6db2465f00000000000000000000000000000000000000000000000000000000815260040160405180910390fd5b6040517f2718034d000000000000000000000000000000000000000000000000000000008152879073ffffffffffffffffffffffffffffffffffffffff821690632718034d903490610463908b908b908b908b908b90600401611741565b60006040518083038185885af1158015610481573d6000803e3d6000fd5b50505050506040513d6000823e601f3d9081017fffffffffffffffffffffffffffffffffffffffffffffffffffffffffffffffe01682016040526104c891908101906118f9565b98975050505050505050565b6000805473ffffffffffffffffffffffffffffffffffffffff163314610526576040517f6db2465f00000000000000000000000000000000000000000000000000000000815260040160405180910390fd5b6040517fff0000000000000000000000000000000000000000000000000000000000000060208201527fffffffffffffffffffffffffffffffffffffffff0000000000000000000000003060601b166021820152603581018390527f00000000000000000000000000000000000000000000000000000000000000006055820152607501604080517fffffffffffffffffffffffffffffffffffffffffffffffffffffffffffffffe08184030181529190528051602090910120905073ffffffffffffffffffffffffffffffffffffffff81163b1561064c576040517e83438500000000000000000000000000000000000000000000000000000000815273ffffffffffffffffffffffffffffffffffffffff8216600482015260240160405180910390fd5b8160405161065990610e37565b8190604051809103906000f5905080158015610679573d6000803e3d6000fd5b50506040805173ffffffffffffffffffffffffffffffffffffffff83168152602081018490527fd1fa916c9f898e9a8dcedb0f78093657d07014799896193f2b219bed6ac7399c910160405180910390a1919050565b60025460009073ffffffffffffffffffffffffffffffffffffffff163314801590610712575060005473ffffffffffffffffffffffffffffffffffffffff163314155b15610749576040517fc726084300000000000000000000000000000000000000000000000000000000815260040160405180910390fd5b6040517f76a67a5100000000000000000000000000000000000000000000000000000000815233600482015273ffffffffffffffffffffffffffffffffffffffff8316906376a67a5190602401600060405180830381600087803b1580156107b057600080fd5b505af11580156107c4573d6000803e3d6000fd5b50600195945050505050565b60015473ffffffffffffffffffffffffffffffffffffffff163314610821576040517f1ff958b600000000000000000000000000000000000000000000000000000000815260040160405180910390fd5b604051600081527f11a3cf439fb225bfe74225716b6774765670ec1060e3796802e62139d69974da9060200160405180910390a1600180547fffffffffffffffffffffffff00000000000000000000000000000000000000001690556000546040805173ffffffffffffffffffffffffffffffffffffffff90921682523360208301527f8be0079c531659141344cd1fd0a4f28419497f9722a3daafe3b4186f6b6457e0910160405180910390a1600080547fffffffffffffffffffffffff00000000000000000000000000000000000000001633179055565b60005460609073ffffffffffffffffffffffffffffffffffffffff16331461094f576040517f6db2465f00000000000000000000000000000000000000000000000000000000815260040160405180910390fd5b6040517f65c4eb72000000000000000000000000000000000000000000000000000000008152899073ffffffffffffffffffffffffffffffffffffffff8216906365c4eb729034906109b1908d908d908d908d908d908d908d90600401611bd3565b60006040518083038185885af11580156109cf573d6000803e3d6000fd5b50505050506040513d6000823e601f3d9081017fffffffffffffffffffffffffffffffffffffffffffffffffffffffffffffffe0168201604052610a1691908101906118f9565b9a9950505050505050505050565b60005473ffffffffffffffffffffffffffffffffffffffff163314610a75576040517f6db2465f00000000000000000000000000000000000000000000000000000000815260040160405180910390fd5b6040517fe5c27af1000000000000000000000000000000000000000000000000000000008152849073ffffffffffffffffffffffffffffffffffffffff82169063e5c27af190610acd90879087908790600401611d28565b6020604051808303816000875af1158015610aec573d6000803e3d6000fd5b505050506040513d601f19601f82011682018060405250810190610b109190611dca565b505050505050565b60005473ffffffffffffffffffffffffffffffffffffffff163314610b69576040517f6db2465f00000000000000000000000000000000000000000000000000000000815260040160405180910390fd5b73ffffffffffffffffffffffffffffffffffffffff8116610bb6576040517f5384e6f500000000000000000000000000000000000000000000000000000000815260040160405180910390fd5b600280547fffffffffffffffffffffffff00000000000000000000000000000000000000001673ffffffffffffffffffffffffffffffffffffffff83169081179091556040519081527fa4336c0cb1e245b95ad204faed7e940d6dc999684fd8b5e1ff597a0c4efca8ab9060200160405180910390a150565b60005473ffffffffffffffffffffffffffffffffffffffff163314610c80576040517f6db2465f00000000000000000000000000000000000000000000000000000000815260040160405180910390fd5b73ffffffffffffffffffffffffffffffffffffffff8116610ccd576040517fda72ecf900000000000000000000000000000000000000000000000000000000815260040160405180910390fd5b60405173ffffffffffffffffffffffffffffffffffffffff821681527f11a3cf439fb225bfe74225716b6774765670ec1060e3796802e62139d69974da9060200160405180910390a1600180547fffffffffffffffffffffffff00000000000000000000000000000000000000001673ffffffffffffffffffffffffffffffffffffffff92909216919091179055565b60005473ffffffffffffffffffffffffffffffffffffffff163314610dae576040517f6db2465f00000000000000000000000000000000000000000000000000000000815260040160405180910390fd5b6040517f84385c6f00000000000000000000000000000000000000000000000000000000815273ffffffffffffffffffffffffffffffffffffffff82811660048301528391908216906384385c6f90602401600060405180830381600087803b158015610e1a57600080fd5b505af1158015610e2e573d6000803e3d6000fd5b50505050505050565b61188e80611ded83390190565b73ffffffffffffffffffffffffffffffffffffffff81168114610e6657600080fd5b50565b8035610e7481610e44565b919050565b60008083601f840112610e8b57600080fd5b50813567ffffffffffffffff811115610ea357600080fd5b6020830191508360208260051b8501011115610ebe57600080fd5b9250929050565b60008060008060008060808789031215610ede57600080fd5b8635610ee981610e44565b95506020870135610ef981610e44565b9450604087013567ffffffffffffffff80821115610f1657600080fd5b610f228a838b01610e79565b90965094506060890135915080821115610f3b57600080fd5b50610f4889828a01610e79565b979a9699509497509295939492505050565b7f4e487b7100000000000000000000000000000000000000000000000000000000600052602160045260246000fd5b60068110610f9957610f99610f5a565b9052565b602080825282518282018190526000919060409081850190868401855b828110156110365781518051610fd1868251610f89565b8088015173ffffffffffffffffffffffffffffffffffffffff908116878a0152878201518888015260608083015190880152608091820151811691870191909152818801511660a086015285015160c085015260e09093019290850190600101610fba565b5091979650505050505050565b60006020828403121561105557600080fd5b5035919050565b60006020828403121561106e57600080fd5b813561107981610e44565b9392505050565b60008060008060008060008060a0898b03121561109c57600080fd5b88356110a781610e44565b975060208901356110b781610e44565b9650604089013567ffffffffffffffff808211156110d457600080fd5b6110e08c838d01610e79565b909850965060608b01359150808211156110f957600080fd5b6111058c838d01610e79565b909650945060808b013591508082111561111e57600080fd5b5061112b8b828c01610e79565b999c989b5096995094979396929594505050565b6000806000806060858703121561115557600080fd5b843561116081610e44565b9350602085013561117081610e44565b9250604085013567ffffffffffffffff81111561118c57600080fd5b61119887828801610e79565b95989497509550505050565b600080604083850312156111b757600080fd5b82356111c281610e44565b915060208301356111d281610e44565b809150509250929050565b600082357ffffffffffffffffffffffffffffffffffffffffffffffffffffffffffffffea183360301811261121157600080fd5b90910192915050565b60008083357fffffffffffffffffffffffffffffffffffffffffffffffffffffffffffffffe184360301811261124f57600080fd5b830160208101925035905067ffffffffffffffff81111561126f57600080fd5b60a081023603821315610ebe57600080fd5b60068110610e6657600080fd5b8183526000602080850194508260005b858110156113135781356112b181611281565b6112bb8882610f89565b50828201356112c981610e44565b73ffffffffffffffffffffffffffffffffffffffff168784015260408281013590880152606080830135908801526080808301359088015260a0968701969091019060010161129e565b509495945050505050565b60008083357fffffffffffffffffffffffffffffffffffffffffffffffffffffffffffffffe184360301811261135357600080fd5b830160208101925035905067ffffffffffffffff81111561137357600080fd5b60c081023603821315610ebe57600080fd5b8183526000602080850194508260005b858110156113135781356113a881611281565b6113b28882610f89565b50828201356113c081610e44565b73ffffffffffffffffffffffffffffffffffffffff9081168885015260408381013590890152606080840135908901526080808401359089015260a0908184013561140a81610e44565b169088015260c0968701969190910190600101611395565b803560048110610e7457600080fd5b60048110610f9957610f99610f5a565b600061016061146d8461145385610e69565b73ffffffffffffffffffffffffffffffffffffffff169052565b61147960208401610e69565b73ffffffffffffffffffffffffffffffffffffffff1660208501526114a1604084018461121a565b8260408701526114b4838701828461128e565b925050506114c5606084018461131e565b85830360608701526114d8838284611385565b925050506114e860808401611422565b6114f56080860182611431565b5060a0838101359085015260c0808401359085015260e08084013590850152610100808401359085015261012080840135908501526101409283013592909301919091525090565b60008083357fffffffffffffffffffffffffffffffffffffffffffffffffffffffffffffffe184360301811261157257600080fd5b830160208101925035905067ffffffffffffffff81111561159257600080fd5b803603821315610ebe57600080fd5b8183528181602085013750600060208284010152600060207fffffffffffffffffffffffffffffffffffffffffffffffffffffffffffffffe0601f840116840101905092915050565b600082357fffffffffffffffffffffffffffffffffffffffffffffffffffffffffffffffc183360301811261121157600080fd5b60008083357fffffffffffffffffffffffffffffffffffffffffffffffffffffffffffffffe184360301811261165357600080fd5b830160208101925035905067ffffffffffffffff81111561167357600080fd5b8060061b3603821315610ebe57600080fd5b8183526000602080850194508260005b858110156113135781358752828201358388015260409687019690910190600101611695565b81835260006020808501808196508560051b810191508460005b878110156110365782840389526116ec82886115ea565b60406116f8828361161e565b8288526117088389018284611685565b925050506117188783018361161e565b92508682038888015261172c828483611685565b9b88019b9650505091850191506001016116d5565b60006060820173ffffffffffffffffffffffffffffffffffffffff8816835260206060818501528187835260808501905060808860051b86010192508860005b8981101561180d577fffffffffffffffffffffffffffffffffffffffffffffffffffffffffffffff808786030183526117ba828c6115ea565b60406117c682836111dd565b8188526117d582890182611441565b9150506117e48683018361153d565b9250878203878901526117f88284836115a1565b97505050928401925090830190600101611781565b5050505082810360408401526104c88185876116bb565b7f4e487b7100000000000000000000000000000000000000000000000000000000600052604160045260246000fd5b6040516060810167ffffffffffffffff8111828210171561187657611876611824565b60405290565b60405160a0810167ffffffffffffffff8111828210171561187657611876611824565b604051601f82017fffffffffffffffffffffffffffffffffffffffffffffffffffffffffffffffe016810167ffffffffffffffff811182821017156118e6576118e6611824565b604052919050565b8051610e7481610e44565b6000602080838503121561190c57600080fd5b825167ffffffffffffffff8082111561192457600080fd5b818501915085601f83011261193857600080fd5b81518181111561194a5761194a611824565b611958848260051b0161189f565b818152848101925060e091820284018501918883111561197757600080fd5b938501935b82851015611a2857848903818112156119955760008081fd5b61199d611853565b60a0808312156119ad5760008081fd5b6119b561187c565b925087516119c281611281565b8352878901516119d181610e44565b838a0152604088810151818501526060808a0151908501526080808a01516119f881610e44565b90850152838352611a0a8983016118ee565b838b015260c08901519083015250855250938401939285019261197c565b50979650505050505050565b80356effffffffffffffffffffffffffffff81168114610e7457600080fd5b600082357fffffffffffffffffffffffffffffffffffffffffffffffffffffffffffffff6183360301811261121157600080fd5b81835260007f07ffffffffffffffffffffffffffffffffffffffffffffffffffffffffffffff831115611ab957600080fd5b8260051b8083602087013760009401602001938452509192915050565b81835260006020808501808196506005915085821b81018560005b88811015611bc5578383038a52611b088289611a53565b60a0813585528782013560028110611b1f57600080fd5b858901526040828101359086015260608083013590860152608080830135368490037fffffffffffffffffffffffffffffffffffffffffffffffffffffffffffffffe1018112611b6e57600080fd5b90920188810192903567ffffffffffffffff811115611b8c57600080fd5b80891b3603841315611b9d57600080fd5b8282880152611baf8388018286611a87565b9d8a019d96505050928701925050600101611af1565b509098975050505050505050565b60006080820173ffffffffffffffffffffffffffffffffffffffff8a16835260206080818501528189835260a092508285019050828a60051b8601018b60005b8c811015611cfb577fffffffffffffffffffffffffffffffffffffffffffffffffffffffffffffff60888403018452611c4c828f611a53565b611c5681826111dd565b878552611c6588860182611441565b9050611c72878301611a34565b6effffffffffffffffffffffffffffff9081168689015260409080611c98858401611a34565b168288015250506060611cad8184018461153d565b87840383890152611cbf8482846115a1565b9350505050611cd1608083018361153d565b92508582036080870152611ce68284836115a1565b96880196955050509185019150600101611c13565b50508581036040870152611d10818a8c611ad6565b93505050508281036060840152610a168185876116bb565b60006040820173ffffffffffffffffffffffffffffffffffffffff8616835260206040818501528185835260608501905060608660051b86010192508660005b87811015611dbc577fffffffffffffffffffffffffffffffffffffffffffffffffffffffffffffffa0878603018352611daa85611da5848c6111dd565b611441565b94509183019190830190600101611d68565b509298975050505050505050565b600060208284031215611ddc57600080fd5b8151801515811461107957600080fdfe60a060405234801561001057600080fd5b50336080526040517fa45f47fdea8a1efdd9029a5691c7f759c32b7c698632b563573e155625d1693390600090a160805161181961007560003960008181610276015281816103d701528181610518015281816105c9015261072201526118196000f3fe60806040526004361061007b5760003560e01c806365c4eb721161004e57806365c4eb72146101b357806376a67a51146101c657806384385c6f146101e8578063e5c27af11461020857600080fd5b80630e1d31dc146100805780632718034d146100fa578063331315701461011a578063570ca73514610161575b600080fd5b34801561008c57600080fd5b506100c461009b366004610850565b507f0e1d31dc000000000000000000000000000000000000000000000000000000009392505050565b6040517fffffffff0000000000000000000000000000000000000000000000000000000090911681526020015b60405180910390f35b61010d6101083660046108e4565b610238565b6040516100f191906109aa565b34801561012657600080fd5b506100c4610135366004610a50565b507f0e1d31dc000000000000000000000000000000000000000000000000000000009695505050505050565b34801561016d57600080fd5b5060005461018e9073ffffffffffffffffffffffffffffffffffffffff1681565b60405173ffffffffffffffffffffffffffffffffffffffff90911681526020016100f1565b61010d6101c1366004610b09565b610399565b3480156101d257600080fd5b506101e66101e1366004610b96565b610500565b005b3480156101f457600080fd5b506101e6610203366004610b96565b6105b1565b34801561021457600080fd5b50610228610223366004610bba565b6106e6565b60405190151581526020016100f1565b60005460609073ffffffffffffffffffffffffffffffffffffffff16331480159061029957503373ffffffffffffffffffffffffffffffffffffffff7f00000000000000000000000000000000000000000000000000000000000000001614155b156102d0576040517fccea9e6f00000000000000000000000000000000000000000000000000000000815260040160405180910390fd5b6040517fa817440400000000000000000000000000000000000000000000000000000000815273ffffffffffffffffffffffffffffffffffffffff87169063a817440490349061032a90899089908990899060040161117d565b60006040518083038185885af1158015610348573d6000803e3d6000fd5b50505050506040513d6000823e601f3d9081017fffffffffffffffffffffffffffffffffffffffffffffffffffffffffffffffe016820160405261038f9190810190611313565b9695505050505050565b60005460609073ffffffffffffffffffffffffffffffffffffffff1633148015906103fa57503373ffffffffffffffffffffffffffffffffffffffff7f00000000000000000000000000000000000000000000000000000000000000001614155b15610431576040517fccea9e6f00000000000000000000000000000000000000000000000000000000815260040160405180910390fd5b6040517f55944a4200000000000000000000000000000000000000000000000000000000815273ffffffffffffffffffffffffffffffffffffffff8916906355944a4290349061048f908b908b908b908b908b908b9060040161160c565b60006040518083038185885af11580156104ad573d6000803e3d6000fd5b50505050506040513d6000823e601f3d9081017fffffffffffffffffffffffffffffffffffffffffffffffffffffffffffffffe01682016040526104f49190810190611313565b98975050505050505050565b3373ffffffffffffffffffffffffffffffffffffffff7f0000000000000000000000000000000000000000000000000000000000000000161461056f576040517f6d5769be00000000000000000000000000000000000000000000000000000000815260040160405180910390fd5b6040517f9e87fac88ff661f02d44f95383c817fece4bce600a3dab7a54406878b965e75290600090a18073ffffffffffffffffffffffffffffffffffffffff16ff5b3373ffffffffffffffffffffffffffffffffffffffff7f00000000000000000000000000000000000000000000000000000000000000001614610620576040517f6d5769be00000000000000000000000000000000000000000000000000000000815260040160405180910390fd5b73ffffffffffffffffffffffffffffffffffffffff811661066d576040517fd0769d8e00000000000000000000000000000000000000000000000000000000815260040160405180910390fd5b600080547fffffffffffffffffffffffff00000000000000000000000000000000000000001673ffffffffffffffffffffffffffffffffffffffff83169081179091556040519081527fb3b3f5f64ab192e4b5fefde1f51ce9733bbdcf831951543b325aebd49cc27ec49060200160405180910390a150565b6000805473ffffffffffffffffffffffffffffffffffffffff16331480159061074557503373ffffffffffffffffffffffffffffffffffffffff7f00000000000000000000000000000000000000000000000000000000000000001614155b1561077c576040517fccea9e6f00000000000000000000000000000000000000000000000000000000815260040160405180910390fd5b6040517ffd9f1e1000000000000000000000000000000000000000000000000000000000815273ffffffffffffffffffffffffffffffffffffffff85169063fd9f1e10906107d0908690869060040161174e565b6020604051808303816000875af11580156107ef573d6000803e3d6000fd5b505050506040513d601f19601f8201168201806040525081019061081391906117c1565b949350505050565b73ffffffffffffffffffffffffffffffffffffffff8116811461083d57600080fd5b50565b803561084b8161081b565b919050565b6000806000806080858703121561086657600080fd5b8435935060208501356108788161081b565b925060408501356108888161081b565b9396929550929360600135925050565b60008083601f8401126108aa57600080fd5b50813567ffffffffffffffff8111156108c257600080fd5b6020830191508360208260051b85010111156108dd57600080fd5b9250929050565b6000806000806000606086880312156108fc57600080fd5b85356109078161081b565b9450602086013567ffffffffffffffff8082111561092457600080fd5b61093089838a01610898565b9096509450604088013591508082111561094957600080fd5b5061095688828901610898565b969995985093965092949392505050565b7f4e487b7100000000000000000000000000000000000000000000000000000000600052602160045260246000fd5b600681106109a6576109a6610967565b9052565b602080825282518282018190526000919060409081850190868401855b82811015610a4357815180516109de868251610996565b8088015173ffffffffffffffffffffffffffffffffffffffff908116878a0152878201518888015260608083015190880152608091820151811691870191909152818801511660a086015285015160c085015260e090930192908501906001016109c7565b5091979650505050505050565b600080600080600080600060a0888a031215610a6b57600080fd5b873596506020880135610a7d8161081b565b9550604088013567ffffffffffffffff80821115610a9a57600080fd5b9089019060a0828c031215610aae57600080fd5b90955060608901359080821115610ac457600080fd5b610ad08b838c01610898565b909650945060808a0135915080821115610ae957600080fd5b50610af68a828b01610898565b989b979a50959850939692959293505050565b60008060008060008060006080888a031215610b2457600080fd5b8735610b2f8161081b565b9650602088013567ffffffffffffffff80821115610b4c57600080fd5b610b588b838c01610898565b909850965060408a0135915080821115610b7157600080fd5b610b7d8b838c01610898565b909650945060608a0135915080821115610ae957600080fd5b600060208284031215610ba857600080fd5b8135610bb38161081b565b9392505050565b600080600060408486031215610bcf57600080fd5b8335610bda8161081b565b9250602084013567ffffffffffffffff811115610bf657600080fd5b610c0286828701610898565b9497909650939450505050565b600082357ffffffffffffffffffffffffffffffffffffffffffffffffffffffffffffffea1833603018112610c4357600080fd5b90910192915050565b60008083357fffffffffffffffffffffffffffffffffffffffffffffffffffffffffffffffe1843603018112610c8157600080fd5b830160208101925035905067ffffffffffffffff811115610ca157600080fd5b60a0810236038213156108dd57600080fd5b6006811061083d57600080fd5b8183526000602080850194508260005b85811015610d45578135610ce381610cb3565b610ced8882610996565b5082820135610cfb8161081b565b73ffffffffffffffffffffffffffffffffffffffff168784015260408281013590880152606080830135908801526080808301359088015260a09687019690910190600101610cd0565b509495945050505050565b60008083357fffffffffffffffffffffffffffffffffffffffffffffffffffffffffffffffe1843603018112610d8557600080fd5b830160208101925035905067ffffffffffffffff811115610da557600080fd5b60c0810236038213156108dd57600080fd5b8183526000602080850194508260005b85811015610d45578135610dda81610cb3565b610de48882610996565b5082820135610df28161081b565b73ffffffffffffffffffffffffffffffffffffffff9081168885015260408381013590890152606080840135908901526080808401359089015260a09081840135610e3c8161081b565b169088015260c0968701969190910190600101610dc7565b80356004811061084b57600080fd5b600481106109a6576109a6610967565b6000610160610e9f84610e8585610840565b73ffffffffffffffffffffffffffffffffffffffff169052565b610eab60208401610840565b73ffffffffffffffffffffffffffffffffffffffff166020850152610ed36040840184610c4c565b826040870152610ee68387018284610cc0565b92505050610ef76060840184610d50565b8583036060870152610f0a838284610db7565b92505050610f1a60808401610e54565b610f276080860182610e63565b5060a0838101359085015260c0808401359085015260e08084013590850152610100808401359085015261012080840135908501526101409283013592909301919091525090565b60008083357fffffffffffffffffffffffffffffffffffffffffffffffffffffffffffffffe1843603018112610fa457600080fd5b830160208101925035905067ffffffffffffffff811115610fc457600080fd5b8036038213156108dd57600080fd5b8183528181602085013750600060208284010152600060207fffffffffffffffffffffffffffffffffffffffffffffffffffffffffffffffe0601f840116840101905092915050565b600082357fffffffffffffffffffffffffffffffffffffffffffffffffffffffffffffffc1833603018112610c4357600080fd5b60008083357fffffffffffffffffffffffffffffffffffffffffffffffffffffffffffffffe184360301811261108557600080fd5b830160208101925035905067ffffffffffffffff8111156110a557600080fd5b8060061b36038213156108dd57600080fd5b8183526000602080850194508260005b85811015610d4557813587528282013583880152604096870196909101906001016110c7565b818352600060208085019450848460051b86018460005b8781101561117057838303895261111b828861101c565b60406111278283611050565b82875261113783880182846110b7565b9250505061114787830183611050565b92508582038887015261115b8284836110b7565b9b88019b955050509185019150600101611104565b5090979650505050505050565b60408082528181018590526000906060600587901b8401810190840188845b89811015611228577fffffffffffffffffffffffffffffffffffffffffffffffffffffffffffffffa08785030183526111d5828c61101c565b6111df8182610c0f565b8686526111ee87870182610e73565b905060206111fe81840184610f6f565b935087830382890152611212838583610fd3565b975050948501949390930192505060010161119c565b50505083810360208501526104f48186886110ed565b7f4e487b7100000000000000000000000000000000000000000000000000000000600052604160045260246000fd5b6040516060810167ffffffffffffffff811182821017156112905761129061123e565b60405290565b60405160a0810167ffffffffffffffff811182821017156112905761129061123e565b604051601f82017fffffffffffffffffffffffffffffffffffffffffffffffffffffffffffffffe016810167ffffffffffffffff811182821017156113005761130061123e565b604052919050565b805161084b8161081b565b6000602080838503121561132657600080fd5b825167ffffffffffffffff8082111561133e57600080fd5b818501915085601f83011261135257600080fd5b8151818111156113645761136461123e565b611372848260051b016112b9565b818152848101925060e091820284018501918883111561139157600080fd5b938501935b8285101561144257848903818112156113af5760008081fd5b6113b761126d565b60a0808312156113c75760008081fd5b6113cf611296565b925087516113dc81610cb3565b8352878901516113eb8161081b565b838a0152604088810151818501526060808a0151908501526080808a01516114128161081b565b90850152838352611424898301611308565b838b015260c089015190830152508552509384019392850192611396565b50979650505050505050565b80356effffffffffffffffffffffffffffff8116811461084b57600080fd5b600082357fffffffffffffffffffffffffffffffffffffffffffffffffffffffffffffff61833603018112610c4357600080fd5b81835260007f07ffffffffffffffffffffffffffffffffffffffffffffffffffffffffffffff8311156114d357600080fd5b8260051b8083602087013760009401602001938452509192915050565b818352602080840193600091600585811b8301820185855b888110156115fe577fffffffffffffffffffffffffffffffffffffffffffffffffffffffffffffffe0868403018a52611541828961146d565b60a081358552868201356002811061155857600080fd5b858801526040828101359086015260608083013590860152608080830135368490037fffffffffffffffffffffffffffffffffffffffffffffffffffffffffffffffe10181126115a757600080fd5b90920187810192903567ffffffffffffffff8111156115c557600080fd5b80881b36038413156115d657600080fd5b82828801526115e883880182866114a1565b9d89019d96505050928601925050600101611508565b509098975050505050505050565b6060808252818101879052600090608080840160058a901b850182018b855b8c811015611714577fffffffffffffffffffffffffffffffffffffffffffffffffffffffffffffff80888403018452611664828f61146d565b60a06116708283610c0f565b81865261167f82870182610e73565b915050602061168f81840161144e565b6effffffffffffffffffffffffffffff90811687830152604090806116b586840161144e565b168289015250506116c889840184610f6f565b8784038b8901526116da848284610fd3565b935050506116ea88840184610f6f565b9350868303898801526116fe838583610fd3565b978201979650509390930192505060010161162b565b50508581036020870152611729818a8c6114f0565b935050505082810360408401526117418185876110ed565b9998505050505050505050565b60208082528181018390526000906040600585901b8401810190840186845b87811015610a43577fffffffffffffffffffffffffffffffffffffffffffffffffffffffffffffffc08785030183526117af846117aa848c610c0f565b610e73565b9350918401919084019060010161176d565b6000602082840312156117d357600080fd5b81518015158114610bb357600080fdfea2646970667358221220c5f187cc817a02f98f5bbe1c970fe690696f52fb9b430e4b7cdc1128a337e69964736f6c634300080e0033a26469706673582212208675be781266aaf6f28c745cc96c7d3f87ae32975cad048577b327254168dedd64736f6c634300080e003360a060405234801561001057600080fd5b50336080526040517fa45f47fdea8a1efdd9029a5691c7f759c32b7c698632b563573e155625d1693390600090a160805161181961007560003960008181610276015281816103d701528181610518015281816105c9015261072201526118196000f3fe60806040526004361061007b5760003560e01c806365c4eb721161004e57806365c4eb72146101b357806376a67a51146101c657806384385c6f146101e8578063e5c27af11461020857600080fd5b80630e1d31dc146100805780632718034d146100fa578063331315701461011a578063570ca73514610161575b600080fd5b34801561008c57600080fd5b506100c461009b366004610850565b507f0e1d31dc000000000000000000000000000000000000000000000000000000009392505050565b6040517fffffffff0000000000000000000000000000000000000000000000000000000090911681526020015b60405180910390f35b61010d6101083660046108e4565b610238565b6040516100f191906109aa565b34801561012657600080fd5b506100c4610135366004610a50565b507f0e1d31dc000000000000000000000000000000000000000000000000000000009695505050505050565b34801561016d57600080fd5b5060005461018e9073ffffffffffffffffffffffffffffffffffffffff1681565b60405173ffffffffffffffffffffffffffffffffffffffff90911681526020016100f1565b61010d6101c1366004610b09565b610399565b3480156101d257600080fd5b506101e66101e1366004610b96565b610500565b005b3480156101f457600080fd5b506101e6610203366004610b96565b6105b1565b34801561021457600080fd5b50610228610223366004610bba565b6106e6565b60405190151581526020016100f1565b60005460609073ffffffffffffffffffffffffffffffffffffffff16331480159061029957503373ffffffffffffffffffffffffffffffffffffffff7f00000000000000000000000000000000000000000000000000000000000000001614155b156102d0576040517fccea9e6f00000000000000000000000000000000000000000000000000000000815260040160405180910390fd5b6040517fa817440400000000000000000000000000000000000000000000000000000000815273ffffffffffffffffffffffffffffffffffffffff87169063a817440490349061032a90899089908990899060040161117d565b60006040518083038185885af1158015610348573d6000803e3d6000fd5b50505050506040513d6000823e601f3d9081017fffffffffffffffffffffffffffffffffffffffffffffffffffffffffffffffe016820160405261038f9190810190611313565b9695505050505050565b60005460609073ffffffffffffffffffffffffffffffffffffffff1633148015906103fa57503373ffffffffffffffffffffffffffffffffffffffff7f00000000000000000000000000000000000000000000000000000000000000001614155b15610431576040517fccea9e6f00000000000000000000000000000000000000000000000000000000815260040160405180910390fd5b6040517f55944a4200000000000000000000000000000000000000000000000000000000815273ffffffffffffffffffffffffffffffffffffffff8916906355944a4290349061048f908b908b908b908b908b908b9060040161160c565b60006040518083038185885af11580156104ad573d6000803e3d6000fd5b50505050506040513d6000823e601f3d9081017fffffffffffffffffffffffffffffffffffffffffffffffffffffffffffffffe01682016040526104f49190810190611313565b98975050505050505050565b3373ffffffffffffffffffffffffffffffffffffffff7f0000000000000000000000000000000000000000000000000000000000000000161461056f576040517f6d5769be00000000000000000000000000000000000000000000000000000000815260040160405180910390fd5b6040517f9e87fac88ff661f02d44f95383c817fece4bce600a3dab7a54406878b965e75290600090a18073ffffffffffffffffffffffffffffffffffffffff16ff5b3373ffffffffffffffffffffffffffffffffffffffff7f00000000000000000000000000000000000000000000000000000000000000001614610620576040517f6d5769be00000000000000000000000000000000000000000000000000000000815260040160405180910390fd5b73ffffffffffffffffffffffffffffffffffffffff811661066d576040517fd0769d8e00000000000000000000000000000000000000000000000000000000815260040160405180910390fd5b600080547fffffffffffffffffffffffff00000000000000000000000000000000000000001673ffffffffffffffffffffffffffffffffffffffff83169081179091556040519081527fb3b3f5f64ab192e4b5fefde1f51ce9733bbdcf831951543b325aebd49cc27ec49060200160405180910390a150565b6000805473ffffffffffffffffffffffffffffffffffffffff16331480159061074557503373ffffffffffffffffffffffffffffffffffffffff7f00000000000000000000000000000000000000000000000000000000000000001614155b1561077c576040517fccea9e6f00000000000000000000000000000000000000000000000000000000815260040160405180910390fd5b6040517ffd9f1e1000000000000000000000000000000000000000000000000000000000815273ffffffffffffffffffffffffffffffffffffffff85169063fd9f1e10906107d0908690869060040161174e565b6020604051808303816000875af11580156107ef573d6000803e3d6000fd5b505050506040513d601f19601f8201168201806040525081019061081391906117c1565b949350505050565b73ffffffffffffffffffffffffffffffffffffffff8116811461083d57600080fd5b50565b803561084b8161081b565b919050565b6000806000806080858703121561086657600080fd5b8435935060208501356108788161081b565b925060408501356108888161081b565b9396929550929360600135925050565b60008083601f8401126108aa57600080fd5b50813567ffffffffffffffff8111156108c257600080fd5b6020830191508360208260051b85010111156108dd57600080fd5b9250929050565b6000806000806000606086880312156108fc57600080fd5b85356109078161081b565b9450602086013567ffffffffffffffff8082111561092457600080fd5b61093089838a01610898565b9096509450604088013591508082111561094957600080fd5b5061095688828901610898565b969995985093965092949392505050565b7f4e487b7100000000000000000000000000000000000000000000000000000000600052602160045260246000fd5b600681106109a6576109a6610967565b9052565b602080825282518282018190526000919060409081850190868401855b82811015610a4357815180516109de868251610996565b8088015173ffffffffffffffffffffffffffffffffffffffff908116878a0152878201518888015260608083015190880152608091820151811691870191909152818801511660a086015285015160c085015260e090930192908501906001016109c7565b5091979650505050505050565b600080600080600080600060a0888a031215610a6b57600080fd5b873596506020880135610a7d8161081b565b9550604088013567ffffffffffffffff80821115610a9a57600080fd5b9089019060a0828c031215610aae57600080fd5b90955060608901359080821115610ac457600080fd5b610ad08b838c01610898565b909650945060808a0135915080821115610ae957600080fd5b50610af68a828b01610898565b989b979a50959850939692959293505050565b60008060008060008060006080888a031215610b2457600080fd5b8735610b2f8161081b565b9650602088013567ffffffffffffffff80821115610b4c57600080fd5b610b588b838c01610898565b909850965060408a0135915080821115610b7157600080fd5b610b7d8b838c01610898565b909650945060608a0135915080821115610ae957600080fd5b600060208284031215610ba857600080fd5b8135610bb38161081b565b9392505050565b600080600060408486031215610bcf57600080fd5b8335610bda8161081b565b9250602084013567ffffffffffffffff811115610bf657600080fd5b610c0286828701610898565b9497909650939450505050565b600082357ffffffffffffffffffffffffffffffffffffffffffffffffffffffffffffffea1833603018112610c4357600080fd5b90910192915050565b60008083357fffffffffffffffffffffffffffffffffffffffffffffffffffffffffffffffe1843603018112610c8157600080fd5b830160208101925035905067ffffffffffffffff811115610ca157600080fd5b60a0810236038213156108dd57600080fd5b6006811061083d57600080fd5b8183526000602080850194508260005b85811015610d45578135610ce381610cb3565b610ced8882610996565b5082820135610cfb8161081b565b73ffffffffffffffffffffffffffffffffffffffff168784015260408281013590880152606080830135908801526080808301359088015260a09687019690910190600101610cd0565b509495945050505050565b60008083357fffffffffffffffffffffffffffffffffffffffffffffffffffffffffffffffe1843603018112610d8557600080fd5b830160208101925035905067ffffffffffffffff811115610da557600080fd5b60c0810236038213156108dd57600080fd5b8183526000602080850194508260005b85811015610d45578135610dda81610cb3565b610de48882610996565b5082820135610df28161081b565b73ffffffffffffffffffffffffffffffffffffffff9081168885015260408381013590890152606080840135908901526080808401359089015260a09081840135610e3c8161081b565b169088015260c0968701969190910190600101610dc7565b80356004811061084b57600080fd5b600481106109a6576109a6610967565b6000610160610e9f84610e8585610840565b73ffffffffffffffffffffffffffffffffffffffff169052565b610eab60208401610840565b73ffffffffffffffffffffffffffffffffffffffff166020850152610ed36040840184610c4c565b826040870152610ee68387018284610cc0565b92505050610ef76060840184610d50565b8583036060870152610f0a838284610db7565b92505050610f1a60808401610e54565b610f276080860182610e63565b5060a0838101359085015260c0808401359085015260e08084013590850152610100808401359085015261012080840135908501526101409283013592909301919091525090565b60008083357fffffffffffffffffffffffffffffffffffffffffffffffffffffffffffffffe1843603018112610fa457600080fd5b830160208101925035905067ffffffffffffffff811115610fc457600080fd5b8036038213156108dd57600080fd5b8183528181602085013750600060208284010152600060207fffffffffffffffffffffffffffffffffffffffffffffffffffffffffffffffe0601f840116840101905092915050565b600082357fffffffffffffffffffffffffffffffffffffffffffffffffffffffffffffffc1833603018112610c4357600080fd5b60008083357fffffffffffffffffffffffffffffffffffffffffffffffffffffffffffffffe184360301811261108557600080fd5b830160208101925035905067ffffffffffffffff8111156110a557600080fd5b8060061b36038213156108dd57600080fd5b8183526000602080850194508260005b85811015610d4557813587528282013583880152604096870196909101906001016110c7565b818352600060208085019450848460051b86018460005b8781101561117057838303895261111b828861101c565b60406111278283611050565b82875261113783880182846110b7565b9250505061114787830183611050565b92508582038887015261115b8284836110b7565b9b88019b955050509185019150600101611104565b5090979650505050505050565b60408082528181018590526000906060600587901b8401810190840188845b89811015611228577fffffffffffffffffffffffffffffffffffffffffffffffffffffffffffffffa08785030183526111d5828c61101c565b6111df8182610c0f565b8686526111ee87870182610e73565b905060206111fe81840184610f6f565b935087830382890152611212838583610fd3565b975050948501949390930192505060010161119c565b50505083810360208501526104f48186886110ed565b7f4e487b7100000000000000000000000000000000000000000000000000000000600052604160045260246000fd5b6040516060810167ffffffffffffffff811182821017156112905761129061123e565b60405290565b60405160a0810167ffffffffffffffff811182821017156112905761129061123e565b604051601f82017fffffffffffffffffffffffffffffffffffffffffffffffffffffffffffffffe016810167ffffffffffffffff811182821017156113005761130061123e565b604052919050565b805161084b8161081b565b6000602080838503121561132657600080fd5b825167ffffffffffffffff8082111561133e57600080fd5b818501915085601f83011261135257600080fd5b8151818111156113645761136461123e565b611372848260051b016112b9565b818152848101925060e091820284018501918883111561139157600080fd5b938501935b8285101561144257848903818112156113af5760008081fd5b6113b761126d565b60a0808312156113c75760008081fd5b6113cf611296565b925087516113dc81610cb3565b8352878901516113eb8161081b565b838a0152604088810151818501526060808a0151908501526080808a01516114128161081b565b90850152838352611424898301611308565b838b015260c089015190830152508552509384019392850192611396565b50979650505050505050565b80356effffffffffffffffffffffffffffff8116811461084b57600080fd5b600082357fffffffffffffffffffffffffffffffffffffffffffffffffffffffffffffff61833603018112610c4357600080fd5b81835260007f07ffffffffffffffffffffffffffffffffffffffffffffffffffffffffffffff8311156114d357600080fd5b8260051b8083602087013760009401602001938452509192915050565b818352602080840193600091600585811b8301820185855b888110156115fe577fffffffffffffffffffffffffffffffffffffffffffffffffffffffffffffffe0868403018a52611541828961146d565b60a081358552868201356002811061155857600080fd5b858801526040828101359086015260608083013590860152608080830135368490037fffffffffffffffffffffffffffffffffffffffffffffffffffffffffffffffe10181126115a757600080fd5b90920187810192903567ffffffffffffffff8111156115c557600080fd5b80881b36038413156115d657600080fd5b82828801526115e883880182866114a1565b9d89019d96505050928601925050600101611508565b509098975050505050505050565b6060808252818101879052600090608080840160058a901b850182018b855b8c811015611714577fffffffffffffffffffffffffffffffffffffffffffffffffffffffffffffff80888403018452611664828f61146d565b60a06116708283610c0f565b81865261167f82870182610e73565b915050602061168f81840161144e565b6effffffffffffffffffffffffffffff90811687830152604090806116b586840161144e565b168289015250506116c889840184610f6f565b8784038b8901526116da848284610fd3565b935050506116ea88840184610f6f565b9350868303898801526116fe838583610fd3565b978201979650509390930192505060010161162b565b50508581036020870152611729818a8c6114f0565b935050505082810360408401526117418185876110ed565b9998505050505050505050565b60208082528181018390526000906040600585901b8401810190840186845b87811015610a43577fffffffffffffffffffffffffffffffffffffffffffffffffffffffffffffffc08785030183526117af846117aa848c610c0f565b610e73565b9350918401919084019060010161176d565b6000602082840312156117d357600080fd5b81518015158114610bb357600080fdfea2646970667358221220c5f187cc817a02f98f5bbe1c970fe690696f52fb9b430e4b7cdc1128a337e69964736f6c634300080e0033",
    "linkReferences": {}
  },
  "methodIdentifiers": {
    "acceptOwnership()": "79ba5097",
    "assignOperator(address,address)": "f7e4aac6",
    "assignPauser(address)": "dcd5b13e",
    "cancelOrders(address,address,(address,address,(uint8,address,uint256,uint256,uint256)[],(uint8,address,uint256,uint256,uint256,address)[],uint8,uint256,uint256,bytes32,uint256,bytes32,uint256)[])": "d6f3b110",
    "cancelOwnershipTransfer()": "23452b9c",
    "createZone(bytes32)": "46b3ce9f",
    "executeMatchAdvancedOrders(address,address,((address,address,(uint8,address,uint256,uint256,uint256)[],(uint8,address,uint256,uint256,uint256,address)[],uint8,uint256,uint256,bytes32,uint256,bytes32,uint256),uint120,uint120,bytes,bytes)[],(uint256,uint8,uint256,uint256,bytes32[])[],((uint256,uint256)[],(uint256,uint256)[])[])": "b44f6608",
    "executeMatchOrders(address,address,((address,address,(uint8,address,uint256,uint256,uint256)[],(uint8,address,uint256,uint256,uint256,address)[],uint8,uint256,uint256,bytes32,uint256,bytes32,uint256),bytes)[],((uint256,uint256)[],(uint256,uint256)[])[])": "40ddc788",
    "owner()": "8da5cb5b",
    "pause(address)": "76a67a51",
    "pauser()": "9fd0506d",
    "potentialOwner()": "7762df25",
    "transferOwnership(address)": "f2fde38b",
    "zoneCreationCode()": "7242512f"
  },
  "id": 47
}