{
  "abi": [
    {
      "inputs": [
        {
          "internalType": "bytes32",
          "name": "_seedHash",
          "type": "bytes32"
        }
      ],
      "stateMutability": "nonpayable",
      "type": "constructor"
    },
    {
      "inputs": [],
      "name": "prandBytes32",
      "outputs": [
        {
          "internalType": "bytes32",
          "name": "",
          "type": "bytes32"
        }
      ],
      "stateMutability": "nonpayable",
      "type": "function"
    },
    {
      "inputs": [],
      "name": "prandUint256",
      "outputs": [
        {
          "internalType": "uint256",
          "name": "",
          "type": "uint256"
        }
      ],
      "stateMutability": "nonpayable",
      "type": "function"
    }
  ],
  "bytecode": {
    "object": "0x608060405234801561001057600080fd5b5060405161015838038061015883398101604081905261002f91610037565b600055610050565b60006020828403121561004957600080fd5b5051919050565b60fa8061005e6000396000f3fe6080604052348015600f57600080fd5b506004361060325760003560e01c8063333640b6146037578063f869416914604f575b600080fd5b603d6055565b60405190815260200160405180910390f35b603d6062565b6000605d606f565b905090565b6000606a606f565b919050565b60008054604051602001608491815260200190565b604080517fffffffffffffffffffffffffffffffffffffffffffffffffffffffffffffffe08184030181529190528051602090910120600081905591905056fea2646970667358221220af27cdbe1e2fe711d2061b63df8cf5e74357a4d1b619e798bd67dda18e248b4864736f6c634300080e0033",
    "linkReferences": {}
  },
  "methodIdentifiers": {
    "prandBytes32()": "333640b6",
    "prandUint256()": "f8694169"
  },
  "id": 106
}