{
  "_format": "hh-sol-artifact-1",
  "contractName": "OrderCheckZone",
  "sourceName": "contracts/zones/order-check/OrderCheckZone.sol",
  "abi": [
    {
      "anonymous": false,
      "inputs": [],
      "name": "Paused",
      "type": "event"
    },
    {
      "anonymous": false,
      "inputs": [],
      "name": "Unpaused",
      "type": "event"
    },
    {
      "inputs": [
        {
          "internalType": "bytes32",
          "name": "orderHash",
          "type": "bytes32"
        },
        {
          "internalType": "address",
          "name": "caller",
          "type": "address"
        },
        {
          "internalType": "address",
          "name": "offerer",
          "type": "address"
        },
        {
          "internalType": "bytes32",
          "name": "zoneHash",
          "type": "bytes32"
        }
      ],
      "name": "isValidOrder",
      "outputs": [
        {
          "internalType": "bytes4",
          "name": "validOrderMagicValue",
          "type": "bytes4"
        }
      ],
      "stateMutability": "pure",
      "type": "function"
    },
    {
      "inputs": [
        {
          "internalType": "bytes32",
          "name": "orderHash",
          "type": "bytes32"
        },
        {
          "internalType": "address",
          "name": "caller",
          "type": "address"
        },
        {
          "components": [
            {
              "components": [
                {
                  "internalType": "address",
                  "name": "offerer",
                  "type": "address"
                },
                {
                  "internalType": "address",
                  "name": "zone",
                  "type": "address"
                },
                {
                  "components": [
                    {
                      "internalType": "enum ItemType",
                      "name": "itemType",
                      "type": "uint8"
                    },
                    {
                      "internalType": "address",
                      "name": "token",
                      "type": "address"
                    },
                    {
                      "internalType": "uint256",
                      "name": "identifierOrCriteria",
                      "type": "uint256"
                    },
                    {
                      "internalType": "uint256",
                      "name": "startAmount",
                      "type": "uint256"
                    },
                    {
                      "internalType": "uint256",
                      "name": "endAmount",
                      "type": "uint256"
                    }
                  ],
                  "internalType": "struct OfferItem[]",
                  "name": "offer",
                  "type": "tuple[]"
                },
                {
                  "components": [
                    {
                      "internalType": "enum ItemType",
                      "name": "itemType",
                      "type": "uint8"
                    },
                    {
                      "internalType": "address",
                      "name": "token",
                      "type": "address"
                    },
                    {
                      "internalType": "uint256",
                      "name": "identifierOrCriteria",
                      "type": "uint256"
                    },
                    {
                      "internalType": "uint256",
                      "name": "startAmount",
                      "type": "uint256"
                    },
                    {
                      "internalType": "uint256",
                      "name": "endAmount",
                      "type": "uint256"
                    },
                    {
                      "internalType": "address payable",
                      "name": "recipient",
                      "type": "address"
                    }
                  ],
                  "internalType": "struct ConsiderationItem[]",
                  "name": "consideration",
                  "type": "tuple[]"
                },
                {
                  "internalType": "enum OrderType",
                  "name": "orderType",
                  "type": "uint8"
                },
                {
                  "internalType": "uint256",
                  "name": "startTime",
                  "type": "uint256"
                },
                {
                  "internalType": "uint256",
                  "name": "endTime",
                  "type": "uint256"
                },
                {
                  "internalType": "bytes32",
                  "name": "zoneHash",
                  "type": "bytes32"
                },
                {
                  "internalType": "uint256",
                  "name": "salt",
                  "type": "uint256"
                },
                {
                  "internalType": "bytes32",
                  "name": "conduitKey",
                  "type": "bytes32"
                },
                {
                  "internalType": "uint256",
                  "name": "totalOriginalConsiderationItems",
                  "type": "uint256"
                }
              ],
              "internalType": "struct OrderParameters",
              "name": "parameters",
              "type": "tuple"
            },
            {
              "internalType": "uint120",
              "name": "numerator",
              "type": "uint120"
            },
            {
              "internalType": "uint120",
              "name": "denominator",
              "type": "uint120"
            },
            {
              "internalType": "bytes",
              "name": "signature",
              "type": "bytes"
            },
            {
              "internalType": "bytes",
              "name": "extraData",
              "type": "bytes"
            }
          ],
          "internalType": "struct AdvancedOrder",
          "name": "order",
          "type": "tuple"
        },
        {
          "internalType": "bytes32[]",
          "name": "priorOrderHashes",
          "type": "bytes32[]"
        },
        {
          "components": [
            {
              "internalType": "uint256",
              "name": "orderIndex",
              "type": "uint256"
            },
            {
              "internalType": "enum Side",
              "name": "side",
              "type": "uint8"
            },
            {
              "internalType": "uint256",
              "name": "index",
              "type": "uint256"
            },
            {
              "internalType": "uint256",
              "name": "identifier",
              "type": "uint256"
            },
            {
              "internalType": "bytes32[]",
              "name": "criteriaProof",
              "type": "bytes32[]"
            }
          ],
          "internalType": "struct CriteriaResolver[]",
          "name": "criteriaResolvers",
          "type": "tuple[]"
        }
      ],
      "name": "isValidOrderIncludingExtraData",
      "outputs": [
        {
          "internalType": "bytes4",
          "name": "validOrderMagicValue",
          "type": "bytes4"
        }
      ],
      "stateMutability": "pure",
      "type": "function"
    }
  ],
  "bytecode": "0x6080806040523461001657610ad2908161001c8239f35b600080fdfe6080604052600436101561001257600080fd5b6000803560e01c80630e1d31dc146101145763331315701461003357600080fd5b3461010d577ffffffffffffffffffffffffffffffffffffffffffffffffffffffffffffffffc9060a08236011261010d576024359161007183610184565b6044359167ffffffffffffffff918284116101105760a090843603011261010d57606435828111610110576100aa9036906004016101a7565b505060843591821161010d576101096100d685856100cb36600488016101a7565b505060040190610490565b6040517fffffffff0000000000000000000000000000000000000000000000000000000090911681529081906020820190565b0390f35b80fd5b5080fd5b503461010d5760807ffffffffffffffffffffffffffffffffffffffffffffffffffffffffffffffffc36011261010d5761014f602435610184565b61015a604435610184565b7f0e1d31dc0000000000000000000000000000000000000000000000000000000060805260206080f35b73ffffffffffffffffffffffffffffffffffffffff8116036101a257565b600080fd5b9181601f840112156101a25782359167ffffffffffffffff83116101a2576020808501948460051b0101116101a257565b507f4e487b7100000000000000000000000000000000000000000000000000000000600052604160045260246000fd5b90601f7fffffffffffffffffffffffffffffffffffffffffffffffffffffffffffffffe0910116810190811067ffffffffffffffff82111761024957604052565b6102516101d8565b604052565b9080601f830112156101a25781359067ffffffffffffffff82116102be575b8160051b6040519360209361028c85840187610208565b855283808601928201019283116101a2578301905b8282106102af575050505090565b813581529083019083016102a1565b6102c66101d8565b610275565b6080818303126101a25780359267ffffffffffffffff926020808401358581116101a257840182601f820112156101a257803591868311610379575b6040519261033c827fffffffffffffffffffffffffffffffffffffffffffffffffffffffffffffffe0601f8401160185610208565b808452848282850101116101a25780826000940183860137830101529360408401359081116101a257606091610373918501610256565b92013590565b6103816101d8565b610307565b9035907ffffffffffffffffffffffffffffffffffffffffffffffffffffffffffffffea1813603018212156101a2570190565b356103c381610184565b90565b156103cd57565b60646040517f08c379a000000000000000000000000000000000000000000000000000000000815260206004820152601f60248201527f657874726144617461206e6f74207369676e6564206279206f666665726572006044820152fd5b1561043257565b60646040517f08c379a000000000000000000000000000000000000000000000000000000000815260206004820152600d60248201527f496e76616c69642070726f6f66000000000000000000000000000000000000006044820152fd5b9060808101357fffffffffffffffffffffffffffffffffffffffffffffffffffffffffffffffe1823603018112156101a25781019182359067ffffffffffffffff82116101a257602084019082360382136101a2576105586105cb9473ffffffffffffffffffffffffffffffffffffffff61055061053761052061053297602061052b9a6105d09d0101906102cb565b99929a91909a6105f4565b9480610386565b6103b9565b73ffffffffffffffffffffffffffffffffffffffff1690565b9116146103c6565b6040516105c2816105966020820194857fffffffffffffffffffffffffffffffffffffffff00000000000000000000000060149260601b1681520190565b037fffffffffffffffffffffffffffffffffffffffffffffffffffffffffffffffe08101835282610208565b51902091610a16565b61042b565b7f0e1d31dc0000000000000000000000000000000000000000000000000000000090565b6103c39161060191610861565b919091610642565b6005111561061357565b7f4e487b7100000000000000000000000000000000000000000000000000000000600052602160045260246000fd5b61064b81610609565b806106535750565b61065c81610609565b600181036106c3576040517f08c379a000000000000000000000000000000000000000000000000000000000815260206004820152601860248201527f45434453413a20696e76616c6964207369676e617475726500000000000000006044820152606490fd5b6106cc81610609565b60028103610733576040517f08c379a000000000000000000000000000000000000000000000000000000000815260206004820152601f60248201527f45434453413a20696e76616c6964207369676e6174757265206c656e677468006044820152606490fd5b61073c81610609565b600381036107c9576040517f08c379a000000000000000000000000000000000000000000000000000000000815260206004820152602260248201527f45434453413a20696e76616c6964207369676e6174757265202773272076616c60448201527f75650000000000000000000000000000000000000000000000000000000000006064820152608490fd5b806107d5600492610609565b146107dc57565b6040517f08c379a000000000000000000000000000000000000000000000000000000000815260206004820152602260248201527f45434453413a20696e76616c6964207369676e6174757265202776272076616c60448201527f75650000000000000000000000000000000000000000000000000000000000006064820152608490fd5b81516041810361088e57509061088a916020820151906060604084015193015160001a90610953565b9091565b60400361090c57816040602061088a9401519101519160ff601b7f7fffffffffffffffffffffffffffffffffffffffffffffffffffffffffffffff85831c957fffffffffffffffffffffffffffffffffffffffffffffffffffffffffffffffe487116108ff575b1694011690610953565b610907610916565b6108f5565b5050600090600290565b507f4e487b7100000000000000000000000000000000000000000000000000000000600052601160045260246000fd5b506040513d6000823e3d90fd5b9291907f7fffffffffffffffffffffffffffffff5d576e7357a4501ddfe92f46681b20a08311610a0a5760ff16601b811415806109ff575b6109f3579160809493916020936040519384528484015260408301526060820152600093849182805260015afa156109e6575b815173ffffffffffffffffffffffffffffffffffffffff8116156109e0579190565b50600190565b6109ee610946565b6109be565b50505050600090600490565b50601c81141561098b565b50505050600090600390565b9091906000915b8151831015610a95576020600584901b830181015191828111610a83576000525260016040600020925b7fffffffffffffffffffffffffffffffffffffffffffffffffffffffffffffffff8114610a76575b0191610a1d565b610a7e610916565b610a6f565b91600052526001604060002092610a47565b915050149056fea2646970667358221220d00a38bfad2b5ada729d7cc76b30349ff1b9e03774eefa834d40aa1dfd2b27ad64736f6c634300080e0033",
  "linkReferences": {},
  "deployedLinkReferences": {}
}