{
  "abi": [
    {
      "inputs": [
        {
          "components": [
            {
              "internalType": "address",
              "name": "offerer",
              "type": "address"
            },
            {
              "internalType": "address",
              "name": "zone",
              "type": "address"
            },
            {
              "components": [
                {
                  "internalType": "enum ItemType",
                  "name": "itemType",
                  "type": "uint8"
                },
                {
                  "internalType": "address",
                  "name": "token",
                  "type": "address"
                },
                {
                  "internalType": "uint256",
                  "name": "identifierOrCriteria",
                  "type": "uint256"
                },
                {
                  "internalType": "uint256",
                  "name": "startAmount",
                  "type": "uint256"
                },
                {
                  "internalType": "uint256",
                  "name": "endAmount",
                  "type": "uint256"
                }
              ],
              "internalType": "struct OfferItem[]",
              "name": "offer",
              "type": "tuple[]"
            },
            {
              "components": [
                {
                  "internalType": "enum ItemType",
                  "name": "itemType",
                  "type": "uint8"
                },
                {
                  "internalType": "address",
                  "name": "token",
                  "type": "address"
                },
                {
                  "internalType": "uint256",
                  "name": "identifierOrCriteria",
                  "type": "uint256"
                },
                {
                  "internalType": "uint256",
                  "name": "startAmount",
                  "type": "uint256"
                },
                {
                  "internalType": "uint256",
                  "name": "endAmount",
                  "type": "uint256"
                },
                {
                  "internalType": "address payable",
                  "name": "recipient",
                  "type": "address"
                }
              ],
              "internalType": "struct ConsiderationItem[]",
              "name": "consideration",
              "type": "tuple[]"
            },
            {
              "internalType": "enum OrderType",
              "name": "orderType",
              "type": "uint8"
            },
            {
              "internalType": "uint256",
              "name": "startTime",
              "type": "uint256"
            },
            {
              "internalType": "uint256",
              "name": "endTime",
              "type": "uint256"
            },
            {
              "internalType": "bytes32",
              "name": "zoneHash",
              "type": "bytes32"
            },
            {
              "internalType": "uint256",
              "name": "salt",
              "type": "uint256"
            },
            {
              "internalType": "bytes32",
              "name": "conduitKey",
              "type": "bytes32"
            },
            {
              "internalType": "uint256",
              "name": "totalOriginalConsiderationItems",
              "type": "uint256"
            }
          ],
          "internalType": "struct OrderParameters",
          "name": "orderParameters",
          "type": "tuple"
        },
        {
          "internalType": "address payable",
          "name": "offerer",
          "type": "address"
        },
        {
          "internalType": "address",
          "name": "zone",
          "type": "address"
        },
        {
          "internalType": "bytes32",
          "name": "conduitKey",
          "type": "bytes32"
        }
      ],
      "name": "createMirrorOrderParameters",
      "outputs": [
        {
          "components": [
            {
              "internalType": "address",
              "name": "offerer",
              "type": "address"
            },
            {
              "internalType": "address",
              "name": "zone",
              "type": "address"
            },
            {
              "components": [
                {
                  "internalType": "enum ItemType",
                  "name": "itemType",
                  "type": "uint8"
                },
                {
                  "internalType": "address",
                  "name": "token",
                  "type": "address"
                },
                {
                  "internalType": "uint256",
                  "name": "identifierOrCriteria",
                  "type": "uint256"
                },
                {
                  "internalType": "uint256",
                  "name": "startAmount",
                  "type": "uint256"
                },
                {
                  "internalType": "uint256",
                  "name": "endAmount",
                  "type": "uint256"
                }
              ],
              "internalType": "struct OfferItem[]",
              "name": "offer",
              "type": "tuple[]"
            },
            {
              "components": [
                {
                  "internalType": "enum ItemType",
                  "name": "itemType",
                  "type": "uint8"
                },
                {
                  "internalType": "address",
                  "name": "token",
                  "type": "address"
                },
                {
                  "internalType": "uint256",
                  "name": "identifierOrCriteria",
                  "type": "uint256"
                },
                {
                  "internalType": "uint256",
                  "name": "startAmount",
                  "type": "uint256"
                },
                {
                  "internalType": "uint256",
                  "name": "endAmount",
                  "type": "uint256"
                },
                {
                  "internalType": "address payable",
                  "name": "recipient",
                  "type": "address"
                }
              ],
              "internalType": "struct ConsiderationItem[]",
              "name": "consideration",
              "type": "tuple[]"
            },
            {
              "internalType": "enum OrderType",
              "name": "orderType",
              "type": "uint8"
            },
            {
              "internalType": "uint256",
              "name": "startTime",
              "type": "uint256"
            },
            {
              "internalType": "uint256",
              "name": "endTime",
              "type": "uint256"
            },
            {
              "internalType": "bytes32",
              "name": "zoneHash",
              "type": "bytes32"
            },
            {
              "internalType": "uint256",
              "name": "salt",
              "type": "uint256"
            },
            {
              "internalType": "bytes32",
              "name": "conduitKey",
              "type": "bytes32"
            },
            {
              "internalType": "uint256",
              "name": "totalOriginalConsiderationItems",
              "type": "uint256"
            }
          ],
          "internalType": "struct OrderParameters",
          "name": "",
          "type": "tuple"
        }
      ],
      "stateMutability": "pure",
      "type": "function"
    }
  ],
  "bytecode": {
    "object": "0x608060405234801561001057600080fd5b50610ca3806100206000396000f3fe608060405234801561001057600080fd5b506004361061002b5760003560e01c80634a6b6d1d14610030575b600080fd5b61004361003e366004610845565b610059565b6040516100509190610acd565b60405180910390f35b6100616104ce565b60006100708660600151610135565b905060006100828760400151876102f2565b905060006040518061016001604052808873ffffffffffffffffffffffffffffffffffffffff1681526020018773ffffffffffffffffffffffffffffffffffffffff168152602001848152602001838152602001896080015160038111156100ec576100ec610974565b81526020018960a0015181526020018960c0015181526020018960e001518152602001896101000151815260200186815260200183518152509050809350505050949350505050565b60606000825167ffffffffffffffff81111561015357610153610565565b6040519080825280602002602001820160405280156101cd57816020015b6101ba6040805160a081019091528060008152602001600073ffffffffffffffffffffffffffffffffffffffff1681526020016000815260200160008152602001600081525090565b8152602001906001900390816101715790505b50905060005b81518110156102eb576040518060a001604052808583815181106101f9576101f9610bdf565b602002602001015160000151600581111561021657610216610974565b815260200185838151811061022d5761022d610bdf565b60200260200101516020015173ffffffffffffffffffffffffffffffffffffffff16815260200185838151811061026657610266610bdf565b602002602001015160400151815260200185838151811061028957610289610bdf565b60200260200101516060015181526020018583815181106102ac576102ac610bdf565b6020026020010151608001518152508282815181106102cd576102cd610bdf565b602002602001018190525080806102e390610c0e565b9150506101d3565b5092915050565b60606000835167ffffffffffffffff81111561031057610310610565565b60405190808252806020026020018201604052801561038e57816020015b6040805160c08101825260008082526020808301829052928201819052606082018190526080820181905260a082015282527fffffffffffffffffffffffffffffffffffffffffffffffffffffffffffffffff90920191018161032e5790505b50905060005b84518110156104c6576040518060c001604052808683815181106103ba576103ba610bdf565b60200260200101516000015160058111156103d7576103d7610974565b81526020018683815181106103ee576103ee610bdf565b60200260200101516020015173ffffffffffffffffffffffffffffffffffffffff16815260200186838151811061042757610427610bdf565b602002602001015160400151815260200186838151811061044a5761044a610bdf565b602002602001015160600151815260200186838151811061046d5761046d610bdf565b60200260200101516080015181526020018573ffffffffffffffffffffffffffffffffffffffff168152508282815181106104aa576104aa610bdf565b6020026020010181905250806104bf90610c0e565b9050610394565b509392505050565b604051806101600160405280600073ffffffffffffffffffffffffffffffffffffffff168152602001600073ffffffffffffffffffffffffffffffffffffffff16815260200160608152602001606081526020016000600381111561053557610535610974565b815260006020820181905260408201819052606082018190526080820181905260a0820181905260c09091015290565b7f4e487b7100000000000000000000000000000000000000000000000000000000600052604160045260246000fd5b60405160a0810167ffffffffffffffff811182821017156105b7576105b7610565565b60405290565b60405160c0810167ffffffffffffffff811182821017156105b7576105b7610565565b604051610160810167ffffffffffffffff811182821017156105b7576105b7610565565b604051601f82017fffffffffffffffffffffffffffffffffffffffffffffffffffffffffffffffe016810167ffffffffffffffff8111828210171561064b5761064b610565565b604052919050565b73ffffffffffffffffffffffffffffffffffffffff8116811461067557600080fd5b50565b803561068381610653565b919050565b600067ffffffffffffffff8211156106a2576106a2610565565b5060051b60200190565b80356006811061068357600080fd5b600082601f8301126106cc57600080fd5b813560206106e16106dc83610688565b610604565b82815260a0928302850182019282820191908785111561070057600080fd5b8387015b8581101561076b5781818a03121561071c5760008081fd5b610724610594565b61072d826106ac565b81528582013561073c81610653565b818701526040828101359082015260608083013590820152608080830135908201528452928401928101610704565b5090979650505050505050565b600082601f83011261078957600080fd5b813560206107996106dc83610688565b82815260c092830285018201928282019190878511156107b857600080fd5b8387015b8581101561076b5781818a0312156107d45760008081fd5b6107dc6105bd565b6107e5826106ac565b8152858201356107f481610653565b8187015260408281013590820152606080830135908201526080808301359082015260a08083013561082581610653565b9082015284529284019281016107bc565b80356004811061068357600080fd5b6000806000806080858703121561085b57600080fd5b843567ffffffffffffffff8082111561087357600080fd5b90860190610160828903121561088857600080fd5b6108906105e0565b61089983610678565b81526108a760208401610678565b60208201526040830135828111156108be57600080fd5b6108ca8a8286016106bb565b6040830152506060830135828111156108e257600080fd5b6108ee8a828601610778565b60608301525061090060808401610836565b608082015260a0838101359082015260c0808401359082015260e0808401359082015261010080840135908201526101208084013590820152610140928301359281019290925250935061095660208601610678565b925061096460408601610678565b9396929550929360600135925050565b7f4e487b7100000000000000000000000000000000000000000000000000000000600052602160045260246000fd5b600681106109b3576109b3610974565b9052565b600081518084526020808501945080840160005b83811015610a2e5781516109e08882516109a3565b8084015173ffffffffffffffffffffffffffffffffffffffff168885015260408082015190890152606080820151908901526080908101519088015260a090960195908201906001016109cb565b509495945050505050565b600081518084526020808501945080840160005b83811015610a2e578151610a628882516109a3565b8084015173ffffffffffffffffffffffffffffffffffffffff90811689860152604080830151908a0152606080830151908a0152608080830151908a015260a091820151169088015260c09096019590820190600101610a4d565b600481106109b3576109b3610974565b60208152610af460208201835173ffffffffffffffffffffffffffffffffffffffff169052565b60006020830151610b1d604084018273ffffffffffffffffffffffffffffffffffffffff169052565b506040830151610160806060850152610b3a6101808501836109b7565b915060608501517fffffffffffffffffffffffffffffffffffffffffffffffffffffffffffffffe0858403016080860152610b758382610a39565b9250506080850151610b8a60a0860182610abd565b5060a085015160c085015260c085015160e085015260e0850151610100818187015280870151915050610120818187015280870151915050610140818187015280870151838701525050508091505092915050565b7f4e487b7100000000000000000000000000000000000000000000000000000000600052603260045260246000fd5b60007fffffffffffffffffffffffffffffffffffffffffffffffffffffffffffffffff8203610c66577f4e487b7100000000000000000000000000000000000000000000000000000000600052601160045260246000fd5b506001019056fea2646970667358221220ecc1f4864fc1e940bdab399c905ae4019b2d474ac467931c22cc839f8441994c64736f6c634300080e0033",
    "linkReferences": {}
  },
  "methodIdentifiers": {
    "createMirrorOrderParameters((address,address,(uint8,address,uint256,uint256,uint256)[],(uint8,address,uint256,uint256,uint256,address)[],uint8,uint256,uint256,bytes32,uint256,bytes32,uint256),address,address,bytes32)": "4a6b6d1d"
  },
  "id": 123
}