{
  "abi": [
    {
      "inputs": [],
      "stateMutability": "nonpayable",
      "type": "constructor"
    },
    {
      "inputs": [
        {
          "internalType": "address",
          "name": "token",
          "type": "address"
        },
        {
          "internalType": "address",
          "name": "from",
          "type": "address"
        },
        {
          "internalType": "address",
          "name": "to",
          "type": "address"
        },
        {
          "internalType": "uint256",
          "name": "amount",
          "type": "uint256"
        }
      ],
      "name": "BadReturnValueFromERC20OnTransfer",
      "type": "error"
    },
    {
      "inputs": [
        {
          "internalType": "address",
          "name": "channel",
          "type": "address"
        }
      ],
      "name": "ChannelClosed",
      "type": "error"
    },
    {
      "inputs": [
        {
          "internalType": "address",
          "name": "channel",
          "type": "address"
        },
        {
          "internalType": "bool",
          "name": "isOpen",
          "type": "bool"
        }
      ],
      "name": "ChannelStatusAlreadySet",
      "type": "error"
    },
    {
      "inputs": [
        {
          "internalType": "address",
          "name": "token",
          "type": "address"
        },
        {
          "internalType": "address",
          "name": "from",
          "type": "address"
        },
        {
          "internalType": "address",
          "name": "to",
          "type": "address"
        },
        {
          "internalType": "uint256[]",
          "name": "identifiers",
          "type": "uint256[]"
        },
        {
          "internalType": "uint256[]",
          "name": "amounts",
          "type": "uint256[]"
        }
      ],
      "name": "ERC1155BatchTransferGenericFailure",
      "type": "error"
    },
    {
      "inputs": [],
      "name": "Invalid1155BatchTransferEncoding",
      "type": "error"
    },
    {
      "inputs": [],
      "name": "InvalidController",
      "type": "error"
    },
    {
      "inputs": [],
      "name": "InvalidERC721TransferAmount",
      "type": "error"
    },
    {
      "inputs": [],
      "name": "InvalidItemType",
      "type": "error"
    },
    {
      "inputs": [],
      "name": "MissingItemAmount",
      "type": "error"
    },
    {
      "inputs": [
        {
          "internalType": "address",
          "name": "account",
          "type": "address"
        }
      ],
      "name": "NoContract",
      "type": "error"
    },
    {
      "inputs": [
        {
          "internalType": "address",
          "name": "token",
          "type": "address"
        },
        {
          "internalType": "address",
          "name": "from",
          "type": "address"
        },
        {
          "internalType": "address",
          "name": "to",
          "type": "address"
        },
        {
          "internalType": "uint256",
          "name": "identifier",
          "type": "uint256"
        },
        {
          "internalType": "uint256",
          "name": "amount",
          "type": "uint256"
        }
      ],
      "name": "TokenTransferGenericFailure",
      "type": "error"
    },
    {
      "inputs": [],
      "name": "UnusedItemParameters",
      "type": "error"
    },
    {
      "anonymous": false,
      "inputs": [
        {
          "indexed": true,
          "internalType": "address",
          "name": "channel",
          "type": "address"
        },
        {
          "indexed": false,
          "internalType": "bool",
          "name": "open",
          "type": "bool"
        }
      ],
      "name": "ChannelUpdated",
      "type": "event"
    },
    {
      "inputs": [
        {
          "components": [
            {
              "internalType": "enum ConduitItemType",
              "name": "itemType",
              "type": "uint8"
            },
            {
              "internalType": "address",
              "name": "token",
              "type": "address"
            },
            {
              "internalType": "address",
              "name": "from",
              "type": "address"
            },
            {
              "internalType": "address",
              "name": "to",
              "type": "address"
            },
            {
              "internalType": "uint256",
              "name": "identifier",
              "type": "uint256"
            },
            {
              "internalType": "uint256",
              "name": "amount",
              "type": "uint256"
            }
          ],
          "internalType": "struct ConduitTransfer[]",
          "name": "transfers",
          "type": "tuple[]"
        }
      ],
      "name": "execute",
      "outputs": [
        {
          "internalType": "bytes4",
          "name": "magicValue",
          "type": "bytes4"
        }
      ],
      "stateMutability": "nonpayable",
      "type": "function"
    },
    {
      "inputs": [
        {
          "components": [
            {
              "internalType": "address",
              "name": "token",
              "type": "address"
            },
            {
              "internalType": "address",
              "name": "from",
              "type": "address"
            },
            {
              "internalType": "address",
              "name": "to",
              "type": "address"
            },
            {
              "internalType": "uint256[]",
              "name": "ids",
              "type": "uint256[]"
            },
            {
              "internalType": "uint256[]",
              "name": "amounts",
              "type": "uint256[]"
            }
          ],
          "internalType": "struct ConduitBatch1155Transfer[]",
          "name": "batchTransfers",
          "type": "tuple[]"
        }
      ],
      "name": "executeBatch1155",
      "outputs": [
        {
          "internalType": "bytes4",
          "name": "magicValue",
          "type": "bytes4"
        }
      ],
      "stateMutability": "nonpayable",
      "type": "function"
    },
    {
      "inputs": [
        {
          "components": [
            {
              "internalType": "enum ConduitItemType",
              "name": "itemType",
              "type": "uint8"
            },
            {
              "internalType": "address",
              "name": "token",
              "type": "address"
            },
            {
              "internalType": "address",
              "name": "from",
              "type": "address"
            },
            {
              "internalType": "address",
              "name": "to",
              "type": "address"
            },
            {
              "internalType": "uint256",
              "name": "identifier",
              "type": "uint256"
            },
            {
              "internalType": "uint256",
              "name": "amount",
              "type": "uint256"
            }
          ],
          "internalType": "struct ConduitTransfer[]",
          "name": "standardTransfers",
          "type": "tuple[]"
        },
        {
          "components": [
            {
              "internalType": "address",
              "name": "token",
              "type": "address"
            },
            {
              "internalType": "address",
              "name": "from",
              "type": "address"
            },
            {
              "internalType": "address",
              "name": "to",
              "type": "address"
            },
            {
              "internalType": "uint256[]",
              "name": "ids",
              "type": "uint256[]"
            },
            {
              "internalType": "uint256[]",
              "name": "amounts",
              "type": "uint256[]"
            }
          ],
          "internalType": "struct ConduitBatch1155Transfer[]",
          "name": "batchTransfers",
          "type": "tuple[]"
        }
      ],
      "name": "executeWithBatch1155",
      "outputs": [
        {
          "internalType": "bytes4",
          "name": "magicValue",
          "type": "bytes4"
        }
      ],
      "stateMutability": "nonpayable",
      "type": "function"
    },
    {
      "inputs": [
        {
          "internalType": "address",
          "name": "channel",
          "type": "address"
        },
        {
          "internalType": "bool",
          "name": "isOpen",
          "type": "bool"
        }
      ],
      "name": "updateChannel",
      "outputs": [],
      "stateMutability": "nonpayable",
      "type": "function"
    }
  ],
  "bytecode": {
    "object": "0x60a060405234801561001057600080fd5b5033606081901b6080526110fa61003260003960006102fe01526110fa6000f3fe608060405234801561001057600080fd5b506004361061004c5760003560e01c80634ce34aa214610051578063899e104c146100995780638df25d92146100ac578063c4e8fcb5146100bf575b600080fd5b61006461005f366004610d94565b6100d4565b6040517fffffffff00000000000000000000000000000000000000000000000000000000909116815260200160405180910390f35b6100646100a7366004610dca565b610156565b6100646100ba366004610d52565b610224565b6100d26100cd366004610d1b565b6102e6565b005b3360009081526020819052604081205460ff16610124576040517f93daadf20000000000000000000000000000000000000000000000000000000081523360048201526024015b60405180910390fd5b61012e8383610463565b507f4ce34aa20000000000000000000000000000000000000000000000000000000092915050565b3360009081526020819052604081205460ff166101a1576040517f93daadf200000000000000000000000000000000000000000000000000000000815233600482015260240161011b565b6101ab8585610463565b8160005b818110156101f857368585838181106101ca576101ca611087565b90506020028101906101dc9190610fba565b90506101e7816104aa565b506101f181610ff8565b90506101af565b507f899e104c000000000000000000000000000000000000000000000000000000009695505050505050565b3360009081526020819052604081205460ff1661026f576040517f93daadf200000000000000000000000000000000000000000000000000000000815233600482015260240161011b565b8160005b818110156102bc573685858381811061028e5761028e611087565b90506020028101906102a09190610fba565b90506102ab816104aa565b506102b581610ff8565b9050610273565b507f8df25d9200000000000000000000000000000000000000000000000000000000949350505050565b3373ffffffffffffffffffffffffffffffffffffffff7f00000000000000000000000000000000000000000000000000000000000000001614610355576040517f6d5769be00000000000000000000000000000000000000000000000000000000815260040160405180910390fd5b73ffffffffffffffffffffffffffffffffffffffff821660009081526020819052604090205460ff16151581151514156103db576040517f924e341e00000000000000000000000000000000000000000000000000000000815273ffffffffffffffffffffffffffffffffffffffff83166004820152811515602482015260440161011b565b73ffffffffffffffffffffffffffffffffffffffff82166000818152602081815260409182902080547fffffffffffffffffffffffffffffffffffffffffffffffffffffffffffffff001685151590811790915591519182527fae63067d43ac07563b7eb8db6595635fc77f1578a2a5ea06ba91b63e2afa37e2910160405180910390a25050565b8060005b818110156104a4573684848381811061048257610482611087565b905060c00201905061049381610586565b5061049d81610ff8565b9050610467565b50505050565b60006104b96020830183610cf9565b905060006104cd6040840160208501610cf9565b905060006104e16060850160408601610cf9565b90503660006104f36060870187610f52565b90925090503660006105086080890189610f52565b9150915061057c87878787878080602002602001604051908101604052809392919081815260200183836020028082843760009201919091525050604080516020808b0282810182019093528a82529093508a92508991829185019084908082843760009201919091525061072792505050565b5050505050505050565b60016105956020830183610e53565b60038111156105a6576105a6611058565b14156105ec576105e96105bf6040830160208401610cf9565b6105cf6060840160408501610cf9565b6105df6080850160608601610cf9565b8460a0013561081e565b50565b60026105fb6020830183610e53565b600381111561060c5761060c611058565b141561068d578060a00135600114610650576040517fefcc00b100000000000000000000000000000000000000000000000000000000815260040160405180910390fd5b6105e96106636040830160208401610cf9565b6106736060840160408501610cf9565b6106836080850160608601610cf9565b8460800135610a6f565b600361069c6020830183610e53565b60038111156106ad576106ad611058565b14156106f5576105e96106c66040830160208401610cf9565b6106d66060840160408501610cf9565b6106e66080850160608601610cf9565b84608001358560a00135610b61565b6040517f7932f1fc00000000000000000000000000000000000000000000000000000000815260040160405180910390fd5b73ffffffffffffffffffffffffffffffffffffffff85163b61078d576040517f5f15d67200000000000000000000000000000000000000000000000000000000815273ffffffffffffffffffffffffffffffffffffffff8616600482015260240161011b565b6040517f2eb2c2d600000000000000000000000000000000000000000000000000000000815273ffffffffffffffffffffffffffffffffffffffff861690632eb2c2d6906107e5908790879087908790600401610eea565b600060405180830381600087803b1580156107ff57600080fd5b505af1158015610813573d6000803e3d6000fd5b505050505050505050565b73ffffffffffffffffffffffffffffffffffffffff84163b610884576040517f5f15d67200000000000000000000000000000000000000000000000000000000815273ffffffffffffffffffffffffffffffffffffffff8516600482015260240161011b565b6040805173ffffffffffffffffffffffffffffffffffffffff85811660248301528481166044830152606480830185905283518084039091018152608490920183526020820180517bffffffffffffffffffffffffffffffffffffffffffffffffffffffff167f23b872dd0000000000000000000000000000000000000000000000000000000017905291516000928392908816916109239190610eaf565b6000604051808303816000865af19150503d8060008114610960576040519150601f19603f3d011682016040523d82523d6000602084013e610965565b606091505b5091509150816109d7576040517ff486bc8700000000000000000000000000000000000000000000000000000000815273ffffffffffffffffffffffffffffffffffffffff8088166004830152808716602483015285166044820152600060648201526084810184905260a40161011b565b8051158015906109e957506020815110155b15610a675780806020019051810190610a029190610e36565b610a67576040517f9889192300000000000000000000000000000000000000000000000000000000815273ffffffffffffffffffffffffffffffffffffffff80881660048301528087166024830152851660448201526064810184905260840161011b565b505050505050565b73ffffffffffffffffffffffffffffffffffffffff84163b610ad5576040517f5f15d67200000000000000000000000000000000000000000000000000000000815273ffffffffffffffffffffffffffffffffffffffff8516600482015260240161011b565b6040517f23b872dd00000000000000000000000000000000000000000000000000000000815273ffffffffffffffffffffffffffffffffffffffff84811660048301528381166024830152604482018390528516906323b872dd90606401600060405180830381600087803b158015610b4d57600080fd5b505af115801561057c573d6000803e3d6000fd5b73ffffffffffffffffffffffffffffffffffffffff85163b610bc7576040517f5f15d67200000000000000000000000000000000000000000000000000000000815273ffffffffffffffffffffffffffffffffffffffff8616600482015260240161011b565b6040517ff242432a00000000000000000000000000000000000000000000000000000000815273ffffffffffffffffffffffffffffffffffffffff85811660048301528481166024830152604482018490526064820183905260a06084830152600060a483015286169063f242432a9060c4016107e5565b803573ffffffffffffffffffffffffffffffffffffffff81168114610c6357600080fd5b919050565b60008083601f840112610c7a57600080fd5b50813567ffffffffffffffff811115610c9257600080fd5b6020830191508360208260051b8501011115610cad57600080fd5b9250929050565b60008083601f840112610cc657600080fd5b50813567ffffffffffffffff811115610cde57600080fd5b60208301915083602060c083028501011115610cad57600080fd5b600060208284031215610d0b57600080fd5b610d1482610c3f565b9392505050565b60008060408385031215610d2e57600080fd5b610d3783610c3f565b91506020830135610d47816110b6565b809150509250929050565b60008060208385031215610d6557600080fd5b823567ffffffffffffffff811115610d7c57600080fd5b610d8885828601610c68565b90969095509350505050565b60008060208385031215610da757600080fd5b823567ffffffffffffffff811115610dbe57600080fd5b610d8885828601610cb4565b60008060008060408587031215610de057600080fd5b843567ffffffffffffffff80821115610df857600080fd5b610e0488838901610cb4565b90965094506020870135915080821115610e1d57600080fd5b50610e2a87828801610c68565b95989497509550505050565b600060208284031215610e4857600080fd5b8151610d14816110b6565b600060208284031215610e6557600080fd5b813560048110610d1457600080fd5b600081518084526020808501945080840160005b83811015610ea457815187529582019590820190600101610e88565b509495945050505050565b6000825160005b81811015610ed05760208186018101518583015201610eb6565b81811115610edf576000828501525b509190910192915050565b600073ffffffffffffffffffffffffffffffffffffffff808716835280861660208401525060a06040830152610f2360a0830185610e74565b8281036060840152610f358185610e74565b838103608090940193909352505060008152602001949350505050565b60008083357fffffffffffffffffffffffffffffffffffffffffffffffffffffffffffffffe1843603018112610f8757600080fd5b83018035915067ffffffffffffffff821115610fa257600080fd5b6020019150600581901b3603821315610cad57600080fd5b600082357fffffffffffffffffffffffffffffffffffffffffffffffffffffffffffffff61833603018112610fee57600080fd5b9190910192915050565b60007fffffffffffffffffffffffffffffffffffffffffffffffffffffffffffffffff821415611051577f4e487b7100000000000000000000000000000000000000000000000000000000600052601160045260246000fd5b5060010190565b7f4e487b7100000000000000000000000000000000000000000000000000000000600052602160045260246000fd5b7f4e487b7100000000000000000000000000000000000000000000000000000000600052603260045260246000fd5b80151581146105e957600080fdfea2646970667358221220aa5a653526ec2a50636ffde7ca4b424bfecd5df9f7c6ede58c355ca0f9afe30464736f6c63430008070033",
    "linkReferences": {}
  },
  "methodIdentifiers": {
    "execute((uint8,address,address,address,uint256,uint256)[])": "4ce34aa2",
    "executeBatch1155((address,address,address,uint256[],uint256[])[])": "8df25d92",
    "executeWithBatch1155((uint8,address,address,address,uint256,uint256)[],(address,address,address,uint256[],uint256[])[])": "899e104c",
    "updateChannel(address,bool)": "c4e8fcb5"
  },
  "id": 41
}