{
  "abi": [
    {
      "inputs": [
        {
          "internalType": "address",
          "name": "_seaportAddress",
          "type": "address"
        },
        {
          "internalType": "address",
          "name": "_storefrontAddress",
          "type": "address"
        }
      ],
      "stateMutability": "nonpayable",
      "type": "constructor"
    },
    {
      "inputs": [
        {
          "components": [
            {
              "components": [
                {
                  "internalType": "address",
                  "name": "offerer",
                  "type": "address"
                },
                {
                  "internalType": "address",
                  "name": "zone",
                  "type": "address"
                },
                {
                  "components": [
                    {
                      "internalType": "enum ItemType",
                      "name": "itemType",
                      "type": "uint8"
                    },
                    {
                      "internalType": "address",
                      "name": "token",
                      "type": "address"
                    },
                    {
                      "internalType": "uint256",
                      "name": "identifierOrCriteria",
                      "type": "uint256"
                    },
                    {
                      "internalType": "uint256",
                      "name": "startAmount",
                      "type": "uint256"
                    },
                    {
                      "internalType": "uint256",
                      "name": "endAmount",
                      "type": "uint256"
                    }
                  ],
                  "internalType": "struct OfferItem[]",
                  "name": "offer",
                  "type": "tuple[]"
                },
                {
                  "components": [
                    {
                      "internalType": "enum ItemType",
                      "name": "itemType",
                      "type": "uint8"
                    },
                    {
                      "internalType": "address",
                      "name": "token",
                      "type": "address"
                    },
                    {
                      "internalType": "uint256",
                      "name": "identifierOrCriteria",
                      "type": "uint256"
                    },
                    {
                      "internalType": "uint256",
                      "name": "startAmount",
                      "type": "uint256"
                    },
                    {
                      "internalType": "uint256",
                      "name": "endAmount",
                      "type": "uint256"
                    },
                    {
                      "internalType": "address payable",
                      "name": "recipient",
                      "type": "address"
                    }
                  ],
                  "internalType": "struct ConsiderationItem[]",
                  "name": "consideration",
                  "type": "tuple[]"
                },
                {
                  "internalType": "enum OrderType",
                  "name": "orderType",
                  "type": "uint8"
                },
                {
                  "internalType": "uint256",
                  "name": "startTime",
                  "type": "uint256"
                },
                {
                  "internalType": "uint256",
                  "name": "endTime",
                  "type": "uint256"
                },
                {
                  "internalType": "bytes32",
                  "name": "zoneHash",
                  "type": "bytes32"
                },
                {
                  "internalType": "uint256",
                  "name": "salt",
                  "type": "uint256"
                },
                {
                  "internalType": "bytes32",
                  "name": "conduitKey",
                  "type": "bytes32"
                },
                {
                  "internalType": "uint256",
                  "name": "totalOriginalConsiderationItems",
                  "type": "uint256"
                }
              ],
              "internalType": "struct OrderParameters",
              "name": "parameters",
              "type": "tuple"
            },
            {
              "internalType": "uint120",
              "name": "numerator",
              "type": "uint120"
            },
            {
              "internalType": "uint120",
              "name": "denominator",
              "type": "uint120"
            },
            {
              "internalType": "bytes",
              "name": "signature",
              "type": "bytes"
            },
            {
              "internalType": "bytes",
              "name": "extraData",
              "type": "bytes"
            }
          ],
          "internalType": "struct AdvancedOrder",
          "name": "advancedOrder",
          "type": "tuple"
        },
        {
          "components": [
            {
              "internalType": "uint256",
              "name": "orderIndex",
              "type": "uint256"
            },
            {
              "internalType": "enum Side",
              "name": "side",
              "type": "uint8"
            },
            {
              "internalType": "uint256",
              "name": "index",
              "type": "uint256"
            },
            {
              "internalType": "uint256",
              "name": "identifier",
              "type": "uint256"
            },
            {
              "internalType": "bytes32[]",
              "name": "criteriaProof",
              "type": "bytes32[]"
            }
          ],
          "internalType": "struct CriteriaResolver[]",
          "name": "criteriaResolvers",
          "type": "tuple[]"
        },
        {
          "internalType": "bytes32",
          "name": "fulfillerConduitKey",
          "type": "bytes32"
        },
        {
          "internalType": "address",
          "name": "recipient",
          "type": "address"
        },
        {
          "internalType": "address",
          "name": "_operator",
          "type": "address"
        },
        {
          "internalType": "uint8",
          "name": "_v",
          "type": "uint8"
        },
        {
          "internalType": "bytes32",
          "name": "_r",
          "type": "bytes32"
        },
        {
          "internalType": "bytes32",
          "name": "_s",
          "type": "bytes32"
        }
      ],
      "name": "fulfillAdvancedOrder",
      "outputs": [
        {
          "internalType": "bool",
          "name": "fulfilled",
          "type": "bool"
        }
      ],
      "stateMutability": "payable",
      "type": "function"
    },
    {
      "inputs": [],
      "name": "seaportAddress",
      "outputs": [
        {
          "internalType": "address",
          "name": "",
          "type": "address"
        }
      ],
      "stateMutability": "view",
      "type": "function"
    },
    {
      "inputs": [],
      "name": "storefrontAddress",
      "outputs": [
        {
          "internalType": "address",
          "name": "",
          "type": "address"
        }
      ],
      "stateMutability": "view",
      "type": "function"
    }
  ],
  "bytecode": {
    "object": "0x608060405234801561001057600080fd5b50604051610dcf380380610dcf83398101604081905261002f9161007c565b600080546001600160a01b039384166001600160a01b031991821617909155600180549290931691161790556100af565b80516001600160a01b038116811461007757600080fd5b919050565b6000806040838503121561008f57600080fd5b61009883610060565b91506100a660208401610060565b90509250929050565b610d11806100be6000396000f3fe6080604052600436106100345760003560e01c806352c6bfeb146100395780635e407294146100905780638b4cd1fd146100bd575b600080fd5b34801561004557600080fd5b506000546100669073ffffffffffffffffffffffffffffffffffffffff1681565b60405173ffffffffffffffffffffffffffffffffffffffff90911681526020015b60405180910390f35b34801561009c57600080fd5b506001546100669073ffffffffffffffffffffffffffffffffffffffff1681565b6100d06100cb366004610403565b6100e0565b6040519015158152602001610087565b60015460009073ffffffffffffffffffffffffffffffffffffffff16816101078c806104f4565b610115906040810190610532565b6040517f40c10f1900000000000000000000000000000000000000000000000000000000815273ffffffffffffffffffffffffffffffffffffffff8b811660048301526024820183905291935090841691506340c10f1990604401600060405180830381600087803b15801561018a57600080fd5b505af115801561019e573d6000803e3d6000fd5b50506040517fcfa8fb4200000000000000000000000000000000000000000000000000000000815273ffffffffffffffffffffffffffffffffffffffff8b811660048301528a81166024830152600160448301527fffffffffffffffffffffffffffffffffffffffffffffffffffffffffffffffff606483015260ff8a16608483015260a4820189905260c482018890528516925063cfa8fb42915060e401600060405180830381600087803b15801561025757600080fd5b505af115801561026b573d6000803e3d6000fd5b5050505060008060009054906101000a900473ffffffffffffffffffffffffffffffffffffffff1690508073ffffffffffffffffffffffffffffffffffffffff1663e7acab24348f8f8f8f8f6040518763ffffffff1660e01b81526004016102d7959493929190610a41565b60206040518083038185885af11580156102f5573d6000803e3d6000fd5b50505050506040513d601f19601f8201168201806040525081019061031a9190610cb2565b9350836103ad576040517f08c379a000000000000000000000000000000000000000000000000000000000815260206004820152602560248201527f536561706f7274206f7264657220756e61626c6520746f2062652066756c666960448201527f6c6c65642e000000000000000000000000000000000000000000000000000000606482015260840160405180910390fd5b5050509998505050505050505050565b73ffffffffffffffffffffffffffffffffffffffff811681146103df57600080fd5b50565b80356103ed816103bd565b919050565b803560ff811681146103ed57600080fd5b60008060008060008060008060006101008a8c03121561042257600080fd5b893567ffffffffffffffff8082111561043a57600080fd5b908b019060a0828e03121561044e57600080fd5b90995060208b0135908082111561046457600080fd5b818c0191508c601f83011261047857600080fd5b81358181111561048757600080fd5b8d60208260051b850101111561049c57600080fd5b602083019a5080995050505060408a013595506104bb60608b016103e2565b94506104c960808b016103e2565b93506104d760a08b016103f2565b925060c08a0135915060e08a013590509295985092959850929598565b600082357ffffffffffffffffffffffffffffffffffffffffffffffffffffffffffffffea183360301811261052857600080fd5b9190910192915050565b60008083357fffffffffffffffffffffffffffffffffffffffffffffffffffffffffffffffe184360301811261056757600080fd5b83018035915067ffffffffffffffff82111561058257600080fd5b602001915060a08102360382131561059957600080fd5b9250929050565b60008083357fffffffffffffffffffffffffffffffffffffffffffffffffffffffffffffffe18436030181126105d557600080fd5b830160208101925035905067ffffffffffffffff8111156105f557600080fd5b60a08102360382131561059957600080fd5b8035600681106103ed57600080fd5b7f4e487b7100000000000000000000000000000000000000000000000000000000600052602160045260246000fd5b6006811061065557610655610616565b9052565b8183526000602080850194508260005b858110156106da576106838761067e84610607565b610645565b82820135610690816103bd565b73ffffffffffffffffffffffffffffffffffffffff168784015260408281013590880152606080830135908801526080808301359088015260a09687019690910190600101610669565b509495945050505050565b60008083357fffffffffffffffffffffffffffffffffffffffffffffffffffffffffffffffe184360301811261071a57600080fd5b830160208101925035905067ffffffffffffffff81111561073a57600080fd5b60c08102360382131561059957600080fd5b8183526000602080850194508260005b858110156106da576107718761067e84610607565b8282013561077e816103bd565b73ffffffffffffffffffffffffffffffffffffffff9081168885015260408381013590890152606080840135908901526080808401359089015260a090818401356107c8816103bd565b169088015260c096870196919091019060010161075c565b8035600481106103ed57600080fd5b6004811061065557610655610616565b80356effffffffffffffffffffffffffffff811681146103ed57600080fd5b60008083357fffffffffffffffffffffffffffffffffffffffffffffffffffffffffffffffe184360301811261085357600080fd5b830160208101925035905067ffffffffffffffff81111561087357600080fd5b80360382131561059957600080fd5b8183528181602085013750600060208284010152600060207fffffffffffffffffffffffffffffffffffffffffffffffffffffffffffffffe0601f840116840101905092915050565b81835260007f07ffffffffffffffffffffffffffffffffffffffffffffffffffffffffffffff8311156108fd57600080fd5b8260051b8083602087013760009401602001938452509192915050565b81835260006020808501808196506005915085821b81018560005b88811015610a33578383038a5281357fffffffffffffffffffffffffffffffffffffffffffffffffffffffffffffff6189360301811261097457600080fd5b88018035845260a0878201356002811061098d57600080fd5b858901526040828101359086015260608083013590860152608080830135368490037fffffffffffffffffffffffffffffffffffffffffffffffffffffffffffffffe10181126109dc57600080fd5b90920188810192903567ffffffffffffffff8111156109fa57600080fd5b80891b3603841315610a0b57600080fd5b8282880152610a1d83880182866108cb565b9d8a019d96505050928701925050600101610935565b509098975050505050505050565b60808152600061012087357ffffffffffffffffffffffffffffffffffffffffffffffffffffffffffffffea1893603018112610a7c57600080fd5b60a060808501528801610aae828501610a94836103e2565b73ffffffffffffffffffffffffffffffffffffffff169052565b610aba602082016103e2565b610140610ade8187018373ffffffffffffffffffffffffffffffffffffffff169052565b610aeb60408401846105a0565b610160888101529250610b0361028088018483610659565b925050610b1360608401846106e5565b7ffffffffffffffffffffffffffffffffffffffffffffffffffffffffffffffee088850301610180890152610b4984828461074c565b93505050610b59608084016107e0565b610b676101a08801826107ef565b5060a08301356101c087015260c08301356101e087015260e0830135610200870152610100808401356102208801528484013561024088015281840135610260880152610bb660208d016107ff565b6effffffffffffffffffffffffffffff811660a08901529450610bdb60408d016107ff565b6effffffffffffffffffffffffffffff811660c08901529450610c0160608d018d61081e565b955093507fffffffffffffffffffffffffffffffffffffffffffffffffffffffffffffff809150818784030160e0880152610c3d838686610882565b9450610c4c60808d018d61081e565b945092508187860301818801525050610c66838383610882565b925050508281036020840152610c7d81878961091a565b915050836040830152610ca8606083018473ffffffffffffffffffffffffffffffffffffffff169052565b9695505050505050565b600060208284031215610cc457600080fd5b81518015158114610cd457600080fd5b939250505056fea2646970667358221220af0ed3d1a01d5c990439a07b6fdf8c550e0d3b339f163c29de2930f27536dcd864736f6c634300080e0033",
    "linkReferences": {}
  },
  "methodIdentifiers": {
    "fulfillAdvancedOrder(((address,address,(uint8,address,uint256,uint256,uint256)[],(uint8,address,uint256,uint256,uint256,address)[],uint8,uint256,uint256,bytes32,uint256,bytes32,uint256),uint120,uint120,bytes,bytes),(uint256,uint8,uint256,uint256,bytes32[])[],bytes32,address,address,uint8,bytes32,bytes32)": "8b4cd1fd",
    "seaportAddress()": "52c6bfeb",
    "storefrontAddress()": "5e407294"
  },
  "id": 0
}