{
  "abi": [
    {
      "inputs": [
        {
          "internalType": "address",
          "name": "_seaportAddress",
          "type": "address"
        },
        {
          "internalType": "address",
          "name": "_storefrontAddress",
          "type": "address"
        }
      ],
      "stateMutability": "nonpayable",
      "type": "constructor"
    },
    {
      "inputs": [
        {
          "components": [
            {
              "components": [
                {
                  "internalType": "address",
                  "name": "offerer",
                  "type": "address"
                },
                {
                  "internalType": "address",
                  "name": "zone",
                  "type": "address"
                },
                {
                  "components": [
                    {
                      "internalType": "enum ItemType",
                      "name": "itemType",
                      "type": "uint8"
                    },
                    {
                      "internalType": "address",
                      "name": "token",
                      "type": "address"
                    },
                    {
                      "internalType": "uint256",
                      "name": "identifierOrCriteria",
                      "type": "uint256"
                    },
                    {
                      "internalType": "uint256",
                      "name": "startAmount",
                      "type": "uint256"
                    },
                    {
                      "internalType": "uint256",
                      "name": "endAmount",
                      "type": "uint256"
                    }
                  ],
                  "internalType": "struct OfferItem[]",
                  "name": "offer",
                  "type": "tuple[]"
                },
                {
                  "components": [
                    {
                      "internalType": "enum ItemType",
                      "name": "itemType",
                      "type": "uint8"
                    },
                    {
                      "internalType": "address",
                      "name": "token",
                      "type": "address"
                    },
                    {
                      "internalType": "uint256",
                      "name": "identifierOrCriteria",
                      "type": "uint256"
                    },
                    {
                      "internalType": "uint256",
                      "name": "startAmount",
                      "type": "uint256"
                    },
                    {
                      "internalType": "uint256",
                      "name": "endAmount",
                      "type": "uint256"
                    },
                    {
                      "internalType": "address payable",
                      "name": "recipient",
                      "type": "address"
                    }
                  ],
                  "internalType": "struct ConsiderationItem[]",
                  "name": "consideration",
                  "type": "tuple[]"
                },
                {
                  "internalType": "enum OrderType",
                  "name": "orderType",
                  "type": "uint8"
                },
                {
                  "internalType": "uint256",
                  "name": "startTime",
                  "type": "uint256"
                },
                {
                  "internalType": "uint256",
                  "name": "endTime",
                  "type": "uint256"
                },
                {
                  "internalType": "bytes32",
                  "name": "zoneHash",
                  "type": "bytes32"
                },
                {
                  "internalType": "uint256",
                  "name": "salt",
                  "type": "uint256"
                },
                {
                  "internalType": "bytes32",
                  "name": "conduitKey",
                  "type": "bytes32"
                },
                {
                  "internalType": "uint256",
                  "name": "totalOriginalConsiderationItems",
                  "type": "uint256"
                }
              ],
              "internalType": "struct OrderParameters",
              "name": "parameters",
              "type": "tuple"
            },
            {
              "internalType": "uint120",
              "name": "numerator",
              "type": "uint120"
            },
            {
              "internalType": "uint120",
              "name": "denominator",
              "type": "uint120"
            },
            {
              "internalType": "bytes",
              "name": "signature",
              "type": "bytes"
            },
            {
              "internalType": "bytes",
              "name": "extraData",
              "type": "bytes"
            }
          ],
          "internalType": "struct AdvancedOrder",
          "name": "advancedOrder",
          "type": "tuple"
        },
        {
          "components": [
            {
              "internalType": "uint256",
              "name": "orderIndex",
              "type": "uint256"
            },
            {
              "internalType": "enum Side",
              "name": "side",
              "type": "uint8"
            },
            {
              "internalType": "uint256",
              "name": "index",
              "type": "uint256"
            },
            {
              "internalType": "uint256",
              "name": "identifier",
              "type": "uint256"
            },
            {
              "internalType": "bytes32[]",
              "name": "criteriaProof",
              "type": "bytes32[]"
            }
          ],
          "internalType": "struct CriteriaResolver[]",
          "name": "criteriaResolvers",
          "type": "tuple[]"
        },
        {
          "internalType": "bytes32",
          "name": "fulfillerConduitKey",
          "type": "bytes32"
        },
        {
          "internalType": "address",
          "name": "recipient",
          "type": "address"
        }
      ],
      "name": "fulfillAdvancedOrder",
      "outputs": [
        {
          "internalType": "bool",
          "name": "fulfilled",
          "type": "bool"
        }
      ],
      "stateMutability": "payable",
      "type": "function"
    },
    {
      "inputs": [
        {
          "components": [
            {
              "components": [
                {
                  "internalType": "address",
                  "name": "offerer",
                  "type": "address"
                },
                {
                  "internalType": "address",
                  "name": "zone",
                  "type": "address"
                },
                {
                  "components": [
                    {
                      "internalType": "enum ItemType",
                      "name": "itemType",
                      "type": "uint8"
                    },
                    {
                      "internalType": "address",
                      "name": "token",
                      "type": "address"
                    },
                    {
                      "internalType": "uint256",
                      "name": "identifierOrCriteria",
                      "type": "uint256"
                    },
                    {
                      "internalType": "uint256",
                      "name": "startAmount",
                      "type": "uint256"
                    },
                    {
                      "internalType": "uint256",
                      "name": "endAmount",
                      "type": "uint256"
                    }
                  ],
                  "internalType": "struct OfferItem[]",
                  "name": "offer",
                  "type": "tuple[]"
                },
                {
                  "components": [
                    {
                      "internalType": "enum ItemType",
                      "name": "itemType",
                      "type": "uint8"
                    },
                    {
                      "internalType": "address",
                      "name": "token",
                      "type": "address"
                    },
                    {
                      "internalType": "uint256",
                      "name": "identifierOrCriteria",
                      "type": "uint256"
                    },
                    {
                      "internalType": "uint256",
                      "name": "startAmount",
                      "type": "uint256"
                    },
                    {
                      "internalType": "uint256",
                      "name": "endAmount",
                      "type": "uint256"
                    },
                    {
                      "internalType": "address payable",
                      "name": "recipient",
                      "type": "address"
                    }
                  ],
                  "internalType": "struct ConsiderationItem[]",
                  "name": "consideration",
                  "type": "tuple[]"
                },
                {
                  "internalType": "enum OrderType",
                  "name": "orderType",
                  "type": "uint8"
                },
                {
                  "internalType": "uint256",
                  "name": "startTime",
                  "type": "uint256"
                },
                {
                  "internalType": "uint256",
                  "name": "endTime",
                  "type": "uint256"
                },
                {
                  "internalType": "bytes32",
                  "name": "zoneHash",
                  "type": "bytes32"
                },
                {
                  "internalType": "uint256",
                  "name": "salt",
                  "type": "uint256"
                },
                {
                  "internalType": "bytes32",
                  "name": "conduitKey",
                  "type": "bytes32"
                },
                {
                  "internalType": "uint256",
                  "name": "totalOriginalConsiderationItems",
                  "type": "uint256"
                }
              ],
              "internalType": "struct OrderParameters",
              "name": "parameters",
              "type": "tuple"
            },
            {
              "internalType": "uint120",
              "name": "numerator",
              "type": "uint120"
            },
            {
              "internalType": "uint120",
              "name": "denominator",
              "type": "uint120"
            },
            {
              "internalType": "bytes",
              "name": "signature",
              "type": "bytes"
            },
            {
              "internalType": "bytes",
              "name": "extraData",
              "type": "bytes"
            }
          ],
          "internalType": "struct AdvancedOrder",
          "name": "advancedOrder",
          "type": "tuple"
        },
        {
          "components": [
            {
              "internalType": "uint256",
              "name": "orderIndex",
              "type": "uint256"
            },
            {
              "internalType": "enum Side",
              "name": "side",
              "type": "uint8"
            },
            {
              "internalType": "uint256",
              "name": "index",
              "type": "uint256"
            },
            {
              "internalType": "uint256",
              "name": "identifier",
              "type": "uint256"
            },
            {
              "internalType": "bytes32[]",
              "name": "criteriaProof",
              "type": "bytes32[]"
            }
          ],
          "internalType": "struct CriteriaResolver[]",
          "name": "criteriaResolvers",
          "type": "tuple[]"
        },
        {
          "internalType": "bytes32",
          "name": "fulfillerConduitKey",
          "type": "bytes32"
        },
        {
          "internalType": "address",
          "name": "recipient",
          "type": "address"
        },
        {
          "internalType": "address",
          "name": "_operator",
          "type": "address"
        },
        {
          "internalType": "uint8",
          "name": "_v",
          "type": "uint8"
        },
        {
          "internalType": "bytes32",
          "name": "_r",
          "type": "bytes32"
        },
        {
          "internalType": "bytes32",
          "name": "_s",
          "type": "bytes32"
        }
      ],
      "name": "fulfillAdvancedOrderWithPermit",
      "outputs": [
        {
          "internalType": "bool",
          "name": "fulfilled",
          "type": "bool"
        }
      ],
      "stateMutability": "payable",
      "type": "function"
    },
    {
      "inputs": [],
      "name": "seaportAddress",
      "outputs": [
        {
          "internalType": "address",
          "name": "",
          "type": "address"
        }
      ],
      "stateMutability": "view",
      "type": "function"
    },
    {
      "inputs": [],
      "name": "storefrontAddress",
      "outputs": [
        {
          "internalType": "address",
          "name": "",
          "type": "address"
        }
      ],
      "stateMutability": "view",
      "type": "function"
    }
  ],
  "bytecode": {
    "object": "0x608060405234801561001057600080fd5b5060405161109938038061109983398101604081905261002f9161007c565b600080546001600160a01b039384166001600160a01b031991821617909155600180549290931691161790556100af565b80516001600160a01b038116811461007757600080fd5b919050565b6000806040838503121561008f57600080fd5b61009883610060565b91506100a660208401610060565b90509250929050565b610fdb806100be6000396000f3fe60806040526004361061003f5760003560e01c806352c6bfeb146100445780635e4072941461009b5780638f38f40b146100c8578063e7acab24146100eb575b600080fd5b34801561005057600080fd5b506000546100719073ffffffffffffffffffffffffffffffffffffffff1681565b60405173ffffffffffffffffffffffffffffffffffffffff90911681526020015b60405180910390f35b3480156100a757600080fd5b506001546100719073ffffffffffffffffffffffffffffffffffffffff1681565b6100db6100d6366004610677565b6100fe565b6040519015158152602001610092565b6100db6100f936600461073d565b6103dc565b60015460009073ffffffffffffffffffffffffffffffffffffffff16816101258c806107c5565b610133906040810190610803565b6040517f40c10f1900000000000000000000000000000000000000000000000000000000815273ffffffffffffffffffffffffffffffffffffffff8b811660048301526024820183905291935090841691506340c10f1990604401600060405180830381600087803b1580156101a857600080fd5b505af11580156101bc573d6000803e3d6000fd5b50506040517fcfa8fb4200000000000000000000000000000000000000000000000000000000815273ffffffffffffffffffffffffffffffffffffffff8b811660048301528a81166024830152600160448301527fffffffffffffffffffffffffffffffffffffffffffffffffffffffffffffffff606483015260ff8a16608483015260a4820189905260c482018890528516925063cfa8fb42915060e401600060405180830381600087803b15801561027557600080fd5b505af1158015610289573d6000803e3d6000fd5b5050505060008060009054906101000a900473ffffffffffffffffffffffffffffffffffffffff1690508073ffffffffffffffffffffffffffffffffffffffff1663e7acab24348f8f8f8f8f6040518763ffffffff1660e01b81526004016102f5959493929190610d0b565b60206040518083038185885af1158015610313573d6000803e3d6000fd5b50505050506040513d601f19601f820116820180604052508101906103389190610f7c565b9350836103cc576040517f08c379a000000000000000000000000000000000000000000000000000000000815260206004820152602560248201527f536561706f7274206f7264657220756e61626c6520746f2062652066756c666960448201527f6c6c65642e00000000000000000000000000000000000000000000000000000060648201526084015b60405180910390fd5b5050509998505050505050505050565b60015460009073ffffffffffffffffffffffffffffffffffffffff168161040388806107c5565b610411906040810190610803565b6040517f40c10f1900000000000000000000000000000000000000000000000000000000815273ffffffffffffffffffffffffffffffffffffffff87811660048301526024820183905291935090841691506340c10f1990604401600060405180830381600087803b15801561048657600080fd5b505af115801561049a573d6000803e3d6000fd5b50506000546040517fe7acab2400000000000000000000000000000000000000000000000000000000815273ffffffffffffffffffffffffffffffffffffffff909116925082915063e7acab24903490610500908d908d908d908d908d90600401610d0b565b60206040518083038185885af115801561051e573d6000803e3d6000fd5b50505050506040513d601f19601f820116820180604052508101906105439190610f7c565b9350836105d2576040517f08c379a000000000000000000000000000000000000000000000000000000000815260206004820152602560248201527f536561706f7274206f7264657220756e61626c6520746f2062652066756c666960448201527f6c6c65642e00000000000000000000000000000000000000000000000000000060648201526084016103c3565b50505095945050505050565b600060a082840312156105f057600080fd5b50919050565b60008083601f84011261060857600080fd5b50813567ffffffffffffffff81111561062057600080fd5b6020830191508360208260051b850101111561063b57600080fd5b9250929050565b73ffffffffffffffffffffffffffffffffffffffff8116811461066457600080fd5b50565b803561067281610642565b919050565b60008060008060008060008060006101008a8c03121561069657600080fd5b893567ffffffffffffffff808211156106ae57600080fd5b6106ba8d838e016105de565b9a5060208c01359150808211156106d057600080fd5b506106dd8c828d016105f6565b90995097505060408a0135955060608a01356106f881610642565b945060808a013561070881610642565b935060a08a013560ff8116811461071e57600080fd5b8093505060c08a0135915060e08a013590509295985092959850929598565b60008060008060006080868803121561075557600080fd5b853567ffffffffffffffff8082111561076d57600080fd5b61077989838a016105de565b9650602088013591508082111561078f57600080fd5b5061079c888289016105f6565b9095509350506040860135915060608601356107b781610642565b809150509295509295909350565b600082357ffffffffffffffffffffffffffffffffffffffffffffffffffffffffffffffea18336030181126107f957600080fd5b9190910192915050565b60008083357fffffffffffffffffffffffffffffffffffffffffffffffffffffffffffffffe184360301811261083857600080fd5b83018035915067ffffffffffffffff82111561085357600080fd5b602001915060a08102360382131561063b57600080fd5b60008083357fffffffffffffffffffffffffffffffffffffffffffffffffffffffffffffffe184360301811261089f57600080fd5b830160208101925035905067ffffffffffffffff8111156108bf57600080fd5b60a08102360382131561063b57600080fd5b80356006811061067257600080fd5b7f4e487b7100000000000000000000000000000000000000000000000000000000600052602160045260246000fd5b6006811061091f5761091f6108e0565b9052565b8183526000602080850194508260005b858110156109a45761094d87610948846108d1565b61090f565b8282013561095a81610642565b73ffffffffffffffffffffffffffffffffffffffff168784015260408281013590880152606080830135908801526080808301359088015260a09687019690910190600101610933565b509495945050505050565b60008083357fffffffffffffffffffffffffffffffffffffffffffffffffffffffffffffffe18436030181126109e457600080fd5b830160208101925035905067ffffffffffffffff811115610a0457600080fd5b60c08102360382131561063b57600080fd5b8183526000602080850194508260005b858110156109a457610a3b87610948846108d1565b82820135610a4881610642565b73ffffffffffffffffffffffffffffffffffffffff9081168885015260408381013590890152606080840135908901526080808401359089015260a09081840135610a9281610642565b169088015260c0968701969190910190600101610a26565b80356004811061067257600080fd5b6004811061091f5761091f6108e0565b80356effffffffffffffffffffffffffffff8116811461067257600080fd5b60008083357fffffffffffffffffffffffffffffffffffffffffffffffffffffffffffffffe1843603018112610b1d57600080fd5b830160208101925035905067ffffffffffffffff811115610b3d57600080fd5b80360382131561063b57600080fd5b8183528181602085013750600060208284010152600060207fffffffffffffffffffffffffffffffffffffffffffffffffffffffffffffffe0601f840116840101905092915050565b81835260007f07ffffffffffffffffffffffffffffffffffffffffffffffffffffffffffffff831115610bc757600080fd5b8260051b8083602087013760009401602001938452509192915050565b81835260006020808501808196506005915085821b81018560005b88811015610cfd578383038a5281357fffffffffffffffffffffffffffffffffffffffffffffffffffffffffffffff61893603018112610c3e57600080fd5b88018035845260a08782013560028110610c5757600080fd5b858901526040828101359086015260608083013590860152608080830135368490037fffffffffffffffffffffffffffffffffffffffffffffffffffffffffffffffe1018112610ca657600080fd5b90920188810192903567ffffffffffffffff811115610cc457600080fd5b80891b3603841315610cd557600080fd5b8282880152610ce78388018286610b95565b9d8a019d96505050928701925050600101610bff565b509098975050505050505050565b60808152600061012087357ffffffffffffffffffffffffffffffffffffffffffffffffffffffffffffffea1893603018112610d4657600080fd5b60a060808501528801610d78828501610d5e83610667565b73ffffffffffffffffffffffffffffffffffffffff169052565b610d8460208201610667565b610140610da88187018373ffffffffffffffffffffffffffffffffffffffff169052565b610db5604084018461086a565b610160888101529250610dcd61028088018483610923565b925050610ddd60608401846109af565b7ffffffffffffffffffffffffffffffffffffffffffffffffffffffffffffffee088850301610180890152610e13848284610a16565b93505050610e2360808401610aaa565b610e316101a0880182610ab9565b5060a08301356101c087015260c08301356101e087015260e0830135610200870152610100808401356102208801528484013561024088015281840135610260880152610e8060208d01610ac9565b6effffffffffffffffffffffffffffff811660a08901529450610ea560408d01610ac9565b6effffffffffffffffffffffffffffff811660c08901529450610ecb60608d018d610ae8565b955093507fffffffffffffffffffffffffffffffffffffffffffffffffffffffffffffff809150818784030160e0880152610f07838686610b4c565b9450610f1660808d018d610ae8565b945092508187860301818801525050610f30838383610b4c565b925050508281036020840152610f47818789610be4565b915050836040830152610f72606083018473ffffffffffffffffffffffffffffffffffffffff169052565b9695505050505050565b600060208284031215610f8e57600080fd5b81518015158114610f9e57600080fd5b939250505056fea2646970667358221220445235ee8cec03aee3011d321ad15a7032d51471878edd08a5eff504d8ae1ea564736f6c634300080e0033",
    "linkReferences": {}
  },
  "methodIdentifiers": {
    "fulfillAdvancedOrder(((address,address,(uint8,address,uint256,uint256,uint256)[],(uint8,address,uint256,uint256,uint256,address)[],uint8,uint256,uint256,bytes32,uint256,bytes32,uint256),uint120,uint120,bytes,bytes),(uint256,uint8,uint256,uint256,bytes32[])[],bytes32,address)": "e7acab24",
    "fulfillAdvancedOrderWithPermit(((address,address,(uint8,address,uint256,uint256,uint256)[],(uint8,address,uint256,uint256,uint256,address)[],uint8,uint256,uint256,bytes32,uint256,bytes32,uint256),uint120,uint120,bytes,bytes),(uint256,uint8,uint256,uint256,bytes32[])[],bytes32,address,address,uint8,bytes32,bytes32)": "8f38f40b",
    "seaportAddress()": "52c6bfeb",
    "storefrontAddress()": "5e407294"
  },
  "id": 0
}