{
  "abi": [
    {
      "inputs": [
        {
          "internalType": "address",
          "name": "_seaportAddress",
          "type": "address"
        },
        {
          "internalType": "address",
          "name": "_storefrontAddress",
          "type": "address"
        }
      ],
      "stateMutability": "nonpayable",
      "type": "constructor"
    },
    {
      "anonymous": false,
      "inputs": [
        {
          "indexed": true,
          "internalType": "address",
          "name": "previousOwner",
          "type": "address"
        },
        {
          "indexed": true,
          "internalType": "address",
          "name": "newOwner",
          "type": "address"
        }
      ],
      "name": "OwnershipTransferred",
      "type": "event"
    },
    {
      "inputs": [
        {
          "components": [
            {
              "components": [
                {
                  "internalType": "address",
                  "name": "offerer",
                  "type": "address"
                },
                {
                  "internalType": "address",
                  "name": "zone",
                  "type": "address"
                },
                {
                  "components": [
                    {
                      "internalType": "enum ItemType",
                      "name": "itemType",
                      "type": "uint8"
                    },
                    {
                      "internalType": "address",
                      "name": "token",
                      "type": "address"
                    },
                    {
                      "internalType": "uint256",
                      "name": "identifierOrCriteria",
                      "type": "uint256"
                    },
                    {
                      "internalType": "uint256",
                      "name": "startAmount",
                      "type": "uint256"
                    },
                    {
                      "internalType": "uint256",
                      "name": "endAmount",
                      "type": "uint256"
                    }
                  ],
                  "internalType": "struct OfferItem[]",
                  "name": "offer",
                  "type": "tuple[]"
                },
                {
                  "components": [
                    {
                      "internalType": "enum ItemType",
                      "name": "itemType",
                      "type": "uint8"
                    },
                    {
                      "internalType": "address",
                      "name": "token",
                      "type": "address"
                    },
                    {
                      "internalType": "uint256",
                      "name": "identifierOrCriteria",
                      "type": "uint256"
                    },
                    {
                      "internalType": "uint256",
                      "name": "startAmount",
                      "type": "uint256"
                    },
                    {
                      "internalType": "uint256",
                      "name": "endAmount",
                      "type": "uint256"
                    },
                    {
                      "internalType": "address payable",
                      "name": "recipient",
                      "type": "address"
                    }
                  ],
                  "internalType": "struct ConsiderationItem[]",
                  "name": "consideration",
                  "type": "tuple[]"
                },
                {
                  "internalType": "enum OrderType",
                  "name": "orderType",
                  "type": "uint8"
                },
                {
                  "internalType": "uint256",
                  "name": "startTime",
                  "type": "uint256"
                },
                {
                  "internalType": "uint256",
                  "name": "endTime",
                  "type": "uint256"
                },
                {
                  "internalType": "bytes32",
                  "name": "zoneHash",
                  "type": "bytes32"
                },
                {
                  "internalType": "uint256",
                  "name": "salt",
                  "type": "uint256"
                },
                {
                  "internalType": "bytes32",
                  "name": "conduitKey",
                  "type": "bytes32"
                },
                {
                  "internalType": "uint256",
                  "name": "totalOriginalConsiderationItems",
                  "type": "uint256"
                }
              ],
              "internalType": "struct OrderParameters",
              "name": "parameters",
              "type": "tuple"
            },
            {
              "internalType": "uint120",
              "name": "numerator",
              "type": "uint120"
            },
            {
              "internalType": "uint120",
              "name": "denominator",
              "type": "uint120"
            },
            {
              "internalType": "bytes",
              "name": "signature",
              "type": "bytes"
            },
            {
              "internalType": "bytes",
              "name": "extraData",
              "type": "bytes"
            }
          ],
          "internalType": "struct AdvancedOrder",
          "name": "advancedOrder",
          "type": "tuple"
        },
        {
          "components": [
            {
              "internalType": "uint256",
              "name": "orderIndex",
              "type": "uint256"
            },
            {
              "internalType": "enum Side",
              "name": "side",
              "type": "uint8"
            },
            {
              "internalType": "uint256",
              "name": "index",
              "type": "uint256"
            },
            {
              "internalType": "uint256",
              "name": "identifier",
              "type": "uint256"
            },
            {
              "internalType": "bytes32[]",
              "name": "criteriaProof",
              "type": "bytes32[]"
            }
          ],
          "internalType": "struct CriteriaResolver[]",
          "name": "criteriaResolvers",
          "type": "tuple[]"
        },
        {
          "internalType": "bytes32",
          "name": "fulfillerConduitKey",
          "type": "bytes32"
        },
        {
          "internalType": "address",
          "name": "recipient",
          "type": "address"
        }
      ],
      "name": "fulfillAdvancedOrder",
      "outputs": [
        {
          "internalType": "bool",
          "name": "fulfilled",
          "type": "bool"
        }
      ],
      "stateMutability": "payable",
      "type": "function"
    },
    {
      "inputs": [
        {
          "components": [
            {
              "components": [
                {
                  "internalType": "address",
                  "name": "offerer",
                  "type": "address"
                },
                {
                  "internalType": "address",
                  "name": "zone",
                  "type": "address"
                },
                {
                  "components": [
                    {
                      "internalType": "enum ItemType",
                      "name": "itemType",
                      "type": "uint8"
                    },
                    {
                      "internalType": "address",
                      "name": "token",
                      "type": "address"
                    },
                    {
                      "internalType": "uint256",
                      "name": "identifierOrCriteria",
                      "type": "uint256"
                    },
                    {
                      "internalType": "uint256",
                      "name": "startAmount",
                      "type": "uint256"
                    },
                    {
                      "internalType": "uint256",
                      "name": "endAmount",
                      "type": "uint256"
                    }
                  ],
                  "internalType": "struct OfferItem[]",
                  "name": "offer",
                  "type": "tuple[]"
                },
                {
                  "components": [
                    {
                      "internalType": "enum ItemType",
                      "name": "itemType",
                      "type": "uint8"
                    },
                    {
                      "internalType": "address",
                      "name": "token",
                      "type": "address"
                    },
                    {
                      "internalType": "uint256",
                      "name": "identifierOrCriteria",
                      "type": "uint256"
                    },
                    {
                      "internalType": "uint256",
                      "name": "startAmount",
                      "type": "uint256"
                    },
                    {
                      "internalType": "uint256",
                      "name": "endAmount",
                      "type": "uint256"
                    },
                    {
                      "internalType": "address payable",
                      "name": "recipient",
                      "type": "address"
                    }
                  ],
                  "internalType": "struct ConsiderationItem[]",
                  "name": "consideration",
                  "type": "tuple[]"
                },
                {
                  "internalType": "enum OrderType",
                  "name": "orderType",
                  "type": "uint8"
                },
                {
                  "internalType": "uint256",
                  "name": "startTime",
                  "type": "uint256"
                },
                {
                  "internalType": "uint256",
                  "name": "endTime",
                  "type": "uint256"
                },
                {
                  "internalType": "bytes32",
                  "name": "zoneHash",
                  "type": "bytes32"
                },
                {
                  "internalType": "uint256",
                  "name": "salt",
                  "type": "uint256"
                },
                {
                  "internalType": "bytes32",
                  "name": "conduitKey",
                  "type": "bytes32"
                },
                {
                  "internalType": "uint256",
                  "name": "totalOriginalConsiderationItems",
                  "type": "uint256"
                }
              ],
              "internalType": "struct OrderParameters",
              "name": "parameters",
              "type": "tuple"
            },
            {
              "internalType": "uint120",
              "name": "numerator",
              "type": "uint120"
            },
            {
              "internalType": "uint120",
              "name": "denominator",
              "type": "uint120"
            },
            {
              "internalType": "bytes",
              "name": "signature",
              "type": "bytes"
            },
            {
              "internalType": "bytes",
              "name": "extraData",
              "type": "bytes"
            }
          ],
          "internalType": "struct AdvancedOrder",
          "name": "advancedOrder",
          "type": "tuple"
        },
        {
          "components": [
            {
              "internalType": "uint256",
              "name": "orderIndex",
              "type": "uint256"
            },
            {
              "internalType": "enum Side",
              "name": "side",
              "type": "uint8"
            },
            {
              "internalType": "uint256",
              "name": "index",
              "type": "uint256"
            },
            {
              "internalType": "uint256",
              "name": "identifier",
              "type": "uint256"
            },
            {
              "internalType": "bytes32[]",
              "name": "criteriaProof",
              "type": "bytes32[]"
            }
          ],
          "internalType": "struct CriteriaResolver[]",
          "name": "criteriaResolvers",
          "type": "tuple[]"
        },
        {
          "internalType": "bytes32",
          "name": "fulfillerConduitKey",
          "type": "bytes32"
        },
        {
          "internalType": "address",
          "name": "recipient",
          "type": "address"
        },
        {
          "internalType": "address",
          "name": "_operator",
          "type": "address"
        },
        {
          "internalType": "uint8",
          "name": "_v",
          "type": "uint8"
        },
        {
          "internalType": "bytes32",
          "name": "_r",
          "type": "bytes32"
        },
        {
          "internalType": "bytes32",
          "name": "_s",
          "type": "bytes32"
        }
      ],
      "name": "fulfillAdvancedOrderWithPermit",
      "outputs": [
        {
          "internalType": "bool",
          "name": "fulfilled",
          "type": "bool"
        }
      ],
      "stateMutability": "payable",
      "type": "function"
    },
    {
      "inputs": [],
      "name": "owner",
      "outputs": [
        {
          "internalType": "address",
          "name": "",
          "type": "address"
        }
      ],
      "stateMutability": "view",
      "type": "function"
    },
    {
      "inputs": [],
      "name": "renounceOwnership",
      "outputs": [],
      "stateMutability": "nonpayable",
      "type": "function"
    },
    {
      "inputs": [],
      "name": "seaportAddress",
      "outputs": [
        {
          "internalType": "address",
          "name": "",
          "type": "address"
        }
      ],
      "stateMutability": "view",
      "type": "function"
    },
    {
      "inputs": [],
      "name": "storefrontAddress",
      "outputs": [
        {
          "internalType": "address",
          "name": "",
          "type": "address"
        }
      ],
      "stateMutability": "view",
      "type": "function"
    },
    {
      "inputs": [
        {
          "internalType": "address",
          "name": "newOwner",
          "type": "address"
        }
      ],
      "name": "transferOwnership",
      "outputs": [],
      "stateMutability": "nonpayable",
      "type": "function"
    },
    {
      "inputs": [
        {
          "internalType": "address",
          "name": "_newStoreFront",
          "type": "address"
        }
      ],
      "name": "updateStoreFront",
      "outputs": [],
      "stateMutability": "nonpayable",
      "type": "function"
    }
  ],
  "bytecode": {
    "object": "0x608060405234801561001057600080fd5b50604051620013de380380620013de833981016040819052610031916100d7565b61003a3361006b565b600180546001600160a01b039384166001600160a01b0319918216179091556002805492909316911617905561010a565b600080546001600160a01b038381166001600160a01b0319831681178455604051919092169283917f8be0079c531659141344cd1fd0a4f28419497f9722a3daafe3b4186f6b6457e09190a35050565b80516001600160a01b03811681146100d257600080fd5b919050565b600080604083850312156100ea57600080fd5b6100f3836100bb565b9150610101602084016100bb565b90509250929050565b6112c4806200011a6000396000f3fe60806040526004361061007b5760003560e01c80638f38f40b1161004e5780638f38f40b14610146578063a374172814610169578063e7acab2414610189578063f2fde38b1461019c57600080fd5b806352c6bfeb146100805780635e407294146100d7578063715018a6146101045780638da5cb5b1461011b575b600080fd5b34801561008c57600080fd5b506001546100ad9073ffffffffffffffffffffffffffffffffffffffff1681565b60405173ffffffffffffffffffffffffffffffffffffffff90911681526020015b60405180910390f35b3480156100e357600080fd5b506002546100ad9073ffffffffffffffffffffffffffffffffffffffff1681565b34801561011057600080fd5b506101196101bc565b005b34801561012757600080fd5b5060005473ffffffffffffffffffffffffffffffffffffffff166100ad565b610159610154366004610943565b6101d0565b60405190151581526020016100ce565b34801561017557600080fd5b50610119610184366004610a09565b6104af565b610159610197366004610a2d565b6104fe565b3480156101a857600080fd5b506101196101b7366004610a09565b610700565b6101c46107b7565b6101ce6000610838565b565b60025460009073ffffffffffffffffffffffffffffffffffffffff16816101f78c80610ab5565b610205906040810190610af3565b6040517f40c10f1900000000000000000000000000000000000000000000000000000000815273ffffffffffffffffffffffffffffffffffffffff8b811660048301526024820183905291935090841691506340c10f1990604401600060405180830381600087803b15801561027a57600080fd5b505af115801561028e573d6000803e3d6000fd5b50506040517fcfa8fb4200000000000000000000000000000000000000000000000000000000815273ffffffffffffffffffffffffffffffffffffffff8b811660048301528a81166024830152600160448301527fffffffffffffffffffffffffffffffffffffffffffffffffffffffffffffffff606483015260ff8a16608483015260a4820189905260c482018890528516925063cfa8fb42915060e401600060405180830381600087803b15801561034757600080fd5b505af115801561035b573d6000803e3d6000fd5b505050506000600160009054906101000a900473ffffffffffffffffffffffffffffffffffffffff1690508073ffffffffffffffffffffffffffffffffffffffff1663e7acab24348f8f8f8f8f6040518763ffffffff1660e01b81526004016103c8959493929190610ffb565b60206040518083038185885af11580156103e6573d6000803e3d6000fd5b50505050506040513d601f19601f8201168201806040525081019061040b919061126c565b93508361049f576040517f08c379a000000000000000000000000000000000000000000000000000000000815260206004820152602560248201527f536561706f7274206f7264657220756e61626c6520746f2062652066756c666960448201527f6c6c65642e00000000000000000000000000000000000000000000000000000060648201526084015b60405180910390fd5b5050509998505050505050505050565b6104b76107b7565b600280547fffffffffffffffffffffffff00000000000000000000000000000000000000001673ffffffffffffffffffffffffffffffffffffffff92909216919091179055565b60025460009073ffffffffffffffffffffffffffffffffffffffff16816105258880610ab5565b610533906040810190610af3565b6040517f40c10f1900000000000000000000000000000000000000000000000000000000815273ffffffffffffffffffffffffffffffffffffffff87811660048301526024820183905291935090841691506340c10f1990604401600060405180830381600087803b1580156105a857600080fd5b505af11580156105bc573d6000803e3d6000fd5b50506001546040517fe7acab2400000000000000000000000000000000000000000000000000000000815273ffffffffffffffffffffffffffffffffffffffff909116925082915063e7acab24903490610622908d908d908d908d908d90600401610ffb565b60206040518083038185885af1158015610640573d6000803e3d6000fd5b50505050506040513d601f19601f82011682018060405250810190610665919061126c565b9350836106f4576040517f08c379a000000000000000000000000000000000000000000000000000000000815260206004820152602560248201527f536561706f7274206f7264657220756e61626c6520746f2062652066756c666960448201527f6c6c65642e0000000000000000000000000000000000000000000000000000006064820152608401610496565b50505095945050505050565b6107086107b7565b73ffffffffffffffffffffffffffffffffffffffff81166107ab576040517f08c379a000000000000000000000000000000000000000000000000000000000815260206004820152602660248201527f4f776e61626c653a206e6577206f776e657220697320746865207a65726f206160448201527f64647265737300000000000000000000000000000000000000000000000000006064820152608401610496565b6107b481610838565b50565b60005473ffffffffffffffffffffffffffffffffffffffff1633146101ce576040517f08c379a000000000000000000000000000000000000000000000000000000000815260206004820181905260248201527f4f776e61626c653a2063616c6c6572206973206e6f7420746865206f776e65726044820152606401610496565b6000805473ffffffffffffffffffffffffffffffffffffffff8381167fffffffffffffffffffffffff0000000000000000000000000000000000000000831681178455604051919092169283917f8be0079c531659141344cd1fd0a4f28419497f9722a3daafe3b4186f6b6457e09190a35050565b600060a082840312156108bf57600080fd5b50919050565b60008083601f8401126108d757600080fd5b50813567ffffffffffffffff8111156108ef57600080fd5b6020830191508360208260051b850101111561090a57600080fd5b9250929050565b73ffffffffffffffffffffffffffffffffffffffff811681146107b457600080fd5b803561093e81610911565b919050565b60008060008060008060008060006101008a8c03121561096257600080fd5b893567ffffffffffffffff8082111561097a57600080fd5b6109868d838e016108ad565b9a5060208c013591508082111561099c57600080fd5b506109a98c828d016108c5565b90995097505060408a0135955060608a01356109c481610911565b945060808a01356109d481610911565b935060a08a013560ff811681146109ea57600080fd5b8093505060c08a0135915060e08a013590509295985092959850929598565b600060208284031215610a1b57600080fd5b8135610a2681610911565b9392505050565b600080600080600060808688031215610a4557600080fd5b853567ffffffffffffffff80821115610a5d57600080fd5b610a6989838a016108ad565b96506020880135915080821115610a7f57600080fd5b50610a8c888289016108c5565b909550935050604086013591506060860135610aa781610911565b809150509295509295909350565b600082357ffffffffffffffffffffffffffffffffffffffffffffffffffffffffffffffea1833603018112610ae957600080fd5b9190910192915050565b60008083357fffffffffffffffffffffffffffffffffffffffffffffffffffffffffffffffe1843603018112610b2857600080fd5b83018035915067ffffffffffffffff821115610b4357600080fd5b602001915060a08102360382131561090a57600080fd5b60008083357fffffffffffffffffffffffffffffffffffffffffffffffffffffffffffffffe1843603018112610b8f57600080fd5b830160208101925035905067ffffffffffffffff811115610baf57600080fd5b60a08102360382131561090a57600080fd5b80356006811061093e57600080fd5b7f4e487b7100000000000000000000000000000000000000000000000000000000600052602160045260246000fd5b60068110610c0f57610c0f610bd0565b9052565b8183526000602080850194508260005b85811015610c9457610c3d87610c3884610bc1565b610bff565b82820135610c4a81610911565b73ffffffffffffffffffffffffffffffffffffffff168784015260408281013590880152606080830135908801526080808301359088015260a09687019690910190600101610c23565b509495945050505050565b60008083357fffffffffffffffffffffffffffffffffffffffffffffffffffffffffffffffe1843603018112610cd457600080fd5b830160208101925035905067ffffffffffffffff811115610cf457600080fd5b60c08102360382131561090a57600080fd5b8183526000602080850194508260005b85811015610c9457610d2b87610c3884610bc1565b82820135610d3881610911565b73ffffffffffffffffffffffffffffffffffffffff9081168885015260408381013590890152606080840135908901526080808401359089015260a09081840135610d8281610911565b169088015260c0968701969190910190600101610d16565b80356004811061093e57600080fd5b60048110610c0f57610c0f610bd0565b80356effffffffffffffffffffffffffffff8116811461093e57600080fd5b60008083357fffffffffffffffffffffffffffffffffffffffffffffffffffffffffffffffe1843603018112610e0d57600080fd5b830160208101925035905067ffffffffffffffff811115610e2d57600080fd5b80360382131561090a57600080fd5b8183528181602085013750600060208284010152600060207fffffffffffffffffffffffffffffffffffffffffffffffffffffffffffffffe0601f840116840101905092915050565b81835260007f07ffffffffffffffffffffffffffffffffffffffffffffffffffffffffffffff831115610eb757600080fd5b8260051b8083602087013760009401602001938452509192915050565b81835260006020808501808196506005915085821b81018560005b88811015610fed578383038a5281357fffffffffffffffffffffffffffffffffffffffffffffffffffffffffffffff61893603018112610f2e57600080fd5b88018035845260a08782013560028110610f4757600080fd5b858901526040828101359086015260608083013590860152608080830135368490037fffffffffffffffffffffffffffffffffffffffffffffffffffffffffffffffe1018112610f9657600080fd5b90920188810192903567ffffffffffffffff811115610fb457600080fd5b80891b3603841315610fc557600080fd5b8282880152610fd78388018286610e85565b9d8a019d96505050928701925050600101610eef565b509098975050505050505050565b60808152600061012087357ffffffffffffffffffffffffffffffffffffffffffffffffffffffffffffffea189360301811261103657600080fd5b60a06080850152880161106882850161104e83610933565b73ffffffffffffffffffffffffffffffffffffffff169052565b61107460208201610933565b6101406110988187018373ffffffffffffffffffffffffffffffffffffffff169052565b6110a56040840184610b5a565b6101608881015292506110bd61028088018483610c13565b9250506110cd6060840184610c9f565b7ffffffffffffffffffffffffffffffffffffffffffffffffffffffffffffffee088850301610180890152611103848284610d06565b9350505061111360808401610d9a565b6111216101a0880182610da9565b5060a08301356101c087015260c08301356101e087015260e083013561020087015261010080840135610220880152848401356102408801528184013561026088015261117060208d01610db9565b6effffffffffffffffffffffffffffff811660a0890152945061119560408d01610db9565b6effffffffffffffffffffffffffffff811660c089015294506111bb60608d018d610dd8565b955093507fffffffffffffffffffffffffffffffffffffffffffffffffffffffffffffff809150818784030160e08801526111f7838686610e3c565b945061120660808d018d610dd8565b945092508187860301818801525050611220838383610e3c565b925050508281036020840152611237818789610ed4565b915050836040830152611262606083018473ffffffffffffffffffffffffffffffffffffffff169052565b9695505050505050565b60006020828403121561127e57600080fd5b81518015158114610a2657600080fdfea26469706673582212209b4856203f2052533be25d01d503031edf1147bc7ffe2158d332b854ae2efaaf64736f6c634300080e0033",
    "linkReferences": {}
  },
  "methodIdentifiers": {
    "fulfillAdvancedOrder(((address,address,(uint8,address,uint256,uint256,uint256)[],(uint8,address,uint256,uint256,uint256,address)[],uint8,uint256,uint256,bytes32,uint256,bytes32,uint256),uint120,uint120,bytes,bytes),(uint256,uint8,uint256,uint256,bytes32[])[],bytes32,address)": "e7acab24",
    "fulfillAdvancedOrderWithPermit(((address,address,(uint8,address,uint256,uint256,uint256)[],(uint8,address,uint256,uint256,uint256,address)[],uint8,uint256,uint256,bytes32,uint256,bytes32,uint256),uint120,uint120,bytes,bytes),(uint256,uint8,uint256,uint256,bytes32[])[],bytes32,address,address,uint8,bytes32,bytes32)": "8f38f40b",
    "owner()": "8da5cb5b",
    "renounceOwnership()": "715018a6",
    "seaportAddress()": "52c6bfeb",
    "storefrontAddress()": "5e407294",
    "transferOwnership(address)": "f2fde38b",
    "updateStoreFront(address)": "a3741728"
  },
  "id": 0
}