{
  "abi": [
    {
      "inputs": [
        {
          "internalType": "address",
          "name": "",
          "type": "address"
        },
        {
          "internalType": "address",
          "name": "",
          "type": "address"
        },
        {
          "internalType": "uint256",
          "name": "",
          "type": "uint256"
        },
        {
          "internalType": "uint256",
          "name": "",
          "type": "uint256"
        },
        {
          "internalType": "bytes",
          "name": "",
          "type": "bytes"
        }
      ],
      "name": "onERC1155Received",
      "outputs": [
        {
          "internalType": "bytes4",
          "name": "magic",
          "type": "bytes4"
        }
      ],
      "stateMutability": "view",
      "type": "function"
    },
    {
      "inputs": [
        {
          "internalType": "uint256",
          "name": "size",
          "type": "uint256"
        }
      ],
      "name": "setRevertDataSize",
      "outputs": [],
      "stateMutability": "nonpayable",
      "type": "function"
    },
    {
      "stateMutability": "payable",
      "type": "receive"
    }
  ],
  "bytecode": {
    "object": "0x608060405234801561001057600080fd5b5061084a806100206000396000f3fe60806040526004361061002d5760003560e01c8063e998da54146102f2578063f23a6e611461031257600080fd5b366102ed57600054156102eb57600061027a5a604080517ff8f9cbfae6cc78fbefe7cdc3a1793dfcf4f0e8bbd8cec470b6a28a7a5a3e1efd81527ff5ecf1b3e9debc68e1d9cfabc5997135bfb7a7a3938b7b606b5b4b3f2f1f0ffe60208201527ff6e4ed9ff2d6b458eadcdf97bd91692de2d4da8fd2d0ac50c6ae9a8272523616818301527fc8c0b887b0a8a4489c948c7f847c6125746c645c544c444038302820181008ff60608201527ff7cae577eec2a03cf3bad76fb589591debb2dd67e0aa9834bea6925f6a4a2e0e60808201527fe39ed557db96902cd38ed14fad815115c786af479b7e8324736353433727170760a08201527fc976c13bb96e881cb166a933a55e490d9d56952b8d4e801485467d236242260660c08201527f753a6d1b65325d0c552a4d1345224105391a310b29122104190a11030902010060e08201526101008181019092527f01000000000000000000000000000000000000000000000000000000000000007e818283848586878898a8b8c8d8e8f929395969799a9b9d9e9faaeb6bedeeff70010000000000000000000000000000000068010000000000000000640100000000620100006010600460027fffffffffffffffffffffffffffffffffffffffffffffffffffffffffffffffff8c0190810417908104179081041788810417908104179081041790810417908104176001010281900460ff03909101516633413c26506520662386f26fc100007f800000000000000000000000000000000000000000000000000000000000000090951190930291900401919091020490565b610285906036610685565b610291906104b06106c2565b905060006002610c006102c7845a6102a991906106da565b6102b590610800610685565b6102c290628fe8006106c2565b610367565b6102d191906106da565b6102db91906106f1565b9050602081028060008037806000fd5b005b600080fd5b3480156102fe57600080fd5b506102eb61030d36600461072c565b600055565b34801561031e57600080fd5b5061033261032d36600461076e565b6103b3565b6040517fffffffff00000000000000000000000000000000000000000000000000000000909116815260200160405180910390f35b600060038211600181146103805780156103a8576103ad565b829150600260018401045b828110156103a2579150600282840483010461038b565b506103ad565b600191505b50919050565b6000547ff23a6e6100000000000000000000000000000000000000000000000000000000901561064c57600061061d5a604080517ff8f9cbfae6cc78fbefe7cdc3a1793dfcf4f0e8bbd8cec470b6a28a7a5a3e1efd81527ff5ecf1b3e9debc68e1d9cfabc5997135bfb7a7a3938b7b606b5b4b3f2f1f0ffe60208201527ff6e4ed9ff2d6b458eadcdf97bd91692de2d4da8fd2d0ac50c6ae9a8272523616818301527fc8c0b887b0a8a4489c948c7f847c6125746c645c544c444038302820181008ff60608201527ff7cae577eec2a03cf3bad76fb589591debb2dd67e0aa9834bea6925f6a4a2e0e60808201527fe39ed557db96902cd38ed14fad815115c786af479b7e8324736353433727170760a08201527fc976c13bb96e881cb166a933a55e490d9d56952b8d4e801485467d236242260660c08201527f753a6d1b65325d0c552a4d1345224105391a310b29122104190a11030902010060e08201526101008181019092527f01000000000000000000000000000000000000000000000000000000000000007e818283848586878898a8b8c8d8e8f929395969799a9b9d9e9faaeb6bedeeff70010000000000000000000000000000000068010000000000000000640100000000620100006010600460027fffffffffffffffffffffffffffffffffffffffffffffffffffffffffffffffff8c0190810417908104179081041788810417908104179081041790810417908104176001010281900460ff03909101516633413c26506520662386f26fc100007f800000000000000000000000000000000000000000000000000000000000000090951190930291900401919091020490565b610628906036610685565b610634906104b06106c2565b905060006004610c006102c7845a6102a991906106da565b9695505050505050565b7f4e487b7100000000000000000000000000000000000000000000000000000000600052601160045260246000fd5b6000817fffffffffffffffffffffffffffffffffffffffffffffffffffffffffffffffff04831182151516156106bd576106bd610656565b500290565b600082198211156106d5576106d5610656565b500190565b6000828210156106ec576106ec610656565b500390565b600082610727577f4e487b7100000000000000000000000000000000000000000000000000000000600052601260045260246000fd5b500490565b60006020828403121561073e57600080fd5b5035919050565b803573ffffffffffffffffffffffffffffffffffffffff8116811461076957600080fd5b919050565b60008060008060008060a0878903121561078757600080fd5b61079087610745565b955061079e60208801610745565b94506040870135935060608701359250608087013567ffffffffffffffff808211156107c957600080fd5b818901915089601f8301126107dd57600080fd5b8135818111156107ec57600080fd5b8a60208285010111156107fe57600080fd5b602083019450809350505050929550929550929556fea26469706673582212200e2e9f9e777a787e0b9afbeae7bd0d463275dfc3195483b0cfab19ca6465d3cc64736f6c634300080e0033",
    "linkReferences": {}
  },
  "methodIdentifiers": {
    "onERC1155Received(address,address,uint256,uint256,bytes)": "f23a6e61",
    "setRevertDataSize(uint256)": "e998da54"
  },
  "id": 50
}