{
  "abi": [
    {
      "anonymous": false,
      "inputs": [
        {
          "indexed": false,
          "internalType": "bytes",
          "name": "returnData",
          "type": "bytes"
        }
      ],
      "name": "Reentered",
      "type": "event"
    },
    {
      "inputs": [],
      "name": "callData",
      "outputs": [
        {
          "internalType": "bytes",
          "name": "",
          "type": "bytes"
        }
      ],
      "stateMutability": "view",
      "type": "function"
    },
    {
      "inputs": [],
      "name": "msgValue",
      "outputs": [
        {
          "internalType": "uint256",
          "name": "",
          "type": "uint256"
        }
      ],
      "stateMutability": "view",
      "type": "function"
    },
    {
      "inputs": [
        {
          "internalType": "address",
          "name": "targetToUse",
          "type": "address"
        },
        {
          "internalType": "uint256",
          "name": "msgValueToUse",
          "type": "uint256"
        },
        {
          "internalType": "bytes",
          "name": "callDataToUse",
          "type": "bytes"
        }
      ],
      "name": "prepare",
      "outputs": [],
      "stateMutability": "nonpayable",
      "type": "function"
    },
    {
      "inputs": [],
      "name": "target",
      "outputs": [
        {
          "internalType": "address",
          "name": "",
          "type": "address"
        }
      ],
      "stateMutability": "view",
      "type": "function"
    },
    {
      "stateMutability": "payable",
      "type": "receive"
    }
  ],
  "bytecode": {
    "object": "0x608060405234801561001057600080fd5b506105dc806100206000396000f3fe6080604052600436106100435760003560e01c80634e417a981461010c5780635157589b14610137578063d4b8399214610159578063ddf363d7146101ab57600080fd5b366101075760008054600154604051839273ffffffffffffffffffffffffffffffffffffffff169190610078906002906103bf565b60006040518083038185875af1925050503d80600081146100b5576040519150601f19603f3d011682016040523d82523d6000602084013e6100ba565b606091505b5091509150816100ce573d6000803e3d6000fd5b7f52b1b52a16f834754c20ed40ad488c0fc799dea307f9bb9cde6413f0e356703e816040516100fd9190610491565b60405180910390a1005b600080fd5b34801561011857600080fd5b506101216101cf565b60405161012e9190610491565b60405180910390f35b34801561014357600080fd5b50610157610152366004610504565b61025d565b005b34801561016557600080fd5b506000546101869073ffffffffffffffffffffffffffffffffffffffff1681565b60405173ffffffffffffffffffffffffffffffffffffffff909116815260200161012e565b3480156101b757600080fd5b506101c160015481565b60405190815260200161012e565b600280546101dc9061036c565b80601f01602080910402602001604051908101604052809291908181526020018280546102089061036c565b80156102555780601f1061022a57610100808354040283529160200191610255565b820191906000526020600020905b81548152906001019060200180831161023857829003601f168201915b505050505081565b600080547fffffffffffffffffffffffff00000000000000000000000000000000000000001673ffffffffffffffffffffffffffffffffffffffff861617905560018390556102ae600283836102b5565b5050505050565b8280546102c19061036c565b90600052602060002090601f0160209004810192826102e35760008555610347565b82601f1061031a578280017fffffffffffffffffffffffffffffffffffffffffffffffffffffffffffffff00823516178555610347565b82800160010185558215610347579182015b8281111561034757823582559160200191906001019061032c565b50610353929150610357565b5090565b5b808211156103535760008155600101610358565b600181811c9082168061038057607f821691505b6020821081036103b9577f4e487b7100000000000000000000000000000000000000000000000000000000600052602260045260246000fd5b50919050565b600080835481600182811c9150808316806103db57607f831692505b60208084108203610413577f4e487b710000000000000000000000000000000000000000000000000000000086526022600452602486fd5b818015610427576001811461045657610483565b7fffffffffffffffffffffffffffffffffffffffffffffffffffffffffffffff00861689528489019650610483565b60008a81526020902060005b8681101561047b5781548b820152908501908301610462565b505084890196505b509498975050505050505050565b600060208083528351808285015260005b818110156104be578581018301518582016040015282016104a2565b818111156104d0576000604083870101525b50601f017fffffffffffffffffffffffffffffffffffffffffffffffffffffffffffffffe016929092016040019392505050565b6000806000806060858703121561051a57600080fd5b843573ffffffffffffffffffffffffffffffffffffffff8116811461053e57600080fd5b935060208501359250604085013567ffffffffffffffff8082111561056257600080fd5b818701915087601f83011261057657600080fd5b81358181111561058557600080fd5b88602082850101111561059757600080fd5b9598949750506020019450505056fea2646970667358221220682b0abe0e8d579f6ec6d3565a3a3e14f8698941ece6e79679884520e8690fb564736f6c634300080e0033",
    "linkReferences": {}
  },
  "methodIdentifiers": {
    "callData()": "4e417a98",
    "msgValue()": "ddf363d7",
    "prepare(address,uint256,bytes)": "5157589b",
    "target()": "d4b83992"
  },
  "id": 54
}