{
  "_format": "hh-sol-artifact-1",
  "contractName": "LazyMintProxy",
  "sourceName": "contracts/LazyMintProxy.sol",
  "abi": [
    {
      "inputs": [
        {
          "internalType": "address",
          "name": "_seaportAddress",
          "type": "address"
        },
        {
          "internalType": "address",
          "name": "_storefrontAddress",
          "type": "address"
        }
      ],
      "stateMutability": "nonpayable",
      "type": "constructor"
    },
    {
      "anonymous": false,
      "inputs": [
        {
          "indexed": true,
          "internalType": "address",
          "name": "previousOwner",
          "type": "address"
        },
        {
          "indexed": true,
          "internalType": "address",
          "name": "newOwner",
          "type": "address"
        }
      ],
      "name": "OwnershipTransferred",
      "type": "event"
    },
    {
      "inputs": [
        {
          "components": [
            {
              "components": [
                {
                  "internalType": "address",
                  "name": "offerer",
                  "type": "address"
                },
                {
                  "internalType": "address",
                  "name": "zone",
                  "type": "address"
                },
                {
                  "components": [
                    {
                      "internalType": "enum ItemType",
                      "name": "itemType",
                      "type": "uint8"
                    },
                    {
                      "internalType": "address",
                      "name": "token",
                      "type": "address"
                    },
                    {
                      "internalType": "uint256",
                      "name": "identifierOrCriteria",
                      "type": "uint256"
                    },
                    {
                      "internalType": "uint256",
                      "name": "startAmount",
                      "type": "uint256"
                    },
                    {
                      "internalType": "uint256",
                      "name": "endAmount",
                      "type": "uint256"
                    }
                  ],
                  "internalType": "struct OfferItem[]",
                  "name": "offer",
                  "type": "tuple[]"
                },
                {
                  "components": [
                    {
                      "internalType": "enum ItemType",
                      "name": "itemType",
                      "type": "uint8"
                    },
                    {
                      "internalType": "address",
                      "name": "token",
                      "type": "address"
                    },
                    {
                      "internalType": "uint256",
                      "name": "identifierOrCriteria",
                      "type": "uint256"
                    },
                    {
                      "internalType": "uint256",
                      "name": "startAmount",
                      "type": "uint256"
                    },
                    {
                      "internalType": "uint256",
                      "name": "endAmount",
                      "type": "uint256"
                    },
                    {
                      "internalType": "address payable",
                      "name": "recipient",
                      "type": "address"
                    }
                  ],
                  "internalType": "struct ConsiderationItem[]",
                  "name": "consideration",
                  "type": "tuple[]"
                },
                {
                  "internalType": "enum OrderType",
                  "name": "orderType",
                  "type": "uint8"
                },
                {
                  "internalType": "uint256",
                  "name": "startTime",
                  "type": "uint256"
                },
                {
                  "internalType": "uint256",
                  "name": "endTime",
                  "type": "uint256"
                },
                {
                  "internalType": "bytes32",
                  "name": "zoneHash",
                  "type": "bytes32"
                },
                {
                  "internalType": "uint256",
                  "name": "salt",
                  "type": "uint256"
                },
                {
                  "internalType": "bytes32",
                  "name": "conduitKey",
                  "type": "bytes32"
                },
                {
                  "internalType": "uint256",
                  "name": "totalOriginalConsiderationItems",
                  "type": "uint256"
                }
              ],
              "internalType": "struct OrderParameters",
              "name": "parameters",
              "type": "tuple"
            },
            {
              "internalType": "uint120",
              "name": "numerator",
              "type": "uint120"
            },
            {
              "internalType": "uint120",
              "name": "denominator",
              "type": "uint120"
            },
            {
              "internalType": "bytes",
              "name": "signature",
              "type": "bytes"
            },
            {
              "internalType": "bytes",
              "name": "extraData",
              "type": "bytes"
            }
          ],
          "internalType": "struct AdvancedOrder",
          "name": "advancedOrder",
          "type": "tuple"
        },
        {
          "components": [
            {
              "internalType": "uint256",
              "name": "orderIndex",
              "type": "uint256"
            },
            {
              "internalType": "enum Side",
              "name": "side",
              "type": "uint8"
            },
            {
              "internalType": "uint256",
              "name": "index",
              "type": "uint256"
            },
            {
              "internalType": "uint256",
              "name": "identifier",
              "type": "uint256"
            },
            {
              "internalType": "bytes32[]",
              "name": "criteriaProof",
              "type": "bytes32[]"
            }
          ],
          "internalType": "struct CriteriaResolver[]",
          "name": "criteriaResolvers",
          "type": "tuple[]"
        },
        {
          "internalType": "bytes32",
          "name": "fulfillerConduitKey",
          "type": "bytes32"
        },
        {
          "internalType": "address",
          "name": "recipient",
          "type": "address"
        }
      ],
      "name": "fulfillAdvancedOrder",
      "outputs": [
        {
          "internalType": "bool",
          "name": "fulfilled",
          "type": "bool"
        }
      ],
      "stateMutability": "payable",
      "type": "function"
    },
    {
      "inputs": [
        {
          "components": [
            {
              "components": [
                {
                  "internalType": "address",
                  "name": "offerer",
                  "type": "address"
                },
                {
                  "internalType": "address",
                  "name": "zone",
                  "type": "address"
                },
                {
                  "components": [
                    {
                      "internalType": "enum ItemType",
                      "name": "itemType",
                      "type": "uint8"
                    },
                    {
                      "internalType": "address",
                      "name": "token",
                      "type": "address"
                    },
                    {
                      "internalType": "uint256",
                      "name": "identifierOrCriteria",
                      "type": "uint256"
                    },
                    {
                      "internalType": "uint256",
                      "name": "startAmount",
                      "type": "uint256"
                    },
                    {
                      "internalType": "uint256",
                      "name": "endAmount",
                      "type": "uint256"
                    }
                  ],
                  "internalType": "struct OfferItem[]",
                  "name": "offer",
                  "type": "tuple[]"
                },
                {
                  "components": [
                    {
                      "internalType": "enum ItemType",
                      "name": "itemType",
                      "type": "uint8"
                    },
                    {
                      "internalType": "address",
                      "name": "token",
                      "type": "address"
                    },
                    {
                      "internalType": "uint256",
                      "name": "identifierOrCriteria",
                      "type": "uint256"
                    },
                    {
                      "internalType": "uint256",
                      "name": "startAmount",
                      "type": "uint256"
                    },
                    {
                      "internalType": "uint256",
                      "name": "endAmount",
                      "type": "uint256"
                    },
                    {
                      "internalType": "address payable",
                      "name": "recipient",
                      "type": "address"
                    }
                  ],
                  "internalType": "struct ConsiderationItem[]",
                  "name": "consideration",
                  "type": "tuple[]"
                },
                {
                  "internalType": "enum OrderType",
                  "name": "orderType",
                  "type": "uint8"
                },
                {
                  "internalType": "uint256",
                  "name": "startTime",
                  "type": "uint256"
                },
                {
                  "internalType": "uint256",
                  "name": "endTime",
                  "type": "uint256"
                },
                {
                  "internalType": "bytes32",
                  "name": "zoneHash",
                  "type": "bytes32"
                },
                {
                  "internalType": "uint256",
                  "name": "salt",
                  "type": "uint256"
                },
                {
                  "internalType": "bytes32",
                  "name": "conduitKey",
                  "type": "bytes32"
                },
                {
                  "internalType": "uint256",
                  "name": "totalOriginalConsiderationItems",
                  "type": "uint256"
                }
              ],
              "internalType": "struct OrderParameters",
              "name": "parameters",
              "type": "tuple"
            },
            {
              "internalType": "uint120",
              "name": "numerator",
              "type": "uint120"
            },
            {
              "internalType": "uint120",
              "name": "denominator",
              "type": "uint120"
            },
            {
              "internalType": "bytes",
              "name": "signature",
              "type": "bytes"
            },
            {
              "internalType": "bytes",
              "name": "extraData",
              "type": "bytes"
            }
          ],
          "internalType": "struct AdvancedOrder",
          "name": "advancedOrder",
          "type": "tuple"
        },
        {
          "components": [
            {
              "internalType": "uint256",
              "name": "orderIndex",
              "type": "uint256"
            },
            {
              "internalType": "enum Side",
              "name": "side",
              "type": "uint8"
            },
            {
              "internalType": "uint256",
              "name": "index",
              "type": "uint256"
            },
            {
              "internalType": "uint256",
              "name": "identifier",
              "type": "uint256"
            },
            {
              "internalType": "bytes32[]",
              "name": "criteriaProof",
              "type": "bytes32[]"
            }
          ],
          "internalType": "struct CriteriaResolver[]",
          "name": "criteriaResolvers",
          "type": "tuple[]"
        },
        {
          "internalType": "bytes32",
          "name": "fulfillerConduitKey",
          "type": "bytes32"
        },
        {
          "internalType": "address",
          "name": "recipient",
          "type": "address"
        },
        {
          "internalType": "address",
          "name": "_operator",
          "type": "address"
        },
        {
          "internalType": "uint8",
          "name": "_v",
          "type": "uint8"
        },
        {
          "internalType": "bytes32",
          "name": "_r",
          "type": "bytes32"
        },
        {
          "internalType": "bytes32",
          "name": "_s",
          "type": "bytes32"
        }
      ],
      "name": "fulfillAdvancedOrderWithPermit",
      "outputs": [
        {
          "internalType": "bool",
          "name": "fulfilled",
          "type": "bool"
        }
      ],
      "stateMutability": "payable",
      "type": "function"
    },
    {
      "inputs": [],
      "name": "owner",
      "outputs": [
        {
          "internalType": "address",
          "name": "",
          "type": "address"
        }
      ],
      "stateMutability": "view",
      "type": "function"
    },
    {
      "inputs": [],
      "name": "renounceOwnership",
      "outputs": [],
      "stateMutability": "nonpayable",
      "type": "function"
    },
    {
      "inputs": [],
      "name": "seaportAddress",
      "outputs": [
        {
          "internalType": "address",
          "name": "",
          "type": "address"
        }
      ],
      "stateMutability": "view",
      "type": "function"
    },
    {
      "inputs": [],
      "name": "storefrontAddress",
      "outputs": [
        {
          "internalType": "address",
          "name": "",
          "type": "address"
        }
      ],
      "stateMutability": "view",
      "type": "function"
    },
    {
      "inputs": [
        {
          "internalType": "address",
          "name": "newOwner",
          "type": "address"
        }
      ],
      "name": "transferOwnership",
      "outputs": [],
      "stateMutability": "nonpayable",
      "type": "function"
    },
    {
      "inputs": [
        {
          "internalType": "address",
          "name": "_newStoreFront",
          "type": "address"
        }
      ],
      "name": "updateStoreFront",
      "outputs": [],
      "stateMutability": "nonpayable",
      "type": "function"
    }
  ],
  "bytecode": "0x60803461006b57601f6114b538819003918201601f19168301916001600160401b0383118484101761007057808492604094855283398101031261006b5780610056602061004f61005c94610086565b9201610086565b9061009a565b6040516113b290816101038239f35b600080fd5b634e487b7160e01b600052604160045260246000fd5b51906001600160a01b038216820361006b57565b600080546001600160a01b031980821633908117845560405191956001600160a01b0395909486949193918516917f8be0079c531659141344cd1fd0a4f28419497f9722a3daafe3b4186f6b6457e09190a3168360015416176001551690600254161760025556fe608080604052600436101561001357600080fd5b6000803560e01c91826352c6bfeb146100b857505080635e407294146100af578063715018a6146100a65780638da5cb5b1461009d5780638f38f40b14610094578063a37417281461008b578063e7acab24146100825763f2fde38b1461007a575b600080fd5b6100756106f7565b5061007561041c565b5061007561038a565b506100756102cd565b50610075610210565b50610075610168565b50610075610115565b3461010657817ffffffffffffffffffffffffffffffffffffffffffffffffffffffffffffffffc3601126101065760209073ffffffffffffffffffffffffffffffffffffffff600154168152f35b5080fd5b600091031261007557565b50346100755760007ffffffffffffffffffffffffffffffffffffffffffffffffffffffffffffffffc36011261007557602073ffffffffffffffffffffffffffffffffffffffff60025416604051908152f35b5034610075576000807ffffffffffffffffffffffffffffffffffffffffffffffffffffffffffffffffc36011261020d5780547fffffffffffffffffffffffff000000000000000000000000000000000000000073ffffffffffffffffffffffffffffffffffffffff8216916101df3384146107ed565b16825581604051917f8be0079c531659141344cd1fd0a4f28419497f9722a3daafe3b4186f6b6457e08284a3f35b80fd5b50346100755760007ffffffffffffffffffffffffffffffffffffffffffffffffffffffffffffffffc36011261007557602073ffffffffffffffffffffffffffffffffffffffff60005416604051908152f35b908160a09103126100755790565b9181601f840112156100755782359167ffffffffffffffff8311610075576020808501948460051b01011161007557565b73ffffffffffffffffffffffffffffffffffffffff81160361007557565b35906102cb826102a2565b565b506101007ffffffffffffffffffffffffffffffffffffffffffffffffffffffffffffffffc3601126100755767ffffffffffffffff6004358181116100755761031a903690600401610263565b9060243590811161007557610333903690600401610271565b6064359291610341846102a2565b60843561034d816102a2565b60a4359060ff8216820361007557610386956103749560e4359560c435956044359261109b565b60405190151581529081906020820190565b0390f35b50346100755760207ffffffffffffffffffffffffffffffffffffffffffffffffffffffffffffffffc360112610075576004356103c6816102a2565b73ffffffffffffffffffffffffffffffffffffffff906103eb826000541633146107ed565b167fffffffffffffffffffffffff000000000000000000000000000000000000000060025416176002556000604051f35b5060807ffffffffffffffffffffffffffffffffffffffffffffffffffffffffffffffffc3601126100755767ffffffffffffffff60048035828111610075576104689036908301610263565b91602435908111610075576104809036908301610271565b90926064359361048f856102a2565b6104ca6104b160025473ffffffffffffffffffffffffffffffffffffffff1690565b73ffffffffffffffffffffffffffffffffffffffff1690565b9273ffffffffffffffffffffffffffffffffffffffff6104f76104ed85806108c1565b60408101906108f4565b9590501693843b156100755760006105669160209689838a604051968795869485937f40c10f1900000000000000000000000000000000000000000000000000000000855284016020909392919373ffffffffffffffffffffffffffffffffffffffff60408201951681520152565b03925af180156106ea575b6106d1575b5061059c6104b16104b160015473ffffffffffffffffffffffffffffffffffffffff1690565b916105d9604051978895869485947fe7acab24000000000000000000000000000000000000000000000000000000008652604435928b8701610e52565b039134905af19182156106c4575b600092610694575b508115610603576040518215158152602090f35b610690906040519182917f08c379a0000000000000000000000000000000000000000000000000000000008352820160809060208152602560208201527f536561706f7274206f7264657220756e61626c6520746f2062652066756c666960408201527f6c6c65642e00000000000000000000000000000000000000000000000000000060608201520190565b0390fd5b6106b691925060203d81116106bd575b6106ae818361098b565b8101906109d9565b90386105ef565b503d6106a4565b6106cc6109cc565b6105e7565b806106de6106e492610948565b8061010a565b38610576565b6106f26109cc565b610571565b50346100755760207ffffffffffffffffffffffffffffffffffffffffffffffffffffffffffffffffc36011261007557600435610733816102a2565b73ffffffffffffffffffffffffffffffffffffffff610757816000541633146107ed565b8116156107695761076790610852565b005b60846040517f08c379a000000000000000000000000000000000000000000000000000000000815260206004820152602660248201527f4f776e61626c653a206e6577206f776e657220697320746865207a65726f206160448201527f64647265737300000000000000000000000000000000000000000000000000006064820152fd5b156107f457565b60646040517f08c379a000000000000000000000000000000000000000000000000000000000815260206004820152602060248201527f4f776e61626c653a2063616c6c6572206973206e6f7420746865206f776e65726044820152fd5b6000549073ffffffffffffffffffffffffffffffffffffffff80911691827fffffffffffffffffffffffff0000000000000000000000000000000000000000821617600055167f8be0079c531659141344cd1fd0a4f28419497f9722a3daafe3b4186f6b6457e06000604051a3565b9035907ffffffffffffffffffffffffffffffffffffffffffffffffffffffffffffffea181360301821215610075570190565b9035907fffffffffffffffffffffffffffffffffffffffffffffffffffffffffffffffe181360301821215610075570180359067ffffffffffffffff8211610075576020019160a082023603831361007557565b67ffffffffffffffff811161095c57604052565b7f4e487b7100000000000000000000000000000000000000000000000000000000600052604160045260246000fd5b90601f7fffffffffffffffffffffffffffffffffffffffffffffffffffffffffffffffe0910116810190811067ffffffffffffffff82111761095c57604052565b506040513d6000823e3d90fd5b90816020910312610075575180151581036100755790565b90357fffffffffffffffffffffffffffffffffffffffffffffffffffffffffffffffe18236030181121561007557016020813591019167ffffffffffffffff82116100755760a082023603831361007557565b3590600682101561007557565b507f4e487b7100000000000000000000000000000000000000000000000000000000600052602160045260246000fd5b906006821015610a8e5752565b610a96610a51565b52565b9190808252602080920192916000905b828210610ab7575050505090565b9091929380610ad0600192610acb88610a44565b610a81565b73ffffffffffffffffffffffffffffffffffffffff83870135610af2816102a2565b168184015260408681013590820152606080870135908201526080808701359082015260a0908101950193920190610aa9565b90357fffffffffffffffffffffffffffffffffffffffffffffffffffffffffffffffe18236030181121561007557016020813591019167ffffffffffffffff82116100755760c082023603831361007557565b9190808252602080920192916000905b828210610b96575050505090565b9091929380610baa600192610acb88610a44565b82860135610bb7816102a2565b73ffffffffffffffffffffffffffffffffffffffff8091168483015260408088013590830152606080880135908301526080808801359083015260a09081880135610c01816102a2565b169082015260c0908101950193920190610b88565b3590600482101561007557565b906004821015610a8e5752565b35906effffffffffffffffffffffffffffff8216820361007557565b90357fffffffffffffffffffffffffffffffffffffffffffffffffffffffffffffffe18236030181121561007557016020813591019167ffffffffffffffff821161007557813603831361007557565b601f82602094937fffffffffffffffffffffffffffffffffffffffffffffffffffffffffffffffe0938186528686013760008582860101520116010190565b90918281527f07ffffffffffffffffffffffffffffffffffffffffffffffffffffffffffffff83116100755760209260051b80928483013701016000815290565b9082908084526020809401936005928183851b82010195856000925b858410610d4a57505050505050505090565b90919293949596977fffffffffffffffffffffffffffffffffffffffffffffffffffffffffffffffe082820301845288357fffffffffffffffffffffffffffffffffffffffffffffffffffffffffffffff61843603018112156100755783018035825286810135600281101561007557878301526040808201359083015260608082013590830152608090818101357fffffffffffffffffffffffffffffffffffffffffffffffffffffffffffffffe18236030181121561007557019087823592019267ffffffffffffffff831161007557828b1b360384136100755760019389938493610e409360a080928201520191610cdb565b9a019401940192969594939190610d38565b909594929395608082528035927ffffffffffffffffffffffffffffffffffffffffffffffffffffffffffffffea182360301841215610075576102cb9561106b83611079946060970160a0608088015261012090610ecf828901610eb5836102c0565b73ffffffffffffffffffffffffffffffffffffffff169052565b610edb602082016102c0565b610f0061014091828b019073ffffffffffffffffffffffffffffffffffffffff169052565b610f62610f25610f1360408501856109f1565b610160808e01526102808d0191610a99565b610f318c850185610b25565b8c83037ffffffffffffffffffffffffffffffffffffffffffffffffffffffffffffffee0016101808e015290610b78565b91610f7d610f7260808301610c16565b6101a08c0190610c23565b60a08101356101c08b015260c08101356101e08b015260e08101356102008b015261010093848201356102208c01528101356102408b01520135610260890152610fe4610fcc60208501610c30565b6effffffffffffffffffffffffffffff1660a08a0152565b61100b610ff360408501610c30565b6effffffffffffffffffffffffffffff1660c08a0152565b61105b61105061101d8b860186610c4c565b7fffffffffffffffffffffffffffffffffffffffffffffffffffffffffffffff8094918c60e08782860301910152610c9c565b936080810190610c4c565b9290918985030190890152610c9c565b918483036020860152610d1c565b956040820152019073ffffffffffffffffffffffffffffffffffffffff169052565b9298979093949691956110c66104b160025473ffffffffffffffffffffffffffffffffffffffff1690565b73ffffffffffffffffffffffffffffffffffffffff6110e86104ed87806108c1565b9290501690813b15610075576040517f40c10f1900000000000000000000000000000000000000000000000000000000815273ffffffffffffffffffffffffffffffffffffffff89166004820152602481019190915260008160448183865af1801561136f575b61135c575b50803b15610075576040517fcfa8fb4200000000000000000000000000000000000000000000000000000000815273ffffffffffffffffffffffffffffffffffffffff808916600483015290991660248a0152600160448a01527fffffffffffffffffffffffffffffffffffffffffffffffffffffffffffffffff60648a015260ff909116608489015260a488019290925260c487015260209590600090829081838160e4810103925af1801561134f575b61133c575b5061126b6112346104b16104b160015473ffffffffffffffffffffffffffffffffffffffff1690565b93604051988996879586957fe7acab2400000000000000000000000000000000000000000000000000000000875260048701610e52565b039134905af191821561132f575b60009261130f575b50811561128a57565b6040517f08c379a000000000000000000000000000000000000000000000000000000000815260206004820152602560248201527f536561706f7274206f7264657220756e61626c6520746f2062652066756c666960448201527f6c6c65642e0000000000000000000000000000000000000000000000000000006064820152608490fd5b61132891925060203d81116106bd576106ae818361098b565b9038611281565b6113376109cc565b611279565b806106de61134992610948565b3861120b565b6113576109cc565b611206565b806106de61136992610948565b38611154565b6113776109cc565b61114f56fea2646970667358221220e6d6efb04f0824d39b8b27cd4331246ed197c2f30df848d5493b174175062fd664736f6c634300080e0033",
  "linkReferences": {},
  "deployedLinkReferences": {}
}