{
  "_format": "hh-sol-artifact-1",
  "contractName": "LazyMintProxy",
  "sourceName": "contracts/LazyMintProxy.sol",
  "abi": [
    {
      "inputs": [
        {
          "internalType": "address",
          "name": "_seaportAddress",
          "type": "address"
        },
        {
          "internalType": "address",
          "name": "_storefrontAddress",
          "type": "address"
        }
      ],
      "stateMutability": "nonpayable",
      "type": "constructor"
    },
    {
      "inputs": [
        {
          "components": [
            {
              "components": [
                {
                  "internalType": "address",
                  "name": "offerer",
                  "type": "address"
                },
                {
                  "internalType": "address",
                  "name": "zone",
                  "type": "address"
                },
                {
                  "components": [
                    {
                      "internalType": "enum ItemType",
                      "name": "itemType",
                      "type": "uint8"
                    },
                    {
                      "internalType": "address",
                      "name": "token",
                      "type": "address"
                    },
                    {
                      "internalType": "uint256",
                      "name": "identifierOrCriteria",
                      "type": "uint256"
                    },
                    {
                      "internalType": "uint256",
                      "name": "startAmount",
                      "type": "uint256"
                    },
                    {
                      "internalType": "uint256",
                      "name": "endAmount",
                      "type": "uint256"
                    }
                  ],
                  "internalType": "struct OfferItem[]",
                  "name": "offer",
                  "type": "tuple[]"
                },
                {
                  "components": [
                    {
                      "internalType": "enum ItemType",
                      "name": "itemType",
                      "type": "uint8"
                    },
                    {
                      "internalType": "address",
                      "name": "token",
                      "type": "address"
                    },
                    {
                      "internalType": "uint256",
                      "name": "identifierOrCriteria",
                      "type": "uint256"
                    },
                    {
                      "internalType": "uint256",
                      "name": "startAmount",
                      "type": "uint256"
                    },
                    {
                      "internalType": "uint256",
                      "name": "endAmount",
                      "type": "uint256"
                    },
                    {
                      "internalType": "address payable",
                      "name": "recipient",
                      "type": "address"
                    }
                  ],
                  "internalType": "struct ConsiderationItem[]",
                  "name": "consideration",
                  "type": "tuple[]"
                },
                {
                  "internalType": "enum OrderType",
                  "name": "orderType",
                  "type": "uint8"
                },
                {
                  "internalType": "uint256",
                  "name": "startTime",
                  "type": "uint256"
                },
                {
                  "internalType": "uint256",
                  "name": "endTime",
                  "type": "uint256"
                },
                {
                  "internalType": "bytes32",
                  "name": "zoneHash",
                  "type": "bytes32"
                },
                {
                  "internalType": "uint256",
                  "name": "salt",
                  "type": "uint256"
                },
                {
                  "internalType": "bytes32",
                  "name": "conduitKey",
                  "type": "bytes32"
                },
                {
                  "internalType": "uint256",
                  "name": "totalOriginalConsiderationItems",
                  "type": "uint256"
                }
              ],
              "internalType": "struct OrderParameters",
              "name": "parameters",
              "type": "tuple"
            },
            {
              "internalType": "uint120",
              "name": "numerator",
              "type": "uint120"
            },
            {
              "internalType": "uint120",
              "name": "denominator",
              "type": "uint120"
            },
            {
              "internalType": "bytes",
              "name": "signature",
              "type": "bytes"
            },
            {
              "internalType": "bytes",
              "name": "extraData",
              "type": "bytes"
            }
          ],
          "internalType": "struct AdvancedOrder",
          "name": "advancedOrder",
          "type": "tuple"
        },
        {
          "components": [
            {
              "internalType": "uint256",
              "name": "orderIndex",
              "type": "uint256"
            },
            {
              "internalType": "enum Side",
              "name": "side",
              "type": "uint8"
            },
            {
              "internalType": "uint256",
              "name": "index",
              "type": "uint256"
            },
            {
              "internalType": "uint256",
              "name": "identifier",
              "type": "uint256"
            },
            {
              "internalType": "bytes32[]",
              "name": "criteriaProof",
              "type": "bytes32[]"
            }
          ],
          "internalType": "struct CriteriaResolver[]",
          "name": "criteriaResolvers",
          "type": "tuple[]"
        },
        {
          "internalType": "bytes32",
          "name": "fulfillerConduitKey",
          "type": "bytes32"
        },
        {
          "internalType": "address",
          "name": "recipient",
          "type": "address"
        },
        {
          "internalType": "address",
          "name": "_operator",
          "type": "address"
        },
        {
          "internalType": "uint8",
          "name": "_v",
          "type": "uint8"
        },
        {
          "internalType": "bytes32",
          "name": "_r",
          "type": "bytes32"
        },
        {
          "internalType": "bytes32",
          "name": "_s",
          "type": "bytes32"
        }
      ],
      "name": "fulfillAdvancedOrder",
      "outputs": [
        {
          "internalType": "bool",
          "name": "fulfilled",
          "type": "bool"
        }
      ],
      "stateMutability": "payable",
      "type": "function"
    },
    {
      "inputs": [],
      "name": "seaportAddress",
      "outputs": [
        {
          "internalType": "address",
          "name": "",
          "type": "address"
        }
      ],
      "stateMutability": "view",
      "type": "function"
    },
    {
      "inputs": [],
      "name": "storefrontAddress",
      "outputs": [
        {
          "internalType": "address",
          "name": "",
          "type": "address"
        }
      ],
      "stateMutability": "view",
      "type": "function"
    }
  ],
  "bytecode": "0x60803461009357601f610e1c38819003918201601f19168301916001600160401b038311848410176100985780849260409485528339810103126100935780610056602061004f610084946100ae565b92016100ae565b600080546001600160a01b039384166001600160a01b03199182161790915560018054929093169116179055565b604051610d5990816100c38239f35b600080fd5b634e487b7160e01b600052604160045260246000fd5b51906001600160a01b03821682036100935756fe608080604052600436101561001357600080fd5b6000803560e01c91826352c6bfeb1461009f575081635e4072941461004b5750638b4cd1fd14610043575b600080fd5b61003e610180565b3461009c57807ffffffffffffffffffffffffffffffffffffffffffffffffffffffffffffffffc36011261009c57602073ffffffffffffffffffffffffffffffffffffffff60015416604051908152f35b80fd5b346100eb57817ffffffffffffffffffffffffffffffffffffffffffffffffffffffffffffffffc3601126100eb5773ffffffffffffffffffffffffffffffffffffffff60209254168152f35b5080fd5b600091031261003e57565b9181601f8401121561003e5782359167ffffffffffffffff831161003e576020808501948460051b01011161003e57565b73ffffffffffffffffffffffffffffffffffffffff81160361003e57565b606435906101568261012b565b565b608435906101568261012b565b35906101568261012b565b60a4359060ff8216820361003e57565b507ffffffffffffffffffffffffffffffffffffffffffffffffffffffffffffffffc6101008136011261003e576004359067ffffffffffffffff9081831161003e5760a090833603011261003e5760243590811161003e5761022e916101ed61021c9236906004016100fa565b916101f6610149565b6101fe610158565b90610207610170565b9260e4359560c4359560443592600401610a0c565b60405190151581529081906020820190565b0390f35b9035907ffffffffffffffffffffffffffffffffffffffffffffffffffffffffffffffea18136030182121561003e570190565b9035907fffffffffffffffffffffffffffffffffffffffffffffffffffffffffffffffe18136030182121561003e570180359067ffffffffffffffff821161003e576020019160a082023603831361003e57565b67ffffffffffffffff81116102cd57604052565b7f4e487b7100000000000000000000000000000000000000000000000000000000600052604160045260246000fd5b90601f7fffffffffffffffffffffffffffffffffffffffffffffffffffffffffffffffe0910116810190811067ffffffffffffffff8211176102cd57604052565b506040513d6000823e3d90fd5b9081602091031261003e5751801515810361003e5790565b90357fffffffffffffffffffffffffffffffffffffffffffffffffffffffffffffffe18236030181121561003e57016020813591019167ffffffffffffffff821161003e5760a082023603831361003e57565b3590600682101561003e57565b507f4e487b7100000000000000000000000000000000000000000000000000000000600052602160045260246000fd5b9060068210156103ff5752565b6104076103c2565b52565b9190808252602080920192916000905b828210610428575050505090565b909192938061044160019261043c886103b5565b6103f2565b73ffffffffffffffffffffffffffffffffffffffff838701356104638161012b565b168184015260408681013590820152606080870135908201526080808701359082015260a090810195019392019061041a565b90357fffffffffffffffffffffffffffffffffffffffffffffffffffffffffffffffe18236030181121561003e57016020813591019167ffffffffffffffff821161003e5760c082023603831361003e57565b9190808252602080920192916000905b828210610507575050505090565b909192938061051b60019261043c886103b5565b828601356105288161012b565b73ffffffffffffffffffffffffffffffffffffffff8091168483015260408088013590830152606080880135908301526080808801359083015260a090818801356105728161012b565b169082015260c09081019501939201906104f9565b3590600482101561003e57565b9060048210156103ff5752565b35906effffffffffffffffffffffffffffff8216820361003e57565b90357fffffffffffffffffffffffffffffffffffffffffffffffffffffffffffffffe18236030181121561003e57016020813591019167ffffffffffffffff821161003e57813603831361003e57565b601f82602094937fffffffffffffffffffffffffffffffffffffffffffffffffffffffffffffffe0938186528686013760008582860101520116010190565b90918281527f07ffffffffffffffffffffffffffffffffffffffffffffffffffffffffffffff831161003e5760209260051b80928483013701016000815290565b9082908084526020809401936005928183851b82010195856000925b8584106106bb57505050505050505090565b90919293949596977fffffffffffffffffffffffffffffffffffffffffffffffffffffffffffffffe082820301845288357fffffffffffffffffffffffffffffffffffffffffffffffffffffffffffffff618436030181121561003e5783018035825286810135600281101561003e57878301526040808201359083015260608082013590830152608090818101357fffffffffffffffffffffffffffffffffffffffffffffffffffffffffffffffe18236030181121561003e57019087823592019267ffffffffffffffff831161003e57828b1b3603841361003e57600193899384936107b19360a08092820152019161064c565b9a0194019401929695949391906106a9565b909594929395608082528035927ffffffffffffffffffffffffffffffffffffffffffffffffffffffffffffffea18236030184121561003e57610156956109dc836109ea946060970160a060808801526101209061084082890161082683610165565b73ffffffffffffffffffffffffffffffffffffffff169052565b61084c60208201610165565b61087161014091828b019073ffffffffffffffffffffffffffffffffffffffff169052565b6108d36108966108846040850185610362565b610160808e01526102808d019161040a565b6108a28c850185610496565b8c83037ffffffffffffffffffffffffffffffffffffffffffffffffffffffffffffffee0016101808e0152906104e9565b916108ee6108e360808301610587565b6101a08c0190610594565b60a08101356101c08b015260c08101356101e08b015260e08101356102008b015261010093848201356102208c01528101356102408b0152013561026089015261095561093d602085016105a1565b6effffffffffffffffffffffffffffff1660a08a0152565b61097c610964604085016105a1565b6effffffffffffffffffffffffffffff1660c08a0152565b6109cc6109c161098e8b8601866105bd565b7fffffffffffffffffffffffffffffffffffffffffffffffffffffffffffffff8094918c60e0878286030191015261060d565b9360808101906105bd565b929091898503019089015261060d565b91848303602086015261068d565b956040820152019073ffffffffffffffffffffffffffffffffffffffff169052565b919596909394929897610a50610a3760015473ffffffffffffffffffffffffffffffffffffffff1690565b73ffffffffffffffffffffffffffffffffffffffff1690565b9773ffffffffffffffffffffffffffffffffffffffff610a7d610a738680610232565b6040810190610265565b9a90501698893b1561003e576040517f40c10f1900000000000000000000000000000000000000000000000000000000815273ffffffffffffffffffffffffffffffffffffffff891660048201526024810191909152600081604481838e5af18015610d16575b610d03575b50883b1561003e576040517fcfa8fb4200000000000000000000000000000000000000000000000000000000815273ffffffffffffffffffffffffffffffffffffffff8881166004830152959095166024860152600160448601527fffffffffffffffffffffffffffffffffffffffffffffffffffffffffffffffff606486015260ff16608485015260a484019190915260c4830152602095600092908390829060e490829084905af18015610cf6575b610cdd575b50610bfe610bc7610a37610a37855473ffffffffffffffffffffffffffffffffffffffff1690565b94604051998a97889687957fe7acab24000000000000000000000000000000000000000000000000000000008752600487016107c3565b03925af1918215610cd0575b600092610ca0575b508115610c1b57565b6040517f08c379a000000000000000000000000000000000000000000000000000000000815260206004820152602560248201527f536561706f7274206f7264657220756e61626c6520746f2062652066756c666960448201527f6c6c65642e0000000000000000000000000000000000000000000000000000006064820152608490fd5b610cc291925060203d8111610cc9575b610cba81836102fc565b81019061034a565b9038610c12565b503d610cb0565b610cd861033d565b610c0a565b80610cea610cf0926102b9565b806100ef565b38610b9f565b610cfe61033d565b610b9a565b80610cea610d10926102b9565b38610ae9565b610d1e61033d565b610ae456fea26469706673582212203e3a3a8fb3ddbd92b6d1954195796c21bfbf663a55cdada2f6eaa1b06e5a9a6b64736f6c634300080e0033",
  "linkReferences": {},
  "deployedLinkReferences": {}
}