{
  "abi": [
    {
      "inputs": [
        {
          "internalType": "address",
          "name": "_minter",
          "type": "address"
        },
        {
          "internalType": "string",
          "name": "_baseURI",
          "type": "string"
        }
      ],
      "stateMutability": "nonpayable",
      "type": "constructor"
    },
    {
      "anonymous": false,
      "inputs": [
        {
          "indexed": true,
          "internalType": "address",
          "name": "owner",
          "type": "address"
        },
        {
          "indexed": true,
          "internalType": "address",
          "name": "operator",
          "type": "address"
        },
        {
          "indexed": false,
          "internalType": "bool",
          "name": "approved",
          "type": "bool"
        }
      ],
      "name": "ApprovalForAll",
      "type": "event"
    },
    {
      "anonymous": false,
      "inputs": [
        {
          "indexed": true,
          "internalType": "address",
          "name": "previousOwner",
          "type": "address"
        },
        {
          "indexed": true,
          "internalType": "address",
          "name": "newOwner",
          "type": "address"
        }
      ],
      "name": "OwnershipTransferred",
      "type": "event"
    },
    {
      "anonymous": false,
      "inputs": [
        {
          "indexed": true,
          "internalType": "address",
          "name": "operator",
          "type": "address"
        },
        {
          "indexed": true,
          "internalType": "address",
          "name": "from",
          "type": "address"
        },
        {
          "indexed": true,
          "internalType": "address",
          "name": "to",
          "type": "address"
        },
        {
          "indexed": false,
          "internalType": "uint256[]",
          "name": "ids",
          "type": "uint256[]"
        },
        {
          "indexed": false,
          "internalType": "uint256[]",
          "name": "amounts",
          "type": "uint256[]"
        }
      ],
      "name": "TransferBatch",
      "type": "event"
    },
    {
      "anonymous": false,
      "inputs": [
        {
          "indexed": true,
          "internalType": "address",
          "name": "operator",
          "type": "address"
        },
        {
          "indexed": true,
          "internalType": "address",
          "name": "from",
          "type": "address"
        },
        {
          "indexed": true,
          "internalType": "address",
          "name": "to",
          "type": "address"
        },
        {
          "indexed": false,
          "internalType": "uint256",
          "name": "id",
          "type": "uint256"
        },
        {
          "indexed": false,
          "internalType": "uint256",
          "name": "amount",
          "type": "uint256"
        }
      ],
      "name": "TransferSingle",
      "type": "event"
    },
    {
      "anonymous": false,
      "inputs": [
        {
          "indexed": false,
          "internalType": "string",
          "name": "value",
          "type": "string"
        },
        {
          "indexed": true,
          "internalType": "uint256",
          "name": "id",
          "type": "uint256"
        }
      ],
      "name": "URI",
      "type": "event"
    },
    {
      "inputs": [
        {
          "internalType": "address",
          "name": "",
          "type": "address"
        },
        {
          "internalType": "uint256",
          "name": "",
          "type": "uint256"
        }
      ],
      "name": "balanceOf",
      "outputs": [
        {
          "internalType": "uint256",
          "name": "",
          "type": "uint256"
        }
      ],
      "stateMutability": "view",
      "type": "function"
    },
    {
      "inputs": [
        {
          "internalType": "address[]",
          "name": "owners",
          "type": "address[]"
        },
        {
          "internalType": "uint256[]",
          "name": "ids",
          "type": "uint256[]"
        }
      ],
      "name": "balanceOfBatch",
      "outputs": [
        {
          "internalType": "uint256[]",
          "name": "balances",
          "type": "uint256[]"
        }
      ],
      "stateMutability": "view",
      "type": "function"
    },
    {
      "inputs": [
        {
          "internalType": "address",
          "name": "",
          "type": "address"
        },
        {
          "internalType": "address",
          "name": "",
          "type": "address"
        }
      ],
      "name": "isApprovedForAll",
      "outputs": [
        {
          "internalType": "bool",
          "name": "",
          "type": "bool"
        }
      ],
      "stateMutability": "view",
      "type": "function"
    },
    {
      "inputs": [
        {
          "internalType": "address",
          "name": "_to",
          "type": "address"
        },
        {
          "internalType": "uint256",
          "name": "_id",
          "type": "uint256"
        },
        {
          "internalType": "uint256",
          "name": "_amount",
          "type": "uint256"
        },
        {
          "internalType": "bytes",
          "name": "_data",
          "type": "bytes"
        }
      ],
      "name": "mint",
      "outputs": [],
      "stateMutability": "nonpayable",
      "type": "function"
    },
    {
      "inputs": [],
      "name": "owner",
      "outputs": [
        {
          "internalType": "address",
          "name": "",
          "type": "address"
        }
      ],
      "stateMutability": "view",
      "type": "function"
    },
    {
      "inputs": [],
      "name": "renounceOwnership",
      "outputs": [],
      "stateMutability": "nonpayable",
      "type": "function"
    },
    {
      "inputs": [
        {
          "internalType": "address",
          "name": "from",
          "type": "address"
        },
        {
          "internalType": "address",
          "name": "to",
          "type": "address"
        },
        {
          "internalType": "uint256[]",
          "name": "ids",
          "type": "uint256[]"
        },
        {
          "internalType": "uint256[]",
          "name": "amounts",
          "type": "uint256[]"
        },
        {
          "internalType": "bytes",
          "name": "data",
          "type": "bytes"
        }
      ],
      "name": "safeBatchTransferFrom",
      "outputs": [],
      "stateMutability": "nonpayable",
      "type": "function"
    },
    {
      "inputs": [
        {
          "internalType": "address",
          "name": "from",
          "type": "address"
        },
        {
          "internalType": "address",
          "name": "to",
          "type": "address"
        },
        {
          "internalType": "uint256",
          "name": "id",
          "type": "uint256"
        },
        {
          "internalType": "uint256",
          "name": "amount",
          "type": "uint256"
        },
        {
          "internalType": "bytes",
          "name": "data",
          "type": "bytes"
        }
      ],
      "name": "safeTransferFrom",
      "outputs": [],
      "stateMutability": "nonpayable",
      "type": "function"
    },
    {
      "inputs": [
        {
          "internalType": "address",
          "name": "operator",
          "type": "address"
        },
        {
          "internalType": "bool",
          "name": "approved",
          "type": "bool"
        }
      ],
      "name": "setApprovalForAll",
      "outputs": [],
      "stateMutability": "nonpayable",
      "type": "function"
    },
    {
      "inputs": [
        {
          "internalType": "bytes4",
          "name": "interfaceId",
          "type": "bytes4"
        }
      ],
      "name": "supportsInterface",
      "outputs": [
        {
          "internalType": "bool",
          "name": "",
          "type": "bool"
        }
      ],
      "stateMutability": "view",
      "type": "function"
    },
    {
      "inputs": [
        {
          "internalType": "uint256",
          "name": "",
          "type": "uint256"
        }
      ],
      "name": "totalSupply",
      "outputs": [
        {
          "internalType": "uint256",
          "name": "",
          "type": "uint256"
        }
      ],
      "stateMutability": "view",
      "type": "function"
    },
    {
      "inputs": [
        {
          "internalType": "address",
          "name": "newOwner",
          "type": "address"
        }
      ],
      "name": "transferOwnership",
      "outputs": [],
      "stateMutability": "nonpayable",
      "type": "function"
    },
    {
      "inputs": [
        {
          "internalType": "string",
          "name": "base",
          "type": "string"
        }
      ],
      "name": "updateBaseUri",
      "outputs": [],
      "stateMutability": "nonpayable",
      "type": "function"
    },
    {
      "inputs": [
        {
          "internalType": "uint256",
          "name": "id",
          "type": "uint256"
        }
      ],
      "name": "uri",
      "outputs": [
        {
          "internalType": "string",
          "name": "",
          "type": "string"
        }
      ],
      "stateMutability": "view",
      "type": "function"
    }
  ],
  "bytecode": {
    "object": "0x60806040523480156200001157600080fd5b506040516200207838038062002078833981016040819052620000349162000186565b6200003f3362000078565b600580546001600160a01b0319166001600160a01b03841617905580516200006f906004906020840190620000ca565b505050620002c2565b600280546001600160a01b038381166001600160a01b0319831681179093556040519116919082907f8be0079c531659141344cd1fd0a4f28419497f9722a3daafe3b4186f6b6457e090600090a35050565b828054620000d89062000286565b90600052602060002090601f016020900481019282620000fc576000855562000147565b82601f106200011757805160ff191683800117855562000147565b8280016001018555821562000147579182015b82811115620001475782518255916020019190600101906200012a565b506200015592915062000159565b5090565b5b808211156200015557600081556001016200015a565b634e487b7160e01b600052604160045260246000fd5b600080604083850312156200019a57600080fd5b82516001600160a01b0381168114620001b257600080fd5b602084810151919350906001600160401b0380821115620001d257600080fd5b818601915086601f830112620001e757600080fd5b815181811115620001fc57620001fc62000170565b604051601f8201601f19908116603f0116810190838211818310171562000227576200022762000170565b8160405282815289868487010111156200024057600080fd5b600093505b8284101562000264578484018601518185018701529285019262000245565b82841115620002765760008684830101525b8096505050505050509250929050565b600181811c908216806200029b57607f821691505b602082108103620002bc57634e487b7160e01b600052602260045260246000fd5b50919050565b611da680620002d26000396000f3fe608060405234801561001057600080fd5b50600436106100e95760003560e01c8063731133e91161008c578063bd85b03911610066578063bd85b0391461020a578063e985e9c51461022a578063f242432a14610258578063f2fde38b1461026b57600080fd5b8063731133e9146101bc5780638da5cb5b146101cf578063a22cb465146101f757600080fd5b80632eb2c2d6116100c85780632eb2c2d61461016c57806339f7e37f146101815780634e1273f414610194578063715018a6146101b457600080fd5b8062fdd58e146100ee57806301ffc9a7146101295780630e89341c1461014c575b600080fd5b6101166100fc36600461139c565b600060208181529281526040808220909352908152205481565b6040519081526020015b60405180910390f35b61013c6101373660046113f4565b61027e565b6040519015158152602001610120565b61015f61015a366004611418565b610363565b60405161012091906114a7565b61017f61017a366004611548565b61043c565b005b61017f61018f366004611603565b610832565b6101a76101a2366004611645565b61084b565b60405161012091906116b1565b61017f6109c2565b61017f6101ca366004611724565b6109d6565b60025460405173ffffffffffffffffffffffffffffffffffffffff9091168152602001610120565b61017f610205366004611817565b610a2f565b610116610218366004611418565b60036020526000908152604090205481565b61013c610238366004611853565b600160209081526000928352604080842090915290825290205460ff1681565b61017f610266366004611886565b610ac6565b61017f6102793660046118fe565b610dcc565b60007f01ffc9a7000000000000000000000000000000000000000000000000000000007fffffffff000000000000000000000000000000000000000000000000000000008316148061031157507fd9b67a26000000000000000000000000000000000000000000000000000000007fffffffff000000000000000000000000000000000000000000000000000000008316145b8061035d57507f0e89341c000000000000000000000000000000000000000000000000000000007fffffffff000000000000000000000000000000000000000000000000000000008316145b92915050565b606060006004805461037490611919565b90501161040b576004805461038890611919565b80601f01602080910402602001604051908101604052809291908181526020018280546103b490611919565b80156104015780601f106103d657610100808354040283529160200191610401565b820191906000526020600020905b8154815290600101906020018083116103e457829003601f168201915b505050505061035d565b600461041683610e83565b604051602001610427929190611988565b60405160208183030381529060405292915050565b8483146104aa576040517f08c379a000000000000000000000000000000000000000000000000000000000815260206004820152600f60248201527f4c454e4754485f4d49534d41544348000000000000000000000000000000000060448201526064015b60405180910390fd5b3373ffffffffffffffffffffffffffffffffffffffff891614806104fe575073ffffffffffffffffffffffffffffffffffffffff8816600090815260016020908152604080832033845290915290205460ff165b610564576040517f08c379a000000000000000000000000000000000000000000000000000000000815260206004820152600e60248201527f4e4f545f415554484f52495a454400000000000000000000000000000000000060448201526064016104a1565b60008060005b878110156106395788888281811061058457610584611a65565b90506020020135925086868281811061059f5761059f611a65565b73ffffffffffffffffffffffffffffffffffffffff8e16600090815260208181526040808320898452825282208054939091029490940135955085939250906105e9908490611ac3565b909155505073ffffffffffffffffffffffffffffffffffffffff8a166000908152602081815260408083208684529091528120805484929061062c908490611ada565b909155505060010161056a565b508873ffffffffffffffffffffffffffffffffffffffff168a73ffffffffffffffffffffffffffffffffffffffff163373ffffffffffffffffffffffffffffffffffffffff167f4a39dc06d4c0dbc64b70af90fd698a233a518aa5d07e595d983b8c0526c8f7fb8b8b8b8b6040516106b49493929190611b41565b60405180910390a473ffffffffffffffffffffffffffffffffffffffff89163b156107a6576040517fbc197c81000000000000000000000000000000000000000000000000000000008082529073ffffffffffffffffffffffffffffffffffffffff8b169063bc197c819061073b9033908f908e908e908e908e908e908e90600401611bbc565b6020604051808303816000875af115801561075a573d6000803e3d6000fd5b505050506040513d601f19601f8201168201806040525081019061077e9190611c2d565b7fffffffff0000000000000000000000000000000000000000000000000000000016146107c0565b73ffffffffffffffffffffffffffffffffffffffff891615155b610826576040517f08c379a000000000000000000000000000000000000000000000000000000000815260206004820152601060248201527f554e534146455f524543495049454e540000000000000000000000000000000060448201526064016104a1565b50505050505050505050565b61083a610fc0565b610846600483836112bc565b505050565b60608382146108b6576040517f08c379a000000000000000000000000000000000000000000000000000000000815260206004820152600f60248201527f4c454e4754485f4d49534d41544348000000000000000000000000000000000060448201526064016104a1565b8367ffffffffffffffff8111156108cf576108cf6116f5565b6040519080825280602002602001820160405280156108f8578160200160208202803683370190505b50905060005b848110156109b95760008087878481811061091b5761091b611a65565b905060200201602081019061093091906118fe565b73ffffffffffffffffffffffffffffffffffffffff1673ffffffffffffffffffffffffffffffffffffffff168152602001908152602001600020600085858481811061097e5761097e611a65565b905060200201358152602001908152602001600020548282815181106109a6576109a6611a65565b60209081029190910101526001016108fe565b50949350505050565b6109ca610fc0565b6109d46000611041565b565b60055473ffffffffffffffffffffffffffffffffffffffff1633146109fa57600080fd5b610a06848484846110b8565b60008381526003602052604081208054849290610a24908490611ada565b909155505050505050565b33600081815260016020908152604080832073ffffffffffffffffffffffffffffffffffffffff87168085529083529281902080547fffffffffffffffffffffffffffffffffffffffffffffffffffffffffffffff001686151590811790915590519081529192917f17307eab39ab6107e8899845ad3d59bd9653f200f220920489ca2b5937696c31910160405180910390a35050565b3373ffffffffffffffffffffffffffffffffffffffff87161480610b1a575073ffffffffffffffffffffffffffffffffffffffff8616600090815260016020908152604080832033845290915290205460ff165b610b80576040517f08c379a000000000000000000000000000000000000000000000000000000000815260206004820152600e60248201527f4e4f545f415554484f52495a454400000000000000000000000000000000000060448201526064016104a1565b73ffffffffffffffffffffffffffffffffffffffff861660009081526020818152604080832087845290915281208054859290610bbe908490611ac3565b909155505073ffffffffffffffffffffffffffffffffffffffff851660009081526020818152604080832087845290915281208054859290610c01908490611ada565b9091555050604080518581526020810185905273ffffffffffffffffffffffffffffffffffffffff808816929089169133917fc3d58168c5ae7397731d063d5bbf3d657854427343f4c083240f7aacaa2d0f62910160405180910390a473ffffffffffffffffffffffffffffffffffffffff85163b15610d44576040517ff23a6e61000000000000000000000000000000000000000000000000000000008082529073ffffffffffffffffffffffffffffffffffffffff87169063f23a6e6190610cd99033908b908a908a908a908a90600401611c4a565b6020604051808303816000875af1158015610cf8573d6000803e3d6000fd5b505050506040513d601f19601f82011682018060405250810190610d1c9190611c2d565b7fffffffff000000000000000000000000000000000000000000000000000000001614610d5e565b73ffffffffffffffffffffffffffffffffffffffff851615155b610dc4576040517f08c379a000000000000000000000000000000000000000000000000000000000815260206004820152601060248201527f554e534146455f524543495049454e540000000000000000000000000000000060448201526064016104a1565b505050505050565b610dd4610fc0565b73ffffffffffffffffffffffffffffffffffffffff8116610e77576040517f08c379a000000000000000000000000000000000000000000000000000000000815260206004820152602660248201527f4f776e61626c653a206e6577206f776e657220697320746865207a65726f206160448201527f646472657373000000000000000000000000000000000000000000000000000060648201526084016104a1565b610e8081611041565b50565b606081600003610ec657505060408051808201909152600181527f3000000000000000000000000000000000000000000000000000000000000000602082015290565b8160005b8115610ef05780610eda81611c9c565b9150610ee99050600a83611d03565b9150610eca565b60008167ffffffffffffffff811115610f0b57610f0b6116f5565b6040519080825280601f01601f191660200182016040528015610f35576020820181803683370190505b5090505b8415610fb857610f4a600183611ac3565b9150610f57600a86611d17565b610f62906030611ada565b60f81b818381518110610f7757610f77611a65565b60200101907effffffffffffffffffffffffffffffffffffffffffffffffffffffffffffff1916908160001a905350610fb1600a86611d03565b9450610f39565b949350505050565b60025473ffffffffffffffffffffffffffffffffffffffff1633146109d4576040517f08c379a000000000000000000000000000000000000000000000000000000000815260206004820181905260248201527f4f776e61626c653a2063616c6c6572206973206e6f7420746865206f776e657260448201526064016104a1565b6002805473ffffffffffffffffffffffffffffffffffffffff8381167fffffffffffffffffffffffff0000000000000000000000000000000000000000831681179093556040519116919082907f8be0079c531659141344cd1fd0a4f28419497f9722a3daafe3b4186f6b6457e090600090a35050565b73ffffffffffffffffffffffffffffffffffffffff8416600090815260208181526040808320868452909152812080548492906110f6908490611ada565b9091555050604080518481526020810184905273ffffffffffffffffffffffffffffffffffffffff86169160009133917fc3d58168c5ae7397731d063d5bbf3d657854427343f4c083240f7aacaa2d0f62910160405180910390a473ffffffffffffffffffffffffffffffffffffffff84163b15611236576040517ff23a6e61000000000000000000000000000000000000000000000000000000008082529073ffffffffffffffffffffffffffffffffffffffff86169063f23a6e61906111cb903390600090899089908990600401611d2b565b6020604051808303816000875af11580156111ea573d6000803e3d6000fd5b505050506040513d601f19601f8201168201806040525081019061120e9190611c2d565b7fffffffff000000000000000000000000000000000000000000000000000000001614611250565b73ffffffffffffffffffffffffffffffffffffffff841615155b6112b6576040517f08c379a000000000000000000000000000000000000000000000000000000000815260206004820152601060248201527f554e534146455f524543495049454e540000000000000000000000000000000060448201526064016104a1565b50505050565b8280546112c890611919565b90600052602060002090601f0160209004810192826112ea576000855561134e565b82601f10611321578280017fffffffffffffffffffffffffffffffffffffffffffffffffffffffffffffff0082351617855561134e565b8280016001018555821561134e579182015b8281111561134e578235825591602001919060010190611333565b5061135a92915061135e565b5090565b5b8082111561135a576000815560010161135f565b803573ffffffffffffffffffffffffffffffffffffffff8116811461139757600080fd5b919050565b600080604083850312156113af57600080fd5b6113b883611373565b946020939093013593505050565b7fffffffff0000000000000000000000000000000000000000000000000000000081168114610e8057600080fd5b60006020828403121561140657600080fd5b8135611411816113c6565b9392505050565b60006020828403121561142a57600080fd5b5035919050565b60005b8381101561144c578181015183820152602001611434565b838111156112b65750506000910152565b60008151808452611475816020860160208601611431565b601f017fffffffffffffffffffffffffffffffffffffffffffffffffffffffffffffffe0169290920160200192915050565b602081526000611411602083018461145d565b60008083601f8401126114cc57600080fd5b50813567ffffffffffffffff8111156114e457600080fd5b6020830191508360208260051b85010111156114ff57600080fd5b9250929050565b60008083601f84011261151857600080fd5b50813567ffffffffffffffff81111561153057600080fd5b6020830191508360208285010111156114ff57600080fd5b60008060008060008060008060a0898b03121561156457600080fd5b61156d89611373565b975061157b60208a01611373565b9650604089013567ffffffffffffffff8082111561159857600080fd5b6115a48c838d016114ba565b909850965060608b01359150808211156115bd57600080fd5b6115c98c838d016114ba565b909650945060808b01359150808211156115e257600080fd5b506115ef8b828c01611506565b999c989b5096995094979396929594505050565b6000806020838503121561161657600080fd5b823567ffffffffffffffff81111561162d57600080fd5b61163985828601611506565b90969095509350505050565b6000806000806040858703121561165b57600080fd5b843567ffffffffffffffff8082111561167357600080fd5b61167f888389016114ba565b9096509450602087013591508082111561169857600080fd5b506116a5878288016114ba565b95989497509550505050565b6020808252825182820181905260009190848201906040850190845b818110156116e9578351835292840192918401916001016116cd565b50909695505050505050565b7f4e487b7100000000000000000000000000000000000000000000000000000000600052604160045260246000fd5b6000806000806080858703121561173a57600080fd5b61174385611373565b93506020850135925060408501359150606085013567ffffffffffffffff8082111561176e57600080fd5b818701915087601f83011261178257600080fd5b813581811115611794576117946116f5565b604051601f82017fffffffffffffffffffffffffffffffffffffffffffffffffffffffffffffffe0908116603f011681019083821181831017156117da576117da6116f5565b816040528281528a60208487010111156117f357600080fd5b82602086016020830137600060208483010152809550505050505092959194509250565b6000806040838503121561182a57600080fd5b61183383611373565b91506020830135801515811461184857600080fd5b809150509250929050565b6000806040838503121561186657600080fd5b61186f83611373565b915061187d60208401611373565b90509250929050565b60008060008060008060a0878903121561189f57600080fd5b6118a887611373565b95506118b660208801611373565b94506040870135935060608701359250608087013567ffffffffffffffff8111156118e057600080fd5b6118ec89828a01611506565b979a9699509497509295939492505050565b60006020828403121561191057600080fd5b61141182611373565b600181811c9082168061192d57607f821691505b602082108103611966577f4e487b7100000000000000000000000000000000000000000000000000000000600052602260045260246000fd5b50919050565b6000815161197e818560208601611431565b9290920192915050565b600080845481600182811c9150808316806119a457607f831692505b602080841082036119dc577f4e487b710000000000000000000000000000000000000000000000000000000086526022600452602486fd5b8180156119f05760018114611a1f57611a4c565b7fffffffffffffffffffffffffffffffffffffffffffffffffffffffffffffff00861689528489019650611a4c565b60008b81526020902060005b86811015611a445781548b820152908501908301611a2b565b505084890196505b505050505050611a5c818561196c565b95945050505050565b7f4e487b7100000000000000000000000000000000000000000000000000000000600052603260045260246000fd5b7f4e487b7100000000000000000000000000000000000000000000000000000000600052601160045260246000fd5b600082821015611ad557611ad5611a94565b500390565b60008219821115611aed57611aed611a94565b500190565b81835260007f07ffffffffffffffffffffffffffffffffffffffffffffffffffffffffffffff831115611b2457600080fd5b8260051b8083602087013760009401602001938452509192915050565b604081526000611b55604083018688611af2565b8281036020840152611b68818587611af2565b979650505050505050565b8183528181602085013750600060208284010152600060207fffffffffffffffffffffffffffffffffffffffffffffffffffffffffffffffe0601f840116840101905092915050565b600073ffffffffffffffffffffffffffffffffffffffff808b168352808a1660208401525060a06040830152611bf660a08301888a611af2565b8281036060840152611c09818789611af2565b90508281036080840152611c1e818587611b73565b9b9a5050505050505050505050565b600060208284031215611c3f57600080fd5b8151611411816113c6565b600073ffffffffffffffffffffffffffffffffffffffff808916835280881660208401525085604083015284606083015260a06080830152611c9060a083018486611b73565b98975050505050505050565b60007fffffffffffffffffffffffffffffffffffffffffffffffffffffffffffffffff8203611ccd57611ccd611a94565b5060010190565b7f4e487b7100000000000000000000000000000000000000000000000000000000600052601260045260246000fd5b600082611d1257611d12611cd4565b500490565b600082611d2657611d26611cd4565b500690565b600073ffffffffffffffffffffffffffffffffffffffff808816835280871660208401525084604083015283606083015260a06080830152611b6860a083018461145d56fea2646970667358221220347e9113fe14565e20770983a9c24361da019769c1cbf39c5b74a06bafca3fe064736f6c634300080e0033",
    "linkReferences": {}
  },
  "methodIdentifiers": {
    "balanceOf(address,uint256)": "00fdd58e",
    "balanceOfBatch(address[],uint256[])": "4e1273f4",
    "isApprovedForAll(address,address)": "e985e9c5",
    "mint(address,uint256,uint256,bytes)": "731133e9",
    "owner()": "8da5cb5b",
    "renounceOwnership()": "715018a6",
    "safeBatchTransferFrom(address,address,uint256[],uint256[],bytes)": "2eb2c2d6",
    "safeTransferFrom(address,address,uint256,uint256,bytes)": "f242432a",
    "setApprovalForAll(address,bool)": "a22cb465",
    "supportsInterface(bytes4)": "01ffc9a7",
    "totalSupply(uint256)": "bd85b039",
    "transferOwnership(address)": "f2fde38b",
    "updateBaseUri(string)": "39f7e37f",
    "uri(uint256)": "0e89341c"
  },
  "id": 0
}