{
  "abi": [
    {
      "inputs": [
        {
          "internalType": "address",
          "name": "_minter",
          "type": "address"
        }
      ],
      "stateMutability": "nonpayable",
      "type": "constructor"
    },
    {
      "anonymous": false,
      "inputs": [
        {
          "indexed": true,
          "internalType": "address",
          "name": "owner",
          "type": "address"
        },
        {
          "indexed": true,
          "internalType": "address",
          "name": "operator",
          "type": "address"
        },
        {
          "indexed": false,
          "internalType": "bool",
          "name": "approved",
          "type": "bool"
        }
      ],
      "name": "ApprovalForAll",
      "type": "event"
    },
    {
      "anonymous": false,
      "inputs": [
        {
          "indexed": true,
          "internalType": "address",
          "name": "previousOwner",
          "type": "address"
        },
        {
          "indexed": true,
          "internalType": "address",
          "name": "newOwner",
          "type": "address"
        }
      ],
      "name": "OwnershipTransferred",
      "type": "event"
    },
    {
      "anonymous": false,
      "inputs": [
        {
          "indexed": true,
          "internalType": "address",
          "name": "operator",
          "type": "address"
        },
        {
          "indexed": true,
          "internalType": "address",
          "name": "from",
          "type": "address"
        },
        {
          "indexed": true,
          "internalType": "address",
          "name": "to",
          "type": "address"
        },
        {
          "indexed": false,
          "internalType": "uint256[]",
          "name": "ids",
          "type": "uint256[]"
        },
        {
          "indexed": false,
          "internalType": "uint256[]",
          "name": "amounts",
          "type": "uint256[]"
        }
      ],
      "name": "TransferBatch",
      "type": "event"
    },
    {
      "anonymous": false,
      "inputs": [
        {
          "indexed": true,
          "internalType": "address",
          "name": "operator",
          "type": "address"
        },
        {
          "indexed": true,
          "internalType": "address",
          "name": "from",
          "type": "address"
        },
        {
          "indexed": true,
          "internalType": "address",
          "name": "to",
          "type": "address"
        },
        {
          "indexed": false,
          "internalType": "uint256",
          "name": "id",
          "type": "uint256"
        },
        {
          "indexed": false,
          "internalType": "uint256",
          "name": "amount",
          "type": "uint256"
        }
      ],
      "name": "TransferSingle",
      "type": "event"
    },
    {
      "anonymous": false,
      "inputs": [
        {
          "indexed": false,
          "internalType": "string",
          "name": "value",
          "type": "string"
        },
        {
          "indexed": true,
          "internalType": "uint256",
          "name": "id",
          "type": "uint256"
        }
      ],
      "name": "URI",
      "type": "event"
    },
    {
      "inputs": [],
      "name": "NAME",
      "outputs": [
        {
          "internalType": "string",
          "name": "",
          "type": "string"
        }
      ],
      "stateMutability": "view",
      "type": "function"
    },
    {
      "inputs": [],
      "name": "VERSION",
      "outputs": [
        {
          "internalType": "string",
          "name": "",
          "type": "string"
        }
      ],
      "stateMutability": "view",
      "type": "function"
    },
    {
      "inputs": [
        {
          "internalType": "address",
          "name": "",
          "type": "address"
        },
        {
          "internalType": "uint256",
          "name": "",
          "type": "uint256"
        }
      ],
      "name": "balanceOf",
      "outputs": [
        {
          "internalType": "uint256",
          "name": "",
          "type": "uint256"
        }
      ],
      "stateMutability": "view",
      "type": "function"
    },
    {
      "inputs": [
        {
          "internalType": "address[]",
          "name": "owners",
          "type": "address[]"
        },
        {
          "internalType": "uint256[]",
          "name": "ids",
          "type": "uint256[]"
        }
      ],
      "name": "balanceOfBatch",
      "outputs": [
        {
          "internalType": "uint256[]",
          "name": "balances",
          "type": "uint256[]"
        }
      ],
      "stateMutability": "view",
      "type": "function"
    },
    {
      "inputs": [
        {
          "internalType": "address",
          "name": "",
          "type": "address"
        },
        {
          "internalType": "address",
          "name": "",
          "type": "address"
        }
      ],
      "name": "isApprovedForAll",
      "outputs": [
        {
          "internalType": "bool",
          "name": "",
          "type": "bool"
        }
      ],
      "stateMutability": "view",
      "type": "function"
    },
    {
      "inputs": [
        {
          "internalType": "address",
          "name": "_to",
          "type": "address"
        },
        {
          "internalType": "uint256",
          "name": "_amount",
          "type": "uint256"
        }
      ],
      "name": "mint",
      "outputs": [],
      "stateMutability": "nonpayable",
      "type": "function"
    },
    {
      "inputs": [
        {
          "internalType": "address",
          "name": "",
          "type": "address"
        }
      ],
      "name": "nonces",
      "outputs": [
        {
          "internalType": "uint256",
          "name": "",
          "type": "uint256"
        }
      ],
      "stateMutability": "view",
      "type": "function"
    },
    {
      "inputs": [],
      "name": "owner",
      "outputs": [
        {
          "internalType": "address",
          "name": "",
          "type": "address"
        }
      ],
      "stateMutability": "view",
      "type": "function"
    },
    {
      "inputs": [
        {
          "internalType": "address",
          "name": "_owner",
          "type": "address"
        },
        {
          "internalType": "address",
          "name": "_operator",
          "type": "address"
        },
        {
          "internalType": "bool",
          "name": "_approved",
          "type": "bool"
        },
        {
          "internalType": "uint256",
          "name": "_deadline",
          "type": "uint256"
        },
        {
          "internalType": "uint8",
          "name": "_v",
          "type": "uint8"
        },
        {
          "internalType": "bytes32",
          "name": "_r",
          "type": "bytes32"
        },
        {
          "internalType": "bytes32",
          "name": "_s",
          "type": "bytes32"
        }
      ],
      "name": "permitAll",
      "outputs": [],
      "stateMutability": "nonpayable",
      "type": "function"
    },
    {
      "inputs": [],
      "name": "renounceOwnership",
      "outputs": [],
      "stateMutability": "nonpayable",
      "type": "function"
    },
    {
      "inputs": [
        {
          "internalType": "address",
          "name": "from",
          "type": "address"
        },
        {
          "internalType": "address",
          "name": "to",
          "type": "address"
        },
        {
          "internalType": "uint256[]",
          "name": "ids",
          "type": "uint256[]"
        },
        {
          "internalType": "uint256[]",
          "name": "amounts",
          "type": "uint256[]"
        },
        {
          "internalType": "bytes",
          "name": "data",
          "type": "bytes"
        }
      ],
      "name": "safeBatchTransferFrom",
      "outputs": [],
      "stateMutability": "nonpayable",
      "type": "function"
    },
    {
      "inputs": [
        {
          "internalType": "address",
          "name": "from",
          "type": "address"
        },
        {
          "internalType": "address",
          "name": "to",
          "type": "address"
        },
        {
          "internalType": "uint256",
          "name": "id",
          "type": "uint256"
        },
        {
          "internalType": "uint256",
          "name": "amount",
          "type": "uint256"
        },
        {
          "internalType": "bytes",
          "name": "data",
          "type": "bytes"
        }
      ],
      "name": "safeTransferFrom",
      "outputs": [],
      "stateMutability": "nonpayable",
      "type": "function"
    },
    {
      "inputs": [
        {
          "internalType": "address",
          "name": "operator",
          "type": "address"
        },
        {
          "internalType": "bool",
          "name": "approved",
          "type": "bool"
        }
      ],
      "name": "setApprovalForAll",
      "outputs": [],
      "stateMutability": "nonpayable",
      "type": "function"
    },
    {
      "inputs": [
        {
          "internalType": "bytes4",
          "name": "interfaceId",
          "type": "bytes4"
        }
      ],
      "name": "supportsInterface",
      "outputs": [
        {
          "internalType": "bool",
          "name": "",
          "type": "bool"
        }
      ],
      "stateMutability": "view",
      "type": "function"
    },
    {
      "inputs": [
        {
          "internalType": "uint256",
          "name": "",
          "type": "uint256"
        }
      ],
      "name": "totalSupply",
      "outputs": [
        {
          "internalType": "uint256",
          "name": "",
          "type": "uint256"
        }
      ],
      "stateMutability": "view",
      "type": "function"
    },
    {
      "inputs": [
        {
          "internalType": "address",
          "name": "_newMinter",
          "type": "address"
        }
      ],
      "name": "transferMinter",
      "outputs": [],
      "stateMutability": "nonpayable",
      "type": "function"
    },
    {
      "inputs": [
        {
          "internalType": "address",
          "name": "newOwner",
          "type": "address"
        }
      ],
      "name": "transferOwnership",
      "outputs": [],
      "stateMutability": "nonpayable",
      "type": "function"
    },
    {
      "inputs": [
        {
          "internalType": "string",
          "name": "base",
          "type": "string"
        }
      ],
      "name": "updateBaseUri",
      "outputs": [],
      "stateMutability": "nonpayable",
      "type": "function"
    },
    {
      "inputs": [
        {
          "internalType": "uint256",
          "name": "id",
          "type": "uint256"
        }
      ],
      "name": "uri",
      "outputs": [
        {
          "internalType": "string",
          "name": "",
          "type": "string"
        }
      ],
      "stateMutability": "view",
      "type": "function"
    }
  ],
  "bytecode": {
    "object": "0x60806040523480156200001157600080fd5b50604051620025973803806200259783398101604081905262000034916200017a565b6200003f3362000082565b600680546001600160a01b0319166001600160a01b0383161790556040805160208101918290526000908190526200007a91600591620000d4565b5050620001e8565b600280546001600160a01b038381166001600160a01b0319831681179093556040519116919082907f8be0079c531659141344cd1fd0a4f28419497f9722a3daafe3b4186f6b6457e090600090a35050565b828054620000e290620001ac565b90600052602060002090601f01602090048101928262000106576000855562000151565b82601f106200012157805160ff191683800117855562000151565b8280016001018555821562000151579182015b828111156200015157825182559160200191906001019062000134565b506200015f92915062000163565b5090565b5b808211156200015f576000815560010162000164565b6000602082840312156200018d57600080fd5b81516001600160a01b0381168114620001a557600080fd5b9392505050565b600181811c90821680620001c157607f821691505b602082108103620001e257634e487b7160e01b600052602260045260246000fd5b50919050565b61239f80620001f86000396000f3fe608060405234801561001057600080fd5b50600436106101505760003560e01c80638da5cb5b116100cd578063e985e9c511610081578063f2fde38b11610066578063f2fde38b14610341578063fe99ad5a14610354578063ffa1ad741461036757600080fd5b8063e985e9c514610300578063f242432a1461032e57600080fd5b8063a3f4df7e116100b2578063a3f4df7e14610291578063bd85b039146102cd578063cfa8fb42146102ed57600080fd5b80638da5cb5b14610256578063a22cb4651461027e57600080fd5b806339f7e37f116101245780634e1273f4116101095780634e1273f41461020e578063715018a61461022e5780637ecebe001461023657600080fd5b806339f7e37f146101e857806340c10f19146101fb57600080fd5b8062fdd58e1461015557806301ffc9a7146101905780630e89341c146101b35780632eb2c2d6146101d3575b600080fd5b61017d6101633660046119b6565b600060208181529281526040808220909352908152205481565b6040519081526020015b60405180910390f35b6101a361019e366004611a0e565b6103a3565b6040519015158152602001610187565b6101c66101c1366004611a32565b610488565b6040516101879190611ac1565b6101e66101e1366004611b62565b610561565b005b6101e66101f6366004611c1d565b610957565b6101e66102093660046119b6565b610970565b61022161021c366004611c5f565b6109f1565b6040516101879190611ccb565b6101e6610b68565b61017d610244366004611d0f565b60036020526000908152604090205481565b60025460405173ffffffffffffffffffffffffffffffffffffffff9091168152602001610187565b6101e661028c366004611d3a565b610b7c565b6101c66040518060400160405280600a81526020017f53544f524546524f4e540000000000000000000000000000000000000000000081525081565b61017d6102db366004611a32565b60046020526000908152604090205481565b6101e66102fb366004611d6d565b610c13565b6101a361030e366004611de7565b600160209081526000928352604080842090915290825290205460ff1681565b6101e661033c366004611e11565b610ece565b6101e661034f366004611d0f565b6111d4565b6101e6610362366004611d0f565b61128b565b6101c66040518060400160405280600181526020017f310000000000000000000000000000000000000000000000000000000000000081525081565b60007f01ffc9a7000000000000000000000000000000000000000000000000000000007fffffffff000000000000000000000000000000000000000000000000000000008316148061043657507fd9b67a26000000000000000000000000000000000000000000000000000000007fffffffff000000000000000000000000000000000000000000000000000000008316145b8061048257507f0e89341c000000000000000000000000000000000000000000000000000000007fffffffff000000000000000000000000000000000000000000000000000000008316145b92915050565b606060006005805461049990611e89565b90501161053057600580546104ad90611e89565b80601f01602080910402602001604051908101604052809291908181526020018280546104d990611e89565b80156105265780601f106104fb57610100808354040283529160200191610526565b820191906000526020600020905b81548152906001019060200180831161050957829003601f168201915b5050505050610482565b600561053b83611318565b60405160200161054c929190611ef8565b60405160208183030381529060405292915050565b8483146105cf576040517f08c379a000000000000000000000000000000000000000000000000000000000815260206004820152600f60248201527f4c454e4754485f4d49534d41544348000000000000000000000000000000000060448201526064015b60405180910390fd5b3373ffffffffffffffffffffffffffffffffffffffff89161480610623575073ffffffffffffffffffffffffffffffffffffffff8816600090815260016020908152604080832033845290915290205460ff165b610689576040517f08c379a000000000000000000000000000000000000000000000000000000000815260206004820152600e60248201527f4e4f545f415554484f52495a454400000000000000000000000000000000000060448201526064016105c6565b60008060005b8781101561075e578888828181106106a9576106a9611fd5565b9050602002013592508686828181106106c4576106c4611fd5565b73ffffffffffffffffffffffffffffffffffffffff8e166000908152602081815260408083208984528252822080549390910294909401359550859392509061070e908490612033565b909155505073ffffffffffffffffffffffffffffffffffffffff8a166000908152602081815260408083208684529091528120805484929061075190849061204a565b909155505060010161068f565b508873ffffffffffffffffffffffffffffffffffffffff168a73ffffffffffffffffffffffffffffffffffffffff163373ffffffffffffffffffffffffffffffffffffffff167f4a39dc06d4c0dbc64b70af90fd698a233a518aa5d07e595d983b8c0526c8f7fb8b8b8b8b6040516107d994939291906120b1565b60405180910390a473ffffffffffffffffffffffffffffffffffffffff89163b156108cb576040517fbc197c81000000000000000000000000000000000000000000000000000000008082529073ffffffffffffffffffffffffffffffffffffffff8b169063bc197c81906108609033908f908e908e908e908e908e908e9060040161212c565b6020604051808303816000875af115801561087f573d6000803e3d6000fd5b505050506040513d601f19601f820116820180604052508101906108a3919061219d565b7fffffffff0000000000000000000000000000000000000000000000000000000016146108e5565b73ffffffffffffffffffffffffffffffffffffffff891615155b61094b576040517f08c379a000000000000000000000000000000000000000000000000000000000815260206004820152601060248201527f554e534146455f524543495049454e540000000000000000000000000000000060448201526064016105c6565b50505050505050505050565b61095f611455565b61096b600583836118d6565b505050565b60065473ffffffffffffffffffffffffffffffffffffffff16331461099457600080fd5b6109b18260075483604051806020016040528060008152506114d6565b600780548291600491600091826109c7836121ba565b91905055815260200190815260200160002060008282546109e8919061204a565b90915550505050565b6060838214610a5c576040517f08c379a000000000000000000000000000000000000000000000000000000000815260206004820152600f60248201527f4c454e4754485f4d49534d41544348000000000000000000000000000000000060448201526064016105c6565b8367ffffffffffffffff811115610a7557610a756121f2565b604051908082528060200260200182016040528015610a9e578160200160208202803683370190505b50905060005b84811015610b5f57600080878784818110610ac157610ac1611fd5565b9050602002016020810190610ad69190611d0f565b73ffffffffffffffffffffffffffffffffffffffff1673ffffffffffffffffffffffffffffffffffffffff1681526020019081526020016000206000858584818110610b2457610b24611fd5565b90506020020135815260200190815260200160002054828281518110610b4c57610b4c611fd5565b6020908102919091010152600101610aa4565b50949350505050565b610b70611455565b610b7a60006116da565b565b33600081815260016020908152604080832073ffffffffffffffffffffffffffffffffffffffff87168085529083529281902080547fffffffffffffffffffffffffffffffffffffffffffffffffffffffffffffff001686151590811790915590519081529192917f17307eab39ab6107e8899845ad3d59bd9653f200f220920489ca2b5937696c31910160405180910390a35050565b83421115610c7d576040517f08c379a000000000000000000000000000000000000000000000000000000000815260206004820152600b60248201527f534947204558504952454400000000000000000000000000000000000000000060448201526064016105c6565b6000610c8b88888888611751565b90506000610cf6610c9a611816565b836040517f19010000000000000000000000000000000000000000000000000000000000006020820152602281018390526042810182905260009060620160405160208183030381529060405280519060200120905092915050565b6040805160008082526020820180845284905260ff89169282019290925260608101879052608081018690529192509060019060a0016020604051602081039080840390855afa158015610d4e573d6000803e3d6000fd5b50506040517fffffffffffffffffffffffffffffffffffffffffffffffffffffffffffffffe0015191505073ffffffffffffffffffffffffffffffffffffffff81161580610dc857508973ffffffffffffffffffffffffffffffffffffffff168173ffffffffffffffffffffffffffffffffffffffff1614155b15610e2f576040517f08c379a000000000000000000000000000000000000000000000000000000000815260206004820152600a60248201527f494e56414c49445349470000000000000000000000000000000000000000000060448201526064016105c6565b73ffffffffffffffffffffffffffffffffffffffff8a81166000818152600160209081526040808320948e168084529482529182902080547fffffffffffffffffffffffffffffffffffffffffffffffffffffffffffffff00168d151590811790915591519182527f17307eab39ab6107e8899845ad3d59bd9653f200f220920489ca2b5937696c31910160405180910390a350505050505050505050565b3373ffffffffffffffffffffffffffffffffffffffff87161480610f22575073ffffffffffffffffffffffffffffffffffffffff8616600090815260016020908152604080832033845290915290205460ff165b610f88576040517f08c379a000000000000000000000000000000000000000000000000000000000815260206004820152600e60248201527f4e4f545f415554484f52495a454400000000000000000000000000000000000060448201526064016105c6565b73ffffffffffffffffffffffffffffffffffffffff861660009081526020818152604080832087845290915281208054859290610fc6908490612033565b909155505073ffffffffffffffffffffffffffffffffffffffff85166000908152602081815260408083208784529091528120805485929061100990849061204a565b9091555050604080518581526020810185905273ffffffffffffffffffffffffffffffffffffffff808816929089169133917fc3d58168c5ae7397731d063d5bbf3d657854427343f4c083240f7aacaa2d0f62910160405180910390a473ffffffffffffffffffffffffffffffffffffffff85163b1561114c576040517ff23a6e61000000000000000000000000000000000000000000000000000000008082529073ffffffffffffffffffffffffffffffffffffffff87169063f23a6e61906110e19033908b908a908a908a908a90600401612221565b6020604051808303816000875af1158015611100573d6000803e3d6000fd5b505050506040513d601f19601f82011682018060405250810190611124919061219d565b7fffffffff000000000000000000000000000000000000000000000000000000001614611166565b73ffffffffffffffffffffffffffffffffffffffff851615155b6111cc576040517f08c379a000000000000000000000000000000000000000000000000000000000815260206004820152601060248201527f554e534146455f524543495049454e540000000000000000000000000000000060448201526064016105c6565b505050505050565b6111dc611455565b73ffffffffffffffffffffffffffffffffffffffff811661127f576040517f08c379a000000000000000000000000000000000000000000000000000000000815260206004820152602660248201527f4f776e61626c653a206e6577206f776e657220697320746865207a65726f206160448201527f646472657373000000000000000000000000000000000000000000000000000060648201526084016105c6565b611288816116da565b50565b60065473ffffffffffffffffffffffffffffffffffffffff163314806112c8575060025473ffffffffffffffffffffffffffffffffffffffff1633145b6112d157600080fd5b600680547fffffffffffffffffffffffff00000000000000000000000000000000000000001673ffffffffffffffffffffffffffffffffffffffff92909216919091179055565b60608160000361135b57505060408051808201909152600181527f3000000000000000000000000000000000000000000000000000000000000000602082015290565b8160005b8115611385578061136f816121ba565b915061137e9050600a836122a2565b915061135f565b60008167ffffffffffffffff8111156113a0576113a06121f2565b6040519080825280601f01601f1916602001820160405280156113ca576020820181803683370190505b5090505b841561144d576113df600183612033565b91506113ec600a866122b6565b6113f790603061204a565b60f81b81838151811061140c5761140c611fd5565b60200101907effffffffffffffffffffffffffffffffffffffffffffffffffffffffffffff1916908160001a905350611446600a866122a2565b94506113ce565b949350505050565b60025473ffffffffffffffffffffffffffffffffffffffff163314610b7a576040517f08c379a000000000000000000000000000000000000000000000000000000000815260206004820181905260248201527f4f776e61626c653a2063616c6c6572206973206e6f7420746865206f776e657260448201526064016105c6565b73ffffffffffffffffffffffffffffffffffffffff84166000908152602081815260408083208684529091528120805484929061151490849061204a565b9091555050604080518481526020810184905273ffffffffffffffffffffffffffffffffffffffff86169160009133917fc3d58168c5ae7397731d063d5bbf3d657854427343f4c083240f7aacaa2d0f62910160405180910390a473ffffffffffffffffffffffffffffffffffffffff84163b15611654576040517ff23a6e61000000000000000000000000000000000000000000000000000000008082529073ffffffffffffffffffffffffffffffffffffffff86169063f23a6e61906115e99033906000908990899089906004016122ca565b6020604051808303816000875af1158015611608573d6000803e3d6000fd5b505050506040513d601f19601f8201168201806040525081019061162c919061219d565b7fffffffff00000000000000000000000000000000000000000000000000000000161461166e565b73ffffffffffffffffffffffffffffffffffffffff841615155b6116d4576040517f08c379a000000000000000000000000000000000000000000000000000000000815260206004820152601060248201527f554e534146455f524543495049454e540000000000000000000000000000000060448201526064016105c6565b50505050565b6002805473ffffffffffffffffffffffffffffffffffffffff8381167fffffffffffffffffffffffff0000000000000000000000000000000000000000831681179093556040519116919082907f8be0079c531659141344cd1fd0a4f28419497f9722a3daafe3b4186f6b6457e090600090a35050565b73ffffffffffffffffffffffffffffffffffffffff8416600090815260036020526040812080547f200d2483757e19728fc8a3511298158c1b74dd131c7be00c4904e11665b42cd19187918791879190866117ab836121ba565b9091555060408051602081019690965273ffffffffffffffffffffffffffffffffffffffff948516908601529290911660608401521515608083015260a082015260c0810183905260e001604051602081830303815290604052805190602001209050949350505050565b60007f8b73c3c69bb8fe3d512ecc4cf759cc79239f7b179b0ffacaa9a75d522b39400f6040518060400160405280600a81526020017f53544f524546524f4e54000000000000000000000000000000000000000000008152506040518060400160405280600181526020017f310000000000000000000000000000000000000000000000000000000000000081525046306040516020016118bb95949392919061230f565b60405160208183030381529060405280519060200120905090565b8280546118e290611e89565b90600052602060002090601f0160209004810192826119045760008555611968565b82601f1061193b578280017fffffffffffffffffffffffffffffffffffffffffffffffffffffffffffffff00823516178555611968565b82800160010185558215611968579182015b8281111561196857823582559160200191906001019061194d565b50611974929150611978565b5090565b5b808211156119745760008155600101611979565b803573ffffffffffffffffffffffffffffffffffffffff811681146119b157600080fd5b919050565b600080604083850312156119c957600080fd5b6119d28361198d565b946020939093013593505050565b7fffffffff000000000000000000000000000000000000000000000000000000008116811461128857600080fd5b600060208284031215611a2057600080fd5b8135611a2b816119e0565b9392505050565b600060208284031215611a4457600080fd5b5035919050565b60005b83811015611a66578181015183820152602001611a4e565b838111156116d45750506000910152565b60008151808452611a8f816020860160208601611a4b565b601f017fffffffffffffffffffffffffffffffffffffffffffffffffffffffffffffffe0169290920160200192915050565b602081526000611a2b6020830184611a77565b60008083601f840112611ae657600080fd5b50813567ffffffffffffffff811115611afe57600080fd5b6020830191508360208260051b8501011115611b1957600080fd5b9250929050565b60008083601f840112611b3257600080fd5b50813567ffffffffffffffff811115611b4a57600080fd5b602083019150836020828501011115611b1957600080fd5b60008060008060008060008060a0898b031215611b7e57600080fd5b611b878961198d565b9750611b9560208a0161198d565b9650604089013567ffffffffffffffff80821115611bb257600080fd5b611bbe8c838d01611ad4565b909850965060608b0135915080821115611bd757600080fd5b611be38c838d01611ad4565b909650945060808b0135915080821115611bfc57600080fd5b50611c098b828c01611b20565b999c989b5096995094979396929594505050565b60008060208385031215611c3057600080fd5b823567ffffffffffffffff811115611c4757600080fd5b611c5385828601611b20565b90969095509350505050565b60008060008060408587031215611c7557600080fd5b843567ffffffffffffffff80821115611c8d57600080fd5b611c9988838901611ad4565b90965094506020870135915080821115611cb257600080fd5b50611cbf87828801611ad4565b95989497509550505050565b6020808252825182820181905260009190848201906040850190845b81811015611d0357835183529284019291840191600101611ce7565b50909695505050505050565b600060208284031215611d2157600080fd5b611a2b8261198d565b803580151581146119b157600080fd5b60008060408385031215611d4d57600080fd5b611d568361198d565b9150611d6460208401611d2a565b90509250929050565b600080600080600080600060e0888a031215611d8857600080fd5b611d918861198d565b9650611d9f6020890161198d565b9550611dad60408901611d2a565b945060608801359350608088013560ff81168114611dca57600080fd5b9699959850939692959460a0840135945060c09093013592915050565b60008060408385031215611dfa57600080fd5b611e038361198d565b9150611d646020840161198d565b60008060008060008060a08789031215611e2a57600080fd5b611e338761198d565b9550611e416020880161198d565b94506040870135935060608701359250608087013567ffffffffffffffff811115611e6b57600080fd5b611e7789828a01611b20565b979a9699509497509295939492505050565b600181811c90821680611e9d57607f821691505b602082108103611ed6577f4e487b7100000000000000000000000000000000000000000000000000000000600052602260045260246000fd5b50919050565b60008151611eee818560208601611a4b565b9290920192915050565b600080845481600182811c915080831680611f1457607f831692505b60208084108203611f4c577f4e487b710000000000000000000000000000000000000000000000000000000086526022600452602486fd5b818015611f605760018114611f8f57611fbc565b7fffffffffffffffffffffffffffffffffffffffffffffffffffffffffffffff00861689528489019650611fbc565b60008b81526020902060005b86811015611fb45781548b820152908501908301611f9b565b505084890196505b505050505050611fcc8185611edc565b95945050505050565b7f4e487b7100000000000000000000000000000000000000000000000000000000600052603260045260246000fd5b7f4e487b7100000000000000000000000000000000000000000000000000000000600052601160045260246000fd5b60008282101561204557612045612004565b500390565b6000821982111561205d5761205d612004565b500190565b81835260007f07ffffffffffffffffffffffffffffffffffffffffffffffffffffffffffffff83111561209457600080fd5b8260051b8083602087013760009401602001938452509192915050565b6040815260006120c5604083018688612062565b82810360208401526120d8818587612062565b979650505050505050565b8183528181602085013750600060208284010152600060207fffffffffffffffffffffffffffffffffffffffffffffffffffffffffffffffe0601f840116840101905092915050565b600073ffffffffffffffffffffffffffffffffffffffff808b168352808a1660208401525060a0604083015261216660a08301888a612062565b8281036060840152612179818789612062565b9050828103608084015261218e8185876120e3565b9b9a5050505050505050505050565b6000602082840312156121af57600080fd5b8151611a2b816119e0565b60007fffffffffffffffffffffffffffffffffffffffffffffffffffffffffffffffff82036121eb576121eb612004565b5060010190565b7f4e487b7100000000000000000000000000000000000000000000000000000000600052604160045260246000fd5b600073ffffffffffffffffffffffffffffffffffffffff808916835280881660208401525085604083015284606083015260a0608083015261226760a0830184866120e3565b98975050505050505050565b7f4e487b7100000000000000000000000000000000000000000000000000000000600052601260045260246000fd5b6000826122b1576122b1612273565b500490565b6000826122c5576122c5612273565b500690565b600073ffffffffffffffffffffffffffffffffffffffff808816835280871660208401525084604083015283606083015260a060808301526120d860a0830184611a77565b85815260a06020820152600061232860a0830187611a77565b828103604084015261233a8187611a77565b91505083606083015273ffffffffffffffffffffffffffffffffffffffff83166080830152969550505050505056fea26469706673582212203cb4f08ddcbec18966f5ae358ae46e3792132709ff86ebb6cecd8e33109981a664736f6c634300080e0033",
    "linkReferences": {}
  },
  "methodIdentifiers": {
    "NAME()": "a3f4df7e",
    "VERSION()": "ffa1ad74",
    "balanceOf(address,uint256)": "00fdd58e",
    "balanceOfBatch(address[],uint256[])": "4e1273f4",
    "isApprovedForAll(address,address)": "e985e9c5",
    "mint(address,uint256)": "40c10f19",
    "nonces(address)": "7ecebe00",
    "owner()": "8da5cb5b",
    "permitAll(address,address,bool,uint256,uint8,bytes32,bytes32)": "cfa8fb42",
    "renounceOwnership()": "715018a6",
    "safeBatchTransferFrom(address,address,uint256[],uint256[],bytes)": "2eb2c2d6",
    "safeTransferFrom(address,address,uint256,uint256,bytes)": "f242432a",
    "setApprovalForAll(address,bool)": "a22cb465",
    "supportsInterface(bytes4)": "01ffc9a7",
    "totalSupply(uint256)": "bd85b039",
    "transferMinter(address)": "fe99ad5a",
    "transferOwnership(address)": "f2fde38b",
    "updateBaseUri(string)": "39f7e37f",
    "uri(uint256)": "0e89341c"
  },
  "id": 1
}