{
  "abi": [
    {
      "inputs": [
        {
          "internalType": "address",
          "name": "_minter",
          "type": "address"
        },
        {
          "internalType": "string",
          "name": "_baseURI",
          "type": "string"
        }
      ],
      "stateMutability": "nonpayable",
      "type": "constructor"
    },
    {
      "anonymous": false,
      "inputs": [
        {
          "indexed": true,
          "internalType": "address",
          "name": "owner",
          "type": "address"
        },
        {
          "indexed": true,
          "internalType": "address",
          "name": "operator",
          "type": "address"
        },
        {
          "indexed": false,
          "internalType": "bool",
          "name": "approved",
          "type": "bool"
        }
      ],
      "name": "ApprovalForAll",
      "type": "event"
    },
    {
      "anonymous": false,
      "inputs": [
        {
          "indexed": true,
          "internalType": "address",
          "name": "previousOwner",
          "type": "address"
        },
        {
          "indexed": true,
          "internalType": "address",
          "name": "newOwner",
          "type": "address"
        }
      ],
      "name": "OwnershipTransferred",
      "type": "event"
    },
    {
      "anonymous": false,
      "inputs": [
        {
          "indexed": true,
          "internalType": "address",
          "name": "operator",
          "type": "address"
        },
        {
          "indexed": true,
          "internalType": "address",
          "name": "from",
          "type": "address"
        },
        {
          "indexed": true,
          "internalType": "address",
          "name": "to",
          "type": "address"
        },
        {
          "indexed": false,
          "internalType": "uint256[]",
          "name": "ids",
          "type": "uint256[]"
        },
        {
          "indexed": false,
          "internalType": "uint256[]",
          "name": "amounts",
          "type": "uint256[]"
        }
      ],
      "name": "TransferBatch",
      "type": "event"
    },
    {
      "anonymous": false,
      "inputs": [
        {
          "indexed": true,
          "internalType": "address",
          "name": "operator",
          "type": "address"
        },
        {
          "indexed": true,
          "internalType": "address",
          "name": "from",
          "type": "address"
        },
        {
          "indexed": true,
          "internalType": "address",
          "name": "to",
          "type": "address"
        },
        {
          "indexed": false,
          "internalType": "uint256",
          "name": "id",
          "type": "uint256"
        },
        {
          "indexed": false,
          "internalType": "uint256",
          "name": "amount",
          "type": "uint256"
        }
      ],
      "name": "TransferSingle",
      "type": "event"
    },
    {
      "anonymous": false,
      "inputs": [
        {
          "indexed": false,
          "internalType": "string",
          "name": "value",
          "type": "string"
        },
        {
          "indexed": true,
          "internalType": "uint256",
          "name": "id",
          "type": "uint256"
        }
      ],
      "name": "URI",
      "type": "event"
    },
    {
      "inputs": [],
      "name": "NAME",
      "outputs": [
        {
          "internalType": "string",
          "name": "",
          "type": "string"
        }
      ],
      "stateMutability": "view",
      "type": "function"
    },
    {
      "inputs": [],
      "name": "VERSION",
      "outputs": [
        {
          "internalType": "string",
          "name": "",
          "type": "string"
        }
      ],
      "stateMutability": "view",
      "type": "function"
    },
    {
      "inputs": [
        {
          "internalType": "address",
          "name": "",
          "type": "address"
        },
        {
          "internalType": "uint256",
          "name": "",
          "type": "uint256"
        }
      ],
      "name": "balanceOf",
      "outputs": [
        {
          "internalType": "uint256",
          "name": "",
          "type": "uint256"
        }
      ],
      "stateMutability": "view",
      "type": "function"
    },
    {
      "inputs": [
        {
          "internalType": "address[]",
          "name": "owners",
          "type": "address[]"
        },
        {
          "internalType": "uint256[]",
          "name": "ids",
          "type": "uint256[]"
        }
      ],
      "name": "balanceOfBatch",
      "outputs": [
        {
          "internalType": "uint256[]",
          "name": "balances",
          "type": "uint256[]"
        }
      ],
      "stateMutability": "view",
      "type": "function"
    },
    {
      "inputs": [
        {
          "internalType": "address",
          "name": "",
          "type": "address"
        },
        {
          "internalType": "address",
          "name": "",
          "type": "address"
        }
      ],
      "name": "isApprovedForAll",
      "outputs": [
        {
          "internalType": "bool",
          "name": "",
          "type": "bool"
        }
      ],
      "stateMutability": "view",
      "type": "function"
    },
    {
      "inputs": [
        {
          "internalType": "address",
          "name": "_to",
          "type": "address"
        },
        {
          "internalType": "uint256",
          "name": "_amount",
          "type": "uint256"
        }
      ],
      "name": "mint",
      "outputs": [],
      "stateMutability": "nonpayable",
      "type": "function"
    },
    {
      "inputs": [
        {
          "internalType": "address",
          "name": "",
          "type": "address"
        }
      ],
      "name": "nonces",
      "outputs": [
        {
          "internalType": "uint256",
          "name": "",
          "type": "uint256"
        }
      ],
      "stateMutability": "view",
      "type": "function"
    },
    {
      "inputs": [],
      "name": "owner",
      "outputs": [
        {
          "internalType": "address",
          "name": "",
          "type": "address"
        }
      ],
      "stateMutability": "view",
      "type": "function"
    },
    {
      "inputs": [
        {
          "internalType": "address",
          "name": "_owner",
          "type": "address"
        },
        {
          "internalType": "address",
          "name": "_operator",
          "type": "address"
        },
        {
          "internalType": "bool",
          "name": "_approved",
          "type": "bool"
        },
        {
          "internalType": "uint256",
          "name": "_deadline",
          "type": "uint256"
        },
        {
          "internalType": "uint8",
          "name": "_v",
          "type": "uint8"
        },
        {
          "internalType": "bytes32",
          "name": "_r",
          "type": "bytes32"
        },
        {
          "internalType": "bytes32",
          "name": "_s",
          "type": "bytes32"
        }
      ],
      "name": "permitAll",
      "outputs": [],
      "stateMutability": "nonpayable",
      "type": "function"
    },
    {
      "inputs": [],
      "name": "renounceOwnership",
      "outputs": [],
      "stateMutability": "nonpayable",
      "type": "function"
    },
    {
      "inputs": [
        {
          "internalType": "address",
          "name": "from",
          "type": "address"
        },
        {
          "internalType": "address",
          "name": "to",
          "type": "address"
        },
        {
          "internalType": "uint256[]",
          "name": "ids",
          "type": "uint256[]"
        },
        {
          "internalType": "uint256[]",
          "name": "amounts",
          "type": "uint256[]"
        },
        {
          "internalType": "bytes",
          "name": "data",
          "type": "bytes"
        }
      ],
      "name": "safeBatchTransferFrom",
      "outputs": [],
      "stateMutability": "nonpayable",
      "type": "function"
    },
    {
      "inputs": [
        {
          "internalType": "address",
          "name": "from",
          "type": "address"
        },
        {
          "internalType": "address",
          "name": "to",
          "type": "address"
        },
        {
          "internalType": "uint256",
          "name": "id",
          "type": "uint256"
        },
        {
          "internalType": "uint256",
          "name": "amount",
          "type": "uint256"
        },
        {
          "internalType": "bytes",
          "name": "data",
          "type": "bytes"
        }
      ],
      "name": "safeTransferFrom",
      "outputs": [],
      "stateMutability": "nonpayable",
      "type": "function"
    },
    {
      "inputs": [
        {
          "internalType": "address",
          "name": "operator",
          "type": "address"
        },
        {
          "internalType": "bool",
          "name": "approved",
          "type": "bool"
        }
      ],
      "name": "setApprovalForAll",
      "outputs": [],
      "stateMutability": "nonpayable",
      "type": "function"
    },
    {
      "inputs": [
        {
          "internalType": "bytes4",
          "name": "interfaceId",
          "type": "bytes4"
        }
      ],
      "name": "supportsInterface",
      "outputs": [
        {
          "internalType": "bool",
          "name": "",
          "type": "bool"
        }
      ],
      "stateMutability": "view",
      "type": "function"
    },
    {
      "inputs": [
        {
          "internalType": "uint256",
          "name": "",
          "type": "uint256"
        }
      ],
      "name": "totalSupply",
      "outputs": [
        {
          "internalType": "uint256",
          "name": "",
          "type": "uint256"
        }
      ],
      "stateMutability": "view",
      "type": "function"
    },
    {
      "inputs": [
        {
          "internalType": "address",
          "name": "newOwner",
          "type": "address"
        }
      ],
      "name": "transferOwnership",
      "outputs": [],
      "stateMutability": "nonpayable",
      "type": "function"
    },
    {
      "inputs": [
        {
          "internalType": "string",
          "name": "base",
          "type": "string"
        }
      ],
      "name": "updateBaseUri",
      "outputs": [],
      "stateMutability": "nonpayable",
      "type": "function"
    },
    {
      "inputs": [
        {
          "internalType": "uint256",
          "name": "id",
          "type": "uint256"
        }
      ],
      "name": "uri",
      "outputs": [
        {
          "internalType": "string",
          "name": "",
          "type": "string"
        }
      ],
      "stateMutability": "view",
      "type": "function"
    }
  ],
  "bytecode": {
    "object": "0x60806040523480156200001157600080fd5b506040516200259738038062002597833981016040819052620000349162000186565b6200003f3362000078565b600680546001600160a01b0319166001600160a01b03841617905580516200006f906005906020840190620000ca565b505050620002c2565b600280546001600160a01b038381166001600160a01b0319831681179093556040519116919082907f8be0079c531659141344cd1fd0a4f28419497f9722a3daafe3b4186f6b6457e090600090a35050565b828054620000d89062000286565b90600052602060002090601f016020900481019282620000fc576000855562000147565b82601f106200011757805160ff191683800117855562000147565b8280016001018555821562000147579182015b82811115620001475782518255916020019190600101906200012a565b506200015592915062000159565b5090565b5b808211156200015557600081556001016200015a565b634e487b7160e01b600052604160045260246000fd5b600080604083850312156200019a57600080fd5b82516001600160a01b0381168114620001b257600080fd5b602084810151919350906001600160401b0380821115620001d257600080fd5b818601915086601f830112620001e757600080fd5b815181811115620001fc57620001fc62000170565b604051601f8201601f19908116603f0116810190838211818310171562000227576200022762000170565b8160405282815289868487010111156200024057600080fd5b600093505b8284101562000264578484018601518185018701529285019262000245565b82841115620002765760008684830101525b8096505050505050509250929050565b600181811c908216806200029b57607f821691505b602082108103620002bc57634e487b7160e01b600052602260045260246000fd5b50919050565b6122c580620002d26000396000f3fe608060405234801561001057600080fd5b50600436106101355760003560e01c80638da5cb5b116100b2578063cfa8fb4211610081578063f242432a11610066578063f242432a14610313578063f2fde38b14610326578063ffa1ad741461033957600080fd5b8063cfa8fb42146102d2578063e985e9c5146102e557600080fd5b80638da5cb5b1461023b578063a22cb46514610263578063a3f4df7e14610276578063bd85b039146102b257600080fd5b806339f7e37f116101095780634e1273f4116100ee5780634e1273f4146101f3578063715018a6146102135780637ecebe001461021b57600080fd5b806339f7e37f146101cd57806340c10f19146101e057600080fd5b8062fdd58e1461013a57806301ffc9a7146101755780630e89341c146101985780632eb2c2d6146101b8575b600080fd5b610162610148366004611936565b600060208181529281526040808220909352908152205481565b6040519081526020015b60405180910390f35b61018861018336600461198e565b610375565b604051901515815260200161016c565b6101ab6101a63660046119b2565b61045a565b60405161016c9190611a41565b6101cb6101c6366004611ae2565b610533565b005b6101cb6101db366004611b9d565b610929565b6101cb6101ee366004611936565b610942565b610206610201366004611bdf565b6109c3565b60405161016c9190611c4b565b6101cb610b3a565b610162610229366004611c8f565b60036020526000908152604090205481565b60025460405173ffffffffffffffffffffffffffffffffffffffff909116815260200161016c565b6101cb610271366004611cba565b610b4e565b6101ab6040518060400160405280600a81526020017f53544f524546524f4e540000000000000000000000000000000000000000000081525081565b6101626102c03660046119b2565b60046020526000908152604090205481565b6101cb6102e0366004611ced565b610be5565b6101886102f3366004611d67565b600160209081526000928352604080842090915290825290205460ff1681565b6101cb610321366004611d91565b610f9b565b6101cb610334366004611c8f565b6112a1565b6101ab6040518060400160405280600181526020017f310000000000000000000000000000000000000000000000000000000000000081525081565b60007f01ffc9a7000000000000000000000000000000000000000000000000000000007fffffffff000000000000000000000000000000000000000000000000000000008316148061040857507fd9b67a26000000000000000000000000000000000000000000000000000000007fffffffff000000000000000000000000000000000000000000000000000000008316145b8061045457507f0e89341c000000000000000000000000000000000000000000000000000000007fffffffff000000000000000000000000000000000000000000000000000000008316145b92915050565b606060006005805461046b90611e09565b905011610502576005805461047f90611e09565b80601f01602080910402602001604051908101604052809291908181526020018280546104ab90611e09565b80156104f85780601f106104cd576101008083540402835291602001916104f8565b820191906000526020600020905b8154815290600101906020018083116104db57829003601f168201915b5050505050610454565b600561050d83611358565b60405160200161051e929190611e78565b60405160208183030381529060405292915050565b8483146105a1576040517f08c379a000000000000000000000000000000000000000000000000000000000815260206004820152600f60248201527f4c454e4754485f4d49534d41544348000000000000000000000000000000000060448201526064015b60405180910390fd5b3373ffffffffffffffffffffffffffffffffffffffff891614806105f5575073ffffffffffffffffffffffffffffffffffffffff8816600090815260016020908152604080832033845290915290205460ff165b61065b576040517f08c379a000000000000000000000000000000000000000000000000000000000815260206004820152600e60248201527f4e4f545f415554484f52495a45440000000000000000000000000000000000006044820152606401610598565b60008060005b878110156107305788888281811061067b5761067b611f55565b90506020020135925086868281811061069657610696611f55565b73ffffffffffffffffffffffffffffffffffffffff8e16600090815260208181526040808320898452825282208054939091029490940135955085939250906106e0908490611fb3565b909155505073ffffffffffffffffffffffffffffffffffffffff8a1660009081526020818152604080832086845290915281208054849290610723908490611fca565b9091555050600101610661565b508873ffffffffffffffffffffffffffffffffffffffff168a73ffffffffffffffffffffffffffffffffffffffff163373ffffffffffffffffffffffffffffffffffffffff167f4a39dc06d4c0dbc64b70af90fd698a233a518aa5d07e595d983b8c0526c8f7fb8b8b8b8b6040516107ab9493929190612031565b60405180910390a473ffffffffffffffffffffffffffffffffffffffff89163b1561089d576040517fbc197c81000000000000000000000000000000000000000000000000000000008082529073ffffffffffffffffffffffffffffffffffffffff8b169063bc197c81906108329033908f908e908e908e908e908e908e906004016120ac565b6020604051808303816000875af1158015610851573d6000803e3d6000fd5b505050506040513d601f19601f82011682018060405250810190610875919061211d565b7fffffffff0000000000000000000000000000000000000000000000000000000016146108b7565b73ffffffffffffffffffffffffffffffffffffffff891615155b61091d576040517f08c379a000000000000000000000000000000000000000000000000000000000815260206004820152601060248201527f554e534146455f524543495049454e54000000000000000000000000000000006044820152606401610598565b50505050505050505050565b610931611495565b61093d60058383611856565b505050565b60065473ffffffffffffffffffffffffffffffffffffffff16331461096657600080fd5b610983826007548360405180602001604052806000815250611516565b600780548291600491600091826109998361213a565b91905055815260200190815260200160002060008282546109ba9190611fca565b90915550505050565b6060838214610a2e576040517f08c379a000000000000000000000000000000000000000000000000000000000815260206004820152600f60248201527f4c454e4754485f4d49534d4154434800000000000000000000000000000000006044820152606401610598565b8367ffffffffffffffff811115610a4757610a47612172565b604051908082528060200260200182016040528015610a70578160200160208202803683370190505b50905060005b84811015610b3157600080878784818110610a9357610a93611f55565b9050602002016020810190610aa89190611c8f565b73ffffffffffffffffffffffffffffffffffffffff1673ffffffffffffffffffffffffffffffffffffffff1681526020019081526020016000206000858584818110610af657610af6611f55565b90506020020135815260200190815260200160002054828281518110610b1e57610b1e611f55565b6020908102919091010152600101610a76565b50949350505050565b610b42611495565b610b4c600061171a565b565b33600081815260016020908152604080832073ffffffffffffffffffffffffffffffffffffffff87168085529083529281902080547fffffffffffffffffffffffffffffffffffffffffffffffffffffffffffffff001686151590811790915590519081529192917f17307eab39ab6107e8899845ad3d59bd9653f200f220920489ca2b5937696c31910160405180910390a35050565b83421115610c4f576040517f08c379a000000000000000000000000000000000000000000000000000000000815260206004820152600b60248201527f53494720455850495245440000000000000000000000000000000000000000006044820152606401610598565b6000610c5d88888888611791565b90506000610dc3610d67604080518082018252600a81527f53544f524546524f4e540000000000000000000000000000000000000000000060209182015281518083018352600181527f31000000000000000000000000000000000000000000000000000000000000009082015281517f8b73c3c69bb8fe3d512ecc4cf759cc79239f7b179b0ffacaa9a75d522b39400f818301527fffdffc95429c0c2eeeb6ee29e9250e1d29f7737dde1a2d5c5b649295221a4252818401527fc89efdaa54c0f20c7adf612882df0950f5a951637e0307cdcb4c672f298b8bc660608201524660808201523060a0808301919091528351808303909101815260c0909101909252815191012090565b836040517f19010000000000000000000000000000000000000000000000000000000000006020820152602281018390526042810182905260009060620160405160208183030381529060405280519060200120905092915050565b6040805160008082526020820180845284905260ff89169282019290925260608101879052608081018690529192509060019060a0016020604051602081039080840390855afa158015610e1b573d6000803e3d6000fd5b50506040517fffffffffffffffffffffffffffffffffffffffffffffffffffffffffffffffe0015191505073ffffffffffffffffffffffffffffffffffffffff81161580610e9557508973ffffffffffffffffffffffffffffffffffffffff168173ffffffffffffffffffffffffffffffffffffffff1614155b15610efc576040517f08c379a000000000000000000000000000000000000000000000000000000000815260206004820152600a60248201527f494e56414c4944534947000000000000000000000000000000000000000000006044820152606401610598565b73ffffffffffffffffffffffffffffffffffffffff8a81166000818152600160209081526040808320948e168084529482529182902080547fffffffffffffffffffffffffffffffffffffffffffffffffffffffffffffff00168d151590811790915591519182527f17307eab39ab6107e8899845ad3d59bd9653f200f220920489ca2b5937696c31910160405180910390a350505050505050505050565b3373ffffffffffffffffffffffffffffffffffffffff87161480610fef575073ffffffffffffffffffffffffffffffffffffffff8616600090815260016020908152604080832033845290915290205460ff165b611055576040517f08c379a000000000000000000000000000000000000000000000000000000000815260206004820152600e60248201527f4e4f545f415554484f52495a45440000000000000000000000000000000000006044820152606401610598565b73ffffffffffffffffffffffffffffffffffffffff861660009081526020818152604080832087845290915281208054859290611093908490611fb3565b909155505073ffffffffffffffffffffffffffffffffffffffff8516600090815260208181526040808320878452909152812080548592906110d6908490611fca565b9091555050604080518581526020810185905273ffffffffffffffffffffffffffffffffffffffff808816929089169133917fc3d58168c5ae7397731d063d5bbf3d657854427343f4c083240f7aacaa2d0f62910160405180910390a473ffffffffffffffffffffffffffffffffffffffff85163b15611219576040517ff23a6e61000000000000000000000000000000000000000000000000000000008082529073ffffffffffffffffffffffffffffffffffffffff87169063f23a6e61906111ae9033908b908a908a908a908a906004016121a1565b6020604051808303816000875af11580156111cd573d6000803e3d6000fd5b505050506040513d601f19601f820116820180604052508101906111f1919061211d565b7fffffffff000000000000000000000000000000000000000000000000000000001614611233565b73ffffffffffffffffffffffffffffffffffffffff851615155b611299576040517f08c379a000000000000000000000000000000000000000000000000000000000815260206004820152601060248201527f554e534146455f524543495049454e54000000000000000000000000000000006044820152606401610598565b505050505050565b6112a9611495565b73ffffffffffffffffffffffffffffffffffffffff811661134c576040517f08c379a000000000000000000000000000000000000000000000000000000000815260206004820152602660248201527f4f776e61626c653a206e6577206f776e657220697320746865207a65726f206160448201527f64647265737300000000000000000000000000000000000000000000000000006064820152608401610598565b6113558161171a565b50565b60608160000361139b57505060408051808201909152600181527f3000000000000000000000000000000000000000000000000000000000000000602082015290565b8160005b81156113c557806113af8161213a565b91506113be9050600a83612222565b915061139f565b60008167ffffffffffffffff8111156113e0576113e0612172565b6040519080825280601f01601f19166020018201604052801561140a576020820181803683370190505b5090505b841561148d5761141f600183611fb3565b915061142c600a86612236565b611437906030611fca565b60f81b81838151811061144c5761144c611f55565b60200101907effffffffffffffffffffffffffffffffffffffffffffffffffffffffffffff1916908160001a905350611486600a86612222565b945061140e565b949350505050565b60025473ffffffffffffffffffffffffffffffffffffffff163314610b4c576040517f08c379a000000000000000000000000000000000000000000000000000000000815260206004820181905260248201527f4f776e61626c653a2063616c6c6572206973206e6f7420746865206f776e65726044820152606401610598565b73ffffffffffffffffffffffffffffffffffffffff841660009081526020818152604080832086845290915281208054849290611554908490611fca565b9091555050604080518481526020810184905273ffffffffffffffffffffffffffffffffffffffff86169160009133917fc3d58168c5ae7397731d063d5bbf3d657854427343f4c083240f7aacaa2d0f62910160405180910390a473ffffffffffffffffffffffffffffffffffffffff84163b15611694576040517ff23a6e61000000000000000000000000000000000000000000000000000000008082529073ffffffffffffffffffffffffffffffffffffffff86169063f23a6e619061162990339060009089908990899060040161224a565b6020604051808303816000875af1158015611648573d6000803e3d6000fd5b505050506040513d601f19601f8201168201806040525081019061166c919061211d565b7fffffffff0000000000000000000000000000000000000000000000000000000016146116ae565b73ffffffffffffffffffffffffffffffffffffffff841615155b611714576040517f08c379a000000000000000000000000000000000000000000000000000000000815260206004820152601060248201527f554e534146455f524543495049454e54000000000000000000000000000000006044820152606401610598565b50505050565b6002805473ffffffffffffffffffffffffffffffffffffffff8381167fffffffffffffffffffffffff0000000000000000000000000000000000000000831681179093556040519116919082907f8be0079c531659141344cd1fd0a4f28419497f9722a3daafe3b4186f6b6457e090600090a35050565b73ffffffffffffffffffffffffffffffffffffffff8416600090815260036020526040812080547f200d2483757e19728fc8a3511298158c1b74dd131c7be00c4904e11665b42cd19187918791879190866117eb8361213a565b9091555060408051602081019690965273ffffffffffffffffffffffffffffffffffffffff948516908601529290911660608401521515608083015260a082015260c0810183905260e001604051602081830303815290604052805190602001209050949350505050565b82805461186290611e09565b90600052602060002090601f01602090048101928261188457600085556118e8565b82601f106118bb578280017fffffffffffffffffffffffffffffffffffffffffffffffffffffffffffffff008235161785556118e8565b828001600101855582156118e8579182015b828111156118e85782358255916020019190600101906118cd565b506118f49291506118f8565b5090565b5b808211156118f457600081556001016118f9565b803573ffffffffffffffffffffffffffffffffffffffff8116811461193157600080fd5b919050565b6000806040838503121561194957600080fd5b6119528361190d565b946020939093013593505050565b7fffffffff000000000000000000000000000000000000000000000000000000008116811461135557600080fd5b6000602082840312156119a057600080fd5b81356119ab81611960565b9392505050565b6000602082840312156119c457600080fd5b5035919050565b60005b838110156119e65781810151838201526020016119ce565b838111156117145750506000910152565b60008151808452611a0f8160208601602086016119cb565b601f017fffffffffffffffffffffffffffffffffffffffffffffffffffffffffffffffe0169290920160200192915050565b6020815260006119ab60208301846119f7565b60008083601f840112611a6657600080fd5b50813567ffffffffffffffff811115611a7e57600080fd5b6020830191508360208260051b8501011115611a9957600080fd5b9250929050565b60008083601f840112611ab257600080fd5b50813567ffffffffffffffff811115611aca57600080fd5b602083019150836020828501011115611a9957600080fd5b60008060008060008060008060a0898b031215611afe57600080fd5b611b078961190d565b9750611b1560208a0161190d565b9650604089013567ffffffffffffffff80821115611b3257600080fd5b611b3e8c838d01611a54565b909850965060608b0135915080821115611b5757600080fd5b611b638c838d01611a54565b909650945060808b0135915080821115611b7c57600080fd5b50611b898b828c01611aa0565b999c989b5096995094979396929594505050565b60008060208385031215611bb057600080fd5b823567ffffffffffffffff811115611bc757600080fd5b611bd385828601611aa0565b90969095509350505050565b60008060008060408587031215611bf557600080fd5b843567ffffffffffffffff80821115611c0d57600080fd5b611c1988838901611a54565b90965094506020870135915080821115611c3257600080fd5b50611c3f87828801611a54565b95989497509550505050565b6020808252825182820181905260009190848201906040850190845b81811015611c8357835183529284019291840191600101611c67565b50909695505050505050565b600060208284031215611ca157600080fd5b6119ab8261190d565b8035801515811461193157600080fd5b60008060408385031215611ccd57600080fd5b611cd68361190d565b9150611ce460208401611caa565b90509250929050565b600080600080600080600060e0888a031215611d0857600080fd5b611d118861190d565b9650611d1f6020890161190d565b9550611d2d60408901611caa565b945060608801359350608088013560ff81168114611d4a57600080fd5b9699959850939692959460a0840135945060c09093013592915050565b60008060408385031215611d7a57600080fd5b611d838361190d565b9150611ce46020840161190d565b60008060008060008060a08789031215611daa57600080fd5b611db38761190d565b9550611dc16020880161190d565b94506040870135935060608701359250608087013567ffffffffffffffff811115611deb57600080fd5b611df789828a01611aa0565b979a9699509497509295939492505050565b600181811c90821680611e1d57607f821691505b602082108103611e56577f4e487b7100000000000000000000000000000000000000000000000000000000600052602260045260246000fd5b50919050565b60008151611e6e8185602086016119cb565b9290920192915050565b600080845481600182811c915080831680611e9457607f831692505b60208084108203611ecc577f4e487b710000000000000000000000000000000000000000000000000000000086526022600452602486fd5b818015611ee05760018114611f0f57611f3c565b7fffffffffffffffffffffffffffffffffffffffffffffffffffffffffffffff00861689528489019650611f3c565b60008b81526020902060005b86811015611f345781548b820152908501908301611f1b565b505084890196505b505050505050611f4c8185611e5c565b95945050505050565b7f4e487b7100000000000000000000000000000000000000000000000000000000600052603260045260246000fd5b7f4e487b7100000000000000000000000000000000000000000000000000000000600052601160045260246000fd5b600082821015611fc557611fc5611f84565b500390565b60008219821115611fdd57611fdd611f84565b500190565b81835260007f07ffffffffffffffffffffffffffffffffffffffffffffffffffffffffffffff83111561201457600080fd5b8260051b8083602087013760009401602001938452509192915050565b604081526000612045604083018688611fe2565b8281036020840152612058818587611fe2565b979650505050505050565b8183528181602085013750600060208284010152600060207fffffffffffffffffffffffffffffffffffffffffffffffffffffffffffffffe0601f840116840101905092915050565b600073ffffffffffffffffffffffffffffffffffffffff808b168352808a1660208401525060a060408301526120e660a08301888a611fe2565b82810360608401526120f9818789611fe2565b9050828103608084015261210e818587612063565b9b9a5050505050505050505050565b60006020828403121561212f57600080fd5b81516119ab81611960565b60007fffffffffffffffffffffffffffffffffffffffffffffffffffffffffffffffff820361216b5761216b611f84565b5060010190565b7f4e487b7100000000000000000000000000000000000000000000000000000000600052604160045260246000fd5b600073ffffffffffffffffffffffffffffffffffffffff808916835280881660208401525085604083015284606083015260a060808301526121e760a083018486612063565b98975050505050505050565b7f4e487b7100000000000000000000000000000000000000000000000000000000600052601260045260246000fd5b600082612231576122316121f3565b500490565b600082612245576122456121f3565b500690565b600073ffffffffffffffffffffffffffffffffffffffff808816835280871660208401525084604083015283606083015260a0608083015261205860a08301846119f756fea26469706673582212207caf41fc924d42c0fc6a028c0cf0370dfe544a58f1ee77b361be40ca24607bad64736f6c634300080e0033",
    "linkReferences": {}
  },
  "methodIdentifiers": {
    "NAME()": "a3f4df7e",
    "VERSION()": "ffa1ad74",
    "balanceOf(address,uint256)": "00fdd58e",
    "balanceOfBatch(address[],uint256[])": "4e1273f4",
    "isApprovedForAll(address,address)": "e985e9c5",
    "mint(address,uint256)": "40c10f19",
    "nonces(address)": "7ecebe00",
    "owner()": "8da5cb5b",
    "permitAll(address,address,bool,uint256,uint8,bytes32,bytes32)": "cfa8fb42",
    "renounceOwnership()": "715018a6",
    "safeBatchTransferFrom(address,address,uint256[],uint256[],bytes)": "2eb2c2d6",
    "safeTransferFrom(address,address,uint256,uint256,bytes)": "f242432a",
    "setApprovalForAll(address,bool)": "a22cb465",
    "supportsInterface(bytes4)": "01ffc9a7",
    "totalSupply(uint256)": "bd85b039",
    "transferOwnership(address)": "f2fde38b",
    "updateBaseUri(string)": "39f7e37f",
    "uri(uint256)": "0e89341c"
  },
  "id": 0
}