{
  "abi": [
    {
      "inputs": [],
      "name": "increment",
      "outputs": [
        {
          "internalType": "uint256",
          "name": "",
          "type": "uint256"
        }
      ],
      "stateMutability": "nonpayable",
      "type": "function"
    },
    {
      "inputs": [],
      "name": "value",
      "outputs": [
        {
          "internalType": "uint256",
          "name": "",
          "type": "uint256"
        }
      ],
      "stateMutability": "view",
      "type": "function"
    }
  ],
  "bytecode": {
    "object": "0x608060405234801561001057600080fd5b5060fd8061001f6000396000f3fe6080604052348015600f57600080fd5b506004361060325760003560e01c80633fa4f245146037578063d09de08a146051575b600080fd5b603f60005481565b60405190815260200160405180910390f35b603f6000805481806060836069565b91905055905090565b60007fffffffffffffffffffffffffffffffffffffffffffffffffffffffffffffffff820360c0577f4e487b7100000000000000000000000000000000000000000000000000000000600052601160045260246000fd5b506001019056fea26469706673582212208777f7c8ccbdaff2fcce38a876646f136c176affc269c7339850c34ce9039cdf64736f6c634300080e0033",
    "linkReferences": {}
  },
  "methodIdentifiers": {
    "increment()": "d09de08a",
    "value()": "3fa4f245"
  },
  "id": 104
}