{
  "abi": [
    {
      "inputs": [
        {
          "internalType": "address",
          "name": "conduitController",
          "type": "address"
        }
      ],
      "stateMutability": "nonpayable",
      "type": "constructor"
    },
    {
      "inputs": [
        {
          "internalType": "address",
          "name": "token",
          "type": "address"
        },
        {
          "internalType": "address",
          "name": "from",
          "type": "address"
        },
        {
          "internalType": "address",
          "name": "to",
          "type": "address"
        },
        {
          "internalType": "uint256",
          "name": "amount",
          "type": "uint256"
        }
      ],
      "name": "BadReturnValueFromERC20OnTransfer",
      "type": "error"
    },
    {
      "inputs": [
        {
          "internalType": "address",
          "name": "token",
          "type": "address"
        },
        {
          "internalType": "address",
          "name": "from",
          "type": "address"
        },
        {
          "internalType": "address",
          "name": "to",
          "type": "address"
        },
        {
          "internalType": "uint256[]",
          "name": "identifiers",
          "type": "uint256[]"
        },
        {
          "internalType": "uint256[]",
          "name": "amounts",
          "type": "uint256[]"
        }
      ],
      "name": "ERC1155BatchTransferGenericFailure",
      "type": "error"
    },
    {
      "inputs": [],
      "name": "Invalid1155BatchTransferEncoding",
      "type": "error"
    },
    {
      "inputs": [],
      "name": "InvalidERC721TransferAmount",
      "type": "error"
    },
    {
      "inputs": [],
      "name": "InvalidItemType",
      "type": "error"
    },
    {
      "inputs": [],
      "name": "MissingItemAmount",
      "type": "error"
    },
    {
      "inputs": [
        {
          "internalType": "address",
          "name": "account",
          "type": "address"
        }
      ],
      "name": "NoContract",
      "type": "error"
    },
    {
      "inputs": [
        {
          "internalType": "address",
          "name": "token",
          "type": "address"
        },
        {
          "internalType": "address",
          "name": "from",
          "type": "address"
        },
        {
          "internalType": "address",
          "name": "to",
          "type": "address"
        },
        {
          "internalType": "uint256",
          "name": "identifier",
          "type": "uint256"
        },
        {
          "internalType": "uint256",
          "name": "amount",
          "type": "uint256"
        }
      ],
      "name": "TokenTransferGenericFailure",
      "type": "error"
    },
    {
      "inputs": [],
      "name": "UnusedItemParameters",
      "type": "error"
    },
    {
      "inputs": [
        {
          "components": [
            {
              "internalType": "enum ConduitItemType",
              "name": "itemType",
              "type": "uint8"
            },
            {
              "internalType": "address",
              "name": "token",
              "type": "address"
            },
            {
              "internalType": "uint256",
              "name": "identifier",
              "type": "uint256"
            },
            {
              "internalType": "uint256",
              "name": "amount",
              "type": "uint256"
            }
          ],
          "internalType": "struct TransferHelperItem[]",
          "name": "items",
          "type": "tuple[]"
        },
        {
          "internalType": "address",
          "name": "recipient",
          "type": "address"
        },
        {
          "internalType": "bytes32",
          "name": "conduitKey",
          "type": "bytes32"
        }
      ],
      "name": "bulkTransfer",
      "outputs": [
        {
          "internalType": "bytes4",
          "name": "magicValue",
          "type": "bytes4"
        }
      ],
      "stateMutability": "nonpayable",
      "type": "function"
    }
  ],
  "bytecode": {
    "object": "0x60c060405234801561001057600080fd5b50604051610c92380380610c9283398101604081905261002f916100ab565b6000819050806001600160a01b0316630a96ad396040518163ffffffff1660e01b81526004016040805180830381865afa158015610071573d6000803e3d6000fd5b505050506040513d601f19601f8201168201806040525081019061009591906100db565b5060a0526001600160a01b0316608052506100ff565b6000602082840312156100bd57600080fd5b81516001600160a01b03811681146100d457600080fd5b9392505050565b600080604083850312156100ee57600080fd5b505080516020909101519092909150565b60805160a051610b6e610124600039600061023d0152600061020c0152610b6e6000f3fe608060405234801561001057600080fd5b506004361061002b5760003560e01c806373b69d0314610030575b600080fd5b61004361003e3660046108b2565b610078565b6040517fffffffff00000000000000000000000000000000000000000000000000000000909116815260200160405180910390f35b600083826101c05760005b818110156101ba573687878381811061009e5761009e61093e565b608002919091019150600090506100b8602083018361099c565b60038111156100c9576100c961096d565b03610100576040517f7932f1fc00000000000000000000000000000000000000000000000000000000815260040160405180910390fd5b600161010f602083018361099c565b60038111156101205761012061096d565b036101495761014461013860408301602084016109c4565b338884606001356104db565b6101b1565b6002610158602083018361099c565b60038111156101695761016961096d565b0361018d5761014461018160408301602084016109c4565b33888460400135610648565b6101b16101a060408301602084016109c4565b338884604001358560600135610757565b50600101610083565b506104b0565b6040517fff0000000000000000000000000000000000000000000000000000000000000060208201527fffffffffffffffffffffffffffffffffffffffff0000000000000000000000007f000000000000000000000000000000000000000000000000000000000000000060601b166021820152603581018490527f000000000000000000000000000000000000000000000000000000000000000060558201526000906075016040516020818303038152906040528051906020012060001c905060008267ffffffffffffffff81111561029d5761029d6109df565b60405190808252806020026020018201604052801561031b57816020015b6040805160c08101825260008082526020808301829052928201819052606082018190526080820181905260a082015282527fffffffffffffffffffffffffffffffffffffffffffffffffffffffffffffffff9092019101816102bb5790505b50905060005b83811015610416573689898381811061033c5761033c61093e565b90506080020190506040518060c00160405280826000016020810190610362919061099c565b60038111156103735761037361096d565b815260200182602001602081019061038b91906109c4565b73ffffffffffffffffffffffffffffffffffffffff1681526020013373ffffffffffffffffffffffffffffffffffffffff1681526020018973ffffffffffffffffffffffffffffffffffffffff1681526020018260400135815260200182606001358152508383815181106104025761040261093e565b602090810291909101015250600101610321565b506040517f4ce34aa200000000000000000000000000000000000000000000000000000000815273ffffffffffffffffffffffffffffffffffffffff831690634ce34aa290610469908490600401610a0e565b6020604051808303816000875af1158015610488573d6000803e3d6000fd5b505050506040513d601f19601f820116820180604052508101906104ac9190610af6565b5050505b507f73b69d030000000000000000000000000000000000000000000000000000000095945050505050565b6040517f23b872dd00000000000000000000000000000000000000000000000000000000600052836004528260245281604452602060006064600080895af1803d15601f3d116001600051141617163d151581166106385780873b151516610638578061060a57816105d0573d15610591576020601f3d010460208404816003028183111561057857818303600302610200838002858002030401015b5a60208201101561058d573d6000803e3d6000fd5b5050505b7ff486bc870000000000000000000000000000000000000000000000000000000060005286600452856024528460445260006064528360845260a46000fd5b7f98891923000000000000000000000000000000000000000000000000000000006000528660045285602452846044528360645260846000fd5b7f5f15d672000000000000000000000000000000000000000000000000000000006000528660045260246000fd5b5050604052505060006060525050565b833b61067c577f5f15d672000000000000000000000000000000000000000000000000000000006000528360045260246000fd5b6040517f23b872dd000000000000000000000000000000000000000000000000000000006000528360045282602452816044526000806064600080895af180610748573d15610709576020601f3d01046020830481600302818311156106f057818303600302610200838002858002030401015b5a602082011015610705573d6000803e3d6000fd5b5050505b7ff486bc870000000000000000000000000000000000000000000000000000000060005285600452846024528360445282606452600160845260a46000fd5b50604052505060006060525050565b843b61078b577f5f15d672000000000000000000000000000000000000000000000000000000006000528460045260246000fd5b60405160805160a05160c0517ff242432a000000000000000000000000000000000000000000000000000000006000528760045286602452856044528460645260a0608452600060a45260008060c46000808d5af18061086d573d1561082f576020601f3d010460208604816003028183111561081657818303600302610200838002858002030401015b5a60208201101561082b573d6000803e3d6000fd5b5050505b7ff486bc8700000000000000000000000000000000000000000000000000000000600052896004528860245287604452866064528560845260a46000fd5b5060809290925260a05260c05260405250506000606052505050565b803573ffffffffffffffffffffffffffffffffffffffff811681146108ad57600080fd5b919050565b600080600080606085870312156108c857600080fd5b843567ffffffffffffffff808211156108e057600080fd5b818701915087601f8301126108f457600080fd5b81358181111561090357600080fd5b8860208260071b850101111561091857600080fd5b60209283019650945061092e9187019050610889565b9396929550929360400135925050565b7f4e487b7100000000000000000000000000000000000000000000000000000000600052603260045260246000fd5b7f4e487b7100000000000000000000000000000000000000000000000000000000600052602160045260246000fd5b6000602082840312156109ae57600080fd5b8135600481106109bd57600080fd5b9392505050565b6000602082840312156109d657600080fd5b6109bd82610889565b7f4e487b7100000000000000000000000000000000000000000000000000000000600052604160045260246000fd5b60208082528251828201819052600091906040908185019086840185805b83811015610ae857825180516004808210610a6d577f4e487b7100000000000000000000000000000000000000000000000000000000855260218152602485fd5b5086528088015173ffffffffffffffffffffffffffffffffffffffff90811689880152878201511687870152606080820151610ac08289018273ffffffffffffffffffffffffffffffffffffffff169052565b50506080818101519087015260a0908101519086015260c09094019391860191600101610a2c565b509298975050505050505050565b600060208284031215610b0857600080fd5b81517fffffffff00000000000000000000000000000000000000000000000000000000811681146109bd57600080fdfea2646970667358221220a601ec7cbd8b9d0cd51f31636d250ea41450deaddb94e9b98fc18662700b631164736f6c634300080e0033",
    "linkReferences": {}
  },
  "methodIdentifiers": {
    "bulkTransfer((uint8,address,uint256,uint256)[],address,bytes32)": "73b69d03"
  },
  "id": 8
}