{
  "abi": [
    {
      "anonymous": false,
      "inputs": [
        {
          "indexed": true,
          "internalType": "address",
          "name": "owner",
          "type": "address"
        },
        {
          "indexed": true,
          "internalType": "address",
          "name": "operator",
          "type": "address"
        },
        {
          "indexed": false,
          "internalType": "bool",
          "name": "approved",
          "type": "bool"
        }
      ],
      "name": "ApprovalForAll",
      "type": "event"
    },
    {
      "anonymous": false,
      "inputs": [
        {
          "indexed": true,
          "internalType": "address",
          "name": "operator",
          "type": "address"
        },
        {
          "indexed": true,
          "internalType": "address",
          "name": "from",
          "type": "address"
        },
        {
          "indexed": true,
          "internalType": "address",
          "name": "to",
          "type": "address"
        },
        {
          "indexed": false,
          "internalType": "uint256[]",
          "name": "ids",
          "type": "uint256[]"
        },
        {
          "indexed": false,
          "internalType": "uint256[]",
          "name": "amounts",
          "type": "uint256[]"
        }
      ],
      "name": "TransferBatch",
      "type": "event"
    },
    {
      "anonymous": false,
      "inputs": [
        {
          "indexed": true,
          "internalType": "address",
          "name": "operator",
          "type": "address"
        },
        {
          "indexed": true,
          "internalType": "address",
          "name": "from",
          "type": "address"
        },
        {
          "indexed": true,
          "internalType": "address",
          "name": "to",
          "type": "address"
        },
        {
          "indexed": false,
          "internalType": "uint256",
          "name": "id",
          "type": "uint256"
        },
        {
          "indexed": false,
          "internalType": "uint256",
          "name": "amount",
          "type": "uint256"
        }
      ],
      "name": "TransferSingle",
      "type": "event"
    },
    {
      "anonymous": false,
      "inputs": [
        {
          "indexed": false,
          "internalType": "string",
          "name": "value",
          "type": "string"
        },
        {
          "indexed": true,
          "internalType": "uint256",
          "name": "id",
          "type": "uint256"
        }
      ],
      "name": "URI",
      "type": "event"
    },
    {
      "inputs": [
        {
          "internalType": "address",
          "name": "",
          "type": "address"
        },
        {
          "internalType": "uint256",
          "name": "",
          "type": "uint256"
        }
      ],
      "name": "balanceOf",
      "outputs": [
        {
          "internalType": "uint256",
          "name": "",
          "type": "uint256"
        }
      ],
      "stateMutability": "view",
      "type": "function"
    },
    {
      "inputs": [
        {
          "internalType": "address[]",
          "name": "owners",
          "type": "address[]"
        },
        {
          "internalType": "uint256[]",
          "name": "ids",
          "type": "uint256[]"
        }
      ],
      "name": "balanceOfBatch",
      "outputs": [
        {
          "internalType": "uint256[]",
          "name": "balances",
          "type": "uint256[]"
        }
      ],
      "stateMutability": "view",
      "type": "function"
    },
    {
      "inputs": [
        {
          "internalType": "address",
          "name": "",
          "type": "address"
        },
        {
          "internalType": "address",
          "name": "",
          "type": "address"
        }
      ],
      "name": "isApprovedForAll",
      "outputs": [
        {
          "internalType": "bool",
          "name": "",
          "type": "bool"
        }
      ],
      "stateMutability": "view",
      "type": "function"
    },
    {
      "inputs": [
        {
          "internalType": "address",
          "name": "to",
          "type": "address"
        },
        {
          "internalType": "uint256",
          "name": "tokenId",
          "type": "uint256"
        },
        {
          "internalType": "uint256",
          "name": "amount",
          "type": "uint256"
        }
      ],
      "name": "mint",
      "outputs": [
        {
          "internalType": "bool",
          "name": "",
          "type": "bool"
        }
      ],
      "stateMutability": "nonpayable",
      "type": "function"
    },
    {
      "inputs": [
        {
          "internalType": "address",
          "name": "from",
          "type": "address"
        },
        {
          "internalType": "address",
          "name": "to",
          "type": "address"
        },
        {
          "internalType": "uint256[]",
          "name": "ids",
          "type": "uint256[]"
        },
        {
          "internalType": "uint256[]",
          "name": "amounts",
          "type": "uint256[]"
        },
        {
          "internalType": "bytes",
          "name": "data",
          "type": "bytes"
        }
      ],
      "name": "safeBatchTransferFrom",
      "outputs": [],
      "stateMutability": "nonpayable",
      "type": "function"
    },
    {
      "inputs": [
        {
          "internalType": "address",
          "name": "from",
          "type": "address"
        },
        {
          "internalType": "address",
          "name": "to",
          "type": "address"
        },
        {
          "internalType": "uint256",
          "name": "id",
          "type": "uint256"
        },
        {
          "internalType": "uint256",
          "name": "amount",
          "type": "uint256"
        },
        {
          "internalType": "bytes",
          "name": "data",
          "type": "bytes"
        }
      ],
      "name": "safeTransferFrom",
      "outputs": [],
      "stateMutability": "nonpayable",
      "type": "function"
    },
    {
      "inputs": [
        {
          "internalType": "address",
          "name": "operator",
          "type": "address"
        },
        {
          "internalType": "bool",
          "name": "approved",
          "type": "bool"
        }
      ],
      "name": "setApprovalForAll",
      "outputs": [],
      "stateMutability": "nonpayable",
      "type": "function"
    },
    {
      "inputs": [
        {
          "internalType": "bytes4",
          "name": "interfaceId",
          "type": "bytes4"
        }
      ],
      "name": "supportsInterface",
      "outputs": [
        {
          "internalType": "bool",
          "name": "",
          "type": "bool"
        }
      ],
      "stateMutability": "view",
      "type": "function"
    },
    {
      "inputs": [
        {
          "internalType": "uint256",
          "name": "",
          "type": "uint256"
        }
      ],
      "name": "uri",
      "outputs": [
        {
          "internalType": "string",
          "name": "",
          "type": "string"
        }
      ],
      "stateMutability": "pure",
      "type": "function"
    }
  ],
  "bytecode": {
    "object": "0x608060405234801561001057600080fd5b50611589806100206000396000f3fe608060405234801561001057600080fd5b50600436106100a25760003560e01c80632eb2c2d611610076578063a22cb4651161005b578063a22cb465146101a0578063e985e9c5146101b3578063f242432a146101e157600080fd5b80632eb2c2d61461016b5780634e1273f41461018057600080fd5b8062fdd58e146100a757806301ffc9a7146100e25780630e89341c14610105578063156e29f614610158575b600080fd5b6100cf6100b53660046110b6565b600060208181529281526040808220909352908152205481565b6040519081526020015b60405180910390f35b6100f56100f036600461117f565b6101f4565b60405190151581526020016100d9565b61014b6101133660046111b9565b5060408051808201909152600381527f7572690000000000000000000000000000000000000000000000000000000000602082015290565b6040516100d99190611453565b6100f56101663660046110e0565b6102d9565b61017e610179366004610f47565b610300565b005b61019361018e366004611113565b610705565b6040516100d9919061140f565b61017e6101ae36600461107a565b61087c565b6100f56101c1366004610f14565b600160209081526000928352604080842090915290825290205460ff1681565b61017e6101ef366004611002565b610913565b60007f01ffc9a7000000000000000000000000000000000000000000000000000000007fffffffff000000000000000000000000000000000000000000000000000000008316148061028757507fd9b67a26000000000000000000000000000000000000000000000000000000007fffffffff000000000000000000000000000000000000000000000000000000008316145b806102d357507f0e89341c000000000000000000000000000000000000000000000000000000007fffffffff000000000000000000000000000000000000000000000000000000008316145b92915050565b60006102f684848460405180602001604052806000815250610c28565b5060019392505050565b84831461036e576040517f08c379a000000000000000000000000000000000000000000000000000000000815260206004820152600f60248201527f4c454e4754485f4d49534d41544348000000000000000000000000000000000060448201526064015b60405180910390fd5b3373ffffffffffffffffffffffffffffffffffffffff891614806103c2575073ffffffffffffffffffffffffffffffffffffffff8816600090815260016020908152604080832033845290915290205460ff165b610428576040517f08c379a000000000000000000000000000000000000000000000000000000000815260206004820152600e60248201527f4e4f545f415554484f52495a45440000000000000000000000000000000000006044820152606401610365565b60008060005b878110156104fd57888882818110610448576104486114c4565b905060200201359250868682818110610463576104636114c4565b73ffffffffffffffffffffffffffffffffffffffff8e16600090815260208181526040808320898452825282208054939091029490940135955085939250906104ad90849061147e565b909155505073ffffffffffffffffffffffffffffffffffffffff8a16600090815260208181526040808320868452909152812080548492906104f0908490611466565b909155505060010161042e565b508873ffffffffffffffffffffffffffffffffffffffff168a73ffffffffffffffffffffffffffffffffffffffff163373ffffffffffffffffffffffffffffffffffffffff167f4a39dc06d4c0dbc64b70af90fd698a233a518aa5d07e595d983b8c0526c8f7fb8b8b8b8b60405161057894939291906113e8565b60405180910390a473ffffffffffffffffffffffffffffffffffffffff89163b15610679576040517fbc197c81000000000000000000000000000000000000000000000000000000008082529073ffffffffffffffffffffffffffffffffffffffff8b169063bc197c81906105ff9033908f908e908e908e908e908e908e906004016112d5565b602060405180830381600087803b15801561061957600080fd5b505af115801561062d573d6000803e3d6000fd5b505050506040513d601f19601f82011682018060405250810190610651919061119c565b7fffffffff000000000000000000000000000000000000000000000000000000001614610693565b73ffffffffffffffffffffffffffffffffffffffff891615155b6106f9576040517f08c379a000000000000000000000000000000000000000000000000000000000815260206004820152601060248201527f554e534146455f524543495049454e54000000000000000000000000000000006044820152606401610365565b50505050505050505050565b6060838214610770576040517f08c379a000000000000000000000000000000000000000000000000000000000815260206004820152600f60248201527f4c454e4754485f4d49534d4154434800000000000000000000000000000000006044820152606401610365565b8367ffffffffffffffff811115610789576107896114f3565b6040519080825280602002602001820160405280156107b2578160200160208202803683370190505b50905060005b84811015610873576000808787848181106107d5576107d56114c4565b90506020020160208101906107ea9190610ef2565b73ffffffffffffffffffffffffffffffffffffffff1673ffffffffffffffffffffffffffffffffffffffff1681526020019081526020016000206000858584818110610838576108386114c4565b90506020020135815260200190815260200160002054828281518110610860576108606114c4565b60209081029190910101526001016107b8565b50949350505050565b33600081815260016020908152604080832073ffffffffffffffffffffffffffffffffffffffff87168085529083529281902080547fffffffffffffffffffffffffffffffffffffffffffffffffffffffffffffff001686151590811790915590519081529192917f17307eab39ab6107e8899845ad3d59bd9653f200f220920489ca2b5937696c31910160405180910390a35050565b3373ffffffffffffffffffffffffffffffffffffffff87161480610967575073ffffffffffffffffffffffffffffffffffffffff8616600090815260016020908152604080832033845290915290205460ff165b6109cd576040517f08c379a000000000000000000000000000000000000000000000000000000000815260206004820152600e60248201527f4e4f545f415554484f52495a45440000000000000000000000000000000000006044820152606401610365565b73ffffffffffffffffffffffffffffffffffffffff861660009081526020818152604080832087845290915281208054859290610a0b90849061147e565b909155505073ffffffffffffffffffffffffffffffffffffffff851660009081526020818152604080832087845290915281208054859290610a4e908490611466565b9091555050604080518581526020810185905273ffffffffffffffffffffffffffffffffffffffff808816929089169133917fc3d58168c5ae7397731d063d5bbf3d657854427343f4c083240f7aacaa2d0f62910160405180910390a473ffffffffffffffffffffffffffffffffffffffff85163b15610ba0576040517ff23a6e61000000000000000000000000000000000000000000000000000000008082529073ffffffffffffffffffffffffffffffffffffffff87169063f23a6e6190610b269033908b908a908a908a908a90600401611346565b602060405180830381600087803b158015610b4057600080fd5b505af1158015610b54573d6000803e3d6000fd5b505050506040513d601f19601f82011682018060405250810190610b78919061119c565b7fffffffff000000000000000000000000000000000000000000000000000000001614610bba565b73ffffffffffffffffffffffffffffffffffffffff851615155b610c20576040517f08c379a000000000000000000000000000000000000000000000000000000000815260206004820152601060248201527f554e534146455f524543495049454e54000000000000000000000000000000006044820152606401610365565b505050505050565b73ffffffffffffffffffffffffffffffffffffffff841660009081526020818152604080832086845290915281208054849290610c66908490611466565b9091555050604080518481526020810184905273ffffffffffffffffffffffffffffffffffffffff86169160009133917fc3d58168c5ae7397731d063d5bbf3d657854427343f4c083240f7aacaa2d0f62910160405180910390a473ffffffffffffffffffffffffffffffffffffffff84163b15610db5576040517ff23a6e61000000000000000000000000000000000000000000000000000000008082529073ffffffffffffffffffffffffffffffffffffffff86169063f23a6e6190610d3b903390600090899089908990600401611398565b602060405180830381600087803b158015610d5557600080fd5b505af1158015610d69573d6000803e3d6000fd5b505050506040513d601f19601f82011682018060405250810190610d8d919061119c565b7fffffffff000000000000000000000000000000000000000000000000000000001614610dcf565b73ffffffffffffffffffffffffffffffffffffffff841615155b610e35576040517f08c379a000000000000000000000000000000000000000000000000000000000815260206004820152601060248201527f554e534146455f524543495049454e54000000000000000000000000000000006044820152606401610365565b50505050565b803573ffffffffffffffffffffffffffffffffffffffff81168114610e5f57600080fd5b919050565b60008083601f840112610e7657600080fd5b50813567ffffffffffffffff811115610e8e57600080fd5b6020830191508360208260051b8501011115610ea957600080fd5b9250929050565b60008083601f840112610ec257600080fd5b50813567ffffffffffffffff811115610eda57600080fd5b602083019150836020828501011115610ea957600080fd5b600060208284031215610f0457600080fd5b610f0d82610e3b565b9392505050565b60008060408385031215610f2757600080fd5b610f3083610e3b565b9150610f3e60208401610e3b565b90509250929050565b60008060008060008060008060a0898b031215610f6357600080fd5b610f6c89610e3b565b9750610f7a60208a01610e3b565b9650604089013567ffffffffffffffff80821115610f9757600080fd5b610fa38c838d01610e64565b909850965060608b0135915080821115610fbc57600080fd5b610fc88c838d01610e64565b909650945060808b0135915080821115610fe157600080fd5b50610fee8b828c01610eb0565b999c989b5096995094979396929594505050565b60008060008060008060a0878903121561101b57600080fd5b61102487610e3b565b955061103260208801610e3b565b94506040870135935060608701359250608087013567ffffffffffffffff81111561105c57600080fd5b61106889828a01610eb0565b979a9699509497509295939492505050565b6000806040838503121561108d57600080fd5b61109683610e3b565b9150602083013580151581146110ab57600080fd5b809150509250929050565b600080604083850312156110c957600080fd5b6110d283610e3b565b946020939093013593505050565b6000806000606084860312156110f557600080fd5b6110fe84610e3b565b95602085013595506040909401359392505050565b6000806000806040858703121561112957600080fd5b843567ffffffffffffffff8082111561114157600080fd5b61114d88838901610e64565b9096509450602087013591508082111561116657600080fd5b5061117387828801610e64565b95989497509550505050565b60006020828403121561119157600080fd5b8135610f0d81611522565b6000602082840312156111ae57600080fd5b8151610f0d81611522565b6000602082840312156111cb57600080fd5b5035919050565b81835260007f07ffffffffffffffffffffffffffffffffffffffffffffffffffffffffffffff83111561120457600080fd5b8260051b8083602087013760009401602001938452509192915050565b8183528181602085013750600060208284010152600060207fffffffffffffffffffffffffffffffffffffffffffffffffffffffffffffffe0601f840116840101905092915050565b6000815180845260005b8181101561129057602081850181015186830182015201611274565b818111156112a2576000602083870101525b50601f017fffffffffffffffffffffffffffffffffffffffffffffffffffffffffffffffe0169290920160200192915050565b600073ffffffffffffffffffffffffffffffffffffffff808b168352808a1660208401525060a0604083015261130f60a08301888a6111d2565b82810360608401526113228187896111d2565b90508281036080840152611337818587611221565b9b9a5050505050505050505050565b600073ffffffffffffffffffffffffffffffffffffffff808916835280881660208401525085604083015284606083015260a0608083015261138c60a083018486611221565b98975050505050505050565b600073ffffffffffffffffffffffffffffffffffffffff808816835280871660208401525084604083015283606083015260a060808301526113dd60a083018461126a565b979650505050505050565b6040815260006113fc6040830186886111d2565b82810360208401526113dd8185876111d2565b6020808252825182820181905260009190848201906040850190845b818110156114475783518352928401929184019160010161142b565b50909695505050505050565b602081526000610f0d602083018461126a565b6000821982111561147957611479611495565b500190565b60008282101561149057611490611495565b500390565b7f4e487b7100000000000000000000000000000000000000000000000000000000600052601160045260246000fd5b7f4e487b7100000000000000000000000000000000000000000000000000000000600052603260045260246000fd5b7f4e487b7100000000000000000000000000000000000000000000000000000000600052604160045260246000fd5b7fffffffff000000000000000000000000000000000000000000000000000000008116811461155057600080fd5b5056fea26469706673582212207225233492476b9ff0d3bfed8d606205b35e864bd0bb39d75ad3d7767b29c87864736f6c63430008070033",
    "linkReferences": {}
  },
  "methodIdentifiers": {
    "balanceOf(address,uint256)": "00fdd58e",
    "balanceOfBatch(address[],uint256[])": "4e1273f4",
    "isApprovedForAll(address,address)": "e985e9c5",
    "mint(address,uint256,uint256)": "156e29f6",
    "safeBatchTransferFrom(address,address,uint256[],uint256[],bytes)": "2eb2c2d6",
    "safeTransferFrom(address,address,uint256,uint256,bytes)": "f242432a",
    "setApprovalForAll(address,bool)": "a22cb465",
    "supportsInterface(bytes4)": "01ffc9a7",
    "uri(uint256)": "0e89341c"
  },
  "id": 30
}