{
  "abi": [
    {
      "anonymous": false,
      "inputs": [
        {
          "indexed": false,
          "internalType": "bytes",
          "name": "returnData",
          "type": "bytes"
        }
      ],
      "name": "Reentered",
      "type": "event"
    },
    {
      "inputs": [],
      "name": "callData",
      "outputs": [
        {
          "internalType": "bytes",
          "name": "",
          "type": "bytes"
        }
      ],
      "stateMutability": "view",
      "type": "function"
    },
    {
      "inputs": [],
      "name": "msgValue",
      "outputs": [
        {
          "internalType": "uint256",
          "name": "",
          "type": "uint256"
        }
      ],
      "stateMutability": "view",
      "type": "function"
    },
    {
      "inputs": [
        {
          "internalType": "address",
          "name": "targetToUse",
          "type": "address"
        },
        {
          "internalType": "uint256",
          "name": "msgValueToUse",
          "type": "uint256"
        },
        {
          "internalType": "bytes",
          "name": "callDataToUse",
          "type": "bytes"
        }
      ],
      "name": "prepare",
      "outputs": [],
      "stateMutability": "nonpayable",
      "type": "function"
    },
    {
      "inputs": [],
      "name": "target",
      "outputs": [
        {
          "internalType": "address",
          "name": "",
          "type": "address"
        }
      ],
      "stateMutability": "view",
      "type": "function"
    },
    {
      "stateMutability": "payable",
      "type": "receive"
    }
  ],
  "bytecode": {
    "object": "0x608060405234801561001057600080fd5b506105e0806100206000396000f3fe6080604052600436106100435760003560e01c80634e417a981461010e5780635157589b14610139578063d4b839921461015b578063ddf363d7146101ad57600080fd5b366101095760008054600154604051839273ffffffffffffffffffffffffffffffffffffffff16919061007890600290610410565b60006040518083038185875af1925050503d80600081146100b5576040519150601f19603f3d011682016040523d82523d6000602084013e6100ba565b606091505b5091509150816100ce573d6000803e3d6000fd5b7f52b1b52a16f834754c20ed40ad488c0fc799dea307f9bb9cde6413f0e356703e816040516100fd91906104e3565b60405180910390a15050005b600080fd5b34801561011a57600080fd5b506101236101d1565b60405161013091906104e3565b60405180910390f35b34801561014557600080fd5b5061015961015436600461036e565b61025f565b005b34801561016757600080fd5b506000546101889073ffffffffffffffffffffffffffffffffffffffff1681565b60405173ffffffffffffffffffffffffffffffffffffffff9091168152602001610130565b3480156101b957600080fd5b506101c360015481565b604051908152602001610130565b600280546101de90610556565b80601f016020809104026020016040519081016040528092919081815260200182805461020a90610556565b80156102575780601f1061022c57610100808354040283529160200191610257565b820191906000526020600020905b81548152906001019060200180831161023a57829003601f168201915b505050505081565b600080547fffffffffffffffffffffffff00000000000000000000000000000000000000001673ffffffffffffffffffffffffffffffffffffffff861617905560018390556102b0600283836102b7565b5050505050565b8280546102c390610556565b90600052602060002090601f0160209004810192826102e55760008555610349565b82601f1061031c578280017fffffffffffffffffffffffffffffffffffffffffffffffffffffffffffffff00823516178555610349565b82800160010185558215610349579182015b8281111561034957823582559160200191906001019061032e565b50610355929150610359565b5090565b5b80821115610355576000815560010161035a565b6000806000806060858703121561038457600080fd5b843573ffffffffffffffffffffffffffffffffffffffff811681146103a857600080fd5b935060208501359250604085013567ffffffffffffffff808211156103cc57600080fd5b818701915087601f8301126103e057600080fd5b8135818111156103ef57600080fd5b88602082850101111561040157600080fd5b95989497505060200194505050565b600080835481600182811c91508083168061042c57607f831692505b6020808410821415610465577f4e487b710000000000000000000000000000000000000000000000000000000086526022600452602486fd5b81801561047957600181146104a8576104d5565b7fffffffffffffffffffffffffffffffffffffffffffffffffffffffffffffff008616895284890196506104d5565b60008a81526020902060005b868110156104cd5781548b8201529085019083016104b4565b505084890196505b509498975050505050505050565b600060208083528351808285015260005b81811015610510578581018301518582016040015282016104f4565b81811115610522576000604083870101525b50601f017fffffffffffffffffffffffffffffffffffffffffffffffffffffffffffffffe016929092016040019392505050565b600181811c9082168061056a57607f821691505b602082108114156105a4577f4e487b7100000000000000000000000000000000000000000000000000000000600052602260045260246000fd5b5091905056fea26469706673582212207b54cf42594f444abadfe4781a6495fb113e916d94c802881d9d54522764404164736f6c63430008070033",
    "linkReferences": {}
  },
  "methodIdentifiers": {
    "callData()": "4e417a98",
    "msgValue()": "ddf363d7",
    "prepare(address,uint256,bytes)": "5157589b",
    "target()": "d4b83992"
  },
  "id": 29
}