{
  "abi": [
    {
      "inputs": [
        {
          "internalType": "bytes32[]",
          "name": "data",
          "type": "bytes32[]"
        },
        {
          "internalType": "uint256",
          "name": "node",
          "type": "uint256"
        }
      ],
      "name": "getProof",
      "outputs": [
        {
          "internalType": "bytes32[]",
          "name": "",
          "type": "bytes32[]"
        }
      ],
      "stateMutability": "pure",
      "type": "function"
    },
    {
      "inputs": [
        {
          "internalType": "bytes32[]",
          "name": "data",
          "type": "bytes32[]"
        }
      ],
      "name": "getRoot",
      "outputs": [
        {
          "internalType": "bytes32",
          "name": "",
          "type": "bytes32"
        }
      ],
      "stateMutability": "pure",
      "type": "function"
    },
    {
      "inputs": [
        {
          "internalType": "bytes32",
          "name": "left",
          "type": "bytes32"
        },
        {
          "internalType": "bytes32",
          "name": "right",
          "type": "bytes32"
        }
      ],
      "name": "hashLeafPairs",
      "outputs": [
        {
          "internalType": "bytes32",
          "name": "_hash",
          "type": "bytes32"
        }
      ],
      "stateMutability": "pure",
      "type": "function"
    },
    {
      "inputs": [
        {
          "internalType": "uint256",
          "name": "x",
          "type": "uint256"
        }
      ],
      "name": "log2ceil_bitmagic",
      "outputs": [
        {
          "internalType": "uint256",
          "name": "",
          "type": "uint256"
        }
      ],
      "stateMutability": "pure",
      "type": "function"
    },
    {
      "inputs": [
        {
          "internalType": "uint256",
          "name": "x",
          "type": "uint256"
        }
      ],
      "name": "log2ceil_naive",
      "outputs": [
        {
          "internalType": "uint256",
          "name": "",
          "type": "uint256"
        }
      ],
      "stateMutability": "pure",
      "type": "function"
    },
    {
      "inputs": [
        {
          "internalType": "bytes32",
          "name": "root",
          "type": "bytes32"
        },
        {
          "internalType": "bytes32[]",
          "name": "proof",
          "type": "bytes32[]"
        },
        {
          "internalType": "bytes32",
          "name": "valueToProve",
          "type": "bytes32"
        }
      ],
      "name": "verifyProof",
      "outputs": [
        {
          "internalType": "bool",
          "name": "",
          "type": "bool"
        }
      ],
      "stateMutability": "pure",
      "type": "function"
    }
  ],
  "bytecode": {
    "object": "0x608060405234801561001057600080fd5b506109dd806100206000396000f3fe608060405234801561001057600080fd5b50600436106100725760003560e01c806358161a421161005057806358161a42146100c3578063b8616195146100e6578063dd1d25991461010657600080fd5b806308d7090a146100775780631e0ce39a1461009d5780632e08d602146100b0575b600080fd5b61008a610085366004610700565b610119565b6040519081526020015b60405180910390f35b61008a6100ab366004610700565b610144565b61008a6100be366004610801565b61028e565b6100d66100d136600461083e565b610362565b6040519015158152602001610094565b6100f96100f436600461088e565b6103ac565b60405161009491906108d3565b61008a610114366004610917565b610564565b6000808219600101831683145b831561013c57600193841c939190910190610126565b900392915050565b60006001821161015657506000919050565b600082700100000000000000000000000000000000811061018457608093841c936101819083610939565b91505b6801000000000000000084106101a757604093841c936101a49083610939565b91505b64010000000084106101c657602093841c936101c39083610939565b91505b6201000084106101e357601093841c936101e09083610939565b91505b61010084106101ff57600893841c936101fc9083610939565b91505b6010841061021a57600493841c936102179083610939565b91505b6004841061023557600293841c936102329083610939565b91505b6002841061024b57610248600183610939565b91505b60008161025a81196001610939565b169050818114801561026c5750600083115b1561027a5750909392505050565b610285836001610939565b95945050505050565b60006001825111610326576040517f08c379a000000000000000000000000000000000000000000000000000000000815260206004820152602360248201527f776f6e27742067656e657261746520726f6f7420666f722073696e676c65206c60448201527f656166000000000000000000000000000000000000000000000000000000000060648201526084015b60405180910390fd5b6001825111156103405761033982610592565b9150610326565b8160008151811061035357610353610978565b60200260200101519050919050565b81516000908290825b818110156103a0576103968387838151811061038957610389610978565b6020026020010151610564565b925060010161036b565b50509093149392505050565b6060600183511161043e576040517f08c379a0000000000000000000000000000000000000000000000000000000008152602060048201526024808201527f776f6e27742067656e65726174652070726f6f6620666f722073696e676c652060448201527f6c65616600000000000000000000000000000000000000000000000000000000606482015260840161031d565b600061044a8451610119565b67ffffffffffffffff81111561046257610462610719565b60405190808252806020026020018201604052801561048b578160200160208202803683370190505b50905060005b60018551111561055c57836001166001036104e6578460018503815181106104bb576104bb610978565b60200260200101518282815181106104d5576104d5610978565b602002602001018181525050610543565b84518460010103610507576000801b8282815181106104d5576104d5610978565b84846001018151811061051c5761051c610978565b602002602001015182828151811061053657610536610978565b6020026020010181815250505b60010160028404935061055585610592565b9450610491565b509392505050565b6000818310801561057c578360005282602052610585565b82600052836020525b5050604060002092915050565b60608060008351905080600116600103610641576002810460010167ffffffffffffffff8111156105c5576105c5610719565b6040519080825280602002602001820160405280156105ee578160200160208202803683370190505b50915061061a84600183038151811061060957610609610978565b60200260200101516000801b610564565b8260018451038151811061063057610630610978565b60200260200101818152505061068a565b6002810467ffffffffffffffff81111561065d5761065d610719565b604051908082528060200260200182016040528015610686578160200160208202803683370190505b5091505b6000805b600183038110156106f6576106cb8682815181106106ae576106ae610978565b602002602001015187836001018151811061038957610389610978565b8483815181106106dd576106dd610978565b602090810291909101015260019091019060020161068e565b5091949350505050565b60006020828403121561071257600080fd5b5035919050565b7f4e487b7100000000000000000000000000000000000000000000000000000000600052604160045260246000fd5b600082601f83011261075957600080fd5b8135602067ffffffffffffffff8083111561077657610776610719565b8260051b6040517fffffffffffffffffffffffffffffffffffffffffffffffffffffffffffffffe0603f830116810181811084821117156107b9576107b9610719565b6040529384528581018301938381019250878511156107d757600080fd5b83870191505b848210156107f6578135835291830191908301906107dd565b979650505050505050565b60006020828403121561081357600080fd5b813567ffffffffffffffff81111561082a57600080fd5b61083684828501610748565b949350505050565b60008060006060848603121561085357600080fd5b83359250602084013567ffffffffffffffff81111561087157600080fd5b61087d86828701610748565b925050604084013590509250925092565b600080604083850312156108a157600080fd5b823567ffffffffffffffff8111156108b857600080fd5b6108c485828601610748565b95602094909401359450505050565b6020808252825182820181905260009190848201906040850190845b8181101561090b578351835292840192918401916001016108ef565b50909695505050505050565b6000806040838503121561092a57600080fd5b50508035926020909101359150565b60008219821115610973577f4e487b7100000000000000000000000000000000000000000000000000000000600052601160045260246000fd5b500190565b7f4e487b7100000000000000000000000000000000000000000000000000000000600052603260045260246000fdfea2646970667358221220cc9adb1187e2663fd2990cf0ef43761a073434ef997e9cde9a9210b4bc46533964736f6c634300080e0033",
    "linkReferences": {}
  },
  "methodIdentifiers": {
    "getProof(bytes32[],uint256)": "b8616195",
    "getRoot(bytes32[])": "2e08d602",
    "hashLeafPairs(bytes32,bytes32)": "dd1d2599",
    "log2ceil_bitmagic(uint256)": "1e0ce39a",
    "log2ceil_naive(uint256)": "08d7090a",
    "verifyProof(bytes32,bytes32[],bytes32)": "58161a42"
  },
  "id": 62
}