{
  "abi": [
    {
      "inputs": [],
      "stateMutability": "nonpayable",
      "type": "constructor"
    },
    {
      "inputs": [
        {
          "internalType": "address",
          "name": "conduit",
          "type": "address"
        }
      ],
      "name": "CallerIsNotNewPotentialOwner",
      "type": "error"
    },
    {
      "inputs": [
        {
          "internalType": "address",
          "name": "conduit",
          "type": "address"
        }
      ],
      "name": "CallerIsNotOwner",
      "type": "error"
    },
    {
      "inputs": [
        {
          "internalType": "address",
          "name": "conduit",
          "type": "address"
        }
      ],
      "name": "ChannelOutOfRange",
      "type": "error"
    },
    {
      "inputs": [
        {
          "internalType": "address",
          "name": "conduit",
          "type": "address"
        }
      ],
      "name": "ConduitAlreadyExists",
      "type": "error"
    },
    {
      "inputs": [],
      "name": "InvalidCreator",
      "type": "error"
    },
    {
      "inputs": [],
      "name": "InvalidInitialOwner",
      "type": "error"
    },
    {
      "inputs": [
        {
          "internalType": "address",
          "name": "conduit",
          "type": "address"
        },
        {
          "internalType": "address",
          "name": "newPotentialOwner",
          "type": "address"
        }
      ],
      "name": "NewPotentialOwnerAlreadySet",
      "type": "error"
    },
    {
      "inputs": [
        {
          "internalType": "address",
          "name": "conduit",
          "type": "address"
        }
      ],
      "name": "NewPotentialOwnerIsZeroAddress",
      "type": "error"
    },
    {
      "inputs": [],
      "name": "NoConduit",
      "type": "error"
    },
    {
      "inputs": [
        {
          "internalType": "address",
          "name": "conduit",
          "type": "address"
        }
      ],
      "name": "NoPotentialOwnerCurrentlySet",
      "type": "error"
    },
    {
      "anonymous": false,
      "inputs": [
        {
          "indexed": false,
          "internalType": "address",
          "name": "conduit",
          "type": "address"
        },
        {
          "indexed": false,
          "internalType": "bytes32",
          "name": "conduitKey",
          "type": "bytes32"
        }
      ],
      "name": "NewConduit",
      "type": "event"
    },
    {
      "anonymous": false,
      "inputs": [
        {
          "indexed": true,
          "internalType": "address",
          "name": "conduit",
          "type": "address"
        },
        {
          "indexed": true,
          "internalType": "address",
          "name": "previousOwner",
          "type": "address"
        },
        {
          "indexed": true,
          "internalType": "address",
          "name": "newOwner",
          "type": "address"
        }
      ],
      "name": "OwnershipTransferred",
      "type": "event"
    },
    {
      "anonymous": false,
      "inputs": [
        {
          "indexed": true,
          "internalType": "address",
          "name": "newPotentialOwner",
          "type": "address"
        }
      ],
      "name": "PotentialOwnerUpdated",
      "type": "event"
    },
    {
      "inputs": [
        {
          "internalType": "address",
          "name": "conduit",
          "type": "address"
        }
      ],
      "name": "acceptOwnership",
      "outputs": [],
      "stateMutability": "nonpayable",
      "type": "function"
    },
    {
      "inputs": [
        {
          "internalType": "address",
          "name": "conduit",
          "type": "address"
        }
      ],
      "name": "cancelOwnershipTransfer",
      "outputs": [],
      "stateMutability": "nonpayable",
      "type": "function"
    },
    {
      "inputs": [
        {
          "internalType": "bytes32",
          "name": "conduitKey",
          "type": "bytes32"
        },
        {
          "internalType": "address",
          "name": "initialOwner",
          "type": "address"
        }
      ],
      "name": "createConduit",
      "outputs": [
        {
          "internalType": "address",
          "name": "conduit",
          "type": "address"
        }
      ],
      "stateMutability": "nonpayable",
      "type": "function"
    },
    {
      "inputs": [
        {
          "internalType": "address",
          "name": "conduit",
          "type": "address"
        },
        {
          "internalType": "uint256",
          "name": "channelIndex",
          "type": "uint256"
        }
      ],
      "name": "getChannel",
      "outputs": [
        {
          "internalType": "address",
          "name": "channel",
          "type": "address"
        }
      ],
      "stateMutability": "view",
      "type": "function"
    },
    {
      "inputs": [
        {
          "internalType": "address",
          "name": "conduit",
          "type": "address"
        },
        {
          "internalType": "address",
          "name": "channel",
          "type": "address"
        }
      ],
      "name": "getChannelStatus",
      "outputs": [
        {
          "internalType": "bool",
          "name": "isOpen",
          "type": "bool"
        }
      ],
      "stateMutability": "view",
      "type": "function"
    },
    {
      "inputs": [
        {
          "internalType": "address",
          "name": "conduit",
          "type": "address"
        }
      ],
      "name": "getChannels",
      "outputs": [
        {
          "internalType": "address[]",
          "name": "channels",
          "type": "address[]"
        }
      ],
      "stateMutability": "view",
      "type": "function"
    },
    {
      "inputs": [
        {
          "internalType": "bytes32",
          "name": "conduitKey",
          "type": "bytes32"
        }
      ],
      "name": "getConduit",
      "outputs": [
        {
          "internalType": "address",
          "name": "conduit",
          "type": "address"
        },
        {
          "internalType": "bool",
          "name": "exists",
          "type": "bool"
        }
      ],
      "stateMutability": "view",
      "type": "function"
    },
    {
      "inputs": [],
      "name": "getConduitCodeHashes",
      "outputs": [
        {
          "internalType": "bytes32",
          "name": "creationCodeHash",
          "type": "bytes32"
        },
        {
          "internalType": "bytes32",
          "name": "runtimeCodeHash",
          "type": "bytes32"
        }
      ],
      "stateMutability": "view",
      "type": "function"
    },
    {
      "inputs": [
        {
          "internalType": "address",
          "name": "conduit",
          "type": "address"
        }
      ],
      "name": "getKey",
      "outputs": [
        {
          "internalType": "bytes32",
          "name": "conduitKey",
          "type": "bytes32"
        }
      ],
      "stateMutability": "view",
      "type": "function"
    },
    {
      "inputs": [
        {
          "internalType": "address",
          "name": "conduit",
          "type": "address"
        }
      ],
      "name": "getPotentialOwner",
      "outputs": [
        {
          "internalType": "address",
          "name": "potentialOwner",
          "type": "address"
        }
      ],
      "stateMutability": "view",
      "type": "function"
    },
    {
      "inputs": [
        {
          "internalType": "address",
          "name": "conduit",
          "type": "address"
        }
      ],
      "name": "getTotalChannels",
      "outputs": [
        {
          "internalType": "uint256",
          "name": "totalChannels",
          "type": "uint256"
        }
      ],
      "stateMutability": "view",
      "type": "function"
    },
    {
      "inputs": [
        {
          "internalType": "address",
          "name": "conduit",
          "type": "address"
        }
      ],
      "name": "ownerOf",
      "outputs": [
        {
          "internalType": "address",
          "name": "owner",
          "type": "address"
        }
      ],
      "stateMutability": "view",
      "type": "function"
    },
    {
      "inputs": [
        {
          "internalType": "address",
          "name": "conduit",
          "type": "address"
        },
        {
          "internalType": "address",
          "name": "newPotentialOwner",
          "type": "address"
        }
      ],
      "name": "transferOwnership",
      "outputs": [],
      "stateMutability": "nonpayable",
      "type": "function"
    },
    {
      "inputs": [
        {
          "internalType": "address",
          "name": "conduit",
          "type": "address"
        },
        {
          "internalType": "address",
          "name": "channel",
          "type": "address"
        },
        {
          "internalType": "bool",
          "name": "isOpen",
          "type": "bool"
        }
      ],
      "name": "updateChannel",
      "outputs": [],
      "stateMutability": "nonpayable",
      "type": "function"
    }
  ],
  "bytecode": {
    "object": "0x60c060405234801561001057600080fd5b5060405161002060208201610088565b6020820181038252601f19601f82011660405250805190602001206080818152505060008060001b60405161005490610088565b8190604051809103906000f5905080158015610074573d6000803e3d6000fd5b506001600160a01b03163f60a05250610095565b61112c8061258883390190565b60805160a0516124b26100d660003960008181610155015281816102f90152610c770152600081816101320152818161027c0152610c3301526124b26000f3fe608060405234801561001057600080fd5b50600436106100ea5760003560e01c80636d4354211161008c5780637b37e561116100665780637b37e5611461035f5780638b9e028b14610372578063906c87cc1461039257806393790f44146103a557600080fd5b80636d435421146101fe5780636e9bfd9f14610211578063794593bc1461034c57600080fd5b806314afd79e116100c857806314afd79e1461019457806333bc8572146101a75780634e3f9580146101ca57806351710e45146101eb57600080fd5b8063027cc764146100ef5780630a96ad391461012c57806313ad9cab1461017f575b600080fd5b6101026100fd3660046111f4565b6103b8565b60405173ffffffffffffffffffffffffffffffffffffffff90911681526020015b60405180910390f35b604080517f000000000000000000000000000000000000000000000000000000000000000081527f0000000000000000000000000000000000000000000000000000000000000000602082015201610123565b61019261018d3660046111a8565b6104a6565b005b6101026101a2366004611153565b610783565b6101ba6101b5366004611175565b6107bd565b6040519015158152602001610123565b6101dd6101d8366004611153565b610805565b604051908152602001610123565b6101926101f9366004611153565b61083c565b61019261020c366004611175565b6109be565b61032061021f36600461121e565b6040517fff0000000000000000000000000000000000000000000000000000000000000060208201527fffffffffffffffffffffffffffffffffffffffff0000000000000000000000003060601b166021820152603581018290527f000000000000000000000000000000000000000000000000000000000000000060558201526000908190607501604080517fffffffffffffffffffffffffffffffffffffffffffffffffffffffffffffffe081840301815291905280516020909101209373ffffffffffffffffffffffffffffffffffffffff85163f7f0000000000000000000000000000000000000000000000000000000000000000149350915050565b6040805173ffffffffffffffffffffffffffffffffffffffff9093168352901515602083015201610123565b61010261035a366004611237565b610b4a565b61019261036d366004611153565b610e0d565b610385610380366004611153565b610f09565b604051610123919061125a565b6101026103a0366004611153565b610fa3565b6101dd6103b3366004611153565b610fdd565b60006103c38361103f565b73ffffffffffffffffffffffffffffffffffffffff8316600090815260208190526040902060030154808310610442576040517f6ceb340b00000000000000000000000000000000000000000000000000000000815273ffffffffffffffffffffffffffffffffffffffff851660048201526024015b60405180910390fd5b73ffffffffffffffffffffffffffffffffffffffff8416600090815260208190526040902060030180548490811061047c5761047c611321565b60009182526020909120015473ffffffffffffffffffffffffffffffffffffffff16949350505050565b6104af8361109e565b6040517fc4e8fcb500000000000000000000000000000000000000000000000000000000815273ffffffffffffffffffffffffffffffffffffffff8381166004830152821515602483015284169063c4e8fcb590604401600060405180830381600087803b15801561052057600080fd5b505af1158015610534573d6000803e3d6000fd5b5050505073ffffffffffffffffffffffffffffffffffffffff83811660009081526020818152604080832093861683526004840190915290205480151583801561057c575080155b156105f1576003830180546001810182556000828152602080822090920180547fffffffffffffffffffffffff00000000000000000000000000000000000000001673ffffffffffffffffffffffffffffffffffffffff8a16908117909155925492815260048601909152604090205561077b565b831580156105fc5750805b1561077b57600061060e6001846112b4565b6003850154909150600090610625906001906112b4565b90508181146106e557600085600301828154811061064557610645611321565b60009182526020909120015460038701805473ffffffffffffffffffffffffffffffffffffffff909216925082918590811061068357610683611321565b600091825260208083209190910180547fffffffffffffffffffffffff00000000000000000000000000000000000000001673ffffffffffffffffffffffffffffffffffffffff94851617905592909116815260048701909152604090208490555b846003018054806106f8576106f86112f2565b6000828152602080822083017fffffffffffffffffffffffffffffffffffffffffffffffffffffffffffffffff90810180547fffffffffffffffffffffffff000000000000000000000000000000000000000016905590920190925573ffffffffffffffffffffffffffffffffffffffff89168252600487019052604081205550505b505050505050565b600061078e8261103f565b5073ffffffffffffffffffffffffffffffffffffffff9081166000908152602081905260409020600101541690565b60006107c88361103f565b5073ffffffffffffffffffffffffffffffffffffffff91821660009081526020818152604080832093909416825260049092019091522054151590565b60006108108261103f565b5073ffffffffffffffffffffffffffffffffffffffff1660009081526020819052604090206003015490565b6108458161103f565b73ffffffffffffffffffffffffffffffffffffffff8181166000908152602081905260409020600201541633146108c0576040517f88c3a11500000000000000000000000000000000000000000000000000000000815273ffffffffffffffffffffffffffffffffffffffff82166004820152602401610439565b6040516000907f11a3cf439fb225bfe74225716b6774765670ec1060e3796802e62139d69974da908290a273ffffffffffffffffffffffffffffffffffffffff8082166000818152602081905260408082206002810180547fffffffffffffffffffffffff000000000000000000000000000000000000000016905560010154905133949190911692917fc8894f26f396ce8c004245c8b7cd1b92103a6e4302fcbab883987149ac01b7ec91a473ffffffffffffffffffffffffffffffffffffffff16600090815260208190526040902060010180547fffffffffffffffffffffffff00000000000000000000000000000000000000001633179055565b6109c78261109e565b73ffffffffffffffffffffffffffffffffffffffff8116610a2c576040517fa388d26300000000000000000000000000000000000000000000000000000000815273ffffffffffffffffffffffffffffffffffffffff83166004820152602401610439565b73ffffffffffffffffffffffffffffffffffffffff80831660009081526020819052604090206002015482821691161415610ab3576040517fcbc080ca00000000000000000000000000000000000000000000000000000000815273ffffffffffffffffffffffffffffffffffffffff808416600483015282166024820152604401610439565b60405173ffffffffffffffffffffffffffffffffffffffff8216907f11a3cf439fb225bfe74225716b6774765670ec1060e3796802e62139d69974da90600090a273ffffffffffffffffffffffffffffffffffffffff918216600090815260208190526040902060020180547fffffffffffffffffffffffff00000000000000000000000000000000000000001691909216179055565b600073ffffffffffffffffffffffffffffffffffffffff8216610b99576040517f99faaa0400000000000000000000000000000000000000000000000000000000815260040160405180910390fd5b606083901c3314610bd6576040517fcb6e534400000000000000000000000000000000000000000000000000000000815260040160405180910390fd5b6040517fff0000000000000000000000000000000000000000000000000000000000000060208201527fffffffffffffffffffffffffffffffffffffffff0000000000000000000000003060601b166021820152603581018490527f000000000000000000000000000000000000000000000000000000000000000060558201526075016040516020818303038152906040528051906020012060001c90507f00000000000000000000000000000000000000000000000000000000000000008173ffffffffffffffffffffffffffffffffffffffff163f1415610cfe576040517f6328ccb200000000000000000000000000000000000000000000000000000000815273ffffffffffffffffffffffffffffffffffffffff82166004820152602401610439565b82604051610d0b90611122565b8190604051809103906000f5905080158015610d2b573d6000803e3d6000fd5b505073ffffffffffffffffffffffffffffffffffffffff818116600081815260208181526040918290206001810180547fffffffffffffffffffffffff00000000000000000000000000000000000000001695881695909517909455868455815192835282018690527f4397af6128d529b8ae0442f99db1296d5136062597a15bbc61c1b2a6431a7d15910160405180910390a160405173ffffffffffffffffffffffffffffffffffffffff808516916000918516907fc8894f26f396ce8c004245c8b7cd1b92103a6e4302fcbab883987149ac01b7ec908390a45092915050565b610e168161109e565b73ffffffffffffffffffffffffffffffffffffffff81811660009081526020819052604090206002015416610e8f576040517f6b01361600000000000000000000000000000000000000000000000000000000815273ffffffffffffffffffffffffffffffffffffffff82166004820152602401610439565b6040516000907f11a3cf439fb225bfe74225716b6774765670ec1060e3796802e62139d69974da908290a273ffffffffffffffffffffffffffffffffffffffff16600090815260208190526040902060020180547fffffffffffffffffffffffff0000000000000000000000000000000000000000169055565b6060610f148261103f565b73ffffffffffffffffffffffffffffffffffffffff82166000908152602081815260409182902060030180548351818402810184019094528084529091830182828015610f9757602002820191906000526020600020905b815473ffffffffffffffffffffffffffffffffffffffff168152600190910190602001808311610f6c575b50505050509050919050565b6000610fae8261103f565b5073ffffffffffffffffffffffffffffffffffffffff9081166000908152602081905260409020600201541690565b73ffffffffffffffffffffffffffffffffffffffff81166000908152602081905260409020548061103a576040517f4ca8209000000000000000000000000000000000000000000000000000000000815260040160405180910390fd5b919050565b73ffffffffffffffffffffffffffffffffffffffff811660009081526020819052604090205461109b576040517f4ca8209000000000000000000000000000000000000000000000000000000000815260040160405180910390fd5b50565b6110a78161103f565b73ffffffffffffffffffffffffffffffffffffffff81811660009081526020819052604090206001015416331461109b576040517fd4ed9a1700000000000000000000000000000000000000000000000000000000815273ffffffffffffffffffffffffffffffffffffffff82166004820152602401610439565b61112c8061135183390190565b803573ffffffffffffffffffffffffffffffffffffffff8116811461103a57600080fd5b60006020828403121561116557600080fd5b61116e8261112f565b9392505050565b6000806040838503121561118857600080fd5b6111918361112f565b915061119f6020840161112f565b90509250929050565b6000806000606084860312156111bd57600080fd5b6111c68461112f565b92506111d46020850161112f565b9150604084013580151581146111e957600080fd5b809150509250925092565b6000806040838503121561120757600080fd5b6112108361112f565b946020939093013593505050565b60006020828403121561123057600080fd5b5035919050565b6000806040838503121561124a57600080fd5b8235915061119f6020840161112f565b6020808252825182820181905260009190848201906040850190845b818110156112a857835173ffffffffffffffffffffffffffffffffffffffff1683529284019291840191600101611276565b50909695505050505050565b6000828210156112ed577f4e487b7100000000000000000000000000000000000000000000000000000000600052601160045260246000fd5b500390565b7f4e487b7100000000000000000000000000000000000000000000000000000000600052603160045260246000fd5b7f4e487b7100000000000000000000000000000000000000000000000000000000600052603260045260246000fdfe60a060405234801561001057600080fd5b5033606081901b6080526110fa61003260003960006102fe01526110fa6000f3fe608060405234801561001057600080fd5b506004361061004c5760003560e01c80634ce34aa214610051578063899e104c146100995780638df25d92146100ac578063c4e8fcb5146100bf575b600080fd5b61006461005f366004610d94565b6100d4565b6040517fffffffff00000000000000000000000000000000000000000000000000000000909116815260200160405180910390f35b6100646100a7366004610dca565b610156565b6100646100ba366004610d52565b610224565b6100d26100cd366004610d1b565b6102e6565b005b3360009081526020819052604081205460ff16610124576040517f93daadf20000000000000000000000000000000000000000000000000000000081523360048201526024015b60405180910390fd5b61012e8383610463565b507f4ce34aa20000000000000000000000000000000000000000000000000000000092915050565b3360009081526020819052604081205460ff166101a1576040517f93daadf200000000000000000000000000000000000000000000000000000000815233600482015260240161011b565b6101ab8585610463565b8160005b818110156101f857368585838181106101ca576101ca611087565b90506020028101906101dc9190610fba565b90506101e7816104aa565b506101f181610ff8565b90506101af565b507f899e104c000000000000000000000000000000000000000000000000000000009695505050505050565b3360009081526020819052604081205460ff1661026f576040517f93daadf200000000000000000000000000000000000000000000000000000000815233600482015260240161011b565b8160005b818110156102bc573685858381811061028e5761028e611087565b90506020028101906102a09190610fba565b90506102ab816104aa565b506102b581610ff8565b9050610273565b507f8df25d9200000000000000000000000000000000000000000000000000000000949350505050565b3373ffffffffffffffffffffffffffffffffffffffff7f00000000000000000000000000000000000000000000000000000000000000001614610355576040517f6d5769be00000000000000000000000000000000000000000000000000000000815260040160405180910390fd5b73ffffffffffffffffffffffffffffffffffffffff821660009081526020819052604090205460ff16151581151514156103db576040517f924e341e00000000000000000000000000000000000000000000000000000000815273ffffffffffffffffffffffffffffffffffffffff83166004820152811515602482015260440161011b565b73ffffffffffffffffffffffffffffffffffffffff82166000818152602081815260409182902080547fffffffffffffffffffffffffffffffffffffffffffffffffffffffffffffff001685151590811790915591519182527fae63067d43ac07563b7eb8db6595635fc77f1578a2a5ea06ba91b63e2afa37e2910160405180910390a25050565b8060005b818110156104a4573684848381811061048257610482611087565b905060c00201905061049381610586565b5061049d81610ff8565b9050610467565b50505050565b60006104b96020830183610cf9565b905060006104cd6040840160208501610cf9565b905060006104e16060850160408601610cf9565b90503660006104f36060870187610f52565b90925090503660006105086080890189610f52565b9150915061057c87878787878080602002602001604051908101604052809392919081815260200183836020028082843760009201919091525050604080516020808b0282810182019093528a82529093508a92508991829185019084908082843760009201919091525061072792505050565b5050505050505050565b60016105956020830183610e53565b60038111156105a6576105a6611058565b14156105ec576105e96105bf6040830160208401610cf9565b6105cf6060840160408501610cf9565b6105df6080850160608601610cf9565b8460a0013561081e565b50565b60026105fb6020830183610e53565b600381111561060c5761060c611058565b141561068d578060a00135600114610650576040517fefcc00b100000000000000000000000000000000000000000000000000000000815260040160405180910390fd5b6105e96106636040830160208401610cf9565b6106736060840160408501610cf9565b6106836080850160608601610cf9565b8460800135610a6f565b600361069c6020830183610e53565b60038111156106ad576106ad611058565b14156106f5576105e96106c66040830160208401610cf9565b6106d66060840160408501610cf9565b6106e66080850160608601610cf9565b84608001358560a00135610b61565b6040517f7932f1fc00000000000000000000000000000000000000000000000000000000815260040160405180910390fd5b73ffffffffffffffffffffffffffffffffffffffff85163b61078d576040517f5f15d67200000000000000000000000000000000000000000000000000000000815273ffffffffffffffffffffffffffffffffffffffff8616600482015260240161011b565b6040517f2eb2c2d600000000000000000000000000000000000000000000000000000000815273ffffffffffffffffffffffffffffffffffffffff861690632eb2c2d6906107e5908790879087908790600401610eea565b600060405180830381600087803b1580156107ff57600080fd5b505af1158015610813573d6000803e3d6000fd5b505050505050505050565b73ffffffffffffffffffffffffffffffffffffffff84163b610884576040517f5f15d67200000000000000000000000000000000000000000000000000000000815273ffffffffffffffffffffffffffffffffffffffff8516600482015260240161011b565b6040805173ffffffffffffffffffffffffffffffffffffffff85811660248301528481166044830152606480830185905283518084039091018152608490920183526020820180517bffffffffffffffffffffffffffffffffffffffffffffffffffffffff167f23b872dd0000000000000000000000000000000000000000000000000000000017905291516000928392908816916109239190610eaf565b6000604051808303816000865af19150503d8060008114610960576040519150601f19603f3d011682016040523d82523d6000602084013e610965565b606091505b5091509150816109d7576040517ff486bc8700000000000000000000000000000000000000000000000000000000815273ffffffffffffffffffffffffffffffffffffffff8088166004830152808716602483015285166044820152600060648201526084810184905260a40161011b565b8051158015906109e957506020815110155b15610a675780806020019051810190610a029190610e36565b610a67576040517f9889192300000000000000000000000000000000000000000000000000000000815273ffffffffffffffffffffffffffffffffffffffff80881660048301528087166024830152851660448201526064810184905260840161011b565b505050505050565b73ffffffffffffffffffffffffffffffffffffffff84163b610ad5576040517f5f15d67200000000000000000000000000000000000000000000000000000000815273ffffffffffffffffffffffffffffffffffffffff8516600482015260240161011b565b6040517f23b872dd00000000000000000000000000000000000000000000000000000000815273ffffffffffffffffffffffffffffffffffffffff84811660048301528381166024830152604482018390528516906323b872dd90606401600060405180830381600087803b158015610b4d57600080fd5b505af115801561057c573d6000803e3d6000fd5b73ffffffffffffffffffffffffffffffffffffffff85163b610bc7576040517f5f15d67200000000000000000000000000000000000000000000000000000000815273ffffffffffffffffffffffffffffffffffffffff8616600482015260240161011b565b6040517ff242432a00000000000000000000000000000000000000000000000000000000815273ffffffffffffffffffffffffffffffffffffffff85811660048301528481166024830152604482018490526064820183905260a06084830152600060a483015286169063f242432a9060c4016107e5565b803573ffffffffffffffffffffffffffffffffffffffff81168114610c6357600080fd5b919050565b60008083601f840112610c7a57600080fd5b50813567ffffffffffffffff811115610c9257600080fd5b6020830191508360208260051b8501011115610cad57600080fd5b9250929050565b60008083601f840112610cc657600080fd5b50813567ffffffffffffffff811115610cde57600080fd5b60208301915083602060c083028501011115610cad57600080fd5b600060208284031215610d0b57600080fd5b610d1482610c3f565b9392505050565b60008060408385031215610d2e57600080fd5b610d3783610c3f565b91506020830135610d47816110b6565b809150509250929050565b60008060208385031215610d6557600080fd5b823567ffffffffffffffff811115610d7c57600080fd5b610d8885828601610c68565b90969095509350505050565b60008060208385031215610da757600080fd5b823567ffffffffffffffff811115610dbe57600080fd5b610d8885828601610cb4565b60008060008060408587031215610de057600080fd5b843567ffffffffffffffff80821115610df857600080fd5b610e0488838901610cb4565b90965094506020870135915080821115610e1d57600080fd5b50610e2a87828801610c68565b95989497509550505050565b600060208284031215610e4857600080fd5b8151610d14816110b6565b600060208284031215610e6557600080fd5b813560048110610d1457600080fd5b600081518084526020808501945080840160005b83811015610ea457815187529582019590820190600101610e88565b509495945050505050565b6000825160005b81811015610ed05760208186018101518583015201610eb6565b81811115610edf576000828501525b509190910192915050565b600073ffffffffffffffffffffffffffffffffffffffff808716835280861660208401525060a06040830152610f2360a0830185610e74565b8281036060840152610f358185610e74565b838103608090940193909352505060008152602001949350505050565b60008083357fffffffffffffffffffffffffffffffffffffffffffffffffffffffffffffffe1843603018112610f8757600080fd5b83018035915067ffffffffffffffff821115610fa257600080fd5b6020019150600581901b3603821315610cad57600080fd5b600082357fffffffffffffffffffffffffffffffffffffffffffffffffffffffffffffff61833603018112610fee57600080fd5b9190910192915050565b60007fffffffffffffffffffffffffffffffffffffffffffffffffffffffffffffffff821415611051577f4e487b7100000000000000000000000000000000000000000000000000000000600052601160045260246000fd5b5060010190565b7f4e487b7100000000000000000000000000000000000000000000000000000000600052602160045260246000fd5b7f4e487b7100000000000000000000000000000000000000000000000000000000600052603260045260246000fd5b80151581146105e957600080fdfea2646970667358221220aa5a653526ec2a50636ffde7ca4b424bfecd5df9f7c6ede58c355ca0f9afe30464736f6c63430008070033a26469706673582212207ff39ba8847153a7e08f73c00dc0f59381b704453c1cd8efd2a392b41ac8c8e264736f6c6343000807003360a060405234801561001057600080fd5b5033606081901b6080526110fa61003260003960006102fe01526110fa6000f3fe608060405234801561001057600080fd5b506004361061004c5760003560e01c80634ce34aa214610051578063899e104c146100995780638df25d92146100ac578063c4e8fcb5146100bf575b600080fd5b61006461005f366004610d94565b6100d4565b6040517fffffffff00000000000000000000000000000000000000000000000000000000909116815260200160405180910390f35b6100646100a7366004610dca565b610156565b6100646100ba366004610d52565b610224565b6100d26100cd366004610d1b565b6102e6565b005b3360009081526020819052604081205460ff16610124576040517f93daadf20000000000000000000000000000000000000000000000000000000081523360048201526024015b60405180910390fd5b61012e8383610463565b507f4ce34aa20000000000000000000000000000000000000000000000000000000092915050565b3360009081526020819052604081205460ff166101a1576040517f93daadf200000000000000000000000000000000000000000000000000000000815233600482015260240161011b565b6101ab8585610463565b8160005b818110156101f857368585838181106101ca576101ca611087565b90506020028101906101dc9190610fba565b90506101e7816104aa565b506101f181610ff8565b90506101af565b507f899e104c000000000000000000000000000000000000000000000000000000009695505050505050565b3360009081526020819052604081205460ff1661026f576040517f93daadf200000000000000000000000000000000000000000000000000000000815233600482015260240161011b565b8160005b818110156102bc573685858381811061028e5761028e611087565b90506020028101906102a09190610fba565b90506102ab816104aa565b506102b581610ff8565b9050610273565b507f8df25d9200000000000000000000000000000000000000000000000000000000949350505050565b3373ffffffffffffffffffffffffffffffffffffffff7f00000000000000000000000000000000000000000000000000000000000000001614610355576040517f6d5769be00000000000000000000000000000000000000000000000000000000815260040160405180910390fd5b73ffffffffffffffffffffffffffffffffffffffff821660009081526020819052604090205460ff16151581151514156103db576040517f924e341e00000000000000000000000000000000000000000000000000000000815273ffffffffffffffffffffffffffffffffffffffff83166004820152811515602482015260440161011b565b73ffffffffffffffffffffffffffffffffffffffff82166000818152602081815260409182902080547fffffffffffffffffffffffffffffffffffffffffffffffffffffffffffffff001685151590811790915591519182527fae63067d43ac07563b7eb8db6595635fc77f1578a2a5ea06ba91b63e2afa37e2910160405180910390a25050565b8060005b818110156104a4573684848381811061048257610482611087565b905060c00201905061049381610586565b5061049d81610ff8565b9050610467565b50505050565b60006104b96020830183610cf9565b905060006104cd6040840160208501610cf9565b905060006104e16060850160408601610cf9565b90503660006104f36060870187610f52565b90925090503660006105086080890189610f52565b9150915061057c87878787878080602002602001604051908101604052809392919081815260200183836020028082843760009201919091525050604080516020808b0282810182019093528a82529093508a92508991829185019084908082843760009201919091525061072792505050565b5050505050505050565b60016105956020830183610e53565b60038111156105a6576105a6611058565b14156105ec576105e96105bf6040830160208401610cf9565b6105cf6060840160408501610cf9565b6105df6080850160608601610cf9565b8460a0013561081e565b50565b60026105fb6020830183610e53565b600381111561060c5761060c611058565b141561068d578060a00135600114610650576040517fefcc00b100000000000000000000000000000000000000000000000000000000815260040160405180910390fd5b6105e96106636040830160208401610cf9565b6106736060840160408501610cf9565b6106836080850160608601610cf9565b8460800135610a6f565b600361069c6020830183610e53565b60038111156106ad576106ad611058565b14156106f5576105e96106c66040830160208401610cf9565b6106d66060840160408501610cf9565b6106e66080850160608601610cf9565b84608001358560a00135610b61565b6040517f7932f1fc00000000000000000000000000000000000000000000000000000000815260040160405180910390fd5b73ffffffffffffffffffffffffffffffffffffffff85163b61078d576040517f5f15d67200000000000000000000000000000000000000000000000000000000815273ffffffffffffffffffffffffffffffffffffffff8616600482015260240161011b565b6040517f2eb2c2d600000000000000000000000000000000000000000000000000000000815273ffffffffffffffffffffffffffffffffffffffff861690632eb2c2d6906107e5908790879087908790600401610eea565b600060405180830381600087803b1580156107ff57600080fd5b505af1158015610813573d6000803e3d6000fd5b505050505050505050565b73ffffffffffffffffffffffffffffffffffffffff84163b610884576040517f5f15d67200000000000000000000000000000000000000000000000000000000815273ffffffffffffffffffffffffffffffffffffffff8516600482015260240161011b565b6040805173ffffffffffffffffffffffffffffffffffffffff85811660248301528481166044830152606480830185905283518084039091018152608490920183526020820180517bffffffffffffffffffffffffffffffffffffffffffffffffffffffff167f23b872dd0000000000000000000000000000000000000000000000000000000017905291516000928392908816916109239190610eaf565b6000604051808303816000865af19150503d8060008114610960576040519150601f19603f3d011682016040523d82523d6000602084013e610965565b606091505b5091509150816109d7576040517ff486bc8700000000000000000000000000000000000000000000000000000000815273ffffffffffffffffffffffffffffffffffffffff8088166004830152808716602483015285166044820152600060648201526084810184905260a40161011b565b8051158015906109e957506020815110155b15610a675780806020019051810190610a029190610e36565b610a67576040517f9889192300000000000000000000000000000000000000000000000000000000815273ffffffffffffffffffffffffffffffffffffffff80881660048301528087166024830152851660448201526064810184905260840161011b565b505050505050565b73ffffffffffffffffffffffffffffffffffffffff84163b610ad5576040517f5f15d67200000000000000000000000000000000000000000000000000000000815273ffffffffffffffffffffffffffffffffffffffff8516600482015260240161011b565b6040517f23b872dd00000000000000000000000000000000000000000000000000000000815273ffffffffffffffffffffffffffffffffffffffff84811660048301528381166024830152604482018390528516906323b872dd90606401600060405180830381600087803b158015610b4d57600080fd5b505af115801561057c573d6000803e3d6000fd5b73ffffffffffffffffffffffffffffffffffffffff85163b610bc7576040517f5f15d67200000000000000000000000000000000000000000000000000000000815273ffffffffffffffffffffffffffffffffffffffff8616600482015260240161011b565b6040517ff242432a00000000000000000000000000000000000000000000000000000000815273ffffffffffffffffffffffffffffffffffffffff85811660048301528481166024830152604482018490526064820183905260a06084830152600060a483015286169063f242432a9060c4016107e5565b803573ffffffffffffffffffffffffffffffffffffffff81168114610c6357600080fd5b919050565b60008083601f840112610c7a57600080fd5b50813567ffffffffffffffff811115610c9257600080fd5b6020830191508360208260051b8501011115610cad57600080fd5b9250929050565b60008083601f840112610cc657600080fd5b50813567ffffffffffffffff811115610cde57600080fd5b60208301915083602060c083028501011115610cad57600080fd5b600060208284031215610d0b57600080fd5b610d1482610c3f565b9392505050565b60008060408385031215610d2e57600080fd5b610d3783610c3f565b91506020830135610d47816110b6565b809150509250929050565b60008060208385031215610d6557600080fd5b823567ffffffffffffffff811115610d7c57600080fd5b610d8885828601610c68565b90969095509350505050565b60008060208385031215610da757600080fd5b823567ffffffffffffffff811115610dbe57600080fd5b610d8885828601610cb4565b60008060008060408587031215610de057600080fd5b843567ffffffffffffffff80821115610df857600080fd5b610e0488838901610cb4565b90965094506020870135915080821115610e1d57600080fd5b50610e2a87828801610c68565b95989497509550505050565b600060208284031215610e4857600080fd5b8151610d14816110b6565b600060208284031215610e6557600080fd5b813560048110610d1457600080fd5b600081518084526020808501945080840160005b83811015610ea457815187529582019590820190600101610e88565b509495945050505050565b6000825160005b81811015610ed05760208186018101518583015201610eb6565b81811115610edf576000828501525b509190910192915050565b600073ffffffffffffffffffffffffffffffffffffffff808716835280861660208401525060a06040830152610f2360a0830185610e74565b8281036060840152610f358185610e74565b838103608090940193909352505060008152602001949350505050565b60008083357fffffffffffffffffffffffffffffffffffffffffffffffffffffffffffffffe1843603018112610f8757600080fd5b83018035915067ffffffffffffffff821115610fa257600080fd5b6020019150600581901b3603821315610cad57600080fd5b600082357fffffffffffffffffffffffffffffffffffffffffffffffffffffffffffffff61833603018112610fee57600080fd5b9190910192915050565b60007fffffffffffffffffffffffffffffffffffffffffffffffffffffffffffffffff821415611051577f4e487b7100000000000000000000000000000000000000000000000000000000600052601160045260246000fd5b5060010190565b7f4e487b7100000000000000000000000000000000000000000000000000000000600052602160045260246000fd5b7f4e487b7100000000000000000000000000000000000000000000000000000000600052603260045260246000fd5b80151581146105e957600080fdfea2646970667358221220aa5a653526ec2a50636ffde7ca4b424bfecd5df9f7c6ede58c355ca0f9afe30464736f6c63430008070033",
    "linkReferences": {}
  },
  "methodIdentifiers": {
    "acceptOwnership(address)": "51710e45",
    "cancelOwnershipTransfer(address)": "7b37e561",
    "createConduit(bytes32,address)": "794593bc",
    "getChannel(address,uint256)": "027cc764",
    "getChannelStatus(address,address)": "33bc8572",
    "getChannels(address)": "8b9e028b",
    "getConduit(bytes32)": "6e9bfd9f",
    "getConduitCodeHashes()": "0a96ad39",
    "getKey(address)": "93790f44",
    "getPotentialOwner(address)": "906c87cc",
    "getTotalChannels(address)": "4e3f9580",
    "ownerOf(address)": "14afd79e",
    "transferOwnership(address,address)": "6d435421",
    "updateChannel(address,address,bool)": "13ad9cab"
  },
  "id": 42
}