{
  "abi": [
    {
      "inputs": [
        {
          "internalType": "address",
          "name": "_owner",
          "type": "address"
        }
      ],
      "stateMutability": "nonpayable",
      "type": "constructor"
    },
    {
      "inputs": [
        {
          "internalType": "contract ERC20ApprovalInterface",
          "name": "token",
          "type": "address"
        },
        {
          "internalType": "address",
          "name": "operator",
          "type": "address"
        },
        {
          "internalType": "uint256",
          "name": "amount",
          "type": "uint256"
        }
      ],
      "name": "approveERC20",
      "outputs": [],
      "stateMutability": "nonpayable",
      "type": "function"
    },
    {
      "inputs": [
        {
          "internalType": "contract NFTApprovalInterface",
          "name": "token",
          "type": "address"
        },
        {
          "internalType": "address",
          "name": "operator",
          "type": "address"
        }
      ],
      "name": "approveNFT",
      "outputs": [],
      "stateMutability": "nonpayable",
      "type": "function"
    },
    {
      "inputs": [
        {
          "internalType": "bytes32",
          "name": "",
          "type": "bytes32"
        }
      ],
      "name": "digestApproved",
      "outputs": [
        {
          "internalType": "bool",
          "name": "",
          "type": "bool"
        }
      ],
      "stateMutability": "view",
      "type": "function"
    },
    {
      "inputs": [],
      "name": "isValid",
      "outputs": [
        {
          "internalType": "bool",
          "name": "",
          "type": "bool"
        }
      ],
      "stateMutability": "view",
      "type": "function"
    },
    {
      "inputs": [
        {
          "internalType": "bytes32",
          "name": "digest",
          "type": "bytes32"
        },
        {
          "internalType": "bytes",
          "name": "signature",
          "type": "bytes"
        }
      ],
      "name": "isValidSignature",
      "outputs": [
        {
          "internalType": "bytes4",
          "name": "",
          "type": "bytes4"
        }
      ],
      "stateMutability": "view",
      "type": "function"
    },
    {
      "inputs": [],
      "name": "owner",
      "outputs": [
        {
          "internalType": "address",
          "name": "",
          "type": "address"
        }
      ],
      "stateMutability": "view",
      "type": "function"
    },
    {
      "inputs": [
        {
          "internalType": "bytes32",
          "name": "digest",
          "type": "bytes32"
        },
        {
          "internalType": "bool",
          "name": "approved",
          "type": "bool"
        }
      ],
      "name": "registerDigest",
      "outputs": [],
      "stateMutability": "nonpayable",
      "type": "function"
    },
    {
      "inputs": [
        {
          "internalType": "bool",
          "name": "showMessage",
          "type": "bool"
        }
      ],
      "name": "revertWithMessage",
      "outputs": [],
      "stateMutability": "nonpayable",
      "type": "function"
    },
    {
      "inputs": [
        {
          "internalType": "bool",
          "name": "valid",
          "type": "bool"
        }
      ],
      "name": "setValid",
      "outputs": [],
      "stateMutability": "nonpayable",
      "type": "function"
    },
    {
      "inputs": [],
      "name": "showRevertMessage",
      "outputs": [
        {
          "internalType": "bool",
          "name": "",
          "type": "bool"
        }
      ],
      "stateMutability": "view",
      "type": "function"
    }
  ],
  "bytecode": {
    "object": "0x60a060405234801561001057600080fd5b50604051610af9380380610af983398101604081905261002f9161005d565b6001600160a01b031660805260008054600160ff19918216811790925560028054909116909117905561008d565b60006020828403121561006f57600080fd5b81516001600160a01b038116811461008657600080fd5b9392505050565b608051610a3c6100bd600039600081816101f0015281816104470152818161058101526106ac0152610a3c6000f3fe608060405234801561001057600080fd5b50600436106100be5760003560e01c80638da5cb5b11610076578063a8e5e4aa1161005b578063a8e5e4aa14610254578063bb5d40eb14610267578063de77d5e01461027457600080fd5b80638da5cb5b146101eb57806397fe80141461023757600080fd5b806346a35674116100a757806346a356741461015a5780636c64edee1461019957806384e6d7e7146101d857600080fd5b80631626ba7e146100c357806329e282e81461010c575b600080fd5b6100d66100d1366004610801565b610297565b6040517fffffffff0000000000000000000000000000000000000000000000000000000090911681526020015b60405180910390f35b61015861011a3660046108eb565b60009182526001602052604090912080547fffffffffffffffffffffffffffffffffffffffffffffffffffffffffffffff0016911515919091179055565b005b61015861016836600461091b565b600080547fffffffffffffffffffffffffffffffffffffffffffffffffffffffffffffff0016911515919091179055565b6101586101a736600461091b565b600280547fffffffffffffffffffffffffffffffffffffffffffffffffffffffffffffff0016911515919091179055565b6101586101e6366004610961565b610569565b6102127f000000000000000000000000000000000000000000000000000000000000000081565b60405173ffffffffffffffffffffffffffffffffffffffff9091168152602001610103565b6000546102449060ff1681565b6040519015158152602001610103565b61015861026236600461098f565b610694565b6002546102449060ff1681565b6102446102823660046109d0565b60016020526000908152604090205460ff1681565b60008281526001602052604081205460ff16156102d557507f1626ba7e00000000000000000000000000000000000000000000000000000000610563565b81516040036103375760025460ff1661030e577fffffffff00000000000000000000000000000000000000000000000000000000610330565b7f1626ba7e000000000000000000000000000000000000000000000000000000005b9050610563565b815160411461034557600080fd5b60208201516040830151606084015160001a7f7fffffffffffffffffffffffffffffff5d576e7357a4501ddfe92f46681b20a082111561038457600080fd5b8060ff16601b1415801561039c57508060ff16601c14155b156103a657600080fd5b6040805160008082526020820180845289905260ff841692820192909252606081018590526080810184905260019060a0016020604051602081039080840390855afa1580156103fa573d6000803e3d6000fd5b50506040517fffffffffffffffffffffffffffffffffffffffffffffffffffffffffffffffe0015191505073ffffffffffffffffffffffffffffffffffffffff811661044557600080fd5b7f000000000000000000000000000000000000000000000000000000000000000073ffffffffffffffffffffffffffffffffffffffff168173ffffffffffffffffffffffffffffffffffffffff161461050a5760005460ff16156100be576040517f08c379a000000000000000000000000000000000000000000000000000000000815260206004820152600a60248201527f424144205349474e45520000000000000000000000000000000000000000000060448201526064015b60405180910390fd5b60025460ff1661053a577fffffffff0000000000000000000000000000000000000000000000000000000061055c565b7f1626ba7e000000000000000000000000000000000000000000000000000000005b9450505050505b92915050565b3373ffffffffffffffffffffffffffffffffffffffff7f00000000000000000000000000000000000000000000000000000000000000001614610608576040517f08c379a000000000000000000000000000000000000000000000000000000000815260206004820152600a60248201527f4f6e6c79206f776e6572000000000000000000000000000000000000000000006044820152606401610501565b6040517fa22cb46500000000000000000000000000000000000000000000000000000000815273ffffffffffffffffffffffffffffffffffffffff82811660048301526001602483015283169063a22cb46590604401600060405180830381600087803b15801561067857600080fd5b505af115801561068c573d6000803e3d6000fd5b505050505050565b3373ffffffffffffffffffffffffffffffffffffffff7f00000000000000000000000000000000000000000000000000000000000000001614610733576040517f08c379a000000000000000000000000000000000000000000000000000000000815260206004820152600a60248201527f4f6e6c79206f776e6572000000000000000000000000000000000000000000006044820152606401610501565b6040517f095ea7b300000000000000000000000000000000000000000000000000000000815273ffffffffffffffffffffffffffffffffffffffff83811660048301526024820183905284169063095ea7b3906044016020604051808303816000875af11580156107a8573d6000803e3d6000fd5b505050506040513d601f19601f820116820180604052508101906107cc91906109e9565b50505050565b7f4e487b7100000000000000000000000000000000000000000000000000000000600052604160045260246000fd5b6000806040838503121561081457600080fd5b82359150602083013567ffffffffffffffff8082111561083357600080fd5b818501915085601f83011261084757600080fd5b813581811115610859576108596107d2565b604051601f82017fffffffffffffffffffffffffffffffffffffffffffffffffffffffffffffffe0908116603f0116810190838211818310171561089f5761089f6107d2565b816040528281528860208487010111156108b857600080fd5b8260208601602083013760006020848301015280955050505050509250929050565b80151581146108e857600080fd5b50565b600080604083850312156108fe57600080fd5b823591506020830135610910816108da565b809150509250929050565b60006020828403121561092d57600080fd5b8135610938816108da565b9392505050565b73ffffffffffffffffffffffffffffffffffffffff811681146108e857600080fd5b6000806040838503121561097457600080fd5b823561097f8161093f565b915060208301356109108161093f565b6000806000606084860312156109a457600080fd5b83356109af8161093f565b925060208401356109bf8161093f565b929592945050506040919091013590565b6000602082840312156109e257600080fd5b5035919050565b6000602082840312156109fb57600080fd5b8151610938816108da56fea264697066735822122074d45570c4ee0411bb573bdd979e7b839458c415c75171f61fb3ed5910c1172c64736f6c634300080e0033",
    "linkReferences": {}
  },
  "methodIdentifiers": {
    "approveERC20(address,address,uint256)": "a8e5e4aa",
    "approveNFT(address,address)": "84e6d7e7",
    "digestApproved(bytes32)": "de77d5e0",
    "isValid()": "bb5d40eb",
    "isValidSignature(bytes32,bytes)": "1626ba7e",
    "owner()": "8da5cb5b",
    "registerDigest(bytes32,bool)": "29e282e8",
    "revertWithMessage(bool)": "46a35674",
    "setValid(bool)": "6c64edee",
    "showRevertMessage()": "97fe8014"
  },
  "id": 51
}