{
  "abi": [
    {
      "inputs": [
        {
          "internalType": "address",
          "name": "conduitController",
          "type": "address"
        }
      ],
      "stateMutability": "nonpayable",
      "type": "constructor"
    },
    {
      "inputs": [
        {
          "internalType": "address",
          "name": "token",
          "type": "address"
        },
        {
          "internalType": "address",
          "name": "from",
          "type": "address"
        },
        {
          "internalType": "address",
          "name": "to",
          "type": "address"
        },
        {
          "internalType": "uint256",
          "name": "amount",
          "type": "uint256"
        }
      ],
      "name": "BadReturnValueFromERC20OnTransfer",
      "type": "error"
    },
    {
      "inputs": [
        {
          "internalType": "address",
          "name": "token",
          "type": "address"
        },
        {
          "internalType": "address",
          "name": "from",
          "type": "address"
        },
        {
          "internalType": "address",
          "name": "to",
          "type": "address"
        },
        {
          "internalType": "uint256[]",
          "name": "identifiers",
          "type": "uint256[]"
        },
        {
          "internalType": "uint256[]",
          "name": "amounts",
          "type": "uint256[]"
        }
      ],
      "name": "ERC1155BatchTransferGenericFailure",
      "type": "error"
    },
    {
      "inputs": [],
      "name": "Invalid1155BatchTransferEncoding",
      "type": "error"
    },
    {
      "inputs": [],
      "name": "InvalidERC721TransferAmount",
      "type": "error"
    },
    {
      "inputs": [],
      "name": "InvalidItemType",
      "type": "error"
    },
    {
      "inputs": [],
      "name": "MissingItemAmount",
      "type": "error"
    },
    {
      "inputs": [
        {
          "internalType": "address",
          "name": "account",
          "type": "address"
        }
      ],
      "name": "NoContract",
      "type": "error"
    },
    {
      "inputs": [
        {
          "internalType": "address",
          "name": "token",
          "type": "address"
        },
        {
          "internalType": "address",
          "name": "from",
          "type": "address"
        },
        {
          "internalType": "address",
          "name": "to",
          "type": "address"
        },
        {
          "internalType": "uint256",
          "name": "identifier",
          "type": "uint256"
        },
        {
          "internalType": "uint256",
          "name": "amount",
          "type": "uint256"
        }
      ],
      "name": "TokenTransferGenericFailure",
      "type": "error"
    },
    {
      "inputs": [],
      "name": "UnusedItemParameters",
      "type": "error"
    },
    {
      "inputs": [
        {
          "components": [
            {
              "internalType": "enum ConduitItemType",
              "name": "itemType",
              "type": "uint8"
            },
            {
              "internalType": "address",
              "name": "token",
              "type": "address"
            },
            {
              "internalType": "uint256",
              "name": "identifier",
              "type": "uint256"
            },
            {
              "internalType": "uint256",
              "name": "amount",
              "type": "uint256"
            }
          ],
          "internalType": "struct TransferHelperItem[]",
          "name": "items",
          "type": "tuple[]"
        },
        {
          "internalType": "address",
          "name": "recipient",
          "type": "address"
        },
        {
          "internalType": "bytes32",
          "name": "conduitKey",
          "type": "bytes32"
        }
      ],
      "name": "bulkTransfer",
      "outputs": [
        {
          "internalType": "bytes4",
          "name": "magicValue",
          "type": "bytes4"
        }
      ],
      "stateMutability": "nonpayable",
      "type": "function"
    }
  ],
  "bytecode": {
    "object": "0x60c060405234801561001057600080fd5b50604051610cba380380610cba83398101604081905261002f916100be565b6000819050806001600160a01b0316630a96ad396040518163ffffffff1660e01b8152600401604080518083038186803b15801561006c57600080fd5b505afa158015610080573d6000803e3d6000fd5b505050506040513d601f19601f820116820180604052508101906100a491906100ee565b5060a05260601b6001600160601b03191660805250610112565b6000602082840312156100d057600080fd5b81516001600160a01b03811681146100e757600080fd5b9392505050565b6000806040838503121561010157600080fd5b505080516020909101519092909150565b60805160601c60a051610b8061013a60003960006102400152600061020f0152610b806000f3fe608060405234801561001057600080fd5b506004361061002b5760003560e01c806373b69d0314610030575b600080fd5b61004361003e3660046108e6565b610078565b6040517fffffffff00000000000000000000000000000000000000000000000000000000909116815260200160405180910390f35b600083826101c35760005b818110156101bd573687878381811061009e5761009e610aec565b608002919091019150600090506100b860208301836109b4565b60038111156100c9576100c9610abd565b1415610101576040517f7932f1fc00000000000000000000000000000000000000000000000000000000815260040160405180910390fd5b600161011060208301836109b4565b600381111561012157610121610abd565b141561014b5761014661013a60408301602084016108c4565b338884606001356104ed565b6101b4565b600261015a60208301836109b4565b600381111561016b5761016b610abd565b14156101905761014661018460408301602084016108c4565b3388846040013561065a565b6101b46101a360408301602084016108c4565b338884604001358560600135610769565b50600101610083565b506104c2565b6040517fff0000000000000000000000000000000000000000000000000000000000000060208201527fffffffffffffffffffffffffffffffffffffffff0000000000000000000000007f000000000000000000000000000000000000000000000000000000000000000060601b166021820152603581018490527f000000000000000000000000000000000000000000000000000000000000000060558201526000906075016040516020818303038152906040528051906020012060001c905060008267ffffffffffffffff8111156102a0576102a0610b1b565b60405190808252806020026020018201604052801561031e57816020015b6040805160c08101825260008082526020808301829052928201819052606082018190526080820181905260a082015282527fffffffffffffffffffffffffffffffffffffffffffffffffffffffffffffffff9092019101816102be5790505b50905060005b83811015610419573689898381811061033f5761033f610aec565b90506080020190506040518060c0016040528082600001602081019061036591906109b4565b600381111561037657610376610abd565b815260200182602001602081019061038e91906108c4565b73ffffffffffffffffffffffffffffffffffffffff1681526020013373ffffffffffffffffffffffffffffffffffffffff1681526020018973ffffffffffffffffffffffffffffffffffffffff16815260200182604001358152602001826060013581525083838151811061040557610405610aec565b602090810291909101015250600101610324565b506040517f4ce34aa200000000000000000000000000000000000000000000000000000000815273ffffffffffffffffffffffffffffffffffffffff831690634ce34aa29061046c9084906004016109d5565b602060405180830381600087803b15801561048657600080fd5b505af115801561049a573d6000803e3d6000fd5b505050506040513d601f19601f820116820180604052508101906104be9190610972565b5050505b507f73b69d030000000000000000000000000000000000000000000000000000000095945050505050565b6040517f23b872dd00000000000000000000000000000000000000000000000000000000600052836004528260245281604452602060006064600080895af1803d15601f3d116001600051141617163d1515811661064a5780873b15151661064a578061061c57816105e2573d156105a3576020601f3d010460208404816003028183111561058a57818303600302610200838002858002030401015b5a60208201101561059f573d6000803e3d6000fd5b5050505b7ff486bc870000000000000000000000000000000000000000000000000000000060005286600452856024528460445260006064528360845260a46000fd5b7f98891923000000000000000000000000000000000000000000000000000000006000528660045285602452846044528360645260846000fd5b7f5f15d672000000000000000000000000000000000000000000000000000000006000528660045260246000fd5b5050604052505060006060525050565b833b61068e577f5f15d672000000000000000000000000000000000000000000000000000000006000528360045260246000fd5b6040517f23b872dd000000000000000000000000000000000000000000000000000000006000528360045282602452816044526000806064600080895af18061075a573d1561071b576020601f3d010460208304816003028183111561070257818303600302610200838002858002030401015b5a602082011015610717573d6000803e3d6000fd5b5050505b7ff486bc870000000000000000000000000000000000000000000000000000000060005285600452846024528360445282606452600160845260a46000fd5b50604052505060006060525050565b843b61079d577f5f15d672000000000000000000000000000000000000000000000000000000006000528460045260246000fd5b60405160805160a05160c0517ff242432a000000000000000000000000000000000000000000000000000000006000528760045286602452856044528460645260a0608452600060a45260008060c46000808d5af18061087f573d15610841576020601f3d010460208604816003028183111561082857818303600302610200838002858002030401015b5a60208201101561083d573d6000803e3d6000fd5b5050505b7ff486bc8700000000000000000000000000000000000000000000000000000000600052896004528860245287604452866064528560845260a46000fd5b5060809290925260a05260c05260405250506000606052505050565b803573ffffffffffffffffffffffffffffffffffffffff811681146108bf57600080fd5b919050565b6000602082840312156108d657600080fd5b6108df8261089b565b9392505050565b600080600080606085870312156108fc57600080fd5b843567ffffffffffffffff8082111561091457600080fd5b818701915087601f83011261092857600080fd5b81358181111561093757600080fd5b8860208260071b850101111561094c57600080fd5b602092830196509450610962918701905061089b565b9396929550929360400135925050565b60006020828403121561098457600080fd5b81517fffffffff00000000000000000000000000000000000000000000000000000000811681146108df57600080fd5b6000602082840312156109c657600080fd5b8135600481106108df57600080fd5b60208082528251828201819052600091906040908185019086840185805b83811015610aaf57825180516004808210610a34577f4e487b7100000000000000000000000000000000000000000000000000000000855260218152602485fd5b5086528088015173ffffffffffffffffffffffffffffffffffffffff90811689880152878201511687870152606080820151610a878289018273ffffffffffffffffffffffffffffffffffffffff169052565b50506080818101519087015260a0908101519086015260c090940193918601916001016109f3565b509298975050505050505050565b7f4e487b7100000000000000000000000000000000000000000000000000000000600052602160045260246000fd5b7f4e487b7100000000000000000000000000000000000000000000000000000000600052603260045260246000fd5b7f4e487b7100000000000000000000000000000000000000000000000000000000600052604160045260246000fdfea26469706673582212202cda5184a18f4718560e90c8f02e278bba86b82310beda17c523767447577a6c64736f6c63430008070033",
    "linkReferences": {}
  },
  "methodIdentifiers": {
    "bulkTransfer((uint8,address,uint256,uint256)[],address,bytes32)": "73b69d03"
  },
  "id": 4
}